:100000000C94F1000C9419010C9419010C943E10FD
:100010000C9419100C94F40F0C9419010C94190100
:100020000C9419010C9419010C9419010C941901E8
:100030000C9419010C9419010C9419010C941901D8
:100040000C9488100C9419010C94AE0E0C94880E2C
:100050000C9419010C9419010C9419010C941901B8
:100060000C943C050C9419012B2D2D2D2D2D2D2D8F
:100070002D2D2D2D2D2D2D2D2D2D2D2D2D2D2D2DB0
:100080002D2D2D2D2D2D2D2D2D2D2D2D2B007C208D
:100090002020205465616D45736361706520484878
:1000A000265320454E47494E454552494E4720204C
:1000B00020207C002B2D2D2D2D2D2D2D2D2D2D2D6A
:1000C0002D2D2D2D2D2D2D2D2D2D2D2D2D2D2D2D60
:1000D0002D2D2D2D2D2D2D2D2B0020646576696362
:1000E000652873292E00466F756E642000202D3E12
:1000F00020536572766F2D4932432D426F617264D1
:1001000000202D3E2052656C617900202D3E204458
:100110006973706C617900202D3E20496E70757492
:100120002D4932432D626F61726400202D3E204CB8
:1001300043442D4932432D426F61726400202D3EAD
:10014000204C43440029002028307800466F756E0B
:100150006420616464726573733A20005363616E56
:100160006E696E672E2E2E00493243207363616ED6
:100170006E65723A0052657374617274696E6720BD
:10018000696E0000000000240027002A0000000023
:1001900000250028002B0000000000230026002975
:1001A0000004040404040404040202020202020320
:1001B000030303030301020408102040800102042A
:1001C00008102001020408102000000008000201AD
:1001D00000000304070000000000000000004D15AF
:1001E000D21011241FBECFEFD8E0DEBFCDBF28E074
:1001F000A8E7B5E001C01D92AE34B207E1F715E003
:10020000A0E0B1E0ECE8F1E302C005900D92A83760
:10021000B107D9F710E0C0EFD0E004C02197FE018C
:100220000E94A916CF3ED107C9F70E94DE100C9498
:10023000B9180C94000085ED8093BC008091BC003F
:1002400084FDFCCF10929B06089540919A05262FBD
:1002500030E0240F311D21323105DCF420919B0662
:100260002430C9F4FC0180E090E0861758F4309106
:100270009A052191DC01A658BA4FA30FB11D2C930A
:100280000196F3CF80919A05680F60939A0580E0FC
:10029000089581E0089582E00895089508950895ED
:1002A000E091140680911306E81730F4F0E0EB5A61
:1002B000F94F808190E008958FEF9FEF089590911E
:1002C000140680911306981750F4E92FF0E0EB5ACA
:1002D000F94F208130E09F5F9093140602C02FEF0A
:1002E0003FEFC90108958091130690E02091140614
:1002F000821B91090895CF92DF92EF92FF920F93A4
:100300001F93CF93DF937C01CB018A0120919C0640
:10031000222389F0EB016B01C40ED51ECC15DD053F
:1003200069F06991D701ED91FC910190F081E02D88
:10033000C7010995F3CF642F0E942501C801DF9101
:10034000CF911F910F91FF90EF90DF90CF90089584
:10035000CF93DF931F92CDB7DEB7698320919C06C0
:100360002223D1F02091BF06203240F021E030E07E
:10037000FC013383228380E090E015C080919D06CC
:10038000E82FF0E0E256F94F998190838F5F8093D8
:100390009D068093BF0605C061E0CE0101960E94D4
:1003A000250181E090E00F90DF91CF9108950895AD
:1003B00080E090E008950F931F93CF93DF932091F7
:1003C00079052F5F322F37703093790520FF02C0F7
:1003D00020E801C020E031FD2064347009F0206283
:1003E000205FFC01EC01239600E011E064856623A8
:1003F00031F070E0C8010E9458166F5F01C060E0E4
:100400006187322F369F030E30E0311D11243111E8
:1004100002C0168202C031503683662311F061504B
:1004200061873196CE17DF0709F7DF91CF911F91D2
:100430000F91089580E991E00895219A08950F930E
:100440001F93CF93DF93CDB7DEB762970FB6F894C3
:10045000DEBF0FBECDBF8C01F901DC011C968C9173
:100460007A8369835C834B835E834D8390819D8710
:1004700091819E8792819F87813029F4CE010196D8
:100480000E94DB0106C01C861B861A861986188608
:100490001F8283E0888B1A8A198AD801ED91FC911A
:1004A0000484F585E02DBE016F5F7F4FC80109957B
:1004B00062960FB6F894DEBF0FBECDBFDF91CF912D
:1004C0001F910F9108950F931F93CF93DF93CDB793
:1004D000DEB762970FB6F894DEBF0FBECDBF8C01BA
:1004E000F901DC011C968C917A8369835C834B83D0
:1004F0005E834D8390819D8791819E8792819F87A6
:10050000813029F4CE0101960E94DB0106C01C86D1
:100510001B861A86198618861F82188A1A8A198AD3
:10052000D801ED91FC910484F585E02DBE016F5F4B
:100530007F4FC801099562960FB6F894DEBF0FBED3
:10054000CDBFDF91CF911F910F910895CF93DF938E
:1005500000D000D000D0CDB7DEB7AB011C821D8229
:100560001E82DC01ED91FC910190F081E02D198259
:100570001A821B829E012F5F3F4FBE016C5F7F4F2F
:10058000099526960FB6F894DEBF0FBECDBFDF915A
:10059000CF910895FC0185859685089580E090E0CF
:1005A00008954F925F926F927F928F92AF92BF9217
:1005B000CF92DF92EF920F931F93CF93DF933C0183
:1005C000EB010E946310F30127853089621B730BD6
:1005D0006A307105B0F3F894E881F98175B1726001
:1005E00065B16D7F65B9CB8488852C2D281B822F42
:1005F0002887BF844A805B801E850C85DD841F5F51
:100600000F5FD3949E813F81A984EA844281D20105
:1006100020E0C32F522F322F32814427889431118A
:10062000380F08F43FEF8195889410FD430F4795EC
:10063000889411FD430F4795889412FD430F479509
:10064000889413FD430F4795889414FD430F4795F5
:10065000889415FD430F4795889416FD430F4795E1
:10066000889417FD430F47958894232F1111242F49
:100670008C0D422F002C75B900C000C047FF65B932
:1006800030812227889400C0002C65B93111390FC0
:1006900000C0002C75B900C000C046FF65B908F461
:1006A0003FEF9195889400C0002C65B900FD230FA1
:1006B00000C0002C75B900C000C045FF65B9279582
:1006C000889401FD230F00C0002C65B927958894FC
:1006D00000C0002C75B900C000C044FF65B902FD20
:1006E000230F2795889400C0002C65B903FD230FC4
:1006F00000C0002C75B900C000C043FF65B9279544
:10070000889404FD230F00C0002C65B927958894B8
:1007100000C0002C75B900C000C042FF65B905FDDE
:10072000230F2795889400C0002C65B906FD230F80
:1007300000C0002C75B900C000C041FF65B9279505
:10074000889407FD230F00C0002C65B92795889475
:1007500000C0002C75B900C000C040FF65B9432F30
:100760000111422F9A0D00C0002C65B900C000C0D5
:10077000002C75B900C000C047FF65B93181222740
:10078000889400C0002C65B931113C0F00C0002CCA
:1007900075B900C000C046FF65B908F43FEFEB0D26
:1007A000F11D00C0002C65B9D0FC230F00C0002C47
:1007B00075B900C000C045FF65B927958894D1FC84
:1007C000230F00C0002C65B92795889400C0002C29
:1007D00075B900C000C044FF65B9D2FC230F27954E
:1007E000889400C0002C65B9D3FC230F00C0002CF6
:1007F00075B900C000C043FF65B927958894D4FC43
:10080000230F00C0002C65B92795889400C0002CE8
:1008100075B900C000C042FF65B9D5FC230F27950C
:10082000889400C0002C65B9D6FC230F00C0002CB2
:1008300075B900C000C041FF65B927958894D7FC01
:10084000230F00C0002C65B92795889400C0002CA8
:1008500075B900C000C040FF65B9432FD110422FC9
:10086000C19500C0002C65B9CE0D00C000C075B99F
:1008700000C000C047FF65B932812227889400C0BC
:10088000002C65B93111380F00C0002C75B900C0BB
:1008900000C046FF65B908F43FEF8195889400C019
:1008A000002C65B910FD230F00C0002C75B900C0E5
:1008B00000C045FF65B92795889411FD230F00C03E
:1008C000002C65B92795889400C0002C75B900C02C
:1008D00000C044FF65B912FD230F2795889400C01E
:1008E000002C65B913FD230F00C0002C75B900C0A2
:1008F00000C043FF65B92795889414FD230F00C0FD
:10090000002C65B92795889400C0002C75B900C0EB
:1009100000C042FF65B915FD230F2795889400C0DC
:10092000002C65B916FD230F00C0002C75B900C05E
:1009300000C041FF65B92795889417FD230F00C0BB
:10094000002C65B92795889400C0002C75B900C0AB
:1009500000C040FF65B9432F1111422F8C0D00C01C
:10096000002C65B9119709F086CE20EE31E0D20156
:100970000E948E16DC01CB01F4E0B695A795979501
:100980008795FA95D1F720E030E0B901EAE94E9E6B
:10099000040C611D5E9E600D711D1124650D711D9D
:1009A000860F971FA11DB11D893E43E09407A10545
:1009B000B10508F434C0885E9340A109B10942E052
:1009C000B695A795979587954A95D1F747E0849F67
:1009D000080E211D949F200D311D1124290F311D5A
:1009E0006091780570E0860F971F820F931F4091EA
:1009F000C0065091C1066091C2067091C306292FAE
:100A00003327420F531F611D711D4093C006509341
:100A1000C1066093C2067093C306809378057894EC
:100A20000E946310F301708B6787DF91CF911F9154
:100A30000F91EF90DF90CF90BF90AF908F907F900D
:100A40006F905F904F90089590E0FC01EE0FFF1FB4
:100A5000E556FE4FA591B4912C91FC01E351FA4F5C
:100A600030812083880F991FFC01E45EFE4F0190C6
:100A7000F081E02D808108951F920F920FB60F92A2
:100A800011242F933F934F935F936F937F938F9393
:100A90009F93AF93BF93EF93FF938091B900887FAB
:100AA000803609F49CC068F5883209F45BC090F484
:100AB000803109F454C038F4882309F4F6C0883032
:100AC00009F44DC0F6C0883109F44CC0803209F4F5
:100AD0005DC0EFC0803409F468C048F4803309F485
:100AE00055C0883309F0E5C080939906D8C0803599
:100AF00009F44FC0883509F45DC0883409F0D9C0C5
:100B0000D6C0883909F4C7C0A8F4883709F467C08B
:100B100038F4883609F463C0803709F460C0C9C06E
:100B2000883809F4B8C0803909F45FC0803809F00A
:100B3000C0C05BC0803B09F486C038F4803A09F439
:100B400066C0883A09F47FC0B4C0803C09F4A7C0ED
:100B5000883C09F4A4C0883B09F48AC0AAC08091EB
:100B6000760610C09091980680919706981770F5B8
:100B7000E091980681E08E0F80939806F0E0E958A6
:100B8000F94F80818093BB0085EC86C080939906E5
:100B90008EC0E091980681E08E0F80939806809138
:100BA000BB00F0E0E958F94F80839091980680915E
:100BB00097066EC0E091980681E08E0F80939806AC
:100BC0008091BB00F0E0E958F94F808380919A064C
:100BD00081116DC081E08093750684EA61C083E075
:100BE00080939B061092BC05CFCF8091BC058032CC
:100BF00008F051C0E091BC0581E08E0F8093BC05E8
:100C00008091BB00F0E0E456FA4F8083BDCF85ECC5
:100C10008093BC0010929B068091BC05803230F41A
:100C2000E091BC05F0E0E456FA4F10826091BC05FB
:100C300070E0E0910F06F09110068CE995E00995BF
:100C40001092BC0536C084E080939B0610929B05F1
:100C500010929A05E0911106F09112060995809183
:100C60009A05811105C081E080939A0510927A055A
:100C7000E0919B0581E08E0F80939B05F0E0E658A4
:100C8000FA4F80818093BB0090919B0580919A05DB
:100C9000981708F479CF85E88093BC000AC085ECEA
:100CA0008093BC0010929B0604C0109299060E948B
:100CB0001B01FF91EF91BF91AF919F918F917F9118
:100CC0006F915F914F913F912F910F900FBE0F90B9
:100CD0001F901895BF92CF92DF92EF92FF920F93E1
:100CE0001F93CF93DF93CDB7DEB769970FB6F89414
:100CF000DEBF0FBECDBF8E010F5E1F4F87E0F80134
:100D000011928A95E9F7198E188E88E691E00E9473
:100D1000490980E090E00E94B1098AE480931506B9
:100D200081E0809316061092170640E050E063E0E1
:100D30008EEE97E00E94E80B882309F40BC18091A6
:100D40000308882391F044E165E176E08EEE97E0B8
:100D50000E94280F80911C06813009F0FBC0F090A2
:100D60002106A2E2B6E0F80109C060E070E08EEE74
:100D700097E00E949E0F8111E6CFECC08E2F801B62
:100D80008F1518F48D918193F9CF8BE792E00E9433
:100D9000C70981E090E0998F888FF4E0FF1619F081
:100DA00087E891E0E9C0A89586E0E2E1F1E0ACEFE8
:100DB000B7E001900D928A95E1F784E0F801A4EF85
:100DC000B7E001900D928A95E1F7F092FB0780E47D
:100DD0008093150681E08093160690E6909317069F
:100DE0008093180686E0ECEFF7E0A9E1B6E0019009
:100DF0000D928A95E1F78091F40780931F06809108
:100E0000F507809320068091F60780932106809154
:100E1000F7078093220648EE53E06EE08EEE97E0EF
:100E20000E94E80B882359F04CE065E176E08EEEF5
:100E300097E00E94280F11E080911C06811110E0BC
:100E400063EB71E0CE0101960E94730ECE01019614
:100E50000E946E0E11110AC06AEE71E0CE01019679
:100E60000E94730ECE0101960E946E0E80E4809364
:100E7000150681E08093160690E390931706809301
:100E8000180648EE53E064E08EEE97E00E94E80B0F
:100E9000882309F46BC04AE165E176E08EEE97E0C5
:100EA0000E94280F80911C06811160C080E1EDE155
:100EB000F6E0DE01119601900D928A95E1F788E146
:100EC000C82E81E0D82E8E010F5F1F4FE12CF12C30
:100ED000BB24BA94F60181916F01F80121918F0131
:100EE00030E0082E000C990B28173907C1F4E3E015
:100EF000EE16F10441F0FFEFEF1AFF0A84E0E81666
:100F0000F10441F715C083E292E00E94490965E0CF
:100F100070E080E090E00E948A0BB12CECCF8DE372
:100F200092E00E94490980E090E00E94B109E3CF7D
:100F3000B11024C08BE592E00E94490980E090E066
:100F40000E94B10910E062E370E080E090E00E944E
:100F50008A0B15C063E972E0CE0101960E94730E00
:100F6000CE0101960E946E0E11E0EDCF8EEA92E066
:100F70000E94C7098EEC92E00E94C70911E064E16B
:100F800070E080E090E00E948A0B8CE695E00E9481
:100F90004909812F69960FB6F894DEBF0FBECDBF09
:100FA000DF91CF911F910F91FF90EF90DF90CF9045
:100FB000BF900895833081F028F4813099F0823019
:100FC000A1F008958730A9F08830B9F08430D1F4C9
:100FD000809180008F7D03C0809180008F77809307
:100FE0008000089584B58F7702C084B58F7D84BD5D
:100FF00008958091B0008F7703C08091B0008F7DFD
:101000008093B0000895009769F0FC0101900020E2
:10101000E9F73197AF01481B590BBC0186EC96E00C
:101020000C94DF0C80E090E008953F924F925F9225
:101030006F927F928F929F92AF92BF92CF92DF92E8
:10104000EF92FF920F931F93CF93DF9300D01F92E5
:10105000CDB7DEB7F82E8091310890913208A0917B
:101060003308B0913408892B8A2B8B2BE9F00E942E
:10107000631000914108109142082091430830917B
:101080004408DC01CB01801B910BA20BB30B009138
:1010900031081091320820913308309134088017BC
:1010A0009107A207B307B8F20E946310609341084A
:1010B000709342088093430890934408E091390864
:1010C000F0913A08309759F0409135085091360820
:1010D00060913708709138088F2D0995F82E00918E
:1010E000C4061091C5064F2C512C612C712C011592
:1010F000110509F45FC0D8011C96EC901C978091F3
:101100002F08909130088436910510F41C961C929B
:10111000D801ED91FC91A280B38019821A821B82C2
:10112000F11014C0F80145855685628173819E01D6
:101130002F5F3F4FC801F5010995D8011C96EC922D
:101140001C9714960D911C911597D1CFF8013696E6
:10115000CE0101966C01480199E0890E911C219104
:10116000222309F132803320F1F0822F90E0A0E0B9
:10117000B0E09C01AD012F5F3F4F4F4F5F4FC30168
:10118000B2010E9448169B01AC01832D90E0A0E0C3
:10119000B0E0BC01CD016F5F7F4F8F4F9F4F0E942A
:1011A0004816D6018C93BFEFCB1ADB0AE815F90578
:1011B000B1F6B8CF80913F08909140089C012F5F15
:1011C0003F4F3093400820933F0849970CF44CC0A0
:1011D0008FB7F8944091C0065091C1066091C20645
:1011E0007091C3068FBF80913B0890913C08A091FD
:1011F0003D08B0913E089A01AB01281B390B4A0B00
:101200005B0B21F421E030E040E050E0E0913F084A
:10121000F091400888EE93E0E89FB001E99F700DDF
:10122000F89F700D1124072E000C880B990B0E945B
:101230006C163093300820932F08109240081092BB
:101240003F082FB7F8948091C0069091C106A091F5
:10125000C206B091C3062FBF80933B0890933C0811
:10126000A0933D08B0933E080F900F900F90DF9130
:10127000CF911F910F91FF90EF90DF90CF90BF9093
:10128000AF909F908F907F906F905F904F903F9026
:1012900008950C9403088BE695E00C9403088F9254
:1012A0009F92AF92BF920F931F93CF93DF93CDB7CF
:1012B000DEB7A1970FB6F894DEBF0FBECDBF19A25F
:1012C000423008F44AE08E010F5D1F4F842E912CAE
:1012D000A12CB12CA50194010E946C16E62FB90136
:1012E000CA0101501109EA3014F4E05D01C0E95C63
:1012F000D801EC93232B242B252B61F7C8010E94E6
:101300000308A1960FB6F894DEBF0FBECDBFDF91E4
:10131000CF911F910F91BF90AF909F908F900895A4
:10132000CF92DF92EF92FF92CF93DF936B017C011C
:101330006DE286EC96E00E94720DEC01662777273D
:10134000CB016C197D098E099F094AE00E944F0963
:101350008C0F9D1FDF91CF91FF90EF90DF90CF908A
:101360000895CF93DF93BC01990F880B990B97FFDA
:1013700003C00E94900903C04AE00E944F09EC019B
:101380000E944B098C0F9D1FDF91CF910895CF9341
:10139000DF930E940308EC010E944B098C0F9D1FF4
:1013A000DF91CF910895282F3091BF06313208F098
:1013B0004AC080919B068111FCCF9091BE0642E00D
:1013C00040939B0620939A062FEF20939906109244
:1013D000980630939706EEE9F6E0A7E7B6E020E03E
:1013E000321721F041914D932F5FFACF109276067C
:1013F00020917606990F922B909376069091750620
:10140000913061F410927506909176069093BB002E
:101410009091BC0093FDF8CF95EC01C095EE9093B0
:10142000BC0090919B069230E1F3909199069F3F0A
:1014300079F080919906803241F08091990680334D
:1014400031F084E005C081E003C082E001C083E0A8
:1014500010929D061092BF0610929C060895EFE62A
:10146000F7E0918162818081238131E030939C0695
:101470002093BE0610929D061092BF0660956923C8
:10148000682B83E697E00E94A80181E00C94D309C1
:1014900090919B069111FCCF91E090939B069093C5
:1014A0009A062FEF2093990610929806260F209304
:1014B00097069093760690917606880F892B8093F5
:1014C000760680917506813061F4109275068091E0
:1014D00076068093BB008091BC0083FDF8CF85EC3D
:1014E00001C085EE8093BC0080919B068130E1F3C2
:1014F00080919806861710F460919806A7E7B6E0E9
:10150000E5E5F6E080E0861721F09D9191938F5FED
:10151000FACF0895CF93DF93FC0144815581608118
:10152000718186EC96E00E94DF0CEC010E944B0971
:101530008C0F9D1FDF91CF9108950F931F93CF9331
:10154000DF938C01C0E0D0E0F801EC0FFD1F649147
:10155000662341F086EC96E00E94720D892B11F013
:101560002196F2CFCE01DF91CF911F910F91089577
:10157000CF93DF930E949D0AEC010E944B098C0FD0
:101580009D1FDF91CF910895CF93DF93282F30E0F7
:10159000F901E753FE4F8491F901EB54FE4FD491CA
:1015A000F901EF55FE4FC491CC2391F081110E94B7
:1015B000DA07EC2FF0E0EE0FFF1FE956FE4FA59182
:1015C000B491EC91ED2381E090E021F480E002C041
:1015D00080E090E0DF91CF9108951F93CF93DF9348
:1015E000282F30E0F901E753FE4F8491F901EB54C5
:1015F000FE4FD491F901EF55FE4FC491CC23C1F0B9
:10160000162F81110E94DA07EC2FF0E0EE0FFF1F7A
:10161000E357FE4FA591B4919FB7F894111104C000
:101620008C91D095D82302C0EC91DE2BDC939FBF28
:10163000DF91CF911F910895109214061092130616
:1016400010929D061092BF0610929B0681E0809337
:101650009A061092750661E082E10E94ED0A61E04F
:1016600083E10E94ED0AE9EBF0E080818E7F8083C8
:1016700080818D7F808388E48093B80085E48093A7
:10168000BC008DE491E090931206809311068EE4E5
:1016900091E09093100680930F060895CF93DF9307
:1016A00090E0FC01EB54FE4F2491FC01EF55FE4FFE
:1016B0008491882361F190E0880F991FFC01ED5718
:1016C000FE4FC591D491FC01E357FE4FA591B49113
:1016D000611109C09FB7F89488812095822388837F
:1016E000EC912E230BC0623061F49FB7F89488818F
:1016F000322F309583238883EC912E2B2C939FBF20
:1017000006C08FB7F894E8812E2B28838FBFDF9116
:10171000CF9108958F929F92AF92BF92CF92DF9216
:10172000EF92FF926B017C010E9463104B015C0100
:10173000C114D104E104F104F1F00E946310DC0152
:10174000CB0188199909AA09BB09883E9340A105D4
:10175000B10570F321E0C21AD108E108F10888EE62
:10176000880E83E0981EA11CB11CC114D104E104B1
:10177000F10419F7DDCFFF90EF90DF90CF90BF908D
:10178000AF909F908F9008951F93CF93DF93FC01AC
:101790001081D181C28168EC70E080E090E00E940D
:1017A0008A0BE1E9F7E01083D183C283339687E0A7
:1017B000EE3EF807C1F780912E080E94150866E3F7
:1017C00071E080E090E0DF91CF911F910C948A0B43
:1017D0008F929F92AF92BF92CF92DF92EF92FF9241
:1017E0000F931F93CF93DF9300D000D000D0CDB7DD
:1017F000DEB78C016A01FC018589EE24E394E60ED4
:10180000882309F45FC08689882321F081E790E06E
:101810000E94250F60E0F80180810E94ED0A62E0DD
:1018200070E080E090E00E948A0B61E0C8010E94B5
:10183000E00E60E0C8010E94E00E60E0C8010E9476
:10184000E00E6FEFC8010E94E00E6E2DC8010E94ED
:10185000E00E6E2D6195C8010E94E00E64EDC80196
:101860000E94E00EA12C93EDB92EF12CF1E0EF1ABD
:10187000F1088A2D90E08E159F0574F49C012B5E73
:10188000394F4901F9016081C8010E94E00EF4015D
:101890008081B80EA394EDCF6B2D6095C8010E9496
:1018A000E00E60E0C8010E94E00E61E0F801808176
:1018B0000E94ED0AF8018689882309F449C00E9434
:1018C000240F46C062E070E080E090E00E948A0B46
:1018D00081E080939C0684E28093BE0610929D0670
:1018E0001092BF0680E00E941F0F80E00E941F0F31
:1018F0008FEF0E941F0F8E2D0E941F0F8E2D81953E
:101900000E941F0F84ED0E941F0F812C83ED982EE3
:10191000F12CF1E0EF1AF108882D90E08E159F056B
:101920006CF49C012B5E394F5901F90180810E94B2
:101930001F0FF5018081980E8394EECF892D80953D
:101940000E941F0F80E00E941F0F81E00E94D309B8
:10195000B601C8010E949E0FF82E811102C0F12C21
:101960001AC046E0BE016F5F7F4FC8010E94280F7A
:1019700046E050E066E071E0CE0101960E94AB18AF
:10198000892B69F7F8018589882329F0B601C801F8
:101990000E949E0FF82E8F2D26960FB6F894DEBF6C
:1019A0000FBECDBFDF91CF911F910F91FF90EF90B0
:1019B000DF90CF90BF90AF909F908F900895CF927F
:1019C000DF92EF92FF920F931F93CF93DF936C01FF
:1019D0007A018B01C0E0D0E0CE15DF0581F0D8019F
:1019E0006D918D01D601ED91FC910190F081E02D7A
:1019F000C6010995892B11F02196EECF7E01C70112
:101A0000DF91CF911F910F91FF90EF90DF90CF90DA
:101A10000895FC01538D448D252F30E0842F90E0F4
:101A2000821B930B541710F0CF96089501970895D9
:101A3000FC01918D828D981761F0828DDF01A80FD6
:101A4000B11D5D968C91928D9F5F9F73928F90E0F8
:101A500008958FEF9FEF0895FC01918D828D981767
:101A600031F0828DE80FF11D858D90E008958FEFA4
:101A70009FEF0895FC01918D228D892F90E0805C6D
:101A80009F4F821B91098F739927089586EC96E0EA
:101A90000E943A0D21E0892B09F420E0822F08955D
:101AA000FC01848DDF01A80FB11DA35ABF4F2C91FB
:101AB000848D90E001968F739927848FA689B789CA
:101AC0002C93A089B1898C91837080648C93938DC1
:101AD000848D981306C00288F389E02D80818F7D64
:101AE00080830895EF92FF920F931F93CF93DF931C
:101AF000EC0181E0888F9B8D8C8D981305C0E8895F
:101B0000F989808185FD26C0F62E0B8D10E00F5FD0
:101B10001F4F0F731127E02E8C8DE8120CC00FB6EB
:101B200007FCFACFE889F989808185FFF5CFCE01DE
:101B30000E94500DF1CF8B8DFE01E80FF11DE35A8D
:101B4000FF4FF0829FB7F8940B8FEA89FB89808161
:101B500080620AC09FB7F894EE89FF896083E889A4
:101B6000F98980818370806480839FBF81E090E0E9
:101B7000DF91CF911F910F91FF90EF900895CF9338
:101B8000DF93EC01888D8823C9F0EA89FB89808185
:101B900085FD05C0A889B9898C9186FD0FC00FB657
:101BA00007FCF5CF808185FFF2CFA889B9898C9198
:101BB00085FFEDCFCE010E94500DE7CFDF91CF9191
:101BC000089580E090E0892B29F00E94460D811154
:101BD0000C94000008950E949618CF92DF92EF9225
:101BE000FF921F93CF93DF93FC012689222339F0C4
:101BF0001EBC00000DB407FEFDCF1EB526C0EC01D3
:101C000061E081810E94ED0AE12CF12C10E0CC24EE
:101C1000C394D12C8B810E94C40A892B39F0C60150
:101C20000E2C01C0880F0A94EAF7182B60E0898116
:101C30000E94ED0A61E089810E94ED0AFFEFEF1A30
:101C4000FF0A88E0E816F10429F7812FDF91CF9190
:101C50001F91FF90EF90DF90CF900895EF92FF9249
:101C60000F931F93CF93DF93EC017B018A0188814F
:101C70009981009729F02A813B8124173507F8F4D0
:101C8000B8016F5F7F4F0E94D017009759F099837A
:101C900088831B830A832C813D81232B81F4FC01E3
:101CA00010820DC088819981009711F00E9447171A
:101CB000198218821D821C821B821A8207C01D8312
:101CC0000C83B701888199810E94A418CE01DF910D
:101CD000CF911F910F91FF90EF900895FC018081AB
:101CE00091810C944717FC01118210821382128299
:101CF000158214826115710551F0FB0101900020DD
:101D0000E9F73197AF01461B570B0C942E0E08953F
:101D10001F920F920FB60F9211242F933F934F9360
:101D20005F936F937F938F939F93AF93BF93EF9343
:101D3000FF9386EC96E00E94500DFF91EF91BF91CA
:101D4000AF919F918F917F916F915F914F913F9153
:101D50002F910F900FBE0F901F9018951F920F920A
:101D60000FB60F9211242F938F939F93EF93FF93AE
:101D7000E091D606F091D7068081E091DC06F091E3
:101D8000DD0682FD12C090818091DF068F5F8F7328
:101D90002091E006821751F0E091DF06F0E0EA536F
:101DA000F94F958F8093DF0601C08081FF91EF91FD
:101DB0009F918F912F910F900FBE0F901F901895AC
:101DC000EF92FF920F931F93CF93DF93FC0126892D
:101DD000222339F06EBD00000DB407FEFDCF8EB595
:101DE00027C0062FEC0161E081810E94ED0AE12C01
:101DF000F12C10E060E089810E94ED0AC8010E2CF0
:101E000002C0959587950A94E2F780FF02C061E0D1
:101E100001C060E08A810E94ED0A61E089810E9430
:101E2000ED0AFFEFEF1AFF0A88E0E816F10411F758
:101E3000DF91CF911F910F91FF90EF900895682F40
:101E400083E697E00C94A80108958CBD9DBD08958C
:101E5000CF92DF92EF92FF920F931F93CF93DF9376
:101E60007C016B01C42FFC018589042F10E08823BD
:101E7000A1F18689882321F081E790E00E94250F57
:101E800060E0F70180810E94ED0A62E070E080E08E
:101E900090E00E948A0B63E0C7010E94E00EE60119
:101EA0000C0D1D1DC017D10759F061E070E080E0F6
:101EB00090E00E948A0BC7010E94ED0D8993F2CF3A
:101EC00061E0F7018081DF91CF911F910F91FF9029
:101ED000EF90DF90CF900C94ED0A62E070E080E02C
:101EE00090E00E948A0B62E06C0F613208F060E2C1
:101EF00084E20E94480A109214068093130683E637
:101F000097E00E945F01E6010C0D1D1DC017D1076F
:101F100061F061E070E080E090E00E948A0B83E66F
:101F200097E00E945F018993F1CFDF91CF911F91DC
:101F30000F91FF90EF90DF90CF900895CF92DF92B6
:101F4000EF92FF920F931F93CF93DF93EC016B01FE
:101F5000E12CF12C8D89882309F18E89882321F0C9
:101F600081E790E00E94250F60E088810E94ED0AE1
:101F700062E070E080E090E00E948A0B62E0CE01B7
:101F80000E94E00ECE010E94ED0D082F61E08881D5
:101F90000E94ED0A11E0013039F41CC08C810E94CE
:101FA000C40A11E08823B1F010E0C114D10459F043
:101FB0008AE0E80EF11CCE14DF0428F48EE695E0EA
:101FC0000E94C70907C06AE070E080E090E00E94CC
:101FD0008A0BC0CF812FDF91CF911F910F91FF907E
:101FE000EF90DF90CF9008951F920F920FB60F924F
:101FF00011242F933F934F935F936F937F938F930E
:102000009F93AF93BF93EF93FF9382E00E942405C9
:10201000FF91EF91BF91AF919F918F917F916F91C0
:102020005F914F913F912F910F900FBE0F901F9096
:1020300018951F920F920FB60F9211242F933F9372
:102040004F935F936F937F938F939F93AF93BF93C0
:10205000EF93FF9381E00E942405FF91EF91BF91E0
:10206000AF919F918F917F916F915F914F913F9130
:102070002F910F900FBE0F901F9018951F920F92E7
:102080000FB60F9211242F933F934F935F936F934B
:102090007F938F939F93AF93BF93EF93FF9380E0D2
:1020A0000E942405FF91EF91BF91AF919F918F9175
:1020B0007F916F915F914F913F912F910F900FBE44
:1020C0000F901F9018953FB7F89480914608909113
:1020D0004708A0914808B091490826B5A89B05C0BB
:1020E0002F3F19F00196A11DB11D3FBFBA2FA92F97
:1020F000982F8827820F911DA11DB11DBC01CD0114
:1021000042E0660F771F881F991F4A95D1F70895FF
:102110001F920F920FB60F9211242F933F938F931C
:102120009F93AF93BF938091C0069091C106A091F9
:10213000C206B091C3063091450823E0230F2D3726
:1021400020F40196A11DB11D05C026E8230F0296BB
:10215000A11DB11D209345088093C0069093C10630
:10216000A093C206B093C306809146089091470899
:10217000A0914808B09149080196A11DB11D809316
:10218000460890934708A0934808B0934908BF9128
:10219000AF919F918F913F912F910F900FBE0F9014
:1021A0001F9018958CE198E00E946E0E82E298E0F4
:1021B0000E946E0E88E298E00C946E0ECF93DF932F
:1021C00000D000D000D0CDB7DEB7789484B582605F
:1021D00084BD84B5816084BD85B5826085BD85B5CB
:1021E000816085BD80916E00816080936E00109249
:1021F00081008091810082608093810080918100C4
:102200008160809381008091800081608093800054
:102210008091B10084608093B1008091B0008160B2
:102220008093B00080917A00846080937A008091DE
:102230007A00826080937A0080917A008160809336
:102240007A0080917A00806880937A001092C100B1
:102250000E941C0BE091D606F091D70682E08083A5
:10226000E091D206F091D3061082E091D406F0916D
:10227000D50680E180831092DE06E091DA06F091C7
:10228000DB0686E08083E091D806F091D906808154
:1022900080618083E091D806F091D90680818860C2
:1022A0008083E091D806F091D90680818068808390
:1022B000E091D806F091D90680818F7D808364E11A
:1022C00070E080E090E00E948A0B1A8219821C82E2
:1022D0001B821E821D826091280870912908611559
:1022E000710541F040912C0850912D08CE010196C6
:1022F0000E942E0E84EB90E00E94B80A8EE890E0D7
:102300000E94B80A88E690E00E94B80A0E944B0931
:10231000CE0101960E948A0A0E944B0964E170E096
:1023200080E090E00E948A0BCE0101960E946E0E22
:102330008AED92E00E94C70988E298E00E948A0A2A
:1023400082E298E00E948A0A8CE198E00E948A0A60
:1023500088EE92E00E94C709A8950E944B0985EF7C
:1023600092E00E94C70988E691E00E94B80A8CE5D5
:1023700091E00E94B80AB8E0CB2ED12CE12CF12CD0
:1023800000E0BB24B3941C2DB0929C06C092BE0604
:1023900010929D061092BF0681E00E94D309811120
:1023A0003EC08CE491E00E949D0A4AE0C701B6015C
:1023B0000E944F0987E491E00E949D0A40E1C70115
:1023C000B6010E944F0985E491E00E949D0A1732F0
:1023D00019F48DE391E018C0183319F48BE291E001
:1023E00013C0193319F487E191E00EC01C3319F4BE
:1023F0008BE091E009C01F3319F481E091E004C043
:10240000163121F48DEE90E00E949D0A0E944B0946
:102410000F5F63E070E080E090E00E948A0B2FEF96
:10242000C21AD20AE20AF20A88E7C816D104E10405
:10243000F10409F0A8CF86EE90E00E949D0A602F7B
:1024400070E080E090E04AE00E944F098AED90E061
:102450000E94B80A8FEF92E00E94C7090E944B09C0
:1024600088E193E00E94C709A8950E944B0981E288
:1024700093E00E94C7098DE293E00E94C7098FE3B1
:10248000809372070E941C0B8091700780937307E2
:1024900061E0809172070E94480A109214068093AE
:1024A0001306811101C0FFCF83E697E00E945F0110
:1024B0008093700764E170E080E090E00E948A0BF6
:1024C0008091710781608093710780916F078E7F83
:1024D00080936F070E942F0A80916F07816080931D
:1024E0006F070E942F0A64E170E080E090E00E9494
:1024F0008A0B64E170E080E090E00E948A0B80919A
:102500006F07816080936F070E942F0A80E493E039
:102510000E94490986E493E00E9449094AE060E08C
:1025200070E0CB010E944F098EE493E00E944909BC
:102530004AE061E070E080E090E00E944F090E9474
:102540004B0964E170E080E090E00E948A0B0E94F9
:102550004B0988E593E00E94C70964E170E080E0E0
:1025600090E00E948A0B87E793E00E94C709A89534
:102570000E944B0982E893E00E94C70980910306FC
:10258000811145C01092F5051092F4058FEF8093EC
:10259000F8058093F9058093FA058093FB058093F5
:1025A000FC058093FD0581E08093FE0510920006F6
:1025B0001092FF051092F7051092F6058091C4065F
:1025C0009091C506892B31F482EF95E09093C50672
:1025D0008093C406E091F005F091F105309721F069
:1025E00082EF95E09583848382EF95E09093F105E7
:1025F0008093F005109202061092010686E391E0A6
:102600009093F3058093F20581E080930306219A6D
:1026100081E997E09093F5058093F4058FE190E0D0
:10262000909300068093FF058091310890913208C5
:10263000A0913308B0913408843C29E09207A105A9
:10264000B10520F484EC99E0A0E0B0E0809331087B
:1026500090933208A0933308B093340864E670E096
:1026600080E090E00E948A0B8FEF80932E0864E652
:1026700070E080E090E00E948A0B198280E88A83F3
:102680001B82CE0101960E94C40B8CE893E00E944D
:10269000C709A8950E944B0985E993E00E94C709E4
:1026A00064E170E080E090E00E948A0BA89580EAE7
:1026B00093E00E94490980E090E00E94B109809176
:1026C0000308882309F45DC080910408882309F475
:1026D00037C01FB7F89480910B06811127C0EBEA31
:1026E000F1E08491EFEBF1E09491E82FF0E0EE0F50
:1026F000FF1FED57FE4FA591B491EC91E92321F412
:1027000061E08AE00E94ED0A61E08AE00E944E0BDF
:102710008CB580618CBD8CB580648CBD61E08DE032
:102720000E944E0B61E08BE00E944E0B80910B06E5
:102730008F5F80930B061FBF81E790E00E94250FFB
:1027400060E08091EE070E94ED0A68EE73E080E0A1
:1027500090E00E948A0B82E08093150648EE53E0D9
:1027600061E08EEE97E00E94E80B61E08091EE0759
:102770000E94ED0A80910408882301F10E94240F31
:102780001DC00E941C0B61E08091F3070E94ED0ABE
:1027900060E08091F3070E94ED0A60E971E080E05B
:1027A00090E00E948A0B61E08091F3070E94ED0A9D
:1027B0006AE070E080E090E00E948A0B82E3809300
:1027C000150685E0809316069FEF9093170691E01B
:1027D000909318068093190648EE53E065E08EEE5C
:1027E00097E00E94E80B00E010E0E2E0BE2EB0921D
:1027F000150648EE53E061E08EEE97E00E94E80B8C
:10280000882309F418C14CE065E176E08EEE97E08C
:102810000E94280F46E050E060E071E085E196E01C
:102820000E94AB18892B09F006C180910308811121
:1028300003C0E7E0F0E002C0E6E0F0E0EB5EF94F55
:10284000C080D12CE12CF12CFE2CED2CDC2CCC24E6
:102850008181C82AFE2CED2CDC2CCC248281C82A54
:10286000FE2CED2CDC2CCC248381C82AC114D1048D
:10287000E104F10409F4DFC08AED93E00E94490904
:102880006F2D77278827992740E10E944F090E94E2
:102890004B0989EE93E00E9449096E2D70E080E0BB
:1028A00090E04AE00E944F096EE286EC96E00E94BA
:1028B000720D6D2D70E080E090E04AE00E944F09BB
:1028C0000E944B0994E19093150681E080931606CF
:1028D000909317068093180648EE53E064E08EEE5E
:1028E00097E00E94E80B882339F048E065E176E044
:1028F0008EEE97E00E94280F64E170E080E090E0A7
:102900000E948A0BA89588EF93E00E94C709A895BA
:102910000E944B0982E094E00E94C7090E944B0983
:102920008DE094E00E94C7090E944B0901E082E318
:10293000F82E9BE8E92EDD24DA9420E8C22EA89533
:1029400080910E06882391F110920D0610920C06CC
:102950000E946A06811162C080910C0690910D065A
:10296000019690930D0680930C060497C4F08BE3B8
:1029700094E00E94C709D0922E081982CA821B8255
:10298000CE0101960E94C40BA89510920E0680916C
:102990006F07816080936F070E942F0A3FC062E338
:1029A00070E080E090E00E948A0BD2CFA89588E684
:1029B00094E00E94C70910E0A8950E946A06811160
:1029C00006C089EA94E00E94C70910E005C08BECBC
:1029D00094E00E94C7091B5F68E873E180E090E023
:1029E0000E948A0BA8951C3038F38AEE94E00E946E
:1029F000C70900930E0680916F078E7F80936F0743
:102A00000E942F0AF0922E0882E30E941508E982A4
:102A10001A821B82CE0101960E94C40B8FE195E0C1
:102A20000E94C70964EF71E080E090E00E948A0B89
:102A30000E94E10D84CF84E295E00E94C709063030
:102A4000110544F186EB93E00E94C70985E791E008
:102A50000E94B80A62E370E080E090E00E948A0B76
:102A600043E0C42ED12CE12CF12C4AE0C701B60181
:102A70000E944F090E944B0964E670E080E090E0FC
:102A80000E948A0B81E0C81AD108E108F10869F7B1
:102A90000C9400000F5F1F4FAACECF93DF93E6EC9C
:102AA000F6E01382128288EE93E0A0E0B0E0848327
:102AB0009583A683B78328E431E03183208325EC16
:102AC00030E03587248724EC30E03787268720ECF8
:102AD00030E0318B208B21EC30E0338B228B22ECE9
:102AE00030E0358B248B26EC30E0378B268B118E33
:102AF000128E138E148EE3E6F7E013821282848323
:102B00009583A683B7838AE591E0918380836CE304
:102B100075E088E298E00E94730E61E575E082E25C
:102B200098E00E94730E6CE575E08CE198E00E94DD
:102B3000730EC5E0D8E088E088838DE089838BE060
:102B40008A838CE08B831C821D8281E08D8B1E8AA0
:102B500061E088E00E944E0B61E088810E94ED0AEE
:102B600061E089810E944E0B61E08A810E944E0BD8
:102B700060E08B810E944E0B87E1FE01AEEEB7E074
:102B800001900D928A95E1F7EFE6F7E0108211824D
:102B90001282138214821582168217821086118681
:102BA00012861386148615861686108A1786128A50
:102BB000118A148A138A168A158A108E178A128E21
:102BC000118E148E138E168E158EEEE2F8E08FEFB6
:102BD000808312821182148613868FEF9FEFDC01AF
:102BE00087839087A187B287DF91CF9108950E9454
:102BF0003916A59F900DB49F900DA49F800D911D37
:102C0000112408952F923F924F925F926F927F927C
:102C10008F929F92AF92BF92CF92DF92EF92FF92EC
:102C20000F931F93CF93DF93CDB7DEB7CA1BDB0B98
:102C30000FB6F894DEBF0FBECDBF09942A8839883D
:102C400048885F846E847D848C849B84AA84B98444
:102C5000C884DF80EE80FD800C811B81AA81B98150
:102C6000CE0FD11D0FB6F894DEBF0FBECDBFED0164
:102C70000895A29FB001B39FC001A39F700D811D55
:102C80001124911DB29F700D811D1124911D089575
:102C9000DB018F939F930E94F715BF91AF91A29F85
:102CA000800D911DA39F900DB29F900D112408954A
:102CB00097FB072E16F4009407D077FD09D00E94E9
:102CC000951607FC05D03EF4909581959F4F089589
:102CD000709561957F4F0895A1E21A2EAA1BBB1B28
:102CE000FD010DC0AA1FBB1FEE1FFF1FA217B307D8
:102CF000E407F50720F0A21BB30BE40BF50B661FEE
:102D0000771F881F991F1A9469F7609570958095B1
:102D100090959B01AC01BD01CF0108950E94391629
:102D2000B7FF0895821B930B0895AA1BBB1B51E1AB
:102D300007C0AA1FBB1FA617B70710F0A61BB70B2B
:102D4000881F991F5A95A9F780959095BC01CD01D0
:102D50000895EE0FFF1F0590F491E02D09940F9355
:102D60001F93CF93DF938230910510F482E090E0BF
:102D7000E0914C08F0914D0820E030E0A0E0B0E098
:102D8000309719F140815181028113814817590709
:102D9000C8F08417950769F4109731F012960C93D8
:102DA000129713961C9327C000934C0810934D085C
:102DB00022C02115310519F04217530718F49A0162
:102DC000BD01EF01DF01F801DBCF21153105F9F07D
:102DD000281B390B2430310580F48A819B816115D1
:102DE000710521F0FB019383828304C090934D0809
:102DF00080934C08FE01329644C0FE01E20FF31F9F
:102E00008193919322503109398328833AC02091CC
:102E10004A0830914B08232B41F420910E01309148
:102E20000F0130934B0820934A0820910C013091F8
:102E30000D012115310541F42DB73EB74091100128
:102E400050911101241B350BE0914A08F0914B0879
:102E5000E217F307A0F42E1B3F0B2817390778F071
:102E6000AC014E5F5F4F2417350748F04E0F5F1FD0
:102E700050934B0840934A088193919302C0E0E03D
:102E8000F0E0CF01DF91CF911F910F910895CF9383
:102E9000DF93009709F481C0FC01329713821282FC
:102EA000A0914C08B0914D08109781F42081318198
:102EB000820F931F20914A0830914B082817390739
:102EC00051F5F0934B08E0934A0867C0ED0120E00C
:102ED00030E0CE17DF0740F44A815B819E01411547
:102EE0005105F1F0EA01F5CFD383C28340815181CE
:102EF000840F951FC817D90759F488819981840FC9
:102F0000951F0296918380838A819B81938382831C
:102F10002115310529F4F0934D08E0934C083DC08C
:102F2000E901FB83EA8349915991C40FD51FEC173E
:102F3000FD0761F480819181840F951F0296E9015C
:102F400099838883828193819B838A83E0E0F0E088
:102F500012968D919C911397009719F0FD01DC0159
:102F6000F7CF8D919C9111979D012E5F3F4F820F5E
:102F7000931F20914A0830914B082817390769F4AC
:102F8000309729F410924D0810924C0802C0138219
:102F90001282B0934B08A0934A08DF91CF91089515
:102FA000A0E0B0E0E6EDF7E10C940616EC01009726
:102FB00021F4CB010E94AF16B4C0FC01E60FF71F4D
:102FC0009C0122503109E217F30708F4A8C0D90187
:102FD0000D911C91119706171707B0F005301105D8
:102FE00008F49BC0C80104978617970708F495C09A
:102FF00002501109061B170B019311936D937C93DB
:10300000CF010E94471789C05B01A01AB10A4C0189
:10301000800E911EA0914C08B0914D08612C712C2E
:10302000E12CF12C109709F446C08D919C911197D9
:10303000A815B905B1F56C0142E0C40ED11CCA1443
:10304000DB0478F14C018A189B08640142E0C40E4D
:10305000D11C1296BC9012971396AC91B5E0CB168A
:10306000D10440F0B282A38391828082D9016D9312
:103070007C9309C00E5F1F4F800F911FF901918350
:103080008083EB2DFA2FE114F10431F0D701139670
:10309000FC93EE93129741C0F0934D08E0934C08D7
:1030A0003CC06816790608F43C017D0112960D902B
:1030B000BC91A02DB7CF80914A0890914B088816FB
:1030C0009906E1F466167706C8F480910C01909198
:1030D0000D01009741F48DB79EB7409110015091BA
:1030E0001101841B950BE817F907C8F4F0934B08FE
:1030F000E0934A08F901718360830FC0CB010E94FD
:10310000AF167C01009759F0A801BE010E949B18E0
:10311000CE010E944717C70104C0CE0102C080E063
:1031200090E0CDB7DEB7EEE00C94221681E090E09F
:10313000F8940C94B918FB01DC0102C001900D92C7
:1031400041505040D8F70895FB01DC0101900D92E9
:103150000020E1F70895FB01DC014150504030F0C0
:103160008D910190801919F40020B9F7881B990BF3
:10317000089510E0C0EFD0E004C0FE010E94A9163F
:0C3180002196C13FD107C9F7F894FFCF9A
:10318C0000FF06FAD5030000FF00FF0000004E0808
:10319C002000FFFFFFFFFFFF414800006B006C00A9
:1031AC006D0000000000EB0DEB0DEB0DA602CA024A
:1031BC00CE020000000063021F021D02A602CA021A
:1031CC001A02D10200000000720DDF0C090DBF0DB8
:1031DC003A0D180D2C0D00000000A8017B01D80140
:1031EC004F0173015F015001436865636B696E6742
:1031FC002070726573656E636520666F72207265F0
:10320C00616465723A200043617264206973206EB8
:10321C006F74204D696661726520636C61737369AC
:10322C00632C2064697363617264696E67206361E7
:10323C00726400547279696E6720746F20617574C2
:10324C0068656E74696361746520626C6F636B2072
:10325C003420776974682064656661756C74204BE2
:10326C004559412076616C75650041757468656ED1
:10327C007469636174696F6E206661696C65642C36
:10328C002063617264206D617920616C7265616488
:10329C00792062652061757468656E746963617408
:1032AC00656400657175616C20746F20726573754F
:1032BC006C74206F66207265616465720057726F62
:1032CC006E67206361726420706C61636564206F4B
:1032DC006E207265616465723A2000436F7272658C
:1032EC006374206361726420706C61636564206F29
:1032FC006E207265616465723A20004361726420CD
:10330C0070726573656E74206F6E20726561646592
:10331C007221004E6F2070726573656E6365206F4D
:10332C006E20746865207265616465722100526557
:10333C006164696E67206661696C65642C206469E0
:10334C007363617264696E67206361726400726595
:10335C006164206661696C656400216865616465FF
:10336C00725F626567696E0057445420656E6461D4
:10337C00626C6564004932433A202E2E2E20007375
:10338C0075636365737366756C6C79207363616EBA
:10339C006E656420493243004932433A204F4B2139
:1033AC000052656C61793A202E2E2E2000696E69D0
:1033BC007469616C697A696E672072656C617900F9
:1033CC0020202020200052656C6179205B005D205C
:1033DC0073657420746F2000737563636573736613
:1033EC00756C6C7920696E697469616C697A656455
:1033FC002072656C61790052656C61793A204F4B93
:10340C0021004C45443A202E2E2E20004C45443AA7
:10341C00204F4B2100524649443A202E2E2E20009C
:10342C00696E697469616C697A696E67207265612D
:10343C006465723A2000504E3533322073746172D9
:10344C007475702074696D6564206F75742C2072AE
:10345C00657374617274696E6700466F756E642073
:10346C006368697020504E35004669726D776172E1
:10347C0065207665722E2000524649443A204F4B07
:10348C0021002173657475705F656E64003D3D3D70
:10349C003D3D3D3D3D3D3D3D3D3D3D3D3D3D3D3D50
:1034AC0053544152543D3D3D3D3D3D3D3D3D3D3DE3
:1034BC003D3D3D3D3D3D3D3D3D3D0047616D652004
:1034CC00656E6465642C206861766520736F6D652C
:1034DC00206C6967687420616E6420616E206F7067
:1034EC00656E20646F6F7200726F6F6D2069732050
:1034FC006E6F74206C6976652C2077616974696EC7
:10350C006720666F722063617264206265696E6702
:10351C002072656D6F76656420746F2061726D200A
:10352C0074686520726F6F6D0063617264207072D5
:10353C006573656E742C20726573657474696D6542
:10354C00722073657420746F203000636172642084
:10355C0072656D6F7665642C20696E63726561733C
:10356C00696E672074696D65720047616D652067CF
:10357C006F696E67206C6976652C206B696C6C6961
:10358C006E67206C696768747320616E64206C6F61
:10359C00636B696E672074686520646F6F72004C92
:1035AC006F6F70004469646E27742066696E6420C6
:1035BC00504E35337820626F617264004B696461E0
:1035CC006E617070696E6720627265616B6F757485
:1035DC000032322E30312E3230323000766572733A
:1035EC00696F6E20302E31776970000D0A005449D6
:0835FC004D454F55542100001C
:00000001FF
