:100000000C9445040C946D040C946D040C94D20E65
:100010000C94AD0E0C94880E0C946D040C946D042D
:100020000C946D040C946D040C946D040C946D048C
:100030000C946D040C946D040C946D040C946D047C
:100040000C94E60D0C946D040C94560E0C94300E2A
:100050000C946D040C946D040C946D040C946D045C
:100060000C94F70E0C946D04AEB08180A1A6A83F4D
:10007000AD8B32C8D300D580D91FDA12DB40AF0078
:1000800000000023002600290000030C0F30333C41
:100090003FC0C3CCCFF0F3FCFF537563636573734C
:1000A00066756C001C620A0C206002020508070DD0
:1000B00008020404050702040206070607070707EB
:1000C000070707070202070707050A0707070806C9
:1000D00006080804060707090809070908070808A9
:1000E000070C0708060406040809030606060606A8
:1000F000050606020407020A0606060605050506A9
:10010000060A0606050602060809000000007E7EB3
:10011000303007070007070000000000C0D8F8DEF5
:10012000D8F8DE180030000030000000387C64FF92
:1001300064E4C8102020F02030103C7E427E3CC099
:100140002018E6F010F0E000000000300000001081
:1001500030203010DCFE227EDC8060201030202039
:100160002010302007070000F8FE07011070E08023
:100170000107FEF880E07010120C3F0C1200000026
:100180000000202020FC20202000000010000000A3
:100190000000F0702020202000000000000030301F
:1001A0000080E07C1F03C0F030000000FCFE020273
:1001B00002FEFC103020202030100404FEFE00005F
:1001C000202030302020040682C2623E1C203030C5
:1001D000202020200406222222FEDC1030202020B5
:1001E0003010C0A09884FEFE800000000030300077
:1001F000001E1E1212F2E210302020203010F8FCF7
:10020000161212F2E010302020203010020282E29A
:100210007A1E0600203010000000DCFE222222FEA2
:10022000DC103020202030103C7E424242FEFC0098
:10023000202020301000181830301818F07060603E
:1002400090900808040000000010102090909090FA
:10025000909090000000000000000408089090605A
:1002600060201010000000000462721E0C0030308C
:100270000000F00CF4FA0AFAFA040CF000302050F6
:1002800050505010100080F8FE86FEF8803030008C
:1002900000003030FEFE22223EFCC0303020202004
:1002A0003010F8FC0602020204001030202020105A
:1002B000FEFE02020206FCF8303020202030100042
:1002C000FEFE22222222303020202020FEFE22228A
:1002D0002222303000000000F8FC06024242C2C474
:1002E0000010302020203030FEFE20202020FEFE96
:1002F000303000000000303002FEFE02203030209E
:1003000000020202FEFE202020203010FEFE70D8E7
:100310008C060230300000103020FEFE000000008D
:100320000030302020202020FE0E3CF0C0300CFE9B
:10033000FE300000000000003030FE061C38E0C037
:1003400000FE3000000000103030F8FC060202020F
:1003500006FCF8001030202020301000FEFE424243
:10036000427E3C30300000000000F8FC0602020231
:1003700006FCF80010302060E0B09080FEFE2262A3
:10038000E2BE1C0030300000001030201C3E322243
:1003900062E2C410202020203010020202FEFE0281
:1003A00002020000003030000000FEFE00000000ED
:1003B000FEFE10302020202030100E7EF080F07ED7
:1003C0000E000030303000000E7EF080E03E3EE057
:1003D00080F07E0E00003030000000003030000061
:1003E000068EF870F88E0630300000003030060EB1
:1003F00018F0F0180E06000000303000000002C2B5
:10040000F23E0E02303020202020FFFF0101F0F0EC
:100410008080031F7CE0800000000030F0C00101FC
:10042000FFFF8080F0F010180C06060C181000007A
:10043000000000000000000000000000000000803C
:100440008080808080808080010302000000C0E8FE
:100450002828F8F0103020203030FFFF0808F8F08E
:10046000303020203010F0F808080810103020201C
:100470002010F0F80808FFFF103020203030F0F88E
:100480004848787010302020201008FEFF0909002D
:1004900030300000F0F80808F8F810B0A0A0F070B4
:1004A000FFFF0808F8F0303000003030FBFB303040
:1004B0000008FBFB8080F070FFFF60F098080030C0
:1004C000300000103020FFFF3030F8F81008F8F04E
:1004D0001008F8F030300000303000003030F8F80C
:1004E0000808F8F0303000003030F0F80808F8F074
:1004F000103020203010F8F80808F8F0F0F0202034
:100500003010F0F80808F8F810302020F0F0F8F873
:100510001018183030000000307848C8882020209B
:10052000301008FEFE08080010302020F8F8000007
:10053000F8F810302020303038F8C0C0F8380010FB
:100540003030100078F880C03838C080F87800303B
:10055000300000000030300018B8E0E0B81830304B
:100560000000303038F8C0C0F8380090F07010004B
:1005700008C8E8781830302020202020FEDF010154
:10058000000070F08080FFFFF0F00101DFFE20200E
:100590008080F0700000E01010204080807000002B
:1005A000000000000000FE02020202020202FE3011
:1005B00020202020202020306800178040020A0AD6
:1005C0004F4C454420696E6974206F6E204164640D
:1005D000726573733A203078002B2D2D2D2D2D2D23
:1005E0002D2D2D2D2D2D2D2D2D2D2D2D2D2D2B006A
:1005F0007C20202020456C656374726F736361708A
:1006000065202020207C002B2D2D2D2D2D2D2D2DF6
:100610002D2D2D2D2D2D2D2D2D2D2D2D2B00000093
:1006200005072060000000000000005F00000007D8
:10063000000700147F147F14242A7F2A1223130832
:10064000646236495620500008070300001C22410E
:10065000000041221C002A1C7F1C2A08083E0808B2
:100660000080703000080808080800006060002062
:10067000100804023E5149453E00427F4000724945
:100680004949462141494D331814127F10274545E9
:1006900045393C4A494931412111090736494949FF
:1006A00036464949291E000014000000403400006D
:1006B00000081422411414141414004122140802D6
:1006C000015909063E415D594E7C1211127C7F4949
:1006D0004949363E414141227F4141413E7F49499E
:1006E00049417F090909013E414151737F080808CA
:1006F0007F00417F41002040413F017F081422419B
:100700007F404040407F021C027F7F0408107F3EF4
:100710004141413E7F090909063E4151215E7F0961
:10072000192946264949493203017F01033F4040C8
:10073000403F1F2040201F3F4038403F63140814B3
:100740006303047804036159494D43007F414141EB
:100750000204081020004141417F040201020440CC
:1007600040404040000307080020545478407F2850
:100770004444383844444428384444287F38545446
:10078000541800087E090218A4A49C787F08040469
:100790007800447D40002040403D007F1028440008
:1007A00000417F40007C047804787C080404783899
:1007B00044444438FC1824241818242418FC7C08C9
:1007C000040408485454542404043F44243C404046
:1007D000207C1C2040201C3C4030403C44281028F9
:1007E000444C9090907C4464544C44000836410042
:1007F0000000770000004136080002010204023CBC
:100800002623263C0A72656C617920696E69742022
:100810007375636365737366756C002073756363CA
:1008200065737366756C000A0A4C454420696E69ED
:1008300074202E2E2E0000000000240027002A0025
:1008400000000000250028002B0004040404040418
:10085000040402020202020203030303030301026F
:10086000040810204080010204081020010204083E
:10087000102000000008000201000003040700002F
:100880000000000000001610591611241FBECFEF03
:10089000D8E0DEBFCDBF24E0AEEAB2E001C01D92D9
:1008A000A03DB207E1F712E0A0E0B1E0E8EDF1E32E
:1008B00002C005900D92AE3AB107D9F714E0C4E436
:1008C000D4E004C02197FE010E94E716C334D1078B
:1008D000C9F70E94F4100C94DF180C94000090E00B
:1008E000FC01EE58F74F2491FC01E25AF74F349186
:1008F000FC01E65BF74FE491EE23C9F0222339F0C7
:10090000233001F1A8F4213019F1223029F1F0E06F
:10091000EE0FFF1FE05CF74FA591B4918FB7F894ED
:10092000EC91611126C030953E233C938FBF089512
:100930002730A9F02830C9F0243049F78091800091
:100940008F7D03C0809180008F7780938000DFCF00
:1009500084B58F7784BDDBCF84B58F7DFBCF80914D
:10096000B0008F778093B000D2CF8091B0008F7DA0
:10097000F9CF3E2BDACFCF93DF9390E0FC01E25A20
:10098000F74F2491865B974FFC0184918823D1F027
:1009900090E0880F991FFC01EA5CF74FA591B49194
:1009A000FC01E05CF74FC591D49161110EC09FB777
:1009B000F8948C91E22FE0958E238C932881E2238A
:1009C000E8839FBFDF91CF9108958FB7F894EC91A2
:1009D000E22BEC938FBFF6CF3FB7F8948091520390
:1009E00090915303A0915403B091550326B5A89B51
:1009F00005C02F3F19F00196A11DB11D3FBFBA2FB1
:100A0000A92F982F8827BC01CD01620F711D811D70
:100A1000911D42E0660F771F881F991F4A95D1F7F5
:100A200008958F929F92AF92BF92CF92DF92EF92F2
:100A3000FF924B015C010E94EC046B017C010E945F
:100A4000EC046C197D098E099F09683E734081058D
:100A50009105A8F321E0821A9108A108B10888EE57
:100A6000C80E83E0D81EE11CF11C81149104A1047E
:100A7000B10429F7FF90EF90DF90CF90BF90AF9037
:100A80009F908F90089508950895809149039091C3
:100A90004A03891B990B08950895DB0114964D9123
:100AA0005C9115976D917C91DC01ED91FC91028038
:100AB000F381E02D0994CF93DF93EC0162E070E0C5
:100AC00080E090E00E941105BE018CE994E00E9454
:100AD0004D05BE0186EA93E0DF91CF910C944D0560
:100AE000AF92BF92CF92DF92EF92FF920F931F933C
:100AF000CF93DF936C017B018B01040F151FEB017A
:100B00005E01AE18BF08C017D10759F06991D60130
:100B1000ED91FC910190F081E02DC6010995892BA2
:100B200079F7C501DF91CF911F910F91FF90EF9061
:100B3000DF90CF90BF90AF900895FC01538D448D0E
:100B4000252F30E0842F90E0821B930B541710F078
:100B5000CF96089501970895FC01918D828D981785
:100B600061F0A28DAE0FBF2FB11D5D968C91928D5D
:100B70009F5F9F73928F90E008958FEF9FEF08958E
:100B8000FC01918D828D981731F0828DE80FF11D57
:100B9000858D90E008958FEF9FEF0895FC01918D72
:100BA000228D892F90E0805C9F4F821B91098F736B
:100BB0009927089586EA93E00E94CE0521E0892BCB
:100BC00009F420E0822F089580E090E0892B29F03D
:100BD0000E94DA0581110C9400000895FC01A48D97
:100BE000A80FB92FB11DA35ABF4F2C91848D90E04F
:100BF00001968F739927848FA689B7892C93A08932
:100C0000B1898C91837080648C93938D848D9813BB
:100C100006C00288F389E02D80818F7D808308954E
:100C2000EF92FF920F931F93CF93DF93EC0181E03C
:100C3000888F9B8D8C8D98131AC0E889F9898081E3
:100C400085FF15C09FB7F894EE89FF896083E88916
:100C5000F98980818370806480839FBF81E090E008
:100C6000DF91CF911F910F91FF90EF900895F62E95
:100C70000B8D10E00F5F1F4F0F731127E02E8C8D2F
:100C80008E110CC00FB607FCFACFE889F989808174
:100C900085FFF5CFCE010E94EE05F1CFEB8DEC0F75
:100CA000FD2FF11DE35AFF4FF0829FB7F8940B8F91
:100CB000EA89FB8980818062CFCFEF92FF920F9308
:100CC0001F93CF93DF938C017B01D0E0C0E0F7014D
:100CD000EC0FFD1F6491662339F0C8010E941006D5
:100CE000892B11F02196F3CFCE01DF91CF911F9187
:100CF0000F91FF90EF900895CF93DF93EC01888DD3
:100D00008823B9F0AA89BB89E889F9898C9185FD86
:100D100003C0808186FD0DC00FB607FCF7CF8C9114
:100D200085FFF2CF808185FFEDCFCE010E94EE05D9
:100D3000E9CFDF91CF9108953F924F925F926F92EA
:100D40007F928F929F92AF92BF92CF92DF92EF925B
:100D5000FF920F931F93CF93DF93CDB7DEB7299701
:100D60000FB6F894DEBF0FBECDBF8C01B42E842F1A
:100D7000952FDB01A62E952E8B2F9927AA27BB270F
:100D8000382E7C01D12CC12C38E0832ED80112964C
:100D90008D919C911397C816D90608F00FC13B2D71
:100DA00018962C91492D5A2D222361F0A29EC00144
:100DB0001124592F299DC0011124492F2B9DC001B9
:100DC0001124392FD8011E96EC911E9719968D91FA
:100DD0009C911A971B966C91E613A0C0B601660F02
:100DE000771F6C0D7D1D860F971FD8011B96EC9108
:100DF0001B97E80FF92FF11D50831C96EC911C975F
:100E0000E80FF92FF11D40831D962C911D97820F3D
:100E1000911DFC01308319968D919C91892B09F4C9
:100E200079C0D8011F964D905D906D907C9052973F
:100E30000E94EC04641575058605970538F40E9438
:100E4000EC04F8016787708B818B928B0E94EC0415
:100E5000D8011F964D905D906D907C9052976419CB
:100E60007509860997096C32714081059105C8F2B0
:100E7000F894F801848195819A8389830184F285AD
:100E8000E02D3F012FEF621A720A80818987D80115
:100E90009C915396ED91FC91549755968C91992382
:100EA00009F452C09081982B98879081809589236E
:100EB0008F838F818C838B8258856F8149853B819D
:100EC0002C8189819A81D301508347FD252F3A9542
:100ED0002083262F39F0441F00C0000060830000EB
:100EE00000C0F2CF38E04D9160830000019761F7B8
:100EF000D8015496FC93EE93539749873B832C83F8
:100F00009A83898378940E94EC04F8016787708B38
:100F1000818B928BFFEFCF1ADF0A38CFB601660FB5
:100F2000771F660F771F860F971F222359F02E9D7C
:100F3000B0012F9D700D1124272FE80FF92FF11DFF
:100F4000208353CF232DF9CF9081982B98879081C0
:100F5000809589238F838F818E838D8258856F81C1
:100F600049853D812E8189819A81D301508347FD36
:100F7000252F00C000C0208300C000C000C000C0FA
:100F800000C060830000262F3A9541F0441F000006
:100F900000C000C000C000C000C0E8CF38E04D91E4
:100FA00000C0608300C0019709F7D8015496FC93F4
:100FB000EE93539749873D832E83A2CF6AE070E07A
:100FC00080E090E029960FB6F894DEBF0FBECDBF4B
:100FD000DF91CF911F910F91FF90EF90DF90CF9015
:100FE000BF90AF909F908F907F906F905F904F9049
:100FF0003F900C941105CF93DF93EC019C818E817F
:10100000981758F4E881F9810084F185E02D42E0D9
:10101000CE0109958C818F5F8C83DF91CF910895EC
:10102000DC01ED91FC910084F185E02D40E0099414
:101030000F931F93CF938C01FC016483C085C60F6F
:101040006C2F6F700E9410086C2F62956F7060613A
:10105000C801CF911F910F910C941008FC012781BA
:10106000269526952695621720F46583606B0C946F
:10107000100808951F93CF93DF93EC01142F8E81F6
:10108000681718F4CE010E941808612FCE01DF9175
:10109000CF911F910C942E08CF92DF92EF92FF9286
:1010A0000F931F93CF93DF93EC01162FC42ED22EF4
:1010B0008F81869586958695081710F00FEF080F9B
:1010C000FD2C0F15B0F08E81181720F4612FCE0182
:1010D0000E9418086F2DCE010E942E08E12ECE141A
:1010E00030F060E0CE010E94FB07E394F8CFF39468
:1010F000E8CF4D2D612FCE01DF91CF911F910F9140
:10110000FF90EF90DF90CF900C943A082F923F928F
:101110004F925F926F927F928F929F92AF92BF9207
:10112000CF92DF92EF92FF920F931F93CF93DF93B3
:1011300000D000D01F92CDB7DEB7DC011B960D9119
:101140001C910115110509F468C19D838C83F80178
:101150004491319654913196649031962491E22EC7
:10116000F12CF7E0EF0EF11C73E0F594E7947A951B
:10117000E1F7E982F801349634913196E4916317EE
:1011800048F08E2F90E0FC01E30FF11D6E171F0653
:101190000CF487C06D3031F5AC81BD8116968C9111
:1011A00081111AC081E090E00F900F900F900F9086
:1011B0000F90DF91CF911F910F91FF90EF90DF90F3
:1011C000CF90BF90AF909F908F907F906F905F90E7
:1011D0004F903F902F90089560E08C819D810E94F8
:1011E0001808E0CF6A3009F018C1EC81FD818185D3
:1011F000D5808E9DD00C1124878186958695869505
:10120000D81630F08285882319F082E08287D12CAD
:101210004D2D60E08C819D810E943A08AC81BD819A
:101220001A968C911A97823008F4BCCF15962C919F
:1012300015971B96ED91FC911C9700E0309739F0C3
:101240003396E49119960C91E09F002D112410E043
:10125000095F1F4F33E0159507953A95E1F78FEF3A
:10126000820F080FEC81FD81468141506481CF01DE
:101270000E944C08AC81BD8119968C9119976D2DF7
:101280008E9D600D1124660F660F660F17968C9168
:10129000861708F460E060648C819D810E941008CC
:1012A00081CF4527542745270A5F1F4F631BEC81D9
:1012B000FD8121844230510508F06DC0452B09F0B5
:1012C000212C6E9CC0016F9C900D1124689FF00131
:1012D000699FF00D11240E0F1F1F512CAC81BD8191
:1012E0001496BC91BA83EC81FD81F581FB83862C39
:1012F000912CAA24A394B12C312C8981381608F0A2
:1013000086C0412CAC81BD8119968C91481608F09D
:1013100077C0311002C0442041F0EC81FD8145814D
:101320004F5F6A81CF010E943A08D12CC12CC614AC
:1013300008F05AC0F801EC0DFD1D7490552061F0C5
:10134000EA14FB0449F4E72DF0E0052C02C0F59502
:10135000E7950A94E2F77E2EAC81BD8119968C91B7
:10136000823081F4442009F43BC072948FE07822EB
:10137000E72DF0E0E757FF4F7490672D8C819D813A
:101380000E94FB07672D8C819D810E94FB07EFEF78
:10139000CE1ADE0ACCCF277038E0532E521A211114
:1013A00001C0512C50E040E030E020E0F801461749
:1013B00040F4E40FF51FE4912E0F311D4F5F5F4F96
:1013C000F5CFE60FF11D6490E29EF001E39EF00D73
:1013D000F29EF00D11248E0F9F1F080F191F7ECF54
:1013E000B72DBF707B2EC4CFD12C2D1439F060E007
:1013F0008C819D810E94FB07D394F7CF439482CFC9
:101400003394080D191DFFEFAF1ABF0A76CF6B8119
:101410008C819D810E942E08C5CE90E080E0C4CED4
:101420000F93CF93DF93EC010F81069506950695F8
:1014300001504E81415020E060E00E944C0881E064
:101440009A85911101C080E08A8760E4CE01DF9126
:10145000CF910F910C94100890E0FC01EE0FFF1F4C
:10146000ED57FF4FA591B4912C91FC01EE5DFC4F1F
:1014700030812083880F991FFC01E45FFE4F0190AB
:10148000F081E02D808108952091CF02260F33272F
:10149000331F21323105ECF420917C03FC0190E0F4
:1014A00080E0243069F082E00895A091CF0221917C
:1014B000AC0141555D4FA40FB52FB11D2C93019682
:1014C000861798F38091CF02680F6093CF0280E077
:1014D000089581E0089510927C0381E080937B035E
:1014E0001092560361E082E10E946F0461E083E1A3
:1014F0000E946F04E9EBF0E080818E7F8083808121
:101500008D7F808388E48093B80085E48093BC005D
:101510000895CF93DF9391E09093AE028823B9F0C2
:10152000C091B800D091BA008091BC008A7B8093B2
:10153000BC0060E082E10E946F0460E083E10E94F1
:101540006F040E946B0AD093BA00C093B800DF9179
:10155000CF9108958F929F92AF92BF92CF92DF92D8
:10156000EF92FF920F931F93CF93DF93D091A50338
:10157000D13208F0D7C0182FC091A4030E94EC0408
:101580006B017C0180917C0381116BC082E08093B0
:101590007C0310937B038FEF80937A03109279037F
:1015A000D0937803A4E8B3E0E8E5F3E080E0D81353
:1015B00091C01092570380915703CC0FC82BC09352
:1015C000570380915603813009F088C0109256036A
:1015D0000E94EC046B017C01809157038093BB0057
:1015E00080917E0390917F03A0918003B09181034D
:1015F000892B8A2B8B2BA1F00E94EC0400917E0397
:1016000010917F0320918003309181036C197D0933
:101610008E099F09061717072807390708F442C0E3
:101620008091BC0083FDD8CF85EC8093BC000E94E4
:10163000EC046B017C0180917C03823009F450C082
:1016400080917A038F3F09F46FC080917A038032D2
:1016500009F46CC080917A03803309F469C084E096
:1016600026C080917E0390917F03A0918003B0916A
:101670008103892B8A2B8B2B09F484CF0E94EC04E5
:1016800080907E0390907F03A0908003B0908103B0
:101690006C197D098E099F0986169706A806B9065A
:1016A00008F070CF80917D030E94890A85E0109236
:1016B00083031092A50310928203DF91CF911F91B3
:1016C0000F91FF90EF90DF90CF90BF90AF909F90E1
:1016D0008F9008959D9191938F5F69CF85EEA5CFEF
:1016E00080917E0390917F03A0918003B09181034C
:1016F000892B8A2B8B2B09F49ECF0E94EC0400913E
:101700007E0310917F0320918003309181036C1937
:101710007D098E099F09061717072807390708F062
:101720008ACFC0CF81E0C3CF80E0C1CF82E0BFCFFE
:1017300083E0BDCF0895E0914A0380914903E81703
:1017400030F4F0E0EB5DFC4F808190E008958FEF86
:101750009FEF089590914A03809149032FEF3FEF47
:10176000981748F4E92FF0E0EB5DFC4F208130E062
:101770009F5F90934A03C9010895CF92DF92EF9241
:10178000FF920F931F93CF93DF937C01CB018A01CC
:1017900020918203222389F0EB016B01C40ED51E38
:1017A000CC15DD0569F06991D701ED91FC910190AF
:1017B000F081E02DC7010995F3CF642F0E94440A00
:1017C000C801DF91CF911F910F91FF90EF90DF90B3
:1017D000CF900895CF93DF931F92CDB7DEB7698383
:1017E000209182032223F9F02091A503203258F0A2
:1017F00021E030E0FC013383228390E080E00F9011
:10180000DF91CF91089580918303E82FF0E0EC57AA
:10181000FC4F998190838F5F809383038093A5030E
:1018200081E090E0ECCF61E0CE0101960E94440A95
:10183000F7CFE0E5F4E0918162818081238131E09E
:10184000309382032093A403109283031092A50384
:1018500060956923682B83E494E00E94EA0B81E0A1
:101860000C94AA0A0F931F93CF93DF93EC01062FDA
:10187000142F8E85813120F4882331F0411104C06A
:1018800081E00E94AA0A1E868E85811112C08D8574
:1018900091E0909382038093A403109283031092AB
:1018A000A50360E4111101C060E083E494E00E94AC
:1018B000EA0B602F83E494E00E94EA0B123041F4BB
:1018C0008E858F5F8E87DF91CF911F910F91089545
:1018D00081E00E94AA0A1E86F6CF90E080E008957B
:1018E000FB0101900020E9F73197AF01461B570B30
:1018F000DC01ED91FC910280F381E02D099464E418
:1019000071E00C94700CCF93DF93EC0162E070E017
:1019100080E090E00E941105BE018CE994E00E94F5
:101920004D058CE994E00E947F0CBE0186EA93E0AD
:101930000E944D0586EA93E0DF91CF910C947F0CD5
:101940000F931F93CF93DF93EC010E94700C8C01D7
:10195000CE010E947F0C800F911FDF91CF911F91CC
:101960000F9108950F931F93CF93DF93EC010E9483
:101970005D068C01CE010E947F0C800F911FDF91CC
:10198000CF911F910F9108950F931F93CF93DF93E2
:10199000EC018B0162E070E080E090E00E941105B4
:1019A00061E08EE00E946F0486EA93E00E947F0C63
:1019B00067E471E086EA93E00E94700CB80186EA61
:1019C00093E00E944D056AE471E086EA93E00E948C
:1019D000700CBE0186EA93E00E944D056CE471E054
:1019E00086EA93E00E94A00C64E170E080E090E061
:1019F0000E94110560E08EE0DF91CF911F910F9161
:101A00000C946F04CF93DF93EC0188819981009748
:101A100011F00E948917198218821D821C821B8274
:101A20001A82DF91CF910895FC0180819181009706
:101A300011F00C94891708950F931F93CF93DF93A0
:101A4000EC0188819981009759F02A813B81261702
:101A5000370730F081E0DF91CF911F910F9108950A
:101A60008B016F5F7F4F0E941218009759F0998386
:101A700088831B830A832C813D81232B59F7FC012A
:101A80001082E8CF80E0E7CFEF92FF920F931F9391
:101A9000CF93DF93EC017B018A01BA010E941C0DF8
:101AA00081110BC0CE010E94020DCE01DF91CF91BA
:101AB0001F910F91FF90EF9008951D830C83B70144
:101AC000888199810E94D818F0CFEF92FF920F93EE
:101AD0001F93CF93DF93CDB7DEB762970FB6F8941D
:101AE000DEBF0FBECDBF8C01CB01F8011182108289
:101AF00013821282158214824AE09E012F5F3F4FAB
:101B00007901B9010E947B16F70101900020E9F7E5
:101B10003197AF014E195F09B701C8010E94440D0A
:101B200062960FB6F894DEBF0FBECDBFDF91CF91A6
:101B30001F910F91FF90EF900895FC011182108288
:101B40001382128215821482FB0101900020E9F7B2
:101B50003197AF01461B570B0C94440D85ED8093D4
:101B6000BC0080917E0390917F03A0918003B0918F
:101B700081030796A11DB11D23E0B695A795979502
:101B800087952A95D1F72091BC0024FD03C01092BF
:101B90007C03089540917E0350917F036091800300
:101BA00070918103452B462B472B69F30097A105C4
:101BB000B10541F025E32A95F1F700000197A1094D
:101BC000B109E1CF80917D030C94890A1F920F9295
:101BD0000FB60F9211242F933F938F939F93AF9340
:101BE000BF9380914E0390914F03A0915003B09109
:101BF000510330914D0323E0230F2D3758F5019603
:101C0000A11DB11D20934D0380934E0390934F036C
:101C1000A0935003B09351038091520390915303CA
:101C2000A0915403B09155030196A11DB11D80935D
:101C3000520390935303A0935403B0935503BF9161
:101C4000AF919F918F913F912F910F900FBE0F9069
:101C50001F90189526E8230F0296A11DB11DD2CF23
:101C60001F920F920FB60F9211242F933F934F9311
:101C70005F936F937F938F939F93AF93BF93EF93F4
:101C8000FF9386EA93E00E94EE05FF91EF91BF91EA
:101C9000AF919F918F917F916F915F914F913F9104
:101CA0002F910F900FBE0F901F9018951F920F92BB
:101CB0000FB60F9211242F938F939F93EF93FF935F
:101CC000E091B603F091B7038081E091BC03F091FD
:101CD000BD0382FD1BC090818091BF038F5F8F7316
:101CE0002091C003821741F0E091BF03F0E0EA5574
:101CF000FC4F958F8093BF03FF91EF919F918F9140
:101D00002F910F900FBE0F901F9018958081F4CFE8
:101D10001F920F920FB60F9211242F933F934F9360
:101D20005F936F937F938F939F93AF93BF93EF9343
:101D3000FF9382E00E942C0AFF91EF91BF91AF9137
:101D40009F918F917F916F915F914F913F912F91D3
:101D50000F900FBE0F901F9018951F920F920FB605
:101D60000F9211242F933F934F935F936F937F9321
:101D70008F939F93AF93BF93EF93FF9381E00E9464
:101D80002C0AFF91EF91BF91AF919F918F917F911D
:101D90006F915F914F913F912F910F900FBE0F90D8
:101DA0001F9018951F920F920FB60F9211242F9328
:101DB0003F934F935F936F937F938F939F93AF93D3
:101DC000BF93EF93FF9380E00E942C0AFF91EF9165
:101DD000BF91AF919F918F917F916F915F914F9143
:101DE0003F912F910F900FBE0F901F9018951F924B
:101DF0000F920FB60F9211242F933F934F935F933F
:101E00006F937F938F939F93AF93BF93EF93FF93C2
:101E10008091B900887F803609F44AC0F0F5883295
:101E200009F4A7C018F5803109F49BC0B8F48823E1
:101E300009F4F9C0883009F494C0FF91EF91BF9183
:101E4000AF919F918F917F916F915F914F913F9152
:101E50002F910F900FBE0F901F901895883109F4A5
:101E600088C0803251F780937A0314C0803409F41B
:101E70009DC040F48033B9F38833F9F680937A0338
:101E800085ECB0C0803509F485C0883509F496C06A
:101E9000883499F60E94AE0DD0CF883909F48CC0F1
:101EA00038F5883729F050F4883611F0803729F654
:101EB00083E080937C031092F10257C0883809F4C4
:101EC0007BC0803919F0803809F0B7CF8091F102DA
:101ED000803208F071C0E091F10281E08E0F8093B2
:101EE000F1028091BB00F0E0EF52FD4F80833DC0D6
:101EF000803B39F0E0F4803A09F479C0883A09F07F
:101F00009CCF84E080937C031092D0021092CF0289
:101F1000E0914503F091460309958091CF0281112C
:101F20000FC081E08093CF021092AF0209C0803CC5
:101F300009F4A6CF883C09F4A3CF883B09F07DCFF4
:101F4000E091D00281E08E0F8093D002F0E0E15565
:101F5000FD4F80818093BB009091D0028091CF0291
:101F600029C0809157038093BB0085EC8093BC000F
:101F700064CF9091790380917803981758F5E09198
:101F8000790381E08E0F80937903F0E0E85AFC4FEB
:101F90008081E9CFE091790381E08E0F809379030E
:101FA0008091BB00F0E0E85AFC4F80839091790368
:101FB000809178039817C8F285E8D8CFE09179032B
:101FC00081E08E0F809379038091BB00F0E0E85AA6
:101FD000FC4F808380917B0381115CCF81E08093F3
:101FE000560384EA8093BC0010927C0326CF85ECD4
:101FF0008093BC0010927C038091F102803230F417
:10200000E091F102F0E0EF52FD4F10826091F10299
:1020100070E0E0914703F091480381ED92E009956B
:102020001092F1020ACF10927A0334CFEF92FF920E
:102030001F93CF93DF93E6EAF3E01382128288EED8
:1020400093E0A0E0B0E084839583A683B78326E184
:1020500031E03183208325EC30E03587248724EC80
:1020600030E03787268720EC30E0318B208B21EC65
:1020700030E0338B228B22EC30E0358B248B26EC46
:1020800030E0378B268B118E128E138E148EE3E484
:10209000F4E01382128284839583A683B78388E257
:1020A00091E09183808363E571E086EC94E00E9487
:1020B0009D0D6DE571E080EC94E00E949D0D63E65E
:1020C00071E08AEB94E00E949D0DEBEAF4E013824C
:1020D000128281E08187148613862AE331E03183FE
:1020E0002083ECE9F4E01382128281871486138640
:1020F00031832083E6E8F4E0808311821382128228
:10210000158214822FEF3FEF3783268310861286C5
:1021100011868387148692E0958786871786108AB2
:10212000118A128A80E090E0A8E7B0E080938204F0
:1021300090938304A0938404B09385048FE6E82EE3
:1021400084E0F82E1FEFF701108311838CE190E0FB
:102150000E94ED16EC0188E08B871E871D871C8787
:102160008FE494E0998388831B8E82E090E00E9444
:10217000ED1621E7FC01208311829B838A8380E492
:1021800092E4AFE0B0E08C839D83AE83BF83198679
:1021900018861A86F701D28BC18BE0E5F4E0108235
:1021A000118212821382148215821682178210867F
:1021B000118612861386148615861686108A17864F
:1021C000128A118A148A138A168A158A108E178A1F
:1021D000128E118E148E138E168E158EDF91CF9166
:1021E0001F91FF90EF900895CF93DF93CDB7DEB7A7
:1021F000AD970FB6F894DEBF0FBECDBF789484B50F
:10220000826084BD84B5816084BD85B5826085BDF2
:1022100085B5816085BD80916E00816080936E0080
:102220001092810080918100826080938100809172
:102230008100816080938100809180008160809323
:1022400080008091B10084608093B1008091B000E3
:1022500081608093B00080917A00846080937A00DE
:1022600080917A00826080937A0080917A00816008
:1022700080937A0080917A00806880937A0010922F
:10228000C10010924A0310924903109283031092E6
:10229000A5030E946B0A83E495E090934603809324
:1022A000450384E495E0909348038093470388E4D2
:1022B0008093B800E091B603F091B70382E0808389
:1022C000E091B203F091B3031082E091B403F09176
:1022D000B50380E180831092BE03E091BA03F091D0
:1022E000BB0386E08083E091B803F091B90380815D
:1022F00080618083E091B803F091B90380818860A8
:102300008083E091B803F091B90380818068808375
:10231000E091B803F091B90380818F7D808364E6FA
:1023200070E080E090E00E94110561E08EE00E9484
:10233000BB0467E076E086EA93E00E94B20C60EFAF
:1023400075E086EA93E00E94B20C69ED75E086EADA
:1023500093E00E94B20C64E170E080E090E00E94A3
:10236000110563E771E08E010F5F1F4FC8010E94E6
:102370009D0D67E771E0CE0182960E949D0DB80128
:10238000CE0182960E94C40CCE0182960E94140D4A
:10239000C8010E94140D63E771E0C8010E949D0D01
:1023A00065E871E0CE0182960E949D0DB801CE01D4
:1023B00082960E94C40CCE0182960E94140DC80120
:1023C0000E94140D63E771E0C8010E949D0D61E950
:1023D00071E0CE0182960E949D0DB801CE018296D9
:1023E0000E94C40CCE0182960E94140DC8010E9466
:1023F000140D6EEB75E086EA93E00E945D0619A26B
:1024000083E488A383E38F8FBE01615E7F4F86EAFA
:1024100093E00E94700C86EA93E00E947F0C6AE0D1
:1024200070E080E090E00E9411051092AA048CE315
:102430008093A9041092A0041092A104E8EBF5E0A7
:10244000A590B490EAEBF5E0D490EBEBF5E0E491E5
:10245000E093A204ECEBF5E0E491E093A304EDEB50
:10246000F5E0E491E093A404F12CE12CED1460F488
:10247000F501EE0DFF1D64918CE994E00E941008B7
:102480008FEFE81AF80AF2CF1092A6048CE994E0D4
:102490000E94100A8091A304803439F48CE994E0FE
:1024A0000E94100A81E08093A60484EA90E0909351
:1024B000A8048093A7048CE994E00E94100A69E9BB
:1024C00070E086EA93E00E94B20C6AE070E080E07F
:1024D00090E00E9411058EE196E09093A80480930D
:1024E000A704A8956EE971E0C8010E949D0DC8017E
:1024F0000E94830CC8010E94140D88E199E20FB676
:10250000F894A895809360000FBE90936000A89502
:1025100086EA93E00E947F0C6BEA71E0C8010E949A
:102520009D0DC8010E94830CC8010E94140D6AE031
:1025300070E080E090E00E94110566E471E0CE0159
:1025400088960E949D0DF8E0CF2ED12CEE24E394C6
:10255000FC2CE0928203C092A40310928303109299
:10256000A50381E00E94AA0A8111A4C06BEB71E06F
:10257000C8010E949D0DC8010E945B05C8010E9410
:10258000140D63EC71E0C8010E949D0DC8010E940A
:102590005B05C8010E94140D1BA21AA21DA21CA259
:1025A0001FA21EA24AE0B801C6010E948616F801C9
:1025B00001900020E9F73197AF01401B510BB801A2
:1025C000CE0182960E94440D88A599A5009709F432
:1025D0004FC06AA17BA16115710509F447C04AA5E6
:1025E0005BA52EA13FA14217530708F43FC00E94EC
:1025F000D8188EA19FA19DA78CA71FA21EA2CE01B5
:1026000082960E94140D1A8219821C821B821E82DD
:102610001D8268A579A56115710529F04CA55DA5F8
:10262000C8010E94440DC8010E945B05C8010E94B8
:10263000140D68EC71E0C8010E949D0DC8010E9454
:10264000830CC8010E94140DE8ECEF0DE83008F08F
:1026500032C1F0E0E25DFC4E0C94E71649134F14D2
:102660004F144F14521455145B1458140E948917B8
:102670008AA19BA199A788A78CA19DA19BA78AA7A6
:102680008EA19FA19DA78CA71BA21AA21DA21CA26E
:10269000B4CF6CEC71E0C8010E949D0DC8010E948E
:1026A000830CC8010E94140D61E070E080E090E0AE
:1026B0000E941105AFEFCA1ADA0AB8E7CB16D104A7
:1026C00009F046CF6AE072E0C8010E949D0DC80182
:1026D0000E94830CC8010E94140D6AE070E080E043
:1026E00090E00E941105CE0188960E94140DA895D5
:1026F0006FE370E0CE0182960E94650D6CE172E09E
:10270000C8010E949D0DEEA0FFA0CAA0DBA0C114CD
:10271000D10409F4D3C0E114F104B1F08D819E819C
:10272000E80EF91EB701C8010E941C0D882309F4A8
:10273000C5C029813A818D819E81B601820F931F88
:102740000E94D818FE82ED8219A618A61BA61AA60A
:102750001DA61CA669817A816115710531F04D8134
:102760005E81CE0188960E94440DCE0188960E941B
:10277000830CCE0188960E94140DC8010E94140D8E
:10278000CE0182960E94140D8FE380935304109221
:102790004A0310924903109283031092A5030E94EA
:1027A0006B0A83E495E0909346038093450384E4A9
:1027B00095E0909348038093470380915104809360
:1027C0005404F09053040E94EC044B015C0180918E
:1027D0007C03811177C081E080937C0380937B032D
:1027E0009FEF90937A03109279031092780380936D
:1027F000570380915703FF0CF82AF09257038091FA
:102800005603813009F08BC0109256030E94EC04ED
:102810006B017C01809157038093BB0080917E0304
:1028200090917F03A0918003B0918103892B8A2B23
:102830008B2BA1F00E94EC0480907E0390907F038C
:10284000A0908003B09081036C197D098E099F09C7
:1028500086169706A806B90608F455C08091BC00F4
:1028600083FDD8CF85EC8093BC000E94EC046B0103
:102870007C0180917C03813009F453C080917903FD
:10288000811171C080917903E8E5F3E0A5E2B3E03E
:1028900090E09817E9F121912D939F5FFACF6DEDAC
:1028A00071E0F9CE67EE71E0F6CE67EF71E0F3CE3E
:1028B0006CEF71E0F0CE62E072E0EDCEC8010E94F4
:1028C000020D42CF80917E0390917F03A0918003FF
:1028D000B0918103892B8A2B8B2B09F478CF0E942E
:1028E000EC0440907E0350907F03609080037090D2
:1028F0008103681979098A099B09461657066806F3
:10290000790608F064CF80917D030E94890A80E0F7
:1029100010924A0380934903811127C0FFCF85EEAF
:10292000A2CF80917E0390917F03A0918003B0910C
:102930008103892B8A2B8B2B09F49BCF0E94EC04FB
:1029400080907E0390907F03A0908003B0908103DD
:102950006C197D098E099F0986169706A806B90687
:1029600008F087CFD0CF81E08FCF83E494E00E943E
:10297000AA0B8093510420915204EE24E394F12C8D
:10298000C70100904B0302C0880F991F0A94E2F719
:10299000922F982B90935204909150048095892304
:1029A000809350040E94190C00904B0302C0EE0C5F
:1029B000FF1C0A94E2F78091040181116BC18091A0
:1029C0005004E094E822E09250040E94190C6AE25C
:1029D00072E0C8010E949D0DC8010E945B05C801FC
:1029E0000E94140D60914B0370914C03C8010E942A
:1029F000650DC8010E945B05C8010E94140D62E3C9
:102A000072E0C8010E949D0DC8010E945B05C801CB
:102A10000E94140D6091040170910501C8010E948B
:102A2000650DC8010E945B05C8010E94140D1A8241
:102A300019821C821B821E821D8266E170E0C80121
:102A40000E941C0D81112AC1C8010E94020DC801FB
:102A50000E94830CC8010E94140DA89567E278E0DB
:102A600086EA93E00E945D066AE070E080E090E014
:102A70000E94110540E0642E41E0742E52E0452E84
:102A800051E0552E66E8E62E64E0F62E33243394AA
:102A900072E0272EF301C190D1903F01D2018D90B9
:102AA0009D902D015401AA0CBB1CA80CB91CC5019A
:102AB0000E94ED16009721F4B12CA12C912C812CB1
:102AC000F601E65BF74FE491F0E0EE0FFF1FE05CEC
:102AD000F74F25913491F601E25AF74FE491D7016F
:102AE0003C9211961C92119713969C928E9212977B
:102AF0001596BC92AE9214971796DC92CE921697CA
:102B000018961C9218971A969C938E9319971B9659
:102B10003C921B971C962C921C971D961C921D97FD
:102B20001E963C921E971F961D921D921D921C92FE
:102B3000529754963C932E9353975596EC930E943C
:102B40008917D7FC04C060E08C2D0E94BB04F701FC
:102B50008681978197FD09C061E00E94BB0460E017
:102B6000D70116968C910E946F04F701318240E0E4
:102B700050E0BA0186E894E00E949C0640E050E0F4
:102B8000BA018CE994E00E949C06F6E1EF0EF11C7C
:102B900084E0681681E0780609F07CCF68E270E096
:102BA00080E090E00E9411056BE178E086EA93E016
:102BB0000E94B20C6AE070E080E090E00E94110593
:102BC000A89586EA93E00E947F0C62E070E080E0C6
:102BD00090E00E94110563E771E0CE0182960E94A9
:102BE0009D0D6CE372E0C8010E949D0DBE016E5DFB
:102BF0007F4FC8010E94C40CC8010E94140DCE0171
:102C000082960E94140D86EA93E00E947F0C67E48E
:102C100072E0C8010E949D0DC8010E94830CC8018A
:102C20000E94140D65E572E086EA93E00E94A00C14
:102C30008BEA94E00E94100A6AE872E08BEA94E062
:102C40000E94A00C809150048E7F809350040E94BB
:102C5000190CC0908204D0908304E0908404F0901A
:102C60008504B701A60186E894E00E949C06B7019E
:102C7000A6018CE994E00E949C0600E010E0A89573
:102C800001151105E1F30E94DA058823C1F30E94C2
:102C90000000F5CF80915004E82A95CE86E190E0BF
:102CA0009E838D8364E078E089819A810E94741606
:102CB000CECE80918F04909190040E9489178091CC
:102CC0008C0490918D0497FD03C060E00E94BB04CA
:102CD0008AEB94E00E94140D80EC94E00E94140DA5
:102CE00086EC94E00C94140DFB01DC0105900D9230
:102CF0000020E1F70895BB274A3031F4992322F4EC
:102D0000BDE2909581959F4F0C948716BB27FB01E0
:102D10005527AA27880F991FAA1FA41710F0A41BD4
:102D200083955051B9F7A05DAA3308F0A95DA1932E
:102D3000009779F7B111B1931192CB010C94A016C1
:102D4000DC01FC01672F71917723E1F7329704C012
:102D50007C916D9370836291AE17BF07C8F308959D
:102D60002F923F924F925F926F927F928F929F929B
:102D7000AF92BF92CF92DF92EF92FF920F931F9389
:102D8000CF93DF93CDB7DEB7CA1BDB0B0FB6F8943A
:102D9000DEBF0FBECDBF09942A88398848885F847A
:102DA0006E847D848C849B84AA84B984C884DF80EB
:102DB000EE80FD800C811B81AA81B981CE0FD11DCF
:102DC0000FB6F894DEBF0FBECDBFED010895EE0F34
:102DD000FF1F0590F491E02D09940F931F93CF935B
:102DE000DF938230910510F482E090E0E091CE0410
:102DF000F091CF0430E020E0B0E0A0E0309799F40B
:102E00002115310509F44AC0281B390B243031053E
:102E1000D8F58A819B816115710589F1FB01938346
:102E20008283FE0111C040815181028113814817C4
:102E30005907E0F04817590799F4109761F0129676
:102E40000C93129713961C933296CF01DF91CF917A
:102E50001F910F9108950093CE041093CF04F4CFE7
:102E60002115310551F04217530738F0A901DB0154
:102E70009A01BD01DF01F801C1CFEF01F9CF9093B5
:102E8000CF048093CE04CDCFFE01E20FF31F8193D8
:102E900091932250310939832883D7CF2091CC04D4
:102EA0003091CD04232B41F4209108013091090188
:102EB0003093CD042093CC0420910601309107017A
:102EC0002115310541F42DB73EB740910A015091CB
:102ED0000B01241B350BE091CC04F091CD04E217DB
:102EE000F307A0F42E1B3F0B2817390778F0AC012D
:102EF0004E5F5F4F2417350748F04E0F5F1F50930A
:102F0000CD044093CC04819391939FCFF0E0E0E017
:102F10009CCFCF93DF930097E9F0FC0132971382A7
:102F20001282A091CE04B091CF04ED0130E020E0F8
:102F30001097A1F420813181820F931F2091CC043E
:102F40003091CD042817390709F061C0F093CD0402
:102F5000E093CC04DF91CF910895EA01CE17DF070B
:102F6000E8F54A815B819E0141155105B1F7E90100
:102F7000FB83EA8349915991C40FD51FEC17FD07D4
:102F800061F4808191810296840F951FE9019983F4
:102F90008883828193819B838A83F0E0E0E01296AC
:102FA0008D919C9113970097B9F52D913C911197B4
:102FB000CD010296820F931F2091CC043091CD0455
:102FC0002817390739F6309751F51092CF0410922F
:102FD000CE04B093CD04A093CC04BCCFD383C283E2
:102FE00040815181840F951FC817D90761F44E5F46
:102FF0005F4F88819981480F591F518340838A818F
:103000009B81938382832115310509F0B0CFF09322
:10301000CF04E093CE049ECFFD01DC01C0CF13822C
:103020001282D7CFB0E0A0E0E8E1F8E10C94B2164C
:103030008C01009751F4CB010E94ED168C01C80160
:10304000CDB7DEB7E0E10C94CE16FC01E60FF71F1A
:103050009C0122503109E217F30708F49DC0D90101
:10306000CD91DC911197C617D70798F0C530D105DF
:1030700030F3CE0104978617970708F3C61BD70BCA
:103080002297C193D1936D937C93CF010E948917AE
:10309000D6CF5B01AC1ABD0A4C018C0E9D1EA091CF
:1030A000CE04B091CF04512C412CF12CE12C10977F
:1030B00031F58091CC049091CD048815990509F0E3
:1030C0005CC04616570608F058C0809106019091E2
:1030D0000701009741F48DB79EB740910A015091C6
:1030E0000B01841B950BE817F90708F055C0F09306
:1030F000CD04E093CC04F90171836083A0CF8D915E
:103100009C91119712966C90129713967C9013973E
:10311000A815B90559F56C0142E0C40ED11CCA14BA
:10312000DB0420F1AC014A195B09DA01129615970C
:1031300080F06282738251834083D9016D937C93C6
:10314000E114F10471F0D7011396FC93EE931297FA
:1031500076CF22968C0F9D1FF90191838083F30116
:10316000EFCFF093CF04E093CE0469CF4816590611
:1031700008F42C017D01D3019ACFCB010E94ED16FA
:103180007C01009749F0AE01B8010E94CF18C80138
:103190000E948917870153CF10E000E050CFFB0158
:1031A000DC0102C001900D9241505040D8F70895C3
:1031B000FB01DC0101900D920020E1F7089514E07D
:1031C000C4E4D4E004C0FE010E94E7162196C53491
:0831D000D107C9F7F894FFCF05
:1031D80009001F0001000000D00480006B006C0093
:1031E8006D0000000000100670059D057C06CE05E8
:1031F800AC05C00500000000EA0BBD0B6D0C9A0B76
:103208004505AA0B9B0B00000000860870056D0C95
:103218004C05320C0D0A002142722C002C446F6EB2
:10322800652E00362E30342E3230323200312E34B4
:103238002E3200454E545F53545F425245414B4F26
:1032480055540053595300216865616465725F6283
:103258006567696E00216865616465725F656E64A3
:10326800002173657475705F626567696E00574405
:103278005420656E6461626C6564002020204932C8
:1032880043205363616E6E65723A00466F756E64D3
:103298003A20002028307800292020004B657970DA
:1032A8006164202864656661756C7429004B6579D2
:1032B8007061642F494F004F6C6564202028646555
:1032C8006661756C7429004F6C65640052656C61A9
:1032D8007900556E6B6E6F776E00493243207363C9
:1032E800616E20636F6D706C6574650072656C61EA
:1032F80079696E6974206F6E200052656C6179205F
:103308005B005D2073657420746F20002173657401
:1033180075705F656E64000A3D3D3D5354415254DB
:103328003D3D3D0A0047616D6520676F696E672006
:103338006C6976652C206B696C6C696E67206C69AA
:103348006768747320616E64206C6F636B696E6765
:103358002074686520646F6F720047616D65206C2A
:103368006976650A206B696C6C696E67206C6967A1
:0E3378006874730A206C6F636B696E670000E7
:00000001FF
