:100000000C9438040C9460040C9460040C94290D36
:100010000C94040D0C94DF0C0C9460040C9460049C
:100020000C9460040C9460040C9460040C946004C0
:100030000C9460040C9460040C9460040C946004B0
:100040000C943D0C0C9460040C94AD0C0C94870C37
:100050000C9460040C9460040C9460040C94600490
:100060000C944E0D0C946004AEB08180A1A6A83F04
:10007000AD8B32C8D300D580D91FDA12DB40AF0078
:1000800000000023002600290000030C0F30333C41
:100090003FC0C3CCCFF0F3FCFF537563636573734C
:1000A00066756C001C620A0C206002020508070DD0
:1000B00008020404050702040206070607070707EB
:1000C000070707070202070707050A0707070806C9
:1000D00006080804060707090809070908070808A9
:1000E000070C0708060406040809030606060606A8
:1000F000050606020407020A0606060605050506A9
:10010000060A0606050602060809000000007E7EB3
:10011000303007070007070000000000C0D8F8DEF5
:10012000D8F8DE180030000030000000387C64FF92
:1001300064E4C8102020F02030103C7E427E3CC099
:100140002018E6F010F0E000000000300000001081
:1001500030203010DCFE227EDC8060201030202039
:100160002010302007070000F8FE07011070E08023
:100170000107FEF880E07010120C3F0C1200000026
:100180000000202020FC20202000000010000000A3
:100190000000F0702020202000000000000030301F
:1001A0000080E07C1F03C0F030000000FCFE020273
:1001B00002FEFC103020202030100404FEFE00005F
:1001C000202030302020040682C2623E1C203030C5
:1001D000202020200406222222FEDC1030202020B5
:1001E0003010C0A09884FEFE800000000030300077
:1001F000001E1E1212F2E210302020203010F8FCF7
:10020000161212F2E010302020203010020282E29A
:100210007A1E0600203010000000DCFE222222FEA2
:10022000DC103020202030103C7E424242FEFC0098
:10023000202020301000181830301818F07060603E
:1002400090900808040000000010102090909090FA
:10025000909090000000000000000408089090605A
:1002600060201010000000000462721E0C0030308C
:100270000000F00CF4FA0AFAFA040CF000302050F6
:1002800050505010100080F8FE86FEF8803030008C
:1002900000003030FEFE22223EFCC0303020202004
:1002A0003010F8FC0602020204001030202020105A
:1002B000FEFE02020206FCF8303020202030100042
:1002C000FEFE22222222303020202020FEFE22228A
:1002D0002222303000000000F8FC06024242C2C474
:1002E0000010302020203030FEFE20202020FEFE96
:1002F000303000000000303002FEFE02203030209E
:1003000000020202FEFE202020203010FEFE70D8E7
:100310008C060230300000103020FEFE000000008D
:100320000030302020202020FE0E3CF0C0300CFE9B
:10033000FE300000000000003030FE061C38E0C037
:1003400000FE3000000000103030F8FC060202020F
:1003500006FCF8001030202020301000FEFE424243
:10036000427E3C30300000000000F8FC0602020231
:1003700006FCF80010302060E0B09080FEFE2262A3
:10038000E2BE1C0030300000001030201C3E322243
:1003900062E2C410202020203010020202FEFE0281
:1003A00002020000003030000000FEFE00000000ED
:1003B000FEFE10302020202030100E7EF080F07ED7
:1003C0000E000030303000000E7EF080E03E3EE057
:1003D00080F07E0E00003030000000003030000061
:1003E000068EF870F88E0630300000003030060EB1
:1003F00018F0F0180E06000000303000000002C2B5
:10040000F23E0E02303020202020FFFF0101F0F0EC
:100410008080031F7CE0800000000030F0C00101FC
:10042000FFFF8080F0F010180C06060C181000007A
:10043000000000000000000000000000000000803C
:100440008080808080808080010302000000C0E8FE
:100450002828F8F0103020203030FFFF0808F8F08E
:10046000303020203010F0F808080810103020201C
:100470002010F0F80808FFFF103020203030F0F88E
:100480004848787010302020201008FEFF0909002D
:1004900030300000F0F80808F8F810B0A0A0F070B4
:1004A000FFFF0808F8F0303000003030FBFB303040
:1004B0000008FBFB8080F070FFFF60F098080030C0
:1004C000300000103020FFFF3030F8F81008F8F04E
:1004D0001008F8F030300000303000003030F8F80C
:1004E0000808F8F0303000003030F0F80808F8F074
:1004F000103020203010F8F80808F8F0F0F0202034
:100500003010F0F80808F8F810302020F0F0F8F873
:100510001018183030000000307848C8882020209B
:10052000301008FEFE08080010302020F8F8000007
:10053000F8F810302020303038F8C0C0F8380010FB
:100540003030100078F880C03838C080F87800303B
:10055000300000000030300018B8E0E0B81830304B
:100560000000303038F8C0C0F8380090F07010004B
:1005700008C8E8781830302020202020FEDF010154
:10058000000070F08080FFFFF0F00101DFFE20200E
:100590008080F0700000E01010204080807000002B
:1005A000000000000000FE02020202020202FE3011
:1005B00020202020202020306800178040020A0AD6
:1005C0004F4C454420696E6974206F6E204164640D
:1005D000726573733A203078002B2D2D2D2D2D2D23
:1005E0002D2D2D2D2D2D2D2D2D2D2D2D2D2D2B006A
:1005F0007C20202020456C656374726F736361708A
:1006000065202020207C002B2D2D2D2D2D2D2D2DF6
:100610002D2D2D2D2D2D2D2D2D2D2D2D2B00000093
:100620000000240027002A000000050720600000C9
:1006300000000000005F00000007000700147F14A6
:100640007F14242A7F2A1223130864623649562015
:10065000500008070300001C2241000041221C003A
:100660002A1C7F1C2A08083E0808008070300008F9
:1006700008080808000060600020100804023E51CD
:1006800049453E00427F400072494949462141495F
:100690004D331814127F1027454545393C4A4949C6
:1006A0003141211109073649494936464949291E30
:1006B000000014000000403400000008142241141F
:1006C00014141414004122140802015909063E4171
:1006D0005D594E7C1211127C7F494949363E414199
:1006E00041227F4141413E7F494949417F090909F2
:1006F000013E414151737F0808087F00417F41005E
:100700002040413F017F081422417F404040407F0C
:10071000021C027F7F0408107F3E4141413E7F0959
:100720000909063E4151215E7F091929462649499A
:10073000493203017F01033F4040403F1F204020DA
:100740001F3F4038403F63140814630304780403D8
:100750006159494D43007F41414102040810200086
:100760004141417F040201020440404040400003F7
:1007700007080020545478407F28444438384444C3
:100780004428384444287F385454541800087E09BB
:100790000218A4A49C787F0804047800447D4000DB
:1007A0002040403D007F1028440000417F40007CF5
:1007B000047804787C080404783844444438FC18ED
:1007C00024241818242418FC7C08040408485454D1
:1007D000542404043F44243C4040207C1C204020FE
:1007E0001C3C4030403C44281028444C9090907C65
:1007F0004464544C44000836410000007700000077
:100800004136080002010204023C2623263C0A72FB
:10081000656C617920696E697420737563636573B3
:100820007366756C0000000000250028002B000492
:100830000404040404040402020202020203030387
:100840000303030102040810204080010204081081
:10085000200102040810200000000800020100002E
:100860000304070000000000000000006D0E2415C6
:1008700011241FBECFEFD8E0DEBFCDBF24E0A4E738
:10088000B2E001C01D92A738B207E1F712E0A0E084
:10089000B1E0E6EBFFE202C005900D92A437B1078C
:1008A000D9F714E0C7E3D4E004C02197FE010E9409
:1008B000D615C633D107C9F70E94420F0C94CE1744
:1008C0000C94000090E0FC01E95AF74F2491FC01E0
:1008D000ED5BF74F3491FC01E15DF74FE491EE23BE
:1008E000C9F0222339F0233001F1A8F4213019F1A5
:1008F000223029F1F0E0EE0FFF1FEB5DF74FA591DD
:10090000B4918FB7F894EC91611126C030953E23D5
:100910003C938FBF08952730A9F02830C9F02430C8
:1009200049F7809180008F7D03C0809180008F7790
:1009300080938000DFCF84B58F7784BDDBCF84B513
:100940008F7DFBCF8091B0008F778093B000D2CFA6
:100950008091B0008F7DF9CF3E2BDACF3FB7F8946E
:100960008091180390911903A0911A03B0911B0371
:1009700026B5A89B05C02F3F19F00196A11DB11DFA
:100980003FBFBA2FA92F982F8827BC01CD01620F36
:10099000711D811D911D42E0660F771F881F991FF1
:1009A0004A95D1F708958F929F92AF92BF92CF92BE
:1009B000DF92EF92FF924B015C010E94AE046B014B
:1009C0007C010E94AE046C197D098E099F09683E66
:1009D000734081059105A8F321E0821A9108A108CE
:1009E000B10888EEC80E83E0D81EE11CF11C81140A
:1009F0009104A104B10429F7FF90EF90DF90CF900C
:100A0000BF90AF909F908F90089508950895809122
:100A10000F0390911003891B990B08950895DB0132
:100A200014964D915C9115976D917C91DC01ED913F
:100A3000FC910280F381E02D0994CF93DF93EC01C8
:100A400062E070E080E090E00E94D304BE0182E6A4
:100A500094E00E940F05BE018CE693E0DF91CF91F8
:100A60000C940F05AF92BF92CF92DF92EF92FF925C
:100A70000F931F93CF93DF936C017B018B01040FC6
:100A8000151FEB015E01AE18BF08C017D10759F062
:100A90006991D601ED91FC910190F081E02DC601A4
:100AA0000995892B79F7C501DF91CF911F910F919E
:100AB000FF90EF90DF90CF90BF90AF900895FC0132
:100AC000538D448D252F30E0842F90E0821B930BB3
:100AD000541710F0CF96089501970895FC01918D59
:100AE000828D981761F0A28DAE0FBF2FB11D5D965C
:100AF0008C91928D9F5F9F73928F90E008958FEFFE
:100B00009FEF0895FC01918D828D981731F0828DB1
:100B1000E80FF11D858D90E008958FEF9FEF089508
:100B2000FC01918D228D892F90E0805C9F4F821B6C
:100B300091098F73992708958CE693E00E949005A0
:100B400021E0892B09F420E0822F089580E090E0D5
:100B5000892B29F00E949C0581110C9400000895B6
:100B6000FC01A48DA80FB92FB11DA35ABF4F2C9122
:100B7000848D90E001968F739927848FA689B78919
:100B80002C93A089B1898C91837080648C93938D10
:100B9000848D981306C00288F389E02D80818F7DB3
:100BA00080830895EF92FF920F931F93CF93DF936B
:100BB000EC0181E0888F9B8D8C8D98131AC0E88999
:100BC000F989808185FF15C09FB7F894EE89FF8968
:100BD0006083E889F98980818370806480839FBF06
:100BE00081E090E0DF91CF911F910F91FF90EF9006
:100BF0000895F62E0B8D10E00F5F1F4F0F73112716
:100C0000E02E8C8D8E110CC00FB607FCFACFE88950
:100C1000F989808185FFF5CFCE010E94B005F1CF23
:100C2000EB8DEC0FFD2FF11DE35AFF4FF0829FB7C4
:100C3000F8940B8FEA89FB8980818062CFCFEF9295
:100C4000FF920F931F93CF93DF938C017B01D0E032
:100C5000C0E0F701EC0FFD1F6491662339F0C80175
:100C60000E94D205892B11F02196F3CFCE01DF919E
:100C7000CF911F910F91FF90EF900895CF93DF9345
:100C8000EC01888D8823B9F0AA89BB89E889F989A4
:100C90008C9185FD03C0808186FD0DC00FB607FCD9
:100CA000F7CF8C9185FFF2CF808185FFEDCFCE010C
:100CB0000E94B005E9CFDF91CF910895CF93DF93E4
:100CC000EC019C818E81981758F4E881F9810084A9
:100CD000F185E02D42E0CE0109958C818F5F8C83F8
:100CE000DF91CF910895DC01ED91FC910084F185B5
:100CF000E02D40E009940F931F93CF938C01FC01EA
:100D00006483C085C60F6C2F6F700E9473066C2FB2
:100D100062956F706061C801CF911F910F910C9423
:100D20007306FC012781269526952695621720F4E7
:100D30006583606B0C94730608951F93CF93DF93C4
:100D4000EC01142F8E81681718F4CE010E947B06E7
:100D5000612FCE01DF91CF911F910C949106CF921C
:100D6000DF92EF92FF920F931F93CF93DF93EC01EB
:100D7000162FC42ED22E8F818695869586950817BC
:100D800010F00FEF080FFD2C0F15B0F08E81181723
:100D900020F4612FCE010E947B066F2DCE010E94B0
:100DA0009106E12ECE1430F060E0CE010E945E0686
:100DB000E394F8CFF394E8CF4D2D612FCE01DF916E
:100DC000CF911F910F91FF90EF90DF90CF900C94F7
:100DD0009D060F93009169040695069506950150AE
:100DE00040916804415020E060E082E694E00E9477
:100DF000AF0681E090916C04911101C080E0809376
:100E00006C0460E482E694E00F910C9473062F92D8
:100E10003F924F925F926F927F928F929F92AF928A
:100E2000BF92CF92DF92EF92FF920F931F93CF93D7
:100E3000DF9300D000D01F92CDB7DEB7DC011B9648
:100E40000D911C910115110509F468C19D838C83D6
:100E5000F8014491319654913196649031962491E1
:100E6000E22EF12CF7E0EF0EF11C73E0F594E7941D
:100E70007A95E1F7E982F801349634913196E4915C
:100E8000631748F08E2F90E0FC01E30FF11D6E1701
:100E90001F060CF487C06D3031F5AC81BD8116960C
:100EA0008C9181111AC081E090E00F900F900F900B
:100EB0000F900F90DF91CF911F910F91FF90EF90C6
:100EC000DF90CF90BF90AF909F908F907F906F906A
:100ED0005F904F903F902F90089560E08C819D81AE
:100EE0000E947B06E0CF6A3009F018C1EC81FD81D9
:100EF0008185D5808E9DD00C11248781869586951D
:100F00008695D81630F08285882319F082E0828792
:100F1000D12C4D2D60E08C819D810E949D06AC817D
:100F2000BD811A968C911A97823008F4BCCF159621
:100F30002C9115971B96ED91FC911C9700E0309732
:100F400039F03396E49119960C91E09F002D11240D
:100F500010E0095F1F4F33E0159507953A95E1F7CB
:100F60008FEF820F080FEC81FD8146814150648133
:100F7000CF010E94AF06AC81BD8119968C91199763
:100F80006D2D8E9D600D1124660F660F660F1796EE
:100F90008C91861708F460E060648C819D810E94CA
:100FA000730681CF4527542745270A5F1F4F631BD0
:100FB000EC81FD8121844230510508F06DC0452B44
:100FC00009F0212C6E9CC0016F9C900D1124689F2C
:100FD000F001699FF00D11240E0F1F1F512CAC81E1
:100FE000BD811496BC91BA83EC81FD81F581FB83B0
:100FF000862C912CAA24A394B12C312C89813816EB
:1010000008F086C0412CAC81BD8119968C914816A0
:1010100008F077C0311002C0442041F0EC81FD811E
:1010200045814F5F6A81CF010E949D06D12CC12C62
:10103000C61408F05AC0F801EC0DFD1D749055203F
:1010400061F0EA14FB0449F4E72DF0E0052C02C03E
:10105000F595E7950A94E2F77E2EAC81BD8119964D
:101060008C91823081F4442009F43BC072948FE06B
:101070007822E72DF0E0E757FF4F7490672D8C81C1
:101080009D810E945E06672D8C819D810E945E0677
:10109000EFEFCE1ADE0ACCCF277038E0532E521A6B
:1010A000211101C0512C50E040E030E020E0F80177
:1010B000461740F4E40FF51FE4912E0F311D4F5FEA
:1010C0005F4FF5CFE60FF11D6490E29EF001E39EC5
:1010D000F00DF29EF00D11248E0F9F1F080F191FA7
:1010E0007ECFB72DBF707B2EC4CFD12C2D1439F0FD
:1010F00060E08C819D810E945E06D394F7CF43947B
:1011000082CF3394080D191DFFEFAF1ABF0A76CFB7
:101110006B818C819D810E949106C5CE90E080E01C
:10112000C4CE90E0FC01EE0FFF1FED57FF4FA591DD
:10113000B4912C91FC01E851FD4F30812083880F40
:10114000991FFC01E85FFE4F0190F081E02D808146
:10115000089520919502260F3327331F2132310540
:10116000ECF420914203FC0190E080E0243069F02F
:1011700082E00895A09195022191AC014B585D4FFA
:10118000A40FB52FB11D2C930196861798F380916B
:101190009502680F6093950280E0089581E00895BC
:1011A0001092420381E08093410310921C0361E09E
:1011B00082E10E94620461E083E10E946204E9EB43
:1011C000F0E080818E7F808380818D7F808388E4C2
:1011D0008093B80085E48093BC000895CF93DF939B
:1011E00091E0909374028823B9F0C091B800D09137
:1011F000BA008091BC008A7B8093BC0060E082E1F1
:101200000E94620460E083E10E9462040E94D008B0
:10121000D093BA00C093B800DF91CF9108958F9218
:101220009F92AF92BF92CF92DF92EF92FF920F9375
:101230001F93CF93DF93D0916B03D13208F0D7C0C7
:10124000182FC0916A030E94AE046B017C0180914B
:10125000420381116BC082E08093420310934103EB
:101260008FEF8093400310923F03D0933E03AAE494
:10127000B3E0EEE1F3E080E0D81391C010921D03DB
:1012800080911D03CC0FC82BC0931D0380911C03BC
:10129000813009F088C010921C030E94AE046B01DB
:1012A0007C0180911D038093BB0080914403909149
:1012B0004503A0914603B0914703892B8A2B8B2BC2
:1012C000A1F00E94AE0400914403109145032091C7
:1012D0004603309147036C197D098E099F09061753
:1012E00017072807390708F442C08091BC0083FD26
:1012F000D8CF85EC8093BC000E94AE046B017C01CA
:1013000080914203823009F450C0809140038F3FA6
:1013100009F46FC080914003803209F46CC0809161
:101320004003803309F469C084E026C080914403FF
:1013300090914503A0914603B0914703892B8A2BD6
:101340008B2B09F484CF0E94AE04809044039090CC
:101350004503A0904603B09047036C197D098E09A0
:101360009F0986169706A806B90608F070CF8091E7
:1013700043030E94EE0885E01092490310926B032C
:1013800010924803DF91CF911F910F91FF90EF9042
:10139000DF90CF90BF90AF909F908F9008959D91D8
:1013A00091938F5F69CF85EEA5CF80914403909193
:1013B0004503A0914603B0914703892B8A2B8B2BC1
:1013C00009F49ECF0E94AE0400914403109145039E
:1013D00020914603309147036C197D098E099F09BE
:1013E000061717072807390708F08ACFC0CF81E012
:1013F000C3CF80E0C1CF82E0BFCF83E0BDCF0895EF
:10140000E091100380910F03E81730F4F0E0E5510C
:10141000FD4F808190E008958FEF9FEF08959091A8
:10142000100380910F032FEF3FEF981748F4E92F37
:10143000F0E0E551FD4F208130E09F5F9093100375
:10144000C9010895CF92DF92EF92FF920F931F93FD
:10145000CF93DF937C01CB018A01209148032223A3
:1014600089F0EB016B01C40ED51ECC15DD0569F0CA
:101470006991D701ED91FC910190F081E02DC701B8
:101480000995F3CF642F0E94A908C801DF91CF917D
:101490001F910F91FF90EF90DF90CF900895CF9321
:1014A000DF931F92CDB7DEB76983209148032223D3
:1014B000F9F020916B03203258F021E030E0FC017C
:1014C0003383228390E080E00F90DF91CF910895E5
:1014D00080914903E82FF0E0E65BFC4F998190830F
:1014E0008F5F8093490380936B0381E090E0ECCFA2
:1014F00061E0CE0101960E94A908F7CFE6E1F4E091
:10150000918162818081238131E03093480320936F
:101510006A031092490310926B0360956923682B4C
:1015200089E094E00E944F0A81E00C940F090F9328
:101530001F93CF93DF93EC01062F142F8E858131FB
:1015400020F4882331F0411104C081E00E940F098A
:101550001E868E85811112C08D8591E0909348037F
:1015600080936A031092490310926B0360E4111197
:1015700001C060E089E094E00E944F0A602F89E09A
:1015800094E00E944F0A123041F48E858F5F8E875F
:10159000DF91CF911F910F91089581E00E940F0973
:1015A0001E86F6CF90E080E00895FB0101900020B8
:1015B000E9F73197AF01461B570BDC01ED91FC9128
:1015C0000280F381E02D099460E471E00C94D50A67
:1015D000CF93DF93EC0162E070E080E090E00E9446
:1015E000D304BE0182E694E00E940F0582E694E0F7
:1015F0000E94E40ABE018CE693E00E940F058CE68F
:1016000093E0DF91CF910C94E40A0F931F93CF9353
:10161000DF93EC010E941F068C01CE010E94E40AB8
:10162000800F911FDF91CF911F910F9108950F931C
:101630001F93CF93DF93EC018B0162E070E080E0B9
:1016400090E00E94D30461E08EE00E9462048CE688
:1016500093E00E94E40A63E471E08CE693E00E9468
:10166000D50AB8018CE693E00E940F0566E471E0AC
:101670008CE693E00E94D50ABE018CE693E00E94BE
:101680000F0568E471E08CE693E00E94D50A8CE6D1
:1016900093E00E94E40A64E170E080E090E00E9440
:1016A000D30460E08EE0DF91CF911F910F910C94F5
:1016B0006204CF93DF93EC0188819981009711F048
:1016C0000E947816198218821D821C821B821A823F
:1016D000DF91CF910895FC0180819181009711F0F5
:1016E0000C94781608950F931F93CF93DF93EC011A
:1016F00088819981009759F02A813B812617370705
:1017000030F081E0DF91CF911F910F9108958B010F
:101710006F5F7F4F0E940117009759F0998388836C
:101720001B830A832C813D81232B59F7FC011082F6
:10173000E8CF80E0E7CFEF92FF920F931F93CF9314
:10174000DF93EC017B018A01BA010E94730B8111C6
:101750000BC0CE010E94590BCE01DF91CF911F919A
:101760000F91FF90EF9008951D830C83B70188813E
:1017700099810E94C717F0CFEF92FF920F931F93AA
:10178000CF93DF93CDB7DEB762970FB6F894DEBF85
:101790000FBECDBF8C01CB01F801118210821382E4
:1017A0001282158214824AE09E012F5F3F4F790119
:1017B000B9010E946A15F70101900020E9F73197FD
:1017C000AF014E195F09B701C8010E949B0B6296D9
:1017D0000FB6F894DEBF0FBECDBFDF91CF911F9142
:1017E0000F91FF90EF900895FC01118210821382F7
:1017F000128215821482FB0101900020E9F73197D3
:10180000AF01461B570B0C949B0B85ED8093BC00DE
:101810008091440390914503A0914603B091470302
:101820000796A11DB11D23E0B695A79597958795BD
:101830002A95D1F72091BC0024FD03C010924203E9
:10184000089540914403509145036091460370917F
:101850004703452B462B472B69F30097A105B1059C
:1018600041F025E32A95F1F700000197A109B1099C
:10187000E1CF809143030C94EE081F920F920FB6B4
:101880000F9211242F933F938F939F93AF93BF9306
:101890008091140390911503A0911603B091170342
:1018A0003091130323E0230F2D3758F50196A11D26
:1018B000B11D209313038093140390931503A093F9
:1018C0001603B09317038091180390911903A09108
:1018D0001A03B0911B030196A11DB11D809318033B
:1018E00090931903A0931A03B0931B03BF91AF9178
:1018F0009F918F913F912F910F900FBE0F901F904E
:10190000189526E8230F0296A11DB11DD2CF1F9274
:101910000F920FB60F9211242F933F934F935F9323
:101920006F937F938F939F93AF93BF93EF93FF93A7
:101930008CE693E00E94B005FF91EF91BF91AF91CB
:101940009F918F917F916F915F914F913F912F91D7
:101950000F900FBE0F901F9018951F920F920FB609
:101960000F9211242F938F939F93EF93FF93E09106
:101970007C03F0917D038081E0918203F0918303E9
:1019800082FD1BC09081809185038F5F8F732091B2
:101990008603821741F0E0918503F0E0E459FC4FA3
:1019A000958F80938503FF91EF919F918F912F9158
:1019B0000F900FBE0F901F9018958081F4CF1F924B
:1019C0000F920FB60F9211242F933F934F935F9373
:1019D0006F937F938F939F93AF93BF93EF93FF93F7
:1019E00082E00E949108FF91EF91BF91AF919F918A
:1019F0008F917F916F915F914F913F912F910F90B8
:101A00000FBE0F901F9018951F920F920FB60F9256
:101A100011242F933F934F935F936F937F938F93F3
:101A20009F93AF93BF93EF93FF9381E00E94910840
:101A3000FF91EF91BF91AF919F918F917F916F91A6
:101A40005F914F913F912F910F900FBE0F901F907C
:101A500018951F920F920FB60F9211242F933F9358
:101A60004F935F936F937F938F939F93AF93BF93A6
:101A7000EF93FF9380E00E949108FF91EF91BF9157
:101A8000AF919F918F917F916F915F914F913F9116
:101A90002F910F900FBE0F901F9018951F920F92CD
:101AA0000FB60F9211242F933F934F935F936F9331
:101AB0007F938F939F93AF93BF93EF93FF93809107
:101AC000B900887F803609F44AC0F0F5883209F4FD
:101AD000A7C018F5803109F49BC0B8F4882309F435
:101AE000F9C0883009F494C0FF91EF91BF91AF9194
:101AF0009F918F917F916F915F914F913F912F9126
:101B00000F900FBE0F901F901895883109F488C070
:101B1000803251F78093400314C0803409F49DC093
:101B200040F48033B9F38833F9F68093400385ECB1
:101B3000B0C0803509F485C0883509F496C0883472
:101B400099F60E94050CD0CF883909F48CC038F57D
:101B5000883729F050F4883611F0803729F683E071
:101B6000809342031092B70257C0883809F47BC0B3
:101B7000803919F0803809F0B7CF8091B7028032F0
:101B800008F071C0E091B70281E08E0F8093B70238
:101B90008091BB00F0E0E956FD4F80833DC0803B63
:101BA00039F0E0F4803A09F479C0883A09F09CCF22
:101BB00084E0809342031092960210929502E09185
:101BC0000B03F0910C0309958091950281110FC0D0
:101BD00081E0809395021092750209C0803C09F45F
:101BE000A6CF883C09F4A3CF883B09F07DCFE091D4
:101BF000960281E08E0F80939602F0E0EB58FD4F45
:101C000080818093BB00909196028091950229C0BB
:101C100080911D038093BB0085EC8093BC0064CF52
:101C200090913F0380913E03981758F5E0913F0350
:101C300081E08E0F80933F03F0E0E25EFC4F8081F5
:101C4000E9CFE0913F0381E08E0F80933F038091C5
:101C5000BB00F0E0E25EFC4F808390913F038091F7
:101C60003E039817C8F285E8D8CFE0913F0381E0A2
:101C70008E0F80933F038091BB00F0E0E25EFC4F4B
:101C800080838091410381115CCF81E080931C03AC
:101C900084EA8093BC001092420326CF85EC8093A7
:101CA000BC00109242038091B702803230F4E09180
:101CB000B702F0E0E956FD4F10826091B70270E084
:101CC000E0910D03F0910E0387E992E009951092DF
:101CD000B7020ACF1092400334CFEF92FF921F93C6
:101CE000CF93DF93ECE6F3E01382128288EE93E069
:101CF000A0E0B0E084839583A683B78322E131E03E
:101D00003183208325EC30E03587248724EC30E0D4
:101D10003787268720EC30E0318B208B21EC30E0B8
:101D2000338B228B22EC30E0358B248B26EC30E099
:101D3000378B268B118E128E138E148EE9E0F4E011
:101D40001382128284839583A683B78384E291E011
:101D5000918380836FE471E08DE794E00E94F40B3F
:101D600069E571E087E794E00E94F40B6FE571E0AC
:101D700081E794E00E94F40BE2E6F4E01382128221
:101D800081E081871486138626E331E03183208346
:101D9000ECE4F4E0808311821382128215821482B3
:101DA0002FEF3FEF378326831086128611868387B5
:101DB000148692E0958786871786108A118A128A80
:101DC00080E090E0A8E7B0E0809348049093490455
:101DD000A0934A04B0934B0485E3E82E84E0F82EE8
:101DE0001FEFF701108311838CE190E00E94DC1556
:101DF000EC0188E08B871E871D871C8785E194E0B6
:101E0000998388831B8E82E090E00E94DC1521E795
:101E1000FC01208311829B838A8380E492E4AFE0FB
:101E2000B0E08C839D83AE83BF83198618861A86A3
:101E3000F701D28BC18BE6E1F4E0108211821282AD
:101E400013821482158216821782108611861286DA
:101E50001386148615861686108A1786128A118AAA
:101E6000148A138A168A158A108E178A128E118E7A
:101E7000148E138E168E158EDF91CF911F91FF90C9
:101E8000EF900895CF93DF93CDB7DEB7E2970FB60B
:101E9000F894DEBF0FBECDBF789484B5826084BD58
:101EA00084B5816084BD85B5826085BD85B581605E
:101EB00085BD80916E00816080936E0010928100DC
:101EC0008091810082608093810080918100816097
:101ED0008093810080918000816080938000809158
:101EE000B10084608093B1008091B00081608093E4
:101EF000B00080917A00846080937A0080917A00AB
:101F0000826080937A0080917A00816080937A0069
:101F100080917A00806880937A001092C1001092BC
:101F2000100310920F031092490310926B030E944A
:101F3000D00885E095E090930C0380930B0386E036
:101F400095E090930E0380930D0388E48093B8008E
:101F5000E0917C03F0917D0382E08083E09178033F
:101F6000F09179031082E0917A03F0917B0380E194
:101F7000808310928403E0918003F091810386E0D6
:101F80008083E0917E03F0917F0380818061808374
:101F9000E0917E03F0917F03808188608083E091EF
:101FA0007E03F0917F03808180688083E0917E03CF
:101FB000F0917F0380818F7D808364E670E080E014
:101FC00090E00E94D304E1E5F8E02491EDE3F8E02D
:101FD0008491882399F090E0880F991FFC01E25EBC
:101FE000F94FA591B491FC01EB5DF74F8591949168
:101FF0008FB7F894EC91E22BEC938FBF67E076E01B
:102000008CE693E00E94050B60EF75E08CE693E0B0
:102010000E94050B69ED75E08CE693E00E94050BCC
:1020200064E170E080E090E00E94D3046FE671E02C
:102030008E010F5F1F4FC8010E94F40B63E771E030
:10204000CE0182960E94F40BB801CE0182960E94C6
:10205000170BCE0182960E946B0BC8010E946B0B7E
:102060006FE671E0C8010E94F40B61E871E0CE01F7
:1020700082960E94F40BB801CE0182960E94170B43
:10208000CE0182960E946B0BC8010E946B0B6FE61B
:1020900071E0C8010E94F40B6DE871E0CE018296F8
:1020A0000E94F40BB801CE0182960E94170BCE015C
:1020B00082960E946B0BC8010E946B0B6EEB75E061
:1020C0008CE693E00E941F0619A283E488A383E3B1
:1020D0008F8FBE01615E7F4F8CE693E00E94D50A30
:1020E0008CE693E00E94E40A6AE070E080E090E011
:1020F0000E94D304109270048CE380936F041092BA
:10210000660410926704E8EBF5E0A590B490EAEB62
:10211000F5E0D490EBEBF5E0E491E0936804ECEBB0
:10212000F5E0E491E0936904EDEBF5E0E491E093F0
:102130006A04F12CE12CED1460F4F501EE0DFF1DA5
:10214000649182E694E00E9473062FEFE21AF20A8D
:10215000F2CF10926C040E94E906809169048034E9
:1021600029F40E94E90681E080936C0484EA90E0FF
:1021700090936E0480936D040E94E90669E970E013
:102180008CE693E00E94050B6AE070E080E090E04E
:102190000E94D30488E296E090936E0480936D04CD
:1021A0006AE971E0C8010E94F40BC8010E94E80AC4
:1021B000C8010E946B0B88E199E20FB6F894A895CC
:1021C000809360000FBE90936000A8958CE693E02A
:1021D0000E94E40A67EA71E0C8010E94F40BC8019A
:1021E0000E94E80AC8010E946B0B6AE070E080E080
:1021F00090E00E94D30462E471E0CE0188960E94D0
:10220000F40B28E0C22ED12CEE24E394FC2CE092B7
:102210004803C0926A031092490310926B0381E055
:102220000E940F098111A4C067EB71E0C8010E94F0
:10223000F40BC8010E941D05C8010E946B0B6FEBD7
:1022400071E0C8010E94F40BC8010E941D05C8017D
:102250000E946B0B1BA21AA21DA21CA21FA21EA2EF
:102260004AE0B801C6010E947515F80101900020EE
:10227000E9F73197AF01401B510BB801CE018296AF
:102280000E949B0B88A599A5009709F44FC06AA1ED
:102290007BA16115710509F447C04AA55BA52EA174
:1022A0003FA14217530708F43FC00E94C7178EA1F1
:1022B0009FA19DA78CA71FA21EA2CE0182960E945D
:1022C0006B0B1A8219821C821B821E821D8268A5DA
:1022D00079A56115710529F04CA55DA5C8010E947D
:1022E0009B0BC8010E941D05C8010E946B0B64EC8A
:1022F00071E0C8010E94F40BC8010E94E80AC801FD
:102300000E946B0BE8ECEF0DE83008F032C1F0E012
:10231000E457FE4E0C94D615A711AD12AD12AD12B6
:10232000B012B312B912B6120E9478168AA19BA1FC
:1023300099A788A78CA19DA19BA78AA78EA19FA1E1
:102340009DA78CA71BA21AA21DA21CA2B4CF68EC49
:1023500071E0C8010E94F40BC8010E94E80AC8019C
:102360000E946B0B61E070E080E090E00E94D3047B
:102370008FEFC81AD80AA8E7CA16D10409F046CFC9
:1023800066E072E0C8010E94F40BC8010E94E80AEE
:10239000C8010E946B0B6AE070E080E090E00E9450
:1023A000D304CE0188960E946B0BA8956FE370E072
:1023B000CE0182960E94BC0B68E172E0C8010E94C7
:1023C000F40BEEA0FFA0CAA0DBA0C114D10409F455
:1023D000D3C0E114F104B1F08D819E81E80EF91EA5
:1023E000B701C8010E94730B882309F4C5C0298175
:1023F0003A818D819E81B601820F931F0E94C7177B
:10240000FE82ED8219A618A61BA61AA61DA61CA65A
:1024100069817A816115710531F04D815E81CE014E
:1024200088960E949B0BCE0188960E94E80ACE01F6
:1024300088960E946B0BC8010E946B0BCE0182969E
:102440000E946B0B8FE3809319041092100310927B
:102450000F031092490310926B030E94D00885E08D
:1024600095E090930C0380930B0386E095E09093A6
:102470000E0380930D038091170480931A04F0904B
:1024800019040E94AE044B015C018091420381114A
:1024900077C081E080934203809341039FEF909344
:1024A000400310923F0310923E0380931D038091DE
:1024B0001D03FF0CF82AF0921D0380911C0381304C
:1024C00009F08BC010921C030E94AE046B017C01CA
:1024D00080911D038093BB0080914403909145033C
:1024E000A0914603B0914703892B8A2B8B2BA1F037
:1024F0000E94AE048090440390904503A090460350
:10250000B09047036C197D098E099F0986169706BE
:10251000A806B90608F455C08091BC0083FDD8CF49
:1025200085EC8093BC000E94AE046B017C0180911D
:102530004203813009F453C080913F03811171C07F
:1025400080913F03EEE1F3E0ABEEB2E090E098174C
:10255000E9F121912D939F5FFACF69ED71E0F9CEFA
:1025600063EE71E0F6CE63EF71E0F3CE68EF71E0F9
:10257000F0CE6EEF71E0EDCEC8010E94590B42CF54
:102580008091440390914503A0914603B091470385
:10259000892B8A2B8B2B09F478CF0E94AE044090B4
:1025A00044035090450360904603709047036819B8
:1025B00079098A099B09461657066806790608F0C4
:1025C00064CF809143030E94EE0880E010921003D4
:1025D00080930F03811127C0FFCF85EEA2CF80919A
:1025E000440390914503A0914603B0914703892B82
:1025F0008A2B8B2B09F49BCF0E94AE04809044035E
:1026000090904503A0904603B09047036C197D0954
:102610008E099F0986169706A806B90608F087CF87
:10262000D0CF81E08FCF89E094E00E940F0A8093A1
:10263000170420911804EE24E394F12CC7010090B4
:10264000110302C0880F991F0A94E2F7922F982B6A
:102650009093180490911604809589238093160412
:102660000E947E0A80911103909112032091000133
:1026700099279091160401C0EE0C8A95EAF7211172
:102680006CC1E094E922E09216040E947E0A66E2A0
:1026900072E0C8010E94F40BC8010E941D05C80128
:1026A0000E946B0B6091110370911203C8010E948C
:1026B000BC0BC8010E941D05C8010E946B0B6EE295
:1026C00072E0C8010E94F40BC8010E941D05C801F8
:1026D0000E946B0B6091000170910101C8010E9482
:1026E000BC0BC8010E941D05C8010E946B0B1A8219
:1026F00019821C821B821E821D8266E170E0C80165
:102700000E94730B81112BC1C8010E94590BC80193
:102710000E94E80AC8010E946B0BA895A8958CE658
:1027200093E00E94E40A62E070E080E090E00E94A2
:10273000D3046FE671E0CE0182960E94F40B68E349
:1027400072E0C8010E94F40BBE016E5D7F4FC801AC
:102750000E94170BC8010E946B0BCE0182960E944B
:102760006B0B8CE693E00E94E40A63E472E0C8011C
:102770000E94F40BC8010E94E80AC8010E946B0B7A
:1027800061E572E0C8010E94F40BC8010E94E80AEA
:10279000C8010E946B0B809116048E7F80931604F3
:1027A0000E947E0AB09048048B2D90914904A0911C
:1027B0004A04B0914B04AA2E992EEB2EFF24002739
:1027C00011273E2C0CE414E088E0882ED12CC12C7B
:1027D000F80182819381C816D90608F01BC13B2DF0
:1027E0002085492D5A2D222361F0A29EC00111247B
:1027F000592F299DC0011124492F2B9DC00111245F
:10280000392FD8011E96EC911E9719968D919C91A7
:102810001A971B966C91E613ADC0B601660F771F31
:102820006C0D7D1D860F971FD8011B96EC911B9791
:10283000E80FF92FF11D50831C96EC911C97E80FBF
:10284000F92FF11D40831D962C911D97820F911D2C
:10285000FC01308319968D919C91892B09F479C0E4
:10286000D8011F964D905D906D907C9052970E947C
:10287000AE04641575058605970538F40E94AE040C
:10288000F8016787708B818B928B0E94AE04D80110
:102890001F964D905D906D907C90529764197509CC
:1028A000860997096C32714081059105C8F2F89448
:1028B000F801848195819A8389830184F285E02DD2
:1028C0003F012FEF621A720A80818AABD8019C9176
:1028D0005396ED91FC91549755968C91992309F458
:1028E0005FC09081982B99AB90818095892388ABAC
:1028F00088A988A78AA259A968A94AA93AA128A59E
:1029000089819A81D301508347FD252F3A952083F1
:10291000262F39F0441F00C000006083000000C073
:10292000F2CF38E04D9160830000019761F7D80144
:102930005496FC93EE9353974AAB3AA328A79A83F5
:10294000898378940E94AE04F8016787708B818B2D
:10295000928BFFEFCF1ADF0A3BCFE92A94CE86E1B4
:1029600090E09E838D836EE078E089819A810E9459
:102970006315CDCEB601660F771F660F771F860FE2
:10298000971F222359F02E9DB0012F9D700D112409
:10299000272FE80FF92FF11D208346CF232DF9CFE4
:1029A0009081982B99AB90818095892388AB88A9D9
:1029B0008FA78EA659A968A94AA93EA52FA58981E6
:1029C0009A81D301508347FD252F00C000C020838A
:1029D00000C000C000C000C000C060830000262FFF
:1029E0003A9541F0441F000000C000C000C000C084
:1029F00000C0E8CF38E04D9100C0608300C001976F
:102A000009F7D8015496FC93EE9353974AAB3EA72F
:102A10002FA795CF6AE070E080E090E00E94D30499
:102A20000A5E1F4F24E00837120709F0CFCE00E0FE
:102A300010E0A89501151105E1F30E949C0588237B
:102A4000C1F30E940000F5CFCF93DF93809155042E
:102A5000909156040E9478168091520490915304EC
:102A600097FD23C09927FC01ED5BF74F2491815D11
:102A7000974FFC0184918823C1F090E0880F991F43
:102A8000FC01E25EF94FC591D491FC01EB5DF74F7B
:102A9000A591B4919FB7F8948881E22FE0958E2399
:102AA00088838C91E823EC939FBF81E794E00E9498
:102AB0006B0B87E794E00E946B0B8DE794E0DF914E
:102AC000CF910C946B0BFB01DC0105900D92002063
:102AD000E1F70895BB274A3031F4992322F4BDE28F
:102AE000909581959F4F0C947615BB27FB01552738
:102AF000AA27880F991FAA1FA41710F0A41B83955B
:102B00005051B9F7A05DAA3308F0A95DA1930097D1
:102B100079F7B111B1931192CB010C948F15DC01AF
:102B2000FC01672F71917723E1F7329704C07C9104
:102B30006D9370836291AE17BF07C8F308952F920B
:102B40003F924F925F926F927F928F929F92AF923D
:102B5000BF92CF92DF92EF92FF920F931F93CF938A
:102B6000DF93CDB7DEB7CA1BDB0B0FB6F894DEBF21
:102B70000FBECDBF09942A88398848885F846E8447
:102B80007D848C849B84AA84B984C884DF80EE8091
:102B9000FD800C811B81AA81B981CE0FD11D0FB69A
:102BA000F894DEBF0FBECDBFED010895EE0FFF1FFD
:102BB0000590F491E02D09940F931F93CF93DF9329
:102BC0008230910510F482E090E0E0918504F0916C
:102BD000860430E020E0B0E0A0E0309799F42115C1
:102BE000310509F44AC0281B390B24303105D8F5CA
:102BF0008A819B816115710589F1FB019383828331
:102C0000FE0111C04081518102811381481759078B
:102C1000E0F04817590799F4109761F012960C9359
:102C2000129713961C933296CF01DF91CF911F918B
:102C30000F9108950093850410938604F4CF211515
:102C4000310551F04217530738F0A901DB019A0111
:102C5000BD01DF01F801C1CFEF01F9CF90938604E8
:102C600080938504CDCFFE01E20FF31F81939193F2
:102C70002250310939832883D7CF209183043091A2
:102C80008404232B41F420910401309105013093F9
:102C900084042093830420910201309103012115C3
:102CA000310541F42DB73EB740910601509107011F
:102CB000241B350BE0918304F0918404E217F307A1
:102CC000A0F42E1B3F0B2817390778F0AC014E5F9C
:102CD0005F4F2417350748F04E0F5F1F5093840451
:102CE00040938304819391939FCFF0E0E0E09CCFE9
:102CF000CF93DF930097E9F0FC01329713821282A1
:102D0000A0918504B0918604ED0130E020E0109799
:102D1000A1F420813181820F931F2091830430918F
:102D200084042817390709F061C0F0938404E09304
:102D30008304DF91CF910895EA01CE17DF07E8F50C
:102D40004A815B819E0141155105B1F7E901FB8381
:102D5000EA8349915991C40FD51FEC17FD0761F41F
:102D6000808191810296840F951FE9019983888360
:102D7000828193819B838A83F0E0E0E012968D91BB
:102D80009C9113970097B9F52D913C911197CD0126
:102D90000296820F931F2091830430918404281798
:102DA000390739F6309751F5109286041092850450
:102DB000B0938404A0938304BCCFD383C2834081A7
:102DC0005181840F951FC817D90761F44E5F5F4F7B
:102DD00088819981480F591F518340838A819B8143
:102DE000938382832115310509F0B0CFF0938604D7
:102DF000E09385049ECFFD01DC01C0CF13821282D7
:102E0000D7CFB0E0A0E0E7E0F7E10C94A1158C018A
:102E1000009751F4CB010E94DC158C01C801CDB79D
:102E2000DEB7E0E10C94BD15FC01E60FF71F9C0135
:102E300022503109E217F30708F49DC0D901CD9162
:102E4000DC911197C617D70798F0C530D10530F33C
:102E5000CE0104978617970708F3C61BD70B229756
:102E6000C193D1936D937C93CF010E947816D6CFF6
:102E70005B01AC1ABD0A4C018C0E9D1EA09185040D
:102E8000B0918604512C412CF12CE12C109731F596
:102E900080918304909184048815990509F05CC0A1
:102EA0004616570608F058C0809102019091030120
:102EB000009741F48DB79EB74091060150910701EC
:102EC000841B950BE817F90708F055C0F0938404AC
:102ED000E0938304F90171836083A0CF8D919C916D
:102EE000119712966C90129713967C901397A815D1
:102EF000B90559F56C0142E0C40ED11CCA14DB04BB
:102F000020F1AC014A195B09DA011296159780F09D
:102F10006282738251834083D9016D937C93E11463
:102F2000F10471F0D7011396FC93EE93129776CFCC
:102F300022968C0F9D1FF90191838083F301EFCFBF
:102F4000F0938604E093850469CF4816590608F487
:102F50002C017D01D3019ACFCB010E94DC157C01AD
:102F6000009749F0AE01B8010E94BE17C8010E9447
:102F70007816870153CF10E000E050CFFB01DC0151
:102F800002C001900D9241505040D8F70895FB01C6
:102F9000DC0101900D920020E1F7089514E0C7E3F1
:102FA000D4E004C0FE010E94D6152196C833D10793
:062FB000C9F7F894FFCF01
:102FB60001000000870480006B006C006D000000BB
:102FC6000000D20532055F053E0690056E058205B6
:102FD600000000004F0A220AD20AFF0907050F0A5D
:102FE600000A0000000007073205D20A0E05970AFC
:102FF6000D0A002142722C002C446F6E652E00369D
:103006002E30342E3230323200312E342E320045FC
:103016004E545F53545F425245414B4F55540053F3
:10302600595300216865616465725F626567696E00
:1030360000216865616465725F656E640021736571
:103046007475705F626567696E0057445420656EDB
:103056006461626C6564002020204932432053631A
:10306600616E6E65723A00466F756E643A20002096
:1030760028307800292020004B657970616420286B
:1030860064656661756C7429004B65797061642F9F
:10309600494F004F6C656420202864656661756C35
:1030A6007429004F6C65640052656C617900556E39
:1030B6006B6E6F776E00493243207363616E2063D7
:1030C6006F6D706C6574650072656C6179696E69A7
:1030D60074206F6E200052656C6179205B005D2064
:1030E60073657420746F20002173657475705F6555
:1030F6006E64000A3D3D3D53544152543D3D3D0AE8
:103106000047616D65206C6976650A206B696C6C99
:10311600696E67206C69676874730A206C6F636BED
:04312600696E670067
:00000001FF
