:100000000C9485040C94AD040C94AD040C94531220
:100010000C942E120C9409120C94AD040C94AD04A3
:100020000C94AD040C94AD040C94AD040C94AD048C
:100030000C94AD040C94AD040C94AD040C94AD047C
:100040000C9497130C94AD040C9407140C94E113C6
:100050000C94AD040C94AD040C94AD040C94AD045C
:100060000C9478120C94AD046364696E6F707375B0
:1000700078585B00AEB08180A1A6A83FAD8B32C896
:10008000D300D580D91FDA12DB40AF00030C0F304C
:10009000333C3FC0C3CCCFF0F3FCFF5375636365C3
:1000A000737366756C001C620A0C206002020508FE
:1000B000070D0802040405070204020607060707E5
:1000C0000707070707070202070707050A070707C9
:1000D00008060608080406070709080907090807AB
:1000E0000808070C070806040604080903060606A4
:1000F0000606050606020407020A060606060505A8
:100100000506060A060605060206080900000000A4
:100110007E7E303007070007070000000000C0D8CF
:10012000F8DED8F8DE180030000030000000387C1F
:1001300064FF64E4C8102020F02030103C7E427E32
:100140003CC02018E6F010F0E00000000030000095
:10015000001030203010DCFE227EDC806020103069
:1001600020202010302007070000F8FE0701107043
:10017000E0800107FEF880E07010120C3F0C1200C6
:1001800000000000202020FC2020200000001000A3
:1001900000000000F070202020200000000000007F
:1001A00030300080E07C1F03C0F030000000FCFE17
:1001B000020202FEFC103020202030100404FEFE5B
:1001C0000000202030302020040682C2623E1C2025
:1001D0003030202020200406222222FEDC10302095
:1001E00020203010C0A09884FEFE80000000003067
:1001F0003000001E1E1212F2E210302020203010BB
:10020000F8FC161212F2E01030202020301002020A
:1002100082E27A1E0600203010000000DCFE22225E
:1002200022FEDC103020202030103C7E424242FE74
:10023000FC00202020301000181830301818F07002
:10024000606090900808040000000010102090905A
:10025000909090909000000000000000040808902A
:10026000906060201010000000000462721E0C00FC
:1002700030300000F00CF4FA0AFAFA040CF0003006
:10028000205050505010100080F8FE86FEF880304C
:10029000300000003030FEFE22223EFCC030302014
:1002A00020203010F8FC060202020400103020204A
:1002B0002010FEFE02020206FCF830302020203022
:1002C0001000FEFE22222222303020202020FEFEBE
:1002D00022222222303000000000F8FC06024242B6
:1002E000C2C40010302020203030FEFE202020200C
:1002F000FEFE303000000000303002FEFE022030F2
:10030000302000020202FEFE202020203010FEFEDF
:1003100070D88C060230300000103020FEFE000045
:1003200000000030302020202020FE0E3CF0C030A5
:100330000CFEFE300000000000003030FE061C38CD
:10034000E0C000FE3000000000103030F8FC060273
:10035000020206FCF8001030202020301000FEFEC3
:100360004242427E3C30300000000000F8FC0602B1
:10037000020206FCF80010302060E0B09080FEFE23
:100380002262E2BE1C0030300000001030201C3E13
:10039000322262E2C410202020203010020202FE2D
:1003A000FE0202020000003030000000FEFE0000ED
:1003B0000000FEFE10302020202030100E7EF08045
:1003C000F07E0E000030303000000E7EF080E03E07
:1003D0003EE080F07E0E0000303000000000303043
:1003E0000000068EF870F88E0630300000003030C5
:1003F000060E18F0F0180E06000000303000000065
:1004000002C2F23E0E02303020202020FFFF010108
:10041000F0F08080031F7CE0800000000030F0C01E
:100420000101FFFF8080F0F010180C06060C181078
:1004300000000000000000000000000000000000BC
:100440000080808080808080808001030200000026
:10045000C0E82828F8F0103020203030FFFF0808CE
:10046000F8F0303020203010F0F808080810103074
:1004700020202010F0F80808FFFF10302020303036
:10048000F0F84848787010302020201008FEFF094E
:10049000090030300000F0F80808F8F810B0A0A00B
:1004A000F070FFFF0808F8F0303000003030FBFB40
:1004B00030300008FBFB8080F070FFFF60F0980890
:1004C0000030300000103020FFFF3030F8F8100806
:1004D000F8F01008F8F03030000030300000303014
:1004E000F8F80808F8F0303000003030F0F808086C
:1004F000F8F0103020203010F8F80808F8F0F0F08C
:1005000020203010F0F80808F8F810302020F0F023
:10051000F8F81018183030000000307848C88820EB
:100520002020301008FEFE08080010302020F8F8C7
:100530000000F8F810302020303038F8C0C0F8380B
:1005400000103030100078F880C03838C080F8785B
:100550000030300000000030300018B8E0E0B8187B
:1005600030300000303038F8C0C0F8380090F070FB
:10057000100008C8E8781830302020202020FEDF46
:100580000101000070F08080FFFFF0F00101DFFE4C
:1005900020208080F0700000E010102040808070EB
:1005A0000000000000000000FE020202020202023F
:1005B000FE302020202020202030740017804002B0
:1005C0000A0A4F4C454420696E6974206F6E2041C1
:1005D0006464726573733A203078002B2D2D2D2DB5
:1005E0002D2D2D2D2D2D2D2D2D2D2D2D2D2D2D2D3B
:1005F0002B007C20202020456C656374726F736330
:10060000617065202020207C002B2D2D2D2D2D2D7F
:100610002D2D2D2D2D2D2D2D2D2D2D2D2D2D2B0039
:10062000000005072060000000000000005F0000DF
:100630000007000700147F147F14242A7F2A122346
:100640001308646236495620500008070300001C56
:100650002241000041221C002A1C7F1C2A08083E5F
:100660000808008070300008080808080000606072
:100670000020100804023E5149453E00427F4000E0
:1006800072494949462141494D331814127F1027B8
:10069000454545393C4A4949314121110907364907
:1006A000494936464949291E0000140000004034DB
:1006B00000000008142241141414141400412214E0
:1006C0000802015909063E415D594E7C1211127C07
:1006D0007F494949363E414141227F4141413E7F68
:1006E000494949417F090909013E414151737F0848
:1006F00008087F00417F41002040413F017F0814EE
:1007000022417F404040407F021C027F7F0408104E
:100710007F3E4141413E7F090909063E4151215E2C
:100720007F09192946264949493203017F01033FC0
:100730004040403F1F2040201F3F4038403F63144F
:1007400008146303047804036159494D43007F4151
:1007500041410204081020004141417F040201028E
:1007600004404040404000030708002054547840B3
:100770007F284444383844444428384444287F3847
:100780005454541800087E090218A4A49C787F08C9
:1007900004047800447D40002040403D007F102844
:1007A000440000417F40007C047804787C08040405
:1007B000783844444438FC1824241818242418FC9D
:1007C0007C08040408485454542404043F44243C42
:1007D0004040207C1C2040201C3C4030403C4428B1
:1007E0001028444C9090907C4464544C440008364B
:1007F00041000000770000004136080002010204B9
:10080000023C2623263C52657374617274696E67DC
:1008100020696E000A5246494420696E6974202E90
:100820002E2E205375636365737366756C200A0002
:100830004669726D77617265207665722E2000467A
:100840006F756E64206368697020504E3500504E9D
:1008500035333220737461727475702074696D65FC
:1008600064206F7574004469646E27742066696E35
:100870006420504E35337820626F6172640A000A3A
:100880005246494420696E6974202E2E2E200A009B
:10089000207375636365737366756C000A0A4C4553
:1008A0004420696E6974202E2E2E00000000002462
:1008B0000027002A0000000000250028002B00046B
:1008C00004040404040404020202020202030303F7
:1008D00003030301020408102040800102040810F1
:1008E000200102040810200000000800020100009E
:1008F00003040700000000000000000000000023C7
:100900000026002900003914581D11241FBECFEF06
:10091000D8E0DEBFCDBF26E0A8E2B3E001C01D9263
:10092000A939B207E1F713E0A0E0B1E0ECE0FCE4A4
:1009300002C005900D92A832B107D9F714E0C4E8BF
:10094000D4E004C02197FE010E942A1EC338D107BB
:10095000C9F70E94AC150C94F9250C9400008FB7D0
:10096000F8948091DF038FBF08958CBD9DBD0895DD
:1009700090E0FC01EE0FFF1FE150F74FA591B491FD
:100980002C91FC01E452FC4F30812083880F991F89
:10099000FC01E85AFE4F0190F081E02D808108951E
:1009A00020918703260F3327331F21323105ECF4C2
:1009B00020914604FC0190E080E0243069F082E060
:1009C0000895A09187032191AC014B595C4FA40F6E
:1009D000B52FB11D2C930196861798F3809187034C
:1009E000680F6093870380E0089581E0089508957B
:1009F00008950895E091630380916203E81730F44D
:100A0000F0E0EE5BFC4F808190E008958FEF9FEF68
:100A1000089590916303809162032FEF3FEF981741
:100A200048F4E92FF0E0EE5BFC4F208130E09F5F5F
:100A300090936303C90108958091620390916303C9
:100A4000891B990B0895CF92DF92EF92FF920F933B
:100A50001F93CF93DF937C01CB018A0120914C043B
:100A6000222389F0EB016B01C40ED51ECC15DD05E8
:100A700069F06991D701ED91FC910190F081E02D31
:100A8000C7010995F3CF642F0E94D004C801DF91FC
:100A9000CF911F910F91FF90EF90DF90CF9008952D
:100AA000CF93DF931F92CDB7DEB7698320914C04BB
:100AB0002223F9F020916F04203258F021E030E039
:100AC000FC013383228390E080E00F90DF91CF918F
:100AD000089580914D04E82FF0E0E25BFB4F99818F
:100AE00090838F5F80934D0480936F0481E090E04A
:100AF000ECCF61E0CE0101960E94D004F7CF8330A5
:100B000081F028F4813099F08230A9F0089587307F
:100B1000A9F08830C9F08430B1F4809180008F7DD5
:100B200003C0809180008F7780938000089584B502
:100B30008F7784BD089584B58F7DFBCF8091B00001
:100B40008F778093B00008958091B0008F7DF9CFAA
:100B50001F93CF93DF93282F30E0F901E951F74F2E
:100B60008491F901ED52F74FD491F901E154F74F17
:100B7000C491CC23A9F0162F81110E947F05EC2F80
:100B8000F0E0EE0FFF1FEB54F74FA591B4918FB734
:100B9000F894EC91111108C0D095DE23DC938FBF3F
:100BA000DF91CF911F910895DE2BF8CF109246046C
:100BB00081E0809345041092200461E082E10E946C
:100BC000A80561E083E10E94A805E9EBF0E08081DF
:100BD0008E7F808380818D7F808388E48093B800BE
:100BE00085E48093BC000895CF93DF9391E09093C8
:100BF00064038823B9F0C091B800D091BA00809105
:100C0000BC008A7B8093BC0060E082E10E94A80562
:100C100060E083E10E94A8050E94D605D093BA0047
:100C2000C093B800DF91CF910895CF93DF9390E008
:100C3000FC01ED52F74F24918154974FFC018491B0
:100C40008823D1F090E0880F991FFC01E555F74FFC
:100C5000A591B491FC01EB54F74FC591D49161116A
:100C60000EC09FB7F8948C91E22FE0958E238C9361
:100C70002881E223E8839FBFDF91CF9108958FB74A
:100C8000F894EC91E22BEC938FBFF6CF8230910574
:100C900038F0880F991F880F991F05970197F1F772
:100CA0000895AF92BF92CF92DF92EF92FF920F938F
:100CB0001F93CF93DF93EC0188819981892B89F071
:100CC0006EBD0DB407FEFDCFBEB48B2DDF91CF916D
:100CD0001F910F91FF90EF90DF90CF90BF90AF905A
:100CE00008958885998511E0892B09F010E8AA24D8
:100CF000A394862F812309F0A12C062F2C813D81FE
:100D00004E815F8160E271EA87E090E00E94081EF8
:100D1000F22EB02EE12CC22ED12CFF2019F0C601EC
:100D20000E9446068A85877F09F042C08D858F3FE5
:100D300089F0902F912381E009F480E08A1551F029
:100D4000EF85F8898F89992369F19081892B8083B8
:100D5000AA24A394E989FA898081998D892B8083BB
:100D6000FF2019F0C6010E9446068E858F3F39F09C
:100D7000EB89FC898081988D892309F0E12AE98932
:100D8000FA899081898D8095892380838E858F3F14
:100D900009F0BE2C88859985892BB9F5110F1111A1
:100DA000BCCF93CF9081809589238083A12CD2CF13
:100DB000E989FA898081998D892B8083FF2019F038
:100DC000C6010E9446068D858F3F49F0EF85F88960
:100DD0008F89902F9123A9F09081892B8083E989B5
:100DE000FA899081898D8095892380838E858F3FB4
:100DF00069F2EB89FC898081988D892339F2E12A97
:100E0000C5CF908180958923E9CF1695C8CFCF9221
:100E1000DF92EF92FF920F931F93CF93DF93EC013A
:100E20008B016A01790188819981892B31F0EA81EE
:100E3000FB81808191810E94B50460E08B850E94D6
:100E4000A805F8016081CE010E9451068601EC0CD4
:100E5000FD1CE016F10641F06FEFCE010E94510635
:100E6000F80181938F01F5CF61E08B850E94A80581
:100E700081E0DF91CF911F910F91FF90EF90DF9074
:100E8000CF9008953FB7F89480913E0390913F032F
:100E9000A0914003B091410326B5A89B05C02F3F08
:100EA00019F00196A11DB11D3FBFBA2FA92F982F90
:100EB0008827BC01CD01620F711D811D911D42E08B
:100EC000660F771F881F991F4A95D1F708958F9253
:100ED0009F92AF92BF92CF92DF92EF92FF920F93C9
:100EE0001F93CF93DF93D0916F04D13208F0D7C016
:100EF000182FC0916E040E9442076B017C01809103
:100F0000460481116BC082E080934604109345042F
:100F10008FEF8093440410924304D0934204AEE4D4
:100F2000B4E0E2E2F4E080E0D81391C01092210432
:100F300080912104CC0FC82BC09321048091200400
:100F4000813009F088C0109220040E9442076B0192
:100F50007C01809121048093BB0080914804909192
:100F60004904A0914A04B0914B04892B8A2B8B2B06
:100F7000A1F00E9442070091480410914904209179
:100F80004A0430914B046C197D098E099F0906179C
:100F900017072807390708F442C08091BC0083FD79
:100FA000D8CF85EC8093BC000E9442076B017C0186
:100FB00080914604823009F450C0809144048F3FF0
:100FC00009F46FC080914404803209F46CC08091B0
:100FD0004404803309F469C084E026C08091480449
:100FE00090914904A0914A04B0914B04892B8A2B1B
:100FF0008B2B09F484CF0E94420780904804909084
:101000004904A0904A04B0904B046C197D098E09E4
:101010009F0986169706A806B90608F070CF80913A
:1010200047040E94F40585E010924D0410926F046D
:1010300010924C04DF91CF911F910F91FF90EF9090
:10104000DF90CF90BF90AF909F908F9008959D912B
:1010500091938F5F69CF85EEA5CF809148049091E1
:101060004904A0914A04B0914B04892B8A2B8B2B05
:1010700009F49ECF0E944207009148041091490450
:1010800020914A0430914B046C197D098E099F0907
:10109000061717072807390708F08ACFC0CF81E065
:1010A000C3CF80E0C1CF82E0BFCF83E0BDCF8F92BE
:1010B0009F92AF92BF92CF92DF92EF92FF924B013D
:1010C0005C010E9442076B017C010E9442076C197F
:1010D0007D098E099F09683E734081059105A8F33B
:1010E00021E0821A9108A108B10888EEC80E83E0B9
:1010F000D81EE11CF11C81149104A104B10429F74C
:10110000FF90EF90DF90CF90BF90AF909F908F9027
:1011100008952FB7F89460913A0370913B03809142
:101120003C0390913D032FBF08950895DB01149671
:101130004D915C9115976D917C91DC01ED91FC9145
:101140000280F381E02D0994AF92BF92CF92DF929B
:10115000EF92FF920F931F93CF93DF936C017B016C
:101160008B01040F151FEB015E01AE18BF08C017FD
:10117000D10759F06991D601ED91FC910190F08170
:10118000E02DC6010995892B79F7C501DF91CF9133
:101190001F910F91FF90EF90DF90CF90BF90AF9095
:1011A0000895FC01538D448D252F30E0842F90E06D
:1011B000821B930B541710F0CF9608950197089552
:1011C000FC01918D828D981761F0A28DAE0FBF2F1B
:1011D000B11D5D968C91928D9F5F9F73928F90E071
:1011E00008958FEF9FEF0895FC01918D828D9817E0
:1011F00031F0828DE80FF11D858D90E008958FEF1D
:101200009FEF0895FC01918D228D892F90E0805CE5
:101210009F4F821B91098F73992708958CE794E063
:101220000E94020921E0892B09F420E0822F089511
:1012300080E090E0892B29F00E940E0981110C9426
:1012400000000895FC01A48DA80FB92FB11DA35A69
:10125000BF4F2C91848D90E001968F739927848FD6
:10126000A689B7892C93A089B1898C9183708064F9
:101270008C93938D848D981306C00288F389E02D9A
:1012800080818F7D80830895EF92FF920F931F934B
:10129000CF93DF93EC0181E0888F9B8D8C8D981329
:1012A0001AC0E889F989808185FF15C09FB7F89435
:1012B000EE89FF896083E889F98980818370806481
:1012C00080839FBF81E090E0DF91CF911F910F91CC
:1012D000FF90EF900895F62E0B8D10E00F5F1F4FDB
:1012E0000F731127E02E8C8D8E110CC00FB607FCEA
:1012F000FACFE889F989808185FFF5CFCE010E9478
:101300002209F1CFEB8DEC0FFD2FF11DE35AFF4FBA
:10131000F0829FB7F8940B8FEA89FB898081806205
:10132000CFCFEF92FF920F931F93CF93DF938C0158
:101330007B01D0E0C0E0F701EC0FFD1F6491662354
:1013400039F0C8010E944409892B11F02196F3CF8E
:10135000CE01DF91CF911F910F91FF90EF900895F3
:10136000CF93DF93EC01888D8823B9F0AA89BB89DC
:10137000E889F9898C9185FD03C0808186FD0DC0C7
:101380000FB607FCF7CF8C9185FFF2CF808185FFE8
:10139000EDCFCE010E942209E9CFDF91CF910895D0
:1013A000CF93DF93EC01BC0188E096E00E949608A1
:1013B000BE018CE794E00E9496088CE794E0DF91F0
:1013C000CF910C94B0098F929F92AF92BF92CF921F
:1013D000DF92EF92FF920F931F93CF93DF9300D092
:1013E000CDB7DEB77C016B0110E000E0AA24A39426
:1013F00092E0992EF701818992890097E9F09A820B
:1014000021E030E0AE014F5F5F4FBE016E5F7F4F66
:101410000E94070781E09981913009F430C080E093
:10142000065F1F4FC016D10650F16AE070E080E001
:1014300090E00E945708DECF208130E0F901E951A9
:10144000F74F8491F901ED52F74FB490F901E1544F
:10145000F74F8490882079F081110E947F05E82D54
:10146000F0E0EE0FFF1FE550F74FA591B491EC911E
:10147000BE2281E009F480E08A25817089F20F9014
:101480000F90DF91CF911F910F91FF90EF90DF9020
:10149000CF90BF90AF909F908F900895682F80E776
:1014A00094E00C9450054F925F926F927F928F92CE
:1014B0009F92AF92BF92CF92DF92EF92FF920F93E3
:1014C0001F93CF93DF93CDB7DEB729970FB6F8946C
:1014D000DEBF0FBECDBF8C01B42E842F952FDB0154
:1014E000AD0166277727842EA92E7A01D12CC12C35
:1014F000A8E09A2ED80112968D919C911397C81648
:10150000D90608F003C13B2D18968C912A2D682D21
:10151000882371F08E9D90018F9D300D1124632FD3
:101520008A9D90011124232F8B9DC0011124392FF6
:10153000D8011E96EC911E9719968D919C911A9741
:101540001B964C91E4139CC0A601440F551F4C0DF3
:101550005D1D840F951FD8011B96EC911B97E80F1A
:10156000F92FF11D60831C96EC911C97E80FF92F61
:10157000F11D20831D962C911D97820F911DFC015A
:10158000308319968D919C91892B09F475C00E9426
:101590004207D8011F964D905D906D907C905297B8
:1015A000641575058605970528F4F8016787708B23
:1015B000818B928BD8011F964D905D906D907C90A1
:1015C000529764197509860997096C327140810533
:1015D0009105E8F2F894F801848195819A838983D2
:1015E0000184F285E02D3F012FEF621A720A80819B
:1015F0008987D8019C915396ED91FC91549755960B
:101600008C91992309F448C09081982B98879081F8
:10161000809589238F838F818C839B8258856F81EE
:1016200049853B812C8189819A81D301508347FD73
:10163000252F3A952083262F39F0441F00C0000043
:101640006083000000C0F2CF38E04D91608300005D
:10165000019761F7D8015496FC93EE93539749870D
:101660003B832C839A83898378940E944207F801F4
:101670006787708B818B928BFFEFCF1ADF0A3ACF8F
:10168000A601440F551F440F551F840F951FE80FE7
:10169000F92FF11D10825FCF9081982B9887908150
:1016A000809589238F838F818E839D8258856F815A
:1016B00049853D812E8189819A81D301508347FDDF
:1016C000252F00C000C0208300C000C000C000C0A3
:1016D00000C060830000262F3A9541F0441F0000AF
:1016E00000C000C000C000C000C0E8CF38E04D918D
:1016F00000C0608300C0019709F7D8015496FC939D
:10170000EE93539749873D832E83ACCF6AE070E018
:1017100080E090E029960FB6F894DEBF0FBECDBFF3
:10172000DF91CF911F910F91FF90EF90DF90CF90BD
:10173000BF90AF909F908F907F906F905F904F90F1
:101740000C9457080F931F93CF93DF93EC01062F50
:10175000142F8E85813120F4882331F0411104C08B
:1017600081E00E9467071E868E85811112C08D85DB
:1017700091E090934C0480936E0410924D0410926B
:101780006F0460E4111101C060E080E794E00E9402
:101790005005602F80E794E00E945005123041F41C
:1017A0008E858F5F8E87DF91CF911F910F91089566
:1017B00081E00E9467071E86F6CFCF93DF93EC018E
:1017C0009C818E81981758F4E881F9810084F18515
:1017D000E02D42E0CE0109958C818F5F8C83DF91F3
:1017E000CF910895DC01ED91FC910084F185E02D0D
:1017F00040E009940F931F93CF938C01FC01648305
:10180000C085C60F6C2F6F700E94F20B6C2F629513
:101810006F706061C801CF911F910F910C94F20B12
:10182000FC012781269526952695621720F465836D
:10183000606B0C94F20B08951F93CF93DF93EC0130
:10184000142F8E81681718F4CE010E94FA0B612FB5
:10185000CE01DF91CF911F910C94100CCF92DF92AB
:10186000EF92FF920F931F93CF93DF93EC01162F0C
:10187000C42ED22E8F81869586958695081710F0F6
:101880000FEF080FFD2C0F15B0F08E81181720F404
:10189000612FCE010E94FA0B6F2DCE010E94100C19
:1018A000E12ECE1430F060E0CE010E94DD0BE39417
:1018B000F8CFF394E8CF4D2D612FCE01DF91CF917A
:1018C0001F910F91FF90EF90DF90CF900C941C0C24
:1018D0002F923F924F925F926F927F928F929F9240
:1018E000AF92BF92CF92DF92EF92FF920F931F932E
:1018F000CF93DF9300D000D01F92CDB7DEB7DC01CD
:101900001B960D911C910115110509F468C19D8369
:101910008C83F801449131965491319664903196BC
:101920002491E22EF12CF7E0EF0EF11C73E0F59418
:10193000E7947A95E1F7E982F8013496349131968B
:10194000E491631748F08E2F90E0FC01E30FF11D46
:101950006E171F060CF487C06D3031F5AC81BD8168
:1019600016968C9181111AC081E090E00F900F9033
:101970000F900F900F90DF91CF911F910F91FF90DB
:10198000EF90DF90CF90BF90AF909F908F907F901F
:101990006F905F904F903F902F90089560E08C8102
:1019A0009D810E94FA0BE0CF6A3009F018C1EC81EA
:1019B000FD818185D5808E9DD00C112487818695EF
:1019C00086958695D81630F08285882319F082E0B6
:1019D0008287D12C4D2D60E08C819D810E941C0C52
:1019E000AC81BD811A968C911A97823008F4BCCFD5
:1019F00015962C9115971B96ED91FC911C9700E084
:101A0000309739F03396E49119960C91E09F002DB0
:101A1000112410E0095F1F4F33E0159507953A95A3
:101A2000E1F78FEF820F080FEC81FD814681415075
:101A30006481CF010E942E0CAC81BD8119968C91DE
:101A400019976D2D8E9D600D1124660F660F660F20
:101A500017968C91861708F460E060648C819D81F4
:101A60000E94F20B81CF4527542745270A5F1F4F5D
:101A7000631BEC81FD8121844230510508F06DC06B
:101A8000452B09F0212C6E9CC0016F9C900D1124F8
:101A9000689FF001699FF00D11240E0F1F1F512C3C
:101AA000AC81BD811496BC91BA83EC81FD81F58136
:101AB000FB83862C912CAA24A394B12C312C8981F0
:101AC000381608F086C0412CAC81BD8119968C91E6
:101AD000481608F077C0311002C0442041F0EC8174
:101AE000FD8145814F5F6A81CF010E941C0CD12C82
:101AF000C12CC61408F05AC0F801EC0DFD1D7490FD
:101B0000552061F0EA14FB0449F4E72DF0E0052CC0
:101B100002C0F595E7950A94E2F77E2EAC81BD816F
:101B200019968C91823081F4442009F43BC0729460
:101B30008FE07822E72DF0E0E557FF4F7490672D96
:101B40008C819D810E94DD0B672D8C819D810E947F
:101B5000DD0BEFEFCE1ADE0ACCCF277038E0532E24
:101B6000521A211101C0512C50E040E030E020E039
:101B7000F801461740F4E40FF51FE4912E0F311DD4
:101B80004F5F5F4FF5CFE60FF11D6490E29EF001CD
:101B9000E39EF00DF29EF00D11248E0F9F1F080F93
:101BA000191F7ECFB72DBF707B2EC4CFD12C2D1423
:101BB00039F060E08C819D810E94DD0BD394F7CFDA
:101BC000439482CF3394080D191DFFEFAF1ABF0A5B
:101BD00076CF6B818C819D810E94100CC5CE90E0E8
:101BE00080E0C4CE0F93CF93DF93EC010F81069575
:101BF0000695069501504E81415020E060E00E941C
:101C00002E0C81E09A85911101C080E08A8760E402
:101C1000CE01DF91CF910F910C94F20B90E080E018
:101C200008954F925F926F927F928F929F92AF92A0
:101C3000BF92DF92EF92FF920F931F93CF93DF93A8
:101C40001F92CDB7DEB7062FD72E142FFC01818946
:101C500092890097E1F023E02983242F30E0462F7A
:101C6000572FBE016F5F7F4F0E9407070F90DF91D4
:101C7000CF911F910F91FF90EF90DF90BF90AF90A9
:101C80009F908F907F906F905F904F90089562E04B
:101C900070E080E090E00E9457080E9442074B01EC
:101CA0005C0180914604811167C081E08093460405
:101CB000809345049FEF909344041092430491E075
:101CC000910F9093420480932104809121048864B1
:101CD0008093210480912004813009F090C01092FB
:101CE00020040E9442074B015C01809121048093F3
:101CF000BB008091480490914904A0914A04B0919E
:101D00004B04892B8A2B8B2BA1F00E944207409019
:101D100048045090490460904A0470904B0468193C
:101D200079098A099B09461657066806790608F458
:101D300044C08091BC0083FDD8CF85EC8093BC006B
:101D40000E9442074B015C0180914604813009F4F6
:101D500058C082E0810F90914304981710F480914D
:101D60004304A2E2B4E0E2E4F3E090E0981751F11A
:101D70002D9121939F5FFACF80914804909149045F
:101D8000A0914A04B0914B04892B8A2B8B2B09F428
:101D900088CF0E94420740904804509049046090C8
:101DA0004A0470904B04681979098A099B09461600
:101DB00057066806790608F074CF809147040E94A0
:101DC000F40580E0109263038093620380E794E05F
:101DD0000E940905B02EE02EFD2C61E070E080E04D
:101DE00090E00E94570880E794E00E940905F701FF
:101DF00081937F018E2F8B19811778F337CF85EE72
:101E00009DCF8091480490914904A0914A04B091DB
:101E10004B04892B8A2B8B2B09F496CF0E94420707
:101E2000409048045090490460904A0470904B04DC
:101E3000681979098A099B094616570668067906C2
:101E400008F082CFBACF2F923F924F925F926F925B
:101E50007F928F929F92AF92BF92CF92DF92EF923A
:101E6000FF920F931F93CF93DF9300D000D000D049
:101E70001F92CDB7DEB77C014A012DB63EB6DC011C
:101E80005196CD90DC90BB24B394B60EA62EA094B0
:101E90006B2C712CC114D10409F495C04DB65EB6FB
:101EA00070E0685F7F4FEDB7FEB7E61BF70B0FB62C
:101EB000F894FEBF0FBEEDBF0DB71EB70F5F1F4FEB
:101EC00081E08183D80111961C92119712961C9281
:101ED00012978FEF13968C9313971496BC921497C6
:101EE0001596AC92159784ED16968C932DB73EB748
:101EF000285F3F4FF90163EDA301415051098E2F37
:101F0000821B90E0841795073CF480529C4FDC01C3
:101F10008C918193680FF3CF609560831182B8E054
:101F20006B0E711CF60180819181892B39F0028042
:101F3000F381E02D808191810E94B50460E0D6019B
:101F40001B968C910E94A8055801F50161915F01D3
:101F5000C6010E945106C501801B910B861597058D
:101F6000A0F361E0D6011B968C910E94A8050FB6E4
:101F7000F8945EBE0FBE4DBEB401C7010E94E309D6
:101F8000182F811163C010E0812F0FB6F8943EBE68
:101F90000FBE2DBE27960FB6F894DEBF0FBECDBF85
:101FA000DF91CF911F910F91FF90EF90DF90CF9035
:101FB000BF90AF909F908F907F906F905F904F9069
:101FC0003F902F90089562E070E080E090E00E94E2
:101FD000570881E080934C0484E280936E04109251
:101FE0004D0410926F0480E00E944E0A80E00E942F
:101FF0004E0A8FEF0E944E0A8B2D0E944E0A8A2DA8
:102000000E944E0A84ED0E944E0AC12C83EDD82E08
:10201000B1E06B1A71080C2D10E0061517055CF481
:1020200000521C4FF80180810E944E0AD8018C9109
:10203000D80EC394F0CF8D2D80950E944E0A80E07B
:102040000E944E0A81E00E94670796CFF7018189BE
:102050009289009721F123E02F8326E030E0AE0142
:102060004F5F5F4FBE01695F7F4F0E94070746E0E9
:1020700050E06FE071E0CE0101960E941A20892B9A
:1020800009F081CFD70151968D919C91892B09F44C
:102090007BCFB401C7010E94E309182F75CF46E03A
:1020A000BE016F5F7F4FC7010E94110EE0CFFB01A1
:1020B00001900020E9F73197AF01461B570BDC0177
:1020C000ED91FC910280F381E02D09948F929F9213
:1020D000AF92BF92EF92FF920F931F93CF93DF9334
:1020E000CDB7DEB7A1970FB6F894DEBF0FBECDBF58
:1020F0007C01FA01CB0119A2223008F42AE08E01FA
:102100000F5D1F4F822E912CB12CA12CBF01A50178
:1021100094010E94081EF901CA016A300CF5605D45
:10212000D8016E938D01232B242B252B79F790E07A
:1021300080E0109721F0BD01C7010E945710A196C1
:102140000FB6F894DEBF0FBECDBFDF91CF911F91C8
:102150000F91FF90EF90BF90AF909F908F90089558
:10216000695CDECF60E971E00C945710CF93DF9388
:10217000EC01BC0188E096E00E94960888E096E0B9
:102180000E94B210BE018CE794E00E9496088CE792
:1021900094E00E94B2108CE794E0DF91CF910C9410
:1021A000B0090F931F93CF93DF938C01D0E0C0E071
:1021B0006115710519F00E945710EC01C8010E94C9
:1021C000B2108C0F9D1FDF91CF911F910F91089539
:1021D0000F931F93CF93DF93EC010E9491098C0121
:1021E000CE010E94B210800F911FDF91CF911F91FD
:1021F0000F9108950F931F93CF93DF93EC018B0101
:102200008CE794E00E94B00961E08EE00E94A8058E
:102210008CE794E00E94B21063E971E08CE794E0EF
:102220000E945710B8018CE794E00E94960866E976
:1022300071E08CE794E00E945710BE018CE794E0B7
:102240000E94960868E971E08CE794E00E94D11042
:102250008CE794E00E94B00960E08EE0DF91CF91BE
:102260001F910F910C94A80528EC35E0F90101901D
:102270000020E9F79F01FC0144815581240F351F9F
:10228000275C35402134310570F46081718188EC20
:1022900095E00E94302061E971E088EC95E00E94B1
:1022A000302081E0089580E0089561E08EE00E9492
:1022B000A80568EC75E08CE794E00E9457106AE787
:1022C00075E08CE794E00E94D1108CE794E00E94C6
:1022D000B00960E08EE00E94A805E8ECF5E080E43B
:1022E000DF011D928A95E9F7089585ED8093BC0082
:1022F0008091480490914904A0914A04B0914B0404
:102300000796A11DB11D23E0B695A79597958795D2
:102310002A95D1F72091BC0024FD03C010924604F9
:102320000895409148045091490460914A04709185
:102330004B04452B462B472B69F30097A105B105AC
:1023400041F025E32A95F1F700000197A109B109B1
:10235000E1CF809147040C94F405FC0180819181C8
:10236000009711F00C94CC1E0895EF92FF920F93FA
:102370001F93CF93DF93EC017B018A0188819981C0
:10238000009729F02A813B812417350788F4B8018A
:102390006F5F7F4F0E94551F009791F0998388834C
:1023A0001B830A832C813D81232B11F4FC011082B5
:1023B0001D830C83B701888199810E943B200CC04A
:1023C00088819981009711F00E94CC1E1982188291
:1023D0001D821C821B821A82CE01DF91CF911F9138
:1023E0000F91FF90EF900895FC01118210821382EB
:1023F0001282158214826115710551F0FB01019062
:102400000020E9F73197AF01461B570B0C94B5112B
:1024100008951F920F920FB60F9211242F933F939E
:102420004F935F936F937F938F939F93AF93BF93DC
:10243000EF93FF9382E00E94B804FF91EF91BF9168
:10244000AF919F918F917F916F915F914F913F914C
:102450002F910F900FBE0F901F9018951F920F9203
:102460000FB60F9211242F933F934F935F936F9367
:102470007F938F939F93AF93BF93EF93FF9381E0ED
:102480000E94B804FF91EF91BF91AF919F918F91FE
:102490007F916F915F914F913F912F910F900FBE60
:1024A0000F901F9018951F920F920FB60F92112444
:1024B0002F933F934F935F936F937F938F939F934C
:1024C000AF93BF93EF93FF9380E00E94B804FF9116
:1024D000EF91BF91AF919F918F917F916F915F919C
:1024E0004F913F912F910F900FBE0F901F90189515
:1024F0001F920F920FB60F9211242F933F934F9379
:102500005F936F937F938F939F93AF93BF93EF935B
:10251000FF938091B900887F803609F44AC0F0F5B6
:10252000883209F4A7C018F5803109F49BC0B8F4CB
:10253000882309F4F9C0883009F494C0FF91EF9121
:10254000BF91AF919F918F917F916F915F914F91CB
:102550003F912F910F900FBE0F901F9018958831CB
:1025600009F488C0803251F78093440414C0803449
:1025700009F49DC040F48033B9F38833F9F68093B1
:10258000440485ECB0C0803509F485C0883509F471
:1025900096C0883499F60E947511D0CF883909F415
:1025A0008CC038F5883729F050F4883611F0803720
:1025B00029F683E0809346041092AB0357C0883815
:1025C00009F47BC0803919F0803809F0B7CF8091C9
:1025D000AB03803208F071C0E091AB0381E08E0F55
:1025E0008093AB038091BB00F0E0E557FC4F808304
:1025F0003DC0803B39F0E0F4803A09F479C0883A74
:1026000009F09CCF84E080934604109288031092D6
:102610008703E0918503F0918603099580918703F4
:1026200081110FC081E0809387031092650309C078
:10263000803C09F4A6CF883C09F4A3CF883B09F07D
:102640007DCFE091880381E08E0F80938803F0E0D6
:10265000EB59FC4F80818093BB009091880380915F
:10266000870329C0809121048093BB0085EC80936F
:10267000BC0064CF9091430480914204981758F5B0
:10268000E091430481E08E0F80934304F0E0EE5D1F
:10269000FB4F8081E9CFE091430481E08E0F80936E
:1026A00043048091BB00F0E0EE5DFB4F808390918E
:1026B0004304809142049817C8F285E8D8CFE0918E
:1026C000430481E08E0F809343048091BB00F0E0CF
:1026D000EE5DFB4F80838091450481115CCF81E0EA
:1026E0008093200484EA8093BC001092460426CF95
:1026F00085EC8093BC00109246048091AB0380323D
:1027000030F4E091AB03F0E0E557FC4F10826091AC
:10271000AB0370E0E0918903F0918A038BE893E0CA
:1027200009951092AB030ACF1092440434CF1F9244
:102730000F920FB60F9211242F933F938F939F9375
:10274000AF93BF9380913A0390913B03A0913C03D8
:10275000B0913D033091390323E0230F2D3758F515
:102760000196A11DB11D2093390380933A039093E4
:102770003B03A0933C03B0933D0380913E039091B3
:102780003F03A0914003B09141030196A11DB11DEB
:1027900080933E0390933F03A0934003B093410383
:1027A000BF91AF919F918F913F912F910F900FBE4D
:1027B0000F901F90189526E8230F0296A11DB11DBA
:1027C000D2CF1F920F920FB60F9211242F933F93E7
:1027D0004F935F936F937F938F939F93AF93BF9329
:1027E000EF93FF938CE794E00E942209FF91EF9111
:1027F000BF91AF919F918F917F916F915F914F9119
:102800003F912F910F900FBE0F901F9018951F9220
:102810000F920FB60F9211242F938F939F93EF93E4
:10282000FF93E0918C04F0918D048081E0919204FB
:10283000F091930482FD1BC09081809195048F5F7D
:102840008F7320919604821741F0E0919504F0E097
:10285000E458FB4F958F80939504FF91EF919F91E2
:102860008F912F910F900FBE0F901F901895808120
:10287000F4CFEF92FF921F93CF93DF93E0E7F4E062
:102880001382128288EE93E0A0E0B0E08483958307
:10289000A683B78322E631E031832083ECE7F4E0BE
:1028A0001382128284839583A683B78384E791E0A1
:1028B0009183808385EC90E09587848784EC90E019
:1028C0009787868780EC90E0918B808B81EC90E0FD
:1028D000938B828B82EC90E0958B848B86EC90E0DE
:1028E000978B868B118E128E138E148E6FE971E08A
:1028F0008DE896E00E94F41169EA71E087E896E0BD
:102900000E94F411CAE5D5E088E090E099838883BD
:102910008AE090E0A0E0B0E08A839B83AC83BD8333
:102920001E8218861F822FEF3FEF3A87298786E0A5
:10293000EFEAF1E0A5E6B5E001900D928A95E1F7A6
:102940008FE590E09A8B898B87E0E5EBF1E0ADE6CF
:10295000B5E001900D928A95E1F786E0ECEBF1E0AD
:10296000A4E7B5E001900D928A95E1F786E0EBE1EE
:10297000F1E0AAE7B5E001900D928A95E1F78CE2CB
:1029800091E0A0E0B0E08EA39FA3A8A7B9A78AA773
:102990009BA7ACA7BDA710928905109288059EE35E
:1029A000EAE8F5E0DF01892F1D928A95E9F7109298
:1029B000C9051092C805EAECF5E0DF01892F1D92E8
:1029C0008A95E9F710920B0610920A0681E080932F
:1029D0001106109214061092130646E851E0509327
:1029E00009064093080610921706109218061092D6
:1029F000190610921A0610921B0610921C061092CD
:102A00001D0610921E0610921F06109220061092AC
:102A1000210610922206109223061092240610928C
:102A2000250610922706109226061092290610926B
:102A3000280610922B0610922A0610922D0610924C
:102A40002C0610922F0610922E061092310610922C
:102A5000300610923306109232061092350610920C
:102A6000340646E0E1E2F1E0A6E3B6E001900D9223
:102A70004A95E1F710923C0648E0E8E2F1E0ADE368
:102A8000B6E001900D924A95E1F710924606109239
:102A90004506E7E4F6E0DF011D929A95E9F7E4E4E4
:102AA000F5E08083118213821282158214823783AB
:102AB00026831086128611868387148692E0958776
:102AC00086871786108A118A128A81E3E82E85E0AC
:102AD000F82E1FEFF701108311838CE190E00E9424
:102AE000301EEC0188E08B871E871D871C8789E1DB
:102AF00095E0998388831B8E82E090E00E94301ECF
:102B000021E7DC012C9311961C929B838A8380E43D
:102B100092E4AFE0B0E08C839D83AE83BF831986DF
:102B200018861A86F701D28BC18B83E1AEE1B5E03E
:102B300001900D928A95E1F70E94890860931A0529
:102B400070931B0580931C0590931D05DF91CF9119
:102B50001F91FF90EF900895CF93DF93CDB7DEB72D
:102B6000AF970FB6F894DEBF0FBECDBF789484B593
:102B7000826084BD84B5816084BD85B5826085BD79
:102B800085B5816085BD80916E00816080936E0007
:102B900010928100809181008260809381008091F9
:102BA00081008160809381008091800081608093AA
:102BB00080008091B10084608093B1008091B0006A
:102BC00081608093B00080917A00846080937A0065
:102BD00080917A00826080937A0080917A0081608F
:102BE00080937A0080917A00806880937A001092B6
:102BF000C100109263031092620310924D04109270
:102C00006F040E94D60587EF94E09093860380932B
:102C1000850388EF94E090938A038093890388E486
:102C20008093B800E0918C04F0918D0482E0808361
:102C3000E0918804F09189041082E0918A04F09177
:102C40008B0480E1808310929404E0919004F091D1
:102C5000910486E08083E0918E04F0918F0480815E
:102C600080618083E0918E04F0918F048081886080
:102C70008083E0918E04F0918F048081806880834E
:102C8000E0918E04F0918F0480818F7D808380910C
:102C90005C0590915D05A0915E05B0915F05809304
:102CA000800490938104A0938204B093830464E62B
:102CB00070E080E090E00E94570861E08EE00E94A2
:102CC000150660E08EE00E94A80569E076E08CE7DA
:102CD00094E00E94E81062EF75E08CE794E00E94B7
:102CE000E8106BED75E08CE794E00E94E8108CE74B
:102CF00094E00E94B00962EC71E08E010F5F1F4FFB
:102D0000C8010E94F4117E0121E2E20EF11C66EC82
:102D100071E0C7010E94F411B801C7010E94FA10C6
:102D2000C7010E94AD11C8010E94AD1162EC71E0B3
:102D3000C8010E94F41164ED71E0C7010E94F41112
:102D4000B801C7010E94FA10C7010E94AD11C80165
:102D50000E94AD1162EC71E0C8010E94F41160EEB6
:102D600071E0C7010E94F411B801C7010E94FA1076
:102D7000C7010E94AD11C8010E94AD1160EC75E061
:102D80008CE794E00E94910920E14CE350E060E080
:102D900070E08CE794E00E9466108CE794E00E945B
:102DA000B2106AE070E080E090E00E945708109254
:102DB00016068CE38093150610920C0610920D06F1
:102DC000EAEBF5E0A590B490ECEBF5E09490EDEB38
:102DD000F5E0E491E0930E06EEEBF5E0E491E0938C
:102DE0000F06EFEBF5E0E491E0931006D12CC12C37
:102DF000C91460F4F501EC0DFD1D649188E096E0C6
:102E00000E94F20B8FEFC81AD80AF2CF1092120666
:102E100088E096E00E94F20D80910F06803439F42C
:102E200088E096E00E94F20D81E08093120686EA27
:102E300090E0909314068093130688E096E00E9439
:102E4000F20D6BE970E08CE794E00E94E8106AE014
:102E500070E080E090E00E94570880E296E0909356
:102E600014068093130610926205109261056DEEB0
:102E700071E0C8010E94F411C8010E94B610C80197
:102E80000E94AD111F921F928FEF91E09F938F933D
:102E90001F930F930E94502065E675E08DE396E046
:102EA0000E943B20B8018DE396E00E9430206DE344
:102EB00076E08CE794E00E94D11060ED77E080E04E
:102EC00090E00E94570862E072E0C8010E94F4118D
:102ED000C8010E94B610C8010E94AD1188E199E2B4
:102EE0000FB6F894A895809360000FBE9093600091
:102EF000A8958CE794E00E94B2106FE072E0C801E0
:102F00000E94F411C8010E94B610C8010E94AD11C0
:102F100062E971E0CE0188960E94F4110F900F9043
:102F20000F900F900F900F9038E0C32ED12CAA2451
:102F3000A394BC2CA0924C04C0926E0410924D0439
:102F400010926F0481E00E9467078111B2C06FE1A7
:102F500072E0C8010E94F411C8010E94D009C801A2
:102F60000E94AD1167E272E0C8010E94F411C8012D
:102F70000E94D009C8010E94AD111AA219A21CA278
:102F80001BA21EA21DA240E1B801C6010E949B1D0A
:102F9000F80101900020E9F73197AF01401B510B78
:102FA000B801C7010E94B51188A599A5009761F1E4
:102FB00069A17AA16115710529F14AA55BA52DA129
:102FC0003EA142175307F0F00E943B208DA19EA125
:102FD0009DA78CA71EA21DA2C7010E94AD1188A4A7
:102FE00099A48114910409F1D4018D914D01882394
:102FF000E1F0082E000C990B0E941220F401319789
:103000008083F2CF0E94CC1E89A19AA199A788A79C
:103010008BA19CA19BA78AA78DA19EA19DA78CA7F0
:103020001AA219A21CA21BA2D5CF1A8219821C8235
:103030001B821E821D8268A579A56115710529F084
:103040004CA55DA5C8010E94B511C8010E94D00918
:10305000C8010E94AD116CE272E0C8010E94F41137
:10306000C8010E94B610C8010E94AD11E8ECEB0D3A
:10307000E83008F009C1F0E0E05CF74E0C942A1E3D
:1030800048183819381938193B193E19441941198B
:1030900060E372E0C8010E94F411C8010E94B610FA
:1030A000C8010E94AD1161E070E080E090E00E94F4
:1030B0005708BFEFCB1ADB0AE8E7CE16D10409F0B8
:1030C00038CF68E672E0C8010E94F411C8010E947E
:1030D000B610C8010E94AD11CE0188960E94AD11B4
:1030E000A8956FE778E08CE794E00E949109C09082
:1030F0004205D0904305C114D10409F4F3C061E046
:10310000D6011B968C910E94150661E0F60183851D
:103110000E94A805D6018D919C91892B09F4B7C016
:10312000BFB6F89480912803811127C0E9ECF8E03C
:103130008491EDEDF8E09491E82FF0E0EE0FFF1FA1
:10314000E555F74FA591B491EC91E92321F461E0A5
:103150008AE00E94A80561E08AE00E9415068CB50D
:1031600080618CBD8CB580648CBD61E08DE00E9477
:10317000150661E08BE00E941506809128038F5FA1
:1031800080932803BFBE81E0F601838F82E08093A5
:10319000E00344E650E061E081E395E00E94230F04
:1031A00082E38093E00385E08093E1039FEF9093B7
:1031B000E20391E09093E3038093E40344E650E05C
:1031C00065E081E395E00E94230FD12CC12C92E0B1
:1031D000792E7092E00344E650E061E081E395E0EF
:1031E0000E94230F8111B0C066E678E08CE794E07E
:1031F0000E949109F6E0CF16D104B4F16EE478E0B4
:103200008CE794E00E94910965E070E080E090E036
:103210000E94570866E078E08CE794E00E94E8108E
:1032200062E370E080E090E00E945708A3E08A2EFD
:10323000912CA12CB12C2AE0B501A4018CE794E0DB
:103240000E9466108CE794E00E94B21064E670E081
:1032500080E090E00E94570821E0821A9108A108BE
:10326000B10849F70C9400009FEFC91AD90AB1CFF1
:1032700061E472E00FCF6BE472E00CCF6BE572E0BB
:1032800009CF66EB71E006CF60E672E003CF61E044
:10329000F60184850E941506D6011A968C911A971C
:1032A0008B7FE1F460E01C968C910E94A805D6010A
:1032B0001D968C918F3F41F061E00E94150661E000
:1032C000F60185850E94A805D6011E968C918F3F38
:1032D00009F459CF60E00E94150655CF61E0F60170
:1032E0008485E3CF109263031092620310924D0421
:1032F00010926F040E94D60587EF94E090938603A6
:103300008093850388EF94E090938A0380938903E8
:1033100061E0809132050E94A80560E0809132054D
:103320000E94A80560E971E080E090E00E945708E3
:1033300061E0809132050E94A8056AE070E080E0BB
:1033400090E00E9457082CCF4CE060EE73E081E3E0
:1033500095E00E94110E46E050E060E071E080EEE2
:1033600093E00E941A20892B09F03ECF8090E7035A
:103370009090E803982489249824B12CA12CBA2C8D
:10338000A92C982C88248091E903882ABA2CA92C8E
:10339000982C88248091EA03882A81149104A1043E
:1033A000B10409F421CF6FE378E08CE794E00E9448
:1033B00091094B2D55276627772720E18CE794E06C
:1033C0000E9466108CE794E00E94B21060E378E0FF
:1033D0008CE794E00E9491094A2D50E070E060E093
:1033E0002AE08CE794E00E9466106EE28CE794E09D
:1033F0000E944409492D50E070E060E02AE08CE72B
:1034000094E00E9466108CE794E00E94B21094E170
:103410009093E00381E08093E1039093E203809333
:10342000E30344E650E064E081E395E00E94230F6B
:10343000882339F048E060EE73E081E395E00E9474
:10344000110E62E370E080E090E00E94570864E1B2
:1034500078E08CE794E00E949109A8956CE978E007
:103460008CE794E00E9491096AE070E080E090E0CF
:103470000E945708C0900601D09007018090080173
:10348000909009015401AA0CBB1CA80CB91CC501E1
:103490000E94301E009721F4B12CA12C912C812C7C
:1034A000F601E154F74FE491F0E0EE0FFF1FEB540B
:1034B000F74F25913491F601ED52F74FE49141E039
:1034C0004093440510924505909247058092460529
:1034D000B0924905A0924805D0924B05C0924A058A
:1034E00010924C0590934E0580934D0540934F05E7
:1034F00052E050935005109251054093520510929E
:1035000053051092540510925505109256053093AC
:10351000580520935705E09359050E94CC1ED7FC0F
:1035200004C060E08C2D0E94150680914A059091A0
:103530004B0597FD08C061E00E94150660E0809190
:103540004A050E94A80581E08093450540E050E0CF
:10355000BA0184E495E00E94530A68E270E080E0DA
:1035600090E00E94570860E978E08CE794E00E94C0
:10357000E8106AE070E080E090E00E945708A895AB
:1035800062EC71E0C7010E94F4116AE772E0C801C1
:103590000E94F411B701C8010E94FA10C8010E94EC
:1035A000AD11C7010E94AD118CE794E00E94B210EA
:1035B0008CE794E00E94B00965E872E0C8010E94BF
:1035C000F411C8010E94B610C8010E94AD11CE01CD
:1035D00007969FA78EA76FEF262E61E0362EDD247B
:1035E000D39450E4C52E0E94890880901A059090CB
:1035F0001B05A0901C05B0901D05681979098A0962
:103600009B096A3F71058105910508F491C00E94EC
:10361000890860931A0570931B0580931C0590938D
:103620001D0586E0E2E3F1E0D80101900D928A9554
:10363000E1F7AEA5BFA5EAE11D92EA95E9F763E9D6
:1036400072E08CE794E00E94D1108CE794E00E9435
:10365000B009D701E7E01D92EA95E9F786E0E2E5D7
:10366000F1E0DE01989601900D928A95E1F71092B3
:103670002A0310922903FAE4F093E003D092E103C5
:103680001092E20346E950E063E08EE195E00E948B
:10369000230F882331F180912F0590913005892BDC
:1036A000C1F044E160EE73E08EE195E00E94110EFE
:1036B0008091E7038130A9F49090EC03ADEEB3E084
:1036C000F7018E2F8E19891508F012C18D91819303
:1036D000F8CF66E970E08EE195E00E94E309811180
:1036E000E0CF6AEE72E08CE794E00E94D1108CE7A4
:1036F00094E00E94B00988E096E00E94F20DB801C3
:1037000088E096E00E94D110B801C7010E94F41130
:10371000C7010E943411C7010E94AD116EEF72E023
:103720008CE794E00E94D1108CE794E00E94B009ED
:1037300067E073E0C8010E94F411C8010E94B6104E
:10374000C8010E94AD110E9489082B013C01B12CD7
:10375000A12C0E948908641975098609970920918E
:103760008005309181054091820550918305621753
:1037700073078407950708F05AC18CE794E00E940C
:103780000209892B31F3F501E35CF94F8080082CA5
:10379000000C99088CE794E00E94E00888169906CE
:1037A000B1F6BFEFAB1ABB0AE6E0AE16B1048CF27D
:1037B000A8E8B5E0EC2D1D92EA95E9F70E9489088A
:1037C0002B013C01B12CA12C912C812C0E94890849
:1037D000641975098609970920918405309185053A
:1037E00040918605509187056217730784079507F6
:1037F00070F5F0E48F16910451F18CE794E00E948B
:103800000209892B19F38CE794E00E94E008F40187
:10381000E65AFA4F86A7D501A65ABA4F90969C91C0
:103820008913FFC02FEFA21AB20A84E0A816B104D0
:1038300009F0F9C0A0E3B1E0A7A761E971E088E869
:1038400095E00E946F1D909386068093850661E047
:1038500070E080E090E00E9457080E94551180902F
:103860008506909086068114910409F413C144E002
:1038700050E0B4018AE091E00E9442205C01892B73
:1038800009F0FDC068EE72E0C4010E946F1D68EE91
:1038900072E090E080E00E946F1D1AA219A21CA2A3
:1038A0001BA21EA21DA2009709F4C8C0E3E0AE1639
:1038B000B10409F4C7C09501220F331F2E0D3F1D1F
:1038C0003F932F933F922F929F938F930E94732049
:1038D00068EE72E090E080E00E946F1DFFEFAF1A8B
:1038E000BF0A0F900F900F900F900F900F90DBCFAB
:1038F00086E0FE01B896A8E2B5E001900D928A95A7
:10390000E1F7A92CB12CA501B70180E295E00E9456
:10391000272090922705C092E003D092E10380E631
:103920008093E203D092E30386E0E8E2F5E0A4EEC0
:10393000B3E001900D928A95E1F720E0822F90E0AC
:103940008A159B055CF4FC01E052FC4F825E9A4FA5
:10395000DC0112968C9182872F5FF0CF6AE0690DAF
:1039600044E650E08EE195E00E94230F8823C1F1E8
:103970004CE060EE73E08EE195E00E94110E8091C4
:10398000E70381112DC0C092E003D092E10380E3F0
:103990008093E203D092E30344E650E064E08EE1DA
:1039A00095E00E94230F882311F14AE160EE73E055
:1039B0008EE195E00E94110E8091E703811117C0FE
:1039C00080E1E8EEF3E0A9E2B3E001900D928A9580
:1039D000E1F78091290381110DC066EB72E002C00E
:1039E0006EE972E08CE794E00E94D1107ACE6AEA28
:1039F00072E0F8CF66ED72E08CE794E00E94D1109F
:103A00008CE794E00E94B00968EE72E0CE01019666
:103A10000E94302069E273E0CE0101960E943020BE
:103A200060CEB12CA12CBFEF8B1A9B0ACFCE64E1E4
:103A300073E08CE794E00E94D11011CF23E0A2162E
:103A4000B104E9F489A14DA150E070E060E0762F67
:103A5000652F542F4427682B8BA1482B84E495E0D5
:103A60000E94530A66E376E0C8010E94F411C8017F
:103A70000E943411C8010E94AD110E94551161E9E4
:103A800071E090E080E00E946F1D90938606809325
:103A90008506E5CEA89580E090E0892B09F4A3CDBA
:103AA0000E940E09882309F49ACD0E94000097CD48
:103AB00080914D0590914E050E94CC1E80914A0543
:103AC00090914B0597FD03C060E00E94150687E8C2
:103AD00096E00E94AD118DE896E00C94AD1143E99B
:103AE00056E00E94741D0895FA01A191B0810097DB
:103AF00019F41097E1F0CD01DC01CD010D9000200B
:103B000011F4C00113C0FB012191222319F02015EB
:103B1000D9F7F3CFFB012191201519F41E921196CC
:103B200006C02223C1F70D900020A1F7D001FA01B1
:103B3000A193B0830895BB27FB015527AA27880FBF
:103B4000991FAA1FA41710F0A41B83955051B9F711
:103B5000A05DAA3308F0A95DA193009779F7B11190
:103B6000B1931192CB010C94BE1D91110C94CE1DFA
:103B7000803219F089508550C8F70895DC01FC01A6
:103B8000672F71917723E1F7329704C07C916D9391
:103B900070836291AE17BF07C8F3089599278827ED
:103BA00008952F923F924F925F926F927F928F92E1
:103BB0009F92AF92BF92CF92DF92EF92FF920F93BC
:103BC0001F93CF93DF93CDB7DEB7CA1BDB0B0FB6C6
:103BD000F894DEBF0FBECDBF09942A883988488883
:103BE0005F846E847D848C849B84AA84B984C88419
:103BF000DF80EE80FD800C811B81AA81B981CE0F10
:103C0000D11D0FB6F894DEBF0FBECDBFED010895F4
:103C1000A1E21A2EAA1BBB1BFD010DC0AA1FBB1FD0
:103C2000EE1FFF1FA217B307E407F50720F0A21B42
:103C3000B30BE40BF50B661F771F881F991F1A94AF
:103C400069F760957095809590959B01AC01BD01D9
:103C5000CF010895EE0FFF1F0590F491E02D099418
:103C60000F931F93CF93DF938230910510F482E07E
:103C700090E0E0919706F091980630E020E0B0E007
:103C8000A0E0309799F42115310509F44AC0281BAA
:103C9000390B24303105D8F58A819B816115710576
:103CA00089F1FB0193838283FE0111C04081518120
:103CB0000281138148175907E0F04817590799F412
:103CC000109761F012960C93129713961C933296EC
:103CD000CF01DF91CF911F910F9108950093970627
:103CE00010939806F4CF2115310551F04217530770
:103CF00038F0A901DB019A01BD01DF01F801C1CF54
:103D0000EF01F9CF9093980680939706CDCFFE01EF
:103D1000E20FF31F81939193225031093983288355
:103D2000D7CF2091950630919606232B41F4209110
:103D30001701309118013093960620939506209133
:103D40001501309116012115310541F42DB73EB70B
:103D50004091190150911A01241B350BE0919506F1
:103D6000F0919606E217F307A0F42E1B3F0B2817DD
:103D7000390778F0AC014E5F5F4F2417350748F0E4
:103D80004E0F5F1F50939606409395068193919333
:103D90009FCFF0E0E0E09CCFCF93DF930097E9F076
:103DA000FC01329713821282A0919706B091980677
:103DB000ED0130E020E01097A1F420813181820FE5
:103DC000931F20919506309196062817390709F020
:103DD00061C0F0939606E0939506DF91CF91089528
:103DE000EA01CE17DF07E8F54A815B819E014115A4
:103DF0005105B1F7E901FB83EA8349915991C40F59
:103E0000D51FEC17FD0761F4808191810296840F24
:103E1000951FE90199838883828193819B838A839B
:103E2000F0E0E0E012968D919C9113970097B9F520
:103E30002D913C911197CD010296820F931F2091F5
:103E40009506309196062817390739F6309751F5BF
:103E50001092980610929706B0939606A093950636
:103E6000BCCFD383C28340815181840F951FC81773
:103E7000D90761F44E5F5F4F88819981480F591FC0
:103E8000518340838A819B819383828321153105ED
:103E900009F0B0CFF0939806E09397069ECFFD010E
:103EA000DC01C0CF13821282D7CFB0E0A0E0EBE5F7
:103EB000FFE10C94D31D8C01009751F4CB010E94BB
:103EC000301E8C01C801CDB7DEB7E0E10C94EF1DC8
:103ED000FC01E60FF71F9C0122503109E217F3079E
:103EE00008F49DC0D901CD91DC911197C617D70771
:103EF00098F0C530D10530F3CE01049786179707A7
:103F000008F3C61BD70B2297C193D1936D937C9373
:103F1000CF010E94CC1ED6CF5B01AC1ABD0A4C016A
:103F20008C0E9D1EA0919706B0919806512C412CA5
:103F3000F12CE12C109731F5809195069091960621
:103F40008815990509F05CC04616570608F058C058
:103F50008091150190911601009741F48DB79EB79D
:103F60004091190150911A01841B950BE817F9072C
:103F700008F055C0F0939606E0939506F901718319
:103F80006083A0CF8D919C91119712966C9012979F
:103F900013967C901397A815B90559F56C0142E06A
:103FA000C40ED11CCA14DB0420F1AC014A195B0910
:103FB000DA011296159780F06282738251834083F2
:103FC000D9016D937C93E114F10471F0D70113963C
:103FD000FC93EE93129776CF22968C0F9D1FF901DA
:103FE00091838083F301EFCFF0939806E0939706D7
:103FF00069CF4816590608F42C017D01D3019ACFE8
:10400000CB010E94301E7C01009749F0AE01B8013F
:104010000E942720C8010E94CC1E870153CF10E0C8
:1040200000E050CF9111089581568A5108F48052D2
:1040300085580895FB01DC0104C08D910190801921
:1040400021F441505040C8F7881B990B0895FB019B
:10405000DC0102C001900D9241505040D8F7089504
:10406000FB01DC010D900020E9F7119701900D9202
:104070000020E1F70895FB01DC0101900D92002082
:10408000E1F70895FB01DC014150504030F08D9183
:104090000190801919F40020B9F7881B990B089535
:1040A000AEE0B0E0E6E5F0E20C94DF1D0D891E897C
:1040B00086E08C831A8309838FEF9FE79E838D832D
:1040C000AE01475E5F4F6F89788DCE0101960E94E9
:1040D0008C202F813885020F131FF80110822E9635
:1040E000E4E00C94FB1DAEE0B0E0E9E7F0E20C94F4
:1040F000E11D85E08C838B899C899A838983AE013D
:10410000495E5F4F6D897E89CE0101960E94F12341
:104110002E96E2E00C94FD1DABE0B0E0E2E9F0E2A7
:104120000C94D11D7C013B018A01FC01178216828F
:10413000838181FFC8C1CE0101965C01F7019381A3
:10414000F30193FD859193FF81913F01882309F449
:1041500053C1853239F493FD859193FF81913F01DD
:10416000853229F4B70190E00E945325E7CF912CC6
:10417000212C312CFFE1F31538F08B3211F190F442
:10418000803209F1833229F137FC3CC020ED280F41
:104190002A3050F536FE20C08AE0989E200D11246A
:1041A000922E06C08D3291F0803371F7689430F80A
:1041B000F30193FD859193FF81913F018111DACF46
:1041C00021C0689431F8689432F8F2CF689433F8DB
:1041D000EFCF689434F8ECCFEAE02E9E200D112446
:1041E000222E689435F8E4CF8E3229F436FC04C1CF
:1041F000689436F8DDCF8C3619F4689437F8D8CF48
:104200008836B1F2982F9F7D95549330E0F0833635
:10421000A1F18337C1F1833509F063C02801F2E0D1
:104220004F0E511CF801C080D180692D70E036FC22
:1042300002C06FEF7FEFC6010E9401254C01689418
:1042400037F882010AC00C5F1F4FFFE3F98388240F
:104250008394912C6501E89437F833FE2DC0522CDD
:104260008114910471F5552009F468CFB70180E2FB
:1042700090E00E9453255A94F6CFF80180818983FB
:104280000E5F1F4FE4CF2801F2E04F0E511CF801E2
:10429000C080D180692D70E036FC02C06FEF7FEFE7
:1042A000C6010E940C254C018201D5CFB70180E2E6
:1042B00090E00E9453252A942814190409F0B0F7BD
:1042C000CECFF60137FC859137FE81916F01B701A2
:1042D00090E00E94532551105A94F1E08F1A9108F2
:1042E000BFCF843619F0893609F077C0F80137FE60
:1042F0006BC060817181828193810C5F1F4FF32DB0
:10430000FF763F2E97FF09C0909580957095619537
:104310007F4F8F4F9F4F689437F82AE030E0A50118
:104320000E949B25C82ECA188C2C432C36FE0CC02C
:10433000E89440F8C91440F434FE05C032FC03C0D0
:10434000F32DFE7E4F2E892C44FE95C0FE01EC0D10
:10435000F11D8081803309F087C0242D297E422EF3
:10436000842D8870582E43FC95C040FE8FC09C2C35
:10437000821418F42C0C922C981844FE91C0B701AA
:1043800080E390E00E94532542FE09C088E790E058
:1043900041FE02C088E590E0B7010E945325C91490
:1043A00008F48AC0CA94D12C9FEFC91AD90ACA0C42
:1043B000DB1CF60182916F01B70190E00E9453254A
:1043C000AC14BD04B1F74FCF60817181072E000C92
:1043D000880B990B0E5F1F4F92CFD32CE894D4F823
:1043E0002AE030E0853739F1232D297FD22E8F3610
:1043F00001F148F48835A9F0F701868197812B9661
:10440000E2E10C94ED1D803749F08837A9F7D4FE1E
:1044100002C06894D2F820E130E00DC06894D4F86E
:10442000F6CF34FE03C0822F8660D82E20E132E022
:1044300002C028E030E0F801D7FE0FC06081718132
:10444000828193810C5F1F4FA5010E949B25C82E7E
:10445000CA183D2CE89437F867CF6081718190E0ED
:1044600080E00E5F1F4FF0CF42FC02C0839478CFF4
:104470008394839475CF842D867809F471CFF6CF19
:10448000B70180E290E00E94532583948214C0F328
:10449000512C73CF522C5818821408F46ECFF8CFD9
:1044A000842D867809F47BCF8BE241FE80E247FCC5
:1044B0008DE2B70190E071CFB70180E390E00E94F8
:1044C00053259A946CCF8FEF9FEF99CF20FD09C0B1
:1044D000FC0123FD05C022FF02C073836283518368
:1044E0004083089544FD17C046FD1DC0DB01FC015B
:1044F000AA0FBB1FEE1FFF1F1094D1F76A0F7B1F7F
:104500008E1F9F1F660F771F881F991F620F711DD7
:10451000811D911D089533E0660F771F881F991F35
:104520003150D1F7F3CF34E0F7CF0F931F93CF93F0
:10453000DF938C01C8010E941725EC0197FD08C08C
:104540000E94B51D892BB1F7B801CE010E948325C9
:10455000CE01DF91CF911F910F9108958F929F927D
:10456000AF92BF92EF92FF920F931F93CF93DF937F
:104570008C01D62F7A01B22E0E9417259C01332779
:104580002B32310529F02D323105A9F46894B7F8A2
:10459000D15061F480E0DF91CF911F910F91FF9096
:1045A000EF90BF90AF909F908F900895C8010E94A8
:1045B000172597FDEFCFCB2DCD7F2B2D2073F9F451
:1045C0008033E9F4AA24AA94AD0E89F0C8010E94B0
:1045D000172597FD0CC0282F2F7D283561F4C26464
:1045E000D25029F0C8010E94172597FF08C0812CDE
:1045F000912C54011BC0B6FE2BC0C260DA2D812C59
:10460000912C540120ED280F283028F1C4FD09C059
:104610002A3008F1C6FF05C02F7D3FEE320F36303D
:10462000C8F0B8010E948325C1FFB4CFC7FF08C0FE
:10463000B094A09490948094811C911CA11CB11CF6
:104640002C2FB501A401C7010E94662281E0A3CFEF
:10465000C261D4CF27504C2FC501B4010E947222F1
:104660004B015C01C260D15009F3C8010E941725BB
:1046700097FFC8CFD9CFA0E2B0E0E1E4F3E20C9419
:10468000D61D5C01962E7A01CE0101966C0180E266
:10469000F60111928A95E9F7F501B381890130E0BD
:1046A00020E0712C812CA0E041E050E0F801B3FD46
:1046B0008591B3FF8191982F8F01811107C010E080
:1046C00000E0C801A096EDE00C94F21D8E3519F4BF
:1046D0002115310541F1A21713064CF48D3549F12E
:1046E0008D3229F4811006C0882483941DC088204F
:1046F00009F464C0E92FE695E695E695EC0DFD2DED
:10470000F11D892F8770BA0101C0660F8A95EAF7FB
:104710008081682B6083791651F0971510F49F5FA4
:10472000E9CF9150E7CFA1E02F5F3F4FBFCF812C62
:10473000FBCF882019F08E8180628E83AA2359F0E6
:10474000F6019E012F5D3F4F8081809580833196D9
:10475000E217F307C9F788248394C5010E9417253F
:1047600097FD16C0E82FE695E695E695EC0DFD2D34
:10477000F11D208130E0AC014770552702C035950E
:1047800027954A95E2F720FD06C0B5010E948325D2
:10479000882069F094CFE114F10429F0F7018083B7
:1047A000C70101967C019A94812C9110D6CFE11417
:1047B000F10409F486CFF701108283CFE82FE69544
:1047C000E695E695EC0DFD2DF11D982F9770BA0139
:1047D00001C0660F9A95EAF79081692B6083782E65
:1047E000A3CFB0E0A0E0E7EFF3E20C94D41D6C019E
:1047F000EB015A01FC0117821682512CF601E3806D
:10480000FE01E3FC8591E3FE8191182FEF018823DF
:10481000E9F090E00E94B51D892B21F0C6010E94AD
:104820009522ECCF153241F4FE01E3FC1591E3FE35
:104830001191EF01153269F4C6010E94172597FD09
:104840008EC01817D9F2B6010E948325852D90E0FD
:104850008AC000E01A3231F4E3FC1591E3FE1191B5
:10486000EF0101E0F12C20ED210F2A3048F101FF8A
:1048700037C0FF2059F31836B1F11C3609F43DC09A
:10488000112321F3612F70E088E690E00E94F62466
:10489000892BE1F2912C812C00FD06C0F50180806E
:1048A0009180C50102965C011E3679F5F6014681BC
:1048B000578170E060E0202FC4010E9466229ECFE5
:1048C00002606F2D70E090E080E040E20E94722272
:1048D000F62EFE01E3FC1591E3FE1191EF01C3CF2B
:1048E000FF24FA94C8CFFE01E3FC1591E3FE119179
:1048F000EF01183609F0C4CF08600460FE01E3FC44
:104900001591E3FE1191EF01BBCF1336C1F401FD08
:1049100002C0FF24F394C6010E94172597FD1FC013
:104920008114910429F0F4018083C40101964C01A3
:10493000FA94F110F0CF00FD61CF53945FCF1B3597
:10494000B9F49E01A4016F2DC6010E943B23EC0126
:10495000892B89F7F6018381807309F477CF8FEF74
:104960009FEF511073CFCDB7DEB7EFE00C94F01D81
:10497000C6010E94952297FDF2CF1F36A9F130F4AF
:10498000143641F0193639F0006405C01337B9F018
:104990001537D1F70062202FA4016F2DC6010E94A8
:1049A000AE228111C8CFD6CF8114910429F0F40131
:1049B0006082C40101964C01FA94FF2071F0C60197
:1049C0000E9417253C0197FD08C00E94B51D892B48
:1049D00059F3B601C3010E9483258114910409F49F
:1049E000AACFF4011082A7CF0061D5CFFC010590BA
:1049F000061621F00020D9F7C00108953197CF01A4
:104A00000895FC010590615070400110D8F7809521
:104A100090958E0F9F1F0895FC016150704001908A
:104A20000110D8F7809590958E0F9F1F0895CF9312
:104A3000DF93EC012B8120FF1AC026FF0CC02F7BD7
:104A40002B838E819F8101969F838E838A8190E044
:104A5000DF91CF91089522FF18C0E881F98180810C
:104A6000082E000C990B009729F420622B838FEFFE
:104A70009FEFEECF3196F983E8832E813F812F5F40
:104A80003F4F3F832E839927E3CFEA85FB85099526
:104A900097FFF3CF2B81019621F080E2822B8B834D
:104AA000E6CF80E1FBCF0F931F93CF93DF93182FB7
:104AB000092FEB018B8181FD09C01FEF0FEF812FC3
:104AC000902FDF91CF911F910F91089582FF14C015
:104AD0002E813F818C819D81281739073CF4E88124
:104AE000F981CF0101969983888310838E819F81FC
:104AF00001969F838E83E3CFE885F985812F099501
:104B0000892BA1F3DACFFB01238120FF11C026FD01
:104B10000FC08F3F980771F082832F7D206423831D
:104B200026813781215031093783268399270895BB
:104B30008FEF9FEF0895FA01AA27283051F1203115
:104B400081F1E8946F936E7F6E5F7F4F8F4F9F4F21
:104B5000AF4FB1E03ED0B4E03CD0670F781F891F63
:104B60009A1FA11D680F791F8A1F911DA11D6A0F31
:104B7000711D811D911DA11D20D009F468943F91E4
:104B80002AE0269F11243019305D3193DEF6CF01E3
:104B90000895462F4770405D4193B3E00FD0C9F7A9
:104BA000F6CF462F4F70405D4A3318F0495D31FD16
:104BB0004052419302D0A9F7EACFB4E0A695979569
:104BC000879577956795BA95C9F70097610571053F
:104BD00008959B01AC010A2E069457954795379589
:104BE0002795BA95C9F7620F731F841F951FA01DE3
:104BF000089514E0C4E8D4E004C0FE010E942A1E17
:0C4C00002196C538D107C9F7F894FFCF02
:104C0C000000FF06FAD509006400214C4544000061
:104C1C0000FF00FF0000009906800021454F460070
:104C2C00002141434B00000021506F6C6C39000097
:104C3C000000215246494400000000000000000022
:104C4C000000000000000000000000000000000058
:104C5C000000FFFFFFFFFFFF6B006C006D0000000A
:104C6C000000500523050E0EF9041C050905FA0475
:104C7C00000000004409A408D108B0090209E008AA
:104C8C00F40800000000680CA4080E0E9508A20B96
:104C9C000D0A002142722C002C446F6E652E0036DA
:104CAC002E30342E3230323200312E352E3000215F
:104CBC00506F6C6C002152656C617900214E414340
:104CCC004B0053595300216865616465725F6265DE
:104CDC0067696E00216865616465725F656E64006A
:104CEC002173657475705F626567696E00536C61E2
:104CFC00766520726573706F6E647320746F002517
:104D0C00640057445420656E6461626C65640020D5
:104D1C002020493243205363616E6E65723A00461F
:104D2C006F756E643A20002028307800292020000E
:104D3C004B6579706164202864656661756C7429B3
:104D4C00004B65797061642F494F004F6C6564208E
:104D5C00202864656661756C7429004F6C6564006D
:104D6C00556E6B6E6F776E00493243207363616EC4
:104D7C0020636F6D706C657465002173657475705C
:104D8C005F656E64000A3D3D3D53544152543D3DB8
:104D9C003D0A005246494420737461727400417597
:104DAC007468206661696C65640072656164206674
:104DBC0061696C6564007265616420656D707479FD
:104DCC002064617461626C6F636B202D3E20696E90
:104DDC0076616C69640052464944207265616420B6
:104DEC0073756363656573005F0052464944206DBB
:104DFC0065737361676520616464696E6700524610
:104E0C00494420656E6400736C61766552657370FD
:104E1C006F6E64006E6F2062756666657220636CDF
:084E2C006561726E6365000010
:00000001FF
