:100000000C946F030C9497030C9497030C94C10DFC
:100010000C949C0D0C94770D0C9497030C949703FF
:100020000C9497030C9497030C9497030C949703E8
:100030000C9497030C9497030C9497030C949703D8
:100040000C94D50C0C9497030C94450D0C941F0D37
:100050000C9497030C9497030C9497030C949703B8
:100060000C94E60D0C949703AEB08180A1A6A83F36
:10007000AD8B32C8D300D580D91FDA12DB40AF0078
:1000800000000023002600290000030C0F30333C41
:100090003FC0C3CCCFF0F3FCFF2B2D2D2D2D2D2DEC
:1000A0002D2D2D2D2D2D2D2D2D2D2D2D2D2D2B00AF
:1000B0007C20202020456C656374726F73636170CF
:1000C00065202020207C002B2D2D2D2D2D2D2D2D3C
:1000D0002D2D2D2D2D2D2D2D2D2D2D2D2B00536323
:1000E000616E6E696E672E2E2E000A0A4932432019
:1000F0007363616E6E65723A005375636365737303
:1001000066756C001C620A0C206002020508070D6F
:10011000080204040507020402060706070707078A
:10012000070707070202070707050A070707080668
:100130000608080406070709080907090807080848
:10014000070C070806040604080903060606060647
:10015000050606020407020A060606060505050648
:10016000060A0606050602060809000000007E7E53
:10017000303007070007070000000000C0D8F8DE95
:10018000D8F8DE180030000030000000387C64FF32
:1001900064E4C8102020F02030103C7E427E3CC039
:1001A0002018E6F010F0E000000000300000001021
:1001B00030203010DCFE227EDC80602010302020D9
:1001C0002010302007070000F8FE07011070E080C3
:1001D0000107FEF880E07010120C3F0C12000000C6
:1001E0000000202020FC2020200000001000000043
:1001F0000000F070202020200000000000003030BF
:100200000080E07C1F03C0F030000000FCFE020212
:1002100002FEFC103020202030100404FEFE0000FE
:10022000202030302020040682C2623E1C20303064
:10023000202020200406222222FEDC103020202054
:100240003010C0A09884FEFE800000000030300016
:10025000001E1E1212F2E210302020203010F8FC96
:10026000161212F2E010302020203010020282E23A
:100270007A1E0600203010000000DCFE222222FE42
:10028000DC103020202030103C7E424242FEFC0038
:10029000202020301000181830301818F0706060DE
:1002A000909008080400000000101020909090909A
:1002B00090909000000000000000040808909060FA
:1002C00060201010000000000462721E0C0030302C
:1002D0000000F00CF4FA0AFAFA040CF00030205096
:1002E00050505010100080F8FE86FEF8803030002C
:1002F00000003030FEFE22223EFCC03030202020A4
:100300003010F8FC060202020400103020202010F9
:10031000FEFE02020206FCF83030202020301000E1
:10032000FEFE22222222303020202020FEFE222229
:100330002222303000000000F8FC06024242C2C413
:100340000010302020203030FEFE20202020FEFE35
:10035000303000000000303002FEFE02203030203D
:1003600000020202FEFE202020203010FEFE70D887
:100370008C060230300000103020FEFE000000002D
:100380000030302020202020FE0E3CF0C0300CFE3B
:10039000FE300000000000003030FE061C38E0C0D7
:1003A00000FE3000000000103030F8FC06020202AF
:1003B00006FCF8001030202020301000FEFE4242E3
:1003C000427E3C30300000000000F8FC06020202D1
:1003D00006FCF80010302060E0B09080FEFE226243
:1003E000E2BE1C0030300000001030201C3E3222E3
:1003F00062E2C410202020203010020202FEFE0221
:1004000002020000003030000000FEFE000000008C
:10041000FEFE10302020202030100E7EF080F07E76
:100420000E000030303000000E7EF080E03E3EE0F6
:1004300080F07E0E00003030000000003030000000
:10044000068EF870F88E0630300000003030060E50
:1004500018F0F0180E06000000303000000002C254
:10046000F23E0E02303020202020FFFF0101F0F08C
:100470008080031F7CE0800000000030F0C001019C
:10048000FFFF8080F0F010180C06060C181000001A
:1004900000000000000000000000000000000080DC
:1004A0008080808080808080010302000000C0E89E
:1004B0002828F8F0103020203030FFFF0808F8F02E
:1004C000303020203010F0F80808081010302020BC
:1004D0002010F0F80808FFFF103020203030F0F82E
:1004E0004848787010302020201008FEFF090900CD
:1004F00030300000F0F80808F8F810B0A0A0F07054
:10050000FFFF0808F8F0303000003030FBFB3030DF
:100510000008FBFB8080F070FFFF60F0980800305F
:10052000300000103020FFFF3030F8F81008F8F0ED
:100530001008F8F030300000303000003030F8F8AB
:100540000808F8F0303000003030F0F80808F8F013
:10055000103020203010F8F80808F8F0F0F02020D3
:100560003010F0F80808F8F810302020F0F0F8F813
:100570001018183030000000307848C8882020203B
:10058000301008FEFE08080010302020F8F80000A7
:10059000F8F810302020303038F8C0C0F83800109B
:1005A0003030100078F880C03838C080F8780030DB
:1005B000300000000030300018B8E0E0B8183030EB
:1005C0000000303038F8C0C0F8380090F0701000EB
:1005D00008C8E8781830302020202020FEDF0101F4
:1005E000000070F08080FFFFF0F00101DFFE2020AE
:1005F0008080F0700000E0101020408080700000CB
:10060000000000000000FE02020202020202FE30B0
:1006100020202020202020306800178040020A0A75
:100620004F4C454420696E6974206F6E20416464AC
:10063000726573733A203078000A72656C617920B4
:10064000696E6974207375636365737366756C0096
:10065000202E2E2E0A000A72656C617920696E695F
:1006600074206F6E20616464726573732000207360
:1006700075636365737366756C000A0A4C454420A4
:10068000696E6974202E2E2E0000000000240027C1
:10069000002A0000000000250028002B00040404AC
:1006A000040404040402020202020203030303031B
:1006B00003010204081020408001020408102001F8
:1006C00002040810200000000800020100000304DA
:1006D00007000000000000000000050F5414112462
:1006E0001FBECFEFD8E0DEBFCDBF24E0A2EDB2E069
:1006F00001C01D92A53EB207E1F712E0A0E0B1E013
:10070000EAE9FDE202C005900D92A23DB107D9F7DA
:1007100013E0CEE6D3E004C02197FE010E94C81486
:10072000CD36D107C9F70E94DA0F0C94C0160C948D
:10073000000090E0FC01EB53F94F2491FC01EF54D1
:10074000F94F3491FC01E356F94FE491EE23C9F0DF
:10075000222339F0233001F1A8F4213019F122309D
:1007600029F1F0E0EE0FFF1FED56F94FA591B4917E
:100770008FB7F894EC91611126C030953E233C93DD
:100780008FBF08952730A9F02830C9F0243049F7E9
:10079000809180008F7D03C0809180008F7780934F
:1007A0008000DFCF84B58F7784BDDBCF84B58F7DAC
:1007B000FBCF8091B0008F778093B000D2CF809133
:1007C000B0008F7DF9CF3E2BDACFCF93DF9390E04F
:1007D000FC01EF54F94F24918356994FFC01849109
:1007E0008823D1F090E0880F991FFC01E757F94F5B
:1007F000A591B491FC01ED56F94FC591D4916111C9
:100800000EC09FB7F8948C91E22FE0958E238C93C5
:100810002881E223E8839FBFDF91CF9108958FB7AE
:10082000F894EC91E22BEC938FBFF6CF3FB7F8949E
:100830008091760390917703A0917803B09179032A
:1008400026B5A89B05C02F3F19F00196A11DB11D2B
:100850003FBFBA2FA92F982F8827BC01CD01620F67
:10086000711D811D911D42E0660F771F881F991F22
:100870004A95D1F708958F929F92AF92BF92CF92EF
:10088000DF92EF92FF924B015C010E9416046B0114
:100890007C010E9416046C197D098E099F09683E2F
:1008A000734081059105A8F321E0821A9108A108FF
:1008B000B10888EEC80E83E0D81EE11CF11C81143B
:1008C0009104A104B10429F7FF90EF90DF90CF903D
:1008D000BF90AF909F908F90089508950895809154
:1008E0006D0390916E03891B990B0895AF92BF928F
:1008F000CF92DF92EF92FF920F931F93CF93DF93EC
:100900006C017B018B01040F151FEB015E01AE181A
:10091000BF08C017D10759F06991D601ED91FC913C
:100920000190F081E02DC6010995892B79F7C50169
:10093000DF91CF911F910F91FF90EF90DF90CF90BB
:10094000BF90AF900895FC01538D448D252F30E06A
:10095000842F90E0821B930B541710F0CF960895CC
:1009600001970895FC01918D828D981761F0A28DF9
:10097000AE0FBF2FB11D5D968C91928D9F5F9F73BF
:10098000928F90E008958FEF9FEF0895FC01918D75
:10099000828D981731F0828DE80FF11D858D90E0E2
:1009A00008958FEF9FEF0895FC01918D228D892F7F
:1009B00090E0805C9F4F821B91098F739927089567
:1009C0008AEC93E00E94D40421E0892B09F420E012
:1009D000822F089580E090E0892B29F00E94E004A6
:1009E00081110C9400000895FC01A48DA80FB92F6B
:1009F000B11DA35ABF4F2C91848D90E001968F7347
:100A00009927848FA689B7892C93A089B1898C9165
:100A1000837080648C93938D848D981306C00288B4
:100A2000F389E02D80818F7D80830895EF92FF927E
:100A30000F931F93CF93DF93EC0181E0888F9B8D01
:100A40008C8D98131AC0E889F989808185FF15C0BB
:100A50009FB7F894EE89FF896083E889F9898081DE
:100A60008370806480839FBF81E090E0DF91CF91AD
:100A70001F910F91FF90EF900895F62E0B8D10E0CF
:100A80000F5F1F4F0F731127E02E8C8D8E110CC03E
:100A90000FB607FCFACFE889F989808185FFF5CF89
:100AA000CE010E94F404F1CFEB8DEC0FFD2FF11D70
:100AB000E35AFF4FF0829FB7F8940B8FEA89FB89C6
:100AC00080818062CFCF0F931F93CF93DF938C01F0
:100AD000D0E0C0E0F801EC0FFD1F6491662341F007
:100AE0008AEC93E00E941605892B11F02196F2CF33
:100AF000CE01DF91CF911F910F910895CF93DF9396
:100B0000EC01888D8823B9F0AA89BB89E889F98925
:100B10008C9185FD03C0808186FD0DC00FB607FC5A
:100B2000F7CF8C9185FFF2CF808185FFEDCFCE018D
:100B30000E94F404E9CFDF91CF910895CF93DF9322
:100B4000EC019C818E81981758F4E881F98100842A
:100B5000F185E02D42E0CE0109958C818F5F8C8379
:100B6000DF91CF910895DC01ED91FC910084F18536
:100B7000E02D40E009940F931F93CF938C01FC016B
:100B80006483C085C60F6C2F6F700E94B3056C2FF5
:100B900062956F706061C801CF911F910F910C94A5
:100BA000B305FC012781269526952695621720F42A
:100BB0006583606B0C94B30508951F93CF93DF9307
:100BC000EC01142F8E81681718F4CE010E94BB052A
:100BD000612FCE01DF91CF911F910C94D105CF925F
:100BE000DF92EF92FF920F931F93CF93DF93EC016D
:100BF000162FC42ED22E8F8186958695869508173E
:100C000010F00FEF080FFD2C0F15B0F08E811817A4
:100C100020F4612FCE010E94BB056F2DCE010E94F2
:100C2000D105E12ECE1430F060E0CE010E949E0589
:100C3000E394F8CFF394E8CF4D2D612FCE01DF91EF
:100C4000CF911F910F91FF90EF90DF90CF900C9478
:100C5000DD052F923F924F925F926F927F928F921B
:100C60009F92AF92BF92CF92DF92EF92FF920F933B
:100C70001F93CF93DF9300D000D01F92CDB7DEB784
:100C8000DC011B960D911C910115110509F468C139
:100C90009D838C83F80144913196549131966490F0
:100CA00031962491E22EF12CF7E0EF0EF11C73E067
:100CB000F594E7947A95E1F7E982F8013496349156
:100CC0003196E491631748F08E2F90E0FC01E30F1A
:100CD000F11D6E171F060CF487C06D3031F5AC8125
:100CE000BD8116968C9181111AC081E090E00F9021
:100CF0000F900F900F900F90DF91CF911F910F9158
:100D0000FF90EF90DF90CF90BF90AF909F908F902B
:100D10007F906F905F904F903F902F90089560E08C
:100D20008C819D810E94BB05E0CF6A3009F018C11B
:100D3000EC81FD818185D5808E9DD00C1124878129
:100D4000869586958695D81630F08285882319F089
:100D500082E08287D12C4D2D60E08C819D810E94A4
:100D6000DD05AC81BD811A968C911A97823008F40A
:100D7000BCCF15962C9115971B96ED91FC911C9765
:100D800000E0309739F03396E49119960C91E09F8A
:100D9000002D112410E0095F1F4F33E015950795D2
:100DA0003A95E1F78FEF820F080FEC81FD814681C4
:100DB00041506481CF010E94EF05AC81BD8119963D
:100DC0008C9119976D2D8E9D600D1124660F660F05
:100DD000660F17968C91861708F460E060648C812A
:100DE0009D810E94B30581CF4527542745270A5F7F
:100DF0001F4F631BEC81FD8121844230510508F0B7
:100E00006DC0452B09F0212C6E9CC0016F9C900D8C
:100E10001124689FF001699FF00D11240E0F1F1F10
:100E2000512CAC81BD811496BC91BA83EC81FD81BB
:100E3000F581FB83862C912CAA24A394B12C312C10
:100E40008981381608F086C0412CAC81BD81199685
:100E50008C91481608F077C0311002C0442041F050
:100E6000EC81FD8145814F5F6A81CF010E94DD05E4
:100E7000D12CC12CC61408F05AC0F801EC0DFD1D90
:100E80007490552061F0EA14FB0449F4E72DF0E07A
:100E9000052C02C0F595E7950A94E2F77E2EAC8109
:100EA000BD8119968C91823081F4442009F43BC0B5
:100EB00072948FE07822E72DF0E0E757FF4F7490AF
:100EC000672D8C819D810E949E05672D8C819D815F
:100ED0000E949E05EFEFCE1ADE0ACCCF277038E0D5
:100EE000532E521A211101C0512C50E040E030E045
:100EF00020E0F801461740F4E40FF51FE4912E0FAF
:100F0000311D4F5F5F4FF5CFE60FF11D6490E29EFC
:100F1000F001E39EF00DF29EF00D11248E0F9F1F45
:100F2000080F191F7ECFB72DBF707B2EC4CFD12CD9
:100F30002D1439F060E08C819D810E949E05D39430
:100F4000F7CF439482CF3394080D191DFFEFAF1AEA
:100F5000BF0A76CF6B818C819D810E94D105C5CE61
:100F600090E080E0C4CE0F93CF93DF93EC010F812C
:100F700006950695069501504E81415020E060E0AF
:100F80000E94EF0581E09A85911101C080E08A8777
:100F900060E4CE01DF91CF910F910C94B3053F92A5
:100FA0004F925F926F927F928F929F92AF92BF9279
:100FB000CF92DF92EF92FF920F931F93CF93DF9325
:100FC000CDB7DEB729970FB6F894DEBF0FBECDBF01
:100FD0008C01B42E842F952FDB01A62E952E8B2FFE
:100FE0009927AA27BB27382E7C01D12CC12C38E0A9
:100FF000832ED80112968D919C911397C816D9060D
:1010000008F00FC13B2D18962C91492D5A2D222303
:1010100061F0A29EC0011124592F299DC001112405
:10102000492F2B9DC0011124392FD8011E96EC9118
:101030001E9719968D919C911A971B966C91E613A9
:10104000A0C0B601660F771F6C0D7D1D860F971F20
:10105000D8011B96EC911B97E80FF92FF11D5083D7
:101060001C96EC911C97E80FF92FF11D40831D96FB
:101070002C911D97820F911DFC01308319968D9143
:101080009C91892B09F479C0D8011F964D905D90F1
:101090006D907C9052970E94160464157505860524
:1010A000970538F40E941604F8016787708B818BCE
:1010B000928B0E941604D8011F964D905D906D9002
:1010C0007C90529764197509860997096C327140B2
:1010D00081059105C8F2F894F801848195819A837D
:1010E00089830184F285E02D3F012FEF621A720A95
:1010F00080818987D8019C915396ED91FC915497FA
:1011000055968C91992309F452C09081982B988719
:101110009081809589238F838F818C838B825885E2
:101120006F8149853B812C8189819A81D3015083CC
:1011300047FD252F3A952083262F39F0441F00C004
:1011400000006083000000C0F2CF38E04D91608362
:101150000000019761F7D8015496FC93EE935397E2
:1011600049873B832C839A83898378940E94160451
:10117000F8016787708B818B928BFFEFCF1ADF0AA4
:1011800038CFB601660F771F660F771F860F971F40
:10119000222359F02E9DB0012F9D700D1124272F71
:1011A000E80FF92FF11D208353CF232DF9CF908124
:1011B000982B98879081809589238F838F818E8348
:1011C0008D8258856F8149853D812E8189819A81E3
:1011D000D301508347FD252F00C000C0208300C0ED
:1011E00000C000C000C000C060830000262F3A95F8
:1011F00041F0441F000000C000C000C000C000C09B
:10120000E8CF38E04D9100C0608300C0019709F736
:10121000D8015496FC93EE93539749873D832E83D0
:10122000A2CF6AE070E080E090E029960FB6F894D3
:10123000DEBF0FBECDBFDF91CF911F910F91FF9009
:10124000EF90DF90CF90BF90AF909F908F907F9066
:101250006F905F904F903F900C943B0490E0FC01A6
:10126000EE0FFF1FED57FF4FA591B4912C91FC019C
:10127000EA5BFC4F30812083880F991FFC01E45FFB
:10128000FE4F0190F081E02D808108952091F302BE
:10129000260F3327331F21323105ECF42091A003B0
:1012A000FC0190E080E0243069F082E00895A09194
:1012B000F3022191AC014D525D4FA40FB52FB11D2A
:1012C0002C930196861798F38091F302680F609330
:1012D000F30280E0089581E008951092A00381E078
:1012E00080939F0310927A0361E082E10E94990348
:1012F00061E083E10E949903E9EBF0E080818E7F59
:10130000808380818D7F808388E48093B80085E42A
:101310008093BC000895CF93DF9391E09093D20225
:101320008823B9F0C091B800D091BA008091BC0078
:101330008A7B8093BC0060E082E10E94990360E0B8
:1013400083E10E9499030E946D09D093BA00C09373
:10135000B800DF91CF9108958F929F92AF92BF9284
:10136000CF92DF92EF92FF920F931F93CF93DF9371
:10137000D091C903D13208F0D7C0182FC091C8034B
:101380000E9416046B017C018091A00381116BC047
:1013900082E08093A00310939F038FEF80939E03BE
:1013A00010929D03D0939C03A8EAB3E0ECE7F3E02E
:1013B00080E0D81391C010927B0380917B03CC0F07
:1013C000C82BC0937B0380917A03813009F088C0D9
:1013D00010927A030E9416046B017C0180917B03BA
:1013E0008093BB008091A2039091A303A091A403DA
:1013F000B091A503892B8A2B8B2BA1F00E94160498
:101400000091A2031091A3032091A4033091A5039E
:101410006C197D098E099F090617170728073907D8
:1014200008F442C08091BC0083FDD8CF85EC809346
:10143000BC000E9416046B017C018091A0038230E5
:1014400009F450C080919E038F3F09F46FC08091D2
:101450009E03803209F46CC080919E03803309F4AE
:1014600069C084E026C08091A2039091A303A0915B
:10147000A403B091A503892B8A2B8B2B09F484CF6D
:101480000E9416048090A2039090A303A090A4034E
:10149000B090A5036C197D098E099F0986169706E1
:1014A000A806B90608F070CF8091A1030E948B09AD
:1014B00085E01092A7031092C9031092A603DF9152
:1014C000CF911F910F91FF90EF90DF90CF90BF9041
:1014D000AF909F908F9008959D9191938F5F69CF6A
:1014E00085EEA5CF8091A2039091A303A091A403C0
:1014F000B091A503892B8A2B8B2B09F49ECF0E94D8
:1015000016040091A2031091A3032091A40330912B
:10151000A5036C197D098E099F090617170728076F
:10152000390708F08ACFC0CF81E0C3CF80E0C1CFB8
:1015300082E0BFCF83E0BDCF0895E0916E0380913C
:101540006D03E81730F4F0E0E75BFC4F808190E03A
:1015500008958FEF9FEF089590916E0380916D0332
:101560002FEF3FEF981748F4E92FF0E0E75BFC4FCF
:10157000208130E09F5F90936E03C9010895CF9260
:10158000DF92EF92FF920F931F93CF93DF937C0133
:10159000CB018A012091A603222389F0EB016B0184
:1015A000C40ED51ECC15DD0569F06991D701ED910A
:1015B000FC910190F081E02DC7010995F3CF642FD4
:1015C0000E944609C801DF91CF911F910F91FF90B2
:1015D000EF90DF90CF900895CF93DF931F92CDB718
:1015E000DEB769832091A6032223F9F02091C90375
:1015F000203258F021E030E0FC013383228390E078
:1016000080E00F90DF91CF9108958091A703E82F9C
:10161000F0E0E855FC4F998190838F5F8093A7039A
:101620008093C90381E090E0ECCF61E0CE010196A8
:101630000E944609F7CFE4E7F4E09181628180815E
:10164000238131E03093A6032093C8031092A703AF
:101650001092C90360956923682B87E694E00E9485
:10166000EC0A81E00C94AC090F931F93CF93DF93A6
:10167000EC01062F142F8E85813120F4882331F060
:10168000411104C081E00E94AC091E868E85811143
:1016900012C08D8591E09093A6038093C8031092A9
:1016A000A7031092C90360E4111101C060E087E64E
:1016B00094E00E94EC0A602F87E694E00E94EC0A16
:1016C000123041F48E858F5F8E87DF91CF911F910D
:1016D0000F91089581E00E94AC091E86F6CF08950F
:1016E00090E080E00895FC0180819181009711F0E5
:1016F0000C946A150895FB0101900020E9F73197D9
:10170000AF01461B570BDC01ED91FC910280F38188
:10171000E02D09948F929F92AF92BF920F931F93E7
:10172000CF93DF93CDB7DEB7A1970FB6F894DEBFA6
:101730000FBECDBF19A2423008F44AE08E010F5D02
:101740001F4F842E912CB12CA12CA50194010E9435
:10175000A614E62FB901CA01EA3004F5E05DD8010C
:10176000EE938D01232B242B252B79F790E080E03D
:10177000109729F0BD018AEC93E00E947B0BA196A3
:101780000FB6F894DEBF0FBECDBFDF91CF911F9192
:101790000F91BF90AF909F908F900895E95CDFCF3D
:1017A000CF92DF92EF92FF92CF93DF936B017C0198
:1017B0006DE28AEC93E00E941605EC01662777271C
:1017C000CB016C197D098E099F094AE00E948A0BA2
:1017D0008C0F9D1FDF91CF91FF90EF90DF90CF9006
:1017E000089564E471E00C947B0BCF93DF930E9427
:1017F0006305EC018AEC93E00E94F10B8C0F9D1FB6
:10180000DF91CF9108950F931F93CF93DF93EC0156
:101810000E947B0B8C01CE010E94F10B800F911F67
:10182000DF91CF911F910F9108950F931F93CF9345
:10183000DF93EC018B0161E08EE00E9499038AEC5A
:1018400093E00E94F10B67E471E08AEC93E00E9460
:101850007B0BF80144815581608171818AEC93E0B2
:101860000E9476046AE471E08AEC93E00E947B0BAC
:101870004C815D81688179818AEC93E00E947604D5
:101880006CE471E08AEC93E00E94030C62E370E088
:1018900080E090E00E943B0460E08EE0DF91CF9119
:1018A0001F910F910C949903EF92FF920F931F9346
:1018B000CF93DF93EC017B01198218821B821A827D
:1018C0001D821C82FB0101900020E9F731978F01F6
:1018D000061B170BB8016F5F7F4F90E080E00E94FE
:1018E000F3150097B9F0998388831B830A832C81B1
:1018F0003D81232B11F4FC0110821D830C83B70161
:1019000088819981DF91CF911F910F91FF90EF9086
:101910000C94B91688819981009711F00E946A157C
:10192000198218821D821C821B821A82DF91CF913C
:101930001F910F91FF90EF90089585ED8093BC006B
:101940008091A2039091A303A091A403B091A50359
:101950000796A11DB11D23E0B695A795979587958C
:101960002A95D1F72091BC0024FD03C01092A0035A
:1019700008954091A2035091A3036091A403709134
:10198000A503452B462B472B69F30097A105B1050D
:1019900041F025E32A95F1F700000197A109B1096B
:1019A000E1CF8091A1030C948B091F920F920FB687
:1019B0000F9211242F933F938F939F93AF93BF93D5
:1019C0008091720390917303A0917403B091750399
:1019D0003091710323E0230F2D3758F50196A11D97
:1019E000B11D209371038093720390937303A093AE
:1019F0007403B09375038091760390917703A0915F
:101A00007803B09179030196A11DB11D80937603EF
:101A100090937703A0937803B0937903BF91AF912C
:101A20009F918F913F912F910F900FBE0F901F901C
:101A3000189526E8230F0296A11DB11DD2CF1F9243
:101A40000F920FB60F9211242F933F934F935F93F2
:101A50006F937F938F939F93AF93BF93EF93FF9376
:101A60008AEC93E00E94F404FF91EF91BF91AF9153
:101A70009F918F917F916F915F914F913F912F91A6
:101A80000F900FBE0F901F9018951F920F920FB6D8
:101A90000F9211242F938F939F93EF93FF93E091D5
:101AA000DA03F091DB038081E091E003F091E10340
:101AB00082FD1BC090818091E3038F5F8F73209123
:101AC000E403821741F0E091E303F0E0E653FC4FBA
:101AD000958F8093E303FF91EF919F918F912F91C9
:101AE0000F900FBE0F901F9018958081F4CF1F921A
:101AF0000F920FB60F9211242F933F934F935F9342
:101B00006F937F938F939F93AF93BF93EF93FF93C5
:101B100082E00E942E09FF91EF91BF91AF919F91BA
:101B20008F917F916F915F914F913F912F910F9086
:101B30000FBE0F901F9018951F920F920FB60F9225
:101B400011242F933F934F935F936F937F938F93C2
:101B50009F93AF93BF93EF93FF9381E00E942E0971
:101B6000FF91EF91BF91AF919F918F917F916F9175
:101B70005F914F913F912F910F900FBE0F901F904B
:101B800018951F920F920FB60F9211242F933F9327
:101B90004F935F936F937F938F939F93AF93BF9375
:101BA000EF93FF9380E00E942E09FF91EF91BF9188
:101BB000AF919F918F917F916F915F914F913F91E5
:101BC0002F910F900FBE0F901F9018951F920F929C
:101BD0000FB60F9211242F933F934F935F936F9300
:101BE0007F938F939F93AF93BF93EF93FF938091D6
:101BF000B900887F803609F44AC0F0F5883209F4CC
:101C0000A7C018F5803109F49BC0B8F4882309F403
:101C1000F9C0883009F494C0FF91EF91BF91AF9162
:101C20009F918F917F916F915F914F913F912F91F4
:101C30000F900FBE0F901F901895883109F488C03F
:101C4000803251F780939E0314C0803409F49DC004
:101C500040F48033B9F38833F9F680939E0385EC22
:101C6000B0C0803509F485C0883509F496C0883441
:101C700099F60E949D0CD0CF883909F48CC038F5B4
:101C8000883729F050F4883611F0803729F683E040
:101C90008093A0031092150357C0883809F47BC0C5
:101CA000803919F0803809F0B7CF80911503803260
:101CB00008F071C0E091150381E08E0F8093150349
:101CC0008091BB00F0E0EB50FD4F80833DC0803B36
:101CD00039F0E0F4803A09F479C0883A09F09CCFF1
:101CE00084E08093A0031092F4021092F302E0913A
:101CF0006B03F0916C0309958091F30281110FC081
:101D000081E08093F3021092D30209C0803C09F471
:101D1000A6CF883C09F4A3CF883B09F07DCFE091A2
:101D2000F40281E08E0F8093F402F0E0ED52FD4F5B
:101D300080818093BB009091F4028091F30229C0CE
:101D400080917B038093BB0085EC8093BC0064CFC3
:101D500090919D0380919C03981758F5E0919D0305
:101D600081E08E0F80939D03F0E0E458FC4F80816A
:101D7000E9CFE0919D0381E08E0F80939D038091D8
:101D8000BB00F0E0E458FC4F808390919D0380916C
:101D90009C039817C8F285E8D8CFE0919D0381E0B5
:101DA0008E0F80939D038091BB00F0E0E458FC4FC0
:101DB000808380919F0381115CCF81E080937A03BF
:101DC00084EA8093BC001092A00326CF85EC809318
:101DD000BC001092A00380911503803230F4E09192
:101DE0001503F0E0EB50FD4F10826091150370E099
:101DF000E0916903F0916A0385EF92E009951092F2
:101E000015030ACF10929E0334CFEF92FF921F93D7
:101E1000CF93DF93EAECF3E01382128288EE93E033
:101E2000A0E0B0E084839583A683B78326E131E008
:101E30003183208325EC30E03587248724EC30E0A3
:101E40003787268720EC30E0318B208B21EC30E087
:101E5000338B228B22EC30E0358B248B26EC30E068
:101E6000378B268B118E128E138E148EE7E6F4E0DC
:101E70001382128284839583A683B78388E291E0DC
:101E80009183808363E571E08BED94E00E94540CB4
:101E90006DE571E085ED94E00E94540C63E671E01D
:101EA0008FEC94E00E94540CE0ECF4E01382128278
:101EB00081E08187148613862AE331E03183208311
:101EC000EAEAF4E08083118213821282158214827E
:101ED0002FEF3FEF37832683108612861186838784
:101EE000148692E0958786871786108A118A128A4F
:101EF00080E090E0A8E7B0E08093A6049093A70468
:101F0000A093A804B093A90483E9E82E84E0F82EF6
:101F10001FEFF701108311838CE190E00E94CE1433
:101F2000EC0188E08B871E871D871C8783E794E080
:101F3000998388831B8E82E090E00E94CE1421E773
:101F4000FC01208311829B838A8380E492E4AFE0CA
:101F5000B0E08C839D83AE83BF83198618861A8672
:101F6000F701D28BC18BE4E7F4E010821182128278
:101F700013821482158216821782108611861286A9
:101F80001386148615861686108A1786128A118A79
:101F9000148A138A168A158A108E178A128E118E49
:101FA000148E138E168E158EDF91CF911F91FF9098
:101FB000EF900895CF93DF93CDB7DEB72C970FB690
:101FC000F894DEBF0FBECDBF789484B5826084BD27
:101FD00084B5816084BD85B5826085BD85B581602D
:101FE00085BD80916E00816080936E0010928100AB
:101FF0008091810082608093810080918100816066
:102000008093810080918000816080938000809126
:10201000B10084608093B1008091B00081608093B2
:10202000B00080917A00846080937A0080917A0079
:10203000826080937A0080917A00816080937A0038
:1020400080917A00806880937A001092C10010928B
:102050006E0310926D031092A7031092C9030E94A1
:102060006D098DE694E090936C0380936B038EE68C
:1020700094E090936A038093690388E48093B800A6
:10208000E091DA03F091DB0382E08083E091D603F4
:10209000F091D7031082E091D803F091D90380E149
:1020A00080831092E203E091DE03F091DF0386E08B
:1020B0008083E091DC03F091DD0380818061808387
:1020C000E091DC03F091DD03808188608083E09102
:1020D000DC03F091DD03808180688083E091DC0384
:1020E000F091DD0380818F7D808364E670E080E085
:1020F00090E00E943B0461E08EE00E94E50387ECE3
:1021000090E00E94F50B80EB90E00E94F50B89E9CE
:1021100090E00E94F50B64E170E080E090E00E94A6
:102120003B0463E771E0CE0101960E94540C67E71F
:1021300071E0CE0107960E94540CBE016F5F7F4F85
:10214000CE0107960E94150CCE0107960E94730BD4
:10215000CE0101960E94730B63E771E0CE010196F8
:102160000E94540C65E871E0CE0107960E94540C61
:10217000BE016F5F7F4FCE0107960E94150CCE0106
:1021800007960E94730BCE0101960E94730B63E7C2
:1021900071E0CE0101960E94540C61E971E0CE011C
:1021A00007960E94540CBE016F5F7F4FCE010796C9
:1021B0000E94150CCE0107960E94730BCE0101966A
:1021C0000E94730B6EE971E08AEC93E00E94030CAD
:1021D00088E199E20FB6F894A895809360000FBE4D
:1021E00090936000A8958AEE90E00E94F50B8EED2A
:1021F00090E00E94F50B6AE070E080E090E00E94C1
:102200003B0478E0C72ED12CE12CF12C00E0BB245C
:10221000B3941C2DB092A603C092C8031092A703DA
:102220001092C90381E00E94AC0981113BC06BEAA6
:1022300071E08AEC93E00E947B0B6BEB71E08AEC1F
:1022400093E00E947B0B40E1C701B6010E948A0B1C
:1022500060EC71E08AEC93E00E947B0B1C3358F435
:1022600065ED71E0193398F464EC71E0183379F09E
:102270006AEF71E00CC06FEE71E01D3341F06FED5D
:1022800071E01D3320F064EF71E01F3389F78AECB1
:1022900093E00E94030C0F5F61E070E080E090E04B
:1022A0000E943B048FEFC81AD80AE80AF80AA8E788
:1022B000CA16D104E104F10409F0ABCF6DE471E07A
:1022C0008AEC93E00E94030C62E072E08AEC93E0F7
:1022D0000E947B0B602F70E090E080E04AE00E945B
:1022E0008A0B69E072E08AEC93E00E94030C6AE0DA
:1022F00070E080E090E00E943B04A8958EE196E0BB
:102300000E94630540E16CE370E080E090E00E9491
:102310008A0B8AEC93E00E94F10B6AE070E080E0A7
:1023200090E00E943B041092CE048CE38093CD0495
:102330001092C4041092C504E8E1F6E0C590D49070
:10234000EAE1F6E0F490EBE1F6E0E491E093C60414
:10235000ECE1F6E0E491E093C704EDE1F6E0E4910E
:10236000E093C80410E000E00F1558F4F601E00F08
:10237000F11F649180EC94E00E94B3050F5F1F4F42
:10238000F3CF1092CA0480EC94E00E94B3078091CE
:10239000C704803439F480EC94E00E94B30781E0F4
:1023A0008093CA0484E091E09093CC048093CB04A2
:1023B00080EC94E00E94B30765E172E080EC94E069
:1023C0000E94030C89EF90E00E94F50B6AE070E038
:1023D00080E090E00E943B04A89586E596E00E948C
:1023E00063054AE06FE370E080E090E00E948A0BB2
:1023F00080E596E00E9463058FE380937704109256
:102400006E0310926D031092A7031092C9030E94ED
:102410006D098DE694E090936C0380936B038EE6D8
:1024200094E090936A03809369038091750480938C
:102430007804109177040E9416046B017C0180914E
:10244000A003811164C081E08093A00380939F0367
:102450009FEF90939E0310929D0310929C03809394
:102460007B0380917B03110F182B10937B038091CA
:102470007A03813009F078C010927A030E94160422
:102480006B017C0180917B038093BB008091A20350
:102490009091A303A091A403B091A503892B8A2B4B
:1024A0008B2BA1F00E9416040091A2031091A303AC
:1024B0002091A4033091A5036C197D098E099F0911
:1024C000061717072807390708F442C08091BC0097
:1024D00083FDD8CF85EC8093BC000E9416046B016D
:1024E0007C018091A003813009F440C080919D035C
:1024F00081115EC080919D03ECE7F3E0A9E4B3E0B5
:1025000090E0981751F121912D939F5FFACF809120
:10251000A2039091A303A091A403B091A503892BDA
:102520008A2B8B2B09F48BCF0E9416048090A20378
:102530009090A303A090A403B090A5036C197D090B
:102540008E099F0986169706A806B90608F077CF68
:102550008091A1030E948B0980E010926E0380930A
:102560006D03811127C0FFCF85EEB5CF8091A20307
:102570009091A303A091A403B091A503892B8A2B6A
:102580008B2B09F4AECF0E9416040091A203109188
:10259000A3032091A4033091A5036C197D098E0932
:1025A0009F09061717072807390708F09ACFD0CFD9
:1025B00081E0A2CF87E694E00E94AC0A8093750484
:1025C0002091760401E010E0C80100906F0302C082
:1025D000880F991F0A94E2F7922F982B9093760414
:1025E0009091740480958923809374040E941B0B3E
:1025F00000906F0302C0000F111F0A94E2F7809150
:102600000401811147C1809174040095082300934F
:1026100074040E941B0B69E272E08AEC93E00E9452
:102620007B0B6FE272E08AEC93E00E947B0B60917F
:102630006F0370917003072E000C880B990B97FDA8
:102640002DC14AE00E948A0B67E372E08AEC93E0B6
:102650000E947B0B6091040170910501072E000C14
:10266000880B990B97FD1DC14AE00E948A0B8AECEA
:1026700093E00E94F10B89E396E00E94F50BA89588
:102680008AE796E00E94630540E0842E41E0942EA4
:1026900052E0652E51E0752E0AEA14E05524539459
:1026A00062E0462EF401E190F1904F01D301AD902C
:1026B000BD903D016501CC0CDD1CCA0CDB1CC601C4
:1026C0000E94CE14009721F4D12CC12CB12CA12C46
:1026D000F701E356F94FE491F0E0EE0FFF1FED56DE
:1026E000F94F25913491F701EF54F94FE491D80156
:1026F0005C9211961C9211971396BC92AE9212970F
:102700001596DC92CE9214971796FC92EE9216973D
:1027100018961C9218971A969C938E9319971B964D
:102720005C921B971C964C921C971D961C921D97B1
:102730001E965C921E971F961D921D921D921C92D2
:10274000529754963C932E9353975596EC930E9430
:102750006A15F7FC04C060E08E2D0E94E503F801C5
:102760008681978197FD09C061E00E94E50360E0E2
:10277000D80116968C910E949903F801518240E08D
:1027800050E0BA018AEA94E00E94CF0740E050E0AE
:10279000BA0180EC94E00E94CF070A5E1F4FF4E07C
:1027A0008F16F1E09F0609F07DCF68E270E080E0CF
:1027B00090E00E943B048EE696E00E94F50B6AE0F2
:1027C00070E080E090E00E943B048AEC93E00E947D
:1027D000F10B63E771E0CE0101960E94540C61E4B5
:1027E00072E0CE0107960E94540CBE016F5F7F4FCE
:1027F000CE0107960E94150CCE0107960E94730B1E
:10280000CE0101960E94730B8AEC93E00E94F10BBB
:102810006CE472E08AEC93E00E94030C8AEC93E093
:102820000E94F10B6AE772E08AEC93E00E94030CCD
:1028300080EC94E00E94B3076FEA72E080EC94E0D1
:102840000E94030C809174048E7F809374040E9414
:102850001B0BC090A604D090A704E090A804F090B1
:10286000A904B701A6018AEA94E00E94CF07B70144
:10287000A60180EC94E00E94CF0700E010E0A8954C
:1028800001151105E1F30E94E0048823C1F30E94C1
:102890000000F5CF80917404082BB9CE0E94D00BB4
:1028A000D3CE0E94D00BE3CE8091B3049091B404B8
:1028B0000E946A158091B0049091B10497FD03C005
:1028C00060E00E94E5038FEC94E00E94730B85EDBD
:1028D00094E00E94730B8BED94E00C94730B2F9299
:1028E0003F924F925F926F927F928F929F92AF92A0
:1028F000BF92CF92DF92EF92FF920F931F93CF93ED
:10290000DF93CDB7DEB7CA1BDB0B0FB6F894DEBF83
:102910000FBECDBF09942A88398848885F846E84A9
:102920007D848C849B84AA84B984C884DF80EE80F3
:10293000FD800C811B81AA81B981CE0FD11D0FB6FC
:10294000F894DEBF0FBECDBFED010895A1E21A2EAF
:10295000AA1BBB1BFD010DC0AA1FBB1FEE1FFF1F43
:10296000A217B307E407F50720F0A21BB30BE40B93
:10297000F50B661F771F881F991F1A9469F76095DA
:102980007095809590959B01AC01BD01CF01089594
:10299000EE0FFF1F0590F491E02D09940F931F9304
:1029A000CF93DF938230910510F482E090E0E091C4
:1029B000E304F091E40430E020E0B0E0A0E03097E0
:1029C00099F42115310509F44AC0281B390B24302C
:1029D0003105D8F58A819B816115710589F1FB016B
:1029E00093838283FE0111C0408151810281138152
:1029F00048175907E0F04817590799F4109761F004
:102A000012960C93129713961C933296CF01DF9176
:102A1000CF911F910F9108950093E3041093E40464
:102A2000F4CF2115310551F04217530738F0A901B1
:102A3000DB019A01BD01DF01F801C1CFEF01F9CF40
:102A40009093E4048093E304CDCFFE01E20FF31FE3
:102A5000819391932250310939832883D7CF2091D4
:102A6000E1043091E204232B41F4209108013091DC
:102A700009013093E2042093E10420910601309192
:102A800007012115310541F42DB73EB740910A01E8
:102A900050910B01241B350BE091E104F091E2040D
:102AA000E217F307A0F42E1B3F0B2817390778F025
:102AB000AC014E5F5F4F2417350748F04E0F5F1F84
:102AC0005093E2044093E104819391939FCFF0E00F
:102AD000E0E09CCFCF93DF930097E9F0FC013297C1
:102AE00013821282A091E304B091E404ED0130E07E
:102AF00020E01097A1F420813181820F931F209153
:102B0000E1043091E2042817390709F061C0F0931D
:102B1000E204E093E104DF91CF910895EA01CE173A
:102B2000DF07E8F54A815B819E0141155105B1F748
:102B3000E901FB83EA8349915991C40FD51FEC1732
:102B4000FD0761F4808191810296840F951FE90150
:102B500099838883828193819B838A83F0E0E0E07C
:102B600012968D919C9113970097B9F52D913C91F8
:102B70001197CD010296820F931F2091E1043091AD
:102B8000E2042817390739F6309751F51092E4041A
:102B90001092E304B093E204A093E104BCCFD3838A
:102BA000C28340815181840F951FC817D90761F4F2
:102BB0004E5F5F4F88819981480F591F5183408331
:102BC0008A819B81938382832115310509F0B0CFDF
:102BD000F093E404E093E3049ECFFD01DC01C0CF59
:102BE00013821282D7CFB0E0A0E0E9EFF5E10C94B8
:102BF00071148C01009751F4CB010E94CE148C010A
:102C0000C801CDB7DEB7E0E10C948D14FC01E60FEE
:102C1000F71F9C0122503109E217F30708F49DC009
:102C2000D901CD91DC911197C617D70798F0C5301F
:102C3000D10530F3CE0104978617970708F3C61B1A
:102C4000D70B2297C193D1936D937C93CF010E94B0
:102C50006A15D6CF5B01AC1ABD0A4C018C0E9D1EC5
:102C6000A091E304B091E404512C412CF12CE12C0F
:102C7000109731F58091E1049091E204881599054F
:102C800009F05CC04616570608F058C0809106014E
:102C900090910701009741F48DB79EB740910A01CA
:102CA00050910B01841B950BE817F90708F055C0EC
:102CB000F093E204E093E104F90171836083A0CF13
:102CC0008D919C91119712966C90129713967C900F
:102CD0001397A815B90559F56C0142E0C40ED11C33
:102CE000CA14DB0420F1AC014A195B09DA0112961F
:102CF000159780F06282738251834083D9016D936E
:102D00007C93E114F10471F0D7011396FC93EE93D8
:102D1000129776CF22968C0F9D1FF90191838083A5
:102D2000F301EFCFF093E404E093E30469CF481696
:102D3000590608F42C017D01D3019ACFCB010E94E2
:102D4000CE147C01009749F0AE01B8010E94B01684
:102D5000C8010E946A15870153CF10E000E050CFF0
:102D6000FB01DC0102C001900D9241505040D8F7A8
:102D70000895FB01DC0101900D920020E1F7089518
:102D800013E0CEE6D3E004C0FE010E94C8142196F1
:0A2D9000CF36D107C9F7F894FFCF42
:102D9A0009001F0001000000E50480006B006C00C0
:102DAA006D000000000016057604A3047E05D40415
:102DBA00B204C60400000000EC0ABF0A700B9C0AA9
:102DCA006F04AC0A9D0A0000000029067604700B05
:102DDA006F0B340B0D0A002142722C002C446F6ECB
:102DEA00652E00362E30342E3230323200312E34F7
:102DFA002E3300454E545F53545F425245414B4F68
:102E0A0055540053595300216865616465725F62C5
:102E1A006567696E00216865616465725F656E64E5
:102E2A00002173657475705F626567696E00574447
:102E3A005420656E6461626C656400466F756E64E9
:102E4A0020616464726573733A2000202830780028
:102E5A00292020004B6579706164202864656661C9
:102E6A00756C7429004B65797061642F494F004F66
:102E7A006C656420202864656661756C7429004F4E
:102E8A006C65640052656C617900556E6B6E6F7784
:102E9A006E00466F756E642000206465766963650E
:102EAA002873292E00202053797374656D2073745A
:102EBA0061727475702E2E2E002020202020005260
:102ECA00656C6179205B005D2073657420746F20E6
:102EDA00002173657475705F656E64003D3D3D3D0C
:102EEA003D3D3D3D3D3D3D3D3D3D3D3D3D3D3D53F2
:102EFA00544152543D3D3D3D3D3D3D3D3D3D3D3DB1
:102F0A003D3D3D3D3D3D3D3D3D0047616D65206791
:102F1A006F696E67206C6976652C206B696C6C69C9
:102F2A006E67206C696768747320616E64206C6FC9
:102F3A00636B696E672074686520646F6F720047FF
:102F4A00616D65206C6976650A206B696C6C696EC7
:102F5A0067206C69676874730A206C6F636B696EAB
:022F6A006700FE
:00000001FF
