:100000000C94FC010C9424020C9424020C940D1901
:100010000C94E8180C94C3180C9424020C94240239
:100020000C9424020C9424020C9424020C942402B8
:100030000C9424020C9424020C9424020C942402A8
:100040000C9432190C9424020C94A2190C947C196F
:100050000C9424020C9424020C9424020C94240288
:100060000C94D4190C9424026364696E6F707375D8
:1000700078585B00AEB08180A1A6A83FAD8B32C896
:10008000D300D580D91FDA12DB40AF2B2D2D2D2DBB
:100090002D2D2D2D2D2D2D2D2D2D2D2D2D2D2D2D90
:1000A0002B007C20202020456C656374726F736385
:1000B000617065202020207C000A0A2B2D2D2D2D1B
:1000C0002D2D2D2D2D2D2D2D2D2D2D2D2D2D2D2D60
:1000D0002B00000005072060000000000000005F0A
:1000E00000000007000700147F147F14242A7F2AD1
:1000F0001223130864623649562050000807030093
:10010000001C2241000041221C002A1C7F1C2A08DE
:10011000083E080800807030000808080808000041
:1001200060600020100804023E5149453E00427FB5
:10013000400072494949462141494D331814127F04
:100140001027454545393C4A4949314121110907A4
:100150003649494936464949291E00001400000025
:1001600040340000000814224114141414140041F7
:1001700022140802015909063E415D594E7C1211B4
:10018000127C7F494949363E414141227F414141EC
:100190003E7F494949417F090909013E4141517367
:1001A0007F0808087F00417F41002040413F017FD8
:1001B000081422417F404040407F021C027F7F04A0
:1001C00008107F3E4141413E7F090909063E4151E9
:1001D000215E7F09192946264949493203017F01D9
:1001E000033F4040403F1F2040201F3F4038403FDA
:1001F000631408146303047804036159494D4300F0
:100200007F4141410204081020004141417F040226
:1002100001020440404040400003070800205454BD
:1002200078407F284444383844444428384444289B
:100230007F385454541800087E090218A4A49C78EE
:100240007F0804047800447D40002040403D007F4A
:100250001028440000417F40007C047804787C082A
:100260000404783844444438FC18242418182424FE
:1002700018FC7C08040408485454542404043F44E3
:10028000243C4040207C1C2040201C3C4030403C12
:1002900044281028444C9090907C4464544C440072
:1002A00008364100000077000000413608000201D6
:1002B0000204023C2623263C537563636573736610
:1002C000756C007400178040020A0A4F4C454420A8
:1002D000696E6974206F6E20416464726573733A4D
:1002E0002030780052657374617274696E6720699A
:1002F0006E000A5246494420696E6974202E2E2EE3
:10030000205375636365737366756C200A004669D4
:10031000726D77617265207665722E2000466F756A
:100320006E64206368697020504E3500504E35333E
:100330003220737461727475702074696D65642005
:100340006F7574004469646E27742066696E64205A
:10035000504E35337820626F6172640A000A52464B
:10036000494420696E6974202E2E2E200A002073C5
:1003700075636365737366756C000A0A4C454420A7
:10038000696E6974202E2E2E0000030C0F30333C52
:100390003FC0C3CCCFF0F3FCFF00000000240027D7
:1003A000002A00000000080002010000030407000A
:1003B00000000000000000000000002300260029CB
:1003C00000010204081020408001020408102001EE
:1003D000020408102000000000250028002B000463
:1003E00004040404040404020202020202030303DC
:1003F00003030300F31A121F11241FBECFEFD8E02E
:10040000DEBFCDBF27E0A4E8B3E001C01D92A0315C
:10041000B207E1F713E0A0E0B1E0E0EAFFE402C0D8
:1004200005900D92A438B107D9F711E0CBEFD1E0D8
:1004300004C02197FE010E94EF1FCA3FD107C9F7F0
:100440000E94C81C0C94C3270C9400008FB7F8942A
:1004500080913B048FBF08958CBD9DBD089590E0B1
:10046000FC01EE0FFF1FE554FC4FA591B4912C91B8
:10047000FC01E85CFB4F30812083880F991FFC0151
:10048000EA5AFE4F0190F081E02D8081089583307B
:1004900081F028F4813099F08230A9F008958730F6
:1004A000A9F08830C9F08430B1F4809180008F7D4C
:1004B00003C0809180008F7780938000089584B579
:1004C0008F7784BD089584B58F7DFBCF8091B00078
:1004D0008F778093B00008958091B0008F7DF9CF21
:1004E0001F93CF93DF93282F30E0F901ED55FC4F98
:1004F0008491F901EF53FC4FD491F901E152FC4F83
:10050000C491CC23A9F0162F81110E944702EC2F31
:10051000F0E0EE0FFF1FEB52FC4FA591B4918FB7A7
:10052000F894EC91111108C0D095DE23DC938FBFB5
:10053000DF91CF911F910895DE2BF8CFCF93DF93FA
:1005400090E0FC01EF53FC4F249181529C4FFC0141
:1005500084918823D1F090E0880F991FFC01E75621
:10056000FC4FA591B491FC01EB52FC4FC591D49185
:1005700061110EC09FB7F8948C91E22FE0958E2305
:100580008C932881E223E8839FBFDF91CF91089568
:100590008FB7F894EC91E22BEC938FBFF6CF8230BB
:1005A000910538F0880F991F880F991F05970197BB
:1005B000F1F70895AF92BF92CF92DF92EF92FF9240
:1005C0000F931F93CF93DF93EC0188819981892B3F
:1005D00089F06EBD0DB407FEFDCFBEB48B2DDF914B
:1005E000CF911F910F91FF90EF90DF90CF90BF9030
:1005F000AF9008958885998511E0892B09F010E85E
:10060000AA24A394862F812309F0A12C062F2C81E4
:100610003D814E815F8160E271EA87E090E00E9457
:10062000CD1FF22EB02EE12CC22ED12CFF2019F0BE
:10063000C6010E94CF028A85877F09F042C08D855E
:100640008F3F89F0902F912381E009F480E08A1593
:1006500051F0EF85F8898F89992369F19081892B71
:100660008083AA24A394E989FA898081998D892BB2
:100670008083FF2019F0C6010E94CF028E858F3F34
:1006800039F0EB89FC898081988D892309F0E12A72
:10069000E989FA899081898D8095892380838E8567
:1006A0008F3F09F0BE2C88859985892BB9F5110FEC
:1006B0001111BCCF93CF9081809589238083A12C89
:1006C000D2CFE989FA898081998D892B8083FF2097
:1006D00019F0C6010E94CF028D858F3F49F0EF854A
:1006E000F8898F89902F9123A9F09081892B80839D
:1006F000E989FA899081898D8095892380838E8507
:100700008F3F69F2EB89FC898081988D892339F2CA
:10071000E12AC5CF908180958923E9CF1695C8CF6E
:10072000CF92DF92EF92FF920F931F93CF93DF93BD
:10073000EC018B016A01790188819981892B31F063
:10074000EA81FB81808191810E942C0260E08B858F
:100750000E947002F8016081CE010E94DA028601D7
:10076000EC0CFD1CE016F10641F06FEFCE010E948B
:10077000DA02F80181938F01F5CF61E08B850E9449
:10078000700281E0DF91CF911F910F91FF90EF9068
:10079000DF90CF9008953FB7F89480910404909132
:1007A0000504A0910604B091070426B5A89B05C0D6
:1007B0002F3F19F00196A11DB11D3FBFBA2FA92FE0
:1007C000982F8827BC01CD01620F711D811D911DDD
:1007D00042E0660F771F881F991F4A95D1F7089549
:1007E0008F929F92AF92BF92CF92DF92EF92FF9241
:1007F0004B015C010E94CB036B017C010E94CB0387
:100800006C197D098E099F09683E73408105910529
:10081000A8F321E0821A9108A108B10888EEC80E59
:1008200083E0D81EE11CF11C81149104A104B104E1
:1008300029F7FF90EF90DF90CF90BF90AF909F90FF
:100840008F9008952FB7F89460910004709101047F
:1008500080910204909103042FBF08950895DB0155
:1008600014964D915C9115976D917C91DC01ED9101
:10087000FC910280F381E02D0994EF92FF920F9397
:100880001F93CF93DF938C017B01D0E0C0E0F70191
:10089000EC0FFD1F6491662361F0D801ED91FC918E
:1008A0000190F081E02DC8010995892B11F0219666
:1008B000EECFCE01DF91CF911F910F91FF90EF907E
:1008C0000895AF92BF92CF92DF92EF92FF920F9373
:1008D0001F93CF93DF936C017B018B01040F151FD6
:1008E000EB015E01AE18BF08C017D10759F069913E
:1008F000D601ED91FC910190F081E02DC6010995A2
:10090000892B79F7C501DF91CF911F910F91FF904E
:10091000EF90DF90CF90BF90AF900895FC01538D82
:10092000448D252F30E0842F90E0821B930B5417C9
:1009300010F0CF96089501970895FC01918D828D56
:10094000981761F0A28DAE0FBF2FB11D5D968C91EF
:10095000928D9F5F9F73928F90E008958FEF9FEF2E
:100960000895FC01918D828D981731F0828DE80FEA
:10097000F11D858D90E008958FEF9FEF0895FC01A4
:10098000918D228D892F90E0805C9F4F821B910971
:100990008F73992708958CEC94E00E94BF0421E0A6
:1009A000892B09F420E0822F089580E090E0892BC4
:1009B00029F00E94CB0481110C9400000895FC01E1
:1009C000A48DA80FB92FB11DA35ABF4F2C91848DB0
:1009D00090E001968F739927848FA689B7892C930D
:1009E000A089B1898C91837080648C93938D848D60
:1009F000981306C00288F389E02D80818F7D808363
:100A00000895EF92FF920F931F93CF93DF93EC0122
:100A100081E0888F9B8D8C8D98131AC0E889F989A5
:100A2000808185FF15C09FB7F894EE89FF896083A8
:100A3000E889F98980818370806480839FBF81E029
:100A400090E0DF91CF911F910F91FF90EF9008956B
:100A5000F62E0B8D10E00F5F1F4F0F731127E02E46
:100A60008C8D8E110CC00FB607FCFACFE889F9897E
:100A7000808185FFF5CFCE010E94DF04F1CFEB8DA1
:100A8000EC0FFD2FF11DE35AFF4FF0829FB7F89452
:100A90000B8FEA89FB8980818062CFCFCF93DF9370
:100AA000EC01888D8823B9F0AA89BB89E889F98986
:100AB0008C9185FD03C0808186FD0DC00FB607FCBB
:100AC000F7CF8C9185FFF2CF808185FFEDCFCE01EE
:100AD0000E94DF04E9CFDF91CF9108958F929F921A
:100AE000AF92BF92CF92DF92EF92FF920F931F933C
:100AF000CF93DF9300D0CDB7DEB77C016B0110E060
:100B000000E0AA24A39492E0992EF70181899289AA
:100B10000097E9F09A8221E030E0AE014F5F5F4F2D
:100B2000BE016E5F7F4F0E94900381E099819130FA
:100B300009F430C080E0065F1F4FC016D10650F1A7
:100B40006AE070E080E090E00E94F003DECF208158
:100B500030E0F901ED55FC4F8491F901EF53FC4F62
:100B6000B490F901E152FC4F8490882079F0811112
:100B70000E944702E82DF0E0EE0FFF1FE954FC4F02
:100B8000A591B491EC91BE2281E009F480E08A2520
:100B9000817089F20F900F90DF91CF911F910F918B
:100BA000FF90EF90DF90CF90BF90AF909F908F908D
:100BB00008954F925F926F927F928F929F92AF9221
:100BC000BF92CF92DF92EF92FF920F931F93CF933A
:100BD000DF93CDB7DEB729970FB6F894DEBF0FBE0F
:100BE000CDBF8C01B42E842F952FDB01AD0166277C
:100BF0007727842EA92E7A01D12CC12CA8E09A2E19
:100C0000D80112968D919C911397C816D90608F0B9
:100C100003C13B2D18968C912A2D682D882371F0E5
:100C20008E9D90018F9D300D1124632F8A9D900120
:100C30001124232F8B9DC0011124392FD8011E961A
:100C4000EC911E9719968D919C911A971B964C9139
:100C5000E4139CC0A601440F551F4C0D5D1D840F6D
:100C6000951FD8011B96EC911B97E80FF92FF11DEA
:100C700060831C96EC911C97E80FF92FF11D2083DF
:100C80001D962C911D97820F911DFC0130831996A2
:100C90008D919C91892B09F475C00E94CB03D801DA
:100CA0001F964D905D906D907C90529764157505E0
:100CB0008605970528F4F8016787708B818B928BE6
:100CC000D8011F964D905D906D907C90529764195D
:100CD0007509860997096C32714081059105E8F222
:100CE000F894F801848195819A8389830184F2853F
:100CF000E02D3F012FEF621A720A80818987D801A7
:100D00009C915396ED91FC91549755968C91992313
:100D100009F448C09081982B988790818095892309
:100D20008F838F818C839B8258856F8149853B811E
:100D30002C8189819A81D301508347FD252F3A95D3
:100D40002083262F39F0441F00C00000608300007C
:100D500000C0F2CF38E04D9160830000019761F749
:100D6000D8015496FC93EE93539749873B832C8389
:100D70009A83898378940E94CB03F8016787708BEC
:100D8000818B928BFFEFCF1ADF0A3ACFA601440F77
:100D9000551F440F551F840F951FE80FF92FF11DA4
:100DA00010825FCF9081982B9887908180958923BE
:100DB0008F838F818E839D8258856F8149853D8188
:100DC0002E8189819A81D301508347FD252F00C050
:100DD00000C0208300C000C000C000C000C060830D
:100DE0000000262F3A9541F0441F000000C000C0CB
:100DF00000C000C000C0E8CF38E04D9100C0608363
:100E000000C0019709F7D8015496FC93EE935397CD
:100E100049873D832E83ACCF6AE070E080E090E0AC
:100E200029960FB6F894DEBF0FBECDBFDF91CF91EC
:100E30001F910F91FF90EF90DF90CF90BF90AF90F8
:100E40009F908F907F906F905F904F900C94F003E5
:100E5000CF93DF93EB0182559F4F0E942F04BE0179
:100E60008CEC94E00E942F048CEC94E0DF91CF9105
:100E70000C944E05CF93DF93EC018D85882329F0E8
:100E800081508D87DF91CF9108959C818E81981735
:100E9000C8F788896827E881F9810084F185E02D09
:100EA00042E0CE0109958C818F5F8C83EBCFDC0112
:100EB000ED91FC910084F185E02D40E00994FC0166
:100EC0002781269526952695621738F46583238514
:100ED000620F6770606B0C94570708950F931F9310
:100EE000CF93FC012681621798F4C62F8C0164838E
:100EF0006085C60F6C2F6F700E9457076C2F62952C
:100F00006F706061C801CF911F910F910C945707CA
:100F1000CF911F910F910895CF92DF92EF92FF92A0
:100F20000F931F93CF93DF93EC01F62EC42ED22E96
:100F30001D868F81869586958695081710F00FEF90
:100F4000080F1D2D6F2DCE01011788F00E946E072E
:100F5000612FCE010E945F07EF2CCE1430F068891C
:100F6000CE010E943A07E394F8CF1F5FEBCF0E94B7
:100F70006E076D2DCE01DF91CF911F910F91FF90E4
:100F8000EF90DF90CF900C945F072F923F924F929B
:100F90005F926F927F928F929F92AF92BF92CF9209
:100FA000DF92EF92FF920F931F93CF93DF9300D0C6
:100FB00000D000D0CDB7DEB7DC011E962D913C915C
:100FC0002115310509F470C19E838D83F901329694
:100FD000649031964491E42EF12CB7E0EB0EF11CB5
:100FE00053E0F594E7945A95E1F7E98231965491EC
:100FF0003196E4916D30F1F460E00E946E0781E07B
:1010000090E026960FB6F894DEBF0FBECDBFDF91FD
:10101000CF911F910F91FF90EF90DF90CF90BF90F5
:10102000AF909F908F907F906F905F904F903F9088
:101030002F9008956A3009F061C060E08D819E8133
:101040000E946E07ED81FE8101890E9DE02C112426
:1010500065816E0D8485882349F027812695269524
:1010600026958E2D821B860F18162CF08D819E8161
:101070000E945F07C4CFAD81BE811B969C911B97D8
:10108000890F87701B968C931B972E1915962C939E
:1010900015971E96ED91FC91309771F13396E4917E
:1010A000F0E0379633E0F595E7953A95E1F70E9F36
:1010B000002D1124EFEFE20F0E0FED81FE8146812E
:1010C00041506481CF010E948C07AD81BE811C9686
:1010D0008C911C97813009F092CF1B966C911B97D5
:1010E000660F660F660F6F731A966C931A9760649B
:1010F000CD010E94570783CF00E0DCCF651708F4CD
:10110000D3C08E2F90E0FC01E50FF11D6E171F0676
:101110000CF0CAC089010A5F1F4F651BED81FE817B
:1011200071855189759F502D11245C83F90154916B
:101130002F5F3F4FF9012491352F2230310508F000
:1011400075C06E9CC0016F9C900D1124689FF001CA
:10115000699FF00D11240E0F1F1F512CAD81BE8110
:101160001496BC91BA83ED81FE812580F585FB83C1
:10117000862C912CAA24A394B12C312C8981381669
:1011800008F090C0412CAD81BE8151968C91519751
:10119000481608F080C0EB811D96EC93311002C018
:1011A000442079F0AD81BE811596DC901597D394DB
:1011B0006A81CD010E946E076D2D8D819E810E94F6
:1011C0005F07D12CC12CC61408F058C0F801EC0DF3
:1011D000FD1D7490552061F0EA14FB0449F4E72DDD
:1011E000F0E0052C02C0F595E7950A94E2F77E2E13
:1011F000ED81FE818189823081F4442009F43AC076
:1012000072948FE07822E72DF0E0E757FC4F74905E
:10121000672D8D819E810E943A07672D8D819E8169
:101220000E943A078FEFC81AD80ACDCF477028E03E
:10123000522E541A411101C0512CF801612C30E09A
:1012400020E0661631F04491240F311D63943196ED
:10125000F8CF600E712E711CF3016490E29EF001D4
:10126000E39EF00DF29EF00D11248E0F9F1F080FCC
:10127000191F74CFF72DFF707F2EC5CFD12CAC81F5
:10128000DA1639F060E08D819E810E943A07D3948E
:10129000F6CF439478CF3394080D191DBFEFAB1AE6
:1012A000BB0A6CCF622DE2CE90E080E0AACE0F9315
:1012B000CF93DF93EC011B861A8660E40E945707E8
:1012C0000F8106950695069501504E81415020E00C
:1012D00060E0CE010E948C07DF91CF910F910895BD
:1012E0002091A803260F3327331F21323105ECF458
:1012F0002091A204FC0190E080E0243069F082E0BB
:101300000895A091A8032191AC014A575C4FA40F06
:10131000B52FB11D2C930196861798F38091A803E1
:10132000680F6093A80380E0089581E0089510920B
:10133000A20481E08093A10410927C0461E082E128
:101340000E94700261E083E10E947002E9EBF0E02C
:1013500080818E7F808380818D7F808388E48093ED
:10136000B80085E48093BC000895CF93DF9391E0AB
:10137000909385038823B9F0C091B800D091BA004A
:101380008091BC008A7B8093BC0060E082E10E9477
:10139000700260E083E10E9470020E949709D0937E
:1013A000BA00C093B800DF91CF9108958F929F92B9
:1013B000AF92BF92CF92DF92EF92FF920F931F9363
:1013C000CF93DF93D091CB04D13208F0D7C0182F40
:1013D000C091CA040E94CB036B017C018091A204DE
:1013E00081116BC082E08093A2041093A1048FEF5F
:1013F0008093A00410929F04D0939E04AAEAB4E0C4
:10140000EEE7F4E080E0D81391C010927D04809163
:101410007D04CC0FC82BC0937D0480917C04813067
:1014200009F088C010927C040E94CB036B017C0100
:1014300080917D048093BB008091A4049091A504C9
:10144000A091A604B091A704892B8A2B8B2BA1F025
:101450000E94CB030091A4041091A5042091A6043E
:101460003091A7046C197D098E099F09061717078B
:101470002807390708F442C08091BC0083FDD8CF0B
:1014800085EC8093BC000E94CB036B017C018091B2
:10149000A204823009F450C08091A0048F3F09F467
:1014A0006FC08091A004803209F46CC08091A004C8
:1014B000803309F469C084E026C08091A40490912F
:1014C000A504A091A604B091A704892B8A2B8B2B8D
:1014D00009F484CF0E94CB038090A4049090A504CB
:1014E000A090A604B090A7046C197D098E099F09ED
:1014F00086169706A806B90608F070CF8091A30457
:101500000E94B50985E01092A9041092CB041092B4
:10151000A804DF91CF911F910F91FF90EF90DF9082
:10152000CF90BF90AF909F908F9008959D91919391
:101530008F5F69CF85EEA5CF8091A4049091A5041B
:10154000A091A604B091A704892B8A2B8B2B09F4B8
:101550009ECF0E94CB030091A4041091A50420917A
:10156000A6043091A7046C197D098E099F090617FE
:1015700017072807390708F08ACFC0CF81E0C3CF0B
:1015800080E0C1CF82E0BFCF83E0BDCF0895089552
:101590000895E091CE038091CD03E81730F4F0E098
:1015A000E153FC4F808190E008958FEF9FEF089505
:1015B0009091CE038091CD032FEF3FEF981748F421
:1015C000E92FF0E0E153FC4F208130E09F5F9093E2
:1015D000CE03C90108958091CD039091CE03891B5C
:1015E000990B0895CF92DF92EF92FF920F931F9382
:1015F000CF93DF937C01CB018A012091A8042223A1
:1016000089F0EB016B01C40ED51ECC15DD0569F028
:101610006991D701ED91FC910190F081E02DC70116
:101620000995F3CF642F0E947009C801DF91CF9113
:101630001F910F91FF90EF90DF90CF900895CF937F
:10164000DF931F92CDB7DEB769832091A8042223D0
:10165000F9F02091CB04203258F021E030E0FC0179
:101660003383228390E080E00F90DF91CF91089543
:101670008091A904E82FF0E0E655FB4F9981908313
:101680008F5F8093A9048093CB0481E090E0ECCF3E
:1016900061E0CE0101960E947009F7CF682F89E6BC
:1016A00095E00C941F0B0F931F93CF93DF93EC01E6
:1016B000062F142F8B89813120F4882331F04111BA
:1016C00004C081E00E94D6091B8A8B89811112C057
:1016D0008A8991E09093A8048093CA041092A90487
:1016E0001092CB0460E4111101C060E089E695E03E
:1016F0000E941F0B602F89E695E00E941F0B12309D
:1017000041F48B898F5F8B8BDF91CF911F910F916C
:10171000089581E00E94D6091B8AF6CF90E080E010
:1017200008954F925F926F927F928F929F92AF92A5
:10173000BF92DF92EF92FF920F931F93CF93DF93AD
:101740001F92CDB7DEB7062FD72E142FFC0181894B
:1017500092890097E1F023E02983242F30E0462F7F
:10176000572FBE016F5F7F4F0E9490030F90DF9154
:10177000CF911F910F91FF90EF90DF90BF90AF90AE
:101780009F908F907F906F905F904F90089562E050
:1017900070E080E090E00E94F0030E94CB034B01D8
:1017A0005C018091A204811167C081E08093A20452
:1017B0008093A1049FEF9093A00410929F0491E066
:1017C000910F90939E0480937D0480917D048864A2
:1017D00080937D0480917C04813009F090C0109248
:1017E0007C040E94CB034B015C0180917D048093BB
:1017F000BB008091A4049091A504A091A604B0918F
:10180000A704892B8A2B8B2BA1F00E94CB0340903D
:10181000A4045090A5046090A6047090A7046819D1
:1018200079098A099B09461657066806790608F45D
:1018300044C08091BC0083FDD8CF85EC8093BC0070
:101840000E94CB034B015C018091A204813009F41A
:1018500058C082E0810F90919F04981710F48091F6
:101860009F04AEE7B4E0EFECF3E090E0981751F19D
:101870002D9121939F5FFACF8091A4049091A504AC
:10188000A091A604B091A704892B8A2B8B2B09F475
:1018900088CF0E94CB034090A4045090A504609090
:1018A000A6047090A704681979098A099B0946164D
:1018B00057066806790608F074CF8091A3040E9449
:1018C000B50980E01092CE038093CD0389E695E0C0
:1018D0000E94D80AB02EE02EFD2C61E070E080E07E
:1018E00090E00E94F00389E695E00E94D80AF70193
:1018F00081937F018E2F8B19811778F337CF85EE77
:101900009DCF8091A4049091A504A091A604B091CC
:10191000A704892B8A2B8B2B09F496CF0E94CB032B
:101920004090A4045090A5046090A6047090A70471
:10193000681979098A099B094616570668067906C7
:1019400008F082CFBACF2F923F924F925F926F9260
:101950007F928F929F92AF92BF92CF92DF92EF923F
:10196000FF920F931F93CF93DF9300D000D000D04E
:101970001F92CDB7DEB77C014A012DB63EB6DC0121
:101980005196CD90DC90BB24B394B60EA62EA094B5
:101990006B2C712CC114D10409F495C04DB65EB600
:1019A00070E0685F7F4FEDB7FEB7E61BF70B0FB631
:1019B000F894FEBF0FBEEDBF0DB71EB70F5F1F4FF0
:1019C00081E08183D80111961C92119712961C9286
:1019D00012978FEF13968C9313971496BC921497CB
:1019E0001596AC92159784ED16968C932DB73EB74D
:1019F000285F3F4FF90163EDA301415051098E2F3C
:101A0000821B90E0841795073CF4845C9B4FDC01BB
:101A10008C918193680FF3CF609560831182B8E059
:101A20006B0E711CF60180819181892B39F0028047
:101A3000F381E02D808191810E942C0260E0D6012B
:101A40001B968C910E9470025801F50161915F0113
:101A5000C6010E94DA02C501801B910B861597050D
:101A6000A0F361E0D6011B968C910E9470020FB624
:101A7000F8945EBE0FBE4DBEB401C7010E946E0554
:101A8000182F811163C010E0812F0FB6F8943EBE6D
:101A90000FBE2DBE27960FB6F894DEBF0FBECDBF8A
:101AA000DF91CF911F910F91FF90EF90DF90CF903A
:101AB000BF90AF909F908F907F906F905F904F906E
:101AC0003F902F90089562E070E080E090E00E94E7
:101AD000F00381E08093A80484E28093CA0410920A
:101AE000A9041092CB0480E00E944E0B80E00E947B
:101AF0004E0B8FEF0E944E0B8B2D0E944E0B8A2DAA
:101B00000E944E0B84ED0E944E0BC12C83EDD82E0B
:101B1000B1E06B1A71080C2D10E0061517055CF486
:101B2000045C1B4FF80180810E944E0BD8018C9100
:101B3000D80EC394F0CF8D2D80950E944E0B80E07F
:101B40000E944E0B81E00E94D60996CFF701818951
:101B50009289009721F123E02F8326E030E0AE0147
:101B60004F5F5F4FBE01695F7F4F0E94900346E069
:101B700050E06FE071E0CE0101960E94E421892BD4
:101B800009F081CFD70151968D919C91892B09F451
:101B90007BCFB401C7010E946E05182F75CF46E0B8
:101BA000BE016F5F7F4FC7010E94910BE0CFFB0129
:101BB00001900020E9F73197AF01461B570BDC017C
:101BC000ED91FC910280F381E02D09948F929F9218
:101BD000AF92BF92EF92FF920F931F93CF93DF9339
:101BE000CDB7DEB7A1970FB6F894DEBF0FBECDBF5D
:101BF0007C01FA01CB0119A2223008F42AE08E01FF
:101C00000F5D1F4F822E912CB12CA12CBF01A5017D
:101C100094010E94CD1FF901CA016A300CF5605D84
:101C2000D8016E938D01232B242B252B79F790E07F
:101C300080E0109721F0BD01C7010E94D70DA19649
:101C40000FB6F894DEBF0FBECDBFDF91CF911F91CD
:101C50000F91FF90EF90BF90AF909F908F9008955D
:101C6000695CDECF6EE871E00C94D70D0F931F9383
:101C7000CF93DF938C01D0E0C0E06115710519F0BE
:101C80000E94D70DEC01C8010E94320E8C0F9D1FDF
:101C9000DF91CF911F910F9108950F931F93CF93D1
:101CA000DF93EC010E943D048C01CE010E94320EB4
:101CB000800F911FDF91CF911F910F9108950F9386
:101CC0001F93CF93DF93EB018C0102551F4FC80187
:101CD0000E942F04C8010E94320EBE018CEC94E0D9
:101CE0000E942F048CEC94E00E94320E8CEC94E065
:101CF000DF91CF911F910F910C944E050F931F937D
:101D0000CF93DF93EC018B018CEC94E00E944E05A5
:101D100061E08EE00E9470028CEC94E00E94320E32
:101D200061E971E08CEC94E00E94D70DB8018CEC75
:101D300094E00E942F0464E971E08CEC94E00E942E
:101D4000D70DBE018CEC94E00E942F0466E971E08F
:101D50008CEC94E00E94360E8CEC94E00E944E05D0
:101D600060E08EE0DF91CF911F910F910C94700293
:101D7000CF93DF93EC01C259DF4FFE0101900020A9
:101D8000E9F73197EC1BFD0BDB0114968D919C91CB
:101D900002968E0F9F1F8134910578F4FB016081BC
:101DA0007181CE010E94FA216FE871E0CE010E949C
:101DB000FA2181E0DF91CF91089580E0FBCF4F922F
:101DC0005F926F927F928F929F92AF92BF92CF92CB
:101DD000DF92EF92FF920F931F93CF93DF93EC016B
:101DE0000E9422044B015C0110E000E00E942204EA
:101DF000681979098A099B09CEA0DFA0E8A4F9A493
:101E00006C157D058E059F0508F081C08CEC94E073
:101E10000E94BF04892B51F3FE01E00FF11FE8512E
:101E2000FF4FE0800E2C000CFF088CEC94E00E9429
:101E30009D04E816F906C1F60F5F1F4F0630110525
:101E4000ACF26E018EE2C80ED11C80E4F601119254
:101E50008A95E9F70E9422044B015C0110E000E042
:101E6000F12CE12C0E942204681979098A099B0946
:101E70004AA45BA46CA47DA464157505860597052A
:101E800040F5F0E4EF16F10421F18CEC94E00E94AF
:101E9000BF04892B39F38CEC94E00E949D04FE0171
:101EA000EE0DFF1D86A7DE01A00FB11F90969C913D
:101EB000891327C00F5F1F4F0430110521F517A6A6
:101EC0006FE871E0C6010E94291FC05DDE4F998353
:101ED000888361E070E080E090E00E94F00381E0A0
:101EE000DF91CF911F910F91FF90EF90DF90CF90F6
:101EF000BF90AF909F908F907F906F905F904F902A
:101F0000089510E000E08FEFE81AF80AABCF80E008
:101F1000E7CF0F931F93CF93DF93EC0161E08EE047
:101F20000E9470028E0102591F4FB8018CEC94E0A0
:101F30000E94D70DBE01605E7F4F8CEC94E00E9442
:101F4000360E8CEC94E00E944E0560E08EE00E941C
:101F5000700280E4F80111928A95E9F7DF91CF9140
:101F60001F910F9108950E94D721FC0180819181DA
:101F7000009711F00C9491200895EF92FF920F9327
:101F80001F93CF93DF93EC017B018A0188819981B4
:101F9000009729F02A813B812417350788F4B8017E
:101FA0006F5F7F4F0E941A21009791F09983888379
:101FB0001B830A832C813D81232B11F4FC011082A9
:101FC0001D830C83B701888199810E9405220CC072
:101FD00088819981009711F00E94912019821882BE
:101FE0001D821C821B821A82CE01DF91CF911F912C
:101FF0000F91FF90EF900895FC01118210821382DF
:102000001282158214826115710551F0FB01019055
:102010000020E9F73197AF01461B570B0C94BD0F19
:1020200008950F931F93CF93DF9300D000D000D07B
:10203000CDB7DEB78C01BC016F517F4FCE01019649
:102040000E94FC0FBE016F5F7F4FC8010E94B80E57
:10205000CE0101960E94B50FC8010E94890F2696F5
:102060000FB6F894DEBF0FBECDBFDF91CF911F91A9
:102070000F9108952F923F924F925F926F927F92AD
:102080008F929F92AF92BF92CF92DF92EF92FF9288
:102090000F931F93CF93DF93CDB7DEB7AC970FB6F7
:1020A000F894DEBF0FBECDBF7C016DE971E08E01FB
:1020B0000F5F1F4FC8010E94FC0FB801C7010E94AB
:1020C0005F0EC8010E94B50F370180ED681A8EEFD0
:1020D000780ADE015596BCA7ABA71E01B9E22B0E0C
:1020E000311CC7010E94DF0E8823D9F32FEC422E4A
:1020F00021E0522EF30180819181892B09F44AC19C
:102100006AEA71E0C8010E94FC0FB801C7010E9491
:102110005F0EC8010E94B50FD3016D917C91C8017B
:102120000E94FC0FB801C7010E945F0EC8010E9407
:10213000B50FE5EBF5E001900020E9F7CF01865BF4
:1021400095405C01D3018D909C90AC01B40185EB6E
:1021500095E00E940C226C01892B09F0C0C0B401EB
:102160006A0D7B1DF30171836083C8010E94FC0F1F
:10217000B801C7010E945F0EC8010E94B50F1C8AFA
:102180001B8AABA5BCA5EEE01D92EA95E9F763EFCB
:1021900072E0CE0143960E94291F63EF72E090E047
:1021A00080E00E94291F5C016BEB71E0C8010E9476
:1021B000FC0FB801C7010E945F0EC8010E94B50F55
:1021C000B501C8010E94FC0FB801C7010E945F0E53
:1021D000C8010E94B50FDF92CF925F924F923F925B
:1021E0002F920E941A22D301ED91FC910F900F9033
:1021F0000F900F900F900F90908189A5981366C053
:1022000062ED71E0C8010E94FC0FB801C7010E9495
:102210002807C8010E94B50F1CA21BA21EA21DA266
:1022200018A61FA24AE0B801C6010E94551FF80176
:1022300001900020E9F73197AF01401B510BB80125
:10224000CE0183960E94BD0FBE016D5D7F4FC70119
:102250000E945F0ECE0183960E94B50FF30180812C
:1022600091810296918380831F92F1E0FF935F92A8
:102270004F923F922F920E941A22F601EE0FFF1FFB
:10228000AF014B545A4FF301A081B18181E090E03E
:102290000F900F900F900F900F900F903C9129A5E9
:1022A000321711F090E080E0DA0152969C938E9301
:1022B0005197C7010E9411106FE871E090E080E033
:1022C0000E94291FD3018D939C9314CFBFEFCB1A8B
:1022D000DB0AE3E0CE16D10409F07DCFEDCFACEB05
:1022E000B5E00D900020E9F7AD014D5B5540B4011C
:1022F0008CEB95E00E940C22892BF1F6C7010E941D
:10230000111068EE71E0C8010E94FC0FB801C7010E
:102310000E945F0EC8010E94B50F86ECC82E85E0B2
:10232000D82EF601819191916F016BEF71E0181633
:10233000190614F063E072E0C8010E94FC0FB801B6
:10234000C7010E945F0EC8010E94B50FFCECCF16BA
:10235000F5E0DF0631F76CE271E080E090E00E948A
:10236000F003AC960FB6F894DEBF0FBECDBFDF9181
:10237000CF911F910F91FF90EF90DF90CF90BF9082
:10238000AF909F908F907F906F905F904F903F9015
:102390002F900895A895A5CE85ED8093BC008091DF
:1023A000A4049091A504A091A604B091A704079657
:1023B000A11DB11D23E0B695A795979587952A9500
:1023C000D1F72091BC0024FD03C01092A20408950F
:1023D0004091A4045091A5046091A6047091A704B3
:1023E000452B462B472B69F30097A105B10541F01A
:1023F00025E32A95F1F700000197A109B109E1CF82
:102400008091A3040C94B5099F92AF92BF92CF9292
:10241000DF92EF92FF920F931F93CF93DF93CDB78D
:10242000DEB7CE53D1400FB6F894DEBF0FBECDBF9E
:102430001092CE031092CD031092A9041092CB04F7
:102440000E94970986EC9AE09093A7038093A603D5
:1024500087EC9AE09093AB038093AA0388E480937F
:10246000B800E091DC04F091DD0482E08083E0912B
:10247000D804F091D9041082E091DA04F091DB04E1
:1024800080E180831092E404E091E004F091E104A3
:1024900086E08083E091DE04F091DF04808180613A
:1024A0008083E091DE04F091DF0480818860808386
:1024B000E091DE04F091DF04808180688083E09108
:1024C000DE04F091DF0480818F7D80838091CE05D2
:1024D0009091CF05A091D005B091D1058093D00403
:1024E0009093D104A093D204B093D30464E670E037
:1024F00080E090E00E94F00361E08EE00E949E0286
:1025000060E08EE00E94700269EC72E08CEC94E076
:102510000E943D0420E14CE350E060E070E08CEC70
:1025200094E00E94E60D8CEC94E00E94320E6AE08A
:1025300070E080E090E00E94F00310928D068CE342
:1025400080938C0610927E0610927F06E3ECF2E0F8
:10255000C590D490E5ECF2E0F490E6ECF2E0E49182
:10256000E0938006E7ECF2E0E491E0938106E8EC8A
:10257000F2E0E491E093820610E000E00F1558F4D9
:10258000F601E00FF11F64918AE796E00E94570779
:102590000F5F1F4FF3CF8AE796E00E945709109212
:1025A0008606E2EDF0E0F0938906E09388068491D8
:1025B000E3EDF0E0E491F82F319709F089C1109232
:1025C00083068AE796E00E94570968EB72E08CEC7C
:1025D00094E00E944D0E6AE070E080E090E00E947E
:1025E000F00369EB70E08AE796E00E944D0E62EA24
:1025F00070E08AE796E00E944D0E6BE870E08AE793
:1026000096E00E944D0E6CE072E0CE018D5C9E4F14
:102610000E94FC0F60E172E08E010F5F1F4FC80146
:102620000E94FC0FBE016D5C7E4FC8010E947E0EB1
:10263000C8010E94B50FCE018D5C9E4F0E94B50F60
:102640006CE072E0CE018D5C9E4F0E94FC0F6EE14B
:1026500072E0C8010E94FC0FBE016D5C7E4FC80194
:102660000E947E0EC8010E94B50FCE018D5C9E4F68
:102670000E94B50F6CE072E0CE018D5C9E4F0E940F
:10268000FC0F6AE272E0C8010E94FC0FBE016D5CA3
:102690007E4FC8010E947E0EC8010E94B50FCE0178
:1026A0008D5C9E4F0E94B50F6CE271E080E090E07F
:1026B0000E94F0031092D4051092D30567E372E0F4
:1026C000C8010E94FC0FB8018CEC95E00E945F0EDF
:1026D000C8010E94B50F1F921F9289E492E09F9358
:1026E0008F931F930F930E941A2267ED75E084EB7E
:1026F00096E00E940522B80184EB96E00E94FA2140
:1027000064EB76E08CEC94E00E94360E60ED77E0AE
:1027100080E090E00E94F0036CE472E0C8010E9447
:10272000FC0FB8018CEC95E00E945F0EC8010E947E
:10273000B50F88E199E20FB6F894A89580936000F0
:102740000FBE90936000A8958CEC94E00E94320E2E
:1027500069E572E0C8010E94FC0FB8018CEC95E0BD
:102760000E945F0EC8010E94B50F60E971E0CE01C2
:10277000875C9E4F0E94FC0F0F900F900F900F9060
:102780000F900F90B8E0CB2ED12CEE24E394FC2CCC
:10279000E092A804C092CA041092A9041092CB043B
:1027A00081E00E94D60981111CC169E672E0C8016E
:1027B0000E94FC0FB8018CEC95E00E942807C8012C
:1027C0000E94B50F61E772E0C8010E94FC0FB801DA
:1027D0008CEC95E00E942807C8010E94B50FCD5CE3
:1027E000DE4F19821882C353D140CB5CDE4F198271
:1027F0001882C553D140C95CDE4F19821882C75375
:10280000D14040E1B801C6010E94601FF80101906B
:102810000020E9F73197AF01401B510BB801CE0101
:102820008D5C9E4F0E94BD0FC75CDE4F88819981F1
:10283000C953D140009709F451C0CD5CDE4F688187
:102840007981C353D1406115710509F445C0C55C58
:10285000DE4F48815981CB53D140C95CDE4F28817E
:102860003981C753D14042175307B0F10E94052266
:10287000C95CDE4F88819981C753D140C35CDE4F6C
:1028800099838883CD53D140C95CDE4F1982188269
:10289000C753D140CE018D5C9E4F0E94B50FC75CDF
:1028A000DE4FA880B980C953D140A114B10409F406
:1028B00046C0F50181915F01882309F440C0082ECC
:1028C000000C990B0E94DC21F50131978083F1CF38
:1028D00081E08093830675CE0E949120CD5CDE4F0F
:1028E00088819981C353D140C75CDE4F9983888327
:1028F000C953D140CB5CDE4F88819981C553D1400B
:10290000C55CDE4F99838883CB53D140C95CDE4FD1
:1029100088819981C753D140C35CDE4F99838883F6
:10292000CD53D140CD5CDE4F19821882C353D140C4
:10293000CB5CDE4F19821882C553D140A5CF1A82D5
:1029400019821C821B821E821D82C75CDE4F688139
:102950007981C953D1406115710549F0C35CDE4FDF
:1029600048815981CD53D140C8010E94BD0FB801A3
:102970008CEC95E00E942807C8010E94B50F66E71D
:1029800072E0C8010E94FC0FB8018CEC95E00E9437
:102990005F0EC8010E94B50FE8ECEF0DE83008F0BB
:1029A00036C2F0E0EA52FB4E0C94EF1FDE14FB1629
:1029B000FB16FB16FE160117071704176AE772E0ED
:1029C000C8010E94FC0FB8018CEC95E00E945F0EDC
:1029D000C8010E94B50F61E070E080E090E00E94C5
:1029E000F003FFEFCF1ADF0A88E7C816D10409F019
:1029F000CECE68EB7BE080E090E00E94F003CE0159
:102A0000875C9E4F0E94B50FA8958091CC05909150
:102A1000CD059A8389838091CE059091CF05A091B1
:102A2000D005B091D1058B839C83AD83BE8380910B
:102A3000D2058F838091D3059091D405998788879B
:102A40008091D5059091D6059B878A8786E0E7ED32
:102A5000F5E0DE011C9601900D928A95E1F78091D8
:102A6000DD059091DE059B8B8A8B87E0EFEDF5E02D
:102A7000DE01549601900D928A95E1F786E0E6EE2C
:102A8000F5E0DE015B9601900D928A95E1F786E014
:102A9000ECEEF5E0DE01919601900D928A95E1F75A
:102AA0008091F2059091F305A091F405B091F505A0
:102AB0008FA398A7A9A7BAA78091F6059091F705CB
:102AC000A091F805B091F9058BA79CA7ADA7BEA76B
:102AD00080E4EAEFF5E0DE019F9601900D928A9581
:102AE000E1F780E4EAE3F6E0DE01A159BF4F01908F
:102AF0000D928A95E1F780917C0690917D06CF54E6
:102B0000DF4F99838883C15BD04080917E06CD548E
:102B1000DF4F8883C35BD04080917F06CC54DF4F6A
:102B20008883C45BD04080918006CB54DF4F88837C
:102B3000C55BD04080918106CA54DF4F8883C65B55
:102B4000D04080918206C954DF4F8883C75BD04054
:102B500080918306C854DF4F8883C85BD040809142
:102B60008406C754DF4F8883C95BD04080918506B7
:102B7000C654DF4F8883CA5BD04080918606C55417
:102B8000DF4F8883CB5BD04080918706C454DF4FF2
:102B90008883CC5BD0408091880690918906C3548D
:102BA000DF4F99838883CD5BD04080918A06C154E2
:102BB000DF4F8883CF5BD04080918B06C054DF4FBE
:102BC0008883C05CD04084E891E0C155DF4F998391
:102BD0008883CF5AD04080918C06CF53DF4F8883B3
:102BE000C15CD04080918D06CE53DF4F8883C25C9C
:102BF000D0408FE1EEE8F6E0DE01AD53BF4F01902B
:102C00000D928A95E1F787E0EDEAF6E0DE01AE513C
:102C1000BF4F01900D928A95E1F788E0E4EBF6E072
:102C2000DE01A751BF4F01900D928A95E1F780E434
:102C3000ECEBF6E0DE01AF50BF4F01900D928A95AC
:102C4000E1F78091FC069091FD06CF5CDE4F998301
:102C50008883C153D140C8010E943A108091C805B1
:102C60009091C905892B09F4B3C16DE573E08CEC33
:102C700094E00E943D04E0909D05F0909E05E114D3
:102C8000F10409F4E9C061E0F70183850E949E0226
:102C900061E0F70183850E947002F70180819181D4
:102CA000892B09F4B7C0DFB6F894809184038111B1
:102CB00027C0E9EEF3E08491EBECF3E09491E82F88
:102CC000F0E0EE0FFF1FE756FC4FA591B491EC9199
:102CD000E92321F461E08AE00E94700261E08AE069
:102CE0000E949E028CB580618CBD8CB580648CBDC9
:102CF00061E08DE00E949E0261E08BE00E949E02F6
:102D0000809184038F5F80938403DFBE81E0F701AD
:102D1000838F82E080933C0444E650E061E08CE8DD
:102D200095E00E94A30C82E380933C0485E08093AD
:102D30003D049FEF90933E0491E090933F04809375
:102D4000400444E650E065E08CE895E00E94A30C66
:102D5000B12CA12CE2E09E2E90923C0444E650E07F
:102D600061E08CE895E00E94A30C8111A7C064E4A7
:102D700073E08CEC94E00E943D04F6E0AF16B104E1
:102D8000B4F16CE273E08CEC94E00E943D0465E0E9
:102D900070E080E090E00E94F00364EE72E08CEC62
:102DA00094E00E944D0E62E370E080E090E00E94AB
:102DB000F00353E0C52ED12CE12CF12C2AE0B70111
:102DC000A6018CEC94E00E94E60D8CEC94E00E944D
:102DD000320E64E670E080E090E00E94F00381E053
:102DE000C81AD108E108F10849F70C940000EFEF88
:102DF000AE1ABE0AB1CF6BE872E0E2CD65E972E0CF
:102E0000DFCD65EA72E0DCCD62EE72E0D9CD6AEA30
:102E100072E0D6CD61E084850E949E02F701828532
:102E20008B7F60E009F061E084850E947002F70109
:102E300085858F3F41F061E00E949E0261E0F701CD
:102E400085850E947002F70186858F3F09F45ECF69
:102E500060E00E949E025ACF1092CE031092CD03E2
:102E60001092A9041092CB040E94970986EC9AE074
:102E70009093A7038093A60387EC9AE09093AB030B
:102E80008093AA0361E080918D050E94700260E04A
:102E900080918D050E94700260E971E080E090E011
:102EA0000E94F00361E080918D050E9470026AE04B
:102EB00070E080E090E00E94F00335CF4CE06CE3DE
:102EC00074E08CE895E00E94910B46E050E060E0F1
:102ED00071E08CE394E00E94E421892B09F047CF54
:102EE000C0904304D0904404DC24CD24DC24F12C95
:102EF000E12CFE2CED2CDC2CCC2480914504C82A3E
:102F0000FE2CED2CDC2CCC2480914604C82AC11464
:102F1000D104E104F10409F42ACF6DE173E08CECF3
:102F200094E00E943D044F2D55276627772720E126
:102F30008CEC94E00E94E60D8CEC94E00E94320E42
:102F40006EE073E08CEC94E00E943D044E2D50E066
:102F500070E060E02AE08CEC94E00E94E60D6EE206
:102F60008CEC94E00E9401054D2D50E070E060E093
:102F70002AE08CEC94E00E94E60D8CEC94E00E9438
:102F8000320E94E190933C0481E080933D04909351
:102F90003E0480933F0444E650E064E08CE895E012
:102FA0000E94A30C882339F048E06CE374E08CE8BD
:102FB00095E00E94910B62E370E080E090E00E9457
:102FC000F00362EF72E08CEC94E00E943D04A8955F
:102FD0008091C6059091C705892B09F491C06AE7D5
:102FE00073E08CEC94E00E943D046AE070E080E0C5
:102FF00090E00E94F003E0900601F0900701A0909D
:103000000801B09009016501CC0CDD1CCA0CDB1C69
:10301000C6010E94F51F009721F4D12CC12CB12CC0
:10302000A12CF701E152FC4FE491F0E0EE0FFF1FFD
:10303000EB52FC4F25913491F701EF53FC4FE49193
:1030400041E040939F051092A005B092A205A09286
:10305000A105D092A405C092A305F092A605E09226
:10306000A5051092A7059093A9058093A805409304
:10307000AA0552E05093AB051092AC054093AD0504
:103080001092AE051092AF051092B0051092B105E6
:103090003093B3052093B205E093B4050E949120CC
:1030A000F7FC04C060E08E2D0E949E028091A50571
:1030B0009091A60597FD08C061E00E949E0260E025
:1030C0008091A5050E94700281E08093A00540E0F8
:1030D00050E0BA018FE995E00E94D90568E270E0FE
:1030E00080E090E00E94F0036EE673E08CEC94E0E8
:1030F0000E944D0E6AE070E080E090E00E94F003D4
:10310000A8956CE072E0CE018D5C9E4F0E94FC0F92
:1031100062EB72E0C8010E94FC0FBE016D5C7E4F45
:10312000C8010E947E0EC8010E94B50FCE018D5CC1
:103130009E4F0E94B50F8CEC94E00E94320E8CECF6
:1031400094E00E944E056DEB72E0C8010E94FC0FF6
:10315000B8018CEC95E00E945F0EC8010E94B50F8B
:10316000C25CDE4F0FB6F894DEBF0FBECDBFDF915D
:10317000CF911F910F91FF90EF90DF90CF90BF9074
:10318000AF909F9008951F920F920FB60F92112447
:103190002F933F934F935F936F937F938F939F935F
:1031A000AF93BF93EF93FF9382E00E942F02FF91B2
:1031B000EF91BF91AF919F918F917F916F915F91AF
:1031C0004F913F912F910F900FBE0F901F90189528
:1031D0001F920F920FB60F9211242F933F934F938C
:1031E0005F936F937F938F939F93AF93BF93EF936F
:1031F000FF9381E00E942F02FF91EF91BF91AF9169
:103200009F918F917F916F915F914F913F912F91FE
:103210000F900FBE0F901F9018951F920F920FB630
:103220000F9211242F933F934F935F936F937F934C
:103230008F939F93AF93BF93EF93FF9380E00E9490
:103240002F02FF91EF91BF91AF919F918F917F914D
:103250006F915F914F913F912F910F900FBE0F9003
:103260001F9018951F920F920FB60F9211242F9353
:103270003F938F939F93AF93BF938091000490915E
:103280000104A0910204B09103043091FF0323E0F4
:10329000230F2D3758F50196A11DB11D2093FF0373
:1032A0008093000490930104A0930204B09303045C
:1032B0008091040490910504A0910604B091070444
:1032C0000196A11DB11D8093040490930504A09361
:1032D0000604B0930704BF91AF919F918F913F91E6
:1032E0002F910F900FBE0F901F90189526E8230F77
:1032F0000296A11DB11DD2CF1F920F920FB60F9251
:1033000011242F933F934F935F936F937F938F93EA
:103310009F93AF93BF93EF93FF938CEC94E00E9445
:10332000DF04FF91EF91BF91AF919F918F917F91BA
:103330006F915F914F913F912F910F900FBE0F9022
:103340001F9018951F920F920FB60F9211242F9372
:103350008F939F93EF93FF93E091DC04F091DD0452
:103360008081E091E204F091E30482FD1BC0908132
:103370008091E5048F5F8F732091E604821741F0FE
:10338000E091E504F0E0E453FB4F958F8093E50472
:10339000FF91EF919F918F912F910F900FBE0F9002
:1033A0001F9018958081F4CF1F920F920FB60F9245
:1033B00011242F933F934F935F936F937F938F933A
:1033C0009F93AF93BF93EF93FF938091B900887F52
:1033D000803609F44AC0F0F5883209F4A7C018F520
:1033E000803109F49BC0B8F4882309F4F9C088300F
:1033F00009F494C0FF91EF91BF91AF919F918F918C
:103400007F916F915F914F913F912F910F900FBEE0
:103410000F901F901895883109F488C0803251F7B9
:103420008093A00414C0803409F49DC040F480331C
:10343000B9F38833F9F68093A00485ECB0C08035E9
:1034400009F485C0883509F496C0883499F60E943D
:10345000CC11D0CF883909F48CC038F5883729F0E1
:1034600050F4883611F0803729F683E08093A20467
:103470001092CC0357C0883809F47BC0803919F00A
:10348000803809F0B7CF8091CC03803208F071C04A
:10349000E091CC0381E08E0F8093CC038091BB0040
:1034A000F0E0E455FC4F80833DC0803B39F0E0F410
:1034B000803A09F479C0883A09F09CCF84E080937F
:1034C000A2041092A9031092A803E091A603F09120
:1034D000A70309958091A80381110FC081E0809313
:1034E000A8031092860309C0803C09F4A6CF883C4B
:1034F00009F4A3CF883B09F07DCFE091A90381E0D7
:103500008E0F8093A903F0E0EA57FC4F80818093EF
:10351000BB009091A9038091A80329C080917D04EC
:103520008093BB0085EC8093BC0064CF90919F0496
:1035300080919E04981758F5E0919F0481E08E0FCA
:1035400080939F04F0E0E258FB4F8081E9CFE09147
:103550009F0481E08E0F80939F048091BB00F0E078
:10356000E258FB4F808390919F0480919E049817AE
:10357000C8F285E8D8CFE0919F0481E08E0F809358
:103580009F048091BB00F0E0E258FB4F8083809164
:10359000A10481115CCF81E080937C0484EA809354
:1035A000BC001092A20426CF85EC8093BC00109240
:1035B000A2048091CC03803230F4E091CC03F0E09F
:1035C000E455FC4F10826091CC0370E0E091AA03B7
:1035D000F091AB038CEA93E009951092CC030ACFEB
:1035E0001092A00434CF0F931F93CF93DF93ECEC92
:1035F000F4E01382128288EE93E0A0E0B0E08483CE
:103600009583A683B78320E631E03183208325ECC0
:1036100030E03587248724EC30E03787268720EC9C
:1036200030E0318B208B21EC30E0338B228B22EC8D
:1036300030E0358B248B26EC30E0378B268B118ED7
:10364000128E138E148EE9E6F5E0138212828483C3
:103650009583A683B78382E791E0918380836BECA7
:1036600072E084E097E00E94FC0F65ED72E08EEF5F
:1036700096E00E94FC0FCCECD5E088E090E09983C6
:1036800088838AE090E0A0E0B0E08A839B83AC83EB
:10369000BD831E8218861F822FEF3FEF3A8729874E
:1036A00086E0EBEDF2E0A7EDB5E001900D928A9592
:1036B000E1F78FE590E09A8B898B87E0E1EEF2E00D
:1036C000AFEDB5E001900D928A95E1F786E0E8EE66
:1036D000F2E0A6EEB5E001900D928A95E1F785E063
:1036E000EBE1F1E0ACEEB5E001900D928A95E1F7E7
:1036F0001092F1058CE291E0A0E0B0E08EA39FA3D0
:10370000A8A7B9A78AA79BA7ACA7BDA71092FB053E
:103710001092FA059EE3ECEFF5E0DF01892F1D9290
:103720008A95E9F710923B0610923A06ECE3F6E030
:10373000DF01892F1D928A95E9F710927D0610927C
:103740007C061092860610928706109289061092C7
:10375000880610928A0681E080938B0644E851E047
:1037600050937B0640937A0610928E0610928F0635
:103770001092900610929106109292061092930663
:103780001092940610929506109296061092970643
:10379000109298061092990610929A0610929B0623
:1037A00010929C0610929E0610929D061092A00602
:1037B00010929F061092A2061092A1061092A406E3
:1037C0001092A3061092A6061092A5061092A806C3
:1037D0001092A7061092AA061092A9061092AC06A3
:1037E0001092AB0645E0E1E2F1E0ADEAB6E001900F
:1037F0000D924A95E1F71092B3061092B20647E097
:10380000E8E2F1E0A4EBB6E001900D924A95E1F711
:103810001092BB061092BD061092BC06EEEBF6E0CD
:10382000DF011D929A95E9F797E0EEEEF2E0A5EB45
:10383000B5E001900D929A95E1F79AE0E5EFF2E09C
:10384000ACEBB5E001900D929A95E1F7E6ECF5E06E
:1038500096E0DF011D929A95E9F7EFE9F5E08083A4
:103860001182138212821582148237832683108676
:10387000128611868387148692E09587868717863D
:10388000108A118A128A0CE815E08FEFF801808304
:1038900081838CE190E00E94F51FEC0188E08B872A
:1038A0008DE08C878CE08E878BE08D87E7EEF3E0F0
:1038B000E491F0E0EE0FFF1FEB52FC4F85919491E5
:1038C0009E8B8D8BE9ECF3E0E491EA8FEAEEF3E076
:1038D000E491F0E0EE0FFF1FEB52FC4F85919491C5
:1038E000988B8F87ECECF3E0E491EF8BEBEEF3E059
:1038F000E491F0E0EE0FFF1FE954FC4F85919491A5
:103900009C8B8B8BEDECF3E0E491E88FECEEF3E035
:10391000E491F0E0EE0FFF1FEB52FC4F8591949184
:103920009A8B898BEEECF3E0E491E98F80EA96E8DC
:10393000A1E0B0E08C839D83AE83BF831986188697
:103940001A861B8E82E090E00E94F51F23E7DC01BF
:103950002C9311961C929B838A8319821882F801FA
:10396000D28BC18B83E1A9E7B5E001900D928A95D6
:10397000E1F70E94220460937505709376058093A9
:10398000770590937805DF91CF911F910F9108955E
:10399000CF93DF93CDB7DEB7AD970FB6F894DEBF08
:1039A0000FBECDBF789484B5826084BD84B581603C
:1039B00084BD85B5826085BD85B5816085BD8091FA
:1039C0006E00816080936E00109281008091810072
:1039D000826080938100809181008160809381006A
:1039E000809180008160809380008091B10084602C
:1039F0008093B1008091B00081608093B00080918D
:103A00007A00846080937A0080917A00826080934B
:103A10007A0080917A00816080937A0080917A00A8
:103A2000806880937A001092C1000E9404122E01D7
:103A300027E0420E511C8E010F5D1F4FF9E4AF2E9F
:103A4000F2E0BF2EEFEE6E2EE3E07E2E50E1252E4B
:103A50006AE4362E70E0872E70E0972E8091C805BC
:103A60009091C905892B09F4ACC00E942204C09032
:103A70007505D0907605E0907705F09078056C1983
:103A80007D098E099F096A3F71058105910508F43A
:103A900098C00E9422046093750570937605809308
:103AA00077059093780586E0E0E3F1E0DE0111967A
:103AB00001900D928A95E1F7D201EAE11D92EA9513
:103AC000E9F76FEF72E08CEC94E00E94360E8CEC1C
:103AD00094E00E944E05D801E7E01D92EA95E9F7CF
:103AE00086E0E0E5F1E0DE01989601900D928A957E
:103AF000E1F7D301E22D1D92EA95E9F730923C04FB
:103B000081E080933D0410923E0446E950E063E07A
:103B100089E795E00E94A30C882331F180918A0502
:103B200090918B05892BC1F044E16CE374E089E747
:103B300095E00E94910B809143048130A9F4D090CC
:103B40004804A9E4B4E0F8018E2F801B8D1508F01D
:103B500091C08D918193F8CF66E970E089E795E097
:103B60000E946E058111E0CF64E573E08CEC94E077
:103B70000E94360E8CEC94E00E944E058AE796E097
:103B80000E945709BE016F5F7F4F8AE796E00E944F
:103B9000360EBE016F5F7F4FC8010E94FC0FB80157
:103BA0008CEC95E00E94B80EC8010E94B50F68E643
:103BB00073E08CEC94E00E94360E8CEC94E00E9452
:103BC0004E058CEC95E00E94DF0E8111F0C061E79C
:103BD00073E08CEC94E00E94360EC090FC06D0900E
:103BE000FD06C114D10409F410C144E050E0B6014F
:103BF0008AE091E00E940C227C01892B09F0FAC036
:103C000063EF72E0C6010E94291F63EF72E090E04B
:103C100080E00E94291F1A8219821C821B821E8248
:103C20001D82009709F4C8C0B3E0EB16F10409F453
:103C3000C7C09701220F331FE1E0F0E0EC0FFD1F3A
:103C40002E0F3F1F3F932F93BF92AF929F938F935F
:103C50000E943D2263EF72E090E080E00E94291F05
:103C6000FFEFEF1AFF0A0F900F900F900F900F9039
:103C70000F90D7CF86E0FE01B896A3E8B5E001909B
:103C80000D928A95E1F7ED2CF12CA701B8018BE795
:103C900095E00E94F121D092820580E480933C045B
:103CA00081E080933D0490E690933E0480933F042E
:103CB00086E0E3E8F5E0A0E4B4E001900D928A9597
:103CC000E1F720E0822F90E08E159F055CF4FC0167
:103CD000E45CFB4F87589A4FDC0112968C918287E7
:103CE0002F5FF0CF6AE06D0D44E650E089E795E084
:103CF0000E94A30C8823D1F14CE06CE374E089E7C7
:103D000095E00E94910B8091430481112FC080E4C3
:103D100080933C0481E080933D0490E390933E04C3
:103D200080933F0444E650E064E089E795E00E9418
:103D3000A30C882311F14AE16CE374E089E795E074
:103D40000E94910B80914304811117C080E1E4E44B
:103D5000F4E0AFEEB3E001900D928A95E1F7809127
:103D6000EF0381110DC062E273E002C06AE073E00C
:103D70008CEC94E00E94360EF7CE66E173E0F8CF4B
:103D800062E473E08CEC94E00E94360E8CEC94E0DC
:103D90000E944E0563EF72E0CE0101960E94FA2167
:103DA0006FEE73E0CE0101960E94FA21DDCE8CEC1D
:103DB00095E00E94890F11CF23E0E216F104D1F4BF
:103DC0008091C6059091C705892B81F089814D812D
:103DD00050E070E060E0762F652F542F4427682B69
:103DE0008B81482B8FE995E00E94D9058CEC95E0FA
:103DF0000E9411106FE871E090E080E00E94291F9E
:103E00009093FD068093FC06E8CEA895811491045A
:103E100009F424CE0E94CB04882309F417CE0E9413
:103E2000000010CE8091A8059091A9050E949120D4
:103E30008091A5059091A60597FD03C060E00E94C2
:103E40009E028EEF96E00E94B50F84E097E00C94FE
:103E5000B50F4AE057E00E942E1F0895FA01A19184
:103E6000B081009719F41097E1F0CD01DC01CD018C
:103E70000D90002011F4C00113C0FB0121912223F9
:103E800019F02015D9F7F3CFFB012191201519F472
:103E90001E92119606C02223C1F70D900020A1F7B3
:103EA000D001FA01A193B0830895BB274A3031F4C1
:103EB000992322F4BDE2909581959F4F0C94611F48
:103EC000BB27FB015527AA27880F991FAA1FA417F4
:103ED00010F0A41B83955051B9F7A05DAA3308F0E8
:103EE000A95DA193009779F7B111B1931192CB011C
:103EF0000C94831F91110C94931F803219F08950F8
:103F00008550C8F70895DC01FC01672F7191772374
:103F1000E1F7329704C07C916D9370836291AE1784
:103F2000BF07C8F308959927882708952F923F92D5
:103F30004F925F926F927F928F929F92AF92BF92B9
:103F4000CF92DF92EF92FF920F931F93CF93DF9365
:103F5000CDB7DEB7CA1BDB0B0FB6F894DEBF0FBEC2
:103F6000CDBF09942A88398848885F846E847D840F
:103F70008C849B84AA84B984C884DF80EE80FD8011
:103F80000C811B81AA81B981CE0FD11D0FB6F89487
:103F9000DEBF0FBECDBFED010895A1E21A2EAA1B10
:103FA000BB1BFD010DC0AA1FBB1FEE1FFF1FA217E9
:103FB000B307E407F50720F0A21BB30BE40BF50BE6
:103FC000661F771F881F991F1A9469F7609570956F
:103FD000809590959B01AC01BD01CF010895EE0F36
:103FE000FF1F0590F491E02D09940F931F93CF9339
:103FF000DF938230910510F482E090E0E0910E07AB
:10400000F0910F0730E020E0B0E0A0E0309799F4A5
:104010002115310509F44AC0281B390B243031051C
:10402000D8F58A819B816115710589F1FB01938324
:104030008283FE0111C040815181028113814817A2
:104040005907E0F04817590799F4109761F0129654
:104050000C93129713961C933296CF01DF91CF9158
:104060001F910F91089500930E0710930F07F4CF3F
:104070002115310551F04217530738F0A901DB0132
:104080009A01BD01DF01F801C1CFEF01F9CF909393
:104090000F0780930E07CDCFFE01E20FF31F819330
:1040A00091932250310939832883D7CF20910C076F
:1040B00030910D07232B41F4209117013091180105
:1040C00030930D0720930C072091150130911601B4
:1040D0002115310541F42DB73EB74091190150919A
:1040E0001A01241B350BE0910C07F0910D07E21724
:1040F000F307A0F42E1B3F0B2817390778F0AC010B
:104100004E5F5F4F2417350748F04E0F5F1F5093E7
:104110000D0740930C07819391939FCFF0E0E0E06F
:104120009CCFCF93DF930097E9F0FC013297138285
:104130001282A0910E07B0910F07ED0130E020E050
:104140001097A1F420813181820F931F20910C07D9
:1041500030910D072817390709F061C0F0930D075A
:10416000E0930C07DF91CF910895EA01CE17DF07A6
:10417000E8F54A815B819E0141155105B1F7E901DE
:10418000FB83EA8349915991C40FD51FEC17FD07B2
:1041900061F4808191810296840F951FE9019983D2
:1041A0008883828193819B838A83F0E0E0E012968A
:1041B0008D919C9113970097B9F52D913C91119792
:1041C000CD010296820F931F20910C0730910D07AD
:1041D0002817390739F6309751F510920F071092CA
:1041E0000E07B0930D07A0930C07BCCFD383C283F7
:1041F00040815181840F951FC817D90761F44E5F24
:104200005F4F88819981480F591F518340838A816C
:104210009B81938382832115310509F0B0CFF09300
:104220000F07E0930E079ECFFD01DC01C0CF138284
:104230001282D7CFB0E0A0E0E0E2F1E20C94981F48
:104240008C01009751F4CB010E94F51F8C01C8012D
:10425000CDB7DEB7E0E10C94B41FFC01E60FF71F09
:104260009C0122503109E217F30708F49DC0D901DF
:10427000CD91DC911197C617D70798F0C530D105BD
:1042800030F3CE0104978617970708F3C61BD70BA8
:104290002297C193D1936D937C93CF010E9491207B
:1042A000D6CF5B01AC1ABD0A4C018C0E9D1EA091AD
:1042B0000E07B0910F07512C412CF12CE12C1097D7
:1042C00031F580910C0790910D078815990509F03B
:1042D0005CC04616570608F058C0809115019091B1
:1042E0001601009741F48DB79EB740911901509186
:1042F0001A01841B950BE817F90708F055C0F093D5
:104300000D07E0930C07F90171836083A0CF8D91B5
:104310009C91119712966C90129713967C9013971C
:10432000A815B90559F56C0142E0C40ED11CCA1498
:10433000DB0420F1AC014A195B09DA0112961597EA
:1043400080F06282738251834083D9016D937C93A4
:10435000E114F10471F0D7011396FC93EE931297D8
:1043600076CF22968C0F9D1FF90191838083F301F4
:10437000EFCFF0930F07E0930E0769CF4816590669
:1043800008F42C017D01D3019ACFCB010E94F51FC7
:104390007C01009749F0AE01B8010E94F121C801EB
:1043A0000E949120870153CF10E000E050CF81E0C0
:1043B00090E0F8940C94C3279111089581568A5186
:1043C00008F4805285580895FB01DC0104C08D91EA
:1043D0000190801921F441505040C8F7881B990B77
:1043E0000895FB01DC0102C001900D924150504044
:1043F000D8F70895FB01DC010D900020E9F7119733
:1044000001900D920020E1F70895FB01DC0101907D
:104410000D920020E1F70895FB01DC01415050406E
:1044200030F08D910190801919F40020B9F7881BA4
:10443000990B0895AEE0B0E0E0E2F2E20C94A41F24
:104440000D891E8986E08C831A8309838FEF9FE78D
:104450009E838D83AE01475E5F4F6F89788DCE015D
:1044600001960E9456222F813885020F131FF801F2
:1044700010822E96E4E00C94C01FAEE0B0E0E3E4BE
:10448000F2E20C94A61F85E08C838B899C899A8329
:104490008983AE01495E5F4F6D897E89CE010196A9
:1044A0000E94BB252E96E2E00C94C21FABE0B0E068
:1044B000ECE5F2E20C94961F7C013B018A01FC01C1
:1044C00017821682838181FFC8C1CE0101965C01EB
:1044D000F7019381F30193FD859193FF81913F0152
:1044E000882309F453C1853239F493FD859193FFF4
:1044F00081913F01853229F4B70190E00E941D2788
:10450000E7CF912C212C312CFFE1F31538F08B32C1
:1045100011F190F4803209F1833229F137FC3CC06B
:1045200020ED280F2A3050F536FE20C08AE0989EF4
:10453000200D1124922E06C08D3291F0803371F738
:10454000689430F8F30193FD859193FF81913F01C9
:104550008111DACF21C0689431F8689432F8F2CF33
:10456000689433F8EFCF689434F8ECCFEAE02E9EED
:10457000200D1124222E689435F8E4CF8E3229F4D0
:1045800036FC04C1689436F8DDCF8C3619F4689493
:1045900037F8D8CF8836B1F2982F9F7D9554933055
:1045A000E0F08336A1F18337C1F1833509F063C0B0
:1045B0002801F2E04F0E511CF801C080D180692D16
:1045C00070E036FC02C06FEF7FEFC6010E94CB2681
:1045D0004C01689437F882010AC00C5F1F4FFFE35B
:1045E000F98388248394912C6501E89437F833FE8D
:1045F0002DC0522C8114910471F5552009F468CF17
:10460000B70180E290E00E941D275A94F6CFF8018E
:10461000808189830E5F1F4FE4CF2801F2E04F0EA7
:10462000511CF801C080D180692D70E036FC02C0B9
:104630006FEF7FEFC6010E94D6264C018201D5CFD5
:10464000B70180E290E00E941D272A9428141904E3
:1046500009F0B0F7CECFF60137FC859137FE819196
:104660006F01B70190E00E941D2751105A94F1E0AC
:104670008F1A9108BFCF843619F0893609F077C0B8
:10468000F80137FE6BC060817181828193810C5F7C
:104690001F4FF32DFF763F2E97FF09C09095809511
:1046A000709561957F4F8F4F9F4F689437F82AE040
:1046B00030E0A5010E946527C82ECA188C2C432C17
:1046C00036FE0CC0E89440F8C91440F434FE05C02E
:1046D00032FC03C0F32DFE7E4F2E892C44FE95C084
:1046E000FE01EC0DF11D8081803309F087C0242D7F
:1046F000297E422E842D8870582E43FC95C040FEA2
:104700008FC09C2C821418F42C0C922C981844FE08
:1047100091C0B70180E390E00E941D2742FE09C0CE
:1047200088E790E041FE02C088E590E0B7010E9472
:104730001D27C91408F48AC0CA94D12C9FEFC91A46
:10474000D90ACA0CDB1CF60182916F01B70190E017
:104750000E941D27AC14BD04B1F74FCF6081718159
:10476000072E000C880B990B0E5F1F4F92CFD32C96
:10477000E894D4F82AE030E0853739F1232D297FF9
:10478000D22E8F3601F148F48835A9F0F7018681E1
:1047900097812B96E2E10C94B21F803749F088375D
:1047A000A9F7D4FE02C06894D2F820E130E00DC031
:1047B0006894D4F8F6CF34FE03C0822F8660D82EDA
:1047C00020E132E002C028E030E0F801D7FE0FC05F
:1047D00060817181828193810C5F1F4FA5010E94CE
:1047E0006527C82ECA183D2CE89437F867CF60813A
:1047F000718190E080E00E5F1F4FF0CF42FC02C05D
:10480000839478CF8394839475CF842D867809F42C
:1048100071CFF6CFB70180E290E00E941D2783940C
:104820008214C0F3512C73CF522C5818821408F400
:104830006ECFF8CF842D867809F47BCF8BE241FED2
:1048400080E247FC8DE2B70190E071CFB70180E3D1
:1048500090E00E941D279A946CCF8FEF9FEF99CF25
:1048600020FD09C0FC0123FD05C022FF02C07383A7
:10487000628351834083089544FD17C046FD1DC0E7
:10488000DB01FC01AA0FBB1FEE1FFF1F1094D1F725
:104890006A0F7B1F8E1F9F1F660F771F881F991F30
:1048A000620F711D811D911D089533E0660F771F02
:1048B000881F991F3150D1F7F3CF34E0F7CF0F9312
:1048C0001F93CF93DF938C01C8010E94E126EC0176
:1048D00097FD08C00E947A1F892BB1F7B801CE015D
:1048E0000E944D27CE01DF91CF911F910F91089526
:1048F0008F929F92AF92BF92EF92FF920F931F936E
:10490000CF93DF938C01D62F7A01B22E0E94E1263D
:104910009C0133272B32310529F02D323105A9F4C2
:104920006894B7F8D15061F480E0DF91CF911F9186
:104930000F91FF90EF90BF90AF909F908F90089550
:10494000C8010E94E12697FDEFCFCB2DCD7F2B2D07
:104950002073F9F48033E9F4AA24AA94AD0E89F007
:10496000C8010E94E12697FD0CC0282F2F7D283515
:1049700061F4C264D25029F0C8010E94E12697FF79
:1049800008C0812C912C54011BC0B6FE2BC0C26004
:10499000DA2D812C912C540120ED280F283028F19C
:1049A000C4FD09C02A3008F1C6FF05C02F7D3FEEC7
:1049B000320F3630C8F0B8010E944D27C1FFB4CF86
:1049C000C7FF08C0B094A09490948094811C911C5F
:1049D000A11CB11C2C2FB501A401C7010E943024D9
:1049E00081E0A3CFC261D4CF27504C2FC501B401C1
:1049F0000E943C244B015C01C260D15009F3C80104
:104A00000E94E12697FFC8CFD9CFA0E2B0E0EBE04B
:104A1000F5E20C949B1F5C01962E7A01CE01019663
:104A20006C0180E2F60111928A95E9F7F501B381F4
:104A3000890130E020E0712C812CA0E041E050E0C1
:104A4000F801B3FD8591B3FF8191982F8F018111FA
:104A500007C010E000E0C801A096EDE00C94B71F7D
:104A60008E3519F42115310541F1A21713064CF4C6
:104A70008D3549F18D3229F4811006C08824839444
:104A80001DC0882009F464C0E92FE695E695E695F7
:104A9000EC0DFD2DF11D892F8770BA0101C0660F45
:104AA0008A95EAF78081682B6083791651F0971513
:104AB00010F49F5FE9CF9150E7CFA1E02F5F3F4F08
:104AC000BFCF812CFBCF882019F08E8180628E832E
:104AD000AA2359F0F6019E012F5D3F4F80818095FA
:104AE00080833196E217F307C9F788248394C501C0
:104AF0000E94E12697FD16C0E82FE695E695E6951B
:104B0000EC0DFD2DF11D208130E0AC0147705527E3
:104B100002C0359527954A95E2F720FD06C0B501FC
:104B20000E944D27882069F094CFE114F10429F008
:104B3000F7018083C70101967C019A94812C911022
:104B4000D6CFE114F10409F486CFF701108283CFA8
:104B5000E82FE695E695E695EC0DFD2DF11D982FD5
:104B60009770BA0101C0660F9A95EAF79081692B98
:104B70006083782EA3CFB0E0A0E0E1ECF5E20C94E6
:104B8000991F6C01EB015A01FC0117821682512C0E
:104B9000F601E380FE01E3FC8591E3FE8191182F8D
:104BA000EF018823E9F090E00E947A1F892B21F021
:104BB000C6010E945F24ECCF153241F4FE01E3FCF4
:104BC0001591E3FE1191EF01153269F4C6010E94BF
:104BD000E12697FD8EC01817D9F2B6010E944D2725
:104BE000852D90E08AC000E01A3231F4E3FC159183
:104BF000E3FE1191EF0101E0F12C20ED210F2A30AD
:104C000048F101FF37C0FF2059F31836B1F11C36C7
:104C100009F43DC0112321F3612F70E088E690E094
:104C20000E94C026892BE1F2912C812C00FD06C048
:104C3000F50180809180C50102965C011E3679F5F0
:104C4000F6014681578170E060E0202FC4010E9488
:104C500030249ECF02606F2D70E090E080E040E253
:104C60000E943C24F62EFE01E3FC1591E3FE119117
:104C7000EF01C3CFFF24FA94C8CFFE01E3FC1591E6
:104C8000E3FE1191EF01183609F0C4CF086004600B
:104C9000FE01E3FC1591E3FE1191EF01BBCF13364A
:104CA000C1F401FD02C0FF24F394C6010E94E12675
:104CB00097FD1FC08114910429F0F4018083C40181
:104CC00001964C01FA94F110F0CF00FD61CF53949E
:104CD0005FCF1B35B9F49E01A4016F2DC6010E9460
:104CE0000525EC01892B89F7F6018381807309F48E
:104CF00077CF8FEF9FEF511073CFCDB7DEB7EFE0D7
:104D00000C94B51FC6010E945F2497FDF2CF1F3699
:104D1000A9F130F4143641F0193639F0006405C0B9
:104D20001337B9F01537D1F70062202FA4016F2D8A
:104D3000C6010E9478248111C8CFD6CF8114910476
:104D400029F0F4016082C40101964C01FA94FF201D
:104D500071F0C6010E94E1263C0197FD08C00E9447
:104D60007A1F892B59F3B601C3010E944D27811484
:104D7000910409F4AACFF4011082A7CF0061D5CF26
:104D8000FC010590061621F00020D9F7C001089516
:104D90003197CF010895FC010590615070400110DA
:104DA000D8F7809590958E0F9F1F0895FC01615054
:104DB000704001900110D8F7809590958E0F9F1F3D
:104DC0000895CF93DF93EC012B8120FF1AC026FFBB
:104DD0000CC02F7B2B838E819F8101969F838E83B6
:104DE0008A8190E0DF91CF91089522FF18C0E88179
:104DF000F9818081082E000C990B009729F420621C
:104E00002B838FEF9FEFEECF3196F983E8832E81CE
:104E10003F812F5F3F4F3F832E839927E3CFEA8562
:104E2000FB85099597FFF3CF2B81019621F080E256
:104E3000822B8B83E6CF80E1FBCF0F931F93CF9321
:104E4000DF93182F092FEB018B8181FD09C01FEF24
:104E50000FEF812F902FDF91CF911F910F91089528
:104E600082FF14C02E813F818C819D8128173907D4
:104E70003CF4E881F981CF010196998388831083FE
:104E80008E819F8101969F838E83E3CFE885F9858C
:104E9000812F0995892BA1F3DACFFB01238120FF14
:104EA00011C026FD0FC08F3F980771F082832F7DC0
:104EB000206423832681378121503109378326835B
:104EC000992708958FEF9FEF0895FA01AA272830B8
:104ED00051F1203181F1E8946F936E7F6E5F7F4FC7
:104EE0008F4F9F4FAF4FB1E03ED0B4E03CD0670F43
:104EF000781F891F9A1FA11D680F791F8A1F911D96
:104F0000A11D6A0F711D811D911DA11D20D009F4E5
:104F100068943F912AE0269F11243019305D319327
:104F2000DEF6CF010895462F4770405D4193B3E010
:104F30000FD0C9F7F6CF462F4F70405D4A3318F0B7
:104F4000495D31FD4052419302D0A9F7EACFB4E068
:104F5000A6959795879577956795BA95C9F7009720
:104F60006105710508959B01AC010A2E06945795C1
:104F7000479537952795BA95C9F7620F731F841F18
:104F8000951FA01D089511E0CBEFD1E004C0FE01F4
:104F90000E94EF1F2196CC3FD107C9F7F894FFCFAD
:104FA0000000FF06FAD509006400214C45440000CA
:104FB00000FF00FF0000001007800021454F460061
:104FC000002141434B00000021506F6C6C39000000
:104FD000215246494400000000000000000000008B
:104FE00000000000000000000000000000000000C1
:104FF000FFFFFFFFFFFF6B006C006D000000000073
:10500000010561048E044E05BF049D04B104000037
:1050100000001F0BF20A8E0BC80AEB0AD80AC90A55
:1050200000000000C50761048E0B2E04530B0D0A0F
:10503000002142722C002C446F6E652E0072656355
:1050400065697665666C616773005354422E7263BE
:1050500076645074722069733A2000466C61676B05
:105060006579776F7264207265636569766400257F
:105070006900636F7272656374206B6579776F7214
:105080006420666F723A2000616C6C20666C616708
:105090007320726563656976656400656E61626C34
:1050A00065640064697361626C6564005359530000
:1050B000216865616465725F626567696E00216879
:1050C00065616465725F656E6400217365747570F7
:1050D0005F626567696E00536C6176652072657307
:1050E000706F6E647320746F002564005744542001
:1050F000656E6461626C6564002020204932432043
:105100005363616E6E65723A00466F756E643A2045
:10511000002028307800292020004B6579706164D8
:10512000202864656661756C7429004B657970612F
:10513000642F494F004F6C656420202864656661C8
:10514000756C7429004F6C656400556E6B6E6F77DB
:105150006E002173657475705F656E64000A3D3D75
:105160003D53544152543D3D3D0A00362E30342EBD
:105170003230323200312E352E300021506F6C6CBF
:10518000002152656C617900214E41434B0021465C
:105190006C61675F0021466C616773456E64005205
:1051A00046494420737461727400417574682066C6
:1051B00061696C65640072656164206661696C6533
:1051C00064007265616420656D7074792064617437
:1051D00061626C6F636B202D3E20696E76616C6935
:1051E00064005246494420726561642073756363AC
:1051F0006565730052464944206D65737361676548
:1052000020616464696E67005246494420656E649B
:10521000006E6F2062756666657220636C656172F0
:045220006E63650054
:00000001FF
