:100000000C94E3000C940B010C940B010C94FF0E68
:100010000C94DA0E0C94B50E0C940B010C940B019D
:100020000C940B010C940B010C940B010C940B0120
:100030000C940B010C940B010C940B010C940B0110
:100040000C94130E0C940B010C94830E0C945D0E07
:100050000C940B010C940B010C940B010C940B01F0
:100060000C94F40C0C940B010000000023002600FB
:1000700029002B2D2D2D2D2D2D2D2D2D2D2D2D2DE3
:100080002D2D2D2D2D2D2D2D2D2D2D2D2D2D2D2DA0
:100090002D2D2D2D2D2D2B007C2020202054656111
:1000A0006D457363617065204848265320454E476F
:1000B000494E454552494E47202020207C002B2D9B
:1000C0002D2D2D2D2D2D2D2D2D2D2D2D2D2D2D2D60
:1000D0002D2D2D2D2D2D2D2D2D2D2D2D2D2D2D2D50
:1000E0002D2D2B005363616E6E696E672E2E2E00D0
:1000F000493243207363616E6E65723A00207375F6
:10010000636365737366756C000A2072656C617950
:1001100020696E6974206F6E206164647265737308
:1001200020004669726D77617265207665722E20B7
:1001300000466F756E64206368697020504E35000C
:10014000504E353332207374617274757020746947
:100150006D6564206F7574004469646E2774206651
:10016000696E6420504E35337820626F6172640A84
:100170000000000000240027002A000000000025E5
:100180000028002B000404040404040404020202F6
:1001900002020203030303030301020408102040C8
:1001A0008001020408102001020408102000000051
:1001B0000800020100000304070000000000000026
:1001C0000000240F661411241FBECFEFD8E0DEBF5D
:1001D000CDBF26E0ACECB3E001C01D92AD32B2075A
:1001E000E1F713E0A0E0B1E0EAEEFDE202C0059025
:1001F0000D92AC3CB107D9F710E0C2EED0E004C0DC
:100200002197FE010E94DA14C13ED107C9F70E946E
:1002100001100C94E8160C940000089508958FB70F
:10022000F894809153048FBF08958CBD9DBD0895AF
:1002300020913004260F3327331F21323105ECF48F
:100240002091E004FC0190E080E0243069F082E03D
:100250000895A09130042191AC01405F5B4FA40F41
:10026000B52FB11D2C930196861798F38091300419
:10027000680F6093300480E0089581E00895089548
:10028000E091590480915804E81730F4F0E0E65604
:10029000FB4F808190E008958FEF9FEF089590913C
:1002A0005904809158042FEF3FEF981748F4E92F35
:1002B000F0E0E656FB4F208130E09F5F90935904B9
:1002C000C90108958091580490915904891B990B94
:1002D0000895CF92DF92EF92FF920F931F93CF93E7
:1002E000DF937C01CB018A012091E604222389F06F
:1002F000EB016B01C40ED51ECC15DD0569F06991CB
:10030000D701ED91FC910190F081E02DC701099595
:10031000F3CF642F0E941801C801DF91CF911F9184
:100320000F91FF90EF90DF90CF900895CF93DF93E0
:100330001F92CDB7DEB769832091E6042223F9F03E
:1003400020910905203258F021E030E0FC01338390
:10035000228390E080E00F90DF91CF91089580910B
:10036000E704E82FF0E0E851FB4F998190838F5F1D
:100370008093E7048093090581E090E0ECCF61E091
:10038000CE0101960E941801F7CF833081F028F446
:10039000813099F08230A9F008958730A9F0883033
:1003A000C9F08430B1F4809180008F7D03C08091CA
:1003B00080008F7780938000089584B58F7784BD07
:1003C000089584B58F7DFBCF8091B0008F778093A7
:1003D000B00008958091B0008F7DF9CF1F93CF9327
:1003E000DF93282F30E0F901E355FE4F8491F901A6
:1003F000E756FE4FD491F901EB57FE4FC491CC2341
:10040000A9F0162F81110E94C501EC2FF0E0EE0F2C
:10041000FF1FE558FE4FA591B4918FB7F894EC916A
:10042000111108C0D095DE23DC938FBFDF91CF91EF
:100430001F910895DE2BF8CF1092E00481E08093A5
:10044000DF041092BA0461E082E10E94EE0161E0F3
:1004500083E10E94EE01E9EBF0E080818E7F8083F2
:1004600080818D7F808388E48093B80085E48093C9
:10047000BC00089510925904109258041092E70499
:10048000109209050E941C028DE091E090935704A0
:10049000809356048EE091E0909355048093540429
:1004A0000895CF93DF9391E090930F048823B9F0E0
:1004B000C091B800D091BA008091BC008A7B809333
:1004C000BC0060E082E10E94EE0160E083E10E94F6
:1004D000EE010E941C02D093BA00C093B800DF91D5
:1004E000CF910895CF93DF9390E0FC01E756FE4F44
:1004F00024918B579E4FFC0184918823D1F090E08A
:10050000880F991FFC01EF58FE4FA591B491FC0193
:10051000E558FE4FC591D49161110EC09FB7F89474
:100520008C91E22FE0958E238C932881E223E8833F
:100530009FBFDF91CF9108958FB7F894EC91E22B94
:10054000EC938FBFF6CF8230910538F0880F991F5A
:10055000880F991F05970197F1F70895AF92BF9201
:10056000CF92DF92EF92FF920F931F93CF93DF937F
:10057000EC0188819981892B89F06EBD0DB407FE4D
:10058000FDCFBEB48B2DDF91CF911F910F91FF90C6
:10059000EF90DF90CF90BF90AF90089588859985B8
:1005A00011E0892B09F010E8AA24A394862F812357
:1005B00009F0A12C062F2C813D814E815F8160E2E4
:1005C00071EA87E090E00E94B814F22EB02EE12C80
:1005D000C22ED12CFF2019F0C6010E94A3028A85E9
:1005E000877F09F042C08D858F3F89F0902F91233E
:1005F00081E009F480E08A1551F0EF85F8898F8950
:10060000992369F19081892B8083AA24A394E98995
:10061000FA898081998D892B8083FF2019F0C6018A
:100620000E94A3028E858F3F39F0EB89FC8980817F
:10063000988D892309F0E12AE989FA899081898DC9
:100640008095892380838E858F3F09F0BE2C888515
:100650009985892BB9F5110F1111BCCF93CF9081DA
:10066000809589238083A12CD2CFE989FA89808162
:10067000998D892B8083FF2019F0C6010E94A30267
:100680008D858F3F49F0EF85F8898F89902F9123D1
:10069000A9F09081892B8083E989FA899081898DDD
:1006A0008095892380838E858F3F69F2EB89FC8951
:1006B0008081988D892339F2E12AC5CF9081809578
:1006C0008923E9CF1695C8CFCF92DF92EF92FF92A0
:1006D0000F931F93CF93DF93EC018B016A01790194
:1006E00088819981892B31F0EA81FB818081918118
:1006F0000E94150160E08B850E94EE01F801608187
:10070000CE010E94AE028601EC0CFD1CE016F10643
:1007100041F06FEFCE010E94AE02F80181938F018C
:10072000F5CF61E08B850E94EE0181E0DF91CF91F2
:100730001F910F91FF90EF90DF90CF9008953FB7FA
:10074000F89480910B0490910C04A0910D04B09149
:100750000E0426B5A89B05C02F3F19F00196A11DD8
:10076000B11D3FBFBA2FA92F982F8827BC01CD01FB
:10077000620F711D811D911D42E0660F771F881F5A
:10078000991F4A95D1F708958F929F92AF92BF9289
:10079000CF92DF92EF92FF920F931F93CF93DF934D
:1007A000D0910905D13208F0D7C0182FC0910805A3
:1007B0000E949F036B017C018091E00481116BC05A
:1007C00082E08093E0041093DF048FEF8093DE04D7
:1007D0001092DD04D093DC04A8EEB4E0ECEBF4E07E
:1007E00080E0D81391C01092BB048091BB04CC0F61
:1007F000C82BC093BB048091BA04813009F088C033
:100800001092BA040E949F036B017C018091BB048B
:100810008093BB008091E2049091E304A091E404F2
:10082000B091E504892B8A2B8B2BA1F00E949F03AA
:100830000091E2041091E3042091E4043091E50476
:100840006C197D098E099F090617170728073907B4
:1008500008F442C08091BC0083FDD8CF85EC809322
:10086000BC000E949F036B017C018091E0048230F8
:1008700009F450C08091DE048F3F09F46FC080916D
:10088000DE04803209F46CC08091DE04803309F408
:1008900069C084E026C08091E2049091E304A091B5
:1008A000E404B091E504892B8A2B8B2B09F484CFC7
:1008B0000E949F038090E2049090E304A090E404DF
:1008C000B090E5046C197D098E099F09861697067C
:1008D000A806B90608F070CF8091E1040E94510289
:1008E00085E01092E704109209051092E604DF916A
:1008F000CF911F910F91FF90EF90DF90CF90BF901D
:10090000AF909F908F9008959D9191938F5F69CF45
:1009100085EEA5CF8091E2049091E304A091E404D8
:10092000B091E504892B8A2B8B2B09F49ECF0E9472
:100930009F030091E2041091E3042091E4043091BC
:10094000E5046C197D098E099F090617170728070A
:10095000390708F08ACFC0CF81E0C3CF80E0C1CF94
:1009600082E0BFCF83E0BDCFE4EBF5E0918162810F
:100970008081238131E03093E604209308051092B2
:10098000E7041092090560956923682B8AE095E0D9
:100990000E94960181E00C94C403CF92DF92EF9203
:1009A000FF920F931F93CF93DF93D82FC62F6132FF
:1009B00008F098C00E949F036B017C018091E004C5
:1009C00081116BC081E08093E0048093DF049FEF8E
:1009D0009093DE041092DD049C0F9093DC048093CE
:1009E000BB048091BB04DD0FD82BD093BB04809156
:1009F000BA04813009F078C01092BA040E949F03B3
:100A00006B017C018091BB048093BB008091E20468
:100A10009091E304A091E404B091E504892B8A2B22
:100A20008B2BA1F00E949F030091E2041091E3043C
:100A30002091E4043091E5046C197D098E099F0929
:100A4000061717072807390708F448C08091BC002B
:100A500083FDD8CF85EC8093BC000E949F036B017F
:100A60007C018091E004813009F440C08091DD0474
:100A70008C1710F4C091DD04ECEBF4E0AAE9B4E0CB
:100A800080E08C1355C08C2FDF91CF911F910F9177
:100A9000FF90EF90DF90CF9008958091E2049091C5
:100AA000E304A091E404B091E504892B8A2B8B2BFD
:100AB00009F484CF0E949F030091E2041091E304A3
:100AC0002091E4043091E5046C197D098E099F0999
:100AD000061717072807390708F070CF8091E1043F
:100AE0000E945102C0E0CFCF85EEB5CF8091E204E5
:100AF0009091E304A091E404B091E504892B8A2B42
:100B00008B2B09F4AECF0E949F030091E204109159
:100B1000E3042091E4043091E5046C197D098E0909
:100B20009F09061717072807390708F09ACFD6CF6D
:100B300091919D938F5FA5CF8F929F92AF92BF921D
:100B4000CF92DF92EF92FF924B015C010E949F03D4
:100B50006B017C010E949F036C197D098E099F091E
:100B6000683E734081059105A8F321E0821A91083F
:100B7000A108B10888EEC80E83E0D81EE11CF11C64
:100B800081149104A104B10429F7FF90EF90DF9044
:100B9000CF90BF90AF909F908F9008953F924F92CB
:100BA0005F926F927F928F929F92AF92BF92CF92FD
:100BB000DF92EF92FF920F931F93CF93DF93CDB706
:100BC000DEB729970FB6F894DEBF0FBECDBFB62EA5
:100BD000062F172F9C01A82E972EE32EFF24002707
:100BE00011273E2C01E016E088E0882ED12CC12C84
:100BF000D80112968D919C911397C816D90608F0CA
:100C00000FC13B2D18962C91492D5A2D222361F0AE
:100C1000A29EC0011124592F299DC0011124492FE2
:100C20002B9DC0011124392FD8011E96EC911E97DF
:100C300019968D919C911A971B966C91E613A0C002
:100C4000B601660F771F6C0D7D1D860F971FD801AB
:100C50001B96EC911B97E80FF92FF11D50831C9602
:100C6000EC911C97E80FF92FF11D40831D962C91F4
:100C70001D97820F911DFC01308319968D919C91D7
:100C8000892B09F479C0D8011F964D905D906D9025
:100C90007C9052970E949F03641575058605970501
:100CA00038F40E949F03F8016787708B818B928BC9
:100CB0000E949F03D8011F964D905D906D907C908F
:100CC000529764197509860997096C32714081053C
:100CD0009105C8F2F894F801848195819A838983FB
:100CE0000184F285E02D3F012FEF621A720A8081A4
:100CF0008987D8019C915396ED91FC915497559614
:100D00008C91992309F452C09081982B98879081F7
:100D1000809589238F838F818C838B8258856F8107
:100D200049853B812C8189819A81D301508347FD7C
:100D3000252F3A952083262F39F0441F00C000004C
:100D40006083000000C0F2CF38E04D916083000066
:100D5000019761F7D8015496FC93EE935397498716
:100D60003B832C839A83898378940E949F03F801A4
:100D70006787708B818B928BFFEFCF1ADF0A38CF9A
:100D8000B601660F771F660F771F860F971F222306
:100D900059F02E9DB0012F9D700D1124272FE80FC3
:100DA000F92FF11D208353CF232DF9CF9081982B5C
:100DB00098879081809589238F838F818E838D8200
:100DC00058856F8149853D812E8189819A81D30122
:100DD000508347FD252F00C000C0208300C000C005
:100DE00000C000C000C060830000262F3A9541F08B
:100DF000441F000000C000C000C000C000C0E8CF19
:100E000038E04D9100C0608300C0019709F7D80118
:100E10005496FC93EE93539749873D832E83A2CF3C
:100E20006AE070E080E090E00E949C050A5E1F4F3F
:100E300026E00D32120709F0D9CE29960FB6F894A4
:100E4000DEBF0FBECDBFDF91CF911F910F91FF90FD
:100E5000EF90DF90CF90BF90AF909F908F907F905A
:100E60006F905F904F903F900895AF92BF92CF9256
:100E7000DF92EF92FF920F931F93CF93DF936C015A
:100E80007B018B01040F151FEB015E01AE18BF083B
:100E9000C017D10759F06991D601ED91FC910190ED
:100EA000F081E02DC6010995892B79F7C501DF9105
:100EB000CF911F910F91FF90EF90DF90CF90BF9057
:100EC000AF90089590E080E00895FC01538D448D2B
:100ED000252F30E0842F90E0821B930B541710F0E5
:100EE000CF96089501970895FC01918D828D9817F2
:100EF00061F0A28DAE0FBF2FB11D5D968C91928DCA
:100F00009F5F9F73928F90E008958FEF9FEF0895FA
:100F1000FC01918D828D981731F0828DE80FF11DC3
:100F2000858D90E008958FEF9FEF0895FC01918DDE
:100F3000228D892F90E0805C9F4F821B91098F73D7
:100F40009927089586E195E00E94960721E0892B74
:100F500009F420E0822F089580E090E0892B29F0A9
:100F60000E94A20781110C9400000895FC01A48D39
:100F7000A80FB92FB11DA35ABF4F2C91848D90E0BB
:100F800001968F739927848FA689B7892C93A0899E
:100F9000B1898C91837080648C93938D848D981328
:100FA00006C00288F389E02D80818F7D80830895BB
:100FB000EF92FF920F931F93CF93DF93EC0181E0A9
:100FC000888F9B8D8C8D98131AC0E889F989808150
:100FD00085FF15C09FB7F894EE89FF896083E88983
:100FE000F98980818370806480839FBF81E090E075
:100FF000DF91CF911F910F91FF90EF900895F62E02
:101000000B8D10E00F5F1F4F0F731127E02E8C8D9B
:101010008E110CC00FB607FCFACFE889F9898081E0
:1010200085FFF5CFCE010E94B607F1CFEB8DEC0F17
:10103000FD2FF11DE35AFF4FF0829FB7F8940B8FFD
:10104000EA89FB8980818062CFCF0F931F93CF9372
:10105000DF938C01D0E0C0E0F801EC0FFD1F64913C
:10106000662341F086E195E00E94D807892B11F0B4
:101070002196F2CFCE01DF91CF911F910F9108956C
:10108000CF93DF93EC01888D8823B9F0AA89BB89BF
:10109000E889F9898C9185FD03C0808186FD0DC0AA
:1010A0000FB607FCF7CF8C9185FFF2CF808185FFCB
:1010B000EDCFCE010E94B607E9CFDF91CF91089521
:1010C00090E0FC01EE0FFF1FE459FF4FA591B49192
:1010D0002C91FC01E450FC4F30812083880F991F34
:1010E000FC01ED5DFE4F0190F081E02D80810895BF
:1010F0008F929F92AF92BF92CF92DF92EF92FF9228
:101100000F931F93CF93DF9300D0CDB7DEB77C0151
:101110006B0110E000E0AA24A39492E0992EF7015D
:1011200081899289009701F19A8221E030E0AE0135
:101130004F5F5F4FBE016E5F7F4F0E94640381E08F
:101140009981913009F434C080E0C114D10429F0B0
:10115000065F1F4FC016D10658F16AE070E080E0CC
:1011600090E00E949C05DBCF208130E0F901E3553F
:10117000FE4F8491F901E756FE4FB490F901EB5709
:10118000FE4F8490882079F081110E94C501E82DDE
:10119000F0E0EE0FFF1FE859FF4FA591B491EC91DD
:1011A000BE2281E009F480E08A25817009F4CDCF68
:1011B0000F900F90DF91CF911F910F91FF90EF90C3
:1011C000DF90CF90BF90AF909F908F900895682F41
:1011D0008AE095E00C949601CF92DF92EF92FF9215
:1011E0000F931F93CF93DF931F92CDB7DEB7062FD8
:1011F000D72E142FFC01818992890097A9F023E052
:101200002983242F30E0462F572FBE016F5F7F4F79
:101210000E9464030F90DF91CF911F910F91FF9077
:10122000EF90DF90CF90089562E070E080E090E072
:101230000E949C0562E0610F84E20E94CD0410923E
:101240005904809358048AE095E00E944F01C02E13
:10125000E02EFD2C61E070E080E090E00E949C05B3
:101260008AE095E00E944F01F70181937F018E2F64
:101270008C19811778F3CECFFC0101900020E9F79B
:101280003197AF01481B590BBC0186E195E00C94E6
:1012900035078DE491E00C943C09CF93DF930E94D5
:1012A0002508EC010E9449098C0F9D1FDF91CF9109
:1012B00008958F929F92AF92BF920F931F93CF93F7
:1012C000DF93CDB7DEB7A1970FB6F894DEBF0FBEA0
:1012D000CDBF19A2423008F44AE08E010F5D1F4FC6
:1012E000842E912CB12CA12CA50194010E94B8143C
:1012F000E62FB901CA01EA30F4F4E05DD801EE93BB
:101300008D01232B242B252B79F790E080E010977B
:1013100019F0CD010E943C09A1960FB6F894DEBFEA
:101320000FBECDBFDF91CF911F910F91BF90AF90B6
:101330009F908F900895E95CE1CFCF92DF92EF927A
:10134000FF92CF93DF936B017C016DE286E195E024
:101350000E94D807EC0166277727CB016C197D091D
:101360008E099F094AE00E9459098C0F9D1FDF9149
:10137000CF91FF90EF90DF90CF900895CF93DF93C0
:10138000BC01990F880B990B97FF0AC00E949D0919
:10139000EC010E9449098C0F9D1FDF91CF910895A8
:1013A0004AE00E945909F4CFCF93DF930E943C0991
:1013B000EC010E9449098C0F9D1FDF91CF91089588
:1013C000109205041092040480E591E00E94D40973
:1013D00081E080930C01E4EBF5E080818E7F8083D7
:1013E0000E94B4046091FD057091FE058091FF0597
:1013F000909100060C94CE050F931F93CF93DF932B
:10140000EC018B0161E08EE00E94EE010E9449092F
:1014100085E891E00E943C09F80144815581608192
:10142000718186E195E00E94350788E891E00E948D
:101430003C094C815D816881798186E195E00E945B
:1014400035078AE891E00E94D40962E370E080E009
:1014500090E00E949C0560E08EE0DF91CF911F91AB
:101460000F910C94EE012F923F924F925F926F92E8
:101470007F928F929F92AF92BF92CF92DF92EF9224
:10148000FF920F931F93CF93DF9300D000D000D033
:101490001F92CDB7DEB77C014A012DB63EB6DC0106
:1014A0005196CD90DC90BB24B394B60EA62EA0949A
:1014B0006B2C712CC114D10409F495C04DB65EB6E5
:1014C00070E0685F7F4FEDB7FEB7E61BF70B0FB616
:1014D000F894FEBF0FBEEDBF0DB71EB70F5F1F4FD5
:1014E00081E08183D80111961C92119712961C926B
:1014F00012978FEF13968C9313971496BC921497B0
:101500001596AC92159784ED16968C932DB73EB731
:10151000285F3F4FF90163EDA301415051098E2F20
:10152000821B90E0841795073CF4865A9B4FDC01A0
:101530008C918193680FF3CF609560831182B8E03E
:101540006B0E711CF60180819181892B39F002802C
:10155000F381E02D808191810E94150160E0D60128
:101560001B968C910E94EE015801F50161915F017B
:10157000C6010E94AE02C501801B910B861597051E
:10158000A0F361E0D6011B968C910E94EE010FB68C
:10159000F8945EBE0FBE4DBEB401C7010E9478082C
:1015A000182F811163C010E0812F0FB6F8943EBE52
:1015B0000FBE2DBE27960FB6F894DEBF0FBECDBF6F
:1015C000DF91CF911F910F91FF90EF90DF90CF901F
:1015D000BF90AF909F908F907F906F905F904F9053
:1015E0003F902F90089562E070E080E090E00E94CC
:1015F0009C0581E08093E60484E2809308051092C4
:10160000E7041092090580E00E94E70880E00E944C
:10161000E7088FEF0E94E7088B2D0E94E7088A2DCC
:101620000E94E70884ED0E94E708C12C83EDD82EC4
:10163000B1E06B1A71080C2D10E0061517055CF46B
:10164000065A1B4FF80180810E94E708D8018C914F
:10165000D80EC394F0CF8D2D80950E94E70880E0CE
:101660000E94E70881E00E94C40396CFF7018189B8
:101670009289009721F123E02F8326E030E0AE012C
:101680004F5F5F4FBE01695F7F4F0E94640346E07A
:1016900050E06DE071E0CE0101960E94C216892BE8
:1016A00009F081CFD70151968D919C91892B09F436
:1016B0007BCFB401C7010E947808182F75CF46E090
:1016C000BE016F5F7F4FC7010E94EC08E0CF85ED40
:1016D0008093BC008091E2049091E304A091E40423
:1016E000B091E5040796A11DB11D23E0B695A7951D
:1016F000979587952A95D1F72091BC0024FD03C0CA
:101700001092E00408954091E2045091E304609146
:10171000E4047091E504452B462B472B69F30097B1
:10172000A105B10541F025E32A95F1F700000197E5
:10173000A109B109E1CF8091E1040C945102FC01AF
:1017400080819181009711F00C947C150895EF929F
:10175000FF920F931F93CF93DF93EC017B011982CC
:1017600018821B821A821D821C82FB0101900020BC
:10177000E9F731978F01061B170BB8016F5F7F4F99
:1017800090E080E00E9405160097B9F09983888365
:101790001B830A832C813D81232B11F4FC011082D1
:1017A0001D830C83B70188819981DF91CF911F91AF
:1017B0000F91FF90EF900C94E1168881998100972A
:1017C00011F00E947C15198218821D821C821B82D6
:1017D0001A82DF91CF911F910F91FF90EF900895A2
:1017E000CF92DF92EF92FF921F93CF93DF93CDB70B
:1017F000DEB76D970FB6F894DEBF0FBECDBF81E99F
:1018000091E00E94D4097E0181E1E80EF11C87E09D
:10181000D7011D928A95E9F786E0E9E1F1E0DE0162
:10182000589601900D928A95E1F71A8219828AE4FE
:1018300080935A0481E080935B0410925C0450E032
:1018400040E063E083ED95E00E94330A882329F1AC
:101850008091E4059091E505892BB9F044E16AE5B2
:1018600074E083ED95E00E94EC0880916104813082
:10187000A1F410916604A7E6B4E0F7018E2F8E194B
:101880008117D8F48D918193F9CF70E060E083EDFA
:1018900095E00E9478088111E1CF10E0812F6D96CC
:1018A0000FB6F894DEBF0FBECDBFDF91CF911F9171
:1018B000FF90EF90DF90CF90089586E0FE0178963C
:1018C000ADEDB5E001900D928A95E1F7C12ED12CD6
:1018D000A601B70185ED95E00E94CF161093DC05B7
:1018E00080E480935A0481E080935B0490E69093B7
:1018F0005C0480935D0486E0EDEDF5E0AEE5B4E0D8
:1019000001900D928A95E1F720E0822F90E08C15EE
:101910009D055CF4FC01E65AFB4F8D529A4FDC01A9
:1019200012968C9182872F5FF0CF6AE0610F44E6B8
:1019300050E083ED95E00E94330A8823D1F14CE01A
:101940006AE574E083ED95E00E94EC088091610403
:1019500081112FC080E480935A0481E080935B045E
:1019600090E390935C0480935D0444E650E064E06F
:1019700083ED95E00E94330A182F8823F9F04AE19D
:101980006AE574E083ED95E00E94EC0880916104C3
:10199000811114C080E1E2E6F4E0DE0111960190CD
:1019A0000D928A95E1F7898181110BC086EC91E057
:1019B00002C08EEA91E00E94D4096FCF8AEB91E0D9
:1019C000FACFCE0101960E94D409BE016F5F7F4F0E
:1019D0008FE191E00E94D816892B09F45ECF86EE44
:1019E00091E00E94D4095ACF1F920F920FB60F9226
:1019F00011242F933F934F935F936F937F938F9314
:101A00009F93AF93BF93EF93FF938091B900887F2B
:101A1000803609F44AC0F0F5883209F4A7C018F5F9
:101A2000803109F49BC0B8F4882309F4F9C08830E8
:101A300009F494C0FF91EF91BF91AF919F918F9165
:101A40007F916F915F914F913F912F910F900FBEBA
:101A50000F901F901895883109F488C0803251F793
:101A60008093DE0414C0803409F49DC040F48033B8
:101A7000B9F38833F9F68093DE0485ECB0C0803585
:101A800009F485C0883509F496C0883499F60E9417
:101A9000670BD0CF883909F48CC038F5883729F026
:101AA00050F4883611F0803729F683E08093E00403
:101AB0001092520457C0883809F47BC0803919F05D
:101AC000803809F0B7CF80915204803208F071C09D
:101AD000E091520481E08E0F809352048091BB000C
:101AE000F0E0EE5CFB4F80833DC0803B39F0E0F4DA
:101AF000803A09F479C0883A09F09CCF84E0809359
:101B0000E0041092310410923004E0915604F091F8
:101B1000570409958091300481110FC081E08093B2
:101B200030041092100409C0803C09F4A6CF883C10
:101B300009F4A3CF883B09F07DCFE091310481E027
:101B40008E0F80933104F0E0E05FFB4F8081809343
:101B5000BB00909131048091300429C08091BB0476
:101B60008093BB0085EC8093BC0064CF9091DD0432
:101B70008091DC04981758F5E091DD0481E08E0F28
:101B80008093DD04F0E0E454FB4F8081E9CFE091E5
:101B9000DD0481E08E0F8093DD048091BB00F0E0D6
:101BA000E454FB4F80839091DD048091DC0498170E
:101BB000C8F285E8D8CFE091DD0481E08E0F8093F4
:101BC000DD048091BB00F0E0E454FB4F8083809102
:101BD000DF0481115CCF81E08093BA0484EA8093B2
:101BE000BC001092E00426CF85EC8093BC001092DC
:101BF000E00480915204803230F4E0915204F0E02D
:101C0000EE5CFB4F10826091520470E0E09154044E
:101C1000F091550482E394E00995109252040ACFA2
:101C20001092DE0434CF1F920F920FB60F92112440
:101C30002F933F938F939F93AF93BF93809107040C
:101C400090910804A0910904B0910A04309106040F
:101C500023E0230F2D3758F50196A11DB11D2093C8
:101C600006048093070490930804A0930904B0939A
:101C70000A0480910B0490910C04A0910D04B09182
:101C80000E040196A11DB11D80930B0490930C04CA
:101C9000A0930D04B0930E04BF91AF919F918F91CB
:101CA0003F912F910F900FBE0F901F90189526E82F
:101CB000230F0296A11DB11DD2CF1F920F920FB616
:101CC0000F9211242F933F934F935F936F937F93C2
:101CD0008F939F93AF93BF93EF93FF9386E195E02C
:101CE0000E94B607FF91EF91BF91AF919F918F91A5
:101CF0007F916F915F914F913F912F910F900FBE08
:101D00000F901F9018951F920F920FB60F921124EB
:101D10002F938F939F93EF93FF93E0912605F0917C
:101D200027058081E0912C05F0912D0582FD1BC0D7
:101D3000908180912F058F5F8F73209130058217DE
:101D400041F0E0912F05F0E0EA5EFA4F958F809325
:101D50002F05FF91EF919F918F912F910F900FBEC3
:101D60000F901F9018958081F4CF1F920F920FB69D
:101D70000F9211242F933F934F935F936F937F9311
:101D80008F939F93AF93BF93EF93FF9382E00E9453
:101D90006008FF91EF91BF91AF919F918F917F91DB
:101DA0006F915F914F913F912F910F900FBE0F90C8
:101DB0001F9018951F920F920FB60F9211242F9318
:101DC0003F934F935F936F937F938F939F93AF93C3
:101DD000BF93EF93FF9381E00E946008FF91EF9122
:101DE000BF91AF919F918F917F916F915F914F9133
:101DF0003F912F910F900FBE0F901F9018951F923B
:101E00000F920FB60F9211242F933F934F935F932E
:101E10006F937F938F939F93AF93BF93EF93FF93B2
:101E200080E00E946008FF91EF91BF91AF919F9178
:101E30008F917F916F915F914F913F912F910F9073
:101E40000FBE0F901F901895EF92FF921F93CF93A4
:101E5000DF93EAE0F5E01382128288EE93E0A0E0DF
:101E6000B0E084839583A683B7832DE231E031838C
:101E70002083E6E1F5E01382128284839583A683B2
:101E8000B7838FE391E09183808385EC90E0958721
:101E9000848784EC90E09787868780EC90E0918B34
:101EA000808B81EC90E0938B828B82EC90E0958B21
:101EB000848B86EC90E0978B868B118E128E138E1E
:101EC000148E6BEF71E083E296E00E94A70B6AE04C
:101ED00072E08DE196E00E94A70B65E172E087E178
:101EE00096E00E94A70BE1E0F6E081E0808311829A
:101EF00013821282158214822FEF3FEF37832683DD
:101F00001086128611868387148692E095878687CD
:101F10001786108A118A128A80E090E0A8E7B0E064
:101F20008093FD059093FE05A093FF05B0930006F6
:101F300080E09FEFA0E0B0E08093F9059093FA0570
:101F4000A093FB05B093FC0586EEE82E85E0F82E05
:101F50001FEFF701108311838CE190E00E94E014E1
:101F6000EC0188E08B871E871D871C8783EB95E03B
:101F7000998388831B8E82E090E00E94E01421E721
:101F8000FC01208311829B838A8380E492E4AFE08A
:101F9000B0E08C839D83AE83BF83198618861A8632
:101FA000F701D28BC18B83E1A3EDB5E001900D92D7
:101FB0008A95E1F7E4EBF5E0108211821282138238
:101FC0001482158216821782108611861286138655
:101FD000148615861686108A1786128A118A148A24
:101FE000138A168A158A108E178A128E118E148EF5
:101FF000138E168E158EDF91CF911F91FF90EF906B
:102000000895CF93DF93CDB7DEB72C970FB6F89432
:10201000DEBF0FBECDBF789484B5826084BD84B529
:10202000816084BD85B5826085BD85B5816085BDD3
:1020300080916E00816080936E001092810080918B
:102040008100826080938100809181008160809313
:102050008100809180008160809380008091B10038
:1020600084608093B1008091B00081608093B00063
:1020700080917A00846080937A0080917A008260F7
:1020800080937A0080917A00816080937A008091B9
:102090007A00806880937A001092C1000E943A0210
:1020A000E0912605F091270582E08083E0912205EA
:1020B000F09123051082E0912405F091250580E13F
:1020C000808310922E05E0912A05F0912B0586E081
:1020D0008083E0912805F0912905808180618083CB
:1020E000E0912805F0912905808188608083E09146
:1020F0002805F0912905808180688083E09128057A
:10210000F091290580818F7D808364E670E080E016
:1021100090E00E949C0561E08EE00E9472028EEBCE
:1021200090E00E944D0988E990E00E944D0982E705
:1021300090E00E944D0964E170E080E090E00E9430
:102140009C0566E272E0CE0101960E94A70B6AE24E
:1021500072E0CE0107960E94A70BBE016F5F7F4F12
:10216000CE0107960E94FC09CE0107960E949F0BA4
:10217000CE0101960E949F0B66E272E0CE010196AD
:102180000E94A70B68E372E0CE0107960E94A70B9E
:10219000BE016F5F7F4FCE0107960E94FC09CE0102
:1021A00007960E949F0BCE0101960E949F0B66E24C
:1021B00072E0CE0101960E94A70B64E472E0CE01AA
:1021C00007960E94A70BBE016F5F7F4FCE01079657
:1021D0000E94FC09CE0107960E949F0BCE0101963A
:1021E0000E949F0B81E592E00E94D40988E199E268
:1021F0000FB6F894A895809360000FBE909360008E
:10220000A8950E9449098EE592E00E94D4090E9497
:10221000490980EF90E00E944D0984EE90E00E9411
:102220004D0918E0C12ED12CE12CF12C10E001E079
:102230000093E604C09208051092E7041092090585
:1022400081E00E94C40381111DC088E692E00E94D3
:102250003C094AE0C701B6010E94590988E792E0AB
:102260000E943C0940E1C701B6010E9459098DE76F
:1022700092E00E94D4091F5F61E070E080E090E08E
:102280000E949C058FEFC81AD80AE80AF80AA8E746
:10229000CA16D104E104F10459F68BE891E00E94DA
:1022A000D4098FE792E00E943C09612F70E090E032
:1022B00080E04AE00E94590986E892E00E94D40931
:1022C00082E992E00E94D409A89589E091E00E94F9
:1022D00025088FE390E00E94BE098FE38093B70545
:1022E0000E943A028091B5058093B80561E0809123
:1022F000B7050E94CD0410925904809358048111AF
:1023000001C0FFCF8AE095E00E944F018093B505A0
:102310002091B60501E010E0C8010090000402C061
:10232000880F991F0A94E2F7922F982B9093B60585
:102330009091B405809589238093B4050E94B404DC
:102340000090000402C0000F111F0A94E2F7809170
:102350000A018111BCC18091B40500950823009346
:10236000B4050E94B4048BE992E00E943C0981EA22
:1023700092E00E943C096091000470910104072ED4
:10238000000C880B990B97FDA6C14AE00E945909E1
:1023900089EA92E00E943C0980910A0190910B0128
:1023A0000E94BE098DEF90E00E942508A8950E942A
:1023B000490983EB92E00E94D4090091F70510913E
:1023C000F8050115110509F4AEC161E0F801838536
:1023D0000E94720261E0D8011B968C910E94EE016E
:1023E000F80180819181892B09F478C1FFB6F894B6
:1023F0008091FF03811127C0EFE8F1E08491E3EAC7
:10240000F1E09491E82FF0E0EE0FFF1FEF58FE4F40
:10241000A591B491EC91E92321F461E08AE00E9456
:10242000EE0161E08AE00E9472028CB580618CBD91
:102430008CB580648CBD61E08DE00E94720261E029
:102440008BE00E9472028091FF038F5F8093FF03F5
:10245000FFBE81E0D8015B968C9382E080935A04A2
:1024600044E650E061E086EE95E00E94330A82E3A4
:1024700080935A0485E080935B049FEF90935C0403
:1024800091E090935D0480935E0444E650E065E043
:1024900086EE95E00E94330A07E010E0A2E0BA2E33
:1024A000B0925A0444E650E061E086EE95E00E9466
:1024B000330A811156C188E591E00E942508015038
:1024C000110971F780E491E00E9425088EEB92E0FB
:1024D0000E94D409A8950E94490986ED92E00E94C5
:1024E000D40946E0842E41E0942E58E0652E51E058
:1024F000752E01E016E05524539462E0462EF40157
:10250000E190F1904F01D301AD90BD903D01650187
:10251000CC0CDD1CCA0CDB1CC6010E94E014009729
:1025200021F4D12CC12CB12CA12CF701EB57FE4F7B
:10253000E491F0E0EE0FFF1FE558FE4F2591349136
:10254000F701E756FE4FE491D8015C9211961C9278
:1025500011971396BC92AE9212971596DC92CE927A
:1025600014971796FC92EE92169718961C9218974D
:102570001A969C938E9319971B965C921B971C96A8
:102580004C921C971D961C921D971E965C921E974E
:102590001F961D921D921D921C92529754963C9329
:1025A0002E9353975596EC930E947C15F7FC04C02C
:1025B00060E08E2D0E947202F8018681978197FD5E
:1025C00009C061E00E94720260E0D80116968C9109
:1025D0000E94EE01F801518260E070E0CB010E94A0
:1025E000CE050A5E1F4FFAE08F16F1E09F0609F054
:1025F00086CF62E370E080E090E00E949C0580EE70
:1026000092E00E94D4090E94490966E272E0CE017C
:1026100001960E94A70B69EE72E0CE0107960E9418
:10262000A70BBE016F5F7F4FCE0107960E94FC098A
:10263000CE0107960E949F0BCE0101960E949F0B30
:102640000E94490984EF92E00E94D4090E9449093E
:102650000E94E00900E010E082E293E00E94D409C9
:1026600080910C01882309F405C10E94F00B882396
:1026700009F4EFC080910204909103040497BCF028
:1026800087E293E00E94D4096091F9057091FA0500
:102690008091FB059091FC050E94CE0510920C01E3
:1026A0008091B40581608093B4050E94B404809148
:1026B0000204909103040196909303048093020412
:1026C00062E370E080E090E00E949C05C6C08091CB
:1026D000B405082B44CE0E949D095ACE61E0848542
:1026E0000E947202F80182858B7FD1F460E08485BC
:1026F0000E94EE01F80185858F3F49F061E00E945C
:10270000720261E0D8011D968C910E94EE01F801E1
:1027100086858F3F09F49DCE60E00E94720299CEBB
:1027200061E08485E5CF0E943A0261E08091E7058F
:102730000E94EE0160E08091E7050E94EE0160E9F1
:1027400071E080E090E00E949C0561E08091E705E7
:102750000E94EE016AE070E080E090E00E949C053B
:1027600086CE4CE06AE574E086EE95E00E94EC08C7
:1027700046E050E060E071E08AE594E00E94C21615
:10278000892B09F098CEC0906104D0906204DC24BB
:10279000CD24DC24F12CE12CFE2CED2CDC2CCC24E3
:1027A00080916304C82AFE2CED2CDC2CCC24809173
:1027B0006404C82AC114D104E104F10409F47BCEF5
:1027C00081E391E00E9425086F2D772788279927BC
:1027D00040E10E9459090E94490982E291E00E9469
:1027E00025086E2D70E090E080E04AE00E945909D3
:1027F0006EE286E195E00E94D8076D2D70E090E0D2
:1028000080E04AE00E9459090E94490994E19093AE
:102810005A0481E080935B0490935C0480935D0490
:1028200044E650E064E086EE95E00E94330A882397
:1028300039F048E06AE574E086EE95E00E94EC0825
:1028400062E370E080E090E00E949C058CEC92E0F6
:102850003FCE1092030410920204A89501151105B1
:1028600009F4FACE0E94A207882309F4F5CE0E944B
:102870000000F2CE84E593E00E94D4090E94F00BA0
:10288000882389F089E993E00E94D4091092050415
:102890001092040480910404909105040D978CF02B
:1028A0000E94E009DACF8CEA93E00E94D40980917B
:1028B0000404909105040596909305048093040404
:1028C000E9CF68E873E180E090E0FECE80910A06EF
:1028D00090910B060E947C15809107069091080646
:1028E00097FD03C060E00E94720287E196E00E94BB
:1028F0009F0B8DE196E00E949F0B83E296E00C9483
:102900009F0B2F923F924F925F926F927F928F9286
:102910009F92AF92BF92CF92DF92EF92FF920F936E
:102920001F93CF93DF93CDB7DEB7CA1BDB0B0FB678
:10293000F894DEBF0FBECDBF09942A883988488835
:102940005F846E847D848C849B84AA84B984C884CB
:10295000DF80EE80FD800C811B81AA81B981CE0FC2
:10296000D11D0FB6F894DEBF0FBECDBFED010895A7
:10297000A1E21A2EAA1BBB1BFD010DC0AA1FBB1F83
:10298000EE1FFF1FA217B307E407F50720F0A21BF5
:10299000B30BE40BF50B661F771F881F991F1A9462
:1029A00069F760957095809590959B01AC01BD018C
:1029B000CF010895EE0FFF1F0590F491E02D0994CB
:1029C0000F931F93CF93DF938230910510F482E031
:1029D00090E0E0912B06F0912C0630E020E0B0E092
:1029E000A0E0309799F42115310509F44AC0281B5D
:1029F000390B24303105D8F58A819B816115710529
:102A000089F1FB0193838283FE0111C040815181D2
:102A10000281138148175907E0F04817590799F4C4
:102A2000109761F012960C93129713961C9332969E
:102A3000CF01DF91CF911F910F91089500932B0645
:102A400010932C06F4CF2115310551F0421753078E
:102A500038F0A901DB019A01BD01DF01F801C1CF06
:102A6000EF01F9CF90932C0680932B06CDCFFE017A
:102A7000E20FF31F81939193225031093983288308
:102A8000D7CF2091290630912A06232B41F420919B
:102A900015013091160130932A06209329062091C2
:102AA0001301309114012115310541F42DB73EB7C2
:102AB0004091170150911801241B350BE091290614
:102AC000F0912A06E217F307A0F42E1B3F0B2817FC
:102AD000390778F0AC014E5F5F4F2417350748F097
:102AE0004E0F5F1F50932A064093290681939193BE
:102AF0009FCFF0E0E0E09CCFCF93DF930097E9F029
:102B0000FC01329713821282A0912B06B0912C0601
:102B1000ED0130E020E01097A1F420813181820F97
:102B2000931F2091290630912A062817390709F0AA
:102B300061C0F0932A06E0932906DF91CF910895B2
:102B4000EA01CE17DF07E8F54A815B819E01411556
:102B50005105B1F7E901FB83EA8349915991C40F0B
:102B6000D51FEC17FD0761F4808191810296840FD7
:102B7000951FE90199838883828193819B838A834E
:102B8000F0E0E0E012968D919C9113970097B9F5D3
:102B90002D913C911197CD010296820F931F2091A8
:102BA000290630912A062817390739F6309751F54A
:102BB00010922C0610922B06B0932A06A093290699
:102BC000BCCFD383C28340815181840F951FC81726
:102BD000D90761F44E5F5F4F88819981480F591F73
:102BE000518340838A819B819383828321153105A0
:102BF00009F0B0CFF0932C06E0932B069ECFFD0199
:102C0000DC01C0CF13821282D7CFB0E0A0E0EBE0AE
:102C1000F6E10C9483148C01009751F4CB010E94CF
:102C2000E0148C01C801CDB7DEB7E0E10C949F142D
:102C3000FC01E60FF71F9C0122503109E217F30750
:102C400008F49DC0D901CD91DC911197C617D70723
:102C500098F0C530D10530F3CE0104978617970759
:102C600008F3C61BD70B2297C193D1936D937C9326
:102C7000CF010E947C15D6CF5B01AC1ABD0A4C0176
:102C80008C0E9D1EA0912B06B0912C06512C412C30
:102C9000F12CE12C109731F58091290690912A06AC
:102CA0008815990509F05CC04616570608F058C00B
:102CB0008091130190911401009741F48DB79EB754
:102CC0004091170150911801841B950BE817F907E3
:102CD00008F055C0F0932A06E0932906F9017183A4
:102CE0006083A0CF8D919C91119712966C90129752
:102CF00013967C901397A815B90559F56C0142E01D
:102D0000C40ED11CCA14DB0420F1AC014A195B09C2
:102D1000DA011296159780F06282738251834083A4
:102D2000D9016D937C93E114F10471F0D7011396EE
:102D3000FC93EE93129776CF22968C0F9D1FF9018C
:102D400091838083F301EFCFF0932C06E0932B0661
:102D500069CF4816590608F42C017D01D3019ACF9A
:102D6000CB010E94E0147C01009749F0AE01B8014C
:102D70000E94CF16C8010E947C15870153CF10E036
:102D800000E050CFFB01DC0104C08D91019080195F
:102D900021F441505040C8F7881B990B0895FB015E
:102DA000DC0102C001900D9241505040D8F70895C7
:102DB000FB01DC018D91019080190110D9F3990B71
:102DC0000895FB01DC0101900D920020E1F70895C8
:102DD00010E0C2EED0E004C0FE010E94DA14219699
:0A2DE000C33ED107C9F7F894FFCFF6
:102DEA000000FF06FAD509001F000100010000FFDC
:102DFA0000FF0000002D068000FFFFFFFFFFFF41DC
:102E0A004800006B006C006D00000000009601692C
:102E1A000162073F0162014F01400100000000D832
:102E2A00073507650740089607740788070D0A00E3
:102E3A0047616D6520676F696E67206C6976652CDE
:102E4A00206B696C6C696E67206C696768747320A3
:102E5A00616E64206C6F636B696E672074686520AD
:102E6A00646F6F72002142722C002C446F6E652EC3
:102E7A0000436865636B696E672070726573656E7F
:102E8A00636520666F7220726561646572004175C0
:102E9A007468206661696C656400726561642066A5
:102EAA0061696C6564007265616420656D7074792E
:102EBA002064617461626C6F636B202D3E20696EC1
:102ECA0076616C696400436F727265637420636132
:102EDA00726420706C616365642100454E545F53CF
:102EEA005F425245414B4F55540033312E30332EF9
:102EFA00323032320076657273696F6E20312E314C
:102F0A002E3120535400535953002168656164657A
:102F1A00725F626567696E00216865616465725FE8
:102F2A00656E64002173657475705F626567696EAA
:102F3A000057445420656E6461626C6564004932CE
:102F4A00433A202E2E2E2000466F756E642061644F
:102F5A0064726573733A200020283078002900468D
:102F6A006F756E642000206465766963652873292D
:102F7A002E004932433A204F4B21002020202020A6
:102F8A000052656C6179205B005D20736574207462
:102F9A006F2000524649443A202E2E2E20005246D7
:102FAA0049443A204641494C454421005246494445
:102FBA003A204F4B21004C45443A202E2E2E200019
:102FCA004C45443A204F4B21002173657475705F5C
:102FDA00656E64003D3D3D3D3D3D3D3D3D3D3D3DD4
:102FEA003D3D3D3D3D3D3D53544152543D3D3D3DAA
:102FFA003D3D3D3D3D3D3D3D3D3D3D3D3D3D3D3DF7
:10300A003D006C6F6F700047616D6520656E646589
:10301A00642C206861766520736F6D65206C696722
:10302A00687420616E6420616E206F70656E206422
:10303A006F6F7200726F6F6D2068617320626565D1
:10304A006E20736F6C7665642C2077616974696E83
:10305A006720666F722063617264206265696E67B9
:10306A002072656D6F76656420746F2061726D20C1
:10307A0074686520726F6F6D006361726420737487
:10308A00696C6C2070726573656E7400636172643A
:10309A002072656D6F7665642C20696E6372656156
:0C30AA0073696E672074696D6572000028
:00000001FF
