:100000000C947F040C94A7040C94A7040C94C716BA
:100010000C94A2160C947D160C94A7040C94A704BF
:100020000C94A7040C94A7040C94A7040C94A704A4
:100030000C94A7040C94A7040C94A7040C94A70494
:100040000C94DB150C94A7040C944B160C942516F9
:100050000C94A7040C94A7040C94A7040C94A70474
:100060000C94BC140C94A704AEB08180A1A6A83F48
:10007000AD8B32C8D300D580D91FDA12DB40AF0078
:100080000000002300260029005375636365737325
:1000900066756C001C620A0C206002020508070DE0
:1000A00008020404050702040206070607070707FB
:1000B000070707070202070707050A0707070806D9
:1000C00006080804060707090809070908070808B9
:1000D000070C0708060406040809030606060606B8
:1000E000050606020407020A0606060605050506B9
:1000F000060A0606050602060809000000007E7EC4
:10010000303007070007070000000000C0D8F8DE05
:10011000D8F8DE180030000030000000387C64FFA2
:1001200064E4C8102020F02030103C7E427E3CC0A9
:100130002018E6F010F0E000000000300000001091
:1001400030203010DCFE227EDC8060201030202049
:100150002010302007070000F8FE07011070E08033
:100160000107FEF880E07010120C3F0C1200000036
:100170000000202020FC20202000000010000000B3
:100180000000F0702020202000000000000030302F
:100190000080E07C1F03C0F030000000FCFE020283
:1001A00002FEFC103020202030100404FEFE00006F
:1001B000202030302020040682C2623E1C203030D5
:1001C000202020200406222222FEDC1030202020C5
:1001D0003010C0A09884FEFE800000000030300087
:1001E000001E1E1212F2E210302020203010F8FC07
:1001F000161212F2E010302020203010020282E2AB
:100200007A1E0600203010000000DCFE222222FEB2
:10021000DC103020202030103C7E424242FEFC00A8
:10022000202020301000181830301818F07060604E
:10023000909008080400000000101020909090900A
:10024000909090000000000000000408089090606A
:1002500060201010000000000462721E0C0030309C
:100260000000F00CF4FA0AFAFA040CF00030205006
:1002700050505010100080F8FE86FEF8803030009C
:1002800000003030FEFE22223EFCC0303020202014
:100290003010F8FC0602020204001030202020106A
:1002A000FEFE02020206FCF8303020202030100052
:1002B000FEFE22222222303020202020FEFE22229A
:1002C0002222303000000000F8FC06024242C2C484
:1002D0000010302020203030FEFE20202020FEFEA6
:1002E000303000000000303002FEFE0220303020AE
:1002F00000020202FEFE202020203010FEFE70D8F8
:100300008C060230300000103020FEFE000000009D
:100310000030302020202020FE0E3CF0C0300CFEAB
:10032000FE300000000000003030FE061C38E0C047
:1003300000FE3000000000103030F8FC060202021F
:1003400006FCF8001030202020301000FEFE424253
:10035000427E3C30300000000000F8FC0602020241
:1003600006FCF80010302060E0B09080FEFE2262B3
:10037000E2BE1C0030300000001030201C3E322253
:1003800062E2C410202020203010020202FEFE0291
:1003900002020000003030000000FEFE00000000FD
:1003A000FEFE10302020202030100E7EF080F07EE7
:1003B0000E000030303000000E7EF080E03E3EE067
:1003C00080F07E0E00003030000000003030000071
:1003D000068EF870F88E0630300000003030060EC1
:1003E00018F0F0180E06000000303000000002C2C5
:1003F000F23E0E02303020202020FFFF0101F0F0FD
:100400008080031F7CE0800000000030F0C001010C
:10041000FFFF8080F0F010180C06060C181000008A
:10042000000000000000000000000000000000804C
:100430008080808080808080010302000000C0E80E
:100440002828F8F0103020203030FFFF0808F8F09E
:10045000303020203010F0F808080810103020202C
:100460002010F0F80808FFFF103020203030F0F89E
:100470004848787010302020201008FEFF0909003D
:1004800030300000F0F80808F8F810B0A0A0F070C4
:10049000FFFF0808F8F0303000003030FBFB303050
:1004A0000008FBFB8080F070FFFF60F098080030D0
:1004B000300000103020FFFF3030F8F81008F8F05E
:1004C0001008F8F030300000303000003030F8F81C
:1004D0000808F8F0303000003030F0F80808F8F084
:1004E000103020203010F8F80808F8F0F0F0202044
:1004F0003010F0F80808F8F810302020F0F0F8F884
:100500001018183030000000307848C888202020AB
:10051000301008FEFE08080010302020F8F8000017
:10052000F8F810302020303038F8C0C0F83800100B
:100530003030100078F880C03838C080F87800304B
:10054000300000000030300018B8E0E0B81830305B
:100550000000303038F8C0C0F8380090F07010005B
:1005600008C8E8781830302020202020FEDF010164
:10057000000070F08080FFFFF0F00101DFFE20201E
:100580008080F0700000E01010204080807000003B
:10059000000000000000FE02020202020202FE3021
:1005A00020202020202020306800178040020A0AE6
:1005B0004F4C454420696E6974206F6E204164641D
:1005C000726573733A203078002B2D2D2D2D2D2D33
:1005D0002D2D2D2D2D2D2D2D2D2D2D2D2D2D2B007A
:1005E0007C20202020456C656374726F736361709A
:1005F00065202020207C002B2D2D2D2D2D2D2D2D07
:100600002D2D2D2D2D2D2D2D2D2D2D2D2B000000A3
:1006100005072060000000000000005F00000007E8
:10062000000700147F147F14242A7F2A1223130842
:10063000646236495620500008070300001C22411E
:10064000000041221C002A1C7F1C2A08083E0808C2
:100650000080703000080808080800006060002072
:10066000100804023E5149453E00427F4000724955
:100670004949462141494D331814127F10274545F9
:1006800045393C4A4949314121110907364949490F
:1006900036464949291E000014000000403400007D
:1006A00000081422411414141414004122140802E6
:1006B000015909063E415D594E7C1211127C7F4959
:1006C0004949363E414141227F4141413E7F4949AE
:1006D00049417F090909013E414151737F080808DA
:1006E0007F00417F41002040413F017F08142241AB
:1006F0007F404040407F021C027F7F0408107F3E05
:100700004141413E7F090909063E4151215E7F0971
:10071000192946264949493203017F01033F4040D8
:10072000403F1F2040201F3F4038403F63140814C3
:100730006303047804036159494D43007F414141FB
:100740000204081020004141417F040201020440DC
:1007500040404040000307080020545478407F2860
:100760004444383844444428384444287F38545456
:10077000541800087E090218A4A49C787F08040479
:100780007800447D40002040403D007F1028440018
:1007900000417F40007C047804787C0804047838A9
:1007A00044444438FC1824241818242418FC7C08D9
:1007B000040408485454542404043F44243C404056
:1007C000207C1C2040201C3C4030403C4428102809
:1007D000444C9090907C4464544C44000836410052
:1007E0000000770000004136080002010204023CCC
:1007F0002623263C52657374617274696E672069A2
:100800006E000A5246494420696E6974202E2E2ECD
:10081000205375636365737366756C200A004669BF
:10082000726D77617265207665722E2000466F7555
:100830006E64206368697020504E3500504E353329
:100840003220737461727475702074696D656420F0
:100850006F7574004469646E27742066696E642045
:10086000504E35337820626F6172640A000A524636
:10087000494420696E6974202E2E2E200A002073B0
:1008800075636365737366756C000A0A4C45442092
:10089000696E6974202E2E2E0000000000240027AF
:1008A000002A0000000000250028002B000404049A
:1008B0000404040404020202020202030303030309
:1008C00003010204081020408001020408102001E6
:1008D00002040810200000000800020100000304C8
:1008E00007000000000000000000030C0F30333C44
:1008F0003FC0C3CCCFF0F3FCFF000717FB1D112452
:100900001FBECFEFD8E0DEBFCDBF26E0A8EAB3E040
:1009100001C01D92A935B207E1F713E0A0E0B1E0F4
:10092000E6E9F1E402C005900D92A83AB107D9F7C3
:1009300014E0CEE7D4E004C02197FE010E94A81E77
:10094000CD37D107C9F70E940C180C94BE200C9427
:1009500000008FB7F89480914F048FBF08958CBD2D
:100960009DBD0895CF93DF93EC019C818E819817F4
:1009700058F4E881F9810084F185E02D42E0CE0150
:1009800009958C818F5F8C83DF91CF910895DC0175
:10099000ED91FC910084F185E02D40E009940F93E6
:1009A0001F93CF938C01FC016483C085C60F6C2F0D
:1009B0006F700E94C7046C2F62956F706061C801F0
:1009C000CF911F910F910C94C704FC0127812695AC
:1009D00026952695621720F46583606B0C94C704F6
:1009E00008951F93CF93DF93EC01142F8E81681726
:1009F00018F4CE010E94CF04612FCE01DF91CF9178
:100A00001F910C94E504CF92DF92EF92FF920F9327
:100A10001F93CF93DF93EC01162FC42ED22E8F811C
:100A2000869586958695081710F00FEF080FFD2C18
:100A30000F15B0F08E81181720F4612FCE010E949F
:100A4000CF046F2DCE010E94E504E12ECE1430F0CC
:100A500060E0CE010E94B204E394F8CFF394E8CFB3
:100A60004D2D612FCE01DF91CF911F910F91FF90FE
:100A7000EF90DF90CF900C94F1040F9300911C063F
:100A8000069506950695015040911B06415020E0C1
:100A900060E085E196E00E94030581E090911F06E9
:100AA000911101C080E080931F0660E485E196E02B
:100AB0000F910C94C7042F923F924F925F926F92C6
:100AC0007F928F929F92AF92BF92CF92DF92EF92DE
:100AD000FF920F931F93CF93DF9300D000D01F920C
:100AE000CDB7DEB7DC011B960D911C9101151105E8
:100AF00009F468C19D838C83F80144913196549127
:100B00003196649031962491E22EF12CF7E0EF0EAD
:100B1000F11C73E0F594E7947A95E1F7E982F80126
:100B2000349634913196E491631748F08E2F90E01B
:100B3000FC01E30FF11D6E171F060CF487C06D302A
:100B400031F5AC81BD8116968C9181111AC081E07E
:100B500090E00F900F900F900F900F90DF91CF913A
:100B60001F910F91FF90EF90DF90CF90BF90AF90CB
:100B70009F908F907F906F905F904F903F902F90BD
:100B8000089560E08C819D810E94CF04E0CF6A309F
:100B900009F018C1EC81FD818185D5808E9DD00C36
:100BA00011248781869586958695D81630F08285A2
:100BB000882319F082E08287D12C4D2D60E08C8152
:100BC0009D810E94F104AC81BD811A968C911A9787
:100BD000823008F4BCCF15962C9115971B96ED9199
:100BE000FC911C9700E0309739F03396E491199608
:100BF0000C91E09F002D112410E0095F1F4F33E09E
:100C0000159507953A95E1F78FEF820F080FEC8164
:100C1000FD81468141506481CF010E940305AC8172
:100C2000BD8119968C9119976D2D8E9D600D1124A3
:100C3000660F660F660F17968C91861708F460E0B2
:100C400060648C819D810E94C70481CF4527542711
:100C500045270A5F1F4F631BEC81FD8121844230D1
:100C6000510508F06DC0452B09F0212C6E9CC00188
:100C70006F9C900D1124689FF001699FF00D112465
:100C80000E0F1F1F512CAC81BD811496BC91BA83ED
:100C9000EC81FD81F581FB83862C912CAA24A39401
:100CA000B12C312C8981381608F086C0412CAC81DA
:100CB000BD8119968C91481608F077C0311002C09A
:100CC000442041F0EC81FD8145814F5F6A81CF0175
:100CD0000E94F104D12CC12CC61408F05AC0F801AE
:100CE000EC0DFD1D7490552061F0EA14FB0449F4ED
:100CF000E72DF0E0052C02C0F595E7950A94E2F7A0
:100D00007E2EAC81BD8119968C91823081F4442075
:100D100009F43BC072948FE07822E72DF0E0E751B0
:100D2000F74F7490672D8C819D810E94B204672DCE
:100D30008C819D810E94B204EFEFCE1ADE0ACCCFE7
:100D4000277038E0532E521A211101C0512C50E067
:100D500040E030E020E0F801461740F4E40FF51FD2
:100D6000E4912E0F311D4F5F5F4FF5CFE60FF11D60
:100D70006490E29EF001E39EF00DF29EF00D1124CE
:100D80008E0F9F1F080F191F7ECFB72DBF707B2EB0
:100D9000C4CFD12C2D1439F060E08C819D810E944C
:100DA000B204D394F7CF439482CF3394080D191D26
:100DB000FFEFAF1ABF0A76CF6B818C819D810E94B5
:100DC000E504C5CE90E080E0C4CE20912A04260F31
:100DD0003327331F21323105ECF42091B604FC0196
:100DE00090E080E0243069F082E00895A0912A0428
:100DF0002191AC01485F5B4FA40FB52FB11D2C931F
:100E00000196861798F380912A04680F60932A044C
:100E100080E0089581E00895089508950895E0918F
:100E2000060480910504E81730F4F0E0EB51FC4F24
:100E3000808190E008958FEF9FEF089590910604D0
:100E4000809105042FEF3FEF981748F4E92FF0E069
:100E5000EB51FC4F208130E09F5F90930604C90165
:100E600008958091050490910604891B990B0895BB
:100E7000CF92DF92EF92FF920F931F93CF93DF9366
:100E80007C01CB018A012091BC04222389F0EB0173
:100E90006B01C40ED51ECC15DD0569F06991D70133
:100EA000ED91FC910190F081E02DC7010995F3CF00
:100EB000642F0E94E506C801DF91CF911F910F9129
:100EC000FF90EF90DF90CF900895CF93DF931F9224
:100ED000CDB7DEB769832091BC042223F9F02091BD
:100EE000DF04203258F021E030E0FC01338322831C
:100EF00090E080E00F90DF91CF9108958091BD0444
:100F0000E82FF0E0E254FB4F998190838F5F80934C
:100F1000BD048093DF0481E090E0ECCF61E0CE017E
:100F200001960E94E506F7CF833081F028F48130E6
:100F300099F08230A9F008958730A9F08830C9F07F
:100F40008430B1F4809180008F7D03C08091800057
:100F50008F7780938000089584B58F7784BD08953E
:100F600084B58F7DFBCF8091B0008F778093B000E8
:100F700008958091B0008F7DF9CF1F93CF93DF93B9
:100F8000282F30E0F901EB52F74F8491F901EF532C
:100F9000F74FD491F901E355F74FC491CC23A9F051
:100FA000162F81110E949407EC2FF0E0EE0FFF1F27
:100FB000ED55F74FA591B4918FB7F894EC911111BD
:100FC00008C0D095DE23DC938FBFDF91CF911F91B6
:100FD0000895DE2BF8CF1092B60481E08093B5041B
:100FE0001092900461E082E10E94BD0761E083E11C
:100FF0000E94BD07E9EBF0E080818E7F80838081D5
:101000008D7F808388E48093B80085E48093BC0062
:101010000895CF93DF9391E0909307048823B9F06C
:10102000C091B800D091BA008091BC008A7B8093B7
:10103000BC0060E082E10E94BD0760E083E10E94A5
:10104000BD070E94EB07D093BA00C093B800DF91B0
:10105000CF910895CF93DF9390E0FC01EF53F74FCA
:1010600024918355974FFC0184918823D1F090E01F
:10107000880F991FFC01E756F74FA591B491FC0129
:10108000ED55F74FC591D49161110EC09FB7F894FB
:101090008C91E22FE0958E238C932881E223E883C4
:1010A0009FBFDF91CF9108958FB7F894EC91E22B19
:1010B000EC938FBFF6CF8230910538F0880F991FDF
:1010C000880F991F05970197F1F70895AF92BF9286
:1010D000CF92DF92EF92FF920F931F93CF93DF9304
:1010E000EC0188819981892B89F06EBD0DB407FED2
:1010F000FDCFBEB48B2DDF91CF911F910F91FF904B
:10110000EF90DF90CF90BF90AF900895888599853C
:1011100011E0892B09F010E8AA24A394862F8123DB
:1011200009F0A12C062F2C813D814E815F8160E268
:1011300071EA87E090E00E94861EF22EB02EE12C2C
:10114000C22ED12CFF2019F0C6010E945B088A85AF
:10115000877F09F042C08D858F3F89F0902F9123C2
:1011600081E009F480E08A1551F0EF85F8898F89D4
:10117000992369F19081892B8083AA24A394E9891A
:10118000FA898081998D892B8083FF2019F0C6010F
:101190000E945B088E858F3F39F0EB89FC89808146
:1011A000988D892309F0E12AE989FA899081898D4E
:1011B0008095892380838E858F3F09F0BE2C88859A
:1011C0009985892BB9F5110F1111BCCF93CF90815F
:1011D000809589238083A12CD2CFE989FA898081E7
:1011E000998D892B8083FF2019F0C6010E945B082E
:1011F0008D858F3F49F0EF85F8898F89902F912356
:10120000A9F09081892B8083E989FA899081898D61
:101210008095892380838E858F3F69F2EB89FC89D5
:101220008081988D892339F2E12AC5CF90818095FC
:101230008923E9CF1695C8CFCF92DF92EF92FF9224
:101240000F931F93CF93DF93EC018B016A01790118
:1012500088819981892B31F0EA81FB81808191819C
:101260000E94AF0460E08B850E94BD07F801608199
:10127000CE010E9466088601EC0CFD1CE016F1060A
:1012800041F06FEFCE010E946608F80181938F0153
:10129000F5CF61E08B850E94BD0781E0DF91CF91A2
:1012A0001F910F91FF90EF90DF90CF9008953FB77F
:1012B000F8948091E1039091E203A091E303B0914F
:1012C000E40326B5A89B05C02F3F19F00196A11D88
:1012D000B11D3FBFBA2FA92F982F8827BC01CD0180
:1012E000620F711D811D911D42E0660F771F881FDF
:1012F000991F4A95D1F708958F929F92AF92BF920E
:10130000CF92DF92EF92FF920F931F93CF93DF93D1
:10131000D091DF04D13208F0D7C0182FC091DE047D
:101320000E9457096B017C018091B60481116BC04A
:1013300082E08093B6041093B5048FEF8093B404D9
:101340001092B304D093B204AEEBB4E0E2E9F4E05F
:1013500080E0D81391C01092910480919104CC0F39
:10136000C82BC093910480919004813009F088C00B
:10137000109290040E9457096B017C0180919104A6
:101380008093BB008091B8049091B904A091BA04F5
:10139000B091BB04892B8A2B8B2BA1F00E9457099B
:1013A0000091B8041091B9042091BA043091BB04A3
:1013B0006C197D098E099F09061717072807390739
:1013C00008F442C08091BC0083FDD8CF85EC8093A7
:1013D000BC000E9457096B017C018091B6048230E9
:1013E00009F450C08091B4048F3F09F46FC080911C
:1013F000B404803209F46CC08091B404803309F4E1
:1014000069C084E026C08091B8049091B904A0918D
:10141000BA04B091BB04892B8A2B8B2B09F484CF9F
:101420000E9457098090B8049090B904A090BA0423
:10143000B090BB046C197D098E099F09861697062A
:10144000A806B90608F070CF8091B7040E94090879
:1014500085E01092BD041092DF041092BC04DF916D
:10146000CF911F910F91FF90EF90DF90CF90BF90A1
:10147000AF909F908F9008959D9191938F5F69CFCA
:1014800085EEA5CF8091B8049091B904A091BA04DB
:10149000B091BB04892B8A2B8B2B09F49ECF0E9421
:1014A00057090091B8041091B9042091BA04309101
:1014B000BB046C197D098E099F09061717072807B9
:1014C000390708F08ACFC0CF81E0C3CF80E0C1CF19
:1014D00082E0BFCF83E0BDCF8F929F92AF92BF9249
:1014E000CF92DF92EF92FF924B015C010E9457096D
:1014F0006B017C010E9457096C197D098E099F09B7
:10150000683E734081059105A8F321E0821A910895
:10151000A108B10888EEC80E83E0D81EE11CF11CBA
:1015200081149104A104B10429F7FF90EF90DF909A
:10153000CF90BF90AF909F908F9008953F924F9221
:101540005F926F927F928F929F92AF92BF92CF9253
:10155000DF92EF92FF920F931F93CF93DF93CDB75C
:10156000DEB729970FB6F894DEBF0FBECDBFB62EFB
:10157000062F172F9C01A82E972EE32EFF2400275D
:1015800011273E2C0CED15E088E0882ED12CC12CC3
:10159000D80112968D919C911397C816D90608F020
:1015A0000FC13B2D18962C91492D5A2D222361F005
:1015B000A29EC0011124592F299DC0011124492F39
:1015C0002B9DC0011124392FD8011E96EC911E9736
:1015D00019968D919C911A971B966C91E613A0C059
:1015E000B601660F771F6C0D7D1D860F971FD80102
:1015F0001B96EC911B97E80FF92FF11D50831C9659
:10160000EC911C97E80FF92FF11D40831D962C914A
:101610001D97820F911DFC01308319968D919C912D
:10162000892B09F479C0D8011F964D905D906D907B
:101630007C9052970E945709641575058605970599
:1016400038F40E945709F8016787708B818B928B61
:101650000E945709D8011F964D905D906D907C9027
:10166000529764197509860997096C327140810592
:101670009105C8F2F894F801848195819A83898351
:101680000184F285E02D3F012FEF621A720A8081FA
:101690008987D8019C915396ED91FC91549755966A
:1016A0008C91992309F452C09081982B988790814E
:1016B000809589238F838F818C838B8258856F815E
:1016C00049853B812C8189819A81D301508347FDD3
:1016D000252F3A952083262F39F0441F00C00000A3
:1016E0006083000000C0F2CF38E04D9160830000BD
:1016F000019761F7D8015496FC93EE93539749876D
:101700003B832C839A83898378940E945709F8013C
:101710006787708B818B928BFFEFCF1ADF0A38CFF0
:10172000B601660F771F660F771F860F971F22235C
:1017300059F02E9DB0012F9D700D1124272FE80F19
:10174000F92FF11D208353CF232DF9CF9081982BB2
:1017500098879081809589238F838F818E838D8256
:1017600058856F8149853D812E8189819A81D30178
:10177000508347FD252F00C000C0208300C000C05B
:1017800000C000C000C060830000262F3A9541F0E1
:10179000441F000000C000C000C000C000C0E8CF6F
:1017A00038E04D9100C0608300C0019709F7D8016F
:1017B0005496FC93EE93539749873D832E83A2CF93
:1017C0006AE070E080E090E00E946C0A0A5E1F4FC1
:1017D00026E00830120709F0D9CE29960FB6F89402
:1017E000DEBF0FBECDBFDF91CF911F910F91FF9054
:1017F000EF90DF90CF90BF90AF909F908F907F90B1
:101800006F905F904F903F9008950895DB0114967C
:101810004D915C9115976D917C91DC01ED91FC915E
:101820000280F381E02D0994AF92BF92CF92DF92B4
:10183000EF92FF920F931F93CF93DF936C017B0185
:101840008B01040F151FEB015E01AE18BF08C01716
:10185000D10759F06991D601ED91FC910190F08189
:10186000E02DC6010995892B79F7C501DF91CF914C
:101870001F910F91FF90EF90DF90CF90BF90AF90AE
:101880000895FC01538D448D252F30E0842F90E086
:10189000821B930B541710F0CF960895019708956B
:1018A000FC01918D828D981761F0A28DAE0FBF2F34
:1018B000B11D5D968C91928D9F5F9F73928F90E08A
:1018C00008958FEF9FEF0895FC01918D828D9817F9
:1018D00031F0828DE80FF11D858D90E008958FEF36
:1018E0009FEF0895FC01918D228D892F90E0805CFF
:1018F0009F4F821B91098F739927089581EF94E080
:101900000E94720C21E0892B09F420E0822F0895B7
:1019100080E090E0892B29F00E947E0C81110C94CC
:1019200000000895FC01A48DA80FB92FB11DA35A82
:10193000BF4F2C91848D90E001968F739927848FEF
:10194000A689B7892C93A089B1898C918370806412
:101950008C93938D848D981306C00288F389E02DB3
:1019600080818F7D80830895EF92FF920F931F9364
:10197000CF93DF93EC0181E0888F9B8D8C8D981342
:101980001AC0E889F989808185FF15C09FB7F8944E
:10199000EE89FF896083E889F9898081837080649A
:1019A00080839FBF81E090E0DF91CF911F910F91E5
:1019B000FF90EF900895F62E0B8D10E00F5F1F4FF4
:1019C0000F731127E02E8C8D8E110CC00FB607FC03
:1019D000FACFE889F989808185FFF5CFCE010E9491
:1019E000920CF1CFEB8DEC0FFD2FF11DE35AFF4F61
:1019F000F0829FB7F8940B8FEA89FB89808180621F
:101A0000CFCFEF92FF920F931F93CF93DF938C0171
:101A10007B01D0E0C0E0F701EC0FFD1F649166236D
:101A200039F0C8010E94B40C892B11F02196F3CF34
:101A3000CE01DF91CF911F910F91FF90EF9008950C
:101A4000CF93DF93EC01888D8823B9F0AA89BB89F5
:101A5000E889F9898C9185FD03C0808186FD0DC0E0
:101A60000FB607FCF7CF8C9185FFF2CF808185FF01
:101A7000EDCFCE010E94920CE9CFDF91CF91089576
:101A8000CF93DF93EC01BC0185E196E00E94060C48
:101A9000BE0181EF94E00E94060C81EF94E0DF919B
:101AA000CF910C94200D8F929F92AF92BF92CF92C4
:101AB000DF92EF92FF920F931F93CF93DF9300D0AB
:101AC000CDB7DEB77C016B0110E000E0AA24A3943F
:101AD00092E0992EF70181899289009701F19A820B
:101AE00021E030E0AE014F5F5F4FBE016E5F7F4F80
:101AF0000E941C0981E09981913009F434C080E092
:101B0000C114D10429F0065F1F4FC016D10658F149
:101B10006AE070E080E090E00E946C0ADBCF2081F8
:101B200030E0F901EB52F74F8491F901EF53F74F91
:101B3000B490F901E355F74F8490882079F0811132
:101B40000E949407E82DF0E0EE0FFF1FE158FF4FD1
:101B5000A591B491EC91BE2281E009F480E08A2540
:101B6000817009F4CDCF0F900F90DF91CF911F912D
:101B70000F91FF90EF90DF90CF90BF90AF909F902C
:101B80008F900895682F85EE94E00C9465070F936D
:101B90001F93CF93DF93EC01062F142F8E85813195
:101BA00020F4882331F0411104C081E00E947C09B7
:101BB0001E868E85811112C08D8591E09093BC04A4
:101BC0008093DE041092BD041092DF0460E41111D2
:101BD00001C060E085EE94E00E946507602F85EE0D
:101BE00094E00E946507123041F48E858F5F8E87E6
:101BF000DF91CF911F910F91089581E00E947C09A0
:101C00001E86F6CF90E080E0089590E0FC01EE0F94
:101C1000FF1FED57FF4FA591B4912C91FC01E852A5
:101C2000FC4F30812083880F991FFC01EF5DFE4F30
:101C30000190F081E02D808108954F925F926F9224
:101C40007F928F929F92AF92BF92DF92EF92FF921C
:101C50000F931F93CF93DF931F92CDB7DEB7062F5D
:101C6000D72E142FFC01818992890097E1F023E09F
:101C70002983242F30E0462F572FBE016F5F7F4FFF
:101C80000E941C090F90DF91CF911F910F91FF903F
:101C9000EF90DF90BF90AF909F908F907F906F906C
:101CA0005F904F90089562E070E080E090E00E94C5
:101CB0006C0A0E9457094B015C018091B6048111A6
:101CC00067C081E08093B6048093B5049FEF909342
:101CD000B4041092B30491E0910F9093B2048093F6
:101CE0009104809191048864809391048091900480
:101CF000813009F090C0109290040E9457094B0166
:101D00005C01809191048093BB008091B804909114
:101D1000B904A091BA04B091BB04892B8A2B8B2BF8
:101D2000A1F00E9457094090B8045090B904609007
:101D3000BA047090BB04681979098A099B09461690
:101D400057066806790608F444C08091BC0083FDFC
:101D5000D8CF85EC8093BC000E9457094B015C01F1
:101D60008091B604813009F458C082E0810F9091CF
:101D7000B304981710F48091B304A2E9B4E0E5EE3F
:101D8000F3E090E0981751F12D9121939F5FFACFE6
:101D90008091B8049091B904A091BA04B091BB04A9
:101DA000892B8A2B8B2B09F488CF0E9457094090EE
:101DB000B8045090B9046090BA047090BB046819DC
:101DC00079098A099B09461657066806790608F0BC
:101DD00074CF8091B7040E94090880E01092060435
:101DE0008093050485EE94E00E941E07B02EE02E3D
:101DF000FD2C61E070E080E090E00E946C0A85EECE
:101E000094E00E941E07F70181937F018E2F8B19AA
:101E1000811778F337CF85EE9DCF8091B8049091EC
:101E2000B904A091BA04B091BB04892B8A2B8B2BE7
:101E300009F496CF0E9457094090B8045090B90415
:101E40006090BA047090BB04681979098A099B09EB
:101E5000461657066806790608F082CFBACFFB010E
:101E600001900020E9F73197AF01461B570BDC01C9
:101E7000ED91FC910280F381E02D09948F929F9265
:101E8000AF92BF92EF92FF920F931F93CF93DF9386
:101E9000CDB7DEB7A1970FB6F894DEBF0FBECDBFAA
:101EA0007C01FA01CB0119A2223008F42AE08E014C
:101EB0000F5D1F4F822E912CB12CA12CBF01A501CB
:101EC00094010E94861EF901CA016A300CF5605D1A
:101ED000D8016E938D01232B242B252B79F790E0CD
:101EE00080E0109721F0BD01C7010E942F0FA1963D
:101EF0000FB6F894DEBF0FBECDBFDF91CF911F911B
:101F00000F91FF90EF90BF90AF909F908F900895AA
:101F1000695CDECF69E571E00C942F0F0F931F937E
:101F2000CF93DF938C01D0E0C0E06115710519F00B
:101F30000E942F0FEC01C8010E948A0F8C0F9D1F79
:101F4000DF91CF911F910F9108950F931F93CF931E
:101F5000DF93EC010E94060C8C01CE010E948A0FD7
:101F6000800F911FDF91CF911F910F910895CF9313
:101F7000DF93EC01BC0185E196E00E94A50FBE0154
:101F800081EF94E00E94A50F81EF94E0DF91CF9163
:101F90000C94200D0F931F93CF93DF93EC010E94BD
:101FA000010D8C01CE010E948A0F800F911FDF91DD
:101FB000CF911F910F9108950F931F93CF93DF93AC
:101FC000EC018B0181EF94E00E94200D61E08EE036
:101FD0000E94BD0781EF94E00E948A0F6CE571E0DA
:101FE00081EF94E00E942F0FB80181EF94E00E94EE
:101FF000060C6FE571E081EF94E00E942F0FBE01A7
:1020000081EF94E00E94060C61E671E081EF94E0BC
:102010000E948E0F81EF94E00E94200D60E08EE020
:10202000DF91CF911F910F910C94BD072F923F929A
:102030004F925F926F927F928F929F92AF92BF92D8
:10204000CF92DF92EF92FF920F931F93CF93DF9384
:1020500000D000D000D01F92CDB7DEB77C014A017E
:102060002DB63EB6DC015196CD90DC90BB24B394E6
:10207000B60EA62EA0946B2C712CC114D10409F4B9
:1020800095C04DB65EB670E0685F7F4FEDB7FEB7A6
:10209000E61BF70B0FB6F894FEBF0FBEEDBF0DB7F2
:1020A0001EB70F5F1F4F81E08183D80111961C92EC
:1020B000119712961C9212978FEF13968C93139789
:1020C0001496BC9214971596AC92159784ED1696BB
:1020D0008C932DB73EB7285F3F4FF90163EDA30105
:1020E000415051098E2F821B90E0841795073CF4D4
:1020F000805B9B4FDC018C918193680FF3CF6095DF
:1021000060831182B8E06B0E711CF60180819181B1
:10211000892B39F00280F381E02D808191810E942A
:10212000AF0460E0D6011B968C910E94BD07580158
:10213000F50161915F01C6010E946608C501801B1F
:10214000910B86159705A0F361E0D6011B968C9143
:102150000E94BD070FB6F8945EBE0FBE4DBEB4011F
:10216000C7010E94530D182F811163C010E0812F09
:102170000FB6F8943EBE0FBE2DBE27960FB6F8944C
:10218000DEBF0FBECDBFDF91CF911F910F91FF90AA
:10219000EF90DF90CF90BF90AF909F908F907F9007
:1021A0006F905F904F903F902F90089562E070E0A5
:1021B00080E090E00E946C0A81E08093BC0484E29D
:1021C0008093DE041092BD041092DF0480E00E9430
:1021D000C20D80E00E94C20D8FEF0E94C20D8B2DB8
:1021E0000E94C20D8A2D0E94C20D84ED0E94C20D74
:1021F000C12C83EDD82EB1E06B1A71080C2D10E0C4
:10220000061517055CF4005B1B4FF80180810E94E6
:10221000C20DD8018C91D80EC394F0CF8D2D80952E
:102220000E94C20D80E00E94C20D81E00E947C09E4
:1022300096CFF70181899289009721F123E02F83BE
:1022400026E030E0AE014F5F5F4FBE01695F7F4F18
:102250000E941C0946E050E06BE071E0CE0101965F
:102260000E949820892B09F081CFD70151968D913A
:102270009C91892B09F47BCFB401C7010E94530DB7
:10228000182F75CF46E0BE016F5F7F4FC7010E94D8
:102290001D0EE0CF85ED8093BC008091B804909135
:1022A000B904A091BA04B091BB040796A11DB11D59
:1022B00023E0B695A795979587952A95D1F7209114
:1022C000BC0024FD03C01092B60408954091B804E8
:1022D0005091B9046091BA047091BB04452B462B10
:1022E000472B69F30097A105B10541F025E32A9535
:1022F000F1F700000197A109B109E1CF8091B7047E
:102300000C940908CF93DF93EC01888199810097A1
:1023100011F00E944A1F198218821D821C821B82A2
:102320001A82DF91CF910895FC01808191810097FD
:1023300011F00C944A1F08950F931F93CF93DF93CE
:10234000EC0188819981009759F02A813B812617F9
:10235000370730F081E0DF91CF911F910F91089501
:102360008B016F5F7F4F0E94D31F009759F09983B5
:1023700088831B830A832C813D81232B59F7FC0121
:102380001082E8CF80E0E7CFEF92FF920F931F9388
:10239000CF93DF936115710541F480E0DF91CF9118
:1023A0001F910F91FF90EF90089541155105B1F0E5
:1023B0007B01EC010C811D81040F151FB8010E94E7
:1023C0009C11882351F3288139818C819D81B7012B
:1023D000820F931F0E94B7201D830C8381E0DECF04
:1023E000EF92FF920F931F93CF93DF93CDB7DEB79A
:1023F00028970FB6F894DEBF0FBECDBF7C01CB018E
:102400004AE08E010F5F1F4FB8010E941A1EF801AB
:1024100001900020E9F73197AF01401B510BB80143
:10242000C7010E94C41128960FB6F894DEBF0FBEF4
:10243000CDBFDF91CF911F910F91FF90EF90089545
:10244000EF92FF920F931F93CF93DF93EC017B01E9
:102450008A01BA010E949C1181110BC0CE010E9419
:102460008211CE01DF91CF911F910F91FF90EF90DC
:1024700008951D830C83B701888199810E94B7203C
:10248000F0CFCF93DF93EC01FB018617970749F05C
:10249000608171816115710541F0448155810E940F
:1024A0002012CE01DF91CF9108950E948211F9CFC1
:1024B000FC0111821082138212821582148261152E
:1024C000710551F0FB0101900020E9F73197AF0150
:1024D000461B570B0C94201208958F929F92AF9237
:1024E000BF92CF92DF92EF92FF921F93CF93DF9331
:1024F000CDB7DEB768970FB6F894DEBF0FBECDBF7D
:102500007C0166E076E0CE0143960E94581241E0DD
:1025100050E068E671E0CE0143960E94C41170E07D
:1025200060E0CE0143960E94F01141E050E068E681
:1025300071E0CE0143960E94C411B701CE014396CB
:102540000E94F0111E861D86188A1F861A8A198A13
:10255000BE016D5E7F4FCE010D960E94411210911B
:10256000F60511115CC08FB7F8948090E10490904B
:10257000E204A090E304B090E4048FBFF12CE12CBE
:102580002FB7F8948091E1049091E204A091E304C4
:10259000B091E4042FBF88199909AA09BB09409199
:1025A0000D0650910E0660910F067091100684176B
:1025B0009507A607B70708F081C081EF94E00E9455
:1025C000720C892BE9F28091FD059091FE05E816C9
:1025D000F90638F4E091F905F091FA05309709F021
:1025E00088C01092E004E0EEF4E0C0800C2C000CF7
:1025F000DD0881EF94E00E94500CC816D90609F05E
:10260000BFCF8FEFE81AF80A86E0E816F1040CF461
:10261000B7CF61E070E080E090E00E946C0A61E07A
:102620008EE00E94BD07BE01635F7F4F81EF94E0A3
:102630000E94A50F8091F605811106C06FEF75E02D
:1026400081EF94E00E948E0F81EF94E00E94200DB4
:1026500060E08EE00E94BD071091F60511112EC0BA
:102660006AE671E0CE0107960E94581249895A899C
:102670006D857E85CE0107960E94C411811104C02C
:10268000CE0107960E9482111A8219821C821B8237
:102690001E821D82BE01695F7F4FCE0101960E949E
:1026A0004112CE0101960E94B70FCE0101960E9401
:1026B0009411CE0107960E94941111E0CE010D965F
:1026C0000E949411CE0143960E949411812F689626
:1026D0000FB6F894DEBF0FBECDBFDF91CF911F9133
:1026E000FF90EF90DF90CF90BF90AF909F908F9032
:1026F0000895EE0DFF1D79CFCF93DF9300D000D06A
:1027000000D0CDB7DEB71092DF031092DE0367E78B
:1027100071E0CE0101960E945812CE0101960E94EE
:10272000B70FCE0101960E94941181E080930A01B7
:1027300090E080E00E946D126091D8057091D905FB
:102740008091DA059091DB050E949E0A26960FB6CD
:10275000F894DEBF0FBECDBFDF91CF910895CF9229
:10276000DF92EF92FF921F93CF93DF93CDB7DEB747
:102770006D970FB6F894DEBF0FBECDBF6AE971E06A
:1027800081EF94E00E948E0F7E0181E1E80EF11C42
:1027900087E0D7011D928A95E9F786E0E7E1F1E04D
:1027A000DE01589601900D928A95E1F71A821982FE
:1027B0008AE48093500481E0809351041092520483
:1027C00050E040E063E08EEA95E00E941610882316
:1027D00029F18091BF059091C005892BB9F044E1A2
:1027E00060E574E08EEA95E00E941D0E809157042A
:1027F0008130A1F410915C04ADE5B4E0F7018E2FB7
:102800008E198117D8F48D918193F9CF70E060E033
:102810008EEA95E00E94530D8111E1CF10E0812FE7
:102820006D960FB6F894DEBF0FBECDBFDF91CF918E
:102830001F91FF90EF90DF90CF90089586E0FE010A
:102840007896A8EBB5E001900D928A95E1F7C12E3C
:10285000D12CA601B70180EB95E00E94A520109332
:10286000B70580E48093500481E08093510490E6A2
:10287000909352048093530486E0E8EBF5E0A4E5DE
:10288000B4E001900D928A95E1F720E0822F90E06C
:102890008C159D055CF4FC01E05BFB4F82559A4F63
:1028A000DC0112968C9182872F5FF0CF6AE0610F76
:1028B00044E650E08EEA95E00E9416108823D1F19C
:1028C0004CE060E574E08EEA95E00E941D0E809178
:1028D000570481112FC080E48093500481E08093DD
:1028E000510490E3909352048093530444E650E0E3
:1028F00064E08EEA95E00E941610182F882309F1F3
:102900004AE160E574E08EEA95E00E941D0E809138
:102910005704811116C080E1E8E5F4E0DE0111966C
:1029200001900D928A95E1F7898181110DC06FECBC
:1029300071E002C067EB71E081EF94E00E948E0FBE
:102940006DCF63EC71E0F8CFBE016F5F7F4F81EF19
:1029500094E00E948E0FBE016F5F7F4F8DE191E08A
:102960000E94AE20892B09F459CF6FEE71E081EF00
:1029700094E00E948E0F53CF1F920F920FB60F92CA
:1029800011242F933F934F935F936F937F938F9374
:102990009F93AF93BF93EF93FF938091B900887F8C
:1029A000803609F44AC0F0F5883209F4A7C018F55A
:1029B000803109F49BC0B8F4882309F4F9C0883049
:1029C00009F494C0FF91EF91BF91AF919F918F91C6
:1029D0007F916F915F914F913F912F910F900FBE1B
:1029E0000F901F901895883109F488C0803251F7F4
:1029F0008093B40414C0803409F49DC040F4803343
:102A0000B9F38833F9F68093B40485ECB0C080350F
:102A100009F485C0883509F496C0883499F60E9477
:102A20004A11D0CF883909F48CC038F5883729F09D
:102A300050F4883611F0803729F683E08093B6048D
:102A400010924E0457C0883809F47BC0803919F0C1
:102A5000803809F0B7CF80914E04803208F071C001
:102A6000E0914E0481E08E0F80934E048091BB0074
:102A7000F0E0E25DFB4F80833DC0803B39F0E0F445
:102A8000803A09F479C0883A09F09CCF84E08093B9
:102A9000B60410922B0410922A04E0912804F091BD
:102AA0002904099580912A0481110FC081E0809347
:102AB0002A041092080409C0803C09F4A6CF883C7F
:102AC00009F4A3CF883B09F07DCFE0912B0481E08E
:102AD0008E0F80932B04F0E0E85FFB4F80818093A2
:102AE000BB0090912B0480912A0429C0809191040D
:102AF0008093BB0085EC8093BC0064CF9091B304BD
:102B00008091B204981758F5E091B30481E08E0FDC
:102B10008093B304F0E0EE56FB4F8081E9CFE09163
:102B2000B30481E08E0F8093B3048091BB00F0E08A
:102B3000EE56FB4F80839091B3048091B2049817B6
:102B4000C8F285E8D8CFE091B30481E08E0F80937E
:102B5000B3048091BB00F0E0EE56FB4F8083809180
:102B6000B50481115CCF81E08093900484EA809366
:102B7000BC001092B60426CF85EC8093BC00109266
:102B8000B60480914E04803230F4E0914E04F0E0BF
:102B9000E25DFB4F108260914E0470E0E0912C04E6
:102BA000F0912D048EE294E0099510924E040ACF24
:102BB0001092B40434CF1F920F920FB60F921124CB
:102BC0002F933F938F939F93AF93BF938091E10493
:102BD0009091E204A091E304B091E4043091E00309
:102BE00023E0230F2D3758F50196A11DB11D209329
:102BF000E0038093E1049093E204A093E304B09394
:102C0000E4048091E1039091E203A091E303B09189
:102C1000E4030196A11DB11D8093E1039093E203AB
:102C2000A093E303B093E403BF91AF919F918F9181
:102C30003F912F910F900FBE0F901F90189526E88F
:102C4000230F0296A11DB11DD2CF1F920F920FB676
:102C50000F9211242F933F934F935F936F937F9322
:102C60008F939F93AF93BF93EF93FF9381EF94E084
:102C70000E94920CFF91EF91BF91AF919F918F9124
:102C80007F916F915F914F913F912F910F900FBE68
:102C90000F901F9018951F920F920FB60F9211244C
:102CA0002F938F939F93EF93FF93E0910105F09102
:102CB00002058081E0910705F091080582FD1BC0A7
:102CC000908180910A058F5F8F7320910B05821789
:102CD00041F0E0910A05F0E0EF50FB4F958F8093B3
:102CE0000A05FF91EF919F918F912F910F900FBE49
:102CF0000F901F9018958081F4CF1F920F920FB6FE
:102D00000F9211242F933F934F935F936F937F9371
:102D10008F939F93AF93BF93EF93FF9382E00E94B3
:102D2000050EFF91EF91BF91AF919F918F917F9190
:102D30006F915F914F913F912F910F900FBE0F9028
:102D40001F9018951F920F920FB60F9211242F9378
:102D50003F934F935F936F937F938F939F93AF9323
:102D6000BF93EF93FF9381E00E94050EFF91EF91D7
:102D7000BF91AF919F918F917F916F915F914F9193
:102D80003F912F910F900FBE0F901F9018951F929B
:102D90000F920FB60F9211242F933F934F935F938F
:102DA0006F937F938F939F93AF93BF93EF93FF9313
:102DB00080E00E94050EFF91EF91BF91AF919F912E
:102DC0008F917F916F915F914F913F912F910F90D4
:102DD0000FBE0F901F901895CF93DF93FC011082C8
:102DE000118212821382148215821682EC012796B8
:102DF000DC011F961992AC17BD07E1F77F961D9273
:102E00001D92EA17FB07D9F7DF91CF910895EF9252
:102E1000FF921F93CF93DF93E5EEF4E013821282CB
:102E200088EE93E0A0E0B0E084839583A683B78327
:102E30002BE231E031832083E1EFF4E01382128250
:102E400084839583A683B7838DE391E09183808308
:102E500085EC90E09587848784EC90E0978786875F
:102E600080EC90E0918B808B81EC90E0938B828B57
:102E700082EC90E0958B848B86EC90E0978B868B30
:102E8000118E128E138E148E64E072E08FE496E041
:102E90000E9458126EE072E089E496E00E94581297
:102EA00064E172E083E496E00E945812C2EFD5E03C
:102EB0008AE090E0A0E0B0E088839983AA83BB8396
:102EC0001C821E821D8264E272E089EF95E00E94FE
:102ED000581285E0EBE2F2E0AFEFB5E001900D9221
:102EE0008A95E1F78FE590E09B8B8A8B87E0E0E3A2
:102EF000F2E0A6E0B6E001900D928A95E1F78CE24F
:102F000091E0A0E0B0E08B8F9C8FAD8FBE8F84E10D
:102F100090E0A0E0B0E08F8F98A3A9A3BAA31EA26F
:102F20001DA211E01CA71FA61EA68FE491E09CA382
:102F30008BA384E296E00E94EC16ECEDF5E01083A2
:102F4000118213821282158214828FEF9FEF978372
:102F500086831086128611861387148682E0858701
:102F600016871786108A118A128A80E090E0A8E7F7
:102F7000B0E08093D8059093D905A093DA05B0937B
:102F8000DB0580E09FEFA0E0B0E08093D405909354
:102F9000D505A093D605B093D70581ECE82E85E042
:102FA000F82E1FEFF701108311838CE190E00E944F
:102FB000AE1EEC0188E08B871E871D871C878EE87C
:102FC00095E0998388831B8E82E090E00E94AE1E7C
:102FD00021E7FC01208311829B838A8380E492E4B1
:102FE000AFE0B0E08C839D83AE83BF8319861886E3
:102FF0001A86F701D28BC18B83E1AEEAB5E001906E
:103000000D928A95E1F78FE895E0DF91CF911F91BE
:10301000FF90EF900C94EC16CF93DF93CDB7DEB713
:1030200065970FB6F894DEBF0FBECDBF789484B518
:10303000826084BD84B5816084BD85B5826085BDB4
:1030400085B5816085BD80916E00816080936E0042
:103050001092810080918100826080938100809134
:1030600081008160809381008091800081608093E5
:1030700080008091B10084608093B1008091B000A5
:1030800081608093B00080917A00846080937A00A0
:1030900080917A00826080937A0080917A008160CA
:1030A00080937A0080917A00806880937A001092F1
:1030B000C10010920604109205041092BD041092F3
:1030C000DF040E94EB078CE097E090932904809343
:1030D00028048DE097E090932D0480932C0488E4DD
:1030E0008093B800E0910105F091020582E08083B1
:1030F000E091FD04F091FE041082E091FF04F09154
:10310000000580E1808310920905E0910505F091AA
:10311000060586E08083E0910305F0910405808137
:1031200080618083E0910305F091040580818860CF
:103130008083E0910305F09104058081806880839D
:10314000E0910305F091040580818F7D808380915B
:10315000F2059091F305A091F405B091F5058093E7
:10316000F5049093F604A093F704B093F80464E692
:1031700070E080E090E00E946C0A61E08EE00E94C6
:103180002A0860E08EE00E94BD0767EF75E081EFDE
:1031900094E00E94CA0F60EE75E081EF94E00E9417
:1031A000CA0F69EC75E081EF94E00E94CA0F64E1F8
:1031B00070E080E090E00E946C0A67E372E08E01AC
:1031C0000F5F1F4FC8010E9458126BE372E0CE01DF
:1031D0000A960E945812B801CE010A960E94DC0F8E
:1031E000CE010A960E949411C8010E94941167E3CF
:1031F00072E0C8010E94581269E472E0CE010A969A
:103200000E945812B801CE010A960E94DC0FCE012E
:103210000A960E949411C8010E94941167E372E01B
:10322000C8010E94581265E572E0CE010A960E941C
:103230005812B801CE010A960E94DC0FCE010A9600
:103240000E949411C8010E9494116EEA75E081EF0A
:1032500094E00E94010D20E14CE350E060E070E05A
:1032600081EF94E00E943E0F81EF94E00E948A0F6C
:103270006AE070E080E090E00E946C0A1092230601
:103280008CE3809322061092190610921A06E8EA3F
:10329000F5E0A590B490EAEAF5E0D490EBEAF5E029
:1032A000E491E0931B06ECEAF5E0E491E0931C0660
:1032B000EDEAF5E0E491E0931D06F12CE12CED142C
:1032C00060F4F501EE0DFF1D649185E196E00E942A
:1032D000C7048FEFE81AF80AF2CF10921F060E9477
:1032E0003D0580911C06803429F40E943D0581E053
:1032F00080931F0684E990E0909321068093200636
:103300000E943D0569E870E081EF94E00E94CA0FD9
:103310006AE070E080E090E00E946C0A8EE096E047
:1033200090932106809320061092F8051092F705DD
:1033300062E672E0C8010E945812C8010E94B70FED
:10334000C8010E94941145E050E063E772E089EF04
:1033500095E00E94201270E060E089EF95E00E9405
:10336000F0111A8219821C821B821E821D8269EF53
:1033700075E0C8010E944112C8010E94B70FC80140
:103380000E94941160ED77E080E090E00E946C0A6A
:1033900069E772E0C8010E945812C8010E94B70F85
:1033A000C8010E94941188E199E20FB6F894A8959B
:1033B000809360000FBE90936000A89581EF94E029
:1033C0000E948A0F66E872E0C8010E945812C80184
:1033D0000E94B70FC8010E9494116AE070E080E07B
:1033E00090E00E946C0A6BE571E0CE0140960E946D
:1033F000581238E0C32ED12CEE24E394FC2CE0923A
:10340000BC04C092DE041092BD041092DF0481E07F
:103410000E947C098111B4C066E972E0C8010E9473
:103420005812C8010E94400DC8010E9494116EE913
:1034300072E0C8010E945812C8010E94400DC801E4
:103440000E9494111B861A861D861C861F861E8666
:1034500040E1B801C6010E94251EF801019000203C
:10346000E9F73197AF01401B510BB801CE010A9625
:103470000E94201288899989009769F16A857B8565
:103480006115710531F14A895B892E853F854217A7
:103490005307F8F00E94B7208E859F859D8B8C8BFB
:1034A0001F861E86CE010A960E949411A888B988AC
:1034B000A114B10409F1D5018D915D018823E1F0DA
:1034C000082E000C990B0E949020F5013197808303
:1034D000F2CF0E944A1F8A859B85998B888B8C85A9
:1034E0009D859B8B8A8B8E859F859D8B8C8B1B8668
:1034F0001A861D861C86D4CF1A8219821C821B82D2
:103500001E821D82688979896115710529F04C89AF
:103510005D89C8010E942012C8010E94400DC801A7
:103520000E94941163EA72E0C8010E945812C80117
:103530000E94B70FC8010E949411E8ECEF0DE8302B
:1035400008F00FC1F0E0E955F54E0C94A81EAF1A33
:10355000A51BA51BA51BA81BAB1BB11BAE1B67EABC
:1035600072E0C8010E945812C8010E94B70FC8013A
:103570000E94941161E070E080E090E00E946C0A8B
:10358000BFEFCB1ADB0AE8E7CE16D10409F036CF3D
:103590006FED72E0C8010E945812C8010E94B70F77
:1035A000C8010E9494116AE070E080E090E00E94FF
:1035B0006C0ACE0140960E949411A8956DE678E0C1
:1035C00081EF94E00E94010DE090D205F090D305C8
:1035D000E114F10409F4F3C061E0D7011B968C916A
:1035E0000E942A0861E0F70183850E94BD07D70188
:1035F0008D919C91892B09F4B7C0DFB6F894809126
:10360000DB03811127C0E7EBF8E08491EBECF8E0F5
:103610009491E82FF0E0EE0FFF1FE756F74FA591CA
:10362000B491EC91E92321F461E08AE00E94BD07A6
:1036300061E08AE00E942A088CB580618CBD8CB55F
:1036400080648CBD61E08DE00E942A0861E08BE01F
:103650000E942A088091DB038F5F8093DB03DFBE2B
:1036600081E0F701838F82E08093500444E650E0CC
:1036700061E081EC95E00E94161082E38093500493
:1036800085E0809351049FEF9093520491E09093D2
:1036900053048093540444E650E065E081EC95E0E7
:1036A0000E941610B12CA12C82E0982E909250040A
:1036B00044E650E061E081EC95E00E941610811133
:1036C000B0C064E578E081EF94E00E94010DF6E07F
:1036D000AF16B104B4F16CE378E081EF94E00E949E
:1036E000010D65E070E080E090E00E946C0A64EFFC
:1036F00077E081EF94E00E94CA0F62E370E080E01F
:1037000090E00E946C0AF3E0CF2ED12CE12CF12C3A
:103710002AE0B701A60181EF94E00E943E0F81EFFD
:1037200094E00E948A0F64E670E080E090E00E94DE
:103730006C0A81E0C81AD108E108F10849F70C9435
:1037400000009FEFA91AB90AB1CF68EB72E009CF68
:1037500062EC72E006CF62ED72E003CF61E372E0EB
:1037600000CF67ED72E0FDCE61E0F70184850E9435
:103770002A08D7011A968C911A978B7FE1F460E0A2
:103780001C968C910E94BD07D7011D968C918F3F8E
:1037900041F061E00E942A0861E0F70185850E94FE
:1037A000BD07D7011E968C918F3F09F459CF60E079
:1037B0000E942A0855CF61E0F7018485E3CF10927B
:1037C0000604109205041092BD041092DF040E94BA
:1037D000EB078CE097E090932904809328048DE018
:1037E00097E090932D0480932C0461E08091C205B2
:1037F0000E94BD0760E08091C2050E94BD0760E99C
:1038000071E080E090E00E946C0A61E08091C20566
:103810000E94BD076AE070E080E090E00E946C0AC0
:103820002CCF4CE060E574E081EC95E00E941D0E29
:1038300046E050E060E071E080E594E00E9498206E
:10384000892B09F03ECFC0905704D0905804DC2457
:10385000CD24DC24F12CE12CFE2CED2CDC2CCC2412
:1038600080915904C82AFE2CED2CDC2CCC248091AC
:103870005A04C82AC114D104E104F10409F421CF87
:103880006DE278E081EF94E00E94010D4F2D552705
:103890006627772720E181EF94E00E943E0F81EFB9
:1038A00094E00E948A0F6EE178E081EF94E00E943C
:1038B000010D4E2D50E070E060E02AE081EF94E0D1
:1038C0000E943E0F6EE281EF94E00E94B40C4D2DF9
:1038D00050E070E060E02AE081EF94E00E943E0F4B
:1038E00081EF94E00E948A0F94E19093500481E06C
:1038F00080935104909352048093530444E650E023
:1039000064E081EC95E00E941610882339F048E0CD
:1039100060E574E081EC95E00E941D0E62E370E0CA
:1039200080E090E00E946C0A62E078E081EF94E031
:103930000E94010DA8956AE878E081EF94E00E946A
:10394000010D6AE070E080E090E00E946C0A46E0C1
:10395000642E41E0742E58E0452E51E0552E6CED5A
:10396000E62E65E0F62E3324339472E0272ED30141
:10397000CD90DD903D01F201819091902F01540195
:10398000AA0CBB1CA80CB91CC5010E94AE1E009756
:1039900021F4B12CA12C912C812CF601E355F74F89
:1039A000E491F0E0EE0FFF1FED55F74F25913491B4
:1039B000F601EF53F74FE491D7013C9211961C9218
:1039C000119713969C928E9212971596BC92AE9276
:1039D00014971796DC92CE92169718961C92189709
:1039E0001A969C938E9319971B963C921B971C9644
:1039F0002C921C971D961C921D971E963C921E970A
:103A00001F961D921D921D921C92529754963C93A4
:103A10002E9353975596EC930E944A1FD7FC04C0EF
:103A200060E08C2D0E942A08F7018681978197FD1E
:103A300009C061E00E942A0860E0D70116968C91C7
:103A40000E94BD07F701318260E070E0CB010E9467
:103A50009E0AF6E1EF0EF11C8AE091E086159705CB
:103A600009F085CF68E270E080E090E00E946C0A87
:103A70006EE778E081EF94E00E94CA0F6AE070E0A0
:103A800080E090E00E946C0AA89581EF94E00E948B
:103A90008A0F67E372E0CE010A960E94581261EF26
:103AA00072E0C8010E945812BE01665F7F4FC801D4
:103AB0000E94DC0FC8010E949411CE010A960E9458
:103AC000941181EF94E00E948A0F81EF94E00E94AC
:103AD000200D6CEF72E0C8010E945812C8010E94CC
:103AE000B70FC8010E9494110E947C1380E0E82E59
:103AF00080E0F82E80910A018823D1F10E94AF1353
:103B0000882389F18091DC039091DD030497DCF038
:103B10006AE073E0C8010E945812C8010E94B70F02
:103B2000C8010E94941110920A0181E090E00E9465
:103B30006D126091D4057091D5058091D605909154
:103B4000D7050E949E0A8091DC039091DD030196C7
:103B50009093DD038093DC0368EC70E080E090E0FC
:103B60000E946C0A26C01092DD031092DC03F4CF91
:103B700060E373E0C8010E945812C8010E94B70FA9
:103B8000C8010E9494110E94AF138823F9F065E7E1
:103B900073E081EF94E00E948E0F1092DF03109289
:103BA000DE038091DE039091DF030D97FCF00E940D
:103BB0007C13A895E114F10409F49CCF0E947E0CBB
:103BC000882309F497CF0E94000094CF68E873E03F
:103BD00081EF94E00E948E0F8091DE039091DF03CD
:103BE00005969093DF038093DE03DBCF68E873E1F3
:103BF00080E090E0B5CF8091E5059091E6050E94C8
:103C00004A1F8091E2059091E30597FD03C060E0B3
:103C10000E942A0889EF95E00E94941183E496E0BF
:103C20000E94941189E496E00E9494118FE496E03A
:103C30000C949411BB274A3031F4992322F4BDE24D
:103C4000909581959F4F0C94261EBB27FB0155270D
:103C5000AA27880F991FAA1FA41710F0A41B8395E9
:103C60005051B9F7A05DAA3308F0A95DA193009760
:103C700079F7B111B1931192CB010C943F1EDC0185
:103C8000FC01672F71917723E1F7329704C07C9193
:103C90006D9370836291AE17BF07C8F308952F929A
:103CA0003F924F925F926F927F928F929F92AF92CC
:103CB000BF92CF92DF92EF92FF920F931F93CF9319
:103CC000DF93CDB7DEB7CA1BDB0B0FB6F894DEBFB0
:103CD0000FBECDBF09942A88398848885F846E84D6
:103CE0007D848C849B84AA84B984C884DF80EE8020
:103CF000FD800C811B81AA81B981CE0FD11D0FB629
:103D0000F894DEBF0FBECDBFED010895A1E21A2EDB
:103D1000AA1BBB1BFD010DC0AA1FBB1FEE1FFF1F6F
:103D2000A217B307E407F50720F0A21BB30BE40BBF
:103D3000F50B661F771F881F991F1A9469F7609506
:103D40007095809590959B01AC01BD01CF010895C0
:103D5000EE0FFF1F0590F491E02D09940F931F9330
:103D6000CF93DF938230910510F482E090E0E091F0
:103D70005706F091580630E020E0B0E0A0E0309720
:103D800099F42115310509F44AC0281B390B243058
:103D90003105D8F58A819B816115710589F1FB0197
:103DA00093838283FE0111C040815181028113817E
:103DB00048175907E0F04817590799F4109761F030
:103DC00012960C93129713961C933296CF01DF91A3
:103DD000CF911F910F9108950093570610935806A5
:103DE000F4CF2115310551F04217530738F0A901DE
:103DF000DB019A01BD01DF01F801C1CFEF01F9CF6D
:103E00009093580680935706CDCFFE01E20FF31F23
:103E1000819391932250310939832883D7CF209100
:103E2000550630915606232B41F420911301309111
:103E300014013093560620935506209111013091BC
:103E400012012115310541F42DB73EB740911501FE
:103E500050911601241B350BE0915506F091560642
:103E6000E217F307A0F42E1B3F0B2817390778F051
:103E7000AC014E5F5F4F2417350748F04E0F5F1FB0
:103E80005093560640935506819391939FCFF0E04F
:103E9000E0E09CCFCF93DF930097E9F0FC013297ED
:103EA00013821282A0915706B0915806ED0130E0BE
:103EB00020E01097A1F420813181820F931F20917F
:103EC0005506309156062817390709F061C0F0935E
:103ED0005606E0935506DF91CF910895EA01CE177B
:103EE000DF07E8F54A815B819E0141155105B1F775
:103EF000E901FB83EA8349915991C40FD51FEC175F
:103F0000FD0761F4808191810296840F951FE9017C
:103F100099838883828193819B838A83F0E0E0E0A8
:103F200012968D919C9113970097B9F52D913C9124
:103F30001197CD010296820F931F20915506309163
:103F400056062817390739F6309751F5109258065A
:103F500010925706B0935606A0935506BCCFD38354
:103F6000C28340815181840F951FC817D90761F41E
:103F70004E5F5F4F88819981480F591F518340835D
:103F80008A819B81938382832115310509F0B0CF0B
:103F9000F0935806E09357069ECFFD01DC01C0CF99
:103FA00013821282D7CFB0E0A0E0E9EDFFE10C94DC
:103FB000511E8C01009751F4CB010E94AE1E8C0162
:103FC000C801CDB7DEB7E0E10C946D1EFC01E60F31
:103FD000F71F9C0122503109E217F30708F49DC036
:103FE000D901CD91DC911197C617D70798F0C5304C
:103FF000D10530F3CE0104978617970708F3C61B47
:10400000D70B2297C193D1936D937C93CF010E94DC
:104010004A1FD6CF5B01AC1ABD0A4C018C0E9D1E07
:10402000A0915706B0915806512C412CF12CE12C4F
:10403000109731F58091550690915606881599058F
:1040400009F05CC04616570608F058C0809111016F
:1040500090911201009741F48DB79EB740911501E0
:1040600050911601841B950BE817F90708F055C00D
:10407000F0935606E0935506F90171836083A0CF53
:104080008D919C91119712966C90129713967C903B
:104090001397A815B90559F56C0142E0C40ED11C5F
:1040A000CA14DB0420F1AC014A195B09DA0112964B
:1040B000159780F06282738251834083D9016D939A
:1040C0007C93E114F10471F0D7011396FC93EE9305
:1040D000129776CF22968C0F9D1FF90191838083D2
:1040E000F301EFCFF0935806E093570669CF4816D7
:1040F000590608F42C017D01D3019ACFCB010E940F
:10410000AE1E7C01009749F0AE01B8010E94A520C7
:10411000C8010E944A1F870153CF10E000E050CF32
:104120009111089581568A5108F480528558089556
:10413000FB01DC0104C08D910190801921F44150F4
:104140005040C8F7881B990B0895FB01DC0102C0A1
:1041500001900D9241505040D8F70895FB01DC01C9
:104160008D91019080190110D9F3990B0895FB01ED
:10417000DC0101900D920020E1F7089514E0CEE7F4
:10418000D4E004C0FE010E94A81E2196CF37D107BB
:06419000C9F7F894FFCF0F
:104196000000FF06FAD509001F00010000FF00FF1E
:1041A60000000059068000FFFFFFFFFFFF414800A7
:1041B600006B006C006D0000000000650738070208
:1041C6000E0E0731071E070F0700000000B40C147F
:1041D6000C410C200D720C500C640C000000005BAE
:1041E60005140C020E050CC70D0D0A002142722C97
:1041F600002C446F6E652E005F0052533438352014
:104206006F75743A200A0047616D65206C697665A2
:104216000A206B696C6C696E67206C6967687473D9
:104226000A206C6F636B696E6700436865636B6930
:104236006E672070726573656E636520666F7220A7
:104246007265616465720041757468206661696CA7
:1042560065640072656164206661696C65640072FC
:1042660065616420656D7074792064617461626C47
:104276006F636B202D3E20696E76616C6964004326
:104286006F7272656374206361726420706C61631F
:1042960065642100362E30342E3230323200312E13
:1042A600352E3000454E545F53545F425245414BC4
:1042B6004F5554004D41535445520021454F460039
:1042C6002152656C61790053595300216865616418
:1042D60065725F626567696E002168656164657213
:1042E6005F656E64002173657475705F62656769EA
:1042F6006E00536C61766520726573706F6E732005
:10430600746F0021506F6C6C0057445420656E64C6
:1043160061626C656400202020493243205363614A
:104326006E6E65723A00466F756E643A20002028FC
:10433600307800292020004B65797061642028645C
:10434600656661756C7429004B65797061642F49E7
:104356004F004F6C656420202864656661756C7437
:1043660029004F6C656400556E6B6E6F776E004961
:104376003243207363616E20636F6D706C65746584
:10438600002173657475705F656E64000A3D3D3D7E
:1043960053544152543D3D3D0A0047616D652065C9
:1043A6006E646564200A20677265656E206C6967B5
:1043B6006874732026206F70656E20646F6F7200BC
:1043C600726F6F6D20686173206265656E20736F12
:1043D6006C7665642C2077616974696E6720666FF8
:1043E600722063617264206265696E672072656D12
:1043F6006F76656420746F2061726D207468652025
:10440600726F6F6D0063617264207374696C6C20E7
:1044160070726573656E7400636172642072656D97
:104426006F7665642C20696E6372656173696E6769
:084436002074696D657200003D
:00000001FF
