:100000000C94E3000C940B010C940B010C9434122F
:100010000C940F120C94EA110C940B010C940B012C
:100020000C940B010C940B010C940B010C940B0120
:100030000C940B010C940B010C940B010C940B0110
:100040000C9448110C940B010C94B8110C9492115F
:100050000C940B010C940B010C940B010C940B01F0
:100060000C9429100C940B010000000023002600C2
:1000700029002B2D2D2D2D2D2D2D2D2D2D2D2D2DE3
:100080002D2D2D2D2D2D2D2D2D2D2D2D2D2D2D2DA0
:100090002D2D2D2D2D2D2B007C2020202054656111
:1000A0006D457363617065204848265320454E476F
:1000B000494E454552494E47202020207C002B2D9B
:1000C0002D2D2D2D2D2D2D2D2D2D2D2D2D2D2D2D60
:1000D0002D2D2D2D2D2D2D2D2D2D2D2D2D2D2D2D50
:1000E0002D2D2B005363616E6E696E672E2E2E00D0
:1000F000493243207363616E6E65723A00207375F6
:10010000636365737366756C000A2072656C617950
:1001100020696E6974206F6E206164647265737308
:1001200020004669726D77617265207665722E20B7
:1001300000466F756E64206368697020504E35000C
:10014000504E353332207374617274757020746947
:100150006D6564206F7574004469646E2774206651
:10016000696E6420504E35337820626F6172640A84
:100170000000000000240027002A000000000025E5
:100180000028002B000404040404040404020202F6
:1001900002020203030303030301020408102040C8
:1001A0008001020408102001020408102000000051
:1001B0000800020100000304070000000000000026
:1001C000000059124D1711241FBECFEFD8E0DEBF3B
:1001D000CDBF26E0A2EFB3E001C01D92A53CB2075F
:1001E000E1F713E0A0E0B1E0E6E5F4E302C005903A
:1001F0000D92A23FB107D9F710E0C2EED0E004C0E3
:100200002197FE010E940B18C13ED107C9F70E9439
:1002100013130C941E1A0C940000089508958FB7C0
:10022000F89480918F048FBF08958CBD9DBD089573
:1002300020916C04260F3327331F21323105ECF453
:1002400020911C05FC0190E080E0243069F082E000
:100250000895A0916C042191AC01445B5B4FA40F05
:10026000B52FB11D2C930196861798F380916C04DD
:10027000680F60936C0480E0089581E0089508950C
:10028000E091950480919404E81730F4F0E0EA528C
:10029000FB4F808190E008958FEF9FEF089590913C
:1002A0009504809194042FEF3FEF981748F4E92FBD
:1002B000F0E0EA52FB4F208130E09F5F909395047D
:1002C000C90108958091940490919504891B990B1C
:1002D0000895CF92DF92EF92FF920F931F93CF93E7
:1002E000DF937C01CB018A0120912205222389F032
:1002F000EB016B01C40ED51ECC15DD0569F06991CB
:10030000D701ED91FC910190F081E02DC701099595
:10031000F3CF642F0E941801C801DF91CF911F9184
:100320000F91FF90EF90DF90CF900895CF93DF93E0
:100330001F92CDB7DEB76983209122052223F9F001
:1003400020914505203258F021E030E0FC01338354
:10035000228390E080E00F90DF91CF91089580910B
:100360002305E82FF0E0EC5DFA4F998190838F5FD1
:10037000809323058093450581E090E0ECCF61E018
:10038000CE0101960E941801F7CF833081F028F446
:10039000813099F08230A9F008958730A9F0883033
:1003A000C9F08430B1F4809180008F7D03C08091CA
:1003B00080008F7780938000089584B58F7784BD07
:1003C000089584B58F7DFBCF8091B0008F778093A7
:1003D000B00008958091B0008F7DF9CF1F93CF9327
:1003E000DF93282F30E0F901E355FE4F8491F901A6
:1003F000E756FE4FD491F901EB57FE4FC491CC2341
:10040000A9F0162F81110E94C501EC2FF0E0EE0F2C
:10041000FF1FE558FE4FA591B4918FB7F894EC916A
:10042000111108C0D095DE23DC938FBFDF91CF91EF
:100430001F910895DE2BF8CF10921C0581E0809368
:100440001B051092F60461E082E10E94EE0161E07A
:1004500083E10E94EE01E9EBF0E080818E7F8083F2
:1004600080818D7F808388E48093B80085E48093C9
:10047000BC000895109295041092940410922305E4
:10048000109245050E941C028DE091E09093930428
:10049000809392048EE091E0909391048093900475
:1004A0000895CF93DF9391E090934B048823B9F0A4
:1004B000C091B800D091BA008091BC008A7B809333
:1004C000BC0060E082E10E94EE0160E083E10E94F6
:1004D000EE010E941C02D093BA00C093B800DF91D5
:1004E000CF910895CF93DF9390E0FC01E756FE4F44
:1004F00024918B579E4FFC0184918823D1F090E08A
:10050000880F991FFC01EF58FE4FA591B491FC0193
:10051000E558FE4FC591D49161110EC09FB7F89474
:100520008C91E22FE0958E238C932881E223E8833F
:100530009FBFDF91CF9108958FB7F894EC91E22B94
:10054000EC938FBFF6CF8230910538F0880F991F5A
:10055000880F991F05970197F1F70895AF92BF9201
:10056000CF92DF92EF92FF920F931F93CF93DF937F
:10057000EC0188819981892B89F06EBD0DB407FE4D
:10058000FDCFBEB48B2DDF91CF911F910F91FF90C6
:10059000EF90DF90CF90BF90AF90089588859985B8
:1005A00011E0892B09F010E8AA24A394862F812357
:1005B00009F0A12C062F2C813D814E815F8160E2E4
:1005C00071EA87E090E00E94CE17F22EB02EE12C67
:1005D000C22ED12CFF2019F0C6010E94A3028A85E9
:1005E000877F09F042C08D858F3F89F0902F91233E
:1005F00081E009F480E08A1551F0EF85F8898F8950
:10060000992369F19081892B8083AA24A394E98995
:10061000FA898081998D892B8083FF2019F0C6018A
:100620000E94A3028E858F3F39F0EB89FC8980817F
:10063000988D892309F0E12AE989FA899081898DC9
:100640008095892380838E858F3F09F0BE2C888515
:100650009985892BB9F5110F1111BCCF93CF9081DA
:10066000809589238083A12CD2CFE989FA89808162
:10067000998D892B8083FF2019F0C6010E94A30267
:100680008D858F3F49F0EF85F8898F89902F9123D1
:10069000A9F09081892B8083E989FA899081898DDD
:1006A0008095892380838E858F3F69F2EB89FC8951
:1006B0008081988D892339F2E12AC5CF9081809578
:1006C0008923E9CF1695C8CFCF92DF92EF92FF92A0
:1006D0000F931F93CF93DF93EC018B016A01790194
:1006E00088819981892B31F0EA81FB818081918118
:1006F0000E94150160E08B850E94EE01F801608187
:10070000CE010E94AE028601EC0CFD1CE016F10643
:1007100041F06FEFCE010E94AE02F80181938F018C
:10072000F5CF61E08B850E94EE0181E0DF91CF91F2
:100730001F910F91FF90EF90DF90CF9008953FB7FA
:10074000F8948091470490914804A0914904B09195
:100750004A0426B5A89B05C02F3F19F00196A11D9C
:10076000B11D3FBFBA2FA92F982F8827BC01CD01FB
:10077000620F711D811D911D42E0660F771F881F5A
:10078000991F4A95D1F708954F925F926F927F9289
:100790009F92AF92BF92CF92DF92EF92FF920F9310
:1007A0001F93CF93DF9300D01F92CDB7DEB7F82E03
:1007B0008091B7069091B806A091B906B091BA069B
:1007C000892B8A2B8B2BD9F00E949F030091520515
:1007D000109153052091540530915505601B710B04
:1007E000820B930B0091B7061091B8062091B906C1
:1007F0003091BA066017710782079307C8F20E940A
:100800009F03609352057093530580935405909312
:100810005505E091BF06F091C006309759F0409120
:10082000BB065091BC066091BD067091BE068F2D2F
:100830000995F82E00915005109151054F2C512C1F
:10084000712C612C0115110509F45EC0D8011C96AC
:10085000EC901C978091B5069091B6068436910570
:1008600010F41C961C92D801ED91FC91A280B380EB
:1008700019821A821B82FF2089F1F8013696D12C49
:10088000C12C2191222319F19280992001F130E0AD
:1008900050E040E02F5F3F4F4F4F5F4FC301B20129
:1008A0000E94AA179B01AC01892D90E0B0E0A0E066
:1008B000BC01CD016F5F7F4F8F4F9F4F0E94AA17E2
:1008C000A1E0B0E0AC0FBD1FAC0DBD1D8C93BFEF20
:1008D000CB1ADB0A83E0C816D10499F6D8011D961D
:1008E0004D915C911E9712966D917C919E012F5FA8
:1008F0003F4FC801F5010995D8011C96EC921C9751
:1009000014960D911C919ECF80914E0590914F05AC
:100910009C012F5F3F4F30934F0520934E05499721
:100920000CF44AC08FB7F8942091460530914705E2
:1009300040914805509149058FBF80914A0590919B
:100940004B05A0914C05B0914D05281B390B4A0B66
:100950005B0B21F421E030E040E050E0E0914E05F7
:10096000F0914F0588EE93E0E89FB001E99F700D8C
:10097000F89F700D1124072E000C880B990B0E9414
:10098000CE173093B6062093B50610924F051092FD
:100990004E052FB7F8948091460590914705A09198
:1009A0004805B09149052FBF80934A0590934B05A8
:1009B000A0934C05B0934D050F900F900F90DF91D1
:1009C000CF911F910F91FF90EF90DF90CF90BF904C
:1009D000AF909F907F906F905F904F9008958F920F
:1009E0009F92AF92BF92CF92DF92EF92FF920F93BE
:1009F0001F93CF93DF93D0914505D13208F0D7C034
:100A0000182FC09144050E949F036B017C018091C7
:100A10001C0581116BC082E080931C0510931B059F
:100A20008FEF80931A0510921905D0931805A4E250
:100A3000B5E0E8EFF4E080E0D81391C01092F7043D
:100A40008091F704CC0FC82BC093F7048091F60473
:100A5000813009F088C01092F6040E949F036B0158
:100A60007C018091F7048093BB0080911E059091DA
:100A70001F05A0912005B0912105892B8A2B8B2B76
:100A8000A1F00E949F0300911E0510911F05209167
:100A90002005309121056C197D098E099F090617E3
:100AA00017072807390708F442C08091BC0083FD6E
:100AB000D8CF85EC8093BC000E949F036B017C0122
:100AC00080911C05823009F450C080911A058F3F37
:100AD00009F46FC080911A05803209F46CC08091CE
:100AE0001A05803309F469C084E026C080911E0590
:100AF00090911F05A0912005B0912105892B8A2B8B
:100B00008B2B09F484CF0E949F0380901E05909048
:100B10001F05A0902005B09021056C197D098E0954
:100B20009F0986169706A806B90608F070CF80912F
:100B30001D050E94510285E0109223051092450583
:100B400010922205DF91CF911F910F91FF90EF90AE
:100B5000DF90CF90BF90AF909F908F9008959D9120
:100B600091938F5F69CF85EEA5CF80911E059091FF
:100B70001F05A0912005B0912105892B8A2B8B2B75
:100B800009F49ECF0E949F0300911E0510911F053E
:100B900020912005309121056C197D098E099F094E
:100BA000061717072807390708F08ACFC0CF81E05A
:100BB000C3CF80E0C1CF82E0BFCF83E0BDCFE0E014
:100BC000F6E0918162818081238131E030932205BA
:100BD00020934405109223051092450560956923E2
:100BE000682B86E595E00E94960181E00C94EF0465
:100BF000CF92DF92EF92FF920F931F93CF93DF93E9
:100C0000D82FC62F613208F098C00E949F036B0155
:100C10007C0180911C0581116BC081E080931C05D3
:100C200080931B059FEF90931A05109219059C0F56
:100C3000909318058093F7048091F704DD0FD82B6B
:100C4000D093F7048091F604813009F078C01092B7
:100C5000F6040E949F036B017C018091F70480934E
:100C6000BB0080911E0590911F05A0912005B091B9
:100C70002105892B8A2B8B2BA1F00E949F030091C9
:100C80001E0510911F0520912005309121056C193A
:100C90007D098E099F09061717072807390708F4E9
:100CA00048C08091BC0083FDD8CF85EC8093BC0008
:100CB0000E949F036B017C0180911C05813009F427
:100CC00040C0809119058C1710F4C0911905E8EF08
:100CD000F4E0A6EDB4E080E08C1355C08C2FDF91DA
:100CE000CF911F910F91FF90EF90DF90CF900895DB
:100CF00080911E0590911F05A0912005B0912105BE
:100D0000892B8A2B8B2B09F484CF0E949F0300919F
:100D10001E0510911F0520912005309121056C19A9
:100D20007D098E099F09061717072807390708F05C
:100D300070CF80911D050E945102C0E0CFCF85EE9B
:100D4000B5CF80911E0590911F05A0912005B0910F
:100D50002105892B8A2B8B2B09F4AECF0E949F0390
:100D600000911E0510911F0520912005309121054D
:100D70006C197D098E099F0906171707280739077F
:100D800008F09ACFD6CF91919D938F5FA5CF8F9288
:100D90009F92AF92BF92CF92DF92EF92FF926B0140
:100DA0007C010E949F034B015C01C114D104E1044A
:100DB000F104B9F00E949F03681979098A099B0917
:100DC000683E73408105910580F321E0C21AD10885
:100DD000E108F10888EE880E83E0981EA11CB11C82
:100DE000E4CFFF90EF90DF90CF90BF90AF909F90B7
:100DF0008F90089580E991E00895AF92BF92CF92CD
:100E0000DF92EF92FF920F931F93CF93DF936C01CA
:100E10007B018B01040F151FEB015E01AE18BF08AB
:100E2000C017D10759F06991D601ED91FC9101905D
:100E3000F081E02DC6010995892B79F7C501DF9175
:100E4000CF911F910F91FF90EF90DF90CF90BF90C7
:100E5000AF90089590E080E00895FC01538D448D9B
:100E6000252F30E0842F90E0821B930B541710F055
:100E7000CF96089501970895FC01918D828D981762
:100E800061F0A28DAE0FBF2FB11D5D968C91928D3A
:100E90009F5F9F73928F90E008958FEF9FEF08956B
:100EA000FC01918D828D981731F0828DE80FF11D34
:100EB000858D90E008958FEF9FEF0895FC01918D4F
:100EC000228D892F90E0805C9F4F821B91098F7348
:100ED0009927089582E695E00E945E0721E0892B1C
:100EE00009F420E0822F089580E090E0892B29F01A
:100EF0000E946A0781110C9400000895FC01A48DE2
:100F0000A80FB92FB11DA35ABF4F2C91848D90E02B
:100F100001968F739927848FA689B7892C93A0890E
:100F2000B1898C91837080648C93938D848D981398
:100F300006C00288F389E02D80818F7D808308952B
:100F4000EF92FF920F931F93CF93DF93EC0181E019
:100F5000888F9B8D8C8D98131AC0E889F9898081C0
:100F600085FF15C09FB7F894EE89FF896083E889F3
:100F7000F98980818370806480839FBF81E090E0E5
:100F8000DF91CF911F910F91FF90EF900895F62E72
:100F90000B8D10E00F5F1F4F0F731127E02E8C8D0C
:100FA0008E110CC00FB607FCFACFE889F989808151
:100FB00085FFF5CFCE010E947E07F1CFEB8DEC0FC0
:100FC000FD2FF11DE35AFF4FF0829FB7F8940B8F6E
:100FD000EA89FB8980818062CFCF0F931F93CF93E3
:100FE000DF938C01D0E0C0E0F801EC0FFD1F6491AD
:100FF000662341F082E695E00E94A007892B11F05C
:101000002196F2CFCE01DF91CF911F910F910895DC
:10101000CF93DF93EC01888D8823B9F0AA89BB892F
:10102000E889F9898C9185FD03C0808186FD0DC01A
:101030000FB607FCF7CF8C9185FFF2CF808185FF3B
:10104000EDCFCE010E947E07E9CFDF91CF910895C9
:1010500090E0FC01EE0FFF1FE459FF4FA591B49102
:101060002C91FC01EC5DFB4F30812083880F991F90
:10107000FC01E45EFE4F0190F081E02D8081089537
:101080008F929F92AF92BF92CF92DF92EF92FF9298
:101090000F931F93CF93DF9300D0CDB7DEB77C01C2
:1010A0006B0110E000E0AA24A39492E0992EF701CE
:1010B00081899289009701F19A8221E030E0AE01A6
:1010C0004F5F5F4FBE016E5F7F4F0E94640381E000
:1010D0009981913009F434C080E0C114D10429F021
:1010E000065F1F4FC016D10658F16AE070E080E03D
:1010F00090E00E94C706DBCF208130E0F901E35584
:10110000FE4F8491F901E756FE4FB490F901EB5779
:10111000FE4F8490882079F081110E94C501E82D4E
:10112000F0E0EE0FFF1FE859FF4FA591B491EC914D
:10113000BE2281E009F480E08A25817009F4CDCFD8
:101140000F900F90DF91CF911F910F91FF90EF9033
:10115000DF90CF90BF90AF909F908F900895682FB1
:1011600086E595E00C9496010F931F93CF93DF9340
:101170002091F3032F5F322F37703093F30320FF5A
:101180002BC020E831FD2064347009F02062205F1C
:10119000FC01EC01239600E011E06485662329F050
:1011A00070E0C8010E94BA176F5F6187322F369FC7
:1011B000030E30E0311D1124311110C01682662358
:1011C00011F0615061873196EC17FD0731F7DF911F
:1011D000CF911F910F91089520E0D4CF31503683E5
:1011E000EECF4F925F926F927F928F92AF92BF92AB
:1011F000CF92DF92EF920F931F93CF93DF933C0137
:10120000EB010E949F03F30127853089621B730B5A
:101210006A307105B0F3F894E881F98175B17260B4
:1012200065B16D7F65B9CB8488852C2D281B822FF5
:101230002887BF844A805B801E850C85DD841F5F04
:101240000F5FD3949E813F81A984EA844281D201B9
:1012500020E0C32F522F322F32814427889431113E
:10126000380F08F43FEF8195889410FD430F4795A0
:10127000889411FD430F4795889412FD430F4795BD
:10128000889413FD430F4795889414FD430F4795A9
:10129000889415FD430F4795889416FD430F479595
:1012A000889417FD430F47958894232F1111242FFD
:1012B0008C0D422F002C75B900C000C047FF65B9E6
:1012C00030812227889400C0002C65B93111390F74
:1012D00000C0002C75B900C000C046FF65B908F415
:1012E0003FEF9195889400C0002C65B900FD230F55
:1012F00000C0002C75B900C000C045FF65B9279536
:10130000889401FD230F00C0002C65B927958894AF
:1013100000C0002C75B900C000C044FF65B902FDD3
:10132000230F2795889400C0002C65B903FD230F77
:1013300000C0002C75B900C000C043FF65B92795F7
:10134000889404FD230F00C0002C65B9279588946C
:1013500000C0002C75B900C000C042FF65B905FD92
:10136000230F2795889400C0002C65B906FD230F34
:1013700000C0002C75B900C000C041FF65B92795B9
:10138000889407FD230F00C0002C65B92795889429
:1013900000C0002C75B900C000C040FF65B9432FE4
:1013A0000111422F9A0D00C0002C65B900C000C089
:1013B000002C75B900C000C047FF65B931812227F4
:1013C000889400C0002C65B931113C0F00C0002C7E
:1013D00075B900C000C046FF65B908F43FEFEB0DDA
:1013E000F11D00C0002C65B9D0FC230F00C0002CFB
:1013F00075B900C000C045FF65B927958894D1FC38
:10140000230F00C0002C65B92795889400C0002CDC
:1014100075B900C000C044FF65B9D2FC230F279501
:10142000889400C0002C65B9D3FC230F00C0002CA9
:1014300075B900C000C043FF65B927958894D4FCF6
:10144000230F00C0002C65B92795889400C0002C9C
:1014500075B900C000C042FF65B9D5FC230F2795C0
:10146000889400C0002C65B9D6FC230F00C0002C66
:1014700075B900C000C041FF65B927958894D7FCB5
:10148000230F00C0002C65B92795889400C0002C5C
:1014900075B900C000C040FF65B9432FD110422F7D
:1014A000C19500C0002C65B9CE0D00C000C075B953
:1014B00000C000C047FF65B932812227889400C070
:1014C000002C65B93111380F00C0002C75B900C06F
:1014D00000C046FF65B908F43FEF8195889400C0CD
:1014E000002C65B910FD230F00C0002C75B900C099
:1014F00000C045FF65B92795889411FD230F00C0F2
:10150000002C65B92795889400C0002C75B900C0DF
:1015100000C044FF65B912FD230F2795889400C0D1
:10152000002C65B913FD230F00C0002C75B900C055
:1015300000C043FF65B92795889414FD230F00C0B0
:10154000002C65B92795889400C0002C75B900C09F
:1015500000C042FF65B915FD230F2795889400C090
:10156000002C65B916FD230F00C0002C75B900C012
:1015700000C041FF65B92795889417FD230F00C06F
:10158000002C65B92795889400C0002C75B900C05F
:1015900000C040FF65B9432F1111422F8C0D00C0D0
:1015A000002C65B9119709F086CE20EE31E0D2010A
:1015B0000E94F017DC01CB01F4E0B695A795979552
:1015C0008795FA95D1F730E020E0B901EAE94E9E1F
:1015D000040C611D5E9E600D711D1124650D711D51
:1015E000860F971FA11DB11D893E43E09407A105F9
:1015F000B10508F434C0885E9340A109B10942E006
:10160000B695A795979587954A95D1F747E0849F1A
:10161000080E211D949F200D311D1124290F311D0D
:101620006091F20370E0860F971F820F931F409125
:101630004605509147056091480570914905292F4D
:101640003327420F531F611D711D40934605509370
:10165000470560934805709349058093F203789499
:101660000E949F03F301708B6787DF91CF911F91D9
:101670000F91EF90DF90CF90BF90AF908F907F90C1
:101680006F905F904F900895219A08950F931F9344
:10169000CF93DF93CDB7DEB762970FB6F894DEBF76
:1016A0000FBECDBF8C01F901DC011C968C917A83B1
:1016B00069835C834B835E834D8390819D87918199
:1016C0009E8792819F878130F1F4CE0101960E941E
:1016D000B40883E0888B1A8A198AD801ED91FC91AD
:1016E0000484F585E02DBE016F5F7F4FC801099529
:1016F00062960FB6F894DEBF0FBECDBFDF91CF91DB
:101700001F910F9108951C861B861A8619861886CC
:101710001F82DFCF0F931F93CF93DF93CDB7DEB739
:1017200062970FB6F894DEBF0FBECDBF8C01F901F2
:10173000DC011C968C917A8369835C834B835E8386
:101740004D8390819D8791819E8792819F87813073
:10175000E9F4CE0101960E94B408188A1A8A198AFF
:10176000D801ED91FC910484F585E02DBE016F5FF9
:101770007F4FC801099562960FB6F894DEBF0FBE81
:10178000CDBFDF91CF911F910F9108951C861B86CD
:101790001A86198618861F82E0CFCF93DF9300D078
:1017A00000D000D0CDB7DEB7AB011C821D821E82F7
:1017B000DC01ED91FC910190F081E02D19821A82FB
:1017C0001B829E012F5F3F4FBE016C5F7F4F0995CB
:1017D00026960FB6F894DEBF0FBECDBFDF91CF9136
:1017E0000895FC0185859685089590E080E0089530
:1017F000CF92DF92EF92FF920F931F93CF93DF93DD
:101800001F92CDB7DEB7062FD72E142FFC0181898A
:1018100092890097A9F023E02983242F30E0462FF6
:10182000572FBE016F5F7F4F0E9464030F90DF91BF
:10183000CF911F910F91FF90EF90DF90CF9008957F
:1018400062E070E080E090E00E94C70662E0610F15
:1018500084E20E94F805109295048093940486E532
:1018600095E00E944F01C02EE02EFD2C61E070E05B
:1018700080E090E00E94C70686E595E00E944F0157
:10188000F70181937F018E2F8C19811778F3CECFCA
:10189000FC0101900020E9F73197AF01481B590B7B
:1018A000BC0182E695E00C94FD0688E691E00C947C
:1018B000480CCF93DF930E94ED07EC010E94550C7A
:1018C0008C0F9D1FDF91CF9108958F929F92AF92C1
:1018D000BF920F931F93CF93DF93CDB7DEB7A1973E
:1018E0000FB6F894DEBF0FBECDBF19A2423008F488
:1018F0004AE08E010F5D1F4F842E912CB12CA12C3C
:10190000A50194010E94CE17E62FB901CA01EA3061
:10191000F4F4E05DD801EE938D01232B242B252BCD
:1019200079F790E080E0109719F0CD010E94480C03
:10193000A1960FB6F894DEBF0FBECDBFDF91CF9159
:101940001F910F91BF90AF909F908F900895E95C89
:10195000E1CFCF92DF92EF92FF92CF93DF936B01B3
:101960007C016DE282E695E00E94A007EC0166270B
:101970007727CB016C197D098E099F094AE00E94E7
:10198000650C8C0F9D1FDF91CF91FF90EF90DF9042
:10199000CF900895CF93DF93BC01990F880B990BDB
:1019A00097FF0AC00E94A90CEC010E94550C8C0FF5
:1019B0009D1FDF91CF9108954AE00E94650CF4CFFE
:1019C000CF93DF930E94480CEC010E94550C8C0FC2
:1019D0009D1FDF91CF9108951F93CF93DF93FC015B
:1019E0001081D181C28168EC70E080E090E00E94BB
:1019F000C706EFE1F6E01083D183C283339686E019
:101A0000EC37F807C1F78091B4060E94C40366E37F
:101A100071E080E090E0DF91CF911F910C94C706B8
:101A20000C94480C0F931F93CF93DF93EC018B0121
:101A300061E08EE00E94EE010E94550C8BE691E081
:101A40000E94100DF801448155816081718182E608
:101A500095E00E94FD068EE691E00E94100D4C81FB
:101A60005D816881798182E695E00E94FD0680E7CC
:101A700091E00E94E00C62E370E080E090E00E9460
:101A8000C70660E08EE0DF91CF911F910F910C941B
:101A9000EE012F923F924F925F926F927F928F92C0
:101AA0009F92AF92BF92CF92DF92EF92FF920F93ED
:101AB0001F93CF93DF9300D000D000D01F92CDB7FB
:101AC000DEB77C014A012DB63EB6DC015196CD90C1
:101AD000DC90BB24B394B60EA62EA0946B2C712C74
:101AE000C114D10409F495C04DB65EB670E0685FCC
:101AF0007F4FEDB7FEB7E61BF70B0FB6F894FEBFAE
:101B00000FBEEDBF0DB71EB70F5F1F4F81E0818382
:101B1000D80111961C92119712961C9212978FEF72
:101B200013968C9313971496BC9214971596AC92B7
:101B3000159784ED16968C932DB73EB7285F3F4FCF
:101B4000F90163EDA301415051098E2F821B90E0F2
:101B5000841795073CF48A569B4FDC018C91819346
:101B6000680FF3CF609560831182B8E06B0E711C33
:101B7000F60180819181892B39F00280F381E02D7B
:101B8000808191810E94150160E0D6011B968C91A5
:101B90000E94EE015801F50161915F01C6010E94AA
:101BA000AE02C501801B910B86159705A0F361E07D
:101BB000D6011B968C910E94EE010FB6F8945EBE82
:101BC0000FBE4DBEB401C7010E944008182F8111FD
:101BD00063C010E0812F0FB6F8943EBE0FBE2DBE3D
:101BE00027960FB6F894DEBF0FBECDBFDF91CF9121
:101BF0001F910F91FF90EF90DF90CF90BF90AF902B
:101C00009F908F907F906F905F904F903F902F901C
:101C1000089562E070E080E090E00E94C70681E0F5
:101C20008093220584E2809344051092230510924C
:101C3000450580E00E94AF0880E00E94AF088FEF6A
:101C40000E94AF088B2D0E94AF088A2D0E94AF081A
:101C500084ED0E94AF08C12C83EDD82EB1E06B1A41
:101C600071080C2D10E0061517055CF40A561B4F81
:101C7000F80180810E94AF08D8018C91D80EC394DE
:101C8000F0CF8D2D80950E94AF0880E00E94AF08B4
:101C900081E00E94EF0496CFF70181899289009735
:101CA00021F123E02F8326E030E0AE014F5F5F4F4C
:101CB000BE01695F7F4F0E94640346E050E066E02A
:101CC00071E0CE0101960E94F819892B09F081CFAD
:101CD000D70151968D919C91892B09F47BCFB4014A
:101CE000C7010E944008182F75CF46E0BE016F5F04
:101CF0007F4FC7010E94F80BE0CF85ED8093BC00B9
:101D000080911E0590911F05A0912005B09121059D
:101D10000796A11DB11D23E0B695A79597958795C8
:101D20002A95D1F72091BC0024FD03C010921C0518
:101D3000089540911E0550911F05609120057091F6
:101D40002105452B462B472B69F30097A105B105CB
:101D500041F025E32A95F1F700000197A109B109A7
:101D6000E1CF80911D050C9451020E94F319FC01F2
:101D700080819181009711F00C94AD180895EF9235
:101D8000FF920F931F93CF93DF93EC017B01198296
:101D900018821B821A821D821C82FB010190002086
:101DA000E9F731978F01061B170BB8016F5F7F4F63
:101DB00090E080E00E9436190097B9F099838883FB
:101DC0001B830A832C813D81232B11F4FC0110829B
:101DD0001D830C83B70188819981DF91CF911F9179
:101DE0000F91FF90EF900C94171A888199810097BA
:101DF00011F00E94AD18198218821D821C821B826C
:101E00001A82DF91CF911F910F91FF90EF9008956B
:101E1000CF92DF92EF92FF921F93CF93DF93CDB7D4
:101E2000DEB76F970FB6F894DEBF0FBECDBF1F8E23
:101E30001E8E87E791E00E94100D90E080E00E94E6
:101E4000CA0C7E0181E1E80EF11C87E0D7011D92EA
:101E50008A95E9F786E0E2E1F1E0DE01589601902B
:101E60000D928A95E1F71A8219828AE4809396048A
:101E700081E0809397041092980450E040E063E082
:101E80008CE796E00E94490D882329F180918D0608
:101E900090918E06892BB9F044E166E974E08CE7F5
:101EA00096E00E94F80B80919D048130A1F410917E
:101EB000A204A3EAB4E0F7018E2F8E198117F0F483
:101EC0008D918193F9CF70E060E08CE796E00E94FD
:101ED00040088111E1CF809100068E7F809300063B
:101EE0000E94DF0562E370E080E090E00E94C70698
:101EF00089E691E00E94100D81E09DC086E0FE0120
:101F00007896A6E8B6E001900D928A95E1F7C12E89
:101F1000D12CA601B7018EE796E00E94051A109316
:101F2000850680E48093960481E08093970490E690
:101F3000909398048093990486E0E6E8F6E0AAE995
:101F4000B4E001900D928A95E1F720E0822F90E0B5
:101F50008C159D055CF4FC01EA56FB4F8458994FA3
:101F6000DC0112968C9182872F5FF0CF6AE0610FBF
:101F700044E650E08CE796E00E94490D8823C9F1C1
:101F80004CE066E974E08CE796E00E94F80B8091E3
:101F90009D0481112EC080E48093960481E080939B
:101FA000970490E3909398048093990444E650E05A
:101FB00064E08CE796E00E94490D8823F9F04AE13D
:101FC00066E974E08CE796E00E94F80B80919D042E
:101FD000811114C080E1EEE9F4E0DE011196019078
:101FE0000D928A95E1F7898181110BC08EEA91E00B
:101FF00002C086E991E00E94E00C6DCF82EA91E098
:10200000FACFCE0101960E94E00CBE016F5F7F4FB8
:1020100088E191E00E940E1A892B09F469CF8EECB9
:1020200091E00E94E00C80910006816080930006A0
:102030000E94DF0580E06F960FB6F894DEBF0FBEFA
:10204000CDBFDF91CF911F91FF90EF90DF90CF90A8
:1020500008951F920F920FB60F9211242F933F9362
:102060004F935F936F937F938F939F93AF93BF93A0
:10207000EF93FF938091B900887F803609F44AC0BE
:10208000F0F5883209F4A7C018F5803109F49BC037
:10209000B8F4882309F4F9C0883009F494C0FF919A
:1020A000EF91BF91AF919F918F917F916F915F91D0
:1020B0004F913F912F910F900FBE0F901F90189549
:1020C000883109F488C0803251F780931A0514C012
:1020D000803409F49DC040F48033B9F38833F9F6B5
:1020E00080931A0585ECB0C0803509F485C0883529
:1020F00009F496C0883499F60E947D0ED0CF8839B5
:1021000009F48CC038F5883729F050F4883611F07E
:10211000803729F683E080931C0510928E0457C007
:10212000883809F47BC0803919F0803809F0B7CFBE
:1021300080918E04803208F071C0E0918E0481E0BD
:102140008E0F80938E048091BB00F0E0E259FB4F2C
:1021500080833DC0803B39F0E0F4803A09F479C0D7
:10216000883A09F09CCF84E080931C0510926D049E
:1021700010926C04E0919204F0919304099580917F
:102180006C0481110FC081E080936C0410924C04A8
:1021900009C0803C09F4A6CF883C09F4A3CF883B52
:1021A00009F07DCFE0916D0481E08E0F80936D0486
:1021B000F0E0E45BFB4F80818093BB0090916D0465
:1021C00080916C0429C08091F7048093BB0085EC5A
:1021D0008093BC0064CF90911905809118059817E1
:1021E00058F5E091190581E08E0F80931905F0E014
:1021F000E850FB4F8081E9CFE091190581E08E0F17
:10220000809319058091BB00F0E0E850FB4F80837C
:1022100090911905809118059817C8F285E8D8CFD4
:10222000E091190581E08E0F809319058091BB0024
:10223000F0E0E850FB4F808380911B0581115CCF5B
:1022400081E08093F60484EA8093BC0010921C0520
:1022500026CF85EC8093BC0010921C0580918E04E3
:10226000803230F4E0918E04F0E0E259FB4F1082AE
:1022700060918E0470E0E0919004F09191048EE6FC
:1022800094E0099510928E040ACF10921A0534CF6B
:102290001F920F920FB60F9211242F933F938F939B
:1022A0009F93AF93BF938091460590914705A0916E
:1022B0004805B09149053091460423E0230F2D379E
:1022C00058F50196A11DB11D209346048093460543
:1022D00090934705A0934805B09349058091470422
:1022E00090914804A0914904B0914A040196A11D1F
:1022F000B11D8093470490934804A0934904B09380
:102300004A04BF91AF919F918F913F912F910F9070
:102310000FBE0F901F90189526E8230F0296A11D5F
:10232000B11DD2CF1F920F920FB60F9211242F938F
:102330003F934F935F936F937F938F939F93AF934D
:10234000BF93EF93FF9382E695E00E947E07FF9193
:10235000EF91BF91AF919F918F917F916F915F911D
:102360004F913F912F910F900FBE0F901F90189596
:102370001F920F920FB60F9211242F938F939F935A
:10238000EF93FF93E0917205F09173058081E091E6
:102390007805F091790582FD1BC0908180917B05C5
:1023A0008F5F8F7320917C05821741F0E0917B0550
:1023B000F0E0EE59FA4F958F80937B05FF91EF91F6
:1023C0009F918F912F910F900FBE0F901F90189596
:1023D0008081F4CF1F920F920FB60F9211242F938A
:1023E0003F934F935F936F937F938F939F93AF939D
:1023F000BF93EF93FF9382E00E942808FF91EF9133
:10240000BF91AF919F918F917F916F915F914F910C
:102410003F912F910F900FBE0F901F9018951F9214
:102420000F920FB60F9211242F933F934F935F9308
:102430006F937F938F939F93AF93BF93EF93FF938C
:1024400081E00E942808FF91EF91BF91AF919F9189
:102450008F917F916F915F914F913F912F910F904D
:102460000FBE0F901F9018951F920F920FB60F92EC
:1024700011242F933F934F935F936F937F938F9389
:102480009F93AF93BF93EF93FF9380E00E94280840
:10249000FF91EF91BF91AF919F918F917F916F913C
:1024A0005F914F913F912F910F900FBE0F901F9012
:1024B0001895EF92FF921F93CF93DF93E6E5F5E037
:1024C0001382128288EE93E0A0E0B0E084839583CB
:1024D000A683B78328E431E031832083E2E6F5E088
:1024E0001382128284839583A683B7838AE591E061
:1024F0009183808385EC90E09587848784EC90E0DD
:102500009787868780EC90E0918B808B81EC90E0C0
:10251000938B828B82EC90E0958B848B86EC90E0A1
:10252000978B868B118E128E138E148E63EE71E054
:102530008EEA96E00E94BF0E62EF71E088EA96E0B4
:102540000E94BF0E6DEF71E082EA96E00E94BF0E1E
:102550008FE8E82E86E0F82E1FEFF7011083118335
:102560008CE190E00E941118EC0188E08B871E87B7
:102570001D871C878FEF95E0998388831B8E82E0EF
:1025800090E00E94111821E7FC01208311829B83B7
:102590008A8380E492E4AFE0B0E08C839D83AE83D5
:1025A000BF83198618861A86F701D28BC18B83E107
:1025B000ACE7B6E001900D928A95E1F7E0E0F6E035
:1025C000108211821282138214821582168217825F
:1025D0001086118612861386148615861686108A32
:1025E0001786128A118A148A138A168A158A108EFF
:1025F000178A128E118E148E138E168E158EE4EBA2
:10260000F6E0108312821182148613868FEF9FEFFB
:10261000DC0187839087A187B287DF91CF911F91DB
:10262000FF90EF900895CF93DF93CDB7DEB72C974F
:102630000FB6F894DEBF0FBECDBF789484B582602C
:1026400084BD84B5816084BD85B5826085BD85B556
:10265000816085BD80916E00816080936E001092D4
:10266000810080918100826080938100809181004F
:1026700081608093810080918000816080938000E0
:102680008091B10084608093B1008091B00081603E
:102690008093B00080917A00846080937A0080916A
:1026A0007A00826080937A0080917A0081608093C2
:1026B0007A0080917A00806880937A001092C1003D
:1026C0000E943A02E0917205F091730582E08083E6
:1026D000E0916E05F0916F051082E0917005F09128
:1026E000710580E1808310927A05E0917605F09182
:1026F000770586E08083E0917405F091750580810F
:1027000080618083E0917405F09175058081886017
:102710008083E0917405F0917505808180688083E5
:10272000E0917405F091750580818F7D808364E66A
:1027300070E080E090E00E94C70661E08EE00E94B9
:1027400072028EEB90E00E94590C88E990E00E94A2
:10275000590C82E790E00E94590C64E170E080E03F
:1027600090E00E94C7066CE072E0CE0101960E94E4
:10277000BF0E60E172E0CE0107960E94BF0EBE015F
:102780006F5F7F4FCE0107960E94120DCE01079614
:102790000E94B70ECE0101960E94B70E6CE072E067
:1027A000CE0101960E94BF0E6EE172E0CE01079647
:1027B0000E94BF0EBE016F5F7F4FCE0107960E9441
:1027C000120DCE0107960E94B70ECE0101960E940F
:1027D000B70E6CE072E0CE0101960E94BF0E6AE275
:1027E00072E0CE0107960E94BF0EBE016F5F7F4F61
:1027F000CE0107960E94120DCE0107960E94B70ED9
:10280000CE0101960E94B70E87E392E00E94E00C91
:10281000A8950E94550C84E492E00E94E00C0E946E
:10282000550C80EF90E00E94590C84EE90E00E94DD
:10283000590CB8E0CB2ED12CE12CF12C10E001E0AA
:1028400000932205C092440510922305109245057D
:1028500081E00E94EF0481111DC08EE492E00E948D
:10286000100D4AE0C701B6010E94650C8EE592E0AA
:102870000E94100D40E1C701B6010E94650C83E67D
:1028800092E00E94E00C1F5F61E070E080E090E069
:102890000E94C7062FEFC21AD20AE20AF20A88E79C
:1028A000C816D104E104F10459F681E791E00E94D1
:1028B000E00C85E692E00E94100D612F70E090E040
:1028C00080E04AE00E94650C8CE692E00E94E00CF9
:1028D00088E792E00E94E00CA89589E091E00E94D0
:1028E000ED078FE390E00E94CA0C8FE3809303060C
:1028F0000E943A02809101068093040661E0809173
:1029000003060E94F80510929504809394048111A7
:1029100001C0FFCF86E595E00E944F01809301063C
:1029200080910206816080930206809100068E7F6E
:10293000809300060E94DF058091000681608093ED
:1029400000060E94DF0581E892E00E94100D87E8F2
:1029500092E00E94100D4AE060E070E0CB010E941E
:10296000650C8FE892E00E94100D81E090E00E94DB
:10297000CA0C8DEF90E00E94ED07A8950E94550CBF
:1029800089E992E00E94E00C80913A04811145C0EF
:1029900010922C0410922B048FEF80932F048093BD
:1029A0003004809331048093320480933304809305
:1029B000340481E080933504109237041092360479
:1029C00010922E0410922D04809150059091510583
:1029D000892B31F489E294E090935105809350055E
:1029E000E0912704F0912804309721F089E294E0E7
:1029F0009583848389E294E090932804809327044C
:102A0000109239041092380486E391E090932A04DE
:102A10008093290481E080933A04219A8FE196E023
:102A200090932C0480932B048FE190E090933704D3
:102A3000809336048091B7069091B806A091B906AC
:102A4000B091BA06843CE9E09E07A105B10520F4E7
:102A500084EC99E0A0E0B0E08093B7069093B806CC
:102A6000A093B906B093BA0664E670E080E090E007
:102A70000E94C7068FEF8093B40664E670E080E0A2
:102A800090E00E94C706198280E88A831B82CE01EB
:102A900001960E94EC0C83EA92E00E94E00CA8955B
:102AA0000E94550C8CEA92E00E94E00CE090A00697
:102AB000F090A106E114F10409F41FC161E0F701EF
:102AC00083850E94720261E0F70183850E94EE0116
:102AD000F70180819181892B09F4EDC01FB7F8942B
:102AE00080914204811127C0EFE8F1E08491E3EA8C
:102AF000F1E09491E82FF0E0EE0FFF1FEF58FE4F4A
:102B0000A591B491EC91E92321F461E08AE00E945F
:102B1000EE0161E08AE00E9472028CB580618CBD9A
:102B20008CB580648CBD61E08DE00E94720261E032
:102B30008BE00E947202809142048F5F8093420476
:102B40001FBF81E0F701838F82E08093960444E603
:102B500050E061E08FE896E00E94490D82E38093A7
:102B6000960485E0809397049FEF9093980491E0FA
:102B70009093990480939A0444E650E065E08FE8CE
:102B800096E00E94490D07E010E072E0B72EB09287
:102B9000960444E650E061E08FE896E00E94490D1B
:102BA0008111C9C088E591E00E94ED07015011092B
:102BB00071F780E491E00E94ED0787EB92E00E94BC
:102BC000E00CA8950E94550C6CE072E0CE010196D5
:102BD0000E94BF0E6FEC72E0CE0107960E94BF0EFE
:102BE000BE016F5F7F4FCE0107960E94120DCE018E
:102BF00007960E94B70ECE0101960E94B70E0E9462
:102C0000550C8AED92E00E94E00C0E94550C80E089
:102C1000E82E80E0F82E01E092E3D92E2BE8C22EB8
:102C2000BB24BA9430E8A32EA8958091450488234C
:102C300009F4FAC010924404109243040E94080F51
:102C4000811123C080914304909144040196909394
:102C500044048093430404970CF4DFC088E093E0BD
:102C60000E94E00CB092B4061982AA821B82CE01A7
:102C700001960E94EC0CA8951092450480910006E4
:102C80008160809300060E94DF058CEE93E00E9435
:102C9000E00C64EF71E080E090E00E94C706E11470
:102CA000F10409F4C1CF0E946A07882309F4BCCF5C
:102CB0000E940000B9CF61E084850E947202F70192
:102CC00082858B7F60E009F061E084850E94EE01DF
:102CD000F70185858F3F41F061E00E94720261E05B
:102CE000F70185850E94EE01F70186858F3F09F483
:102CF00028CF60E00E94720224CF0E943A0261E075
:102D0000809190060E94EE0160E0809190060E9402
:102D1000EE0160E971E080E090E00E94C70661E0AA
:102D2000809190060E94EE016AE070E080E090E001
:102D30000E94C70613CF4CE066E974E08FE896E086
:102D40000E94F80B46E050E060E071E086E994E014
:102D50000E94F819892B09F025CFC0909D04D090CE
:102D60009E04DC24CD24DC24F12CE12CFE2CED2C63
:102D7000DC2CCC2480919F04C82AFE2CED2CDC2C6A
:102D8000CC248091A004C82AC114D104E104F10428
:102D900009F408CF81E391E00E94ED076F2D7727BA
:102DA0008827992740E10E94650C0E94550C82E219
:102DB00091E00E94ED076E2D70E090E080E04AE027
:102DC0000E94650C6EE282E695E00E94A0076D2DE0
:102DD00070E090E080E04AE00E94650C0E94550C93
:102DE00094E19093960481E08093970490939804E3
:102DF0008093990444E650E064E08FE896E00E94F6
:102E0000490D882339F048E066E974E08FE896E0E0
:102E10000E94F80B85EC92E0D2CE62E370E080E095
:102E200090E00E94C7060ACFA89585E393E00E9430
:102E3000E00C10E0A8950E94080F811128C086E7D9
:102E400093E00E94E00C10E068E873E180E090E01D
:102E50000E94C706A8951C3068F387EB93E00E9498
:102E6000E00C00934504809100068E7F809300065D
:102E70000E94DF05D092B40682E30E94C403C98297
:102E80001A821B82CE0101960E94EC0CFECE88E9CC
:102E900093E00E94E00C1B5FD7CF82EA96E00E948D
:102EA000B70E88EA96E00E94B70E8EEA96E00C9480
:102EB000B70E0E949B17A59F900DB49F900DA49FE5
:102EC000800D911D112408952F923F924F925F9291
:102ED0006F927F928F929F92AF92BF92CF92DF922A
:102EE000EF92FF920F931F93CF93DF93CDB7DEB78F
:102EF000CA1BDB0B0FB6F894DEBF0FBECDBF099423
:102F00002A88398848885F846E847D848C849B8479
:102F1000AA84B984C884DF80EE80FD800C811B8187
:102F2000AA81B981CE0FD11D0FB6F894DEBF0FBEB6
:102F3000CDBFED010895A29FB001B39FC001A39F33
:102F4000700D811D1124911DB29F700D811D1124E2
:102F5000911D0895DB018F939F930E945917BF9194
:102F6000AF91A29F800D911DA39F900DB29F900DD8
:102F70001124089597FB072E16F4009407D077FDCF
:102F800009D00E94F71707FC05D03EF49095819573
:102F90009F4F0895709561957F4F0895A1E21A2E75
:102FA000AA1BBB1BFD010DC0AA1FBB1FEE1FFF1FED
:102FB000A217B307E407F50720F0A21BB30BE40B3D
:102FC000F50B661F771F881F991F1A9469F7609584
:102FD0007095809590959B01AC01BD01CF0108953E
:102FE0000E949B17B7FF0895821B930B0895AA1B9D
:102FF000BB1B51E107C0AA1FBB1FA617B70710F0E4
:10300000A61BB70B881F991F5A95A9F78095909515
:10301000BC01CD010895EE0FFF1F0590F491E02D46
:1030200009940F931F93CF93DF938230910510F48F
:1030300082E090E0E091C306F091C40630E020E029
:10304000B0E0A0E0309799F42115310509F44AC0A9
:10305000281B390B24303105D8F58A819B816115F5
:10306000710589F1FB0193838283FE0111C04081C8
:1030700051810281138148175907E0F04817590719
:1030800099F4109761F012960C93129713961C9373
:103090003296CF01DF91CF911F910F910895009348
:1030A000C3061093C406F4CF2115310551F0421721
:1030B000530738F0A901DB019A01BD01DF01F801D6
:1030C000C1CFEF01F9CF9093C4068093C306CDCF53
:1030D000FE01E20FF31F819391932250310939834E
:1030E0002883D7CF2091C1063091C206232B41F40B
:1030F00020910E0130910F013093C2062093C1063A
:1031000020910C0130910D012115310541F42DB7AD
:103110003EB74091100150911101241B350BE091F5
:10312000C106F091C206E217F307A0F42E1B3F0B75
:103130002817390778F0AC014E5F5F4F2417350729
:1031400048F04E0F5F1F5093C2064093C106819313
:1031500091939FCFF0E0E0E09CCFCF93DF93009777
:10316000E9F0FC01329713821282A091C306B0915C
:10317000C406ED0130E020E01097A1F420813181F8
:10318000820F931F2091C1063091C206281739077C
:1031900009F061C0F093C206E093C106DF91CF91C0
:1031A0000895EA01CE17DF07E8F54A815B819E01A9
:1031B00041155105B1F7E901FB83EA834991599122
:1031C000C40FD51FEC17FD0761F480819181029631
:1031D000840F951FE90199838883828193819B8362
:1031E0008A83F0E0E0E012968D919C91139700970E
:1031F000B9F52D913C911197CD010296820F931F45
:103200002091C1063091C2062817390739F6309748
:1032100051F51092C4061092C306B093C206A09353
:10322000C106BCCFD383C28340815181840F951FD7
:10323000C817D90761F44E5F5F4F88819981480FA5
:10324000591F518340838A819B81938382832115F7
:10325000310509F0B0CFF093C406E093C3069ECFCA
:10326000FD01DC01C0CF13821282D7CFB0E0A0E015
:10327000ECE3F9E10C9466178C01009751F4CB0153
:103280000E9411188C01C801CDB7DEB7E0E10C94A3
:103290008217FC01E60FF71F9C0122503109E2174B
:1032A000F30708F49DC0D901CD91DC911197C617A1
:1032B000D70798F0C530D10530F3CE0104978617B3
:1032C000970708F3C61BD70B2297C193D1936D9331
:1032D0007C93CF010E94AD18D6CF5B01AC1ABD0A1A
:1032E0004C018C0E9D1EA091C306B091C406512CBA
:1032F000412CF12CE12C109731F58091C106909171
:10330000C2068815990509F05CC04616570608F0F4
:1033100058C080910C0190910D01009741F48DB738
:103320009EB74091100150911101841B950BE81735
:10333000F90708F055C0F093C206E093C106F90101
:1033400071836083A0CF8D919C91119712966C90A0
:10335000129713967C901397A815B90559F56C012F
:1033600042E0C40ED11CCA14DB0420F1AC014A199E
:103370005B09DA011296159780F06282738251839D
:103380004083D9016D937C93E114F10471F0D7016E
:103390001396FC93EE93129776CF22968C0F9D1F77
:1033A000F90191838083F301EFCFF093C406E0939A
:1033B000C30669CF4816590608F42C017D01D301D4
:1033C0009ACFCB010E9411187C01009749F0AE0101
:1033D000B8010E94051AC8010E94AD18870153CF99
:1033E00010E000E050CF81E090E0F8940C941E1AB9
:1033F000FB01DC0104C08D910190801921F4415042
:103400005040C8F7881B990B0895FB01DC0102C0EE
:1034100001900D9241505040D8F70895FB01DC0116
:103420008D91019080190110D9F3990B0895FB013A
:10343000DC0101900D920020E1F7089510E0C2EE4A
:10344000D0E004C0FE010E940B182196C33ED107B4
:06345000C9F7F894FFCF5C
:103456000000FF06FAD50000FF00FF000000C506C9
:103466008000FFFFFFFFFFFF414800006B006C007C
:103476006D0000000000B50EB50EB50ECD0BF10BBC
:10348600F50B000000008A0B460B440BCD0BF10B2D
:10349600FA06F10800000000960169012A073F01BB
:1034A60062014F01400100000000A007FD062D0744
:1034B60008085E073C0750070D0A002142722C00DF
:1034C6002C446F6E652E00436865636B696E6720DA
:1034D60070726573656E636520666F7220726561D2
:1034E6006465723A200041757468206661696C658E
:1034F600640072656164206661696C65640072656A
:10350600616420656D7074792064617461626C6FAA
:10351600636B202D3E20696E76616C696400436F93
:103526007272656374206361726420706C61636596
:10353600642100454E545F535F425245414B4F55FF
:10354600540031332E30332E3230323200766572EB
:1035560073696F6E20312E31205354005359530036
:10356600216865616465725F626567696E002168DE
:1035760065616465725F656E64002173657475705C
:103586005F626567696E0057445420656E646162C8
:103596006C6564004932433A202E2E2E2000466F79
:1035A600756E6420616464726573733A2000202826
:1035B6003078002900466F756E64200020646576B9
:1035C6006963652873292E004932433A204F4B21FF
:1035D6000020202020200052656C6179205B005D70
:1035E6002073657420746F20004C45443A202E2EBB
:1035F6002E20004C45443A204F4B21005246494468
:103606003A202E2E2E2000524649443A2046414961
:103616004C45442100524649443A204F4B21002153
:1036260073657475705F656E64003D3D3D3D3D3D5F
:103636003D3D3D3D3D3D3D3D3D3D3D3D3D53544183
:1036460052543D3D3D3D3D3D3D3D3D3D3D3D3D3D78
:103656003D3D3D3D3D3D3D0047616D6520656E64E8
:1036660065642C206861766520736F6D65206C69D2
:1036760067687420616E6420616E206F70656E20CD
:10368600646F6F7200726F6F6D206973206E6F7456
:10369600206C6976652C2077616974696E6720668F
:1036A6006F722063617264206265696E672072655D
:1036B6006D6F76656420746F2061726D2074686525
:1036C60020726F6F6D00636172642070726573653E
:1036D6006E742C20726573657474696D65722073DF
:1036E600657420746F203000636172642072656DAA
:1036F6006F7665642C20696E6372656173696E67A7
:103706002074696D65720047616D6520676F696E2B
:1037160067206C6976652C206B696C6C696E672016
:103726006C696768747320616E64206C6F636B6983
:103736006E672074686520646F6F72004C6F6F70DF
:02374600000081
:00000001FF
