:100000000C94E3000C940B010C940B010C94000F66
:100010000C94DB0E0C94B60E0C940B010C940B019B
:100020000C940B010C940B010C940B010C940B0120
:100030000C940B010C940B010C940B010C940B0110
:100040000C94140E0C940B010C94840E0C945E0E04
:100050000C940B010C940B010C940B010C940B01F0
:100060000C94F50C0C940B010000000023002600FA
:1000700029002B2D2D2D2D2D2D2D2D2D2D2D2D2DE3
:100080002D2D2D2D2D2D2D2D2D2D2D2D2D2D2D2DA0
:100090002D2D2D2D2D2D2B007C2020202054656111
:1000A0006D457363617065204848265320454E476F
:1000B000494E454552494E47202020207C002B2D9B
:1000C0002D2D2D2D2D2D2D2D2D2D2D2D2D2D2D2D60
:1000D0002D2D2D2D2D2D2D2D2D2D2D2D2D2D2D2D50
:1000E0002D2D2B005363616E6E696E672E2E2E00D0
:1000F000493243207363616E6E65723A00207375F6
:10010000636365737366756C000A2072656C617950
:1001100020696E6974206F6E206164647265737308
:1001200020004669726D77617265207665722E20B7
:1001300000466F756E64206368697020504E35000C
:10014000504E353332207374617274757020746947
:100150006D6564206F7574004469646E2774206651
:10016000696E6420504E35337820626F6172640A84
:100170000000000000240027002A000000000025E5
:100180000028002B000404040404040404020202F6
:1001900002020203030303030301020408102040C8
:1001A0008001020408102001020408102000000051
:1001B0000800020100000304070000000000000026
:1001C0000000250F971411241FBECFEFD8E0DEBF2B
:1001D000CDBF26E0A8EDB3E001C01D92A833B20761
:1001E000E1F713E0A0E0B1E0ECE4FEE202C005902C
:1001F0000D92A83DB107D9F710E0C2EED0E004C0DF
:100200002197FE010E940B15C13ED107C9F70E943C
:1002100002100C9419170C940000089508958FB7DC
:10022000F89480915E048FBF08958CBD9DBD0895A4
:1002300020913B04260F3327331F21323105ECF484
:100240002091EB04FC0190E080E0243069F082E032
:100250000895A0913B042191AC01455E5B4FA40F32
:10026000B52FB11D2C930196861798F380913B040E
:10027000680F60933B0480E0089581E0089508953D
:10028000E091640480916304E81730F4F0E0EB55EA
:10029000FB4F808190E008958FEF9FEF089590913C
:1002A0006404809163042FEF3FEF981748F4E92F1F
:1002B000F0E0EB55FB4F208130E09F5F90936404AA
:1002C000C90108958091630490916404891B990B7E
:1002D0000895CF92DF92EF92FF920F931F93CF93E7
:1002E000DF937C01CB018A012091F104222389F064
:1002F000EB016B01C40ED51ECC15DD0569F06991CB
:10030000D701ED91FC910190F081E02DC701099595
:10031000F3CF642F0E941801C801DF91CF911F9184
:100320000F91FF90EF90DF90CF900895CF93DF93E0
:100330001F92CDB7DEB769832091F1042223F9F033
:1003400020911405203258F021E030E0FC01338385
:10035000228390E080E00F90DF91CF91089580910B
:10036000F204E82FF0E0ED50FB4F998190838F5F0E
:100370008093F2048093140581E090E0ECCF61E07B
:10038000CE0101960E941801F7CF833081F028F446
:10039000813099F08230A9F008958730A9F0883033
:1003A000C9F08430B1F4809180008F7D03C08091CA
:1003B00080008F7780938000089584B58F7784BD07
:1003C000089584B58F7DFBCF8091B0008F778093A7
:1003D000B00008958091B0008F7DF9CF1F93CF9327
:1003E000DF93282F30E0F901E355FE4F8491F901A6
:1003F000E756FE4FD491F901EB57FE4FC491CC2341
:10040000A9F0162F81110E94C501EC2FF0E0EE0F2C
:10041000FF1FE558FE4FA591B4918FB7F894EC916A
:10042000111108C0D095DE23DC938FBFDF91CF91EF
:100430001F910895DE2BF8CF1092EB0481E080939A
:10044000EA041092C50461E082E10E94EE0161E0DD
:1004500083E10E94EE01E9EBF0E080818E7F8083F2
:1004600080818D7F808388E48093B80085E48093C9
:10047000BC00089510926404109263041092F20478
:10048000109214050E941C028DE091E0909362048A
:10049000809361048EE091E09093600480935F0408
:1004A0000895CF93DF9391E090931A048823B9F0D5
:1004B000C091B800D091BA008091BC008A7B809333
:1004C000BC0060E082E10E94EE0160E083E10E94F6
:1004D000EE010E941C02D093BA00C093B800DF91D5
:1004E000CF910895CF93DF9390E0FC01E756FE4F44
:1004F00024918B579E4FFC0184918823D1F090E08A
:10050000880F991FFC01EF58FE4FA591B491FC0193
:10051000E558FE4FC591D49161110EC09FB7F89474
:100520008C91E22FE0958E238C932881E223E8833F
:100530009FBFDF91CF9108958FB7F894EC91E22B94
:10054000EC938FBFF6CF8230910538F0880F991F5A
:10055000880F991F05970197F1F70895AF92BF9201
:10056000CF92DF92EF92FF920F931F93CF93DF937F
:10057000EC0188819981892B89F06EBD0DB407FE4D
:10058000FDCFBEB48B2DDF91CF911F910F91FF90C6
:10059000EF90DF90CF90BF90AF90089588859985B8
:1005A00011E0892B09F010E8AA24A394862F812357
:1005B00009F0A12C062F2C813D814E815F8160E2E4
:1005C00071EA87E090E00E94E914F22EB02EE12C4F
:1005D000C22ED12CFF2019F0C6010E94A3028A85E9
:1005E000877F09F042C08D858F3F89F0902F91233E
:1005F00081E009F480E08A1551F0EF85F8898F8950
:10060000992369F19081892B8083AA24A394E98995
:10061000FA898081998D892B8083FF2019F0C6018A
:100620000E94A3028E858F3F39F0EB89FC8980817F
:10063000988D892309F0E12AE989FA899081898DC9
:100640008095892380838E858F3F09F0BE2C888515
:100650009985892BB9F5110F1111BCCF93CF9081DA
:10066000809589238083A12CD2CFE989FA89808162
:10067000998D892B8083FF2019F0C6010E94A30267
:100680008D858F3F49F0EF85F8898F89902F9123D1
:10069000A9F09081892B8083E989FA899081898DDD
:1006A0008095892380838E858F3F69F2EB89FC8951
:1006B0008081988D892339F2E12AC5CF9081809578
:1006C0008923E9CF1695C8CFCF92DF92EF92FF92A0
:1006D0000F931F93CF93DF93EC018B016A01790194
:1006E00088819981892B31F0EA81FB818081918118
:1006F0000E94150160E08B850E94EE01F801608187
:10070000CE010E94AE028601EC0CFD1CE016F10643
:1007100041F06FEFCE010E94AE02F80181938F018C
:10072000F5CF61E08B850E94EE0181E0DF91CF91F2
:100730001F910F91FF90EF90DF90CF9008953FB7FA
:10074000F8948091160490911704A0911804B09128
:10075000190426B5A89B05C02F3F19F00196A11DCD
:10076000B11D3FBFBA2FA92F982F8827BC01CD01FB
:10077000620F711D811D911D42E0660F771F881F5A
:10078000991F4A95D1F708958F929F92AF92BF9289
:10079000CF92DF92EF92FF920F931F93CF93DF934D
:1007A000D0911405D13208F0D7C0182FC09113058D
:1007B0000E949F036B017C018091EB0481116BC04F
:1007C00082E08093EB041093EA048FEF8093E904B6
:1007D0001092E804D093E704A3EFB4E0E7ECF4E070
:1007E00080E0D81391C01092C6048091C604CC0F4B
:1007F000C82BC093C6048091C504813009F088C01D
:100800001092C5040E949F036B017C018091C60475
:100810008093BB008091ED049091EE04A091EF04D1
:10082000B091F004892B8A2B8B2BA1F00E949F039F
:100830000091ED041091EE042091EF043091F0044A
:100840006C197D098E099F090617170728073907B4
:1008500008F442C08091BC0083FDD8CF85EC809322
:10086000BC000E949F036B017C018091EB048230ED
:1008700009F450C08091E9048F3F09F46FC0809162
:10088000E904803209F46CC08091E904803309F4F2
:1008900069C084E026C08091ED049091EE04A0919F
:1008A000EF04B091F004892B8A2B8B2B09F484CFB1
:1008B0000E949F038090ED049090EE04A090EF04BE
:1008C000B090F0046C197D098E099F098616970671
:1008D000A806B90608F070CF8091EC040E9451027E
:1008E00085E01092F204109214051092F104DF9149
:1008F000CF911F910F91FF90EF90DF90CF90BF901D
:10090000AF909F908F9008959D9191938F5F69CF45
:1009100085EEA5CF8091ED049091EE04A091EF04B7
:10092000B091F004892B8A2B8B2B09F49ECF0E9467
:100930009F030091ED041091EE042091EF0430919B
:10094000F0046C197D098E099F09061717072807FF
:10095000390708F08ACFC0CF81E0C3CF80E0C1CF94
:1009600082E0BFCF83E0BDCFEFEBF5E09181628104
:100970008081238131E03093F1042093130510929C
:10098000F2041092140560956923682B85E195E0C7
:100990000E94960181E00C94C403CF92DF92EF9203
:1009A000FF920F931F93CF93DF93D82FC62F6132FF
:1009B00008F098C00E949F036B017C018091EB04BA
:1009C00081116BC081E08093EB048093EA049FEF78
:1009D0009093E9041092E8049C0F9093E7048093AD
:1009E000C6048091C604DD0FD82BD093C604809135
:1009F000C504813009F078C01092C5040E949F039D
:100A00006B017C018091C6048093BB008091ED0452
:100A10009091EE04A091EF04B091F004892B8A2B01
:100A20008B2BA1F00E949F030091ED041091EE0426
:100A30002091EF043091F0046C197D098E099F0913
:100A4000061717072807390708F448C08091BC002B
:100A500083FDD8CF85EC8093BC000E949F036B017F
:100A60007C018091EB04813009F440C08091E8045E
:100A70008C1710F4C091E804E7ECF4E0A5EAB4E0C8
:100A800080E08C1355C08C2FDF91CF911F910F9177
:100A9000FF90EF90DF90CF9008958091ED049091BA
:100AA000EE04A091EF04B091F004892B8A2B8B2BDC
:100AB00009F484CF0E949F030091ED041091EE048D
:100AC0002091EF043091F0046C197D098E099F0983
:100AD000061717072807390708F070CF8091EC0434
:100AE0000E945102C0E0CFCF85EEB5CF8091ED04DA
:100AF0009091EE04A091EF04B091F004892B8A2B21
:100B00008B2B09F4AECF0E949F030091ED0410914E
:100B1000EE042091EF043091F0046C197D098E09E8
:100B20009F09061717072807390708F09ACFD6CF6D
:100B300091919D938F5FA5CF8F929F92AF92BF921D
:100B4000CF92DF92EF92FF924B015C010E949F03D4
:100B50006B017C010E949F036C197D098E099F091E
:100B6000683E734081059105A8F321E0821A91083F
:100B7000A108B10888EEC80E83E0D81EE11CF11C64
:100B800081149104A104B10429F7FF90EF90DF9044
:100B9000CF90BF90AF909F908F9008953F924F92CB
:100BA0005F926F927F928F929F92AF92BF92CF92FD
:100BB000DF92EF92FF920F931F93CF93DF93CDB706
:100BC000DEB729970FB6F894DEBF0FBECDBFB62EA5
:100BD000062F172F9C01A82E972EE32EFF24002707
:100BE00011273E2C0CE016E088E0882ED12CC12C79
:100BF000D80112968D919C911397C816D90608F0CA
:100C00000FC13B2D18962C91492D5A2D222361F0AE
:100C1000A29EC0011124592F299DC0011124492FE2
:100C20002B9DC0011124392FD8011E96EC911E97DF
:100C300019968D919C911A971B966C91E613A0C002
:100C4000B601660F771F6C0D7D1D860F971FD801AB
:100C50001B96EC911B97E80FF92FF11D50831C9602
:100C6000EC911C97E80FF92FF11D40831D962C91F4
:100C70001D97820F911DFC01308319968D919C91D7
:100C8000892B09F479C0D8011F964D905D906D9025
:100C90007C9052970E949F03641575058605970501
:100CA00038F40E949F03F8016787708B818B928BC9
:100CB0000E949F03D8011F964D905D906D907C908F
:100CC000529764197509860997096C32714081053C
:100CD0009105C8F2F894F801848195819A838983FB
:100CE0000184F285E02D3F012FEF621A720A8081A4
:100CF0008987D8019C915396ED91FC915497559614
:100D00008C91992309F452C09081982B98879081F7
:100D1000809589238F838F818C838B8258856F8107
:100D200049853B812C8189819A81D301508347FD7C
:100D3000252F3A952083262F39F0441F00C000004C
:100D40006083000000C0F2CF38E04D916083000066
:100D5000019761F7D8015496FC93EE935397498716
:100D60003B832C839A83898378940E949F03F801A4
:100D70006787708B818B928BFFEFCF1ADF0A38CF9A
:100D8000B601660F771F660F771F860F971F222306
:100D900059F02E9DB0012F9D700D1124272FE80FC3
:100DA000F92FF11D208353CF232DF9CF9081982B5C
:100DB00098879081809589238F838F818E838D8200
:100DC00058856F8149853D812E8189819A81D30122
:100DD000508347FD252F00C000C0208300C000C005
:100DE00000C000C000C060830000262F3A9541F08B
:100DF000441F000000C000C000C000C000C0E8CF19
:100E000038E04D9100C0608300C0019709F7D80118
:100E10005496FC93EE93539749873D832E83A2CF3C
:100E20006AE070E080E090E00E949C050A5E1F4F3F
:100E300026E00833120709F0D9CE29960FB6F894A8
:100E4000DEBF0FBECDBFDF91CF911F910F91FF90FD
:100E5000EF90DF90CF90BF90AF909F908F907F905A
:100E60006F905F904F903F900895AF92BF92CF9256
:100E7000DF92EF92FF920F931F93CF93DF936C015A
:100E80007B018B01040F151FEB015E01AE18BF083B
:100E9000C017D10759F06991D601ED91FC910190ED
:100EA000F081E02DC6010995892B79F7C501DF9105
:100EB000CF911F910F91FF90EF90DF90CF90BF9057
:100EC000AF90089590E080E00895FC01538D448D2B
:100ED000252F30E0842F90E0821B930B541710F0E5
:100EE000CF96089501970895FC01918D828D9817F2
:100EF00061F0A28DAE0FBF2FB11D5D968C91928DCA
:100F00009F5F9F73928F90E008958FEF9FEF0895FA
:100F1000FC01918D828D981731F0828DE80FF11DC3
:100F2000858D90E008958FEF9FEF0895FC01918DDE
:100F3000228D892F90E0805C9F4F821B91098F73D7
:100F40009927089581E295E00E94960721E0892B78
:100F500009F420E0822F089580E090E0892B29F0A9
:100F60000E94A20781110C9400000895FC01A48D39
:100F7000A80FB92FB11DA35ABF4F2C91848D90E0BB
:100F800001968F739927848FA689B7892C93A0899E
:100F9000B1898C91837080648C93938D848D981328
:100FA00006C00288F389E02D80818F7D80830895BB
:100FB000EF92FF920F931F93CF93DF93EC0181E0A9
:100FC000888F9B8D8C8D98131AC0E889F989808150
:100FD00085FF15C09FB7F894EE89FF896083E88983
:100FE000F98980818370806480839FBF81E090E075
:100FF000DF91CF911F910F91FF90EF900895F62E02
:101000000B8D10E00F5F1F4F0F731127E02E8C8D9B
:101010008E110CC00FB607FCFACFE889F9898081E0
:1010200085FFF5CFCE010E94B607F1CFEB8DEC0F17
:10103000FD2FF11DE35AFF4FF0829FB7F8940B8FFD
:10104000EA89FB8980818062CFCF0F931F93CF9372
:10105000DF938C01D0E0C0E0F801EC0FFD1F64913C
:10106000662341F081E295E00E94D807892B11F0B8
:101070002196F2CFCE01DF91CF911F910F9108956C
:10108000CF93DF93EC01888D8823B9F0AA89BB89BF
:10109000E889F9898C9185FD03C0808186FD0DC0AA
:1010A0000FB607FCF7CF8C9185FFF2CF808185FFCB
:1010B000EDCFCE010E94B607E9CFDF91CF91089521
:1010C00090E0FC01EE0FFF1FE459FF4FA591B49192
:1010D0002C91FC01E85FFB4F30812083880F991F22
:1010E000FC01EE5DFE4F0190F081E02D80810895BE
:1010F0008F929F92AF92BF92CF92DF92EF92FF9228
:101100000F931F93CF93DF9300D0CDB7DEB77C0151
:101110006B0110E000E0AA24A39492E0992EF7015D
:1011200081899289009701F19A8221E030E0AE0135
:101130004F5F5F4FBE016E5F7F4F0E94640381E08F
:101140009981913009F434C080E0C114D10429F0B0
:10115000065F1F4FC016D10658F16AE070E080E0CC
:1011600090E00E949C05DBCF208130E0F901E3553F
:10117000FE4F8491F901E756FE4FB490F901EB5709
:10118000FE4F8490882079F081110E94C501E82DDE
:10119000F0E0EE0FFF1FE859FF4FA591B491EC91DD
:1011A000BE2281E009F480E08A25817009F4CDCF68
:1011B0000F900F90DF91CF911F910F91FF90EF90C3
:1011C000DF90CF90BF90AF909F908F900895682F41
:1011D00085E195E00C949601CF92DF92EF92FF9219
:1011E0000F931F93CF93DF931F92CDB7DEB7062FD8
:1011F000D72E142FFC01818992890097A9F023E052
:101200002983242F30E0462F572FBE016F5F7F4F79
:101210000E9464030F90DF91CF911F910F91FF9077
:10122000EF90DF90CF90089562E070E080E090E072
:101230000E949C0562E0610F84E20E94CD0410923E
:1012400064048093630485E195E00E944F01C02E01
:10125000E02EFD2C61E070E080E090E00E949C05B3
:1012600085E195E00E944F01F70181937F018E2F68
:101270008C19811778F3CECFFC0101900020E9F79B
:101280003197AF01481B590BBC0181E295E00C94EA
:1012900035078CE491E00C943C09CF93DF930E94D6
:1012A0002508EC010E9449098C0F9D1FDF91CF9109
:1012B00008958F929F92AF92BF920F931F93CF93F7
:1012C000DF93CDB7DEB7A1970FB6F894DEBF0FBEA0
:1012D000CDBF19A2423008F44AE08E010F5D1F4FC6
:1012E000842E912CB12CA12CA50194010E94E9140B
:1012F000E62FB901CA01EA30F4F4E05DD801EE93BB
:101300008D01232B242B252B79F790E080E010977B
:1013100019F0CD010E943C09A1960FB6F894DEBFEA
:101320000FBECDBFDF91CF911F910F91BF90AF90B6
:101330009F908F900895E95CE1CFCF92DF92EF927A
:10134000FF92CF93DF936B017C016DE281E295E028
:101350000E94D807EC0166277727CB016C197D091D
:101360008E099F094AE00E9459098C0F9D1FDF9149
:10137000CF91FF90EF90DF90CF900895CF93DF93C0
:10138000BC01990F880B990B97FF0AC00E949D0919
:10139000EC010E9449098C0F9D1FDF91CF910895A8
:1013A0004AE00E945909F4CFCF93DF930E943C0991
:1013B000EC010E9449098C0F9D1FDF91CF91089588
:1013C0000C943C090F931F93CF93DF93EC018B0197
:1013D00061E08EE00E94EE010E9449098FE491E0F5
:1013E0000E94E009F801448155816081718181E2A8
:1013F00095E00E94350782E591E00E94E0094C816A
:101400005D816881798181E295E00E94350784E5FC
:1014100091E00E94D40962E370E080E090E00E94D5
:101420009C0560E08EE0DF91CF911F910F910C94AD
:10143000EE012F923F924F925F926F927F928F9226
:101440009F92AF92BF92CF92DF92EF92FF920F9353
:101450001F93CF93DF9300D000D000D01F92CDB761
:10146000DEB77C014A012DB63EB6DC015196CD9027
:10147000DC90BB24B394B60EA62EA0946B2C712CDA
:10148000C114D10409F495C04DB65EB670E0685F32
:101490007F4FEDB7FEB7E61BF70B0FB6F894FEBF14
:1014A0000FBEEDBF0DB71EB70F5F1F4F81E08183E9
:1014B000D80111961C92119712961C9212978FEFD9
:1014C00013968C9313971496BC9214971596AC921E
:1014D000159784ED16968C932DB73EB7285F3F4F36
:1014E000F90163EDA301415051098E2F821B90E059
:1014F000841795073CF48B599B4FDC018C918193A9
:10150000680FF3CF609560831182B8E06B0E711C99
:10151000F60180819181892B39F00280F381E02DE1
:10152000808191810E94150160E0D6011B968C910B
:101530000E94EE015801F50161915F01C6010E9410
:10154000AE02C501801B910B86159705A0F361E0E3
:10155000D6011B968C910E94EE010FB6F8945EBEE8
:101560000FBE4DBEB401C7010E947808182F81112B
:1015700063C010E0812F0FB6F8943EBE0FBE2DBEA3
:1015800027960FB6F894DEBF0FBECDBFDF91CF9187
:101590001F910F91FF90EF90DF90CF90BF90AF9091
:1015A0009F908F907F906F905F904F903F902F9083
:1015B000089562E070E080E090E00E949C0581E088
:1015C0008093F10484E2809313051092F204109248
:1015D000140580E00E94E70880E00E94E7088FEF92
:1015E0000E94E7088B2D0E94E7088A2D0E94E708D9
:1015F00084ED0E94E708C12C83EDD82EB1E06B1A70
:1016000071080C2D10E0061517055CF40B591B4FE3
:10161000F80180810E94E708D8018C91D80EC3940C
:10162000F0CF8D2D80950E94E70880E00E94E708AA
:1016300081E00E94C40396CFF701818992890097C7
:1016400021F123E02F8326E030E0AE014F5F5F4FB2
:10165000BE01695F7F4F0E94640346E050E06CE08A
:1016600071E0CE0101960E94F316892B09F081CF1B
:10167000D70151968D919C91892B09F47BCFB401B0
:10168000C7010E947808182F75CF46E0BE016F5F32
:101690007F4FC7010E94EC08E0CF85ED8093BC002E
:1016A0008091ED049091EE04A091EF04B091F004CC
:1016B0000796A11DB11D23E0B695A795979587952F
:1016C0002A95D1F72091BC0024FD03C01092EB04B1
:1016D00008954091ED045091EE046091EF047091F3
:1016E000F004452B462B472B69F30097A105B10564
:1016F00041F025E32A95F1F700000197A109B1090E
:10170000E1CF8091EC040C945102FC018081918125
:10171000009711F00C94AD150895EF92FF920F937E
:101720001F93CF93DF93EC017B01198218821B82F8
:101730001A821D821C82FB0101900020E9F731977B
:101740008F01061B170BB8016F5F7F4F90E080E0A1
:101750000E9436160097B9F0998388831B830A8309
:101760002C813D81232B11F4FC0110821D830C83FD
:10177000B70188819981DF91CF911F910F91FF90DF
:10178000EF900C94121788819981009711F00E94B4
:10179000AD15198218821D821C821B821A82DF916C
:1017A000CF911F910F91FF90EF900895CF92DF920C
:1017B000EF92FF921F93CF93DF93CDB7DEB76D9774
:1017C0000FB6F894DEBF0FBECDBF8BE591E00E944F
:1017D000E00990E080E00E94BE097E0181E1E80E10
:1017E000F11C87E0D7011D928A95E9F786E0E8E1D0
:1017F000F1E0DE01589601900D928A95E1F71A8288
:1018000019828AE48093650481E0809366041092D3
:10181000670450E040E063E08EED95E00E94190A15
:10182000882329F18091EF059091F005892BB9F07B
:1018300044E165E674E08EED95E00E94EC0880914D
:101840006C048130A1F410917104A2E7B4E0F701B7
:101850008E2F8E198117F0F48D918193F9CF70E05E
:1018600060E08EED95E00E9478088111E1CF8091D3
:10187000BF058E7F8093BF050E94B40462E370E0D1
:1018800080E090E00E949C058DE491E00E94E009D8
:1018900081E09DC086E0FE017896A8EEB5E001905B
:1018A0000D928A95E1F7C12ED12CA601B70180EEE9
:1018B00095E00E9400171093E70580E4809365048B
:1018C00081E08093660490E69093670480936804B7
:1018D00086E0E8EEF5E0A9E6B4E001900D928A9585
:1018E000E1F720E0822F90E08C159D055CF4FC016F
:1018F000EB59FB4F82529A4FDC0112968C918287F2
:101900002F5FF0CF6AE0610F44E650E08EED95E086
:101910000E94190A8823C9F14CE065E674E08EED57
:1019200095E00E94EC0880916C0481112EC080E447
:101930008093650481E08093660490E3909367044C
:101940008093680444E650E064E08EED95E00E94E8
:10195000190A8823F9F04AE165E674E08EED95E016
:101960000E94EC0880916C04811114C080E1EDE6C6
:10197000F4E0DE01119601900D928A95E1F78981DC
:1019800081110BC082E991E002C08AE791E00E94D8
:10199000D4096DCF86E891E0FACFCE0101960E947E
:1019A000D409BE016F5F7F4F8EE191E00E9409175D
:1019B000892B09F469CF82EB91E00E94D4098091D0
:1019C000BF0581608093BF050E94B40480E06D96DE
:1019D0000FB6F894DEBF0FBECDBFDF91CF911F9140
:1019E000FF90EF90DF90CF9008951F920F920FB667
:1019F0000F9211242F933F934F935F936F937F9395
:101A00008F939F93AF93BF93EF93FF938091B90010
:101A1000887F803609F44AC0F0F5883209F4A7C0FF
:101A200018F5803109F49BC0B8F4882309F4F9C093
:101A3000883009F494C0FF91EF91BF91AF919F91CD
:101A40008F917F916F915F914F913F912F910F9067
:101A50000FBE0F901F901895883109F488C080320E
:101A600051F78093E90414C0803409F49DC040F418
:101A70008033B9F38833F9F68093E90485ECB0C07C
:101A8000803509F485C0883509F496C0883499F604
:101A90000E944D0BD0CF883909F48CC038F58837B7
:101AA00029F050F4883611F0803729F683E08093CE
:101AB000EB0410925D0457C0883809F47BC080396C
:101AC00019F0803809F0B7CF80915D04803208F0BA
:101AD00071C0E0915D0481E08E0F80935D04809180
:101AE000BB00F0E0E35CFB4F80833DC0803B39F0FE
:101AF000E0F4803A09F479C0883A09F09CCF84E098
:101B00008093EB0410923C0410923B04E09161043A
:101B1000F0916204099580913B0481110FC081E02E
:101B200080933B0410921B0409C0803C09F4A6CFAB
:101B3000883C09F4A3CF883B09F07DCFE0913C04B9
:101B400081E08E0F80933C04F0E0E55EFB4F8081E6
:101B50008093BB0090913C0480913B0429C080910C
:101B6000C6048093BB0085EC8093BC0064CF909149
:101B7000E8048091E704981758F5E091E80481E0C3
:101B80008E0F8093E804F0E0E953FB4F8081E9CFAA
:101B9000E091E80481E08E0F8093E8048091BB001F
:101BA000F0E0E953FB4F80839091E8048091E704D3
:101BB0009817C8F285E8D8CFE091E80481E08E0F4D
:101BC0008093E8048091BB00F0E0E953FB4F8083F1
:101BD0008091EA0481115CCF81E08093C50484EA9E
:101BE0008093BC001092EB0426CF85EC8093BC0060
:101BF0001092EB0480915D04803230F4E0915D043A
:101C0000F0E0E35CFB4F108260915D0470E0E091D6
:101C10005F04F09160048DE394E0099510925D04F7
:101C20000ACF1092E90434CF1F920F920FB60F9291
:101C300011242F933F938F939F93AF93BF938091E2
:101C4000120490911304A0911404B09115043091E2
:101C5000110423E0230F2D3758F50196A11DB11D66
:101C6000209311048093120490931304A0931404FE
:101C7000B09315048091160490911704A091180454
:101C8000B09119040196A11DB11D80931604909383
:101C90001704A0931804B0931904BF91AF919F91BA
:101CA0008F913F912F910F900FBE0F901F9018951D
:101CB00026E8230F0296A11DB11DD2CF1F920F92CD
:101CC0000FB60F9211242F933F934F935F936F930F
:101CD0007F938F939F93AF93BF93EF93FF9381E293
:101CE00095E00E94B607FF91EF91BF91AF919F9150
:101CF0008F917F916F915F914F913F912F910F90B5
:101D00000FBE0F901F9018951F920F920FB60F9253
:101D100011242F938F939F93EF93FF93E0913105BD
:101D2000F09132058081E0913705F091380582FD10
:101D30001BC0908180913A058F5F8F7320913B0586
:101D4000821741F0E0913A05F0E0EF5DFA4F958F90
:101D500080933A05FF91EF919F918F912F910F9072
:101D60000FBE0F901F9018958081F4CF1F920F9295
:101D70000FB60F9211242F933F934F935F936F935E
:101D80007F938F939F93AF93BF93EF93FF9382E0E3
:101D90000E946008FF91EF91BF91AF919F918F9149
:101DA0007F916F915F914F913F912F910F900FBE57
:101DB0000F901F9018951F920F920FB60F9211243B
:101DC0002F933F934F935F936F937F938F939F9343
:101DD000AF93BF93EF93FF9381E00E946008FF9160
:101DE000EF91BF91AF919F918F917F916F915F9193
:101DF0004F913F912F910F900FBE0F901F9018950C
:101E00001F920F920FB60F9211242F933F934F936F
:101E10005F936F937F938F939F93AF93BF93EF9352
:101E2000FF9380E00E946008FF91EF91BF91AF9116
:101E30009F918F917F916F915F914F913F912F91E2
:101E40000F900FBE0F901F901895EF92FF921F9367
:101E5000CF93DF93E5E1F5E01382128288EE93E001
:101E6000A0E0B0E084839583A683B7832CE231E0C1
:101E700031832083E1E2F5E013821282848395832B
:101E8000A683B7838EE391E09183808385EC90E015
:101E90009587848784EC90E09787868780EC90E034
:101EA000918B808B81EC90E0938B828B82EC90E025
:101EB000958B848B86EC90E0978B868B118E128E9F
:101EC000138E148E67EC71E08EE296E00E948D0B0B
:101ED00066ED71E088E296E00E948D0B61EE71E0A4
:101EE00082E296E00E948D0BECE0F6E081E08083D8
:101EF000118213821282158214822FEF3FEF3783F3
:101F000026831086128611868387148692E0958731
:101F100086871786108A118A128A80E090E0A8E7E7
:101F2000B0E08093080690930906A0930A06B09348
:101F30000B0680E09FEFA0E0B0E080930406909352
:101F40000506A0930606B093070681EFE82E85E00C
:101F5000F82E1FEFF701108311838CE190E00E94AF
:101F60001115EC0188E08B871E871D871C878EEB7F
:101F700095E0998388831B8E82E090E00E94111582
:101F800021E7FC01208311829B838A8380E492E411
:101F9000AFE0B0E08C839D83AE83BF831986188643
:101FA0001A86F701D28BC18B83E1AEEDB5E00190CB
:101FB0000D928A95E1F7EFEBF5E010821182128223
:101FC0001382148215821682178210861186128659
:101FD0001386148615861686108A1786128A118A29
:101FE000148A138A168A158A108E178A128E118EF9
:101FF000148E138E168E158EDF91CF911F91FF9048
:10200000EF900895CF93DF93CDB7DEB72C970FB63F
:10201000F894DEBF0FBECDBF789484B5826084BDD6
:1020200084B5816084BD85B5826085BD85B58160DC
:1020300085BD80916E00816080936E00109281005A
:102040008091810082608093810080918100816015
:1020500080938100809180008160809380008091D6
:10206000B10084608093B1008091B0008160809362
:10207000B00080917A00846080937A0080917A0029
:10208000826080937A0080917A00816080937A00E8
:1020900080917A00806880937A001092C1000E943B
:1020A0003A02E0913105F091320582E08083E091BF
:1020B0002D05F0912E051082E0912F05F09130054D
:1020C00080E1808310923905E0913505F091360565
:1020D00086E08083E0913305F09134058081806152
:1020E0008083E0913305F09134058081886080839E
:1020F000E0913305F0913405808180688083E09120
:102100003305F091340580818F7D808364E670E033
:1021100080E090E00E949C0561E08EE00E947202E7
:102120008EEB90E00E944D0988E990E00E944D09F5
:1021300082E790E00E944D0964E170E080E090E069
:102140000E949C0562EF71E0CE0101960E948D0B0A
:1021500066EF71E0CE0107960E948D0BBE016F5FA6
:102160007F4FCE0107960E94E209CE0107960E949A
:10217000850BCE0101960E94850B62EF71E0CE01C6
:1021800001960E948D0B64E072E0CE0107960E94DA
:102190008D0BBE016F5F7F4FCE0107960E94E20953
:1021A000CE0107960E94850BCE0101960E94850BF9
:1021B00062EF71E0CE0101960E948D0B60E172E04A
:1021C000CE0107960E948D0BBE016F5F7F4FCE013F
:1021D00007960E94E209CE0107960E94850BCE0168
:1021E00001960E94850B8DE192E00E94D40988E15E
:1021F00099E20FB6F894A895809360000FBE909373
:102200006000A8950E9449098AE292E00E94D409E0
:102210000E94490980EF90E00E944D0984EE90E011
:102220000E944D0918E0C12ED12CE12CF12C10E0B8
:1022300001E00093F104C09213051092F204109291
:10224000140581E00E94C40381111DC084E392E063
:102250000E94E0094AE0C701B6010E94590984E4DE
:1022600092E00E94E00940E1C701B6010E945909CD
:1022700089E492E00E94D4091F5F61E070E080E091
:1022800090E00E949C058FEFC81AD80AE80AF80A65
:10229000A8E7CA16D104E104F10459F685E591E0F6
:1022A0000E94D4098BE492E00E94E009612F70E063
:1022B00090E080E04AE00E94590982E592E00E94A5
:1022C000D4098EE592E00E94D409A89589E091E0B6
:1022D0000E9425088FE390E00E94BE098FE380935F
:1022E000C2050E943A028091C0058093C30561E057
:1022F0008091C2050E94CD0410926404809363040F
:10230000811101C0FFCF85E195E00E944F018093CC
:10231000C0052091C10501E010E0C80100900C0447
:1023200002C0880F991F0A94E2F7922F982B90937E
:10233000C1059091BF05809589238093BF050E94B8
:10234000B40400900C0402C0000F111F0A94E2F7BD
:1023500080910A018111F1C18091BF050095082388
:102360000093BF050E94B40487E692E00E94E00952
:102370008DE692E00E94E00960910C0470910D04DA
:10238000072E000C880B990B97FDDBC14AE00E94D9
:10239000590985E792E00E94E00980910A01909135
:1023A0000B010E94BE098DEF90E00E942508A895C0
:1023B000A8950E9449098FE792E00E94D4090091F4
:1023C0000206109103060115110509F4E2C161E04E
:1023D000F80183850E94720261E0D8011B968C91FE
:1023E0000E94EE01F80180819181892B09F4ACC132
:1023F000FFB6F89480910B04811127C0EFE8F1E05B
:102400008491E3EAF1E09491E82FF0E0EE0FFF1FF2
:10241000EF58FE4FA591B491EC91E92321F461E0CE
:102420008AE00E94EE0161E08AE00E9472028CB5AF
:1024300080618CBD8CB580648CBD61E08DE00E94B4
:10244000720261E08BE00E94720280910B048F5F48
:1024500080930B04FFBE81E0D8015B968C9382E0F1
:102460008093650444E650E061E081EF95E00E94CE
:10247000190A82E38093650485E0809366049FEFE8
:102480009093670491E0909368048093690444E614
:1024900050E065E081EF95E00E94190A07E010E046
:1024A000A2E0BA2EB092650444E650E061E081EF0C
:1024B00095E00E94190A81118AC188E591E00E9485
:1024C00025080150110971F780E491E00E94250868
:1024D0008AE892E00E94D409A8950E94490982EAFC
:1024E00092E00E94D40946E0842E41E0942E58E008
:1024F000652E51E0752E0CE016E05524539462E0F1
:10250000462EF401E190F1904F01D301AD90BD90C2
:102510003D016501CC0CDD1CCA0CDB1CC6010E9410
:102520001115009721F4D12CC12CB12CA12CF7014D
:10253000EB57FE4FE491F0E0EE0FFF1FE558FE4F22
:1025400025913491F701E756FE4FE491D8015C9252
:1025500011961C9211971396BC92AE9212971596F3
:10256000DC92CE9214971796FC92EE9216971896DC
:102570001C9218971A969C938E9319971B965C92AF
:102580001B971C964C921C971D961C921D971E968D
:102590005C921E971F961D921D921D921C9252973F
:1025A00054963C932E9353975596EC930E94AD15F9
:1025B000F7FC04C060E08E2D0E947202F801868153
:1025C000978197FD09C061E00E94720260E0D80126
:1025D00016968C910E94EE01F801518260E070E045
:1025E000CB010E94CE050A5E1F4FFAE08F16F1E084
:1025F0009F0609F086CF8CEA92E00E94D409609190
:1026000008067091090680910A0690910B060E94B7
:10261000CE0568EE73E080E090E00E949C0560913A
:1026200004067091050680910606909107060E94A7
:10263000CE0568EE73E080E090E00E949C056FEFAD
:1026400070E080E090E00E94CE0568EE73E080E0EC
:1026500090E00E949C050E94490962EF71E0CE0162
:1026600001960E948D0B65EB72E0CE0107960E94E9
:102670008D0BBE016F5F7F4FCE0107960E94E2096E
:10268000CE0107960E94850BCE0101960E94850B14
:102690000E94490980EC92E00E94D4090E944909F5
:1026A00080E0E82E80E0F82E01E0A89580911004EB
:1026B000882309F405C110920F0410920E040E94A1
:1026C000D60B811124C080910E0490910F040196C5
:1026D00090930F0480930E0404970CF4EAC08EEEDE
:1026E00092E00E94D40960910406709105068091E1
:1026F0000606909107060E94CE05A8951092100438
:102700008091BF0581608093BF050E94B40482ED73
:1027100093E00E94D40964EF71E080E090E00E94B1
:102720009C05E114F10409F4C0CF0E94A20788239C
:1027300009F4BBCF0E940000B8CF8091BF05082BE1
:102740000FCE0E949D0925CE61E084850E94720211
:10275000F80182858B7FD1F460E084850E94EE01D0
:10276000F80185858F3F49F061E00E94720261E0C7
:10277000D8011D968C910E94EE01F80186858F3F4D
:1027800009F469CE60E00E94720265CE61E0848542
:10279000E5CF0E943A0261E08091F2050E94EE01CD
:1027A00060E08091F2050E94EE0160E971E080E056
:1027B00090E00E949C0561E08091F2050E94EE018C
:1027C0006AE070E080E090E00E949C0552CE4CE010
:1027D00065E674E081EF95E00E94EC0846E050E089
:1027E00060E071E085E694E00E94F316892B09F021
:1027F00064CEC0906C04D0906D04DC24CD24DC2425
:10280000F12CE12CFE2CED2CDC2CCC2480916E04E0
:10281000C82AFE2CED2CDC2CCC2480916F04C82A15
:10282000C114D104E104F10409F447CE81E391E03D
:102830000E9425086F2D77278827992740E10E945D
:1028400059090E94490982E291E00E9425086E2DF3
:1028500070E090E080E04AE00E9459096EE281E277
:1028600095E00E94D8076D2D70E090E080E04AE08E
:102870000E9459090E94490994E19093650481E0FE
:1028800080936604909367048093680444E650E064
:1028900064E081EF95E00E94190A882339F048E04E
:1028A00065E674E081EF95E00E94EC0888E992E02B
:1028B00011CE62E370E080E090E00E949C05FFCEC4
:1028C000A8958BE193E00E94D40910E0A8950E949E
:1028D000D60B811126C08CE593E00E94D40910E04C
:1028E00068E873E180E090E00E949C05A8951C30A8
:1028F00068F38DE993E00E94D4090093100480915D
:10290000BF058E7F8093BF050E94B40460910806C6
:102910007091090680910A0690910B060E94CE05DF
:10292000F6CE8EE793E00E94D4091B5FD9CF809149
:102930001506909116060E94AD1580911206909191
:10294000130697FD03C060E00E94720282E296E0E7
:102950000E94850B88E296E00E94850B8EE296E04D
:102960000C94850B2F923F924F925F926F927F92C1
:102970008F929F92AF92BF92CF92DF92EF92FF928F
:102980000F931F93CF93DF93CDB7DEB7CA1BDB0B3B
:102990000FB6F894DEBF0FBECDBF09942A883988E0
:1029A00048885F846E847D848C849B84AA84B984E7
:1029B000C884DF80EE80FD800C811B81AA81B981F3
:1029C000CE0FD11D0FB6F894DEBF0FBECDBFED0107
:1029D0000895A1E21A2EAA1BBB1BFD010DC0AA1F60
:1029E000BB1FEE1FFF1FA217B307E407F50720F078
:1029F000A21BB30BE40BF50B661F771F881F991FF3
:102A00001A9469F760957095809590959B01AC013B
:102A1000BD01CF010895EE0FFF1F0590F491E02D49
:102A200009940F931F93CF93DF938230910510F495
:102A300082E090E0E0913606F091370630E020E049
:102A4000B0E0A0E0309799F42115310509F44AC0AF
:102A5000281B390B24303105D8F58A819B816115FB
:102A6000710589F1FB0193838283FE0111C04081CE
:102A700051810281138148175907E0F0481759071F
:102A800099F4109761F012960C93129713961C9379
:102A90003296CF01DF91CF911F910F91089500934E
:102AA000360610933706F4CF2115310551F0421741
:102AB000530738F0A901DB019A01BD01DF01F801DC
:102AC000C1CFEF01F9CF9093370680933606CDCF73
:102AD000FE01E20FF31F8193919322503109398354
:102AE0002883D7CF2091340630913506232B41F42B
:102AF000209114013091150130933506209334064E
:102B000020911201309113012115310541F42DB7A7
:102B10003EB74091160150911701241B350BE091EF
:102B20003406F0913506E217F307A0F42E1B3F0B95
:102B30002817390778F0AC014E5F5F4F241735072F
:102B400048F04E0F5F1F5093350640933406819333
:102B500091939FCFF0E0E0E09CCFCF93DF9300977D
:102B6000E9F0FC01329713821282A0913606B091EF
:102B70003706ED0130E020E01097A1F4208131818B
:102B8000820F931F2091340630913506281739079C
:102B900009F061C0F0933506E0933406DF91CF91E0
:102BA0000895EA01CE17DF07E8F54A815B819E01AF
:102BB00041155105B1F7E901FB83EA834991599128
:102BC000C40FD51FEC17FD0761F480819181029637
:102BD000840F951FE90199838883828193819B8368
:102BE0008A83F0E0E0E012968D919C911397009714
:102BF000B9F52D913C911197CD010296820F931F4B
:102C000020913406309135062817390739F6309768
:102C100051F51092370610923606B0933506A09300
:102C20003406BCCFD383C28340815181840F951F6A
:102C3000C817D90761F44E5F5F4F88819981480FAB
:102C4000591F518340838A819B81938382832115FD
:102C5000310509F0B0CFF0933706E09336069ECFEA
:102C6000FD01DC01C0CF13821282D7CFB0E0A0E01B
:102C7000ECE3F6E10C94B4148C01009751F4CB0111
:102C80000E9411158C01C801CDB7DEB7E0E10C94AC
:102C9000D014FC01E60FF71F9C0122503109E21706
:102CA000F30708F49DC0D901CD91DC911197C617A7
:102CB000D70798F0C530D10530F3CE0104978617B9
:102CC000970708F3C61BD70B2297C193D1936D9337
:102CD0007C93CF010E94AD15D6CF5B01AC1ABD0A23
:102CE0004C018C0E9D1EA0913606B0913706512CDA
:102CF000412CF12CE12C109731F580913406909104
:102D000035068815990509F05CC04616570608F087
:102D100058C08091120190911301009741F48DB732
:102D20009EB74091160150911701841B950BE8172F
:102D3000F90708F055C0F0933506E0933406F90121
:102D400071836083A0CF8D919C91119712966C90A6
:102D5000129713967C901397A815B90559F56C0135
:102D600042E0C40ED11CCA14DB0420F1AC014A19A4
:102D70005B09DA011296159780F0628273825183A3
:102D80004083D9016D937C93E114F10471F0D70174
:102D90001396FC93EE93129776CF22968C0F9D1F7D
:102DA000F90191838083F301EFCFF0933706E0932D
:102DB000360669CF4816590608F42C017D01D30167
:102DC0009ACFCB010E9411157C01009749F0AE010A
:102DD000B8010E940017C8010E94AD15870153CFAA
:102DE00010E000E050CFFB01DC0104C08D910190A8
:102DF000801921F441505040C8F7881B990B089561
:102E0000FB01DC0102C001900D9241505040D8F707
:102E10000895FB01DC018D91019080190110D9F317
:102E2000990B0895FB01DC0101900D920020E1F760
:102E3000089510E0C2EED0E004C0FE010E940B1520
:0C2E40002196C33ED107C9F7F894FFCFDC
:102E4C000000FF06FAD509001F0001000000FF007A
:102E5C00FF00000038068000FFFFFFFFFFFF414826
:102E6C0000006B006C006D00000000009601690111
:102E7C0062073F0162014F01400100000000D807CA
:102E8C003507650740089607740788070D0A002167
:102E9C0042722C002C446F6E652E00436865636B88
:102EAC00696E672070726573656E636520666F72FC
:102EBC00207265616465723A200041757468206601
:102ECC0061696C65640072656164206661696C653A
:102EDC0064007265616420656D707479206461743E
:102EEC0061626C6F636B202D3E20696E76616C693C
:102EFC006400436F72726563742063617264207046
:102F0C006C616365642100454E545F535F425245CA
:102F1C00414B4F55540033312E30332E3230323238
:102F2C000076657273696F6E20312E312E3120530D
:102F3C00540053595300216865616465725F626582
:102F4C0067696E00216865616465725F656E640017
:102F5C002173657475705F626567696E00574454C0
:102F6C0020656E6461626C6564004932433A202EC0
:102F7C002E2E2000466F756E64206164647265733A
:102F8C00733A200020283078002900466F756E6453
:102F9C002000206465766963652873292E00493208
:102FAC00433A204F4B210020202020200052656CFA
:102FBC006179205B005D2073657420746F20005272
:102FCC004649443A202E2E2E2000524649443A209F
:102FDC004641494C45442100524649443A204F4B06
:102FEC0021004C45443A202E2E2E20004C45443ACC
:102FFC00204F4B21002173657475705F656E640002
:10300C003D3D3D3D3D3D3D3D3D3D3D3D3D3D3D3DE4
:10301C003D3D3D53544152543D3D3D3D3D3D3D3D77
:10302C003D3D3D3D3D3D3D3D3D3D3D3D3D004761D3
:10303C006D6520656E6465642C206861766520730F
:10304C006F6D65206C6967687420616E6420616EB9
:10305C00206F70656E20646F6F7200726F6F6D20E1
:10306C006973206E6F74206C6976652C20776169AA
:10307C0074696E6720666F7220636172642062658A
:10308C00696E672072656D6F76656420746F206160
:10309C00726D2074686520726F6F6D00636172646D
:1030AC002070726573656E742C2072657365747410
:1030BC00696D65722073657420746F2030006361D4
:1030CC0072642072656D6F7665642C20696E637214
:1030DC00656173696E672074696D65720047616D17
:1030EC006520676F696E67206C6976652C206B694B
:1030FC006C6C696E67206C696768747320616E64B0
:10310C00206C6F636B696E672074686520646F6FE9
:08311C0072004C6F6F7000009F
:00000001FF
