:100000000C946F030C9497030C9497030C94650E57
:100010000C94400E0C941B0E0C9497030C949703B5
:100020000C9497030C9497030C9497030C949703E8
:100030000C9497030C9497030C9497030C949703D8
:100040000C94790D0C9497030C94E90D0C94C30D4A
:100050000C9497030C9497030C9497030C949703B8
:100060000C948A0E0C949703AEB08180A1A6A83F91
:10007000AD8B32C8D300D580D91FDA12DB40AF0078
:1000800000000023002600290000030C0F30333C41
:100090003FC0C3CCCFF0F3FCFF5363616E6E696E5B
:1000A000672E2E2E000A0A493243207363616E6E5A
:1000B00065723A000A72656C617920696E69742014
:1000C0007375636365737366756C00202E2E2E0A3C
:1000D000000A72656C617920696E6974206F6E2008
:1000E0006164647265737320002073756363657364
:1000F0007366756C000A0A4C454420696E69742069
:100100002E2E2E0000000000240027002A000000F0
:100110000000250028002B00040404040404040447
:1001200002020202020203030303030301020408A2
:100130001020408001020408102001020408102051
:100140000000000800020100000304070000000096
:10015000000000005375636365737366756C001C63
:10016000620A0C206002020508070D08020404055B
:100170000702040206070607070707070707070223
:1001800002070707050A0707070806060808040606
:100190000707090809070908070808070C070806E0
:1001A00004060408090306060606060506060204F8
:1001B00007020A0606060605050506060A060605DE
:1001C0000602060809000000007E7E3030070700A6
:1001D00007070000000000C0D8F8DED8F8DE1800DD
:1001E00030000030000000387C64FF64E4C8102058
:1001F00020F02030103C7E427E3CC02018E6F010FB
:10020000F0E000000000300000001030203010DC72
:10021000FE227EDC8060201030202020103020075D
:10022000070000F8FE07011070E0800107FEF8806B
:10023000E07010120C3F0C12000000000020202083
:10024000FC202020000000100000000000F07020C2
:1002500020202000000000000030300080E07C1FE3
:1002600003C0F030000000FCFE020202FEFC103071
:1002700020202030100404FEFE000020203030201A
:1002800020040682C2623E1C203030202020200440
:1002900006222222FEDC10302020203010C0A09840
:1002A00084FEFE8000000000303000001E1E12128E
:1002B000F2E210302020203010F8FC161212F2E08A
:1002C00010302020203010020282E27A1E06002028
:1002D0003010000000DCFE222222FEDC1030202044
:1002E0002030103C7E424242FEFC00202020301094
:1002F00000181830301818F07060609090080804EA
:1003000000000000101020909090909090900000BD
:1003100000000000000408089090606020101000A9
:100320000000000462721E0C0030300000F00CF47B
:10033000FA0AFAFA040CF000302050505050101015
:100340000080F8FE86FEF88030300000003030FE7D
:10035000FE22223EFCC030302020203010F8FC0667
:100360000202020400103020202010FEFE020202D1
:1003700006FCF83030202020301000FEFE22222221
:1003800022303020202020FEFE2222222230300087
:10039000000000F8FC06024242C2C40010302020D7
:1003A000203030FEFE20202020FEFE3030000000F5
:1003B00000303002FEFE022030302000020202FE39
:1003C000FE202020203010FEFE70D88C0602303037
:1003D0000000103020FEFE00000000003030202021
:1003E000202020FE0E3CF0C0300CFEFE300000004D
:1003F0000000003030FE061C38E0C000FE30000077
:100400000000103030F8FC0602020206FCF8001072
:1004100030202020301000FEFE4242427E3C303030
:100420000000000000F8FC0602020206FCF80010C2
:10043000302060E0B09080FEFE2262E2BE1C003000
:10044000300000001030201C3E322262E2C4102036
:100450002020203010020202FEFE020202000000F4
:100460003030000000FEFE00000000FEFE103020D4
:1004700020202030100E7EF080F07E0E0000303004
:100480003000000E7EF080E03E3EE080F07E0E0008
:100490000030300000000030300000068EF870F8A8
:1004A0008E0630300000003030060E18F0F0180EC6
:1004B00006000000303000000002C2F23E0E0230A2
:1004C0003020202020FFFF0101F0F08080031F7CFE
:1004D000E0800000000030F0C00101FFFF8080F0EC
:1004E000F010180C06060C181000000000000000A8
:1004F00000000000000000000000808080808080FC
:10050000808080010302000000C0E82828F8F01075
:100510003020203030FFFF0808F8F0303020203045
:1005200010F0F808080810103020202010F0F8080B
:1005300008FFFF103020203030F0F8484878701065
:10054000302020201008FEFF09090030300000F0A4
:10055000F80808F8F810B0A0A0F070FFFF0808F83D
:10056000F0303000003030FBFB30300008FBFB8007
:1005700080F070FFFF60F09808003030000010300D
:1005800020FFFF3030F8F81008F8F01008F8F030CD
:10059000300000303000003030F8F80808F8F03053
:1005A0003000003030F0F80808F8F010302020302B
:1005B00010F8F80808F8F0F0F020203010F0F808F3
:1005C00008F8F810302020F0F0F8F8101818303043
:1005D000000000307848C888202020301008FEFE37
:1005E00008080010302020F8F80000F8F81030203B
:1005F00020303038F8C0C0F83800103030100078A3
:10060000F880C03838C080F8780030300000000032
:1006100030300018B8E0E0B8183030000030303822
:10062000F8C0C0F8380090F070100008C8E87818DA
:1006300030302020202020FEDF0101000070F080FB
:1006400080FFFFF0F00101DFFE20208080F07000CD
:1006500000E01010204080807000000000000000CA
:1006600000FE02020202020202FE302020202020B0
:100670002020306800178040020A0A4F4C45442071
:10068000696E6974206F6E20416464726573733A99
:10069000203078002B2D2D2D2D2D2D2D2D2D2D2D78
:1006A0002D2D2D2D2D2D2D2D2D2B007C202020208E
:1006B000456C656374726F736361706520202020E0
:1006C0007C002B2D2D2D2D2D2D2D2D2D2D2D2D2D3A
:1006D0002D2D2D2D2D2D2D2B0000A90FFE141124B5
:1006E0001FBECFEFD8E0DEBFCDBF24E0A8EDB2E063
:1006F00001C01D92AA3FB207E1F712E0A0E0B1E00D
:10070000EEEEFEE202C005900D92A83DB107D9F7CA
:1007100013E0CEE6D3E004C02197FE010E947215DB
:10072000CD36D107C9F70E9477110C946A170C9443
:1007300000000895089590E0FC01E05CFE4F2491D4
:10074000FC01E45DFE4F3491FC01E85EFE4FE49154
:10075000EE23C9F0222339F0233001F1A8F421302F
:1007600019F1223029F1F0E0EE0FFF1FE25FFE4F9A
:10077000A591B4918FB7F894EC91611126C0309592
:100780003E233C938FBF08952730A9F02830C9F04D
:10079000243049F7809180008F7D03C080918000D4
:1007A0008F7780938000DFCF84B58F7784BDDBCFD8
:1007B00084B58F7DFBCF8091B0008F778093B000A0
:1007C000D2CF8091B0008F7DF9CF3E2BDACFCF937F
:1007D000DF9390E0FC01E45DFE4F2491885E9E4F24
:1007E000FC0184918823D1F090E0880F991FFC01CF
:1007F000EC5FFE4FA591B491FC01E25FFE4FC59105
:10080000D49161110EC09FB7F8948C91E22FE095BE
:100810008E238C932881E223E8839FBFDF91CF91C1
:1008200008958FB7F894EC91E22BEC938FBFF6CF3D
:100830003FB7F8948091760390917703A091780365
:10084000B091790326B5A89B05C02F3F19F00196FA
:10085000A11DB11D3FBFBA2FA92F982F8827BC011A
:10086000CD01620F711D811D911D42E0660F771F42
:10087000881F991F4A95D1F708958F929F92AF9242
:10088000BF92CF92DF92EF92FF924B015C010E94E8
:1008900018046B017C010E9418046C197D098E09F3
:1008A0009F09683E734081059105A8F321E0821AF3
:1008B0009108A108B10888EEC80E83E0D81EE11C9B
:1008C000F11C81149104A104B10429F7FF90EF9069
:1008D000DF90CF90BF90AF909F908F9008958091C0
:1008E000CF039091D003891B990B0895DB011496D7
:1008F0004D915C9115976D917C91DC01ED91FC918E
:100900000280F381E02D0994AF92BF92CF92DF92E3
:10091000EF92FF920F931F93CF93DF936C017B01B4
:100920008B01040F151FEB015E01AE18BF08C01745
:10093000D10759F06991D601ED91FC910190F081B8
:10094000E02DC6010995892B79F7C501DF91CF917B
:100950001F910F91FF90EF90DF90CF90BF90AF90DD
:100960000895FC01538D448D252F30E0842F90E0B5
:10097000821B930B541710F0CF960895019708959A
:10098000FC01918D828D981761F0A28DAE0FBF2F63
:10099000B11D5D968C91928D9F5F9F73928F90E0B9
:1009A00008958FEF9FEF0895FC01918D828D981728
:1009B00031F0828DE80FF11D858D90E008958FEF65
:1009C0009FEF0895FC01918D228D892F90E0805C2E
:1009D0009F4F821B91098F73992708958DED93E0A6
:1009E0000E94E20421E0892B09F420E0822F08957F
:1009F00080E090E0892B29F00E94EE0481110C9494
:100A000000000895FC01A48DA80FB92FB11DA35AB1
:100A1000BF4F2C91848D90E001968F739927848F1E
:100A2000A689B7892C93A089B1898C918370806441
:100A30008C93938D848D981306C00288F389E02DE2
:100A400080818F7D80830895EF92FF920F931F9393
:100A5000CF93DF93EC0181E0888F9B8D8C8D981371
:100A60001AC0E889F989808185FF15C09FB7F8947D
:100A7000EE89FF896083E889F989808183708064C9
:100A800080839FBF81E090E0DF91CF911F910F9114
:100A9000FF90EF900895F62E0B8D10E00F5F1F4F23
:100AA0000F731127E02E8C8D8E110CC00FB607FC32
:100AB000FACFE889F989808185FFF5CFCE010E94C0
:100AC0000205F1CFEB8DEC0FFD2FF11DE35AFF4F27
:100AD000F0829FB7F8940B8FEA89FB89808180624E
:100AE000CFCFEF92FF920F931F93CF93DF938C01A1
:100AF0007B01D0E0C0E0F701EC0FFD1F649166239D
:100B000039F0C8010E942405892B11F02196F3CFFA
:100B1000CE01DF91CF911F910F91FF90EF9008953B
:100B2000CF93DF93EC01888D8823B9F0AA89BB8924
:100B3000E889F9898C9185FD03C0808186FD0DC00F
:100B40000FB607FCF7CF8C9185FFF2CF808185FF30
:100B5000EDCFCE010E940205E9CFDF91CF9108953C
:100B60003F924F925F926F927F928F929F92AF923D
:100B7000BF92CF92DF92EF92FF920F931F93CF938A
:100B8000DF93CDB7DEB729970FB6F894DEBF0FBE5F
:100B9000CDBF8C01B42E842F952FDB01A62E952E70
:100BA0008B2F9927AA27BB27382E7C01D12CC12C4B
:100BB00038E0832ED80112968D919C911397C81618
:100BC000D90608F00FC13B2D18962C91492D5A2DAE
:100BD000222361F0A29EC0011124592F299DC0013A
:100BE0001124492F2B9DC0011124392FD8011E96A5
:100BF000EC911E9719968D919C911A971B966C916A
:100C0000E613A0C0B601660F771F6C0D7D1D860F21
:100C1000971FD8011B96EC911B97E80FF92FF11D38
:100C200050831C96EC911C97E80FF92FF11D40831F
:100C30001D962C911D97820F911DFC0130831996F2
:100C40008D919C91892B09F479C0D8011F964D9004
:100C50005D906D907C9052970E9418046415750504
:100C60008605970538F40E941804F8016787708B91
:100C7000818B928B0E941804D8011F964D905D9035
:100C80006D907C90529764197509860997096C32AA
:100C9000714081059105C8F2F894F801848195812D
:100CA0009A8389830184F285E02D3F012FEF621A38
:100CB000720A80818987D8019C915396ED91FC91AD
:100CC000549755968C91992309F452C09081982B92
:100CD00098879081809589238F838F818C838B82E5
:100CE00058856F8149853B812C8189819A81D30107
:100CF000508347FD252F3A952083262F39F0441F36
:100D000000C000006083000000C0F2CF38E04D91C9
:100D100060830000019761F7D8015496FC93EE932D
:100D2000539749873B832C839A83898378940E94C5
:100D30001804F8016787708B818B928BFFEFCF1AB5
:100D4000DF0A38CFB601660F771F660F771F860F51
:100D5000971F222359F02E9DB0012F9D700D112455
:100D6000272FE80FF92FF11D208353CF232DF9CF23
:100D70009081982B98879081809589238F838F818C
:100D80008E838D8258856F8149853D812E81898131
:100D90009A81D301508347FD252F00C000C02083D6
:100DA00000C000C000C000C000C060830000262F4B
:100DB0003A9541F0441F000000C000C000C000C0D0
:100DC00000C0E8CF38E04D9100C0608300C00197BB
:100DD00009F7D8015496FC93EE93539749873D83C6
:100DE0002E83A2CF6AE070E080E090E029960FB6F3
:100DF000F894DEBF0FBECDBFDF91CF911F910F9151
:100E0000FF90EF90DF90CF90BF90AF909F908F902A
:100E10007F906F905F904F903F900C943D04CF93E4
:100E2000DF93EC019C818E81981758F4E881F98159
:100E30000084F185E02D42E0CE0109958C818F5F21
:100E40008C83DF91CF910895DC01ED91FC910084BA
:100E5000F185E02D40E009940F931F93CF938C010F
:100E6000FC016483C085C60F6C2F6F700E9424073D
:100E70006C2F62956F706061C801CF911F910F91C7
:100E80000C942407FC012781269526952695621748
:100E900020F46583606B0C94240708951F93CF930F
:100EA000DF93EC01142F8E81681718F4CE010E9495
:100EB0002C07612FCE01DF91CF911F910C94420737
:100EC000CF92DF92EF92FF920F931F93CF93DF9316
:100ED000EC01162FC42ED22E8F818695869586958D
:100EE000081710F00FEF080FFD2C0F15B0F08E81D2
:100EF000181720F4612FCE010E942C076F2DCE0110
:100F00000E944207E12ECE1430F060E0CE010E9434
:100F10000F07E394F8CFF394E8CF4D2D612FCE0166
:100F2000DF91CF911F910F91FF90EF90DF90CF90C5
:100F30000C944E072F923F924F925F926F927F9246
:100F40008F929F92AF92BF92CF92DF92EF92FF92D9
:100F50000F931F93CF93DF9300D000D01F92CDB794
:100F6000DEB7DC011B960D911C910115110509F4EA
:100F700068C19D838C83F8014491319654913196D8
:100F8000649031962491E22EF12CF7E0EF0EF11CE3
:100F900073E0F594E7947A95E1F7E982F8013496E5
:100FA00034913196E491631748F08E2F90E0FC0164
:100FB000E30FF11D6E171F060CF487C06D3031F57D
:100FC000AC81BD8116968C9181111AC081E090E0B0
:100FD0000F900F900F900F900F90DF91CF911F9176
:100FE0000F91FF90EF90DF90CF90BF90AF909F90C8
:100FF0008F907F906F905F904F903F902F900895CB
:1010000060E08C819D810E942C07E0CF6A3009F05E
:1010100018C1EC81FD818185D5808E9DD00C112475
:101020008781869586958695D81630F082858823A7
:1010300019F082E08287D12C4D2D60E08C819D815A
:101040000E944E07AC81BD811A968C911A9782300E
:1010500008F4BCCF15962C9115971B96ED91FC9139
:101060001C9700E0309739F03396E49119960C9173
:10107000E09F002D112410E0095F1F4F33E015950C
:1010800007953A95E1F78FEF820F080FEC81FD810C
:10109000468141506481CF010E946007AC81BD81CF
:1010A00019968C9119976D2D8E9D600D1124660FE8
:1010B000660F660F17968C91861708F460E06064DF
:1010C0008C819D810E94240781CF45275427452785
:1010D0000A5F1F4F631BEC81FD8121844230510563
:1010E00008F06DC0452B09F0212C6E9CC0016F9C4F
:1010F000900D1124689FF001699FF00D11240E0FCF
:101100001F1F512CAC81BD811496BC91BA83EC8118
:10111000FD81F581FB83862C912CAA24A394B12C0C
:10112000312C8981381608F086C0412CAC81BD81F4
:1011300019968C91481608F077C0311002C04420EF
:1011400041F0EC81FD8145814F5F6A81CF010E94B2
:101150004E07D12CC12CC61408F05AC0F801EC0D72
:10116000FD1D7490552061F0EA14FB0449F4E72D4D
:10117000F0E0052C02C0F595E7950A94E2F77E2E83
:10118000AC81BD8119968C91823081F4442009F4A0
:101190003BC072948FE07822E72DF0E0E757FF4FD5
:1011A0007490672D8C819D810E940F07672D8C8123
:1011B0009D810E940F07EFEFCE1ADE0ACCCF277079
:1011C00038E0532E521A211101C0512C50E040E05A
:1011D00030E020E0F801461740F4E40FF51FE491F9
:1011E0002E0F311D4F5F5F4FF5CFE60FF11D64905D
:1011F000E29EF001E39EF00DF29EF00D11248E0FA1
:101200009F1F080F191F7ECFB72DBF707B2EC4CF35
:10121000D12C2D1439F060E08C819D810E940F0744
:10122000D394F7CF439482CF3394080D191DFFEF69
:10123000AF1ABF0A76CF6B818C819D810E944207D5
:10124000C5CE90E080E0C4CE0F93CF93DF93EC0146
:101250000F8106950695069501504E81415020E07C
:1012600060E00E94600781E09A85911101C080E0F2
:101270008A8760E4CE01DF91CF910F910C9424070F
:1012800090E0FC01EE0FFF1FED57FF4FA591B491C9
:101290002C91FC01E45BFC4F30812083880F991F67
:1012A000FC01E45FFE4F0190F081E02D8081089504
:1012B0002091F902260F3327331F21323105ECF438
:1012C0002091A003FC0190E080E0243069F082E0EE
:1012D0000895A091F9022191AC0147525D4FA40FEE
:1012E000B52FB11D2C930196861798F38091F902C2
:1012F000680F6093F90280E0089581E008951092EC
:10130000A00381E080939F0310927A0361E082E161
:101310000E949B0361E083E10E949B03E9EBF0E004
:1013200080818E7F808380818D7F808388E480931D
:10133000B80085E48093BC000895CF93DF9391E0DB
:101340009093D8028823B9F0C091B800D091BA0028
:101350008091BC008A7B8093BC0060E082E10E94A7
:101360009B0360E083E10E949B030E947F09D0936E
:10137000BA00C093B800DF91CF9108958F929F92E9
:10138000AF92BF92CF92DF92EF92FF920F931F9393
:10139000CF93DF93D091CD03D13208F0D7C0182F6F
:1013A000C091C7030E9418046B017C018091A003C7
:1013B00081116BC082E08093A00310939F038FEF95
:1013C00080939E0310929D03D0939C03A7EAB3E001
:1013D000ECE7F3E080E0D81391C010927B0380919A
:1013E0007B03CC0FC82BC0937B0380917A038130A1
:1013F00009F088C010927A030E9418046B017C01E6
:1014000080917B038093BB008091A2039091A30302
:10141000A091A403B091A503892B8A2B8B2BA1F05B
:101420000E9418040091A2031091A3032091A40329
:101430003091A5036C197D098E099F0906171707BE
:101440002807390708F442C08091BC0083FDD8CF3B
:1014500085EC8093BC000E9418046B017C01809194
:10146000A003823009F450C080919E038F3F09F49D
:101470006FC080919E03803209F46CC080919E03FE
:10148000803309F469C084E026C08091A203909162
:10149000A303A091A403B091A503892B8A2B8B2BC6
:1014A00009F484CF0E9418048090A2039090A303B3
:1014B000A090A403B090A5036C197D098E099F0923
:1014C00086169706A806B90608F070CF8091A1038A
:1014D0000E949D0985E01092CE031092CD031092D8
:1014E000A603DF91CF911F910F91FF90EF90DF90B6
:1014F000CF90BF90AF909F908F9008959D919193C2
:101500008F5F69CF85EEA5CF8091A2039091A30351
:10151000A091A403B091A503892B8A2B8B2B09F4EE
:101520009ECF0E9418040091A2031091A303209162
:10153000A4033091A5036C197D098E099F09061734
:1015400017072807390708F08ACFC0CF81E0C3CF3B
:1015500080E0C1CF82E0BFCF83E0BDCF0895E091AE
:10156000D0038091CF03E81730F4F0E0E15BFC4F4B
:10157000808190E008958FEF9FEF08959091D003C0
:101580008091CF032FEF3FEF981748F4E92FF0E059
:10159000E15BFC4F208130E09F5F9093D003C90155
:1015A0000895CF92DF92EF92FF920F931F93CF9304
:1015B000DF937C01CB018A012091A603222389F0CD
:1015C000EB016B01C40ED51ECC15DD0569F06991E8
:1015D000D701ED91FC910190F081E02DC7010995B3
:1015E000F3CF642F0E945809C801DF91CF911F915A
:1015F0000F91FF90EF90DF90CF900895CF93DF93FE
:101600001F92CDB7DEB769832091A6032223F9F09C
:101610002091CD03203258F021E030E0FC013383EB
:10162000228390E080E00F90DF91CF910895809128
:10163000CE03E82FF0E0E955FC4F998190838F5F4E
:101640008093CE038093CD0381E090E0ECCF61E006
:10165000CE0101960E945809F7CFEAE7F4E09181A4
:1016600062818081238131E03093A6032093C703F8
:101670001092CE031092CD0360956923682B81ED03
:1016800093E00E94FE0A81E00C94BE090F931F9321
:10169000CF93DF93EC01062F142F8E85813120F438
:1016A000882331F0411104C081E00E94BE091E86EA
:1016B0008E85811112C08D8591E09093A603809351
:1016C000C7031092CE031092CD0360E4111101C044
:1016D00060E081ED93E00E94FE0A602F81ED93E0CF
:1016E0000E94FE0A123041F48E858F5F8E87DF9153
:1016F000CF911F910F91089581E00E94BE091E862F
:10170000F6CF089590E080E00895FC0180819181FA
:10171000009711F00C9414160895FB01019000201D
:10172000E9F73197AF01461B570BDC01ED91FC91B6
:101730000280F381E02D09948F929F92AF92BF9225
:10174000EF92FF920F931F93CF93DF93CDB7DEB746
:10175000A1970FB6F894DEBF0FBECDBF7C01FA0192
:10176000CB0119A2223008F42AE08E010F5D1F4F31
:10177000822E912CB12CA12CBF01A50194010E94B5
:101780005015F901CA016A300CF5605DD8016E93FD
:101790008D01232B242B252B79F790E080E01097E7
:1017A00021F0BD01C7010E948D0BA1960FB6F894E0
:1017B000DEBF0FBECDBFDF91CF911F910F91FF9084
:1017C000EF90BF90AF909F908F900895695CDECFAF
:1017D000CF92DF92EF92FF920F931F93CF93DF93FD
:1017E000EC016A017B016DE20E9424058C01442713
:1017F0005527BA014C195D096E097F092AE0CE010F
:101800000E949C0B800F911FDF91CF911F910F9130
:10181000FF90EF90DF90CF90089564E471E00C9416
:101820008D0BCF93DF93EC01BC0185ED94E00E941A
:10183000760485ED94E00E940D0CBE018DED93E0E1
:101840000E9476048DED93E0DF91CF910C940D0C06
:101850000F931F93CF93DF93EC010E948D0B8C01AC
:10186000CE010E940D0C800F911FDF91CF911F912F
:101870000F9108950F931F93CF93DF93EC010E9474
:1018800071058C01CE010E940D0C800F911FDF911C
:10189000CF911F910F910895CF92DF92FF920F93F6
:1018A0001F93CF93DF93EC0169E776E08DED93E032
:1018B0000E94710520E14CE350E060E070E08DEDA6
:1018C00093E00E949C0B8DED93E00E940D0C6AE06A
:1018D00070E080E090E00E943D041E868CE38D87DE
:1018E0001C821D82E3E7F6E0C590D490E5E7F6E0C0
:1018F000F490E6E7F6E0E491EE83E7E7F6E0E491C2
:10190000EF83E8E7F6E0E491E88710E000E00F15E8
:1019100050F4F601E00FF11F6491CE010E942407FC
:101920000F5F1F4FF4CF1A86CE010E9424098F81CA
:10193000803429F4CE010E94240981E08A878FE552
:1019400091E09C878B87CE010E94240967E471E0B7
:10195000CE010E94280C64E571E08DED93E00E94B9
:101960003A0C6AE070E080E090E00E943D0481E083
:10197000DF91CF911F910F91FF90DF90CF9008954D
:101980000F931F93CF93DF93EC018B0161E08EE007
:101990000E949B038DED93E00E940D0C6BE571E0BE
:1019A0008DED93E00E948D0BB8018DED93E00E94C8
:1019B00076046EE571E08DED93E00E948D0BBE0123
:1019C0008DED93E00E94760460E671E08DED93E08A
:1019D0000E94280C62E370E080E090E00E943D04E9
:1019E00060E08EE0DF91CF911F910F910C949B03EB
:1019F000EF92FF920F931F93CF93DF93EC017B0144
:101A0000198218821B821A821D821C82FB0101909E
:101A10000020E9F731978F01061B170BB8016F5FA4
:101A20007F4F90E080E00E949D160097B9F0998367
:101A300088831B830A832C813D81232B11F4FC01B5
:101A400010821D830C83B70188819981DF91CF912A
:101A50001F910F91FF90EF900C94631788819981EB
:101A6000009711F00E941416198218821D821C82A0
:101A70001B821A82DF91CF911F910F91FF90EF90FF
:101A8000089585ED8093BC008091A2039091A303FB
:101A9000A091A403B091A5030796A11DB11D23E059
:101AA000B695A795979587952A95D1F72091BC0073
:101AB00024FD03C01092A00308954091A203509109
:101AC000A3036091A4037091A503452B462B472BDC
:101AD00069F30097A105B10541F025E32A95F1F7D7
:101AE00000000197A109B109E1CF8091A1030C94F5
:101AF0009D091F920F920FB60F9211242F933F93BF
:101B00008F939F93AF93BF938091720390917303D0
:101B1000A0917403B09175033091710323E0230FFA
:101B20002D3758F50196A11DB11D209371038093A7
:101B3000720390937303A0937403B0937503809121
:101B4000760390917703A0917803B0917903019681
:101B5000A11DB11D8093760390937703A093780322
:101B6000B0937903BF91AF919F918F913F912F9146
:101B70000F900FBE0F901F90189526E8230F029626
:101B8000A11DB11DD2CF1F920F920FB60F9211243B
:101B90002F933F934F935F936F937F938F939F9375
:101BA000AF93BF93EF93FF938DED93E00E940205F7
:101BB000FF91EF91BF91AF919F918F917F916F9125
:101BC0005F914F913F912F910F900FBE0F901F90FB
:101BD00018951F920F920FB60F9211242F938F9387
:101BE0009F93EF93FF93E091ED03F091EE038081DB
:101BF000E091F303F091F40382FD1BC0908180918A
:101C0000F6038F5F8F732091F703821741F0E09105
:101C1000F603F0E0E352FC4F958F8093F603FF91BB
:101C2000EF919F918F912F910F900FBE0F901F906A
:101C300018958081F4CF1F920F920FB60F92112446
:101C40002F933F934F935F936F937F938F939F93C4
:101C5000AF93BF93EF93FF9382E00E944009FF91FF
:101C6000EF91BF91AF919F918F917F916F915F9114
:101C70004F913F912F910F900FBE0F901F9018958D
:101C80001F920F920FB60F9211242F933F934F93F1
:101C90005F936F937F938F939F93AF93BF93EF93D4
:101CA000FF9381E00E944009FF91EF91BF91AF91B6
:101CB0009F918F917F916F915F914F913F912F9164
:101CC0000F900FBE0F901F9018951F920F920FB696
:101CD0000F9211242F933F934F935F936F937F93B2
:101CE0008F939F93AF93BF93EF93FF9380E00E94F6
:101CF0004009FF91EF91BF91AF919F918F917F919B
:101D00006F915F914F913F912F910F900FBE0F9068
:101D10001F9018951F920F920FB60F9211242F93B8
:101D20003F934F935F936F937F938F939F93AF9363
:101D3000BF93EF93FF938091B900887F803609F4B9
:101D40004AC0F0F5883209F4A7C018F5803109F4CB
:101D50009BC0B8F4882309F4F9C0883009F494C012
:101D6000FF91EF91BF91AF919F918F917F916F9173
:101D70005F914F913F912F910F900FBE0F901F9049
:101D80001895883109F488C0803251F780939E03FA
:101D900014C0803409F49DC040F48033B9F3883313
:101DA000F9F680939E0385ECB0C0803509F485C0B8
:101DB000883509F496C0883499F60E94410DD0CF39
:101DC000883909F48CC038F5883729F050F4883602
:101DD00011F0803729F683E08093A00310921B0353
:101DE00057C0883809F47BC0803919F0803809F071
:101DF000B7CF80911B03803208F071C0E0911B03C4
:101E000081E08E0F80931B038091BB00F0E0E550D2
:101E1000FD4F80833DC0803B39F0E0F4803A09F407
:101E200079C0883A09F09CCF84E08093A003109297
:101E3000FA021092F902E091C903F091CA030995E0
:101E40008091F90281110FC081E08093F902109214
:101E5000D90209C0803C09F4A6CF883C09F4A3CF7D
:101E6000883B09F07DCFE091FA0281E08E0F8093EC
:101E7000FA02F0E0E752FD4F80818093BB00909121
:101E8000FA028091F90229C080917B038093BB0004
:101E900085EC8093BC0064CF90919D0380919C035E
:101EA000981758F5E0919D0381E08E0F80939D0374
:101EB000F0E0E458FC4F8081E9CFE0919D0381E0A0
:101EC0008E0F80939D038091BB00F0E0E458FC4F9F
:101ED000808390919D0380919C039817C8F285E8B8
:101EE000D8CFE0919D0381E08E0F80939D03809178
:101EF000BB00F0E0E458FC4F808380919F03811188
:101F00005CCF81E080937A0384EA8093BC001092D6
:101F1000A00326CF85EC8093BC001092A003809193
:101F20001B03803230F4E0911B03F0E0E550FD4FDD
:101F3000108260911B0370E0E091CB03F091CC0321
:101F40008BEF92E0099510921B030ACF10929E032B
:101F500034CFCF92DF92EF92FF920F931F93CF93E4
:101F6000DF93CDB7DEB72C970FB6F894DEBF0FBE68
:101F7000CDBF0DED13E0D80113961C921E9212975F
:101F800088EE93E0A0E0B0E0F80184839583A68317
:101F9000B78326E131E03183208325EC30E03587BB
:101FA000248724EC30E03787268720EC30E0318B23
:101FB000208B21EC30E0338B228B22EC30E0358B10
:101FC000248B26EC30E0378B268B118E128E138EED
:101FD000148EE1EDF3E01382128284839583A6834D
:101FE000B78388E291E09183808367E671E080EFB8
:101FF00094E00E94F80C61E771E08AEE94E00E94A0
:10200000F80C67E771E084EE94E00E94F80CE5EDCF
:10201000F4E013821282FF24F394F186148613866F
:102020008AE3C82E81E0D82ED182C0821092D003DC
:102030001092CF031092CE031092CD030E947F091D
:1020400089E993E09093CA038093C9038AE993E0F6
:102050009093CC038093CB0388E48093B800D8019D
:102060005096ED91FC91519792E0E92EE0821C96FA
:10207000ED91FC911D9710821E96ED91FC911F979A
:1020800080E1808358961C9258975496ED91FC916C
:10209000559786E080835296ED91FC91539780810D
:1020A000806180835296ED91FC9153978081886086
:1020B00080835296ED91FC91539780818068808354
:1020C0005296ED91FC9180818F7D808364E670E073
:1020D00080E090E00E943D0461E08EE00E94E70312
:1020E00062EC76E0C8010E943A0C6BEA76E0C80127
:1020F0000E943A0C64E976E0C8010E943A0C64E15F
:1021000070E080E090E00E943D0467E871E0CE015D
:1021100001960E94F80C6BE871E0CE0107960E94D0
:10212000F80CBE016F5F7F4FCE0107960E94C00C76
:10213000CE0107960E94850BCE0101960E94850B69
:1021400067E871E0CE0101960E94F80C69E971E040
:10215000CE0107960E94F80CBE016F5F7F4FCE0143
:1021600007960E94C00CCE0107960E94850BCE01F7
:1021700001960E94850B67E871E0CE0101960E94EE
:10218000F80C65EA71E0CE0107960E94F80CBE01DA
:102190006F5F7F4FCE0107960E94C00CCE0107965D
:1021A0000E94850BCE0101960E94850B85ED94E07F
:1021B0000E944C0CE6ECF4E013821282F186148645
:1021C0001386D182C082E0EBF4E0F08211821382A8
:1021D0001282158214828FEF9FEF97838683108679
:1021E00012861186F3861486E586F6861786108A8F
:1021F000118A128A80E090E0A8E7B0E08093AC04F6
:102200009093AD04A093AE04B093AF0429E9C22E1D
:1022100024E0D22EFF24FA94F601F082F1828CE1C0
:1022200090E00E9478158C0188E0D8011B968C9371
:102230001B971E96FC921E971D96FC921D971C964E
:10224000FC921C9788EC93E011969C938E935B967E
:102250001C9282E090E00E94781521E7FC01208327
:102260001182D80113969C938E93129780E492E486
:10227000AFE0B0E0F80184839583A683B78311862D
:1022800010861286D60152961C930E935197EAE758
:10229000F4E0108211821282138214821582168257
:1022A0001782108611861286138614861586168666
:1022B000108A1786128A118A148A138A168A158A36
:1022C000108E178A128E118E148E138E168E158E06
:1022D0002C960FB6F894DEBF0FBECDBFDF91CF9125
:1022E0001F910F91FF90EF90DF90CF900895CF93C3
:1022F000DF93CDB7DEB72C970FB6F894DEBF0FBED5
:10230000CDBF789484B5826084BD84B5816084BD7E
:1023100085B5826085BD85B5816085BD80916E0083
:10232000816080936E0010928100809181008260B4
:1023300080938100809181008160809381008091F1
:1023400080008160809380008091B10084608093E0
:10235000B1008091B00081608093B00080917A00DC
:10236000846080937A0080917A00826080937A0002
:1023700080917A00816080937A0080917A008068F1
:1023800080937A001092C10062EB71E0CE01019659
:102390000E94F80CCE0101960E94110CCE0101960C
:1023A0000E94850B67EB71E08DED93E00E94280C95
:1023B00088E199E20FB6F894A895809360000FBE6B
:1023C00090936000A89565EA70E08DED93E00E941F
:1023D0003A0C69E970E08DED93E00E943A0C6AE0F6
:1023E00070E080E090E00E943D04E8E0CE2ED12C29
:1023F000E12CF12C00E0BB24B3941C2DB092A60379
:10240000C092C7031092CE031092CD0381E00E94C8
:10241000BE0981113DC064EC71E08DED93E00E9436
:102420008D0B64ED71E08DED93E00E948D0B20E14A
:10243000B701A6018DED93E00E949C0B69ED71E060
:102440008DED93E00E948D0B1C3358F46EEE71E01D
:10245000193398F46DED71E0183379F063E172E0AF
:102460000CC068E072E01D3341F068EF71E01D338D
:1024700020F06DE072E01F3389F78DED93E00E944C
:10248000280C0F5F61E070E080E090E00E943D0466
:102490008FEFC81AD80AE80AF80AA8E7CA16D104C2
:1024A000E104F10409F0A9CF61E671E08DED93E05C
:1024B0000E94280C6BE172E08DED93E00E948D0B81
:1024C000402F50E070E060E02AE08DED93E00E9444
:1024D0009C0B62E272E08DED93E00E94280C6AE0B2
:1024E00070E080E090E00E943D04A89586EC94E0C6
:1024F0000E944C0CA89561ED70E08DED93E00E9478
:1025000071052AE04FE350E060E070E08DED93E06C
:102510000E949C0B6BEC70E08DED93E00E947105C6
:102520008FE380937D041092D0031092CF0310921A
:10253000CE031092CD030E947F0989E993E0909326
:10254000CA038093C9038AE993E09093CC038093F4
:10255000CB0380917B0480937E0410917D040E94C4
:1025600018046B017C018091A003811164C081E09B
:102570008093A00380939F039FEF90939E031092FC
:102580009D0310929C0380937B0380917B03110F2A
:10259000182B10937B0380917A03813009F078C067
:1025A00010927A030E9418046B017C0180917B03D6
:1025B0008093BB008091A2039091A303A091A403F8
:1025C000B091A503892B8A2B8B2BA1F00E941804B4
:1025D0000091A2031091A3032091A4033091A503BD
:1025E0006C197D098E099F090617170728073907F7
:1025F00008F442C08091BC0083FDD8CF85EC809365
:10260000BC000E9418046B017C018091A003813002
:1026100009F440C080919D0381115EC080919D03AB
:10262000ECE7F3E0AFE4B3E090E0981751F12191CB
:102630002D939F5FFACF8091A2039091A303A09165
:10264000A403B091A503892B8A2B8B2B09F48BCF84
:102650000E9418048090A2039090A303A090A4036A
:10266000B090A5036C197D098E099F0986169706FF
:10267000A806B90608F077CF8091A1030E949D09B2
:1026800080E01092D0038093CF03811127C0FFCF49
:1026900085EEB5CF8091A2039091A303A091A403EE
:1026A000B091A503892B8A2B8B2B09F4AECF0E9406
:1026B00018040091A2031091A3032091A403309168
:1026C000A5036C197D098E099F09061717072807AE
:1026D000390708F09ACFD0CF81E0A2CF81ED93E007
:1026E0000E94BE0A80937B0420917C0401E010E0EC
:1026F000C80100906F0302C0880F991F0A94E2F787
:10270000922F982B90937C0490917A048095892342
:1027100080937A040E942D0B00906F0302C0000F7B
:10272000111F0A94E2F780910401811159C180912F
:102730007A040095082300937A040E942D0B6EE220
:1027400072E08DED93E00E948D0B64E372E08DEDFD
:1027500093E00E948D0B40916F0350917003052E02
:10276000000C660B770B77FD3FC12AE08DED93E0FF
:102770000E949C0B6CE372E08DED93E00E948D0B48
:102780004091040150910501052E000C660B770B5A
:1027900077FD2FC12AE08DED93E00E949C0B8DED1B
:1027A00093E00E940D0C64EB70E08DED93E00E94CD
:1027B0003A0CA89565EF70E08DED93E00E947105ED
:1027C0006AE070E080E090E00E943D0440E0842EEA
:1027D00041E0942E52E0652E51E0752E00EB14E09E
:1027E00064E0462E61E0562E3324339472E0272EA7
:1027F000F401E190F1904F01D301AD90BD903D0106
:102800006501CC0CDD1CCA0CDB1CC6010E947815CE
:10281000009721F4D12CC12CB12CA12CF701E85E3A
:10282000FE4FE491F0E0EE0FFF1FE25FFE4F2591B7
:102830003491F701E45DFE4FE491D8013C9211968A
:102840001C9211971396BC92AE9212971596DC9239
:10285000CE9214971796FC92EE92169718961C92A9
:1028600018971A969C938E9319971B963C921B97D8
:102870001C962C921C971D961C921D971E963C929E
:102880001E971F961D921D921D921C925297549650
:102890003C932E9353975596EC930E941416F7FC95
:1028A00004C060E08E2D0E94E703F80186819781C5
:1028B00097FD09C061E00E94E70360E0D801169629
:1028C0008C910E949B03F801318240E050E0BA01F4
:1028D00080EB94E00E94B00540E050E0BA0186EC45
:1028E00094E00E94B0050A5E1F4F4814590409F095
:1028F0007FCF68E270E080E090E00E943D0469EEE6
:1029000070E08DED93E00E943A0C6AE070E080E0A8
:1029100090E00E943D048DED93E00E940D0C67E86D
:1029200071E0CE0101960E94F80C66E472E0CE01DF
:1029300007960E94F80CBE016F5F7F4FCE0107968D
:102940000E94C00CCE0107960E94850BCE01019615
:102950000E94850B8DED93E00E940D0C61E572E005
:102960008DED93E00E94280C8DED93E00E940D0CFC
:102970006FE772E08DED93E00E94280C86EC94E006
:102980000E94240964EB72E086EC94E00E94280C1B
:1029900080917A048E7F80937A040E942D0BC090E0
:1029A000AC04D090AD04E090AE04F090AF04B70159
:1029B000A60180EB94E00E94B005B701A60186EC69
:1029C00094E00E94B00500E010E0A8950115110503
:1029D000E1F30E94EE048823C1F30E940000F5CFCA
:1029E00080917A04082BA7CE8DED93E00E94E80B2E
:1029F000C1CE8DED93E00E94E80BD1CE8091B90459
:102A00009091BA040E9414168091B6049091B70474
:102A100097FD03C060E00E94E70384EE94E00E940B
:102A2000850B8AEE94E00E94850B80EF94E00C9475
:102A3000850B2F923F924F925F926F927F928F926F
:102A40009F92AF92BF92CF92DF92EF92FF920F933D
:102A50001F93CF93DF93CDB7DEB7CA1BDB0B0FB647
:102A6000F894DEBF0FBECDBF09942A883988488804
:102A70005F846E847D848C849B84AA84B984C8849A
:102A8000DF80EE80FD800C811B81AA81B981CE0F91
:102A9000D11D0FB6F894DEBF0FBECDBFED01089576
:102AA000A1E21A2EAA1BBB1BFD010DC0AA1FBB1F52
:102AB000EE1FFF1FA217B307E407F50720F0A21BC4
:102AC000B30BE40BF50B661F771F881F991F1A9431
:102AD00069F760957095809590959B01AC01BD015B
:102AE000CF010895EE0FFF1F0590F491E02D09949A
:102AF0000F931F93CF93DF938230910510F482E000
:102B000090E0E091F804F091F90430E020E0B0E0CA
:102B1000A0E0309799F42115310509F44AC0281B2B
:102B2000390B24303105D8F58A819B8161157105F7
:102B300089F1FB0193838283FE0111C040815181A1
:102B40000281138148175907E0F04817590799F493
:102B5000109761F012960C93129713961C9332966D
:102B6000CF01DF91CF911F910F9108950093F80449
:102B70001093F904F4CF2115310551F04217530792
:102B800038F0A901DB019A01BD01DF01F801C1CFD5
:102B9000EF01F9CF9093F9048093F804CDCFFE01B3
:102BA000E20FF31F819391932250310939832883D7
:102BB000D7CF2091F6043091F704232B41F42091D4
:102BC0000801309109013093F7042093F604209115
:102BD0000601309107012115310541F42DB73EB7AB
:102BE00040910A0150910B01241B350BE091F60432
:102BF000F091F704E217F307A0F42E1B3F0B281700
:102C0000390778F0AC014E5F5F4F2417350748F065
:102C10004E0F5F1F5093F7044093F60481939193F6
:102C20009FCFF0E0E0E09CCFCF93DF930097E9F0F7
:102C3000FC01329713821282A091F804B091F9043A
:102C4000ED0130E020E01097A1F420813181820F66
:102C5000931F2091F6043091F7042817390709F0E3
:102C600061C0F093F704E093F604DF91CF910895EB
:102C7000EA01CE17DF07E8F54A815B819E01411525
:102C80005105B1F7E901FB83EA8349915991C40FDA
:102C9000D51FEC17FD0761F4808191810296840FA6
:102CA000951FE90199838883828193819B838A831D
:102CB000F0E0E0E012968D919C9113970097B9F5A2
:102CC0002D913C911197CD010296820F931F209177
:102CD000F6043091F7042817390739F6309751F583
:102CE0001092F9041092F804B093F704A093F6043C
:102CF000BCCFD383C28340815181840F951FC817F5
:102D0000D90761F44E5F5F4F88819981480F591F41
:102D1000518340838A819B8193838283211531056E
:102D200009F0B0CFF093F904E093F8049ECFFD01D1
:102D3000DC01C0CF13821282D7CFB0E0A0E0E3EA7B
:102D4000F6E10C941B158C01009751F4CB010E9405
:102D500078158C01C801CDB7DEB7E0E10C943715CA
:102D6000FC01E60FF71F9C0122503109E217F3071F
:102D700008F49DC0D901CD91DC911197C617D707F2
:102D800098F0C530D10530F3CE0104978617970728
:102D900008F3C61BD70B2297C193D1936D937C93F5
:102DA000CF010E941416D6CF5B01AC1ABD0A4C01AC
:102DB0008C0E9D1EA091F804B091F904512C412C69
:102DC000F12CE12C109731F58091F6049091F704E5
:102DD0008815990509F05CC04616570608F058C0DA
:102DE0008091060190910701009741F48DB79EB73D
:102DF00040910A0150910B01841B950BE817F907CC
:102E000008F055C0F093F704E093F604F9017183DC
:102E10006083A0CF8D919C91119712966C90129720
:102E200013967C901397A815B90559F56C0142E0EB
:102E3000C40ED11CCA14DB0420F1AC014A195B0991
:102E4000DA011296159780F0628273825183408373
:102E5000D9016D937C93E114F10471F0D7011396BD
:102E6000FC93EE93129776CF22968C0F9D1FF9015B
:102E700091838083F301EFCFF093F904E093F8049A
:102E800069CF4816590608F42C017D01D3019ACF69
:102E9000CB010E9478157C01009749F0AE01B80182
:102EA0000E945A17C8010E941416870153CF10E0E0
:102EB00000E050CFFB01DC0102C001900D924150B7
:102EC0005040D8F70895FB01DC0101900D920020DD
:102ED000E1F7089513E0CEE6D3E004C0FE010E94BE
:0E2EE00072152196CF36D107C9F7F894FFCFAF
:102EEE0009001F0001000000FA0480006B006C0056
:102EFE006D000000000024058404B1049005E20476
:102F0E00C004D40400000000FE0AD10A820BAE0AEF
:102F1E006F04BE0AAF0A000000009A078404820BF9
:102F2E00810B460B0D0A00202053797374656D20BA
:102F3E00737461727475702E2E2E002142722C00E5
:102F4E002C446F6E652E00362E30342E32303232D7
:102F5E0000312E342E3200454E545F53545F425290
:102F6E0045414B4F555400535953002168656164D8
:102F7E0065725F626567696E00216865616465727E
:102F8E005F656E64002173657475705F6265676955
:102F9E006E00746573740057445420656E646162EC
:102FAE006C656400466F756E64206164647265734F
:102FBE00733A20002028307800292020004B6579B4
:102FCE00706164202864656661756C7429004B65B8
:102FDE00797061642F494F004F6C6564202028641E
:102FEE00656661756C7429004F6C65640052656C82
:102FFE00617900556E6B6E6F776E00466F756E64FD
:10300E002000206465766963652873292E002020D0
:10301E002020200052656C6179205B005D20736575
:10302E007420746F20002173657475705F656E6413
:10303E00003D3D3D3D3D3D3D3D3D3D3D3D3D3D3DEF
:10304E003D3D3D3D53544152543D3D3D3D3D3D3D45
:10305E003D3D3D3D3D3D3D3D3D3D3D3D3D3D0047C5
:10306E00616D6520676F696E67206C6976652C20CF
:10307E006B696C6C696E67206C696768747320612C
:10308E006E64206C6F636B696E6720746865206474
:10309E006F6F720047616D65206C6976650A206BF3
:1030AE00696C6C696E67206C69676874730A206C52
:0830BE006F636B696E6700008F
:00000001FF
