:100000000C946D030C9495030C9495030C94761347
:100010000C9451130C942C130C9495030C9495038D
:100020000C9495030C9495030C9495030C949503F0
:100030000C9495030C9495030C9495030C949503E0
:100040000C948A120C9495030C94FA120C94D4120A
:100050000C9495030C9495030C9495030C949503C0
:100060000C949B130C949503AEB08180A1A6A83F7D
:10007000AD8B32C8D300D580D91FDA12DB40AF0078
:10008000030C0F30333C3FC0C3CCCFF0F3FCFF0078
:100090000000002300260029002B2D2D2D2D2D2DB5
:1000A0002D2D2D2D2D2D2D2D2D2D2D2D2D2D2B00AF
:1000B0007C20202020456C656374726F73636170CF
:1000C00065202020207C002B2D2D2D2D2D2D2D2D3C
:1000D0002D2D2D2D2D2D2D2D2D2D2D2D2B00536323
:1000E000616E6E696E672E2E2E0049324320736357
:1000F000616E6E65723A0020737563636573736633
:10010000756C000A2072656C617920696E697420D3
:100110006F6E206164647265737320004669726D4E
:1001200077617265207665722E2000466F756E6469
:10013000206368697020504E3500504E35333220B0
:10014000737461727475702074696D6564206F7565
:1001500074004469646E27742066696E6420504E92
:1001600035337820626F6172640A00000000002459
:100170000027002A0000000000250028002B0004B2
:10018000040404040404040202020202020303033E
:100190000303030102040810204080010204081038
:1001A00020010204081020000000080002010000E5
:1001B00003040700000000000000001C620A0C207D
:1001C0006002020508070D08020404050702040284
:1001D00006070607070707070707070202070707BB
:1001E000050A07070708060608080406070709089E
:1001F00009070908070808070C0708060406040889
:1002000009030606060606050606020407020A0694
:1002100006060605050506060A0606050602060880
:1002200009000000007E7E3030070700070700004D
:10023000000000C0D8F8DED8F8DE1800300000302A
:10024000000000387C64FF64E4C8102020F02030F7
:10025000103C7E427E3CC02018E6F010F0E000002A
:100260000000300000001030203010DCFE227EDC68
:10027000806020103020202010302007070000F878
:10028000FE07011070E0800107FEF880E070101298
:100290000C3F0C120000000000202020FC20202039
:1002A000000000100000000000F07020202020005E
:1002B000000000000030300080E07C1F03C0F03000
:1002C000000000FCFE020202FEFC10302020203064
:1002D000100404FEFE00002020303020200406829E
:1002E000C2623E1C20303020202020040622222220
:1002F000FEDC10302020203010C0A09884FEFE804C
:1003000000000000303000001E1E1212F2E2103019
:100310002020203010F8FC161212F2E010302020BD
:10032000203010020282E27A1E0600203010000007
:1003300000DCFE222222FEDC103020202030103C87
:100340007E424242FEFC002020203010001818306F
:10035000301818F0706060909008080400000000E9
:10036000101020909090909090900000000000005D
:100370000004080890906060201010000000000445
:1003800062721E0C0030300000F00CF4FA0AFAFA27
:10039000040CF00030205050505010100080F8FE37
:1003A00086FEF88030300000003030FEFE22223E13
:1003B000FCC030302020203010F8FC06020202047D
:1003C00000103020202010FEFE02020206FCF83051
:1003D00030202020301000FEFE2222222230302049
:1003E000202020FEFE22222222303000000000F8D1
:1003F000FC06024242C2C40010302020203030FEF1
:10040000FE20202020FEFE303000000000303002B0
:10041000FEFE022030302000020202FEFE202020DC
:10042000203010FEFE70D88C0602303000001030F4
:1004300020FEFE000000000030302020202020FEA2
:100440000E3CF0C0300CFEFE30000000000000301A
:1004500030FE061C38E0C000FE3000000000103006
:1004600030F8FC0602020206FCF8001030202020C2
:10047000301000FEFE4242427E3C30300000000060
:1004800000F8FC0602020206FCF80010302060E0D2
:10049000B09080FEFE2262E2BE1C00303000000000
:1004A0001030201C3E322262E2C410202020203076
:1004B00010020202FEFE02020200000030300000C4
:1004C00000FEFE00000000FEFE1030202020203044
:1004D000100E7EF080F07E0E000030303000000EF6
:1004E0007EF080E03E3EE080F07E0E000030300086
:1004F00000000030300000068EF870F88E063030B4
:100500000000003030060E18F0F0180E0600000053
:10051000303000000002C2F23E0E023030202020B7
:1005200020FFFF0101F0F08080031F7CE0800000CD
:10053000000030F0C00101FFFF8080F0F010180CC7
:1005400006060C181000000000000000000000006B
:10055000000000000000808080808080808080011A
:100560000302000000C0E82828F8F01030202030F6
:1005700030FFFF0808F8F0303020203010F0F80885
:10058000080810103020202010F0F80808FFFF1095
:100590003020203030F0F84848787010302020208B
:1005A0001008FEFF09090030300000F0F80808F8D4
:1005B000F810B0A0A0F070FFFF0808F8F03030008D
:1005C000003030FBFB30300008FBFB8080F070FF18
:1005D000FF60F098080030300000103020FFFF303E
:1005E00030F8F81008F8F01008F8F030300000305B
:1005F0003000003030F8F80808F8F03030000030F3
:1006000030F0F80808F8F0103020203010F8F80822
:1006100008F8F0F0F020203010F0F80808F8F81092
:10062000302020F0F0F8F8101818303000000030BA
:100630007848C888202020301008FEFE08080010E6
:10064000302020F8F80000F8F81030202030303842
:10065000F8C0C0F83800103030100078F880C0388A
:1006600038C080F8780030300000000030300018CA
:10067000B8E0E0B81830300000303038F8C0C0F8CA
:10068000380090F070100008C8E87818303020204A
:10069000202020FEDF0101000070F08080FFFFF0CD
:1006A000F00101DFFE20208080F0700000E01010DB
:1006B00020408080700000000000000000FE020268
:1006C0000202020202FE302020202020202030687A
:1006D000001780400200BA14A01A11241FBECFEFE9
:1006E000D8E0DEBFCDBF26E0AAE6B4E001C01D928F
:1006F000AA3DB207E1F714E0A0E0B1E0E8E6FAE3D2
:1007000002C005900D92AA36B107D9F713E0CCE6E6
:10071000D3E004C02197FE010E94141BCB36D10701
:10072000C9F70E94A5150C94271D0C94000008958C
:1007300008958FB7F8948091F1048FBF08958CBD10
:100740009DBD0895833081F028F4813099F0823086
:10075000A9F008958730A9F08830C9F08430B1F449
:10076000809180008F7D03C0809180008F7780937F
:100770008000089584B58F7784BD089584B58F7DFA
:10078000FBCF8091B0008F778093B0000895809167
:10079000B0008F7DF9CF1F93CF93DF93282F30E0E8
:1007A000F901E955FE4F8491F901ED56FE4FD491C0
:1007B000F901E158FE4FC491CC23A9F0162F811105
:1007C0000E94A203EC2FF0E0EE0FFF1FEB58FE4F4C
:1007D000A591B4918FB7F894EC91111108C0D09500
:1007E000DE23DC938FBFDF91CF911F910895DE2B25
:1007F000F8CFCF93DF9390E0FC01ED56FE4F2491AC
:1008000081589E4FFC0184918823D1F090E0880F9D
:10081000991FFC01E559FE4FA591B491FC01EB58DD
:10082000FE4FC591D49161110EC09FB7F8948C9181
:10083000E22FE0958E238C932881E223E8839FBFEB
:10084000DF91CF9108958FB7F894EC91E22BEC9360
:100850008FBFF6CF8230910538F0880F991F880F2F
:10086000991F05970197F1F70895AF92BF92CF9224
:10087000DF92EF92FF920F931F93CF93DF93EC01E0
:1008800088819981892B89F06EBD0DB407FEFDCF5B
:10089000BEB48B2DDF91CF911F910F91FF90EF9000
:1008A000DF90CF90BF90AF9008958885998511E033
:1008B000892B09F010E8AA24A394862F812309F03C
:1008C000A12C062F2C813D814E815F8160E271EA6F
:1008D00087E090E00E94F21AF22EB02EE12CC22E98
:1008E000D12CFF2019F0C6010E942A048A85877F37
:1008F00009F042C08D858F3F89F0902F912381E0D0
:1009000009F480E08A1551F0EF85F8898F899923E1
:1009100069F19081892B8083AA24A394E989FA89BB
:100920008081998D892B8083FF2019F0C6010E9458
:100930002A048E858F3F39F0EB89FC898081988D60
:10094000892309F0E12AE989FA899081898D8095C6
:10095000892380838E858F3F09F0BE2C88859985F9
:10096000892BB9F5110F1111BCCF93CF90818095D0
:1009700089238083A12CD2CFE989FA898081998D3E
:10098000892B8083FF2019F0C6010E942A048D85DF
:100990008F3F49F0EF85F8898F89902F9123A9F037
:1009A0009081892B8083E989FA899081898D80954E
:1009B000892380838E858F3F69F2EB89FC89808152
:1009C000988D892339F2E12AC5CF908180958923BA
:1009D000E9CF1695C8CFCF92DF92EF92FF920F9397
:1009E0001F93CF93DF93EC018B016A01790188811A
:1009F0009981892B31F0EA81FB81808191810E946C
:100A00009F0360E08B850E94CB03F8016081CE01DB
:100A10000E9435048601EC0CFD1CE016F10641F045
:100A20006FEFCE010E943504F80181938F01F5CF5D
:100A300061E08B850E94CB0381E0DF91CF911F9114
:100A40000F91FF90EF90DF90CF9008953FB7F8940B
:100A50008091ED049091EE04A091EF04B091F00428
:100A600026B5A89B05C02F3F19F00196A11DB11D09
:100A70003FBFBA2FA92F982F8827BC01CD01620F45
:100A8000711D811D911D42E0660F771F881F991F00
:100A90004A95D1F708958F929F92AF92BF92CF92CD
:100AA000DF92EF92FF924B015C010E9426056B01E1
:100AB0007C010E9426056C197D098E099F09683EFC
:100AC000734081059105A8F321E0821A9108A108DD
:100AD000B10888EEC80E83E0D81EE11CF11C811419
:100AE0009104A104B10429F7FF90EF90DF90CF901B
:100AF000BF90AF909F908F9008953F924F925F92DA
:100B00006F927F928F929F92AF92BF92CF92DF921D
:100B1000EF92FF920F931F93CF93DF93CDB7DEB782
:100B200029970FB6F894DEBF0FBECDBFB62E062FA5
:100B3000172F9C01A82E972EE32EFF2400271127A4
:100B40003E2C0FE916E088E0882ED12CC12CD8016C
:100B500012968D919C911397C816D90608F00FC173
:100B60003B2D18962C91492D5A2D222361F0A29EDF
:100B7000C0011124592F299DC0011124492F2B9DFB
:100B8000C0011124392FD8011E96EC911E97199699
:100B90008D919C911A971B966C91E613A0C0B6019B
:100BA000660F771F6C0D7D1D860F971FD8011B9652
:100BB000EC911B97E80FF92FF11D50831C96EC91D7
:100BC0001C97E80FF92FF11D40831D962C911D975E
:100BD000820F911DFC01308319968D919C91892B78
:100BE00009F479C0D8011F964D905D906D907C906E
:100BF00052970E942605641575058605970538F4F9
:100C00000E942605F8016787708B818B928B0E946A
:100C10002605D8011F964D905D906D907C9052975F
:100C200064197509860997096C327140810591052F
:100C3000C8F2F894F801848195819A8389830184AC
:100C4000F285E02D3F012FEF621A720A80818987B9
:100C5000D8019C915396ED91FC91549755968C91A7
:100C6000992309F452C09081982B988790818095A0
:100C700089238F838F818C838B8258856F814985EF
:100C80003B812C8189819A81D301508347FD252F97
:100C90003A952083262F39F0441F00C0000060835E
:100CA000000000C0F2CF38E04D9160830000019752
:100CB00061F7D8015496FC93EE93539749873B8391
:100CC0002C839A83898378940E942605F80167878C
:100CD000708B818B928BFFEFCF1ADF0A38CFB60172
:100CE000660F771F660F771F860F971F222359F015
:100CF0002E9DB0012F9D700D1124272FE80FF92F85
:100D0000F11D208353CF232DF9CF9081982B988705
:100D10009081809589238F838F818E838D825885E2
:100D20006F8149853D812E8189819A81D3015083CC
:100D300047FD252F00C000C0208300C000C000C0B8
:100D400000C000C060830000262F3A9541F0441F88
:100D5000000000C000C000C000C000C0E8CF38E004
:100D60004D9100C0608300C0019709F7D8015496E7
:100D7000FC93EE93539749873D832E83A2CF6AE07D
:100D800070E080E090E00E944B050A5E1F4F26E075
:100D90000B3C120709F0D9CE29960FB6F894DEBFA6
:100DA0000FBECDBFDF91CF911F910F91FF90EF90BC
:100DB000DF90CF90BF90AF909F908F907F906F907B
:100DC0005F904F903F9008958091F6049091F704C2
:100DD000891B990B0895AF92BF92CF92DF92EF9249
:100DE000FF920F931F93CF93DF936C017B018B01D5
:100DF000040F151FEB015E01AE18BF08C017D10725
:100E000059F06991D601ED91FC910190F081E02DAE
:100E1000C6010995892B79F7C501DF91CF911F9103
:100E20000F91FF90EF90DF90CF90BF90AF9008951B
:100E3000FC01538D448D252F30E0842F90E0821BE0
:100E4000930B541710F0CF96089501970895FC0165
:100E5000918D828D981761F0A28DAE0FBF2FB11DBD
:100E60005D968C91928D9F5F9F73928F90E0089515
:100E70008FEF9FEF0895FC01918D828D981731F0CF
:100E8000828DE80FF11D858D90E008958FEF9FEF23
:100E90000895FC01918D228D892F90E0805C9F4FF9
:100EA000821B91098F739927089588EA95E00E9423
:100EB000490721E0892B09F420E0822F089580E082
:100EC00090E0892B29F00E94550781110C940000B5
:100ED0000895FC01A48DA80FB92FB11DA35ABF4FCF
:100EE0002C91848D90E001968F739927848FA68929
:100EF000B7892C93A089B1898C91837080648C937D
:100F0000938D848D981306C00288F389E02D80812B
:100F10008F7D80830895EF92FF920F931F93CF935D
:100F2000DF93EC0181E0888F9B8D8C8D98131AC024
:100F3000E889F989808185FF15C09FB7F894EE890B
:100F4000FF896083E889F989808183708064808368
:100F50009FBF81E090E0DF91CF911F910F91FF90B3
:100F6000EF900895F62E0B8D10E00F5F1F4F0F735B
:100F70001127E02E8C8D8E110CC00FB607FCFACF16
:100F8000E889F989808185FFF5CFCE010E94690744
:100F9000F1CFEB8DEC0FFD2FF11DE35AFF4FF082E7
:100FA0009FB7F8940B8FEA89FB8980818062CFCF4D
:100FB0000F931F93CF93DF938C01D0E0C0E0F80133
:100FC000EC0FFD1F6491662341F088EA95E00E94D2
:100FD0008B07892B11F02196F2CFCE01DF91CF91B3
:100FE0001F910F910895CF93DF93EC01888D882393
:100FF000B9F0AA89BB89E889F9898C9185FD03C07C
:10100000808186FD0DC00FB607FCF7CF8C9185FF60
:10101000F2CF808185FFEDCFCE010E946907E9CF35
:10102000DF91CF91089590E0FC01EE0FFF1FED5688
:10103000FF4FA591B4912C91FC01E252FB4F3081FE
:101040002083880F991FFC01ED5DFE4F0190F08118
:10105000E02D808108958F929F92AF92BF92CF92A0
:10106000DF92EF92FF920F931F93CF93DF9300D005
:10107000CDB7DEB77C016B0110E000E0AA24A39499
:1010800092E0992EF70181899289009701F19A8265
:1010900021E030E0AE014F5F5F4FBE016E5F7F4FDA
:1010A0000E94EB0481E09981913009F434C080E022
:1010B000C114D10429F0065F1F4FC016D10658F1A4
:1010C0006AE070E080E090E00E944B05DBCF208179
:1010D00030E0F901E955FE4F8491F901ED56FE4FDC
:1010E000B490F901E158FE4F8490882079F0811185
:1010F0000E94A203E82DF0E0EE0FFF1FE157FF4F23
:10110000A591B491EC91BE2281E009F480E08A259A
:10111000817009F4CDCF0F900F90DF91CF911F9187
:101120000F91FF90EF90DF90CF90BF90AF909F9086
:101130008F900895CF93DF93EC019C818E81981757
:1011400058F4E881F9810084F185E02D42E0CE0178
:1011500009958C818F5F8C83DF91CF910895DC019D
:10116000ED91FC910084F185E02D40E009940F930E
:101170001F93CF938C01FC016483C085C60F6C2F35
:101180006F700E94AF086C2F62956F706061C8012C
:10119000CF911F910F910C94AF08FC0127812695E8
:1011A00026952695621720F46583606B0C94AF0832
:1011B00008951F93CF93DF93EC01142F8E8168174E
:1011C00018F4CE010E94B708612FCE01DF91CF91B4
:1011D0001F910C94CD08CF92DF92EF92FF920F9364
:1011E0001F93CF93DF93EC01162FC42ED22E8F8145
:1011F000869586958695081710F00FEF080FFD2C41
:101200000F15B0F08E81181720F4612FCE010E94C7
:10121000B7086F2DCE010E94CD08E12ECE1430F01C
:1012200060E0CE010E949A08E394F8CFF394E8CFEF
:101230004D2D612FCE01DF91CF911F910F91FF9026
:10124000EF90DF90CF900C94D9082F923F924F925D
:101250005F926F927F928F929F92AF92BF92CF9246
:10126000DF92EF92FF920F931F93CF93DF9300D003
:1012700000D01F92CDB7DEB7DC011B960D911C91FB
:101280000115110509F468C19D838C83F80144910F
:10129000319654913196649031962491E22EF12C3E
:1012A000F7E0EF0EF11C73E0F594E7947A95E1F71F
:1012B000E982F801349634913196E491631748F04D
:1012C0008E2F90E0FC01E30FF11D6E171F060CF44A
:1012D00087C06D3031F5AC81BD8116968C9181113E
:1012E0001AC081E090E00F900F900F900F900F9038
:1012F000DF91CF911F910F91FF90EF90DF90CF90F2
:10130000BF90AF909F908F907F906F905F904F9025
:101310003F902F90089560E08C819D810E94B708D6
:10132000E0CF6A3009F018C1EC81FD818185D5805C
:101330008E9DD00C11248781869586958695D8162A
:1013400030F08285882319F082E08287D12C4D2DE0
:1013500060E08C819D810E94D908AC81BD811A9684
:101360008C911A97823008F4BCCF15962C91159762
:101370001B96ED91FC911C9700E0309739F0339665
:10138000E49119960C91E09F002D112410E0095F63
:101390001F4F33E0159507953A95E1F78FEF820FD0
:1013A000080FEC81FD81468141506481CF010E948C
:1013B000EB08AC81BD8119968C9119976D2D8E9D8E
:1013C000600D1124660F660F660F17968C918617B5
:1013D00008F460E060648C819D810E94AF0881CF39
:1013E0004527542745270A5F1F4F631BEC81FD816A
:1013F00021844230510508F06DC0452B09F0212CA5
:101400006E9CC0016F9C900D1124689FF001699F34
:10141000F00D11240E0F1F1F512CAC81BD811496AD
:10142000BC91BA83EC81FD81F581FB83862C912CE4
:10143000AA24A394B12C312C8981381608F086C0D7
:10144000412CAC81BD8119968C91481608F077C06B
:10145000311002C0442041F0EC81FD8145814F5F95
:101460006A81CF010E94D908D12CC12CC61408F082
:101470005AC0F801EC0DFD1D7490552061F0EA147E
:10148000FB0449F4E72DF0E0052C02C0F595E79543
:101490000A94E2F77E2EAC81BD8119968C91823040
:1014A00081F4442009F43BC072948FE07822E72D48
:1014B000F0E0E158FF4F7490672D8C819D810E9470
:1014C0009A08672D8C819D810E949A08EFEFCE1AB1
:1014D000DE0ACCCF277038E0532E521A211101C0FA
:1014E000512C50E040E030E020E0F801461740F495
:1014F000E40FF51FE4912E0F311D4F5F5F4FF5CFC5
:10150000E60FF11D6490E29EF001E39EF00DF29E65
:10151000F00D11248E0F9F1F080F191F7ECFB72DBE
:10152000BF707B2EC4CFD12C2D1439F060E08C819C
:101530009D810E949A08D394F7CF439482CF33942D
:10154000080D191DFFEFAF1ABF0A76CF6B818C8192
:101550009D810E94CD08C5CE90E080E0C4CE0F935F
:10156000CF93DF93EC010F81069506950695015008
:101570004E81415020E060E00E94EB0881E09A85B6
:10158000911101C080E08A8760E4CE01DF91CF91A4
:101590000F910C94AF0820918B04260F3327331F33
:1015A00021323105ECF420917E05FC0190E080E0D1
:1015B000243069F082E00895A0918B042191AC0160
:1015C00045595B4FA40FB52FB11D2C93019686177B
:1015D00098F380918B04680F60938B0480E00895EA
:1015E00081E0089510927E0581E080937D05109240
:1015F000580561E082E10E94CB0361E083E10E9433
:10160000CB03E9EBF0E080818E7F808380818D7F4A
:10161000808388E48093B80085E48093BC000895BB
:101620001092F7041092F604109285051092A70507
:101630000E94F20A87E993E09093F5048093F40402
:1016400088E993E09093F3048093F2040895CF9394
:10165000DF9391E090936A048823B9F0C091B800B9
:10166000D091BA008091BC008A7B8093BC0060E07E
:1016700082E10E94CB0360E083E10E94CB030E94E1
:10168000F20AD093BA00C093B800DF91CF910895C9
:10169000CF92DF92EF92FF920F931F93CF93DF933E
:1016A000D091A70581E0D13208F09CC0C091A60579
:1016B0000E9426056B017C0180917E0581116CC022
:1016C00082E080937E0581E080937D058FEF80939B
:1016D0007C0510927B05D0937A05A6E8B5E0EAE593
:1016E000F5E080E0D8138DC010925905809159051E
:1016F000CC0FC82BC093590580915805813009F053
:1017000084C0109258050E9426056B017C018091CF
:1017100059058093BB008091800590918105A0912F
:101720008205B0918305892B8A2B8B2BA1F00E9417
:101730002605009180051091810520918205309148
:1017400083056C197D098E099F090617170728075D
:10175000390708F442C08091BC0083FDD8CF85ECE6
:101760008093BC000E9426056B017C0180917E0560
:10177000823009F44CC080917C058F3F09F469C028
:1017800080917C05803209F466C080917C058033AD
:1017900009F463C084E026C08091800590918105A2
:1017A000A0918205B0918305892B8A2B8B2B09F49C
:1017B00083CF0E942605009180051091810520911C
:1017C0008205309183056C197D098E099F090617E2
:1017D00017072807390708F06FCF80917F050E940F
:1017E000270B85E0109285051092A70510928405BD
:1017F000DF91CF911F910F91FF90EF90DF90CF90ED
:1018000008959D9191938F5F6DCF85EEA9CF8091C3
:10181000800590918105A0918205B0918305892B67
:101820008A2B8B2B09F4A2CF0E94260500918005FC
:101830001091810520918205309183056C197D09F5
:101840008E099F09061717072807390708F08ECF5A
:10185000C4CF80E0C7CF82E0C5CF83E0C3CFCF92B3
:10186000DF92EF92FF920F931F93CF93DF93D82FC6
:10187000C62F613208F098C00E9426056B017C01DA
:1018800080917E0581116BC081E080937E058093FD
:101890007D059FEF90937C0510927B059C0F9093A4
:1018A0007A058093590580915905DD0FD82BD09387
:1018B000590580915805813009F078C0109258057B
:1018C0000E9426056B017C01809159058093BB0025
:1018D0008091800590918105A0918205B09183054A
:1018E000892B8A2B8B2BA1F00E9426050091800565
:1018F0001091810520918205309183056C197D0935
:101900008E099F09061717072807390708F448C0EA
:101910008091BC0083FDD8CF85EC8093BC000E94F1
:1019200026056B017C0180917E05813009F440C061
:1019300080917B058C1710F4C0917B05EAE5F5E0FA
:10194000A8E3B5E080E08C1355C08C2FDF91CF91D8
:101950001F910F91FF90EF90DF90CF9008958091AD
:10196000800590918105A0918205B0918305892B16
:101970008A2B8B2B09F484CF0E94260500918005C9
:101980001091810520918205309183056C197D09A4
:101990008E099F09061717072807390708F070CF27
:1019A00080917F050E94270BC0E0CFCF85EEB5CF99
:1019B0008091800590918105A0918205B091830569
:1019C000892B8A2B8B2B09F4AECF0E942605009120
:1019D00080051091810520918205309183056C1955
:1019E0007D098E099F09061717072807390708F090
:1019F0009ACFD6CF91919D938F5FA5CF0895E09117
:101A0000F7048091F604E81730F4F0E0E85CFA4F50
:101A1000808190E008958FEF9FEF08959091F704F3
:101A20008091F6042FEF3FEF981748F4E92FF0E08C
:101A3000E85CFA4F208130E09F5F9093F704C90182
:101A40000895CF92DF92EF92FF920F931F93CF935F
:101A5000DF937C01CB018A0120918405222389F048
:101A6000EB016B01C40ED51ECC15DD0569F0699143
:101A7000D701ED91FC910190F081E02DC70109950E
:101A8000F3CF642F0E94CB0AC801DF91CF911F9141
:101A90000F91FF90EF90DF90CF900895CF93DF9359
:101AA0001F92CDB7DEB76983209184052223F9F018
:101AB0002091A705203258F021E030E0FC0133836B
:101AC000228390E080E00F90DF91CF910895809184
:101AD0008505E82FF0E0EA57FA4F998190838F5FF0
:101AE000809385058093A70581E090E0ECCF61E0CD
:101AF000CE0101960E94CB0AF7CFE2E5F6E0918194
:101B000062818081238131E0309384052093A60592
:101B1000109285051092A70560956923682B85E4CE
:101B200096E00E944E0D0C94480B682F85E496E0D9
:101B30000C944E0D0F931F93CF93DF93EC01062F60
:101B4000142F8E85813120F4882329F0411103C0A0
:101B50000E94480B1E868E85811112C08D8591E0F2
:101B6000909384058093A605109285051092A70591
:101B700060E4111101C060E085E496E00E944E0D22
:101B8000602F85E496E00E944E0D123041F48E8560
:101B90008F5F8E87DF91CF911F910F9108950E94E3
:101BA000480B1E86F7CF089590E080E00895CF920D
:101BB000DF92EF92FF920F931F93CF93DF931F92C9
:101BC000CDB7DEB7062FD72E142FFC01818992895D
:101BD0000097A9F023E02983242F30E0462F572FC8
:101BE000BE016F5F7F4F0E94EB040F90DF91CF919A
:101BF0001F910F91FF90EF90DF90CF90089562E0DA
:101C000070E080E090E00E944B0562E0610F84E2AA
:101C10000E942F0C1092F7048093F60485E496E05E
:101C20000E940E0DC02EE02EFD2C61E070E080E0E1
:101C300090E00E944B0585E496E00E940E0DF701AE
:101C400081937F018E2F8C19811778F3CECF2F923D
:101C50003F924F925F926F927F928F929F92AF923C
:101C6000BF92CF92DF92EF92FF920F931F93CF9389
:101C7000DF9300D000D000D01F92CDB7DEB77C013B
:101C80004A012DB63EB6DC015196CD90DC90BB24C6
:101C9000B394B60EA62EA0946B2C712CC114D10453
:101CA00009F495C04DB65EB670E0685F7F4FEDB742
:101CB000FEB7E61BF70B0FB6F894FEBF0FBEEDBFE5
:101CC0000DB71EB70F5F1F4F81E08183D8011196BA
:101CD0001C92119712961C9212978FEF13968C9369
:101CE00013971496BC9214971596AC92159784EDA1
:101CF00016968C932DB73EB7285F3F4FF90163EDE1
:101D0000A301415051098E2F821B90E08417950743
:101D10003CF488509B4FDC018C918193680FF3CF8A
:101D2000609560831182B8E06B0E711CF6018081B2
:101D30009181892B39F00280F381E02D808191819E
:101D40000E949F0360E0D6011B968C910E94CB03FA
:101D50005801F50161915F01C6010E943504C5017A
:101D6000801B910B86159705A0F361E0D6011B96A9
:101D70008C910E94CB030FB6F8945EBE0FBE4DBE91
:101D8000B401C7010E942B08182F811162C010E016
:101D9000812F0FB6F8943EBE0FBE2DBE27960FB60C
:101DA000F894DEBF0FBECDBFDF91CF911F910F9191
:101DB000FF90EF90DF90CF90BF90AF909F908F906B
:101DC0007F906F905F904F903F902F90089562E0CA
:101DD00070E080E090E00E944B0581E080938405F4
:101DE00084E28093A605109285051092A70580E0F5
:101DF0000E94950D80E00E94950D8FEF0E94950D39
:101E00008B2D0E94950D8A2D0E94950D84ED0E94C8
:101E1000950DC12C83EDD82EB1E06B1A71080C2DF5
:101E200010E0061517055CF408501B4FF80180817F
:101E30000E94950DD8018C91D80EC394F0CF8D2DB2
:101E400080950E94950D80E00E94950D0E94480BA0
:101E500097CFF70181899289009721F123E02F83A1
:101E600026E030E0AE014F5F5F4FBE01695F7F4FFC
:101E70000E94EB0446E050E06DE071E0CE01019677
:101E80000E94011D892B09F082CFD70151968D91B7
:101E90009C91892B09F47CCFB401C7010E942B08C7
:101EA000182F76CF46E0BE016F5F7F4FC7010E94BB
:101EB000D70DE0CFFC0180819181009711F00C9447
:101EC000B61B08950E94FC1CFB0101900020E9F75D
:101ED0003197AF01461B570BDC01ED91FC9102805D
:101EE000F381E02D09948F929F92AF92BF920F934E
:101EF0001F93CF93DF93CDB7DEB7A1970FB6F894BA
:101F0000DEBF0FBECDBF19A2423008F44AE08E01F9
:101F10000F5D1F4F842E912CB12CA12CA501940193
:101F20000E94F21AE62FB901CA01EA3004F5E05D19
:101F3000D801EE938D01232B242B252B79F790E0EC
:101F400080E0109729F0BD0188EA95E00E94640FB7
:101F5000A1960FB6F894DEBF0FBECDBFDF91CF9133
:101F60001F910F91BF90AF909F908F900895E95C63
:101F7000DFCFCF92DF92EF92FF92CF93DF936B018F
:101F80007C016DE288EA95E00E948B07EC016627F0
:101F90007727CB016C197D098E099F094AE00E94C1
:101FA000730F8C0F9D1FDF91CF91FF90EF90DF900B
:101FB000CF9008956BE571E00C94640FCF93DF939D
:101FC000BC01990F880B990B97FF0CC00E94B90FA9
:101FD000EC0188EA95E00E94DA0F8C0F9D1FDF91DB
:101FE000CF9108954AE00E94730FF2CFCF93DF9311
:101FF0000E94D807EC0188EA95E00E94DA0F8C0F66
:102000009D1FDF91CF9108950F931F93CF93DF937F
:10201000EC010E94640F8C01CE010E94DA0F800F48
:10202000911FDF91CF911F910F910895BF92CF9291
:10203000DF92EF92FF920F931F93CF93DF9300D025
:1020400000D000D0CDB7DEB78C0186E0EFECF6E033
:10205000DE01119601900D928A95E1F7D8011E9646
:102060001C921E978CE31D968C931D9714961C92C0
:10207000149715961C921597FE013196C590D49031
:10208000FE013396B4903196E4911696EC93169730
:10209000FE013596E4911796EC931797FE0136965C
:1020A000E4911896EC93F12CE12CEB1458F4F70121
:1020B000EC0DFD1D6491C8010E94AF08BFEFEB1A43
:1020C000FB0AF3CFF8011286C8010E94AF0A8CE028
:1020D0008093B800D80117968C91803431F4C801F0
:1020E0000E94AF0A81E0F8018287C8010E94AF0A0E
:1020F0008BEB91E0D8011C969C938E931B976EE519
:1021000071E0C8010E94041081E026960FB6F89491
:10211000DEBF0FBECDBFDF91CF911F910F91FF901A
:10212000EF90DF90CF90BF9008951092E704109247
:10213000E60462E771E088EA95E00E94041085EB0E
:1021400096E00E94AF0A67EA71E085EB96E00E9494
:10215000041081E080930C01E2E5F6E080818E7F3F
:1021600080830E947D0D60919B0670919C068091FA
:102170009D0690919E060C947D050F931F93CF931F
:10218000DF93EC018B0161E08EE00E94CB0388EAD3
:1021900095E00E94DA0F6AEC71E088EA95E00E940F
:1021A000640FF801448155816081718188EA95E06E
:1021B0000E94EB066DEC71E088EA95E00E94640FE6
:1021C0004C815D816881798188EA95E00E94EB0607
:1021D0006FEC71E088EA95E00E94041062E370E021
:1021E00080E090E00E944B0560E08EE0DF91CF91AF
:1021F0001F910F910C94CB03EF92FF920F931F93BB
:10220000CF93DF93EC017B01198218821B821A8223
:102210001D821C82FB0101900020E9F731978F019C
:10222000061B170BB8016F5F7F4F90E080E00E94A4
:102230003F1C0097B9F0998388831B830A832C8104
:102240003D81232B11F4FC0110821D830C83B70107
:1022500088819981DF91CF911F910F91FF90EF902D
:102260000C94201D88819981009711F00E94B61B63
:10227000198218821D821C821B821A82DF91CF91E3
:102280001F910F91FF90EF90089585ED8093BC0012
:102290008091800590918105A0918205B091830580
:1022A0000796A11DB11D23E0B695A7959795879533
:1022B0002A95D1F72091BC0024FD03C010927E0521
:1022C000089540918005509181056091820570913B
:1022D0008305452B462B472B69F30097A105B105D4
:1022E00041F025E32A95F1F700000197A109B10912
:1022F000E1CF80917F050C94270BCF92DF92EF9274
:10230000FF921F93CF93DF93CDB7DEB76D970FB6D4
:10231000F894DEBF0FBECDBF66ED71E088EA95E0B0
:102320000E9404107E0181E1E80EF11C87E0D701D4
:102330001D928A95E9F786E0E9E1F1E0DE01589621
:1023400001900D928A95E1F71A8219828AE48093AE
:10235000F80481E08093F9041092FA0450E040E020
:1023600063E081E796E00E94270E882329F180919F
:10237000820690918306892BB9F044E168EF74E0FE
:1023800081E796E00E94D70D8091FF048130A1F48F
:1023900010910405A5E0B5E0F7018E2F8E19811785
:1023A000D8F48D918193F9CF70E060E081E796E0F9
:1023B0000E942B088111E1CF10E0812F6D960FB69E
:1023C000F894DEBF0FBECDBFDF91CF911F91FF907C
:1023D000EF90DF90CF90089586E0FE017896ABE70E
:1023E000B6E001900D928A95E1F7C12ED12CA6019D
:1023F000B70183E796E00E940E1D10937A0680E4F1
:102400008093F80481E08093F90490E69093FA04B5
:102410008093FB0486E0EBE7F6E0ACEFB4E00190DC
:102420000D928A95E1F720E0822F90E08C159D05B2
:102430005CF4FC01E850FB4F8F58994FDC01129679
:102440008C9182872F5FF0CF6AE0610F44E650E005
:1024500081E796E00E94270E8823D1F14CE068EFD7
:1024600074E081E796E00E94D70D8091FF0481110E
:102470002FC080E48093F80481E08093F90490E316
:102480009093FA048093FB0444E650E064E081E713
:1024900096E00E94270E182F882309F14AE168EF81
:1024A00074E081E796E00E94D70D8091FF048111CE
:1024B00016C080E1E0E0F5E0DE01119601900D929A
:1024C0008A95E1F7898181110DC06BE072E002C04D
:1024D00063EF71E088EA95E00E9404106DCF6FEF22
:1024E00071E0F8CFBE016F5F7F4F88EA95E00E94F0
:1024F0000410BE016F5F7F4F8FE191E00E94171DB6
:10250000892B09F459CF6BE272E088EA95E00E94CA
:10251000041053CF1F920F920FB60F9211242F93D6
:102520003F938F939F93AF93BF938091E9049091D2
:10253000EA04A091EB04B091EC043091E80423E0AC
:10254000230F2D3758F50196A11DB11D2093E804E6
:102550008093E9049093EA04A093EB04B093EC0415
:102560008091ED049091EE04A091EF04B091F004FD
:102570000196A11DB11D8093ED049093EE04A093EC
:10258000EF04B093F004BF91AF919F918F913F9171
:102590002F910F900FBE0F901F90189526E8230FD4
:1025A0000296A11DB11DD2CF1F920F920FB60F92AE
:1025B00011242F933F934F935F936F937F938F9348
:1025C0009F93AF93BF93EF93FF9388EA95E00E94A8
:1025D0006907FF91EF91BF91AF919F918F917F918B
:1025E0006F915F914F913F912F910F900FBE0F9080
:1025F0001F9018951F920F920FB60F9211242F93D0
:102600008F939F93EF93FF93E091B805F091B905F5
:102610008081E091BE05F091BF0582FD1BC09081D5
:102620008091C1058F5F8F732091C205821741F0A1
:10263000E091C105F0E0E855FA4F958F8093C10510
:10264000FF91EF919F918F912F910F900FBE0F905F
:102650001F9018958081F4CF1F920F920FB60F92A2
:1026600011242F933F934F935F936F937F938F9397
:102670009F93AF93BF93EF93FF9382E00E94130861
:10268000FF91EF91BF91AF919F918F917F916F914A
:102690005F914F913F912F910F900FBE0F901F9020
:1026A00018951F920F920FB60F9211242F933F93FC
:1026B0004F935F936F937F938F939F93AF93BF934A
:1026C000EF93FF9381E00E941308FF91EF91BF9178
:1026D000AF919F918F917F916F915F914F913F91BA
:1026E0002F910F900FBE0F901F9018951F920F9271
:1026F0000FB60F9211242F933F934F935F936F93D5
:102700007F938F939F93AF93BF93EF93FF9380E05B
:102710000E941308FF91EF91BF91AF919F918F910C
:102720007F916F915F914F913F912F910F900FBECD
:102730000F901F9018951F920F920FB60F921124B1
:102740002F933F934F935F936F937F938F939F93B9
:10275000AF93BF93EF93FF938091B900887F80364A
:1027600009F44AC0F0F5883209F4A7C018F58031A1
:1027700009F49BC0B8F4882309F4F9C0883009F43F
:1027800094C0FF91EF91BF91AF919F918F917F91F5
:102790006F915F914F913F912F910F900FBE0F90CE
:1027A0001F901895883109F488C0803251F78093C2
:1027B0007C0514C0803409F49DC040F48033B9F323
:1027C0008833F9F680937C0585ECB0C0803509F438
:1027D00085C0883509F496C0883499F60E94451161
:1027E000D0CF883909F48CC038F5883729F050F4F7
:1027F000883611F0803729F683E080937E051092A9
:10280000AD0457C0883809F47BC0803919F080388E
:1028100009F0B7CF8091AD04803208F071C0E0912B
:10282000AD0481E08E0F8093AD048091BB00F0E099
:10283000E357FB4F80833DC0803B39F0E0F4803AA2
:1028400009F479C0883A09F09CCF84E080937E0532
:1028500010928C0410928B04E091F404F091F50432
:10286000099580918B0481110FC081E080938B04C6
:1028700010926B0409C0803C09F4A6CF883C09F48F
:10288000A3CF883B09F07DCFE0918C0481E08E0FCF
:1028900080938C04F0E0E559FB4F80818093BB006E
:1028A00090918C0480918B0429C08091590580936C
:1028B000BB0085EC8093BC0064CF90917B05809138
:1028C0007A05981758F5E0917B0581E08E0F80938B
:1028D0007B05F0E0E65AFA4F8081E9CFE0917B0575
:1028E00081E08E0F80937B058091BB00F0E0E65A7B
:1028F000FA4F808390917B0580917A059817C8F2F2
:1029000085E8D8CFE0917B0581E08E0F80937B0531
:102910008091BB00F0E0E65AFA4F808380917D05FC
:1029200081115CCF81E08093580584EA8093BC00DC
:1029300010927E0526CF85EC8093BC0010927E0518
:102940008091AD04803230F4E091AD04F0E0E357C3
:10295000FB4F10826091AD0470E0E091F204F091C1
:10296000F3048DE894E009951092AD040ACF10921B
:102970007C0534CFEF92FF921F93CF93DF93E8EA69
:10298000F5E01382128288EE93E0A0E0B0E0848349
:102990009583A683B7832DE231E03183208325EC34
:1029A00030E03587248724EC30E03787268720EC19
:1029B00030E0318B208B21EC30E0338B228B22EC0A
:1029C00030E0358B248B26EC30E0378B268B118E54
:1029D000128E138E148EE5E4F6E013821282848345
:1029E0009583A683B7838FE391E09183808360E42E
:1029F00072E080ED96E00E94FC106AE472E08AECDE
:102A000096E00E94FC1060E572E084EC96E00E9483
:102A1000FC10E5EBF6E0148615861686138212820A
:102A200081E081871486138621E531E0318320839C
:102A3000EFE9F6E0808311821382128215821482FC
:102A40002FEF3FEF37832683108612861186838708
:102A5000148692E0958786871786108A118A128AD3
:102A600080E090E0A8E7B0E080939B0690939C06FE
:102A7000A0939D06B0939E0680E09FEFA0E0B0E09B
:102A80008093970690939806A0939906B0939A0620
:102A900084E8E82E86E0F82E1FEFF70110831183FB
:102AA0008CE190E00E941A1BEC0188E08B871E8766
:102AB0001D871C8781E596E0998388831B8E82E0C1
:102AC00090E00E941A1B21E7FC01208311829B8366
:102AD0008A8380E492E4AFE0B0E08C839D83AE8390
:102AE000BF83198618861A86F701D28BC18B83E1C2
:102AF000A1E7B6E001900D928A95E1F7E2E5F6E0F4
:102B00001082118212821382148215821682178219
:102B10001086118612861386148615861686108AEC
:102B20001786128A118A148A138A168A158A108EB9
:102B3000178A128E118E148E138E168E158EDF91BB
:102B4000CF911F91FF90EF900895CF93DF93CDB772
:102B5000DEB765970FB6F894DEBF0FBECDBF789491
:102B600084B5826084BD84B5816084BD85B5826092
:102B700085BD85B5816085BD80916E008160809343
:102B80006E001092810080918100826080938100AC
:102B900080918100816080938100809180008160BC
:102BA000809380008091B10084608093B100809117
:102BB000B00081608093B00080917A00846080933F
:102BC0007A0080917A00826080937A0080917A0006
:102BD000816080937A0080917A00806880937A0087
:102BE0001092C1000E94100B88E48093B800E0911D
:102BF000B805F091B90582E08083E091B405F091C9
:102C0000B5051082E091B605F091B70580E18083AB
:102C10001092C005E091BC05F091BD0586E080836F
:102C2000E091BA05F091BB05808180618083E091DD
:102C3000BA05F091BB05808188608083E091BA0578
:102C4000F091BB05808180688083E091BA05F091A6
:102C5000BB0580818F7D808364E670E080E090E03A
:102C60000E944B0561E08EE00E94F90387EC90E042
:102C70000E94F60F80EB90E00E94F60F89E990E049
:102C80000E94F60F64E170E080E090E00E944B0546
:102C900060E672E0CE0101960E94FC1064E672E0EC
:102CA000CE0140960E94FC10BE016F5F7F4FCE01A7
:102CB00040960E94BD10CE0140960E945A0FCE0150
:102CC00001960E945A0F60E672E0CE0101960E94C2
:102CD000FC1062E772E0CE0140960E94FC10BE013B
:102CE0006F5F7F4FCE0140960E94BD10CE0140968F
:102CF0000E945A0FCE0101960E945A0F60E672E0C0
:102D0000CE0101960E94FC106EE772E0CE01409663
:102D10000E94FC10BE016F5F7F4FCE0140960E9463
:102D2000BD10CE0140960E945A0FCE0101960E941E
:102D30005A0F6BE872E088EA95E00E94041088E17F
:102D400099E20FB6F894A895809360000FBE909317
:102D50006000A89588EA95E00E94DA0F68E972E0C1
:102D600088EA95E00E94041088EA95E00E94DA0F54
:102D70008AEE90E00E94F60F8EED90E00E94F60F32
:102D800098E0C92ED12CE12CF12C00E0BB24B394A7
:102D90001C2DB0928405C092A60510928505109254
:102DA000A7050E94480B81113BC062EA72E088EAE5
:102DB00095E00E94640F62EB72E088EA95E00E9461
:102DC000640F40E1C701B6010E94730F67EB72E028
:102DD00088EA95E00E94640F1C3358F46CEC72E0B2
:102DE000193398F46BEB72E0183379F061EF72E00D
:102DF0000CC066EE72E01D3341F066ED72E01D33EB
:102E000020F06BEE72E01F3389F788EA95E00E94AC
:102E100004100F5F61E070E080E090E00E944B05DD
:102E20008FEFC81AD80AE80AF80AA8E7CA16D10428
:102E3000E104F10409F0ACCF60ED71E088EA95E0BF
:102E40000E94041069EF72E088EA95E00E94640F26
:102E5000602F70E090E080E04AE00E94730F60E035
:102E600073E088EA95E00E9404106CE073E088EA61
:102E700095E00E940410A89583E091E00E94D80795
:102E80008FE390E00E94DE0F8FE3809355060E944F
:102E9000100B809153068093560661E08091550691
:102EA0000E942F0C1092F7048093F604811101C048
:102EB000FFCF85E496E00E940E0D8093530620918B
:102EC000540601E010E0C8010090E20402C0880F3F
:102ED000991F0A94E2F7922F982B909354069091A1
:102EE000520680958923809352060E947D0D0090A2
:102EF000E20402C0000F111F0A94E2F780910A0158
:102F0000811115C280915206009508230093520644
:102F10000E947D0D65E173E088EA95E00E94640FF0
:102F20006BE173E088EA95E00E94640F6091E2042F
:102F30007091E304072E000C880B990B97FDFBC1E1
:102F40004AE00E94730F63E273E088EA95E00E9412
:102F5000640F80910A0190910B010E94DE0F87EFB0
:102F600090E00E94D8078091B7069091B8069C83A4
:102F70008B838091B9068D838091BA068E83809170
:102F8000BB068F838091BC0688878091BD068987A8
:102F90008091BE068A878091BF068B878091C0068C
:102FA0009091C1069D878C8781E591E09A83898302
:102FB0008091C2068E878091C3068F87CE010196CD
:102FC0000E941610A89588EA95E00E94DA0F6DE23B
:102FD00073E088EA95E00E94041000919506109134
:102FE00096060115110509F4CEC161E0F80183854B
:102FF0000E94F90361E0D8011B968C910E94CB03DB
:10300000F80180819181892B09F498C1FFB6F89469
:103010008091E104811127C0E9E8F1E08491EDE9B4
:10302000F1E09491E82FF0E0EE0FFF1FE559FE4F1D
:10303000A591B491EC91E92321F461E08AE00E942A
:10304000CB0361E08AE00E94F9038CB580618CBDFE
:103050008CB580648CBD61E08DE00E94F90361E075
:103060008BE00E94F9038091E1048F5F8093E1047B
:10307000FFBE81E0D8015B968C9382E08093F804D8
:1030800044E650E061E084E896E00E94270E82E387
:103090008093F80485E08093F9049FEF9093FA04FD
:1030A00091E09093FB048093FC0444E650E065E0DB
:1030B00084E896E00E94270E07E010E0B2E0BB2E05
:1030C000B092F80444E650E061E084E896E00E94A3
:1030D000270E811176C182E591E00E94D807015048
:1030E000110971F78AE391E00E94D80768E373E061
:1030F00088EA95E00E940410A89588EA95E00E946D
:10310000DA0F60E573E088EA95E00E94041046E07B
:10311000842E41E0942E58E0652E51E0752E0FE983
:1031200016E06AE0462E61E0562E3324339472E0B6
:10313000272EF401E190F1904F01D301AD90BD90A5
:103140003D016501CC0CDD1CCA0CDB1CC6010E94D4
:103150001A1B009721F4D12CC12CB12CA12CF70102
:10316000E158FE4FE491F0E0EE0FFF1FEB58FE4FE9
:1031700025913491F701ED56FE4FE491D8013C9230
:1031800011961C9211971396BC92AE9212971596B7
:10319000DC92CE9214971796FC92EE9216971896A0
:1031A0001C9218971A969C938E9319971B963C9293
:1031B0001B971C962C921C971D961C921D971E9671
:1031C0003C921E971F961D921D921D921C92529723
:1031D00054963C932E9353975596EC930E94B61BAE
:1031E000F7FC04C060E08E2D0E94F903F80186818F
:1031F000978197FD09C061E00E94F90360E0D80162
:1032000016968C910E94CB03F801318260E070E049
:10321000CB010E947D050A5E1F4F4814590409F036
:1032200088CF62E370E080E090E00E944B056AE5A1
:1032300073E088EA95E00E94041088EA95E00E9415
:10324000DA0F60E672E0CE0101960E94FC1063E6A0
:1032500073E0CE0140960E94FC10BE016F5F7F4F6D
:10326000CE0140960E94BD10CE0140960E945A0F9A
:10327000CE0101960E945A0F88EA95E00E94DA0F6B
:103280006EE673E088EA95E00E94041088EA95E013
:103290000E94DA0F0E94951000E010E06CE973E0E4
:1032A00088EA95E00E94041080910C01882309F4BB
:1032B00015C10E947D11882309F4FFC08091E404A8
:1032C0009091E50404971CF185EB96E00E94AF0A0B
:1032D00061EA73E085EB96E00E94041065EC73E010
:1032E00088EA95E00E94041010920C018091520629
:1032F0008160809352060E947D0D609197067091C7
:1033000098068091990690919A060E947D05809179
:10331000E4049091E50401969093E5048093E4041D
:1033200062E370E080E090E00E944B05CAC08091AB
:103330005206082BEBCD0E94B90F05CE61E08485C3
:103340000E94F903F80182858B7FD1F460E08485C7
:103350000E94CB03F80185858F3F49F061E00E9410
:10336000F90361E0D8011D968C910E94CB03F8010E
:1033700086858F3F09F47DCE60E00E94F90379CE07
:1033800061E08485E5CF0E94100B61E080918506A5
:103390000E94CB0360E0809185060E94CB0360E928
:1033A00071E080E090E00E944B0561E0809185062D
:1033B0000E94CB036AE070E080E090E00E944B0541
:1033C00066CE4CE068EF74E084E896E00E94D70D8A
:1033D00046E050E060E071E088EF94E00E94011D5B
:1033E000892B09F078CEC090FF04D0900005DC2432
:1033F000CD24DC24F12CE12CFE2CED2CDC2CCC2477
:1034000080910105C82AFE2CED2CDC2CCC24809167
:103410000205C82AC114D104E104F10409F45BCE09
:103420008BE291E00E94D8076F2D77278827992794
:1034300040E10E94730F88EA95E00E94DA0F8CE168
:1034400091E00E94D8076E2D70E090E080E04AE0A5
:103450000E94730F6EE288EA95E00E948B076D2D43
:1034600070E090E080E04AE00E94730F88EA95E007
:103470000E94DA0F94E19093F80481E08093F904BC
:103480009093FA048093FB0444E650E064E084E8FF
:1034900096E00E94270E882339F048E068EF74E038
:1034A00084E896E00E94D70D62E370E080E090E04F
:1034B0000E944B0566E473E01BCE1092E504109267
:1034C000E404A8950115110509F4E8CE0E945507FA
:1034D000882309F4E3CE0E940000E0CE62EF73E09F
:1034E00088EA95E00E9404100E947D11882399F0DB
:1034F00067E374E088EA95E00E9404101092E70404
:103500001092E6048091E6049091E7040D979CF0F8
:103510000E949510D6CF6AE474E088EA95E00E9494
:1035200004108091E6049091E70405969093E704D7
:103530008093E604E7CF68E873E180E090E0F4CEA2
:103540008091A8069091A9060E94B61B8091A506BD
:103550009091A60697FD03C060E00E94F90384ECF9
:1035600096E00E945A0F8AEC96E00E945A0F80ED76
:1035700096E00C945A0F2F923F924F925F926F9267
:103580007F928F929F92AF92BF92CF92DF92EF92F3
:10359000FF920F931F93CF93DF93CDB7DEB7CA1B74
:1035A000DB0B0FB6F894DEBF0FBECDBF09942A889F
:1035B000398848885F846E847D848C849B84AA8447
:1035C000B984C884DF80EE80FD800C811B81AA81D4
:1035D000B981CE0FD11D0FB6F894DEBF0FBECDBF9F
:1035E000ED010895A1E21A2EAA1BBB1BFD010DC01F
:1035F000AA1FBB1FEE1FFF1FA217B307E407F507A3
:1036000020F0A21BB30BE40BF50B661F771F881F7E
:10361000991F1A9469F760957095809590959B0114
:10362000AC01BD01CF010895EE0FFF1F0590F4918D
:10363000E02D09940F931F93CF93DF938230910570
:1036400010F482E090E0E091D806F091D90630E0E5
:1036500020E0B0E0A0E0309799F42115310509F49D
:103660004AC0281B390B24303105D8F58A819B814B
:103670006115710589F1FB0193838283FE0111C0FD
:10368000408151810281138148175907E0F04817A2
:10369000590799F4109761F012960C9312971396AC
:1036A0001C933296CF01DF91CF911F910F91089516
:1036B0000093D8061093D906F4CF2115310551F0A7
:1036C0004217530738F0A901DB019A01BD01DF0160
:1036D000F801C1CFEF01F9CF9093D9068093D806B6
:1036E000CDCFFE01E20FF31F819391932250310958
:1036F00039832883D7CF2091D6063091D706232B44
:1037000041F420911501309116013093D706209392
:10371000D60620911301309114012115310541F491
:103720002DB73EB74091170150911801241B350B5E
:10373000E091D606F091D706E217F307A0F42E1B0E
:103740003F0B2817390778F0AC014E5F5F4F241705
:10375000350748F04E0F5F1F5093D7064093D606AB
:10376000819391939FCFF0E0E0E09CCFCF93DF93E4
:103770000097E9F0FC01329713821282A091D806DB
:10378000B091D906ED0130E020E01097A1F420813E
:103790003181820F931F2091D6063091D7062817CA
:1037A000390709F061C0F093D706E093D606DF91A0
:1037B000CF910895EA01CE17DF07E8F54A815B81D2
:1037C0009E0141155105B1F7E901FB83EA83499157
:1037D0005991C40FD51FEC17FD0761F480819181C9
:1037E0000296840F951FE9019983888382819381D2
:1037F0009B838A83F0E0E0E012968D919C91139771
:103800000097B9F52D913C911197CD010296820F49
:10381000931F2091D6063091D7062817390739F61D
:10382000309751F51092D9061092D806B093D7066A
:10383000A093D606BCCFD383C28340815181840F2D
:10384000951FC817D90761F44E5F5F4F8881998132
:10385000480F591F518340838A819B8193838283C0
:103860002115310509F0B0CFF093D906E093D806C1
:103870009ECFFD01DC01C0CF13821282D7CFB0E012
:10388000A0E0E5E4FCE10C94BD1A8C01009751F432
:10389000CB010E941A1B8C01C801CDB7DEB7E0E155
:1038A0000C94D91AFC01E60FF71F9C012250310934
:1038B000E217F30708F49DC0D901CD91DC9111976F
:1038C000C617D70798F0C530D10530F3CE0104975D
:1038D0008617970708F3C61BD70B2297C193D1937E
:1038E0006D937C93CF010E94B61BD6CF5B01AC1ABF
:1038F000BD0A4C018C0E9D1EA091D806B091D90630
:10390000512C412CF12CE12C109731F58091D606E9
:103910009091D7068815990509F05CC046165706A0
:1039200008F058C08091130190911401009741F460
:103930008DB79EB74091170150911801841B950BCC
:10394000E817F90708F055C0F093D706E093D606BC
:10395000F90171836083A0CF8D919C91119712968C
:103960006C90129713967C901397A815B90559F58A
:103970006C0142E0C40ED11CCA14DB0420F1AC017E
:103980004A195B09DA011296159780F062827382F8
:1039900051834083D9016D937C93E114F10471F05C
:1039A000D7011396FC93EE93129776CF22968C0F45
:1039B0009D1FF90191838083F301EFCFF093D90626
:1039C000E093D80669CF4816590608F42C017D010A
:1039D000D3019ACFCB010E941A1B7C01009749F0BA
:1039E000AE01B8010E940E1DC8010E94B61B8701DE
:1039F00053CF10E000E050CF81E090E0F8940C94B9
:103A0000271DFB01DC0104C08D910190801921F478
:103A100041505040C8F7881B990B0895FB01DC0109
:103A200002C001900D9241505040D8F70895FB011B
:103A3000DC018D91019080190110D9F3990B089543
:103A4000FB01DC0101900D920020E1F7089513E0E5
:103A5000CCE6D3E004C0FE010E94141B2196CD36B3
:083A6000D107C9F7F894FFCF6C
:103A68000000FF06FAD509001F000100010000FF51
:103A780000FF000000DA068000FFFFFFFFFFFF41A4
:103A88004800006B006C006D00000000008B07EB25
:103A9800061807F307490727073B07000000004EF1
:103AA8000D210DD40DFE0CE4060E0DFF0C000000D8
:103AB800002509EB06D40DD30D9A0D0D0A000A2036
:103AC80053797374656D20737461727475702E2EDA
:103AD8002E0047616D6520676F696E67206C697697
:103AE800652C206B696C6C696E67206C69676874FB
:103AF8007320616E64206C6F636B696E67207468F5
:103B08006520646F6F720047616D65206C6976652A
:103B18000A206B696C6C696E67206C6967687473DE
:103B28000A206C6F636B696E67002142722C002C4F
:103B3800446F6E652E00436865636B696E6720701D
:103B4800726573656E636520666F72207265616465
:103B580065720041757468206661696C65640072FD
:103B6800656164206661696C6564007265616420E2
:103B7800656D7074792064617461626C6F636B2029
:103B88002D3E20696E76616C696400436F727265C0
:103B98006374206361726420706C616365642100E2
:103BA800362E30342E3230323200312E342E32005E
:103BB800454E545F53545F425245414B4F55540054
:103BC80053595300216865616465725F626567696E
:103BD8006E00216865616465725F656E64002173BB
:103BE800657475705F626567696E00574454206537
:103BF8006E6461626C6564004932433A202E2E2E51
:103C08002000466F756E6420616464726573733A50
:103C180020002028307800292020004B6579706129
:103C280064202864656661756C7429004B65797039
:103C380061642F494F004F6C6564202028646566D5
:103C480061756C7429004F6C65640052656C61790C
:103C580000556E6B6E6F776E00466F756E64200050
:103C6800206465766963652873292E004932433AD2
:103C7800204F4B210020202020200052656C6179C4
:103C8800205B005D2073657420746F2000524649E4
:103C9800443A202E2E2E2000524649443A204641CE
:103CA800494C45442100524649443A204F4B210093
:103CB8004C45443A202E2E2E20004C45443A204FA5
:103CC8004B21002173657475705F656E64003D3D1E
:103CD8003D3D3D3D3D3D3D3D3D3D3D3D3D3D3D3D0C
:103CE8003D53544152543D3D3D3D3D3D3D3D3D3D9F
:103CF8003D3D3D3D3D3D3D3D3D3D3D006C6F6F7063
:103D08000047616D6520656E6465640A20677265A9
:103D1800656E206C69676874730A206F70656E2021
:103D2800646F6F720047616D6520656E6465642C11
:103D3800206861766520736F6D65206C69676874AB
:103D480020616E6420616E206F70656E20646F6FF5
:103D58007200726F6F6D20686173206265656E20F6
:103D6800736F6C7665642C2077616974696E67205F
:103D7800666F722063617264206265696E67207283
:103D8800656D6F76656420746F2061726D2074684C
:103D98006520726F6F6D0063617264207374696C63
:103DA8006C2070726573656E740063617264207252
:103DB800656D6F7665642C20696E637265617369E1
:0A3DC8006E672074696D65720000DB
:00000001FF
