:100000000C944A030C9472030C9472030C947910B0
:100010000C9454100C942F100C9472030C947203D3
:100020000C9472030C9472030C9472030C9472037C
:100030000C9472030C9472030C9472030C9472036C
:100040000C948D0F0C9472030C94FD0F0C94D70F2D
:100050000C9472030C9472030C9472030C9472034C
:100060000C949E100C947203AEB08180A1A6A83FA0
:10007000AD8B32C8D300D580D91FDA12DB40AF0078
:1000800000000023002600290000030C0F30333C41
:100090003FC0C3CCCFF0F3FCFF00000000240027DA
:1000A000002A002B2D2D2D2D2D2D2D2D2D2D2D2DDF
:1000B0002D2D2D2D2D2D2D2D2B007C20202020456C
:1000C0006C656374726F7363617065202020207C9F
:1000D000002B2D2D2D2D2D2D2D2D2D2D2D2D2D2D7F
:1000E0002D2D2D2D2D2D2B000A3D3D3D3D3D20522A
:1000F000454C415920494E495420283078003A2037
:100100004669726D7761726520760020202D20503F
:100110004E350020202D20504E353332207374612F
:10012000727475702074696D6564206F7574000059
:10013000000000250028002B00040404040404042B
:100140000402020202020203030303030301020486
:100150000810204080010204081020010204081049
:100160002000000008000201000003040700000056
:1001700000000000001C620A0C2060020205080753
:100180000D08020404050702040206070607070714
:1001900007070707070202070707050A07070708F7
:1001A00006060808040607070908090709080708DA
:1001B00008070C07080604060408090306060606D5
:1001C00006050606020407020A06060606050505D8
:1001D00006060A0606050602060809000000007E5B
:1001E0007E303007070007070000000000C0D8F885
:1001F000DED8F8DE180030000030000000387C64E3
:10020000FF64E4C8102020F02030103C7E427E3C89
:10021000C02018E6F010F0E0000000003000000000
:100220001030203010DCFE227EDC80602010302078
:10023000202010302007070000F8FE07011070E0B2
:10024000800107FEF880E07010120C3F0C120000D5
:10025000000000202020FC202020000000100000D2
:10026000000000F07020202020000000000000307E
:10027000300080E07C1F03C0F030000000FCFE0274
:100280000202FEFC103020202030100404FEFE008C
:1002900000202030302020040682C2623E1C203024
:1002A00030202020200406222222FEDC10302020D4
:1002B000203010C0A09884FEFE8000000000303086
:1002C00000001E1E1212F2E210302020203010F822
:1002D000FC161212F2E010302020203010020282B0
:1002E000E27A1E0600203010000000DCFE222222EE
:1002F000FEDC103020202030103C7E424242FEFCCA
:1003000000202020301000181830301818F07060CD
:100310006090900808040000000010102090909059
:100320009090909000000000000000040808909059
:100330006060201010000000000462721E0C00308B
:10034000300000F00CF4FA0AFAFA040CF000302045
:100350005050505010100080F8FE86FEF88030306B
:100360000000003030FEFE22223EFCC03030202053
:10037000203010F8FC060202020400103020202079
:1003800010FEFE02020206FCF83030202020301061
:1003900000FEFE22222222303020202020FEFE22DB
:1003A000222222303000000000F8FC06024242C245
:1003B000C40010302020203030FEFE20202020FEFF
:1003C000FE303000000000303002FEFE02203030EF
:1003D0002000020202FEFE202020203010FEFE70CF
:1003E000D88C060230300000103020FEFE000000E5
:1003F000000030302020202020FE0E3CF0C0300CC9
:10040000FEFE300000000000003030FE061C38E028
:10041000C000FE3000000000103030F8FC06020280
:100420000206FCF8001030202020301000FEFE42B2
:1004300042427E3C30300000000000F8FC06020220
:100440000206FCF80010302060E0B09080FEFE2232
:1004500062E2BE1C0030300000001030201C3E3232
:100460002262E2C410202020203010020202FEFE90
:100470000202020000003030000000FEFE0000001A
:1004800000FEFE10302020202030100E7EF080F084
:100490007E0E000030303000000E7EF080E03E3EE8
:1004A000E080F07E0E0000303000000000303000B0
:1004B00000068EF870F88E063030000000303006EE
:1004C0000E18F0F0180E0600000030300000000298
:1004D000C2F23E0E02303020202020FFFF0101F04A
:1004E000F08080031F7CE0800000000030F0C0013D
:1004F00001FFFF8080F0F010180C06060C181000A9
:1005000000000000000000000000000000000000EB
:10051000808080808080808080010302000000C095
:10052000E82828F8F0103020203030FFFF0808F8C5
:10053000F0303020203010F0F8080808101030207B
:10054000202010F0F80808FFFF103020203030F095
:10055000F84848787010302020201008FEFF090964
:100560000030300000F0F80808F8F810B0A0A0F053
:1005700070FFFF0808F8F0303000003030FBFB302F
:10058000300008FBFB8080F070FFFF60F0980800EF
:1005900030300000103020FFFF3030F8F81008F83D
:1005A000F01008F8F030300000303000003030F843
:1005B000F80808F8F0303000003030F0F80808F89B
:1005C000F0103020203010F8F80808F8F0F0F02093
:1005D000203010F0F80808F8F810302020F0F0F87B
:1005E000F81018183030000000307848C8882020F3
:1005F00020301008FEFE08080010302020F8F80017
:1006000000F8F810302020303038F8C0C0F838003A
:10061000103030100078F880C03838C080F878008A
:1006200030300000000030300018B8E0E0B818307A
:10063000300000303038F8C0C0F8380090F070104A
:100640000008C8E8781830302020202020FEDF0184
:1006500001000070F08080FFFFF0F00101DFFE205C
:10066000208080F0700000E010102040808070003A
:1006700000000000000000FE02020202020202FE70
:1006800030202020202020203068001780400200E9
:10069000BD11F41511241FBECFEFD8E0DEBFCDBFD2
:1006A00025E0AEE6B3E001C01D92A33DB207E1F73D
:1006B00013E0A0E0B1E0E8E5F1E302C005900D929F
:1006C000AE36B107D9F713E0C9E4D3E004C02197EF
:1006D000FE010E948C16C834D107C9F70E9461122E
:1006E0000C949F180C9400000895089590E0FC016C
:1006F000EF59FE4F2491FC01E35BFE4F3491FC0166
:10070000E75CFE4FE491EE23C9F0222339F0233059
:1007100001F1A8F4213019F1223029F1F0E0EE0FB7
:10072000FF1FE15DFE4FA591B4918FB7F894EC9156
:10073000611126C030953E233C938FBF089527302A
:10074000A9F02830C9F0243049F7809180008F7DCE
:1007500003C0809180008F7780938000DFCF84B5C5
:100760008F7784BDDBCF84B58F7DFBCF8091B000C8
:100770008F778093B000D2CF8091B0008F7DF9CF7A
:100780003E2BDACF3FB7F89480911004909111047A
:10079000A0911204B091130426B5A89B05C02F3F69
:1007A00019F00196A11DB11D3FBFBA2FA92F982F97
:1007B0008827BC01CD01620F711D811D911D42E092
:1007C000660F771F881F991F4A95D1F708958F925A
:1007D0009F92AF92BF92CF92DF92EF92FF924B0126
:1007E0005C010E94C2036B017C010E94C2036C1970
:1007F0007D098E099F09683E734081059105A8F324
:1008000021E0821A9108A108B10888EEC80E83E0A1
:10081000D81EE11CF11C81149104A104B10429F734
:10082000FF90EF90DF90CF90BF90AF909F908F9010
:1008300008958091180490911904891B990B0895CB
:10084000AF92BF92CF92DF92EF92FF920F931F93DE
:10085000CF93DF936C017B018B01040F151FEB011C
:100860005E01AE18BF08C017D10759F06991D601D3
:10087000ED91FC910190F081E02DC6010995892B45
:1008800079F7C501DF91CF911F910F91FF90EF9004
:10089000DF90CF90BF90AF900895FC01538D448DB1
:1008A000252F30E0842F90E0821B930B541710F01B
:1008B000CF96089501970895FC01918D828D981728
:1008C00061F0A28DAE0FBF2FB11D5D968C91928D00
:1008D0009F5F9F73928F90E008958FEF9FEF089531
:1008E000FC01918D828D981731F0828DE80FF11DFA
:1008F000858D90E008958FEF9FEF0895FC01918D15
:10090000228D892F90E0805C9F4F821B91098F730D
:10091000992708958AE694E00E947E0421E0892BBD
:1009200009F420E0822F089580E090E0892B29F0DF
:100930000E948A0481110C9400000895FC01A48D8A
:10094000A80FB92FB11DA35ABF4F2C91848D90E0F1
:1009500001968F739927848FA689B7892C93A089D4
:10096000B1898C91837080648C93938D848D98135E
:1009700006C00288F389E02D80818F7D80830895F1
:10098000EF92FF920F931F93CF93DF93EC0181E0DF
:10099000888F9B8D8C8D98131AC0E889F989808186
:1009A00085FF15C09FB7F894EE89FF896083E889B9
:1009B000F98980818370806480839FBF81E090E0AB
:1009C000DF91CF911F910F91FF90EF900895F62E38
:1009D0000B8D10E00F5F1F4F0F731127E02E8C8DD2
:1009E0008E110CC00FB607FCFACFE889F989808117
:1009F00085FFF5CFCE010E949E04F1CFEB8DEC0F69
:100A0000FD2FF11DE35AFF4FF0829FB7F8940B8F33
:100A1000EA89FB8980818062CFCF0F931F93CF93A8
:100A2000DF938C01D0E0C0E0F801EC0FFD1F649172
:100A3000662341F08AE694E00E94C004892B11F0FD
:100A40002196F2CFCE01DF91CF911F910F910895A2
:100A5000CF93DF93EC01888D8823B9F0AA89BB89F5
:100A6000E889F9898C9185FD03C0808186FD0DC0E0
:100A70000FB607FCF7CF8C9185FFF2CF808185FF01
:100A8000EDCFCE010E949E04E9CFDF91CF91089572
:100A9000DC01ED91FC910284F385E02D0995089528
:100AA000DC01ED91FC910190F081E02D0995089514
:100AB00064EF71E080E090E00C94E703CF93DF9364
:100AC000EC019C818E81981758F4E881F9810084AB
:100AD000F185E02D42E0CE0109958C818F5F8C83FA
:100AE000DF91CF910895DC01ED91FC910084F185B7
:100AF000E02D40E009940F931F93CF938C01FC01EC
:100B00006483C085C60F6C2F6F700E9473056C2FB5
:100B100062956F706061C801CF911F910F910C9425
:100B20007305FC012781269526952695621720F4EA
:100B30006583606B0C94730508951F93CF93DF93C7
:100B4000EC01142F8E81681718F4CE010E947B05EA
:100B5000612FCE01DF91CF911F910C949105CF921F
:100B6000DF92EF92FF920F931F93CF93DF93EC01ED
:100B7000162FC42ED22E8F818695869586950817BE
:100B800010F00FEF080FFD2C0F15B0F08E81181725
:100B900020F4612FCE010E947B056F2DCE010E94B3
:100BA0009105E12ECE1430F060E0CE010E945E058A
:100BB000E394F8CFF394E8CF4D2D612FCE01DF9170
:100BC000CF911F910F91FF90EF90DF90CF900C94F9
:100BD0009D052F923F924F925F926F927F928F92DC
:100BE0009F92AF92BF92CF92DF92EF92FF920F93BC
:100BF0001F93CF93DF9300D000D01F92CDB7DEB705
:100C0000DC011B960D911C910115110509F468C1B9
:100C10009D838C83F8014491319654913196649070
:100C200031962491E22EF12CF7E0EF0EF11C73E0E7
:100C3000F594E7947A95E1F7E982F80134963491D6
:100C40003196E491631748F08E2F90E0FC01E30F9A
:100C5000F11D6E171F060CF487C06D3031F5AC81A5
:100C6000BD8116968C9181111AC081E090E00F90A1
:100C70000F900F900F900F90DF91CF911F910F91D8
:100C8000FF90EF90DF90CF90BF90AF909F908F90AC
:100C90007F906F905F904F903F902F90089560E00D
:100CA0008C819D810E947B05E0CF6A3009F018C1DC
:100CB000EC81FD818185D5808E9DD00C11248781AA
:100CC000869586958695D81630F08285882319F00A
:100CD00082E08287D12C4D2D60E08C819D810E9425
:100CE0009D05AC81BD811A968C911A97823008F4CB
:100CF000BCCF15962C9115971B96ED91FC911C97E6
:100D000000E0309739F03396E49119960C91E09F0A
:100D1000002D112410E0095F1F4F33E01595079552
:100D20003A95E1F78FEF820F080FEC81FD81468144
:100D300041506481CF010E94AF05AC81BD811996FD
:100D40008C9119976D2D8E9D600D1124660F660F85
:100D5000660F17968C91861708F460E060648C81AA
:100D60009D810E94730581CF4527542745270A5F3F
:100D70001F4F631BEC81FD8121844230510508F037
:100D80006DC0452B09F0212C6E9CC0016F9C900D0D
:100D90001124689FF001699FF00D11240E0F1F1F91
:100DA000512CAC81BD811496BC91BA83EC81FD813C
:100DB000F581FB83862C912CAA24A394B12C312C91
:100DC0008981381608F086C0412CAC81BD81199606
:100DD0008C91481608F077C0311002C0442041F0D1
:100DE000EC81FD8145814F5F6A81CF010E949D05A5
:100DF000D12CC12CC61408F05AC0F801EC0DFD1D11
:100E00007490552061F0EA14FB0449F4E72DF0E0FA
:100E1000052C02C0F595E7950A94E2F77E2EAC8189
:100E2000BD8119968C91823081F4442009F43BC035
:100E300072948FE07822E72DF0E0E757FF4F74902F
:100E4000672D8C819D810E945E05672D8C819D811F
:100E50000E945E05EFEFCE1ADE0ACCCF277038E095
:100E6000532E521A211101C0512C50E040E030E0C5
:100E700020E0F801461740F4E40FF51FE4912E0F2F
:100E8000311D4F5F5F4FF5CFE60FF11D6490E29E7D
:100E9000F001E39EF00DF29EF00D11248E0F9F1FC6
:100EA000080F191F7ECFB72DBF707B2EC4CFD12C5A
:100EB0002D1439F060E08C819D810E945E05D394F1
:100EC000F7CF439482CF3394080D191DFFEFAF1A6B
:100ED000BF0A76CF6B818C819D810E949105C5CE22
:100EE00090E080E0C4CE0F93CF93DF93EC010F81AD
:100EF00006950695069501504E81415020E060E030
:100F00000E94AF0581E09A85911101C080E08A8737
:100F100060E4CE01DF91CF910F910C94730590E0C6
:100F2000FC01EE0FFF1FED57FF4FA591B4912C91DF
:100F3000FC01EE5FFB4F30812083880F991FFC017D
:100F4000E15EFE4F0190F081E02D808108952091B7
:100F5000AF03260F3327331F21323105ECF42091E4
:100F60006004FC0190E080E0243069F082E00895A4
:100F7000A091AF032191AC0141575C4FA40FB52F55
:100F8000B11D2C930196861798F38091AF03680FDB
:100F90006093AF0380E0089581E0089510926004AB
:100FA00081E080933F0410923A0461E082E10E9464
:100FB000760361E083E10E947603E9EBF0E0808153
:100FC0008E7F808380818D7F808388E48093B800CA
:100FD00085E48093BC0008951092190410921804BF
:100FE00010926704109266040E94CE0784E793E093
:100FF000909317048093160485E793E0909315046B
:101000008093140408950C94EC07CF93DF9391E040
:1010100090938E038823B9F0C091B800D091BA00A4
:101020008091BC008A7B8093BC0060E082E10E94DA
:10103000760360E083E10E9476030E94CE07D0939E
:10104000BA00C093B800DF91CF910895CF92DF929C
:10105000EF92FF920F931F93CF93DF93D82FC62F5A
:10106000613208F098C00E94C2036B017C0180913C
:10107000600481116BC081E08093600480933F0421
:101080009FEF90933E0410923D049C0F90933C047C
:1010900080933B0480913B04DD0FD82BD0933B041D
:1010A00080913A04813009F078C010923A040E948D
:1010B000C2036B017C0180913B048093BB00809153
:1010C000620490916304A0916404B0916504892B3B
:1010D0008A2B8B2BA1F00E94C20300916204109115
:1010E000630420916404309165046C197D098E09B4
:1010F0009F09061717072807390708F448C0809189
:10110000BC0083FDD8CF85EC8093BC000E94C20355
:101110006B017C0180916004813009F440C08091B2
:101120003D048C1710F4C0913D04EAE1F4E0A0E422
:10113000B4E080E08C1355C08C2FDF91CF911F91CC
:101140000F91FF90EF90DF90CF900895809162040F
:1011500090916304A0916404B0916504892B8A2B5B
:101160008B2B09F484CF0E94C2030091620410917A
:10117000630420916404309165046C197D098E0923
:101180009F09061717072807390708F070CF8091C5
:1011900061040E940508C0E0CFCF85EEB5CF8091F5
:1011A000620490916304A0916404B0916504892B5A
:1011B0008A2B8B2B09F4AECF0E94C20300916204EC
:1011C0001091630420916404309165046C197D09C9
:1011D0008E099F09061717072807390708F09ACFC5
:1011E000D6CF91919D938F5FA5CF0895E09119047B
:1011F00080911804E81730F4F0E0E05CFB4F808148
:1012000090E008958FEF9FEF0895909119048091D9
:1012100018042FEF3FEF981748F4E92FF0E0E05C57
:10122000FB4F208130E09F5F90931904C90108951E
:10123000CF92DF92EF92FF920F931F93CF93DF93A2
:101240007C01CB018A0120916904222389F0EB0102
:101250006B01C40ED51ECC15DD0569F06991D7016F
:10126000ED91FC910190F081E02DC7010995F3CF3C
:10127000642F0E94A707C801DF91CF911F910F91A2
:10128000FF90EF90DF90CF900895CF93DF931F9260
:10129000CDB7DEB76983209169042223F9F020914C
:1012A0006604203258F021E030E0FC0133832283D1
:1012B00090E080E00F90DF91CF91089580916704D6
:1012C000E82FF0E0E259FC4F998190838F5F809383
:1012D00067048093660481E090E0ECCF61E0CE018A
:1012E00001960E94A707F7CFCF92DF92EF92FF926D
:1012F0000F931F93CF93DF93D091660481E0D13297
:1013000008F09CC0C09168040E94C2036B017C017C
:101310008091600481116CC082E08093600481E060
:1013200080933F048FEF80933E0410923D04D0934E
:101330003C04AEE6B3E0EAE1F4E080E0D8138DC00F
:1013400010923B0480913B04CC0FC82BC0933B040C
:1013500080913A04813009F084C010923A040E94CE
:10136000C2036B017C0180913B048093BB008091A0
:10137000620490916304A0916404B0916504892B88
:101380008A2B8B2BA1F00E94C20300916204109162
:10139000630420916404309165046C197D098E0901
:1013A0009F09061717072807390708F442C08091DC
:1013B000BC0083FDD8CF85EC8093BC000E94C203A3
:1013C0006B017C0180916004823009F44CC08091F3
:1013D0003E048F3F09F469C080913E04803209F4D5
:1013E00066C080913E04803309F463C084E026C067
:1013F0008091620490916304A0916404B0916504AB
:10140000892B8A2B8B2B09F483CF0E94C203009176
:1014100062041091630420916404309165046C1996
:101420007D098E099F09061717072807390708F055
:101430006FCF809161040E94050885E010926704D7
:101440001092660410926904DF91CF911F910F9161
:10145000FF90EF90DF90CF9008959D9191938F5FD3
:101460006DCF85EEA9CF8091620490916304A09125
:101470006404B0916504892B8A2B8B2B09F4A2CFCD
:101480000E94C203009162041091630420916404DD
:10149000309165046C197D098E099F09061717079D
:1014A0002807390708F08ECFC4CF80E0C7CF82E08D
:1014B000C5CF83E0C3CFE7E0F5E091816281808111
:1014C000238131E03093690420936804109267040B
:1014D0001092660460956923682B87E895E00E9466
:1014E000450987E895E00C9474090F931F93CF93F7
:1014F000DF93EC01062F142F8E85813120F4882391
:1015000039F0411105C087E895E00E9474091E86F4
:101510008E85811112C08D8591E09093690480932E
:101520006804109267041092660460E4111101C00F
:1015300060E087E895E00E944509602F87E895E024
:101540000E944509123041F48E858F5F8E87DF91AE
:10155000CF911F910F91089587E895E00E9474093B
:101560001E86F5CF089590E080E008956F927F92F7
:101570008F929F92AF92BF92CF92DF92EF92FF92A3
:101580000F931F93CF93DF9300D000D000D0CDB73F
:10159000DEB78C01B62EA72E742E690186E0E9E035
:1015A000F1E0DE01119601900D928A95E1F7F12CA0
:1015B000E12C66E084E20E942608109219048093D0
:1015C0001804811112C061E070E080E090E00E9498
:1015D000E7038FEFE81AF80AC114D10451F3CE14CF
:1015E000DF0438F78FEF9FEF10C0F80182819381FD
:1015F0000E94480580FFE7CFF801828193810E9415
:101600004805882339F18DEF9FEFF12CE12C98E00C
:10161000992E980E692DF0E2F91508F460E284E243
:101620000E9426081092190480931804811149C061
:1016300061E070E080E090E00E94E7038FEFE81A3D
:10164000F80AC114D10431F3CE14DF0418F78FEF78
:101650009FEF47C0F801828193810E944805811164
:10166000D2CFF801828193810E9448058F3F59F6BD
:10167000F801828193810E944805682E81E0809361
:10168000690484E2809368041092670410926604EF
:10169000CE0101967C014E0197E0890E911CF70165
:1016A00061917F01F801828193810E9450058E141F
:1016B0009F04A9F7F801828193810E947409862D05
:1016C000A4CFF801828193810E94480580FFB0CFAA
:1016D000F801828193810E9448058823B9F08DEF3B
:1016E0009FEF26960FB6F894DEBF0FBECDBFDF91F9
:1016F000CF911F910F91FF90EF90DF90CF90BF900F
:10170000AF909F908F907F906F900895F8018281A5
:1017100093810E9448058111E2CFF8018281938173
:101720000E9448058F3FD9F6F801828193810E947B
:101730004805F82EF801828193810E9448058F0D9B
:1017400071F6F801E480DD24D394DE0C828193816C
:101750000E944805853D19F6F801828193810E9417
:101760004805D812BCCFFA94FA948CEF9FEF7F14FF
:1017700008F4B7CFF6EDEF0E9B2CCB2CDA2CF8014A
:10178000828193812C2D29192F1538F40E94480548
:10179000F60181936F01E80EF2CF0E9448058E0D8D
:1017A00009F09DCFF801828193810E9448058F2D19
:1017B00090E097CF0E947418FC018081918100977E
:1017C00011F00C942E170895FB0101900020E9F709
:1017D0003197AF01461B570BDC01ED91FC91028064
:1017E000F381E02D09948F929F92AF92BF920F9355
:1017F0001F93CF93DF93CDB7DEB7A1970FB6F894C1
:10180000DEBF0FBECDBF19A2423008F44AE08E0100
:101810000F5D1F4F842E912CB12CA12CA50194019A
:101820000E946A16E62FB901CA01EA3004F5E05DAC
:10183000D801EE938D01232B242B252B79F790E0F3
:1018400080E0109729F0BD018AE694E00E94E40B45
:10185000A1960FB6F894DEBF0FBECDBFDF91CF913A
:101860001F910F91BF90AF909F908F900895E95C6A
:10187000DFCFCF92DF92EF92FF92CF93DF936B0196
:101880007C016DE28AE694E00E94C004EC016627C8
:101890007727CB016C197D098E099F094AE00E94C8
:1018A000F30B8C0F9D1FDF91CF91FF90EF90DF9096
:1018B000CF90089563E671E00C94E40BCF93DF932F
:1018C0000E940D05EC018AE694E00E945A0C8C0FF0
:1018D0009D1FDF91CF9108950F931F93CF93DF93B7
:1018E000EC010E94E40B8C01CE010E945A0C800F87
:1018F000911FDF91CF911F910F910895BF92CF92C9
:10190000DF92EF92FF920F931F93CF93DF9300D05C
:1019100000D000D0CDB7DEB78C0186E0E9E8F6E074
:10192000DE01119601900D928A95E1F7D8011E967D
:101930001C921E978CE31D968C931D9714961C92F7
:10194000149715961C921597FE013196C590D49068
:10195000FE013396B4903196E4911696EC93169767
:10196000FE013596E4911796EC931797FE01369693
:10197000E4911896EC93F12CE12CEB1458F4F70158
:10198000EC0DFD1D6491C8010E947305BFEFEB1AB9
:10199000FB0AF3CFF8011286C8010E947307C80141
:1019A0000E94730785E791E0D8011C969C938E9363
:1019B0001B9766E671E0C8010E946C0C81E02696D8
:1019C0000FB6F894DEBF0FBECDBFDF91CF911F9150
:1019D0000F91FF90EF90DF90CF90BF9008951092FD
:1019E0000A04109209046AE771E08AE694E00E9412
:1019F0006C0C81E080930201E7E0F5E080818E7F4E
:101A000080830C945B0AEF92FF920F931F93CF9306
:101A1000DF93EC017B01198218821B821A821D82DE
:101A20001C82FB0101900020E9F731978F01061B12
:101A3000170BB8016F5F7F4F90E080E00E94B717EF
:101A40000097B9F0998388831B830A832C813D8199
:101A5000232B11F4FC0110821D830C83B7018881B4
:101A60009981DF91CF911F910F91FF90EF900C948E
:101A7000981888819981009711F00E942E17198279
:101A800018821D821C821B821A82DF91CF911F91C6
:101A90000F91FF90EF9008955F926F927F928F92D7
:101AA0009F92AF92BF92CF92DF92EF92FF920F93ED
:101AB0001F93CF93DF93CDB7DEB72C970FB6F89473
:101AC000DEBF0FBECDBF7C016B01842EB22E532E24
:101AD000FB018081F70184838281938121E020933F
:101AE000690424E22093680410926704109266044B
:101AF00060E00E94500560E0F701828193810E94BE
:101B000050056FEFF701828193810E945005182DD7
:101B1000100F61E0610FF701828193810E945005EF
:101B2000612F6095F701828193810E94500564EDD9
:101B3000F701828193810E9450058C0C9D2C911C91
:101B400014EDF70182819381C814D904C9F4CB2C18
:101B5000D52C5601A00EB11CF70182819381CA14C5
:101B6000DB0499F14601F60160810E94500588234B
:101B700071F0FFEFCF1ADF0AF4018081180FECCF6C
:101B80003601F60160810E945005811117C08DEF6A
:101B90002C960FB6F894DEBF0FBECDBFDF91CF916C
:101BA0001F910F91FF90EF90DF90CF90BF90AF907B
:101BB0009F908F907F906F905F900895FFEFCF1A66
:101BC000DF0AF3018081180FBCCF612F61950E945D
:101BD000500560E0F701828193810E945005F70172
:101BE000828193810E94740986E0EFE0F1E0DE01DA
:101BF000179601900D928A95E1F70BE010E067E0EF
:101C000084E20E942608109219048093180481111E
:101C10000BC061E070E080E090E00E94E7030150BB
:101C2000110969F78EEFB4CFF701828193810E9489
:101C3000480580FFEECF8E010F5F1F4F6E01F7E06A
:101C4000CF0ED11C5801F701828193810E94480573
:101C5000F80181938F01CE16DF06A9F746E050E028
:101C6000B601C5010E94791821E0892B09F420E012
:101C7000822F81958DCF85ED8093BC008091620489
:101C800090916304A0916404B09165040796A11D2E
:101C9000B11D23E0B695A795979587952A95D1F71D
:101CA0002091BC0024FD03C010926004089540916F
:101CB0006204509163046091640470916504452B43
:101CC000462B472B69F30097A105B10541F025E3A9
:101CD0002A95F1F700000197A109B109E1CF8091A0
:101CE00061040C940508EF92FF920F931F93CF931A
:101CF000DF93CDB7DEB76D970FB6F894DEBF0FBE9A
:101D0000CDBF7E0181E1E80EF11C87E0D7011D9275
:101D10008A95E9F786E0E5E1F1E0DE015896019069
:101D20000D928A95E1F71A8219828AE4809345051B
:101D300081E080934605109247058091850590913A
:101D40008605DC01ED91FC910480F581E02D00E039
:101D500030E020E043E065E475E009958111C7C0FB
:101D60008091850590918605DC01ED91FC910680BE
:101D7000F781E02D28EE33E040E465E475E0099555
:101D800097FDB5C080914505813009F0B0C0109134
:101D90004A05ABE4B5E0F7018E2F8E19811718F4D0
:101DA0008D918193F9CF86E0FE017896AEE2B5E0A1
:101DB00001900D928A95E1F7412F50E0B70186E23C
:101DC00095E00E94861810932D0580E480934505C8
:101DD00081E08093460590E69093470580934805FF
:101DE00086E0EEE2F5E0A9E4B5E001900D928A9577
:101DF000E1F7E6E2F5E080E0181721F0919190A775
:101E00008F5FFACF80918505909186054AE0410F5A
:101E1000DC01ED91FC910480F581E02D00E030E0E3
:101E200020E065E475E00995811161C08091850528
:101E300090918605DC01ED91FC910680F781E02D03
:101E400028EE33E040E465E475E0099580914505AE
:101E500081114DC080E48093450581E08093460563
:101E600090E3909347058093480580918505909174
:101E70008605DC01ED91FC910480F581E02D30E0D8
:101E800020E044E065E475E00995811130C080915F
:101E9000850590918605DC01ED91FC910680F78126
:101EA000E02D28EE33E040E465E475E0099580918B
:101EB000450581111CC080E1E6E4F5E0DE011196E4
:101EC00001900D928A95E1F78981882381F0BE0106
:101ED0006F5F7F4F8AE694E00E946C0CBE016F5FDB
:101EE0007F4F8BE191E00E948F18892B71F480E085
:101EF0006D960FB6F894DEBF0FBECDBFDF91CF91C8
:101F00001F910F91FF90EF9008956FEA71E08AE6BC
:101F100094E00E946C0C81E0EBCF1F920F920FB601
:101F20000F9211242F933F938F939F93AF93BF935F
:101F300080910C0490910D04A0910E04B0910F04B7
:101F400030910B0423E0230F2D3758F50196A11D86
:101F5000B11D20930B0480930C0490930D04A09367
:101F60000E04B0930F048091100490911104A0917D
:101F70001204B09113040196A11DB11D80931004A9
:101F800090931104A0931204B0931304BF91AF91E6
:101F90009F918F913F912F910F900FBE0F901F90A7
:101FA000189526E8230F0296A11DB11DD2CF1F92CE
:101FB0000F920FB60F9211242F933F934F935F937D
:101FC0006F937F938F939F93AF93BF93EF93FF9301
:101FD0008AE694E00E949E04FF91EF91BF91AF9139
:101FE0009F918F917F916F915F914F913F912F9131
:101FF0000F900FBE0F901F9018951F920F920FB663
:102000000F9211242F938F939F93EF93FF93E0915F
:102010007A04F0917B048081E0918004F091810446
:1020200082FD1BC09081809183048F5F8F7320910C
:102030008404821741F0E0918304F0E0E659FB4FFD
:10204000958F80938304FF91EF919F918F912F91B2
:102050000F900FBE0F901F9018958081F4CF1F92A4
:102060000F920FB60F9211242F933F934F935F93CC
:102070006F937F938F939F93AF93BF93EF93FF9350
:1020800082E00E948F07FF91EF91BF91AF919F91E6
:102090008F917F916F915F914F913F912F910F9011
:1020A0000FBE0F901F9018951F920F920FB60F92B0
:1020B00011242F933F934F935F936F937F938F934D
:1020C0009F93AF93BF93EF93FF9381E00E948F079D
:1020D000FF91EF91BF91AF919F918F917F916F9100
:1020E0005F914F913F912F910F900FBE0F901F90D6
:1020F00018951F920F920FB60F9211242F933F93B2
:102100004F935F936F937F938F939F93AF93BF93FF
:10211000EF93FF9380E00E948F07FF91EF91BF91B3
:10212000AF919F918F917F916F915F914F913F916F
:102130002F910F900FBE0F901F9018951F920F9226
:102140000FB60F9211242F933F934F935F936F938A
:102150007F938F939F93AF93BF93EF93FF93809160
:10216000B900887F803609F44AC0F0F5883209F456
:10217000A7C018F5803109F49BC0B8F4882309F48E
:10218000F9C0883009F494C0FF91EF91BF91AF91ED
:102190009F918F917F916F915F914F913F912F917F
:1021A0000F900FBE0F901F901895883109F488C0CA
:1021B000803251F780933E0414C0803409F49DC0EE
:1021C00040F48033B9F38833F9F680933E0485EC0C
:1021D000B0C0803509F485C0883509F496C08834CC
:1021E00099F60E943B0ED0CF883909F48CC038F59F
:1021F000883729F050F4883611F0803729F683E0CB
:10220000809360041092D10357C0883809F47BC0D2
:10221000803919F0803809F0B7CF8091D10380322E
:1022200008F071C0E091D10381E08E0F8093D1035B
:102230008091BB00F0E0EF54FC4F80833DC0803BB9
:1022400039F0E0F4803A09F479C0883A09F09CCF7B
:1022500084E0809360041092B0031092AF03E09189
:102260001604F091170409958091AF0381110FC0F6
:1022700081E08093AF0310928F0309C0803C09F482
:10228000A6CF883C09F4A3CF883B09F07DCFE0912D
:10229000B00381E08E0F8093B003F0E0E157FC4F74
:1022A00080818093BB009091B0038091AF0329C0DF
:1022B00080913B048093BB0085EC8093BC0064CF8D
:1022C00090913D0480913C04981758F5E0913D04AD
:1022D00081E08E0F80933D04F0E0E65EFB4F80814D
:1022E000E9CFE0913D0481E08E0F80933D04809121
:1022F000BB00F0E0E65EFB4F808390913D0480914F
:102300003C049817C8F285E8D8CFE0913D0481E0FD
:102310008E0F80933D048091BB00F0E0E65EFB4FA2
:10232000808380913F0481115CCF81E080933A04E7
:1023300084EA8093BC001092600426CF85EC8093E1
:10234000BC00109260048091D103803230F4E0919F
:10235000D103F0E0EF54FC4F10826091D10370E0A4
:10236000E0911404F091150481EB93E0099510922B
:10237000D1030ACF10923E0434CFCF93DF93EAE625
:10238000F4E01382128288EE93E0A0E0B0E0848350
:102390009583A683B78329E231E03183208325EC3E
:1023A00030E03587248724EC30E03787268720EC1F
:1023B00030E0318B208B21EC30E0338B228B22EC10
:1023C00030E0358B248B26EC30E0378B268B118E5A
:1023D000128E138E148EC7E8D5E01B821A828C836E
:1023E0009D83AE83BF838BE391E09983888364EC04
:1023F00071E089EC95E00E94030D6EEC71E083ECD6
:1024000095E00E94030D64ED71E08DEB95E00E9474
:10241000030DEEEAF5E01486158616861382128205
:1024200081E081871486138629E531E0318320839A
:10243000E8E9F5E08083118213821282158214820A
:102440002FEF3FEF3783268310861286118683870E
:10245000148692E0958786871786108A118A128AD9
:10246000E3E9F5E08DE491E091838083D383C28337
:102470001482F0938605E0938505E7E0F5E010828D
:10248000118212821382148215821682178210869C
:10249000118612861386148615861686108A17866C
:1024A000128A118A148A138A168A158A108E178A3C
:1024B000128E118E148E138E168E158EDF91CF9183
:1024C0000895CF93DF93CDB7DEB72F970FB6F8946B
:1024D000DEBF0FBECDBF789484B5826084BD84B565
:1024E000816084BD85B5826085BD85B5816085BD0F
:1024F00080916E00816080936E00109281008091C7
:10250000810082608093810080918100816080934E
:102510008100809180008160809380008091B10073
:1025200084608093B1008091B00081608093B0009E
:1025300080917A00846080937A0080917A00826032
:1025400080937A0080917A00816080937A008091F4
:102550007A00806880937A001092C10088E48093AA
:10256000B8000E94EC07E0917A04F0917B0482E0CD
:102570008083E0917604F09177041082E0917804F2
:10258000F091790480E1808310928204E0917E04CE
:10259000F0917F0486E08083E0917C04F0917D04DB
:1025A000808180618083E0917C04F0917D04808152
:1025B00088608083E0917C04F0917D048081806854
:1025C0008083E0917C04F0917D0480818F7D808305
:1025D00064E670E080E090E00E94E703EBE5F1E064
:1025E0002491E7E4F1E08491882399F090E0880F4A
:1025F000991FFC01E756FF4FA591B491FC01E15DE5
:10260000FE4F859194918FB7F894EC91E22BEC9367
:102610008FBF8AE694E00E945A0C8AE694E00E94FA
:102620005A0C81ED90E00E945E0C8AEB90E00E94D3
:102630005E0C83EA90E00E945E0C64E170E080E052
:1026400090E00E94E70364EE71E08AE694E00E9465
:102650006C0C88E199E20FB6F894A895809360001D
:102660000FBE90936000A8958AE694E00E945A0CF1
:1026700061EF71E08AE694E00E946C0C48E0C42EA1
:10268000D12CE12CF12C01E01C2D00936904C092A7
:102690006804109267041092660487E895E00E942F
:1026A000740981113AC066E072E08AE694E00E9403
:1026B000E40B6BE072E08AE694E00E94E40B40E1F8
:1026C000C701B6010E94F30B66E672E08AE694E069
:1026D0000E94E40B1C3358F46FE172E0193398F454
:1026E0006EE072E0183379F064E472E00CC069E3E4
:1026F00072E01D3341F069E272E01D3320F06EE3B9
:1027000072E01F3389F78AE694E00E946C0C61E066
:1027100070E080E090E00E94E7038FEFC81AD80ACB
:10272000E80AF80AA8E7CA16D104E104F10409F09E
:10273000ABCF6CE472E08AE694E00E946C0CA89542
:1027400088EE90E00E940D0540E16FE370E080E0CC
:1027500090E00E94F30B65E572E08AE694E00E9447
:102760006C0C8FE380930A050E94EC0780910805AA
:1027700080930B0561E080910A050E942608109263
:10278000190480931804811101C0FFCF87E895E0F8
:102790000E940509809308052091090501E010E0D9
:1027A000C8010090050402C0880F991F0A94E2F73F
:1027B000922F982B90930905909107058095892376
:1027C000809307050E945B0A80910504909106049E
:1027D0002091000199279091070501C0000F8A956B
:1027E000EAF721112BC100950923009307050E94E8
:1027F0005B0A66E072E08AE694E00E94E40B6DE515
:1028000072E08AE694E00E94E40B60910504709106
:102810000604072E000C880B990B97FD11C14AE0A6
:102820000E94F30B65E672E08AE694E00E94E40BF6
:102830006091000170910101072E000C880B990B2B
:1028400097FD01C14AE00E94F30B8AE694E00E94E2
:102850005A0C69E672E08AE694E00E946C0C809162
:10286000B0059091B1059C838B838091B2058D83D7
:102870008091B3058E838091B4058F838091B505D7
:1028800088878091B60589878091B7058A8780916E
:10289000B8058B878091B9059091BA059D878C8783
:1028A00089E591E09A8389838091BB058E87809129
:1028B000BC058F87CE0101960E947E0CA8958AE602
:1028C00094E00E945A0C64E772E08AE694E00E9469
:1028D0006C0C8091850590918605DC01ED91FC9151
:1028E0000190F081E02D09958091850590918605F4
:1028F000DC01ED91FC910280F381E02D099582E3EA
:102900008093450585E0809346059FEF90934705AA
:1029100091E09093480580934905809185059091B9
:102920008605DC01ED91FC910480F581E02D00E04D
:1029300030E020E045E065E475E00995811110C0C4
:102940008091850590918605DC01ED91FC910680D2
:10295000F781E02D28EE33E040E465E475E0099569
:102960003CE0A32EB12C12E0109345058091850523
:1029700090918605DC01ED91FC910480F581E02DBC
:1029800000E030E020E041E065E475E0099588234F
:1029900009F45CC0B1E0AB1AB10831F783E191E012
:1029A0000E945E0C6AE872E08AE694E00E946C0C79
:1029B000A8958AE694E00E945A0C8AE694E00E9468
:1029C0005A0C6CE972E08AE694E00E946C0C8AE68C
:1029D00094E00E945A0C0E94EF0C00E010E08091FD
:1029E0000201882309F4CEC00E94730E882309F4E3
:1029F000B8C0809107049091080404977CF06AECB9
:102A000072E08AE694E00E946C0C109202018091C0
:102A100007058160809307050E945B0A8091070487
:102A2000909108040196909308048093070462E350
:102A300070E080E090E00E94E70397C0092BD5CEBC
:102A40000E94390CEFCE0E94390CFFCE8091850593
:102A500090918605DC01ED91FC910680F781E02DD7
:102A600028EE33E040E465E475E0099597FD92CFE8
:102A7000C0904505D0904605DC24CD24DC24F12C03
:102A8000E12CFE2CED2CDC2CCC2480914705C82AAF
:102A9000FE2CED2CDC2CCC2480914805C82AC114D6
:102AA000D104E104F10409F475CF8BE091E00E94B8
:102AB0000D056F2D77278827992740E10E94F30B9A
:102AC0008EEF90E00E940D056E2D70E090E080E0AA
:102AD0004AE00E94F30B6EE28AE694E00E94C00492
:102AE0006D2D70E090E080E04AE00E94F30B8AE6F2
:102AF00094E00E945A0C94E19093450581E0809304
:102B000046059093470580934805809185059091EF
:102B10008605DC01ED91FC910480F581E02D00E05B
:102B200030E020E044E065E475E00995811110C0D3
:102B30008091850590918605DC01ED91FC910680E0
:102B4000F781E02D28EE33E040E465E475E0099577
:102B500062E370E080E090E00E94E70362E972E0E7
:102B600023CF1092080410920704A89501151105AF
:102B700009F435CF0E948A04882309F430CF0E94DB
:102B800000002DCF67EF72E08AE694E00E946C0CA3
:102B90000E94730E882399F06CE373E08AE694E058
:102BA0000E946C0C10920A0410920904809109048E
:102BB00090910A040D979CF00E94EF0CD6CF6FE421
:102BC00073E08AE694E00E946C0C80910904909175
:102BD0000A04059690930A0480930904E7CF68E8F5
:102BE00073E180E090E027CFCF93DF938091A10540
:102BF0009091A2050E942E1780919E0590919F05AD
:102C000097FD23C09927FC01E35BFE4F2491875C6D
:102C10009E4FFC0184918823C1F090E0880F991F9A
:102C2000FC01E756FF4FC591D491FC01E15DFE4FD9
:102C3000A591B4919FB7F8948881E22FE0958E23F7
:102C400088838C91E823EC939FBF8DEB95E00E94E5
:102C5000DC0B83EC95E00E94DC0B89EC95E0DF91C6
:102C6000CF910C94DC0B2F923F924F925F926F9218
:102C70007F928F929F92AF92BF92CF92DF92EF920C
:102C8000FF920F931F93CF93DF93CDB7DEB7CA1B8D
:102C9000DB0B0FB6F894DEBF0FBECDBF09942A88B8
:102CA000398848885F846E847D848C849B84AA8460
:102CB000B984C884DF80EE80FD800C811B81AA81ED
:102CC000B981CE0FD11D0FB6F894DEBF0FBECDBFB8
:102CD000ED010895A1E21A2EAA1BBB1BFD010DC038
:102CE000AA1FBB1FEE1FFF1FA217B307E407F507BC
:102CF00020F0A21BB30BE40BF50B661F771F881F98
:102D0000991F1A9469F760957095809590959B012D
:102D1000AC01BD01CF010895EE0FFF1F0590F491A6
:102D2000E02D09940F931F93CF93DF938230910589
:102D300010F482E090E0E091D105F091D20530E00E
:102D400020E0B0E0A0E0309799F42115310509F4B6
:102D50004AC0281B390B24303105D8F58A819B8164
:102D60006115710589F1FB0193838283FE0111C016
:102D7000408151810281138148175907E0F04817BB
:102D8000590799F4109761F012960C9312971396C5
:102D90001C933296CF01DF91CF911F910F9108952F
:102DA0000093D1051093D205F4CF2115310551F0D0
:102DB0004217530738F0A901DB019A01BD01DF0179
:102DC000F801C1CFEF01F9CF9093D2058093D105DF
:102DD000CDCFFE01E20FF31F819391932250310971
:102DE00039832883D7CF2091CF053091D005232B6D
:102DF00041F420910501309106013093D0052093D4
:102E0000CF0520910301309104012115310541F4D2
:102E10002DB73EB74091070150910801241B350B97
:102E2000E091CF05F091D005E217F307A0F42E1B37
:102E30003F0B2817390778F0AC014E5F5F4F24171E
:102E4000350748F04E0F5F1F5093D0054093CF05D4
:102E5000819391939FCFF0E0E0E09CCFCF93DF93FD
:102E60000097E9F0FC01329713821282A091D105FC
:102E7000B091D205ED0130E020E01097A1F420815F
:102E80003181820F931F2091CF053091D0052817F3
:102E9000390709F061C0F093D005E093CF05DF91C9
:102EA000CF910895EA01CE17DF07E8F54A815B81EB
:102EB0009E0141155105B1F7E901FB83EA83499170
:102EC0005991C40FD51FEC17FD0761F480819181E2
:102ED0000296840F951FE9019983888382819381EB
:102EE0009B838A83F0E0E0E012968D919C9113978A
:102EF0000097B9F52D913C911197CD010296820F63
:102F0000931F2091CF053091D0052817390739F646
:102F1000309751F51092D2051092D105B093D0059B
:102F2000A093CF05BCCFD383C28340815181840F4E
:102F3000951FC817D90761F44E5F5F4F888199814B
:102F4000480F591F518340838A819B8193838283D9
:102F50002115310509F0B0CFF093D205E093D105EA
:102F60009ECFFD01DC01C0CF13821282D7CFB0E02B
:102F7000A0E0EDEBF7E10C9435168C01009751F4CD
:102F8000CB010E9492168C01C801CDB7DEB7E0E1FB
:102F90000C945116FC01E60FF71F9C0122503109D9
:102FA000E217F30708F49DC0D901CD91DC91119788
:102FB000C617D70798F0C530D10530F3CE01049776
:102FC0008617970708F3C61BD70B2297C193D19397
:102FD0006D937C93CF010E942E17D6CF5B01AC1A64
:102FE000BD0A4C018C0E9D1EA091D105B091D20559
:102FF000512C412CF12CE12C109731F58091CF050B
:103000009091D0058815990509F05CC046165706C1
:1030100008F058C08091030190910401009741F499
:103020008DB79EB74091070150910801841B950B05
:10303000E817F90708F055C0F093D005E093CF05E5
:10304000F90171836083A0CF8D919C9111971296A5
:103050006C90129713967C901397A815B90559F5A3
:103060006C0142E0C40ED11CCA14DB0420F1AC0197
:103070004A195B09DA011296159780F06282738211
:1030800051834083D9016D937C93E114F10471F075
:10309000D7011396FC93EE93129776CF22968C0F5E
:1030A0009D1FF90191838083F301EFCFF093D20547
:1030B000E093D10569CF4816590608F42C017D012B
:1030C000D3019ACFCB010E9492167C01009749F060
:1030D000AE01B8010E948618C8010E942E17870110
:1030E00053CF10E000E050CF81E090E0F8940C94D2
:1030F0009F18FB01DC0104C08D910190801921F41F
:1031000041505040C8F7881B990B0895FB01DC0122
:1031100002C001900D9241505040D8F70895FB0134
:10312000DC018D91019080190110D9F3990B08955C
:10313000FB01DC0101900D920020E1F7089513E0FE
:10314000C9E4D3E004C0FE010E948C162196CA3463
:08315000D107C9F7F894FFCF85
:103158000100010000D30580000000FFFF0000000F
:1031680000FF00FF00FFFFFFFFFFFF414800006B6B
:10317800006C006D0000000000C00420044D04280D
:10318800057E045C0470040000000045091809B3BA
:103198000AF50819040509F6080000000003085894
:1031A800054C0DB60A00000000E9052004B30AB278
:1031B8000A750A0D0A000A2053797374656D207325
:1031C8007461727475702E2E2E0047616D652067CC
:1031D8006F696E67206C6976652C206B696C6C6909
:1031E8006E67206C696768747320616E64206C6F09
:1031F800636B696E672074686520646F6F72004343
:103208006F7272656374206361726420706C6163AD
:1032180065642100362E30342E3230323200312EA1
:10322800342E3200454E545F53545F425245414B51
:103238004F55540057445420656E6461626C656450
:10324800003D3D3D3D3D2049324320494E495420F3
:103258003D3D3D3D3D0020202D20003078004B6550
:1032680079706164202864656661756C7429004B07
:1032780065797061642F494F004F6C656420202880
:1032880064656661756C7429004F6C6564005265ED
:103298006C617900556E6B6E6F776E004932433AF8
:1032A80020E29C930029203D3D3D3D3D0052656C48
:1032B8006179205B005D3A200052454C41593A2023
:1032C800E29C93003D3D3D3D3D2052464944204906
:1032D8004E4954203D3D3D3D3D00524649443A202B
:1032E8005800524649443A20E29C93003D3D3D3DFA
:1032F8003D3D3D3D3D3D3D3D3D3D3D3D3D3D3D53E0
:10330800544152543D3D3D3D3D3D3D3D3D3D3D3D9E
:103318003D3D3D3D3D3D3D3D3D0047616D65206581
:103328006E6465642C206861766520736F6D652016
:103338006C6967687420616E6420616E206F7065C7
:103348006E20646F6F7200726F6F6D2068617320FA
:103358006265656E20736F6C7665642C2077616991
:1033680074696E6720666F7220636172642062659B
:10337800696E672072656D6F76656420746F206171
:10338800726D2074686520726F6F6D00636172647E
:10339800207374696C6C2070726573656E74006359
:1033A8006172642072656D6F7665642C20696E6346
:0E33B80072656173696E672074696D657200DD
:00000001FF
