:100000000C94A3010C94CB010C94CB010C94AC1375
:100010000C9487130C9462130C94CB010C94CB01B9
:100020000C94CB010C94CB010C94CB010C94CB0120
:100030000C94CB010C94CB010C94CB010C94CB0110
:100040000C94C0120C94CB010C9430130C940A1332
:100050000C94CB010C94CB010C94CB010C94CB01F0
:100060000C94D1130C94CB01AEB08180A1A6A83F13
:10007000AD8B32C8D300D580D91FDA12DB40AF2B4D
:100080002D2D2D2D2D2D2D2D2D2D2D2D2D2D2D2DA0
:100090002D2D2D2D2B007C20202020456C65637498
:1000A000726F7363617065202020207C000A0A2B28
:1000B0002D2D2D2D2D2D2D2D2D2D2D2D2D2D2D2D70
:1000C0002D2D2D2D2B0000000507206000000000C5
:1000D0000000005F00000007000700147F147F1479
:1000E000242A7F2A122313086462364956205000BE
:1000F00008070300001C2241000041221C002A1CAA
:100100007F1C2A08083E0808008070300008080894
:100110000808000060600020100804023E514945B4
:100120003E00427F400072494949462141494D33D2
:100130001814127F1027454545393C4A4949314139
:10014000211109073649494936464949291E000007
:10015000140000004034000000081422411414145C
:100160001414004122140802015909063E415D5948
:100170004E7C1211127C7F494949363E4141412251
:100180007F4141413E7F494949417F090909013E7B
:10019000414151737F0808087F00417F41002040A2
:1001A000413F017F081422417F404040407F021CB4
:1001B000027F7F0408107F3E4141413E7F090909CB
:1001C000063E4151215E7F09192946264949493297
:1001D00003017F01033F4040403F1F2040201F3F5D
:1001E0004038403F631408146303047804036159E2
:1001F000494D43007F414141020408102000414124
:10020000417F0402010204404040404000030708CF
:100210000020545478407F284444383844444428CB
:10022000384444287F385454541800087E09021872
:10023000A4A49C787F0804047800447D40002040FA
:10024000403D007F1028440000417F40007C04783E
:1002500004787C080404783844444438FC18242486
:100260001818242418FC7C08040408485454542406
:1002700004043F44243C4040207C1C2040201C3C83
:100280004030403C44281028444C9090907C44647A
:10029000544C44000836410000007700000041360D
:1002A000080002010204023C2623263C53756363C6
:1002B00065737366756C006800178040020A0A4F08
:1002C0004C454420696E6974206F6E2041646472ED
:1002D0006573733A20307800000000002400270086
:1002E0002A000000000023002600290000030C0F54
:1002F00030333C3FC0C3CCCFF0F3FCFF0000000024
:10030000250028002B000404040404040404020251
:100310000202020203030303030301020408102084
:10032000408001020408102001020408102000008F
:1003300000080002010000030407000000000000A4
:100340000000F014C31711241FBECFEFD8E0DEBFAA
:10035000CDBF26E0ACE1B3E001C01D92A832B207E8
:10036000E1F713E0A0E0B1E0EEEEFAE302C00590A1
:100370000D92AC31B107D9F711E0C2EAD1E004C067
:100380002197FE010E948E18C13AD107C9F70E9439
:1003900040160C946A1D0C940000CF93DF93EC017F
:1003A00082ED94E0FC0120813181398328834281F0
:1003B0005381648175814A835B836C837D8326814D
:1003C0002E832781308538872F83218532853A8790
:1003D000298726E0EDEDF4E0DE011B9601900D92F9
:1003E0002A95E1F7FC01218932893A8B298B27E094
:1003F000E5EEF4E0DE01539601900D922A95E1F7C7
:1004000026E0ECEEF4E0DE015A9601900D922A957A
:10041000E1F726E0E2EFF4E0DE01909601900D9224
:100420002A95E1F7FC0146A157A160A571A54EA34D
:100430005FA368A779A782A593A5A4A5B5A58AA758
:100440009BA7ACA7BDA780E4E0E0F5E0DE019E96A7
:1004500001900D928A95E1F7DE01A259BF4F80E429
:10046000E0E4F5E001900D928A95E1F78091820534
:1004700090918305FE01E255FF4F938382838AE9C1
:1004800091E09183808380918405848380918505A8
:1004900085838091860586838091870587838091F7
:1004A0008805808780918905818780918A05828768
:1004B00080918B05838780918C05848780918D0541
:1004C000858780918E0590918F059787868780918B
:1004D0009005808B80919105818B88EA91E09183D2
:1004E000808380919205828B80919305838BDE01BE
:1004F000AE53BF4F8FE1E4E9F5E001900D928A958C
:10050000E1F7DE01AF51BF4F87E0E3EBF5E001908B
:100510000D928A95E1F7DE01A851BF4F88E0EAEB22
:10052000F5E001900D928A95E1F7DE01A051BF4FF1
:1005300080E4E2ECF5E001900D928A95E1F780917C
:10054000020690910306C05DDE4F99838883DF9198
:10055000CF91089590E0FC01E25DFC4F2491FC01F5
:10056000E65EFC4F3491FC01EA5FFC4FE491EE2320
:10057000C9F0222339F0233001F1A8F4213019F118
:10058000223029F1F0E0EE0FFF1FE450FD4FA5915E
:10059000B4918FB7F894EC91611126C030953E2349
:1005A0003C938FBF08952730A9F02830C9F024303C
:1005B00049F7809180008F7D03C0809180008F7704
:1005C00080938000DFCF84B58F7784BDDBCF84B587
:1005D0008F7DFBCF8091B0008F778093B000D2CF1A
:1005E0008091B0008F7DF9CF3E2BDACF3FB7F894E2
:1005F0008091C0039091C103A091C203B091C30345
:1006000026B5A89B05C02F3F19F00196A11DB11D6D
:100610003FBFBA2FA92F982F8827BC01CD01620FA9
:10062000711D811D911D42E0660F771F881F991F64
:100630004A95D1F708958F929F92AF92BF92CF9231
:10064000DF92EF92FF924B015C010E94F6026B0178
:100650007C010E94F6026C197D098E099F09683E93
:10066000734081059105A8F321E0821A9108A10841
:10067000B10888EEC80E83E0D81EE11CF11C81147D
:100680009104A104B10429F7FF90EF90DF90CF907F
:10069000BF90AF909F908F9008952FB7F89460917E
:1006A000BC037091BD038091BE039091BF032FBF27
:1006B00008950895DB0114964D915C9115976D9105
:1006C0007C91DC01ED91FC910280F381E02D099495
:1006D000EF92FF920F931F93CF93DF938C017B01D7
:1006E000D0E0C0E0F701EC0FFD1F6491662361F0DC
:1006F000D801ED91FC910190F081E02DC8010995A0
:10070000892B11F02196EECFCE01DF91CF911F9171
:100710000F91FF90EF900895AF92BF92CF92DF922A
:10072000EF92FF920F931F93CF93DF936C017B01A6
:100730008B01040F151FEB015E01AE18BF08C01737
:10074000D10759F06991D601ED91FC910190F081AA
:10075000E02DC6010995892B79F7C501DF91CF916D
:100760001F910F91FF90EF90DF90CF90BF90AF90CF
:100770000895FC01538D448D252F30E0842F90E0A7
:10078000821B930B541710F0CF960895019708958C
:10079000FC01918D828D981761F0A28DAE0FBF2F55
:1007A000B11D5D968C91928D9F5F9F73928F90E0AB
:1007B00008958FEF9FEF0895FC01918D828D98171A
:1007C00031F0828DE80FF11D858D90E008958FEF57
:1007D0009FEF0895FC01918D228D892F90E0805C20
:1007E0009F4F821B91098F739927089584E194E0AC
:1007F0000E94EA0321E0892B09F420E0822F08956A
:1008000080E090E0892B29F00E94F60381110C947E
:1008100000000895FC01A48DA80FB92FB11DA35AA3
:10082000BF4F2C91848D90E001968F739927848F10
:10083000A689B7892C93A089B1898C918370806433
:100840008C93938D848D981306C00288F389E02DD4
:1008500080818F7D80830895EF92FF920F931F9385
:10086000CF93DF93EC0181E0888F9B8D8C8D981363
:100870001AC0E889F989808185FF15C09FB7F8946F
:10088000EE89FF896083E889F989808183708064BB
:1008900080839FBF81E090E0DF91CF911F910F9106
:1008A000FF90EF900895F62E0B8D10E00F5F1F4F15
:1008B0000F731127E02E8C8D8E110CC00FB607FC24
:1008C000FACFE889F989808185FFF5CFCE010E94B2
:1008D0000A04F1CFEB8DEC0FFD2FF11DE35AFF4F12
:1008E000F0829FB7F8940B8FEA89FB898081806240
:1008F000CFCFCF93DF93EC01888D8823B9F0AA89FD
:10090000BB89E889F9898C9185FD03C0808186FDCA
:100910000DC00FB607FCF7CF8C9185FFF2CF808119
:1009200085FFEDCFCE010E940A04E9CFDF91CF9180
:100930000895CF93DF93EC01BC0180E895E00E941D
:100940005A03BE0184E194E00E945A0384E194E0DA
:10095000DF91CF910C947904CF93DF93EC018D85D7
:10096000882329F081508D87DF91CF9108959C8154
:100970008E819817C8F788896827E881F9810084F3
:10098000F185E02D42E0CE0109958C818F5F8C834B
:10099000EBCFDC01ED91FC910084F185E02D40E08E
:1009A0000994FC012781269526952695621738F42F
:1009B00065832385620F6770606B0C94C90408958A
:1009C0000F931F93CF93FC012681621798F4C62FD3
:1009D0008C0164836085C60F6C2F6F700E94C90400
:1009E0006C2F62956F706061C801CF911F910F915C
:1009F0000C94C904CF911F910F910895CF92DF926B
:100A0000EF92FF920F931F93CF93DF93EC01F62E9B
:100A1000C42ED22E1D868F818695869586950817C1
:100A200010F00FEF080F1D2D6F2DCE01011788F06C
:100A30000E94E004612FCE010E94D104EF2CCE145D
:100A400030F06889CE010E94AC04E394F8CF1F5FB8
:100A5000EBCF0E94E0046D2DCE01DF91CF911F916D
:100A60000F91FF90EF90DF90CF900C94D1040F93F3
:100A700010928B0510928A0560E480E895E00E9450
:100A8000C904009187050695069506950150409189
:100A90008605415020E060E080E895E00E94FE0479
:100AA0000F9108952F923F924F925F926F927F9293
:100AB0008F929F92AF92BF92CF92DF92EF92FF926E
:100AC0000F931F93CF93DF9300D000D000D0CDB70A
:100AD000DEB7DC011E962D913C912115310509F4FC
:100AE00070C19E838D83F901329664903196449152
:100AF000E42EF12CB7E0EB0EF11C53E0F594E794F3
:100B00005A95E1F7E982319654913196E4916D302E
:100B1000F1F460E00E94E00481E090E026960FB6D8
:100B2000F894DEBF0FBECDBFDF91CF911F910F9123
:100B3000FF90EF90DF90CF90BF90AF909F908F90FD
:100B40007F906F905F904F903F902F9008956A3004
:100B500009F061C060E08D819E810E94E004ED811A
:100B6000FE8101890E9DE02C112465816E0D848526
:100B7000882349F027812695269526958E2D821B60
:100B8000860F18162CF08D819E810E94D104C4CF4F
:100B9000AD81BE811B969C911B97890F87701B9618
:100BA0008C931B972E1915962C9315971E96ED91E5
:100BB000FC91309771F13396E491F0E0379633E091
:100BC000F595E7953A95E1F70E9F002D1124EFEF8B
:100BD000E20F0E0FED81FE81468141506481CF010D
:100BE0000E94FE04AD81BE811C968C911C978130C1
:100BF00009F092CF1B966C911B97660F660F660FDC
:100C00006F731A966C931A976064CD010E94C904A1
:100C100083CF00E0DCCF651708F4D3C08E2F90E0BF
:100C2000FC01E50FF11D6E171F060CF0CAC089010B
:100C30000A5F1F4F651BED81FE8171855189759F8C
:100C4000502D11245C83F90154912F5F3F4FF9011E
:100C50002491352F2230310508F075C06E9CC001FB
:100C60006F9C900D1124689FF001699FF00D112475
:100C70000E0F1F1F512CAD81BE811496BC91BA83FB
:100C8000ED81FE812580F585FB83862C912CAA249D
:100C9000A394B12C312C8981381608F090C0412CD6
:100CA000AD81BE8151968C915197481608F080C055
:100CB000EB811D96EC93311002C0442079F0AD8198
:100CC000BE811596DC901597D3946A81CD010E9460
:100CD000E0046D2D8D819E810E94D104D12CC12C08
:100CE000C61408F058C0F801EC0DFD1D7490552095
:100CF00061F0EA14FB0449F4E72DF0E0052C02C092
:100D0000F595E7950A94E2F77E2EED81FE818189C3
:100D1000823081F4442009F43AC072948FE0782242
:100D2000E72DF0E0E451FD4F7490672D8D819E8199
:100D30000E94AC04672D8D819E810E94AC048FEFD0
:100D4000C81AD80ACDCF477028E0522E541A411144
:100D500001C0512CF801612C30E020E0661631F022
:100D60004491240F311D63943196F8CF600E712E9B
:100D7000711CF3016490E29EF001E39EF00DF29E7F
:100D8000F00D11248E0F9F1F080F191F74CFF72D20
:100D9000FF707F2EC5CFD12CAC81DA1639F060E020
:100DA0008D819E810E94AC04D394F6CF439478CF7A
:100DB0003394080D191DBFEFAB1ABB0A6CCF622D1F
:100DC000E2CE90E080E0AACE90E0FC01EE0FFF1FA3
:100DD000EA51FD4FA591B4912C91FC01EA54FC4FCE
:100DE00030812083880F991FFC01E25BFE4F019048
:100DF000F081E02D8081089520916103260F332733
:100E0000331F21323105ECF42091EA03FC0190E01C
:100E100080E0243069F082E00895A091610321917F
:100E2000AC01415C5C4FA40FB52FB11D2C93019612
:100E3000861798F380916103680F6093610380E0E7
:100E4000089581E008951092EA0381E08093E90318
:100E50001092C40361E082E10E94AA0261E083E192
:100E60000E94AA02E9EBF0E080818E7F808380817E
:100E70008D7F808388E48093B80085E48093BC00F4
:100E80000895CF93DF9391E090933E038823B9F0C8
:100E9000C091B800D091BA008091BC008A7B809349
:100EA000BC0060E082E10E94AA0260E083E10E944F
:100EB000AA020E942307D093BA00C093B800DF9122
:100EC000CF9108958F929F92AF92BF92CF92DF926F
:100ED000EF92FF920F931F93CF93DF93D091130460
:100EE000D13208F0D7C0182FC09112040E94F60228
:100EF0006B017C018091EA0381116BC082E08093D9
:100F0000EA031093E9038FEF8093E8031092E7035D
:100F1000D093E603A2EFB3E0E6ECF3E080E0D81371
:100F200091C01092C5038091C503CC0FC82BC0930C
:100F3000C5038091C403813009F088C01092C403B6
:100F40000E94F6026B017C018091C5038093BB0077
:100F50008091EC039091ED03A091EE03B091EF032B
:100F6000892B8A2B8B2BA1F00E94F6020091EC03B7
:100F70001091ED032091EE033091EF036C197D0980
:100F80008E099F09061717072807390708F442C07A
:100F90008091BC0083FDD8CF85EC8093BC000E947B
:100FA000F6026B017C018091EA03823009F450C0A3
:100FB0008091E8038F3F09F46FC08091E80380328D
:100FC00009F46CC08091E803803309F469C084E0BF
:100FD00026C08091EC039091ED03A091EE03B091B7
:100FE000EF03892B8A2B8B2B09F484CF0E94F60206
:100FF0008090EC039090ED03A090EE03B090EF038F
:101000006C197D098E099F0986169706A806B906F0
:1010100008F070CF8091EB030E94410785E01092A9
:10102000F103109213041092F003DF91CF911F91FE
:101030000F91FF90EF90DF90CF90BF90AF909F9077
:101040008F9008959D9191938F5F69CF85EEA5CF85
:101050008091EC039091ED03A091EE03B091EF032A
:10106000892B8A2B8B2B09F49ECF0E94F6020091CC
:10107000EC031091ED032091EE033091EF036C1916
:101080007D098E099F09061717072807390708F0F9
:101090008ACFC0CF81E0C3CF80E0C1CF82E0BFCF95
:1010A00083E0BDCF089508950895E0913D038091B8
:1010B0003C03E81730F4F0E0E45EFC4F808190E000
:1010C00008958FEF9FEF089590913D0380913C0329
:1010D0002FEF3FEF981748F4E92FF0E0E45EFC4F64
:1010E000208130E09F5F90933D03C9010895809176
:1010F0003C0390913D03891B990B0895CF92DF9299
:10110000EF92FF920F931F93CF93DF937C01CB015C
:101110008A012091F003222389F0EB016B01C40EB8
:10112000D51ECC15DD0569F06991D701ED91FC91D3
:101130000190F081E02DC7010995F3CF642F0E9443
:10114000FC06C801DF91CF911F910F91FF90EF90A6
:10115000DF90CF900895CF93DF931F92CDB7DEB786
:1011600069832091F0032223F9F0209113042032A7
:1011700058F021E030E0FC013383228390E080E0EE
:101180000F90DF91CF9108958091F103E82FF0E067
:10119000EE50FC4F998190838F5F8093F103809391
:1011A000130481E090E0ECCF61E0CE0101960E9453
:1011B000FC06F7CFFC01918162818081238131E0BF
:1011C0003093F003209312041092F1031092130451
:1011D00060956923682B81EB94E00E94AB0881E065
:1011E0000C9462070F931F93CF93DF93EC01062FAC
:1011F000142F8B89813120F4882331F0411104C0F0
:1012000081E00E9462071B8A8B89811112C08A8942
:1012100091E09093F003809312041092F1031092E6
:10122000130460E4111101C060E081EB94E00E94BE
:10123000AB08602F81EB94E00E94AB08123041F4C0
:101240008B898F5F8B8BDF91CF911F910F910895C9
:1012500081E00E9462071B8AF6CF90E080E008954B
:10126000EF92FF920F931F93CF93DF9300D01F92C3
:10127000CDB7DEB7F62EE72E8C0102591F4FBC0109
:10128000655F7F4FC8010E94B41AEF92FF9282EB14
:1012900091E09F938F93CE0101967C019F938F9352
:1012A0000E94C91AB701C8010E94A01A0F900F909E
:1012B0000F900F900F900F9066EB71E0C8010F90A8
:1012C0000F900F90DF91CF911F910F91FF90EF90B2
:1012D0000C94A01A0E948A1ACF93DF93FC01C0815C
:1012E000D181209761F08991882349F0082E000C64
:1012F000990B0E948F1AFE0131978083F4CFDF9102
:10130000CF910895FC0180819181009711F00C9498
:10131000441908950F931F93CF93DF93EC018881B5
:101320009981009759F02A813B812617370730F0C1
:1013300081E0DF91CF911F910F9108958B016F5F35
:101340007F4F0E94CD19009759F0998388831B83A2
:101350000A832C813D81232B59F7FC011082E8CFB1
:1013600080E0E7CFEF92FF920F931F93CF93DF932D
:10137000EC017B018A01BA010E948A092881398126
:10138000811114C02115310519F0C9010E944419B9
:10139000198218821D821C821B821A82CE01DF9163
:1013A000CF911F910F91FF90EF9008951D830C83B3
:1013B000B701C9010E94B41AF1CFEF92FF920F93C7
:1013C0001F93CF93DF93CDB7DEB762970FB6F89434
:1013D000DEBF0FBECDBF8C01CB01F80111821082A0
:1013E000138212821582148250E09E012F5F3F4FBC
:1013F0007901B9010E940318F70101900020E9F773
:101400003197AF014E195F09B701C8010E94B209B7
:1014100062960FB6F894DEBF0FBECDBFDF91CF91BD
:101420001F910F91FF90EF900895FC01118210829F
:1014300013821282158214826115710551F0FB012D
:1014400001900020E9F73197AF01461B570B0C9430
:10145000B2090895FB0101900020E9F73197AF012F
:10146000461B570BDC01ED91FC910280F381E02DCE
:10147000099465EB71E00C942A0ACF93DF93D0E0D6
:10148000C0E0009731F0BC0184E194E00E942A0A98
:10149000EC0184E194E00E94390A8C0F9D1FDF91DA
:1014A000CF9108950F931F93CF93DF93EC010E9488
:1014B00068038C01CE010E94390A800F911FDF91D1
:1014C000CF911F910F9108950F931F93CF93DF93A7
:1014D000EB018C0102551F4FC8010E945A03C8013D
:1014E0000E94390ABE0184E194E00E945A0384E11B
:1014F00094E00E94390A84E194E0DF91CF911F913A
:101500000F910C9479040F931F93CF93DF93EC0109
:101510008B0184E194E00E94790461E08EE00E94F6
:10152000AA0284E194E00E94390A68EB71E084E148
:1015300094E00E942A0AB80184E194E00E945A03D0
:101540006BEB71E084E194E00E942A0ABE0184E121
:1015500094E00E945A038DEB91E00E943D0A84E1E1
:1015600094E00E94790460E08EE0DF91CF911F91BA
:101570000F910C94AA02CF93DF93EC01C259DF4F75
:10158000FE0101900020E9F73197EC1BFD0BDB0118
:1015900014968D919C9102968E0F9F1F8134910518
:1015A00078F4FB0160817181CE010E94A01A66EB84
:1015B00071E0CE010E94A01A81E0DF91CF910895E1
:1015C00080E0FBCF4F925F926F927F928F929F92BB
:1015D000AF92BF92CF92DF92EF92FF920F931F9341
:1015E000CF93DF93EC016C018EE2C80ED11C80E436
:1015F000F60111928A95E9F70E944D034B015C01B7
:1016000010E000E0F12CE12C0E944D0368197909EB
:101610008A099B094AA45BA46CA47DA46415750582
:101620008605970508F040C0F0E4EF16F104E1F1FB
:1016300084E194E00E94EA03892B31F384E194E091
:101640000E94C803FE01EE0DFF1D86A7DE01A00F5C
:10165000B11F90969C91891321C00F5F1F4F0430DA
:101660001105F1F417A666EB71E0C6010E94D717C9
:10167000C05DDE4F9983888381E0DF91CF911F9118
:101680000F91FF90EF90DF90CF90BF90AF909F9021
:101690008F907F906F905F904F90089510E000E0E2
:1016A0008FEFE81AF80AB0CF80E0E7CFCF92DF9251
:1016B000EF92FF920F931F93CF93DF9300D000D050
:1016C00000D0CDB7DEB78C010E94E20A680180ED40
:1016D000C81A8EEFD80A7801E1EEEE0EF11C66EB27
:1016E00071E090E080E00E94D717F601918380833B
:1016F000009779F1BC01CE0101960E94150ABE0146
:101700006F5F7F4FC8010E94640ACE0101960E945C
:101710008209F70101900020E9F73197AF014E19D6
:101720005F09F60160817181C7010E94BB1A892B94
:10173000B1F681E026960FB6F894DEBF0FBECDBF9E
:10174000DF91CF911F910F91FF90EF90DF90CF909D
:10175000089580E0EFCF0F931F93CF93DF938C0119
:1017600061E08EE00E94AA02E801C259DF4FBE018B
:1017700084E194E00E942A0AC80180960E943D0AF2
:1017800084E194E00E94790460E08EE00E94AA0265
:1017900080E4FE0111928A95E9F7DF91CF911F91C4
:1017A0000F910895EF92FF920F931F93CF93DF93C2
:1017B000CDB7DEB769970FB6F894DEBF0FBECDBFC9
:1017C0008C01F62EE72E1A821982FE0133968EE0E6
:1017D000DF011D928A95E9F761EC74E0CE01019674
:1017E0000E94B41AEF92FF9284EC91E09F938F9342
:1017F0007E01B7E1EB0EF11CFF92EF920E94C91A35
:10180000B701CE0101960E94A01A6FEE72E0CE01E0
:1018100001960E94A01A6CEB72E0CE0101960E9424
:10182000A01A0F900F900F900F900F900F9070E0F4
:1018300060E0C8010E943009BE016F5F7F4FCE019A
:1018400041960E94150ABE016F5E7F4FC8010E943B
:10185000BB0ACE0141960E948209C8010E94AB0BCF
:10186000C8010E94560B811102C0A895E0CF69966D
:101870000FB6F894DEBF0FBECDBFDF91CF911F91A1
:101880000F91FF90EF900895AF92BF92DF92EF9289
:10189000FF920F931F93CF93DF93CDB7DEB7A69739
:1018A0000FB6F894DEBF0FBECDBF8C011A8219822D
:1018B000FE0133968EE1DF011D928A95E9F762E61B
:1018C00071E0CE0101960E94B41A780110E000E0A8
:1018D00082E3D82E94E6A92EB12CF7012191319103
:1018E0007F01D29EC001D39E900D1124B5010E94AC
:1018F0007A18CB014AE0BE016F5D7F4F0E940E183F
:10190000BE016F5D7F4FCE0101960E94A01A02308A
:10191000110531F06FEE72E0CE0101960E94A01A1F
:101920000F5F1F4F03301105C1F6BE016F5F7F4F80
:10193000CE0181960E94150ABE016F5D7F4F82ED38
:1019400094E00E94BB0ACE0181960E94820982ED3A
:1019500094E00E94AB0B82ED94E00E94560B811143
:1019600002C0A895E2CFA6960FB6F894DEBF0FBED0
:10197000CDBFDF91CF911F910F91FF90EF90DF903E
:10198000BF90AF90089587EC91E00E943D0AE4E992
:10199000F5E0808181608083CF010E94DA0888E4CD
:1019A00091E00E94440C1092000108950F931F9340
:1019B000CF93DF9300D000D000D0CDB7DEB78C013D
:1019C00070E060E0C8010E94300968EC74E0CE016C
:1019D00001960E94150ABE016F5F7F4FC8010E94E9
:1019E000BB0ACE0101960E948209C8010E94AB0B7E
:1019F000C8010E94560B811102C0A895E1CF26961E
:101A00000FB6F894DEBF0FBECDBFDF91CF911F910F
:101A10000F91089585ED8093BC008091EC03909127
:101A2000ED03A091EE03B091EF030796A11DB11D48
:101A300023E0B695A795979587952A95D1F720919C
:101A4000BC0024FD03C01092EA0308954091EC030A
:101A50005091ED036091EE037091EF03452B462BFF
:101A6000472B69F30097A105B10541F025E32A95BD
:101A7000F1F700000197A109B109E1CF8091EB03D3
:101A80000C9441072F923F924F925F926F927F92F8
:101A90008F929F92AF92BF92CF92DF92EF92FF927E
:101AA0000F931F93CF93DF93CDB7DEB7C555D140CA
:101AB0000FB6F894DEBF0FBECDBF10923D0310925B
:101AC0003C031092F103109213040E94230782E555
:101AD00098E09093600380935F0383E598E0909390
:101AE00064038093630388E48093B800E091240446
:101AF000F091250482E08083E0912004F09121049C
:101B00001082E0912204F091230480E180831092FE
:101B10002C04E0912804F091290486E08083E09170
:101B20002604F0912704808180618083E09126045F
:101B3000F0912704808188608083E0912604F091F1
:101B40002704808180688083E0912604F091270437
:101B500080818F7D80838091D4049091D504A09161
:101B6000D604B091D7048093180490931904A093DD
:101B70001A04B0931B0464E670E080E090E00E94D9
:101B80001B03E8E2F3E02491E4E1F3E0849188238D
:101B900099F090E0880F991FFC01E852FD4FA59144
:101BA000B491FC01E450FD4F859194918FB7F89466
:101BB000EC91E22BEC938FBF60E08EE00E94AA02D2
:101BC0006DEB72E084E194E00E94680319A283E463
:101BD00088A383E38F8FBE01615E7F4F84E194E031
:101BE0000E942A0A84E194E00E94390A6AE070E0C7
:101BF00080E090E00E941B03109293058CE3809399
:101C000092051092840510928505E7EBF2E0C590ED
:101C1000D490E9EBF2E0F490EAEBF2E0E491E093A7
:101C20008605EBEBF2E0E491E0938705ECEBF2E064
:101C3000E491E093880510E000E00F1558F4F601F8
:101C4000E00FF11F649180E895E00E94C9040F5FE6
:101C50001F4FF3CF0E94370510928C05E6ECF0E0A1
:101C6000F0938F05E0938E058491E7ECF0E0E4912A
:101C7000F82F319709F05DC1109289050E94370550
:101C80006CEA72E084E194E00E94520A6AE070E03B
:101C900080E090E00E941B036DEA70E080E895E030
:101CA0000E94520A66E970E080E895E00E94520ABC
:101CB0006FE770E080E895E00E94520A63ED71E002
:101CC000CE018D5C9E4F0E94150A67ED71E08E017A
:101CD0000F5F1F4FC8010E94150ABE016D5C7E4F49
:101CE000C8010E94830AC8010E948209CE018D5C4E
:101CF0009E4F0E94820963ED71E0CE018D5C9E4F84
:101D00000E94150A65EE71E0C8010E94150ABE0125
:101D10006D5C7E4FC8010E94830AC8010E9482093F
:101D2000CE018D5C9E4F0E94820963ED71E0CE0171
:101D30008D5C9E4F0E94150A61EF71E0C8010E9400
:101D4000150ABE016D5C7E4FC8010E94830AC8015E
:101D50000E948209CE018D5C9E4F0E9482096CE236
:101D600071E080E090E00E941B0384E194E00E9417
:101D7000390A6EEF71E0C8010E94150AB80182EDC0
:101D800094E00E94640AC8010E94820967EB71E036
:101D9000CE018D5B9E4F0E94150A98E0C92ED12C72
:101DA000EE24E394FC2CE092F003C0921204109213
:101DB000F1031092130481E00E946207811103C1B4
:101DC0006EE072E0C8010E94150AC8010E949904E1
:101DD000C8010E94820966E172E0C8010E94150AEA
:101DE000C8010E949904C8010E948209CD5CDE4F9F
:101DF00019821882C353D140CB5CDE4F19821882FE
:101E0000C553D140C95CDE4F19821882C753D140F7
:101E100040E1B801C6010E941918F80101900020A4
:101E2000E9F73197AF01401B510BB801CE018D5C32
:101E30009E4F0E94B209CD5BDE4F88819981C354C9
:101E4000D140009709F47BC0CD5CDE4F6881798179
:101E5000C353D1406115710509F46FC0CB5BDE4FF0
:101E600048815981C554D140C95CDE4F28813981F0
:101E7000C753D1404217530708F45FC00E94B41AF9
:101E8000C95CDE4F88819981C753D140C95BDE4F61
:101E900099838883C754D140C95CDE4F1982188268
:101EA000C753D140CE018D5C9E4F0E948209CE0166
:101EB0008D5B9E4F0E946C091A8219821C821B82C4
:101EC0001E821D82CD5BDE4F68817981C354D14073
:101ED0006115710549F0C95BDE4F48815981C754CE
:101EE000D140C8010E94B209C8010E949904C801EA
:101EF0000E9482096BE172E0C8010E94150AB801D4
:101F000082ED94E00E94640AC8010E948209E8EC14
:101F1000EF0DE83008F09FC1F0E0EF56F04F0C9461
:101F20008E18D00F1F111F111F11221125112B11F7
:101F3000281181E080938905A1CE0E944419CD5CCF
:101F4000DE4F88819981C353D140CD5BDE4F9983A9
:101F50008883C354D140CB5CDE4F88819981C553BF
:101F6000D140CB5BDE4F99838883C554D140C95C97
:101F7000DE4F88819981C753D140C95BDE4F998379
:101F80008883C754D140CD5CDE4F19821882C35379
:101F9000D140CB5CDE4F19821882C553D1407CCF33
:101FA0006FE172E0C8010E94150AB80182ED94E069
:101FB0000E94640AC8010E94820961E070E080E02A
:101FC00090E00E941B038FEFC81AD80A98E7C91641
:101FD000D10409F0E7CE68EB7BE080E090E00E945E
:101FE0001B03CE018D5B9E4F0E94820981E080938E
:101FF0008C058093D80480E1E3E1F1E0DE01AD5C83
:10200000BE4F01900D928A95E1F780E1E3E2F1E0A5
:10201000D80101900D928A95E1F740E16FE370E0FD
:10202000CE01815B9E4F0E94DD09CE01815B9E4FF8
:102030000E946C0967E572E0CE018D5B9E4F0E94A5
:10204000150AC15BDE4FC880D980CF54D140C1147E
:10205000D10409F403C1CD5ADE4FE880F980C3559D
:10206000D140E114F10441F1C95BDE4F88819981CF
:10207000C754D140E80EF91EB701CE018D5B9E4FCB
:102080000E948A09882309F4E9C0CD5BDE4F2881CC
:102090003981C354D140C95BDE4F88819981C754CF
:1020A000D140B601820F931F0E94B41AC95BDE4F64
:1020B000F982E882C754D140C75BDE4F198218828B
:1020C000C954D140C55BDE4F19821882CB54D14030
:1020D000C35BDE4F19821882CD54D140CD5BDE4FF9
:1020E00068817981C354D1406115710559F0C95B8C
:1020F000DE4F48815981C754D140CE01875B9E4F46
:102100000E94B209BE01675B7E4F82ED94E00E949F
:10211000640ACE01875B9E4F0E948209CE018D5BCF
:102120009E4F0E9482098FE38093970510923D0392
:1021300010923C031092F103109213040E942307A3
:1021400082E598E09093600380935F0383E598E0D5
:102150009093640380936303809195058093980521
:10216000F09097050E94F6024B015C018091EA0312
:10217000811191C081E08093EA038093E9039FEF8E
:102180009093E8031092E7031092E6038093C5034F
:102190008091C503FF0CF82AF092C5038091C40317
:1021A000813009F0A5C01092C4030E94F6026B01B1
:1021B0007C018091C5038093BB008091EC039091DA
:1021C000ED03A091EE03B091EF03892B8A2B8B2BAB
:1021D000A1F00E94F6028090EC039090ED03A09095
:1021E000EE03B090EF036C197D098E099F098616E6
:1021F0009706A806B90608F46FC08091BC0083FD5D
:10220000D8CF85EC8093BC000E94F6026B017C0164
:102210008091EA03813009F46DC08091E703811158
:102220008BC08091E703A6ECB3E0ECE1F3E090E033
:10223000981709F456C02D9121939F5FF9CF60E361
:1022400072E0B0CE6AE372E0ADCE6AE472E0AACE8C
:102250006EED72E0A7CE6FE472E0A4CECD5BDE4FF0
:1022600088819981C354D140009711F00E9444198C
:10227000CD5BDE4F19821882C354D140C95BDE4F5B
:1022800019821882C754D140CB5BDE4F1982188265
:10229000C554D14011CF8091EC039091ED03A091F2
:1022A000EE03B091EF03892B8A2B8B2B09F45ECFC1
:1022B0000E94F6024090EC035090ED036090EE0314
:1022C0007090EF03681979098A099B094616570629
:1022D0006806790608F04ACF8091EB030E94410717
:1022E00080E010923D0380933C03811127C0FFCF13
:1022F00085EE88CF8091EC039091ED03A091EE03E1
:10230000B091EF03892B8A2B8B2B09F481CF0E948C
:10231000F6028090EC039090ED03A090EE03B09055
:10232000EF036C197D098E099F0986169706A8068A
:10233000B90608F06DCFD0CF81E075CF81EB94E086
:102340000E94640880939505FE01ED5CFE4F6F01CD
:1023500078012F01F0E14F0E511C66246394712C1B
:10236000F601819091906F01809196055301082CA0
:1023700001C0AA0C0A94EAF78A29809396058091F5
:1023800094052A2C209482218093940584E995E079
:102390000E94DA08F7013080F181CB5ADE4FF883D2
:1023A000C555D14082E0E80EF11C809194053320A0
:1023B00009F4E2C0A82AA092940584E995E00E945D
:1023C000DA0865E672E0CE018D5B9E4F0E94150A29
:1023D000CE018D5B9E4F0E949904CE018D5B9E4F76
:1023E0000E9482094AE0B401CE018D5B9E4F0E949B
:1023F000DD09CE018D5B9E4F0E949904CE018D5B5D
:102400009E4F0E9482096DE672E0CE018D5B9E4F69
:102410000E94150ACE018D5B9E4F0E949904CE0149
:102420008D5B9E4F0E9482094AE0632DCB5ADE4F9E
:102430007881C555D140CE018D5B9E4F0E94DD094C
:10244000BE016D5B7E4F82ED94E00E94640ACE0176
:102450008D5B9E4F0E9482094C145D0409F080CF71
:1024600064EF71E080E090E00E941B03CE01815B8D
:102470009E4F0E94820981E090E09093D304809364
:10248000D20487E792E00E943D0A88E199E20FB604
:10249000F894A895809360000FBE90936000A89573
:1024A00063ED71E0CE018D5C9E4F0E94150A64E8D9
:1024B00072E0C8010E94150ABE016D5C7E4FC80122
:1024C0000E94830AC8010E948209CE018D5C9E4F42
:1024D0000E94820984E194E00E94390A84E194E038
:1024E0000E9479046FE872E0C8010E94150AB801E1
:1024F00082ED94E00E94640AC8010E948209C8012A
:102500000E94CD0161E070E0C8010E94D20BC801B9
:102510000E94CD0170E060E0C8010E94D20BC801AA
:102520000E94CD0162E070E0C8010E94D20BC80198
:102530000E94CD01C8010E94D60C8091000181113A
:102540000E94C30CCB5ADE4F0FB6F894DEBF0FBE0D
:10255000CDBFDF91CF911F910F91FF90EF90DF9052
:10256000CF90BF90AF909F908F907F906F905F9033
:102570004F903F902F9008958221809394051DCF16
:102580001F920F920FB60F9211242F933F938F93A8
:102590009F93AF93BF938091BC039091BD03A09193
:1025A000BE03B091BF033091BB0323E0230F2D374F
:1025B00058F50196A11DB11D2093BB038093BC0368
:1025C0009093BD03A093BE03B093BF038091C0035B
:1025D0009091C103A091C203B091C3030196A11DC4
:1025E000B11D8093C0039093C103A093C203B09325
:1025F000C303BF91AF919F918F913F912F910F9006
:102600000FBE0F901F90189526E8230F0296A11D6C
:10261000B11DD2CF1F920F920FB60F9211242F939C
:102620003F934F935F936F937F938F939F93AF935A
:10263000BF93EF93FF9384E194E00E940A04FF911B
:10264000EF91BF91AF919F918F917F916F915F912A
:102650004F913F912F910F900FBE0F901F901895A3
:102660001F920F920FB60F9211242F938F939F9367
:10267000EF93FF93E0912404F09125048081E09191
:102680002A04F0912B0482FD1BC0908180912D04BF
:102690008F5F8F7320912E04821741F0E0912D04FB
:1026A000F0E0EC5EFB4F958F80932D04FF91EF914E
:1026B0009F918F912F910F900FBE0F901F901895A3
:1026C0008081F4CF1F920F920FB60F9211242F9397
:1026D0003F934F935F936F937F938F939F93AF93AA
:1026E000BF93EF93FF9382E00E94E406FF91EF9186
:1026F000BF91AF919F918F917F916F915F914F911A
:102700003F912F910F900FBE0F901F9018951F9221
:102710000F920FB60F9211242F933F934F935F9315
:102720006F937F938F939F93AF93BF93EF93FF9399
:1027300081E00E94E406FF91EF91BF91AF919F91DC
:102740008F917F916F915F914F913F912F910F905A
:102750000FBE0F901F9018951F920F920FB60F92F9
:1027600011242F933F934F935F936F937F938F9396
:102770009F93AF93BF93EF93FF9380E00E94E40693
:10278000FF91EF91BF91AF919F918F917F916F9149
:102790005F914F913F912F910F900FBE0F901F901F
:1027A00018951F920F920FB60F9211242F933F93FB
:1027B0004F935F936F937F938F939F93AF93BF9349
:1027C000EF93FF938091B900887F803609F44AC067
:1027D000F0F5883209F4A7C018F5803109F49BC0E0
:1027E000B8F4882309F4F9C0883009F494C0FF9143
:1027F000EF91BF91AF919F918F917F916F915F9179
:102800004F913F912F910F900FBE0F901F901895F1
:10281000883109F488C0803251F78093E80314C0EE
:10282000803409F49DC040F48033B9F38833F9F65D
:102830008093E80385ECB0C0803509F485C0883505
:1028400009F496C0883499F60E940A0DD0CF8839D1
:1028500009F48CC038F5883729F050F4883611F027
:10286000803729F683E08093EA031092850357C0EE
:10287000883809F47BC0803919F0803809F0B7CF67
:1028800080918503803208F071C0E091850381E07A
:102890008E0F809385038091BB00F0E0EB59FC4FD5
:1028A00080833DC0803B39F0E0F4803A09F479C080
:1028B000883A09F09CCF84E08093EA031092620387
:1028C00010926103E0915F03F0916003099580919C
:1028D000610381110FC081E08093610310923F0377
:1028E00009C0803C09F4A6CF883C09F4A3CF883BFB
:1028F00009F07DCFE091620381E08E0F8093620347
:10290000F0E0E15CFC4F80818093BB00909162031A
:102910008091610329C08091C5038093BB0085EC41
:102920008093BC0064CF9091E7038091E6039817F1
:1029300058F5E091E70381E08E0F8093E703F0E024
:10294000EA53FC4F8081E9CFE091E70381E08E0FED
:102950008093E7038091BB00F0E0EA53FC4F808353
:102960009091E7038091E6039817C8F285E8D8CFE5
:10297000E091E70381E08E0F8093E7038091BB0035
:10298000F0E0EA53FC4F80838091E90381115CCF32
:1029900081E08093C40384EA8093BC001092EA0330
:1029A00026CF85EC8093BC001092EA0380918503CA
:1029B000803230F4E0918503F0E0EB59FC4F108257
:1029C0006091850370E0E0916303F091640385E614
:1029D00093E00995109285030ACF1092E80334CF53
:1029E000CF93DF93E4E1F4E01382128288EE93E068
:1029F000A0E0B0E084839583A683B78326E731E027
:102A00003183208325EC30E03587248724EC30E0C7
:102A10003787268720EC30E0318B208B21EC30E0AB
:102A2000338B228B22EC30E0358B248B26EC30E08C
:102A3000378B268B118E128E138E148EE1EBF4E001
:102A40001382128284839583A683B78388E891E0FA
:102A5000918380836DE972E08CE196E00E94150A13
:102A600063EB72E086E196E00E94150A6EEB72E07D
:102A700080E196E00E94150A6CEC72E08AE096E034
:102A80000E94150A63ED72E084E096E00E94150A48
:102A9000C2EDD4E088E090E0998388838AE090E0FA
:102AA000A0E0B0E08A839B83AC83BD831E8218863E
:102AB0001F828FEF9FEF9A87898786E0E7EDF2E02C
:102AC000ADEDB4E001900D928A95E1F78FE590E0CD
:102AD0009A8B898B87E0EDEDF2E0A5EEB4E00190F2
:102AE0000D928A95E1F786E0E4EEF2E0ACEEB4E018
:102AF00001900D928A95E1F785E0E3E3F1E0A2EF22
:102B0000B4E001900D928A95E1F71092F7048CE2FF
:102B100091E0A0E0B0E08EA39FA3A8A7B9A78AA7E1
:102B20009BA7ACA7BDA710920105109200058EE3EC
:102B3000E2E0F5E0DF01982F1D929A95E9F71092F7
:102B4000410510924005E2E4F5E0DF01982F1D9267
:102B50009A95E9F7109283051092820510928C05E0
:102B600010928D0510928F0510928E05109290058F
:102B700091E09093910528EA31E03093810520930C
:102B8000800510929405109295051092960510926A
:102B90009705109298051092990510929A05109237
:102BA0009B0510929C0510929D0510929E05109217
:102BB0009F051092A0051092A1051092A2051092F7
:102BC000A4051092A3051092A6051092A5051092D7
:102BD000A8051092A7051092AA051092A9051092B7
:102BE000AC051092AB051092AE051092AD05109297
:102BF000B0051092AF051092B2051092B10595E0A4
:102C0000E9E3F1E0A3EBB5E001900D929A95E1F7CD
:102C10001092B9051092B80597E0E0E4F1E0AAEB54
:102C2000B5E001900D929A95E1F71092C1051092CE
:102C3000C3051092C205E4ECF5E0DF011D928A9510
:102C4000E9F787E0EAEEF2E0A1ECB4E001900D9242
:102C50008A95E1F78AE0E1EFF2E0A8ECB4E00190B8
:102C60000D928A95E1F70E944D036093BD04709325
:102C7000BE048093BF049093C004DF91CF91089568
:102C8000CF93DF9300D000D000D0CDB7DEB77894DB
:102C900084B5826084BD84B5816084BD85B5826061
:102CA00085BD85B5816085BD80916E008160809312
:102CB0006E0010928100809181008260809381007B
:102CC000809181008160809381008091800081608B
:102CD000809380008091B10084608093B1008091E6
:102CE000B00081608093B00080917A00846080930E
:102CF0007A0080917A00826080937A0080917A00D5
:102D0000816080937A0080917A00806880937A0055
:102D10001092C1000E94420D30E0E32E30E0F32E0D
:102D200099249394CC24CA94DC2CAA24A394B12C87
:102D30008091DB049091DC0401969093DC048093F5
:102D4000DB042091D2043091D3048217930724F03E
:102D50001092DC041092DB046091DB047091DC04BF
:102D600082ED94E00E94300982ED94E00E94AB0B6A
:102D700082ED94E00E94E20A80910005882389F0A8
:102D800060E075E0CE0101960E94150ABE016F5FFA
:102D90007F4F82ED94E00E94640ACE0101960E946A
:102DA000820966EB71E090E080E00E94D717909373
:102DB000030680930206009709F498C02091B90396
:102DC0003091BA03A9014F5F5F4F5093BA0340930C
:102DD000B903253031050CF089C06FEE72E00E9416
:102DE000D717BC018BEF92E00E94AB1A892BC9F672
:102DF0006FEE72E090E080E00E94D7178C01892B83
:102E000009F4A4C061E073E0CE0101960E94150AA6
:102E1000BE016F5F7F4F82ED94E00E94640ACE0195
:102E200001960E948209B801CE0101960E94150AFE
:102E3000BE016F5F7F4F82ED94E00E94640ACE0175
:102E400001960E94820942E050E0B80183E091E0DF
:102E50000E94BB1A892B09F05AC080910101909100
:102E60000201892B71F00E944D036093BD047093A1
:102E7000BE048093BF049093C0041092020110928C
:102E80000101009101011091020117FD8ACF0E94FA
:102E90004D034090BD045090BE046090BF047090FC
:102EA000C0046419750986099709F801EE0FFF1F20
:102EB000EE0FFF1FE65AFE4F408051806280738004
:102EC000461657066806790608F06BCF01151105FE
:102ED00009F441C00130110509F063CF8091000170
:102EE000882309F45ECF0E94C30C5BCF1092BA0313
:102EF0001092B903A895E114F10409F419CF0E94C6
:102F0000F603882309F414CF0E94000011CF43E098
:102F100050E0B80188E091E00E94BB1A892BB1F41F
:102F20008091010190910201019709F4AACF0E94BA
:102F30004D036093BD047093BE048093BF049093CF
:102F4000C004B0920201A09201019BCFD092020175
:102F5000C092010196CF80910001811122CF81E1C1
:102F600093E00E943D0A809194058E7F80939405A2
:102F700084E995E00E94DA0884E591E00E94440C1F
:102F8000909200010ECF84E096E00E9482098AE0D0
:102F900096E00E94820980E196E00E94820986E123
:102FA00096E00E9482098CE196E00C94820942E24C
:102FB00056E00E94DC170895FA01A191B0810097B4
:102FC00019F41097E1F0CD01DC01CD010D90002046
:102FD00011F4C00113C0FB012191222319F0201527
:102FE000D9F7F3CFFB012191201519F41E92119608
:102FF00006C02223C1F70D900020A1F7D001FA01ED
:10300000A193B08308954532510520F4423010F069
:103010000C940E18FB011082CB010895BB274A3097
:1030200031F4992322F4BDE2909581959F4F0C9441
:103030001A18BB27FB015527AA27880F991FAA1F1B
:10304000A41710F0A41B83955051B9F7A05DAA33C3
:1030500008F0A95DA193009779F7B111B19311928E
:10306000CB010C943318DC01FC01672F719177239D
:10307000E1F7329704C07C916D9370836291AE1733
:10308000BF07C8F308952F923F924F925F926F92BD
:103090007F928F929F92AF92BF92CF92DF92EF92E8
:1030A000FF920F931F93CF93DF93CDB7DEB7CA1B69
:1030B000DB0B0FB6F894DEBF0FBECDBF09942A8894
:1030C000398848885F846E847D848C849B84AA843C
:1030D000B984C884DF80EE80FD800C811B81AA81C9
:1030E000B981CE0FD11D0FB6F894DEBF0FBECDBF94
:1030F000ED01089597FB072E16F4009407D077FD95
:1031000009D00E94941807FC05D03EF49095819553
:103110009F4F0895709561957F4F0895EE0FFF1FA3
:103120000590F491E02D0994AA1BBB1B51E107C047
:10313000AA1FBB1FA617B70710F0A61BB70B881F47
:10314000991F5A95A9F780959095BC01CD010895D6
:103150000F931F93CF93DF938230910510F482E099
:1031600090E0E0912606F091270630E020E0B0E004
:10317000A0E0309799F42115310509F44AC0281BC5
:10318000390B24303105D8F58A819B816115710591
:1031900089F1FB0193838283FE0111C0408151813B
:1031A0000281138148175907E0F04817590799F42D
:1031B000109761F012960C93129713961C93329607
:1031C000CF01DF91CF911F910F91089500932606B3
:1031D00010932706F4CF2115310551F042175307FC
:1031E00038F0A901DB019A01BD01DF01F801C1CF6F
:1031F000EF01F9CF9093270680932606CDCFFE01ED
:10320000E20FF31F81939193225031093983288370
:10321000D7CF2091240630912506232B41F420910D
:103220000F01309110013093250620932406209140
:103230000D0130910E012115310541F42DB73EB736
:103240004091110150911201241B350BE09124068D
:10325000F0912506E217F307A0F42E1B3F0B281769
:10326000390778F0AC014E5F5F4F2417350748F0FF
:103270004E0F5F1F50932506409324068193919330
:103280009FCFF0E0E0E09CCFCF93DF930097E9F091
:10329000FC01329713821282A0912606B091270674
:1032A000ED0130E020E01097A1F420813181820F00
:1032B000931F20912406309125062817390709F01D
:1032C00061C0F0932506E0932406DF91CF91089525
:1032D000EA01CE17DF07E8F54A815B819E014115BF
:1032E0005105B1F7E901FB83EA8349915991C40F74
:1032F000D51FEC17FD0761F4808191810296840F40
:10330000951FE90199838883828193819B838A83B6
:10331000F0E0E0E012968D919C9113970097B9F53B
:103320002D913C911197CD010296820F931F209110
:103330002406309125062817390739F6309751F5BC
:103340001092270610922606B0932506A093240615
:10335000BCCFD383C28340815181840F951FC8178E
:10336000D90761F44E5F5F4F88819981480F591FDB
:10337000518340838A819B81938382832115310508
:1033800009F0B0CFF0932706E09326069ECFFD010B
:10339000DC01C0CF13821282D7CFB0E0A0E0E3ED12
:1033A000F9E10C9445188C01009751F4CB010E946F
:1033B000A8188C01C801CDB7DEB7E0E10C94611804
:1033C000FC01E60FF71F9C0122503109E217F307B9
:1033D00008F49DC0D901CD91DC911197C617D7078C
:1033E00098F0C530D10530F3CE01049786179707C2
:1033F00008F3C61BD70B2297C193D1936D937C938F
:10340000CF010E944419D6CF5B01AC1ABD0A4C0112
:103410008C0E9D1EA0912606B0912706512C412CA2
:10342000F12CE12C109731F580912406909125061E
:103430008815990509F05CC04616570608F058C073
:1034400080910D0190910E01009741F48DB79EB7C8
:103450004091110150911201841B950BE817F90757
:1034600008F055C0F0932506E0932406F901718316
:103470006083A0CF8D919C91119712966C901297BA
:1034800013967C901397A815B90559F56C0142E085
:10349000C40ED11CCA14DB0420F1AC014A195B092B
:1034A000DA011296159780F062827382518340830D
:1034B000D9016D937C93E114F10471F0D701139657
:1034C000FC93EE93129776CF22968C0F9D1FF901F5
:1034D00091838083F301EFCFF0932706E0932606D4
:1034E00069CF4816590608F42C017D01D3019ACF03
:1034F000CB010E94A8187C01009749F0AE01B801E9
:103500000E94971AC8010E944419870153CF10E006
:1035100000E050CF81E090E0F8940C946A1D911186
:10352000089581568A5108F4805285580895FB0108
:10353000DC0102C001900D9241505040D8F708952F
:10354000FB01DC010D900020E9F7119701900D922D
:103550000020E1F70895FB01DC018D9101908019B5
:103560000110D9F3990B0895FB01DC0101900D9234
:103570000020E1F70895FB01DC014150504030F09C
:103580008D910190801919F40020B9F7881B990BCF
:103590000895AEE0B0E0EFECFAE10C9451180D891B
:1035A0001E8986E08C831A8309838FEF9FE79E83B1
:1035B0008D83AE01475E5F4F6F89788DCE01019696
:1035C0000E94EC1A2F813885020F131FF801108218
:1035D0002E96E4E00C946D18ABE0B0E0E2EFFAE177
:1035E0000C9443187C013B018A01FC01178216826E
:1035F000838181FFC8C1CE0101965C01F7019381EF
:10360000F30193FD859193FF81913F01882309F494
:1036100053C1853239F493FD859193FF81913F0128
:10362000853229F4B70190E00E94DC1CE7CF912C91
:10363000212C312CFFE1F31538F08B3211F190F48D
:10364000803209F1833229F137FC3CC020ED280F8C
:103650002A3050F536FE20C08AE0989E200D1124B5
:10366000922E06C08D3291F0803371F7689430F855
:10367000F30193FD859193FF81913F018111DACF91
:1036800021C0689431F8689432F8F2CF689433F826
:10369000EFCF689434F8ECCFEAE02E9E200D112491
:1036A000222E689435F8E4CF8E3229F436FC04C11A
:1036B000689436F8DDCF8C3619F4689437F8D8CF93
:1036C0008836B1F2982F9F7D95549330E0F0833681
:1036D000A1F18337C1F1833509F063C02801F2E01D
:1036E0004F0E511CF801C080D180692D70E036FC6E
:1036F00002C06FEF7FEFC6010E94C61C4C016894A8
:1037000037F882010AC00C5F1F4FFFE3F98388245A
:103710008394912C6501E89437F833FE2DC0522C28
:103720008114910471F5552009F468CFB70180E246
:1037300090E00E94DC1C5A94F6CFF80180818983C6
:103740000E5F1F4FE4CF2801F2E04F0E511CF8012D
:10375000C080D180692D70E036FC02C06FEF7FEF32
:10376000C6010E94D11C4C018201D5CFB70180E275
:1037700090E00E94DC1C2A942814190409F0B0F788
:10378000CECFF60137FC859137FE81916F01B701ED
:1037900090E00E94DC1C51105A94F1E08F1A9108BD
:1037A000BFCF843619F0893609F077C0F80137FEAB
:1037B0006BC060817181828193810C5F1F4FF32DFB
:1037C000FF763F2E97FF09C0909580957095619583
:1037D0007F4F8F4F9F4F689437F82AE030E0A50164
:1037E0000E940C1DC82ECA188C2C432C36FE0CC00F
:1037F000E89440F8C91440F434FE05C032FC03C01C
:10380000F32DFE7E4F2E892C44FE95C0FE01EC0D5B
:10381000F11D8081803309F087C0242D297E422E3E
:10382000842D8870582E43FC95C040FE8FC09C2C80
:10383000821418F42C0C922C981844FE91C0B701F5
:1038400080E390E00E94DC1C42FE09C088E790E023
:1038500041FE02C088E590E0B7010E94DC1CC9145B
:1038600008F48AC0CA94D12C9FEFC91AD90ACA0C8D
:10387000DB1CF60182916F01B70190E00E94DC1C15
:10388000AC14BD04B1F74FCF60817181072E000CDD
:10389000880B990B0E5F1F4F92CFD32CE894D4F86E
:1038A0002AE030E0853739F1232D297FD22E8F365B
:1038B00001F148F48835A9F0F701868197812B96AC
:1038C000E2E10C945F18803749F08837A9F7D4FEFD
:1038D00002C06894D2F820E130E00DC06894D4F8BA
:1038E000F6CF34FE03C0822F8660D82E20E132E06E
:1038F00002C028E030E0F801D7FE0FC0608171817E
:10390000828193810C5F1F4FA5010E940C1DC82E60
:10391000CA183D2CE89437F867CF6081718190E038
:1039200080E00E5F1F4FF0CF42FC02C0839478CF3F
:103930008394839475CF842D867809F471CFF6CF64
:10394000B70180E290E00E94DC1C83948214C0F3F3
:10395000512C73CF522C5818821408F46ECFF8CF24
:10396000842D867809F47BCF8BE241FE80E247FC10
:103970008DE2B70190E071CFB70180E390E00E9443
:10398000DC1C9A946CCF8FEF9FEF99CFFC010590D0
:10399000615070400110D8F7809590958E0F9F1F51
:1039A0000895FC016150704001900110D8F7809596
:1039B00090958E0F9F1F08950F931F93CF93DF93C2
:1039C000182F092FEB018B8181FD09C01FEF0FEF2D
:1039D000812F902FDF91CF911F910F91089582FF3A
:1039E00014C02E813F818C819D81281739073CF4BA
:1039F000E881F981CF0101969983888310838E81B4
:103A00009F8101969F838E83E3CFE885F985812F7F
:103A10000995892BA1F3DACFFA01AA27283051F1B1
:103A2000203181F1E8946F936E7F6E5F7F4F8F4FEF
:103A30009F4FAF4FB1E03ED0B4E03CD0670F781F4E
:103A4000891F9A1FA11D680F791F8A1F911DA11D33
:103A50006A0F711D811D911DA11D20D009F468946C
:103A60003F912AE0269F11243019305D3193DEF614
:103A7000CF010895462F4770405D4193B3E00FD0CA
:103A8000C9F7F6CF462F4F70405D4A3318F0495DB5
:103A900031FD4052419302D0A9F7EACFB4E0A69598
:103AA0009795879577956795BA95C9F700976105BA
:103AB000710508959B01AC010A2E06945795479510
:103AC00037952795BA95C9F7620F731F841F951F05
:103AD000A01D089511E0C2EAD1E004C0FE010E94D9
:0E3AE0008E182196C33AD107C9F7F894FFCF8C
:103AEE0001FFFF414800000052455300000000282E
:103AFE00068000000001000200030004000500061D
:103B0E000007000100010001000100010001000199
:103B1E0000010021454F4600002141434B000000AB
:103B2E0021506F6C6C390000FF00000000006B002C
:103B3E006C006D000000FF000000F4010000B80BE7
:103B4E00000021506F6C6C300A214C45445F000020
:103B5E000000000000002C048C03B9037904EA0372
:103B6E00C803DC0300000000AB087E082D095408D2
:103B7E007708640855080000000052058C032D09D3
:103B8E0059036A090000000052058C032D095903E0
:103B9E00F2082569000D0A002142722C002C446F98
:103BAE006E652E00256400535441525447414D45D5
:103BBE0021210053595300216865616465725F626B
:103BCE006567696E00216865616465725F656E6424
:103BDE00002173657475705F626567696E002020E1
:103BEE0020493243205363616E6E65723A00466F10
:103BFE00756E643A20002028307800292020004B72
:103C0E006579706164202864656661756C7429003D
:103C1E004B65797061642F494F004F6C65642020AD
:103C2E002864656661756C7429004F6C6564005577
:103C3E006E6B6E6F776E0072656C6179696E69740A
:103C4E00206F6E200052656C6179205B005D2073E1
:103C5E00657420746F200057445420656E64616251
:103C6E006C6564002173657475705F656E64000A1F
:103C7E003D3D3D53544152543D3D3D0A00537475F4
:103C8E007474676172742047616C6C65727920413F
:103C9E002F420030322E30322E32303231007665E5
:103CAE007273696F6E20312E305354004272524639
:103CBE0049440055564C0021506F6C6C00215265E2
:103CCE006C617900214E41434B0021466C61675F68
:103CDE000021466C616773456E640021524649446B
:103CEE0000636172642064657465637465643A2070
:0C3CFE0000454E4447414D452121000087
:00000001FF
