:100000000C9438040C9460040C9460040C94860FD7
:100010000C94610F0C943C0F0C9460040C946004DD
:100020000C9460040C9460040C9460040C946004C0
:100030000C9460040C9460040C9460040C946004B0
:100040000C949A0E0C9460040C940A0F0C94E40E19
:100050000C9460040C9460040C9460040C94600490
:100060000C947B0D0C946004AEB08180A1A6A83FD7
:10007000AD8B32C8D300D580D91FDA12DB40AF0078
:100080000000002300260029005375636365737325
:1000900066756C001C620A0C206002020508070DE0
:1000A00008020404050702040206070607070707FB
:1000B000070707070202070707050A0707070806D9
:1000C00006080804060707090809070908070808B9
:1000D000070C0708060406040809030606060606B8
:1000E000050606020407020A0606060605050506B9
:1000F000060A0606050602060809000000007E7EC4
:10010000303007070007070000000000C0D8F8DE05
:10011000D8F8DE180030000030000000387C64FFA2
:1001200064E4C8102020F02030103C7E427E3CC0A9
:100130002018E6F010F0E000000000300000001091
:1001400030203010DCFE227EDC8060201030202049
:100150002010302007070000F8FE07011070E08033
:100160000107FEF880E07010120C3F0C1200000036
:100170000000202020FC20202000000010000000B3
:100180000000F0702020202000000000000030302F
:100190000080E07C1F03C0F030000000FCFE020283
:1001A00002FEFC103020202030100404FEFE00006F
:1001B000202030302020040682C2623E1C203030D5
:1001C000202020200406222222FEDC1030202020C5
:1001D0003010C0A09884FEFE800000000030300087
:1001E000001E1E1212F2E210302020203010F8FC07
:1001F000161212F2E010302020203010020282E2AB
:100200007A1E0600203010000000DCFE222222FEB2
:10021000DC103020202030103C7E424242FEFC00A8
:10022000202020301000181830301818F07060604E
:10023000909008080400000000101020909090900A
:10024000909090000000000000000408089090606A
:1002500060201010000000000462721E0C0030309C
:100260000000F00CF4FA0AFAFA040CF00030205006
:1002700050505010100080F8FE86FEF8803030009C
:1002800000003030FEFE22223EFCC0303020202014
:100290003010F8FC0602020204001030202020106A
:1002A000FEFE02020206FCF8303020202030100052
:1002B000FEFE22222222303020202020FEFE22229A
:1002C0002222303000000000F8FC06024242C2C484
:1002D0000010302020203030FEFE20202020FEFEA6
:1002E000303000000000303002FEFE0220303020AE
:1002F00000020202FEFE202020203010FEFE70D8F8
:100300008C060230300000103020FEFE000000009D
:100310000030302020202020FE0E3CF0C0300CFEAB
:10032000FE300000000000003030FE061C38E0C047
:1003300000FE3000000000103030F8FC060202021F
:1003400006FCF8001030202020301000FEFE424253
:10035000427E3C30300000000000F8FC0602020241
:1003600006FCF80010302060E0B09080FEFE2262B3
:10037000E2BE1C0030300000001030201C3E322253
:1003800062E2C410202020203010020202FEFE0291
:1003900002020000003030000000FEFE00000000FD
:1003A000FEFE10302020202030100E7EF080F07EE7
:1003B0000E000030303000000E7EF080E03E3EE067
:1003C00080F07E0E00003030000000003030000071
:1003D000068EF870F88E0630300000003030060EC1
:1003E00018F0F0180E06000000303000000002C2C5
:1003F000F23E0E02303020202020FFFF0101F0F0FD
:100400008080031F7CE0800000000030F0C001010C
:10041000FFFF8080F0F010180C06060C181000008A
:10042000000000000000000000000000000000804C
:100430008080808080808080010302000000C0E80E
:100440002828F8F0103020203030FFFF0808F8F09E
:10045000303020203010F0F808080810103020202C
:100460002010F0F80808FFFF103020203030F0F89E
:100470004848787010302020201008FEFF0909003D
:1004800030300000F0F80808F8F810B0A0A0F070C4
:10049000FFFF0808F8F0303000003030FBFB303050
:1004A0000008FBFB8080F070FFFF60F098080030D0
:1004B000300000103020FFFF3030F8F81008F8F05E
:1004C0001008F8F030300000303000003030F8F81C
:1004D0000808F8F0303000003030F0F80808F8F084
:1004E000103020203010F8F80808F8F0F0F0202044
:1004F0003010F0F80808F8F810302020F0F0F8F884
:100500001018183030000000307848C888202020AB
:10051000301008FEFE08080010302020F8F8000017
:10052000F8F810302020303038F8C0C0F83800100B
:100530003030100078F880C03838C080F87800304B
:10054000300000000030300018B8E0E0B81830305B
:100550000000303038F8C0C0F8380090F07010005B
:1005600008C8E8781830302020202020FEDF010164
:10057000000070F08080FFFFF0F00101DFFE20201E
:100580008080F0700000E01010204080807000003B
:10059000000000000000FE02020202020202FE3021
:1005A00020202020202020306800178040020A0AE6
:1005B0004F4C454420696E6974206F6E204164641D
:1005C000726573733A203078002B2D2D2D2D2D2D33
:1005D0002D2D2D2D2D2D2D2D2D2D2D2D2D2D2B007A
:1005E0007C20202020456C656374726F736361709A
:1005F00065202020207C002B2D2D2D2D2D2D2D2D07
:100600002D2D2D2D2D2D2D2D2D2D2D2D2B000000A3
:100610000000240027002A000000050720600000D9
:1006200000000000005F00000007000700147F14B6
:100630007F14242A7F2A1223130864623649562025
:10064000500008070300001C2241000041221C004A
:100650002A1C7F1C2A08083E080800807030000809
:1006600008080808000060600020100804023E51DD
:1006700049453E00427F400072494949462141496F
:100680004D331814127F1027454545393C4A4949D6
:100690003141211109073649494936464949291E40
:1006A000000014000000403400000008142241142F
:1006B00014141414004122140802015909063E4181
:1006C0005D594E7C1211127C7F494949363E4141A9
:1006D00041227F4141413E7F494949417F09090902
:1006E000013E414151737F0808087F00417F41006E
:1006F0002040413F017F081422417F404040407F1D
:10070000021C027F7F0408107F3E4141413E7F0969
:100710000909063E4151215E7F09192946264949AA
:10072000493203017F01033F4040403F1F204020EA
:100730001F3F4038403F63140814630304780403E8
:100740006159494D43007F41414102040810200096
:100750004141417F04020102044040404040000307
:1007600007080020545478407F28444438384444D3
:100770004428384444287F385454541800087E09CB
:100780000218A4A49C787F0804047800447D4000EB
:100790002040403D007F1028440000417F40007C05
:1007A000047804787C080404783844444438FC18FD
:1007B00024241818242418FC7C08040408485454E1
:1007C000542404043F44243C4040207C1C2040200E
:1007D0001C3C4030403C44281028444C9090907C75
:1007E0004464544C44000836410000007700000087
:1007F0004136080002010204023C2623263C0A720C
:10080000656C617920696E697420737563636573C3
:100810007366756C0000000000250028002B0004A2
:100820000404040404040402020202020203030397
:100830000303030102040810204080010204081091
:10084000200102040810200000000800020100003E
:10085000030407000000000000000000030C0F303C
:10086000333C3FC0C3CCCFF0F3FCFF00AB0FF3161B
:1008700011241FBECFEFD8E0DEBFCDBF26E0A2E23D
:10088000B3E001C01D92A831B207E1F713E0A0E088
:10089000B1E0E2E0F9E302C005900D92A232B107A7
:1008A000D9F714E0C7E3D4E004C02197FE010E9409
:1008B000B117C633D107C9F70E94DD100C94741C20
:1008C0000C940000CF93DF93EC019C818E819817EC
:1008D00058F4E881F9810084F185E02D42E0CE01F1
:1008E00009958C818F5F8C83DF91CF910895DC0116
:1008F000ED91FC910084F185E02D40E009940F9387
:100900001F93CF938C01FC016483C085C60F6C2FAD
:100910006F700E9477046C2F62956F706061C801E0
:10092000CF911F910F910C947704FC01278126959C
:1009300026952695621720F46583606B0C947704E6
:1009400008951F93CF93DF93EC01142F8E816817C6
:1009500018F4CE010E947F04612FCE01DF91CF9168
:100960001F910C949504CF92DF92EF92FF920F9318
:100970001F93CF93DF93EC01162FC42ED22E8F81BD
:10098000869586958695081710F00FEF080FFD2CB9
:100990000F15B0F08E81181720F4612FCE010E9440
:1009A0007F046F2DCE010E949504E12ECE1430F00D
:1009B00060E0CE010E946204E394F8CFF394E8CFA4
:1009C0004D2D612FCE01DF91CF911F910F91FF909F
:1009D000EF90DF90CF900C94A1040F9300918305CA
:1009E000069506950695015040918205415020E0FC
:1009F00060E08CE795E00E94B30481E09091860569
:100A0000911101C080E08093860560E48CE795E059
:100A10000F910C9477042F923F924F925F926F92B6
:100A20007F928F929F92AF92BF92CF92DF92EF927E
:100A3000FF920F931F93CF93DF9300D000D01F92AC
:100A4000CDB7DEB7DC011B960D911C910115110588
:100A500009F468C19D838C83F801449131965491C7
:100A60003196649031962491E22EF12CF7E0EF0E4E
:100A7000F11C73E0F594E7947A95E1F7E982F801C7
:100A8000349634913196E491631748F08E2F90E0BC
:100A9000FC01E30FF11D6E171F060CF487C06D30CB
:100AA00031F5AC81BD8116968C9181111AC081E01F
:100AB00090E00F900F900F900F900F90DF91CF91DB
:100AC0001F910F91FF90EF90DF90CF90BF90AF906C
:100AD0009F908F907F906F905F904F903F902F905E
:100AE000089560E08C819D810E947F04E0CF6A3090
:100AF00009F018C1EC81FD818185D5808E9DD00CD7
:100B000011248781869586958695D81630F0828542
:100B1000882319F082E08287D12C4D2D60E08C81F2
:100B20009D810E94A104AC81BD811A968C911A9777
:100B3000823008F4BCCF15962C9115971B96ED9139
:100B4000FC911C9700E0309739F03396E4911996A8
:100B50000C91E09F002D112410E0095F1F4F33E03E
:100B6000159507953A95E1F78FEF820F080FEC8105
:100B7000FD81468141506481CF010E94B304AC8164
:100B8000BD8119968C9119976D2D8E9D600D112444
:100B9000660F660F660F17968C91861708F460E053
:100BA00060648C819D810E94770481CF4527542702
:100BB00045270A5F1F4F631BEC81FD812184423072
:100BC000510508F06DC0452B09F0212C6E9CC00129
:100BD0006F9C900D1124689FF001699FF00D112406
:100BE0000E0F1F1F512CAC81BD811496BC91BA838E
:100BF000EC81FD81F581FB83862C912CAA24A394A2
:100C0000B12C312C8981381608F086C0412CAC817A
:100C1000BD8119968C91481608F077C0311002C03A
:100C2000442041F0EC81FD8145814F5F6A81CF0115
:100C30000E94A104D12CC12CC61408F05AC0F8019E
:100C4000EC0DFD1D7490552061F0EA14FB0449F48D
:100C5000E72DF0E0052C02C0F595E7950A94E2F740
:100C60007E2EAC81BD8119968C91823081F4442016
:100C700009F43BC072948FE07822E72DF0E0E55A4A
:100C8000F74F7490672D8C819D810E946204672DBF
:100C90008C819D810E946204EFEFCE1ADE0ACCCFD8
:100CA000277038E0532E521A211101C0512C50E008
:100CB00040E030E020E0F801461740F4E40FF51F73
:100CC000E4912E0F311D4F5F5F4FF5CFE60FF11D01
:100CD0006490E29EF001E39EF00DF29EF00D11246F
:100CE0008E0F9F1F080F191F7ECFB72DBF707B2E51
:100CF000C4CFD12C2D1439F060E08C819D810E94ED
:100D00006204D394F7CF439482CF3394080D191D16
:100D1000FFEFAF1ABF0A76CF6B818C819D810E9455
:100D20009504C5CE90E080E0C4CE2091A503260FA7
:100D30003327331F21323105ECF42091F003FC01FD
:100D400090E080E0243069F082E00895A091A5034E
:100D50002191AC014D575C4FA40FB52FB11D2C93C1
:100D60000196861798F38091A503680F6093A503F9
:100D700080E0089581E00895089508950895E09130
:100D8000810380918003E81730F4F0E0E05AFC4FD3
:100D9000808190E008958FEF9FEF089590918103F7
:100DA000809180032FEF3FEF981748F4E92FF0E090
:100DB000E05AFC4F208130E09F5F90938103C9018E
:100DC00008958091800390918103891B990B089568
:100DD000CF92DF92EF92FF920F931F93CF93DF9307
:100DE0007C01CB018A012091F603222389F0EB01DB
:100DF0006B01C40ED51ECC15DD0569F06991D701D4
:100E0000ED91FC910190F081E02DC7010995F3CFA0
:100E1000642F0E949506C801DF91CF911F910F9119
:100E2000FF90EF90DF90CF900895CF93DF931F92C4
:100E3000CDB7DEB769832091F6032223F9F0209124
:100E40001904203258F021E030E0FC013383228382
:100E500090E080E00F90DF91CF9108958091F703AB
:100E6000E82FF0E0E850FC4F998190838F5F8093EA
:100E7000F7038093190481E090E0ECCF61E0CE01AC
:100E800001960E949506F7CF90E0FC01E95BF74FD1
:100E90002491FC01ED5CF74F3491FC01E15EF74FCA
:100EA000E491EE23C9F0222339F0233001F1A8F4B4
:100EB000213019F1223029F1F0E0EE0FFF1FEB5E37
:100EC000F74FA591B4918FB7F894EC91611126C0BA
:100ED00030953E233C938FBF08952730A9F02830EA
:100EE000C9F0243049F7809180008F7D03C0809144
:100EF00080008F7780938000DFCF84B58F7784BDAB
:100F0000DBCF84B58F7DFBCF8091B0008F7780934E
:100F1000B000D2CF8091B0008F7DF9CF3E2BDACFD9
:100F20001092F00381E08093EF031092CA0361E016
:100F300082E10E94440761E083E10E944407E9EBFB
:100F4000F0E080818E7F808380818D7F808388E444
:100F50008093B80085E48093BC000895CF93DF931D
:100F600091E0909382038823B9F0C091B800D091AA
:100F7000BA008091BC008A7B8093BC0060E082E173
:100F80000E94440760E083E10E9444070E949007AA
:100F9000D093BA00C093B800DF91CF9108953FB7C6
:100FA000F89480915C0390915D03A0915E03B091F1
:100FB0005F0326B5A89B05C02F3F19F00196A11D20
:100FC000B11D3FBFBA2FA92F982F8827BC01CD0193
:100FD000620F711D811D911D42E0660F771F881FF2
:100FE000991F4A95D1F708958F929F92AF92BF9221
:100FF000CF92DF92EF92FF920F931F93CF93DF93E5
:10100000D0911904D13208F0D7C0182FC09118041C
:101010000E94CF076B017C018091F00381116BC0AE
:1010200082E08093F0031093EF038FEF8093EE0341
:101030001092ED03D093EC03A8EFB3E0ECECF3E0F7
:1010400080E0D81391C01092CB038091CB03CC0FDA
:10105000C82BC093CB038091CA03813009F088C0AC
:101060001092CA030E94CF076B017C018091CB03D1
:101070008093BB008091F2039091F303A091F4035D
:10108000B091F503892B8A2B8B2BA1F00E94CF07FF
:101090000091F2031091F3032091F4033091F503D2
:1010A0006C197D098E099F0906171707280739074C
:1010B00008F442C08091BC0083FDD8CF85EC8093BA
:1010C000BC000E94CF076B017C018091F00382304D
:1010D00009F450C08091EE038F3F09F46FC08091F6
:1010E000EE03803209F46CC08091EE03803309F482
:1010F00069C084E026C08091F2039091F303A0912F
:10110000F403B091F503892B8A2B8B2B09F484CF40
:101110000E94CF078090F2039090F303A090F40315
:10112000B090F5036C197D098E099F098616970604
:10113000A806B90608F070CF8091F1030E94AE07AF
:1011400085E01092F703109219041092F603DF91D4
:10115000CF911F910F91FF90EF90DF90CF90BF90B4
:10116000AF909F908F9008959D9191938F5F69CFDD
:1011700085EEA5CF8091F2039091F303A091F40343
:10118000B091F503892B8A2B8B2B09F49ECF0E94FB
:10119000CF070091F2031091F3032091F4033091F3
:1011A000F5036C197D098E099F0906171707280793
:1011B000390708F08ACFC0CF81E0C3CF80E0C1CF2C
:1011C00082E0BFCF83E0BDCF8F929F92AF92BF925C
:1011D000CF92DF92EF92FF924B015C010E94CF070A
:1011E0006B017C010E94CF076C197D098E099F0954
:1011F000683E734081059105A8F321E0821A9108A9
:10120000A108B10888EEC80E83E0D81EE11CF11CCD
:1012100081149104A104B10429F7FF90EF90DF90AD
:10122000CF90BF90AF909F908F9008952FB7F89474
:10123000609158037091590380915A0390915B0318
:101240002FBF08950895DB0114964D915C91159779
:101250006D917C91DC01ED91FC910280F381E02D98
:101260000994AF92BF92CF92DF92EF92FF920F93C9
:101270001F93CF93DF936C017B018B01040F151F2C
:10128000EB015E01AE18BF08C017D10759F0699194
:10129000D601ED91FC910190F081E02DC6010995F8
:1012A000892B79F7C501DF91CF911F910F91FF90A5
:1012B000EF90DF90CF90BF90AF900895FC01538DD9
:1012C000448D252F30E0842F90E0821B930B541720
:1012D00010F0CF96089501970895FC01918D828DAD
:1012E000981761F0A28DAE0FBF2FB11D5D968C9146
:1012F000928D9F5F9F73928F90E008958FEF9FEF85
:101300000895FC01918D828D981731F0828DE80F40
:10131000F11D858D90E008958FEF9FEF0895FC01FA
:10132000918D228D892F90E0805C9F4F821B9109C7
:101330008F739927089586E294E00E948F0921E037
:10134000892B09F420E0822F089580E090E0892B1A
:1013500029F00E949B0981110C9400000895FC0162
:10136000A48DA80FB92FB11DA35ABF4F2C91848D06
:1013700090E001968F739927848FA689B7892C9363
:10138000A089B1898C91837080648C93938D848DB6
:10139000981306C00288F389E02D80818F7D8083B9
:1013A0000895EF92FF920F931F93CF93DF93EC0179
:1013B00081E0888F9B8D8C8D98131AC0E889F989FC
:1013C000808185FF15C09FB7F894EE89FF896083FF
:1013D000E889F98980818370806480839FBF81E080
:1013E00090E0DF91CF911F910F91FF90EF900895C2
:1013F000F62E0B8D10E00F5F1F4F0F731127E02E9D
:101400008C8D8E110CC00FB607FCFACFE889F989D4
:10141000808185FFF5CFCE010E94AF09F1CFEB8D22
:10142000EC0FFD2FF11DE35AFF4FF0829FB7F894A8
:101430000B8FEA89FB8980818062CFCFEF92FF9288
:101440000F931F93CF93DF938C017B01D0E0C0E01B
:10145000F701EC0FFD1F6491662339F0C8010E946B
:10146000D109892B11F02196F3CFCE01DF91CF91D5
:101470001F910F91FF90EF900895CF93DF93EC01B0
:10148000888D8823B9F0AA89BB89E889F9898C916C
:1014900085FD03C0808186FD0DC00FB607FCF7CF28
:1014A0008C9185FFF2CF808185FFEDCFCE010E9428
:1014B000AF09E9CFDF91CF910895CF93DF93EC018E
:1014C000BC018CE795E00E942309BE0186E294E00E
:1014D0000E94230986E294E0DF91CF910C943D0AAB
:1014E0000F931F93CF93DF93EC01062F142F8E855C
:1014F000813120F4882331F0411104C081E00E9441
:10150000F4071E868E85811112C08D8591E090931F
:10151000F603809318041092F7031092190460E404
:10152000111101C060E08AE194E00E941507602F6C
:101530008AE194E00E941507123041F48E858F5F96
:101540008E87DF91CF911F910F91089581E00E94C6
:10155000F4071E86F6CF90E080E00895FC019181AB
:1015600062818081238131E03093F6032093180457
:101570001092F7031092190460956923682B8AE191
:1015800094E00E94150781E00C94F40790E0FC01C0
:10159000EE0FFF1FED57FF4FA591B4912C91FC0169
:1015A000EE5AFC4F30812083880F991FFC01E65BC7
:1015B000FE4F0190F081E02D80810895FB010190A4
:1015C0000020E9F73197AF01461B570BDC01ED9185
:1015D000FC910280F381E02D09946AE871E00C949B
:1015E000DE0ACF93DF93EC01BC018CE795E00E940B
:1015F00023098CE795E00E94ED0ABE0186E294E0A3
:101600000E94230986E294E00E94ED0A86E294E0BB
:10161000DF91CF910C943D0A0F931F93CF93DF93EB
:101620008C01D0E0C0E06115710519F00E94DE0A5E
:10163000EC01C8010E94ED0A8C0F9D1FDF91CF9134
:101640001F910F9108950F931F93CF93DF93EC0198
:101650000E941E0A8C01CE010E94ED0A800F911F8C
:10166000DF91CF911F910F9108950F931F93CF9307
:10167000DF93EC018B0186E294E00E943D0A61E079
:101680008EE00E94440786E294E00E94ED0A6DE835
:1016900071E086E294E00E94DE0AB80186E294E0FE
:1016A0000E94230960E971E086E294E00E94DE0A6C
:1016B000BE0186E294E00E94230962E971E086E2BD
:1016C00094E00E940C0B86E294E00E943D0A60E0E8
:1016D0008EE0DF91CF911F910F910C9444072CE382
:1016E00035E0F90101900020E9F79F01FC014481F8
:1016F0005581240F351F2B5335402134310570F4AB
:10170000608171818CE395E00E94AA196BE871E019
:101710008CE395E00E94AA1981E0089580E0089585
:1017200061E08EE00E9444076CE375E086E294E09D
:101730000E94DE0A6EEE74E086E294E00E940C0BDA
:1017400086E294E00E943D0A60E08EE00E94440739
:10175000ECE3F5E080E4DF011D928A95E9F7089556
:101760008F929F92AF92BF92CF92DF92EF92FF92B1
:101770000F931F93CF93DF93ECEFF4E080E4DF014E
:101780001D928A95E9F70E9416096B017C01D0E051
:10179000C0E010E000E00E9416096C197D098E0976
:1017A0009F098090F8049090F904A090FA04B090FA
:1017B000FB04681579058A059B05E0F500341105E1
:1017C000C9F186E294E00E948F09892B21F386E219
:1017D00094E00E946D09F801E953FB4F85ABDE01EF
:1017E000A953BB4F97969C9189131FC02196C43073
:1017F000D105E9F483E191E086AB6BE871E08CEF11
:1018000094E00E940E179093F3058093F20581E017
:10181000DF91CF911F910F91FF90EF90DF90CF90CC
:10182000BF90AF909F908F900895D0E0C0E00F5F81
:101830001F4FB1CF80E0ECCF6BE871E090E080E02B
:101840000E940E179C019093F3058093F20581E0AE
:10185000232B09F480E00895CF930E94B00B0E94DF
:101860001C0CC82F882379F06091F2057091F30564
:1018700044E050E081EE94E00E94C519892B19F0F4
:101880000E941C0CECCF8C2FCF91089585ED809396
:10189000BC008091F2039091F303A091F403B09106
:1018A000F5030796A11DB11D23E0B695A795979561
:1018B00087952A95D1F72091BC0024FD03C0109292
:1018C000F00308954091F2035091F3036091F40303
:1018D0007091F503452B462B472B69F30097A10523
:1018E000B10541F025E32A95F1F700000197A10920
:1018F000B109E1CF8091F1030C94AE07CF93DF9350
:10190000EC0188819981009711F00E945318198287
:1019100018821D821C821B821A82DF91CF9108954A
:10192000FC0180819181009711F00C945318089567
:10193000CF93DF93FC01C081D181209761F0899121
:10194000882349F0082E000C990B0E949919FE017A
:1019500031978083F4CFDF91CF9108950F931F9338
:10196000CF93DF93EC0188819981009759F02A8108
:101970003B812617370730F081E0DF91CF911F912F
:101980000F9108958B016F5F7F4F0E94DC180097C5
:1019900059F0998388831B830A832C813D81232BF3
:1019A00059F7FC011082E8CF80E0E7CFEF92FF9279
:1019B0000F931F93CF93DF93EC017B018A01BA0150
:1019C0000E94AE0C81110BC0CE010E947E0CCE0194
:1019D000DF91CF911F910F91FF90EF9008951D839C
:1019E0000C83B701888199810E94BE19F0CFFC0158
:1019F0001182108213821282158214826115710580
:101A000051F0FB0101900020E9F73197AF01461B2F
:101A1000570B0C94D60C0895CF93DF9300D000D0D1
:101A200000D0CDB7DEB769E971E086E294E00E94AC
:101A30000C0B80918B05816080938B058BE895E082
:101A40000E94AE0A65EA71E0CE0101960E94F70C91
:101A5000CE0101960E946F0BCE0101960E94900C60
:101A60000E94900B0E942C0C811102C0A895EACF15
:101A70001092000126960FB6F894DEBF0FBECDBFC0
:101A8000DF91CF910895EF92FF920F931F93CF9321
:101A9000DF93CDB7DEB762970FB6F894DEBF0FBE07
:101AA000CDBF8C01CB01F80111821082138212820A
:101AB0001582148250E09E012F5F3F4F7901B901DA
:101AC0000E943A17F70101900020E9F73197AF0122
:101AD0004E195F09B701C8010E94D60C62960FB675
:101AE000F894DEBF0FBECDBFDF91CF911F910F9154
:101AF000FF90EF9008951F920F920FB60F9211244E
:101B00002F933F934F935F936F937F938F939F9305
:101B1000AF93BF93EF93FF938091B900887F803696
:101B200009F44AC0F0F5883209F4A7C018F58031ED
:101B300009F49BC0B8F4882309F4F9C0883009F48B
:101B400094C0FF91EF91BF91AF919F918F917F9141
:101B50006F915F914F913F912F910F900FBE0F901A
:101B60001F901895883109F488C0803251F780930E
:101B7000EE0314C0803409F49DC040F48033B9F3FF
:101B80008833F9F68093EE0385ECB0C0803509F414
:101B900085C0883509F496C0883499F60E94460CB1
:101BA000D0CF883909F48CC038F5883729F050F443
:101BB000883611F0803729F683E08093F003109285
:101BC000C90357C0883809F47BC0803919F08038C0
:101BD00009F0B7CF8091C903803208F071C0E0915D
:101BE000C90381E08E0F8093C9038091BB00F0E0B0
:101BF000E755FC4F80833DC0803B39F0E0F4803AEC
:101C000009F479C0883A09F09CCF84E08093F0030E
:101C10001092A6031092A503E091A303F091A403F0
:101C200009958091A50381110FC081E08093A503E0
:101C30001092830309C0803C09F4A6CF883C09F4C4
:101C4000A3CF883B09F07DCFE091A60381E08E0F02
:101C50008093A603F0E0ED57FC4F80818093BB009A
:101C60009091A6038091A50329C08091CB03809316
:101C7000BB0085EC8093BC0064CF9091ED03809114
:101C8000EC03981758F5E091ED0381E08E0F8093F7
:101C9000ED03F0E0E453FC4F8081E9CFE091ED03E8
:101CA00081E08E0F8093ED038091BB00F0E0E45360
:101CB000FC4F80839091ED038091EC039817C8F25C
:101CC00085E8D8CFE091ED0381E08E0F8093ED039E
:101CD0008091BB00F0E0E453FC4F80838091EF03E0
:101CE00081115CCF81E08093CA0384EA8093BC00B9
:101CF0001092F00326CF85EC8093BC001092F00385
:101D00008091C903803230F4E091C903F0E0E755D7
:101D1000FC4F10826091C90370E0E091A703F0913D
:101D2000A80389EA93E009951092C9030ACF10929B
:101D3000EE0334CF1F920F920FB60F9211242F9300
:101D40003F938F939F93AF93BF938091580390914C
:101D50005903A0915A03B0915B033091570323E0DC
:101D6000230F2D3758F50196A11DB11D2093570360
:101D70008093580390935903A0935A03B0935B0345
:101D800080915C0390915D03A0915E03B0915F032D
:101D90000196A11DB11D80935C0390935D03A093F8
:101DA0005E03B0935F03BF91AF919F918F913F917D
:101DB0002F910F900FBE0F901F90189526E8230FBC
:101DC0000296A11DB11DD2CF1F920F920FB60F9296
:101DD00011242F933F934F935F936F937F938F9330
:101DE0009F93AF93BF93EF93FF9386E294E00E949B
:101DF000AF09FF91EF91BF91AF919F918F917F912B
:101E00006F915F914F913F912F910F900FBE0F9067
:101E10001F9018951F920F920FB60F9211242F93B7
:101E20008F939F93EF93FF93E0913604F0913704E3
:101E30008081E0913C04F0913D0482FD1BC09081C3
:101E400080913F048F5F8F7320914004821741F08F
:101E5000E0913F04F0E0EA5DFB4F958F80933F04F3
:101E6000FF91EF919F918F912F910F900FBE0F9047
:101E70001F9018958081F4CF1F920F920FB60F928A
:101E800011242F933F934F935F936F937F938F937F
:101E90009F93AF93BF93EF93FF9382E00E94C60A94
:101EA000FF91EF91BF91AF919F918F917F916F9132
:101EB0005F914F913F912F910F900FBE0F901F9008
:101EC00018951F920F920FB60F9211242F933F93E4
:101ED0004F935F936F937F938F939F93AF93BF9332
:101EE000EF93FF9381E00E94C60AFF91EF91BF91AB
:101EF000AF919F918F917F916F915F914F913F91A2
:101F00002F910F900FBE0F901F9018951F920F9258
:101F10000FB60F9211242F933F934F935F936F93BC
:101F20007F938F939F93AF93BF93EF93FF9380E043
:101F30000E94C60AFF91EF91BF91AF919F918F913F
:101F40007F916F915F914F913F912F910F900FBEB5
:101F50000F901F901895CF93DF93EAE1F4E013827E
:101F6000128288EE93E0A0E0B0E084839583A6839C
:101F7000B7832CE531E031832083E6E2F4E013827D
:101F8000128284839583A683B7838EE691E0918342
:101F9000808385EC90E09587848784EC90E0978738
:101FA000868780EC90E0918B808B81EC90E0938B26
:101FB000828B82EC90E0958B848B86EC90E0978B03
:101FC000868B118E128E138E148E69EB71E08CE06D
:101FD00096E00E94F70C6FEC71E086E096E00E94BC
:101FE000F70C6AED71E080E096E00E94F70C68EE75
:101FF00071E08AEF95E00E94F70C6FEE71E084EFDC
:1020000095E00E94F70CC7ECD4E088E090E099835B
:1020100088838AE090E0A0E0B0E08A839B83AC8371
:10202000BD831E8218861F828FEF9FEF9A87898754
:1020300086E0E3EFF1E0A2EDB4E001900D928A9525
:10204000E1F78FE590E09A8B898B87E0E9EFF1E08B
:10205000AAEDB4E001900D928A95E1F786E0E5E102
:10206000F1E0A1EEB4E001900D928A95E1F71092B3
:10207000E70486E0E0E0F2E0A8EEB4E001900D9223
:102080008A95E1F786E0ECE1F1E0AEEEB4E0019094
:102090000D928A95E1F78CE291E0A0E0B0E08DA787
:1020A0009EA7AFA7B8AB89AB9AABABABBCAB10925A
:1020B000FD041092FC048EE3EEEFF4E0DF01982FB4
:1020C0001D929A95E9F710923D0510923C05EEE3BA
:1020D000F5E0DF01982F1D929A95E9F710927F05A0
:1020E00010927E0591E090938505109288051092DC
:1020F000870520E831E030937D0520937C05109220
:102100008B0510928C0510928D0510928E05109201
:102110008F051092900510929105109292051092E1
:1021200093051092940510929505109296051092C1
:102130009705109298051092990510929B051092A0
:102140009A0510929D0510929C0510929F05109281
:102150009E051092A1051092A0051092A305109261
:10216000A2051092A5051092A4051092A705109241
:10217000A6051092A9051092A80598E0E2E2F1E008
:10218000AAEAB5E001900D929A95E1F71092B30595
:102190001092B205E4EBF5E0DF011D928A95E9F7B4
:1021A0000E9416096093C3047093C4048093C5040D
:1021B0009093C604DF91CF910895CF93DF93CDB76D
:1021C000DEB7C454D1090FB6F894DEBF0FBECDBF41
:1021D000789484B5826084BD84B5816084BD85B502
:1021E000826085BD85B5816085BD80916E0081600E
:1021F00080936E00109281008091810082608093B4
:1022000081008091810081608093810080918000B5
:102210008160809380008091B10084608093B100E0
:102220008091B00081608093B00080917A008460DA
:1022300080937A0080917A00826080937A00809106
:102240007A00816080937A0080917A008068809320
:102250007A001092C10010928103109280031092B4
:10226000F703109219040E9490078CEB96E090936C
:10227000A4038093A3038DEB96E09093A80380932F
:10228000A70388E48093B800E0913604F091370406
:1022900082E08083E0913204F09133041082E09177
:1022A0003404F091350480E1808310923E04E09183
:1022B0003A04F0913B0486E08083E0913804F09189
:1022C0003904808180618083E0913804F091390481
:1022D000808188608083E0913804F09139048081A6
:1022E00080688083E0913804F091390480818F7D8B
:1022F00080838091C9049091CA04A091CB04B091CD
:10230000CC0480932A0490932B04A0932C04B093C4
:102310002D0464E670E080E090E00E94E408E1E4CF
:10232000F8E02491EDE2F8E08491882399F090E0C0
:10233000880F991FFC01E25FF94FA591B491FC0150
:10234000EB5EF74F859194918FB7F894EC91E22B67
:10235000EC938FBF60E08EE00E94440767EF75E06A
:1023600086E294E00E94230B60EE75E086E294E042
:102370000E94230B69EC75E086E294E00E94230B37
:1023800086E294E00E943D0A66E072E08E010F5FF3
:102390001F4FC8010E94F70C6AE072E0CE018296DE
:1023A0000E94F70CB801CE0182960E94350BCE0137
:1023B00082960E94900CC8010E94900C66E072E028
:1023C000C8010E94F70C68E172E0CE0182960E947B
:1023D000F70CB801CE0182960E94350BCE01829691
:1023E0000E94900CC8010E94900C66E072E0C80147
:1023F0000E94F70C64E272E0CE0182960E94F70C14
:10240000B801CE0182960E94350BCE0182960E94C1
:10241000900CC8010E94900C6EEA75E086E294E090
:102420000E941E0A19A283E488A383E38F8FBE0152
:10243000615E7F4F86E294E00E94DE0A86E294E0CD
:102440000E94ED0A6AE070E080E090E00E94E408FB
:1024500010928A058CE38093890510928005109272
:102460008105E8EAF5E0A590B490EAEAF5E0D490B9
:10247000EBEAF5E0E491E0938205ECEAF5E0E49123
:10248000E0938305EDEAF5E0E491E0938405F12C17
:10249000E12CED1460F4F501EE0DFF1D64918CE765
:1024A00095E00E9477048FEFE81AF80AF2CF1092B5
:1024B00086050E94ED0480918305803429F40E94F2
:1024C000ED0481E08093860584E990E0909388058F
:1024D000809387050E94ED0469E870E086E294E04D
:1024E0000E94230B6AE070E080E090E00E94E40824
:1024F00088E196E0909388058093870581E080933A
:10250000CD0480E1EAE2F1E0DE01929601900D92C5
:102510008A95E1F780E1EAE3F1E0D80101900D92BC
:102520008A95E1F740E16FE370E0CE01CE960E941C
:10253000430DCE01CE960E94980C7E0192E3E90EE7
:10254000F11C61E372E0C7010E94F70C2496CEAC47
:10255000DFAC2497AEACBFACA114B10409F4C0C089
:10256000C114D104B1F08EA99FA9C80ED91EB6011D
:10257000C7010E94AE0C882309F4B2C02AA93BA966
:102580008EA99FA9B501820F931F0E94BE19DFAAD1
:10259000CEAA19AE18AE1BAE1AAE1DAE1CAE6AA9FD
:1025A0007BA96115710531F04EA95FA9CE01C896CE
:1025B0000E94D60CCE01C8960E94F10ACE01C896A0
:1025C0000E94900CC7010E94900C8FE380938E05AF
:1025D00010928103109280031092F7031092190455
:1025E0000E9490078CEB96E09093A4038093A30342
:1025F0008DEB96E09093A8038093A70380918C05C0
:1026000080938F05D0908E050E94CF074B015C010F
:102610008091F003811168C081E08093F003809382
:10262000EF039FEF9093EE031092ED031092EC03F3
:102630008093CB038091CB03DD0CD82AD092CB03BF
:102640008091CA03813009F07CC01092CA030E94B5
:10265000CF074B015C018091CB038093BB0080913D
:10266000F2039091F303A091F403B091F503892B49
:102670008A2B8B2BA1F00E94CF074090F203509041
:10268000F3036090F4037090F503681979098A09DF
:102690009B09461657066806790608F446C08091DD
:1026A000BC0083FDD8CF85EC8093BC000E94CF078F
:1026B0004B015C018091F003813009F444C08091AA
:1026C000ED03811162C08091ED03ACECB3E0E0E674
:1026D000F3E090E0981771F12D9121939F5FFACF6D
:1026E000C7010E947E0C55CF8091F2039091F303B5
:1026F000A091F403B091F503892B8A2B8B2B09F45D
:1027000087CF0E94CF074090F2035090F303609070
:10271000F4037090F503681979098A099B09461634
:1027200057066806790608F073CF8091F1030E947E
:10273000AE0780E01092810380938003811127C04F
:10274000FFCF85EEB1CF8091F2039091F303A0917A
:10275000F403B091F503892B8A2B8B2B09F4AACFB4
:102760000E94CF074090F2035090F3036090F4036F
:102770007090F503681979098A099B09461657066E
:102780006806790608F096CFD0CF81E09ECF8AE127
:1027900094E00E94CE0680938C05FE01B2965F0104
:1027A000680144244394512CF501819091905F017C
:1027B00080918D053201082C01C0660C0A94EAF75D
:1027C000862980938D0580918B05262C209482216B
:1027D00080938B058BE895E00E94AE0AF60130806D
:1027E000F1812596FFAF259782E0C80ED11C80911C
:1027F0008B05332009F414C1682A60928B058BE89D
:1028000095E00E94AE0A6FE372E0C7010E94F70CE8
:10281000C7010E945D0AC7010E94900C4AE0B40102
:10282000C7010E94430DC7010E945D0AC7010E94B3
:10283000900C67E472E0C7010E94F70CC7010E9488
:102840005D0AC7010E94900C4AE0632D25967FAD7A
:102850002597C7010E94430DC7010E94F10AC701D5
:102860000E94900CAE14BF0409F09ECF1BAA1AAAB6
:102870001DAA1CAA1FAA1EAA66E170E0C7010E9439
:10288000AE0C8111D1C0C7010E947E0CC7010E940D
:10289000F10AC7010E94900CCE01CE960E94900CC6
:1028A00081E090E09093C8048093C70461E572E0F2
:1028B00086E294E00E940C0B88E199E20FB6F8944E
:1028C000A895809360000FBE9093600086E294E02C
:1028D0000E94ED0A6EE572E0C8010E94F70CC80183
:1028E0000E94F10AC8010E94900C6CE871E0C701D7
:1028F0000E94F70C78E0C72ED12CAA24A394BC2CFC
:10290000A092F603C09218041092F70310921904D3
:1029100081E00E94F4078111B6C06EE672E0C80142
:102920000E94F70CC8010E945D0AC8010E94900C29
:1029300066E772E0C8010E94F70CC8010E945D0AB8
:10294000C8010E94900C1BA21AA21DA21CA21FA2C9
:102950001EA240E1B801C6010E945017F801019083
:102960000020E9F73197AF01401B510BB801CE01B0
:1029700082960E94D60C8AA99BA9009709F461C08F
:102980006AA17BA16115710509F459C04CA95DA923
:102990002EA13FA14217530708F451C00E94BE194F
:1029A0008EA19FA19FAB8EAB1FA21EA2CE018296CD
:1029B0000E94900CC7010E94980C1A8219821C82F6
:1029C0001B821E821D826AA97BA96115710529F0EF
:1029D0004EA95FA9C8010E94D60CC8010E945D0AD9
:1029E000C8010E94900C6BE772E0C8010E94F70CCE
:1029F000C8010E94F10AC8010E94900CE8ECEB0D9E
:102A0000E83008F08CC1F0E0E85FFA4E0C94B117A2
:102A10003215831683168316861689168F168C1622
:102A2000822180938B05EBCE86E190E09FAB8EAB4D
:102A30006EEF77E08AA99BA90E94071727CF0E9413
:102A400053188AA19BA19BAB8AAB8CA19DA19DAB86
:102A50008CAB8EA19FA19FAB8EAB1BA21AA21DA215
:102A60001CA2A2CF6FE772E0C8010E94F70CC80158
:102A70000E94F10AC8010E94900C61E070E080E0C1
:102A800090E00E94E4089FEFC91AD90AE8E7CE1641
:102A9000D10409F034CF67EB72E0C8010E94F70C53
:102AA000C8010E94F10AC8010E94900CC7010E944F
:102AB000900CA89566E072E0CE0182960E94F70C19
:102AC00069EC72E0C8010E94F70CBE016E5D7F4F99
:102AD000C8010E94350BC8010E94900CCE0182965D
:102AE0000E94900C86E294E00E94ED0A86E294E057
:102AF0000E943D0A64ED72E0C8010E94F70CC80113
:102B00000E94F10AC8010E94900C62EE72E0C801B6
:102B10000E94F70CC8010E94F10AC8010E94900CA3
:102B20008091000181110E940C0D39EE632E32E07C
:102B3000732E40E0C42E40E0D42E55245394AA2492
:102B4000AA94BA2C88248394912C8091D0049091DB
:102B5000D10401969093D1048093D0042091C704AE
:102B60003091C8048217930724F01092D104109278
:102B7000D004F090D004E090D10462ED74E08CE3D6
:102B800095E00E94BE19EF92FF927F926F921F9381
:102B90000F930E94D319B8018CE395E00E94AA1903
:102BA0006BE871E08CE395E00E94AA190E94900BFB
:102BB0000E94B00B0F900F900F900F900F900F90FE
:102BC0008091FC04882359F06CEF74E0C8010E94E6
:102BD000F70CC8010E94F10AC8010E94900C0E94E3
:102BE0001C0C882309F49EC08091550390915603D4
:102BF0009C012F5F3F4F3093560320935503059759
:102C00000CF090C06CEE72E08091F2059091F305AB
:102C10000E940E17BC018EEE92E00E94B519892B1E
:102C2000F1F66CEE72E090E080E00E940E177C01FD
:102C3000892B09F4A7C064EF72E0C8010E94F70C69
:102C4000C8010E94F10AC8010E94900CB701C80196
:102C50000E94F70CC8010E94F10AC8010E94900C62
:102C600042E050E0B70183E091E00E94C519892B52
:102C700009F069C08091010190910201892B71F0E6
:102C80000E9416096093C3047093C4048093C50422
:102C90009093C6041092020110920101E09001018C
:102CA000F0900201F7FC9BCF0E9416092091C3040B
:102CB0003091C4044091C5045091C604621B730B4B
:102CC000840B950BF701EE0FFF1FEE0FFF1FE05B6C
:102CD000FE4F2081318142815381261737074807F3
:102CE000590708F07CCFE114F10409F450C0EA94CC
:102CF000EF2809F074CF80910001882309F46FCF89
:102D00000E940C0D6CCF60E972E0AECE6AE972E011
:102D1000ABCE6AEA72E0A8CE6AEF71E0A5CE6FEAA8
:102D200072E0A2CE1092560310925503A895C114DA
:102D3000D10409F40ACF0E949B09882309F405CF26
:102D40000E94000002CF43E050E0B70188E091E02C
:102D50000E94C519892BB1F4809101019091020163
:102D6000019709F49BCF0E9416096093C3047093E6
:102D7000C4048093C5049093C6049092020180928B
:102D800001018CCFB0920201A092010187CF809106
:102D90000001811124CF64E073E086E294E00E9498
:102DA0000C0B80918B058E7F80938B058BE895E0D3
:102DB0000E94AE0A6EE073E0CE0101960E94F70C0D
:102DC000CE0101960E946F0BCE0101960E94900CDD
:102DD0000E94900B0E942C0C811102C0A895EACF92
:102DE00050920001FCCE84EF95E00E94900C8AEF97
:102DF00095E00E94900C80E096E00E94900C86E0A6
:102E000096E00E94900C8CE096E00C94900CFB01F4
:102E1000DC0105900D920020E1F7089542E156E0B3
:102E20000E9413170895FA01A191B081009719F437
:102E30001097E1F0CD01DC01CD010D90002011F4DF
:102E4000C00113C0FB012191222319F02015D9F7ED
:102E5000F3CFFB012191201519F41E92119606C0A3
:102E60002223C1F70D900020A1F7D001FA01A19310
:102E7000B08308954532510520F4423010F00C948F
:102E80004517FB011082CB010895BB274A3031F46E
:102E9000992322F4BDE2909581959F4F0C94511790
:102EA000BB27FB015527AA27880F991FAA1FA41724
:102EB00010F0A41B83955051B9F7A05DAA3308F018
:102EC000A95DA193009779F7B111B1931192CB014C
:102ED0000C946A17DC01FC01672F71917723E1F7ED
:102EE000329704C07C916D9370836291AE17BF07D7
:102EF000C8F308952F923F924F925F926F927F9204
:102F00008F929F92AF92BF92CF92DF92EF92FF92F9
:102F10000F931F93CF93DF93CDB7DEB7CA1BDB0BA5
:102F20000FB6F894DEBF0FBECDBF09942A8839884A
:102F300048885F846E847D848C849B84AA84B98451
:102F4000C884DF80EE80FD800C811B81AA81B9815D
:102F5000CE0FD11D0FB6F894DEBF0FBECDBFED0171
:102F60000895EE0FFF1F0590F491E02D09940F9343
:102F70001F93CF93DF938230910510F482E090E0AD
:102F8000E0911606F091170630E020E0B0E0A0E0F6
:102F9000309799F42115310509F44AC0281B390BE3
:102FA00024303105D8F58A819B816115710589F13D
:102FB000FB0193838283FE0111C040815181028114
:102FC000138148175907E0F04817590799F41097EB
:102FD00061F012960C93129713961C933296CF01C0
:102FE000DF91CF911F910F910895009316061093D2
:102FF0001706F4CF2115310551F04217530738F069
:10300000A901DB019A01BD01DF01F801C1CFEF0188
:10301000F9CF9093170680931606CDCFFE01E20FED
:10302000F31F819391932250310939832883D7CF9D
:103030002091140630911506232B41F420910F01A5
:1030400030911001309315062093140620910D0144
:1030500030910E012115310541F42DB73EB7409155
:10306000110150911201241B350BE0911406F091CF
:103070001506E217F307A0F42E1B3F0B281739079C
:1030800078F0AC014E5F5F4F2417350748F04E0FC4
:103090005F1F5093150640931406819391939FCF21
:1030A000F0E0E0E09CCFCF93DF930097E9F0FC01E4
:1030B000329713821282A0911606B0911706ED0185
:1030C00030E020E01097A1F420813181820F931F1E
:1030D00020911406309115062817390709F061C0B0
:1030E000F0931506E0931406DF91CF910895EA015D
:1030F000CE17DF07E8F54A815B819E014115510536
:10310000B1F7E901FB83EA8349915991C40FD51FB7
:10311000EC17FD0761F4808191810296840F951F61
:10312000E90199838883828193819B838A83F0E07C
:10313000E0E012968D919C9113970097B9F52D912F
:103140003C911197CD010296820F931F2091140696
:10315000309115062817390739F6309751F5109236
:10316000170610921606B0931506A0931406BCCF4E
:10317000D383C28340815181840F951FC817D9071B
:1031800061F44E5F5F4F88819981480F591F5183C9
:1031900040838A819B81938382832115310509F0C5
:1031A000B0CFF0931706E09316069ECFFD01DC0129
:1031B000C0CF13821282D7CFB0E0A0E0E2EEF8E1F8
:1031C0000C947C178C01009751F4CB010E94B71727
:1031D0008C01C801CDB7DEB7E0E10C949817FC0173
:1031E000E60FF71F9C0122503109E217F30708F49C
:1031F0009DC0D901CD91DC911197C617D70798F0E2
:10320000C530D10530F3CE0104978617970708F330
:10321000C61BD70B2297C193D1936D937C93CF019B
:103220000E945318D6CF5B01AC1ABD0A4C018C0E1C
:103230009D1EA0911606B0911706512C412CF12C21
:10324000E12C109731F580911406909115068815A0
:10325000990509F05CC04616570608F058C08091E1
:103260000D0190910E01009741F48DB79EB74091EA
:10327000110150911201841B950BE817F90708F012
:1032800055C0F0931506E0931406F901718360832D
:10329000A0CF8D919C91119712966C9012971396D6
:1032A0007C901397A815B90559F56C0142E0C40E3E
:1032B000D11CCA14DB0420F1AC014A195B09DA0104
:1032C0001296159780F06282738251834083D901F0
:1032D0006D937C93E114F10471F0D7011396FC9384
:1032E000EE93129776CF22968C0F9D1FF901918352
:1032F0008083F301EFCFF0931706E093160669CFB2
:103300004816590608F42C017D01D3019ACFCB0150
:103310000E94B7177C01009749F0AE01B8010E94E6
:10332000A119C8010E945318870153CF10E000E093
:1033300050CF9111089581568A5108F480528558D2
:103340000895FB01DC0102C001900D9241505040F4
:10335000D8F70895FB01DC010D900020E9F71197E3
:1033600001900D920020E1F70895FB01DC018D91A1
:10337000019080190110D9F3990B0895FB01DC012C
:1033800001900D920020E1F70895FB01DC0141500E
:10339000504030F08D910190801919F40020B9F758
:1033A000881B990B0895AEE0B0E0E9EDF9E10C94CB
:1033B00088170D891E8986E08C831A8309838FEF15
:1033C0009FE79E838D83AE01475E5F4F6F89788D47
:1033D000CE0101960E94F6192F813885020F131F26
:1033E000F80110822E96E4E00C94A417ABE0B0E054
:1033F000ECEFF9E10C947A177C013B018A01FC01A6
:1034000017821682838181FFC8C1CE0101965C01BB
:10341000F7019381F30193FD859193FF81913F0122
:10342000882309F453C1853239F493FD859193FFC4
:1034300081913F01853229F4B70190E00E94E61B9B
:10344000E7CF912C212C312CFFE1F31538F08B3292
:1034500011F190F4803209F1833229F137FC3CC03C
:1034600020ED280F2A3050F536FE20C08AE0989EC5
:10347000200D1124922E06C08D3291F0803371F709
:10348000689430F8F30193FD859193FF81913F019A
:103490008111DACF21C0689431F8689432F8F2CF04
:1034A000689433F8EFCF689434F8ECCFEAE02E9EBE
:1034B000200D1124222E689435F8E4CF8E3229F4A1
:1034C00036FC04C1689436F8DDCF8C3619F4689464
:1034D00037F8D8CF8836B1F2982F9F7D9554933026
:1034E000E0F08336A1F18337C1F1833509F063C081
:1034F0002801F2E04F0E511CF801C080D180692DE7
:1035000070E036FC02C06FEF7FEFC6010E94D01B57
:103510004C01689437F882010AC00C5F1F4FFFE32B
:10352000F98388248394912C6501E89437F833FE5D
:103530002DC0522C8114910471F5552009F468CFE7
:10354000B70180E290E00E94E61B5A94F6CFF801A2
:10355000808189830E5F1F4FE4CF2801F2E04F0E78
:10356000511CF801C080D180692D70E036FC02C08A
:103570006FEF7FEFC6010E94DB1B4C018201D5CFAC
:10358000B70180E290E00E94E61B2A9428141904F7
:1035900009F0B0F7CECFF60137FC859137FE819167
:1035A0006F01B70190E00E94E61B51105A94F1E0C0
:1035B0008F1A9108BFCF843619F0893609F077C089
:1035C000F80137FE6BC060817181828193810C5F4D
:1035D0001F4FF32DFF763F2E97FF09C090958095E2
:1035E000709561957F4F8F4F9F4F689437F82AE011
:1035F00030E0A5010E94161CC82ECA188C2C432C42
:1036000036FE0CC0E89440F8C91440F434FE05C0FE
:1036100032FC03C0F32DFE7E4F2E892C44FE95C054
:10362000FE01EC0DF11D8081803309F087C0242D4F
:10363000297E422E842D8870582E43FC95C040FE72
:103640008FC09C2C821418F42C0C922C981844FED9
:1036500091C0B70180E390E00E94E61B42FE09C0E2
:1036600088E790E041FE02C088E590E0B7010E9443
:10367000E61BC91408F48AC0CA94D12C9FEFC91A5A
:10368000D90ACA0CDB1CF60182916F01B70190E0E8
:103690000E94E61BAC14BD04B1F74FCF608171816D
:1036A000072E000C880B990B0E5F1F4F92CFD32C67
:1036B000E894D4F82AE030E0853739F1232D297FCA
:1036C000D22E8F3601F148F48835A9F0F7018681B2
:1036D00097812B96E2E10C949617803749F0883752
:1036E000A9F7D4FE02C06894D2F820E130E00DC002
:1036F0006894D4F8F6CF34FE03C0822F8660D82EAB
:1037000020E132E002C028E030E0F801D7FE0FC02F
:1037100060817181828193810C5F1F4FA5010E949E
:10372000161CC82ECA183D2CE89437F867CF608164
:10373000718190E080E00E5F1F4FF0CF42FC02C02D
:10374000839478CF8394839475CF842D867809F4FD
:1037500071CFF6CFB70180E290E00E94E61B839420
:103760008214C0F3512C73CF522C5818821408F4D1
:103770006ECFF8CF842D867809F47BCF8BE241FEA3
:1037800080E247FC8DE2B70190E071CFB70180E3A2
:1037900090E00E94E61B9A946CCF8FEF9FEF99CF39
:1037A000FC010590615070400110D8F7809590950C
:1037B0008E0F9F1F0895FC01615070400190011011
:1037C000D8F7809590958E0F9F1F08950F931F93A4
:1037D000CF93DF93182F092FEB018B8181FD09C057
:1037E0001FEF0FEF812F902FDF91CF911F910F913E
:1037F000089582FF14C02E813F818C819D812817FE
:1038000039073CF4E881F981CF01019699838883D7
:1038100010838E819F8101969F838E83E3CFE885FD
:10382000F985812F0995892BA1F3DACFFA01AA270F
:10383000283051F1203181F1E8946F936E7F6E5FF3
:103840007F4F8F4F9F4FAF4FB1E03ED0B4E03CD0A1
:10385000670F781F891F9A1FA11D680F791F8A1F84
:10386000911DA11D6A0F711D811D911DA11D20D0EB
:1038700009F468943F912AE0269F11243019305DA5
:103880003193DEF6CF010895462F4770405D419396
:10389000B3E00FD0C9F7F6CF462F4F70405D4A33E3
:1038A00018F0495D31FD4052419302D0A9F7EACFAB
:1038B000B4E0A6959795879577956795BA95C9F7DA
:1038C00000976105710508959B01AC010A2E0694CD
:1038D0005795479537952795BA95C9F7620F731F86
:1038E000841F951FA01D089514E0C7E3D4E004C011
:1038F000FE010E94B1172196C833D107C9F7F89489
:02390000FFCFF7
:1039020001FFFF414800000052455300000000182B
:1039120006800000002141434B00000021454F4634
:10392200000021506F6C6C390000000001000200A1
:103932000300040005000600070001000100010069
:10394200010001000100010001006B006C006D002C
:10395200F4010000B80B0000000000001507E806A3
:10396200AB0ABE06E106CE06BF0600000000D10982
:1039720031095E093D0A8F096D09810900000000C5
:103982000B053109AB0A2209700A0D0A00214272A5
:103992002C002C446F6E652E005354415254474103
:1039A2004D4521210021506F6C6C300A214C454459
:1039B2005F3132305F305F30005374757474676109
:1039C20072742047616C6C65727920412F4200301D
:1039D200322E30322E323032310076657273696F98
:1039E2006E20312E305354004272524649440055E3
:1039F200564C0021506F6C6C002152656C6179004D
:103A0200214E41434B00535953002168656164655F
:103A1200725F626567696E00216865616465725FE5
:103A2200656E64002173657475705F626567696EA7
:103A32000072656C6179696E6974206F6E20005244
:103A4200656C6179205B005D2073657420746F2062
:103A52000057445420656E6461626C6564002020E6
:103A620020493243205363616E6E65723A00466F9D
:103A7200756E643A20002028307800292020004BFF
:103A82006579706164202864656661756C742900CB
:103A92004B65797061642F494F004F6C656420203B
:103AA2002864656661756C7429004F6C6564005505
:103AB2006E6B6E6F776E00493243207363616E20C6
:103AC200636F6D706C657465002173657475705FEA
:103AD200656E64000A3D3D3D53544152543D3D3DA7
:103AE2000A004D4F74686572002569005F0021521B
:103AF2004649440063617264206465746563746559
:103B0200643A2000454E4447414D45212100215051
:103B12006F6C6C300A214C45445F305F3235355F43
:023B2200300071
:00000001FF
