:100000000C9438040C9460040C9460040C94D50F88
:100010000C94B00F0C948B0F0C9460040C9460043F
:100020000C9460040C9460040C9460040C946004C0
:100030000C9460040C9460040C9460040C946004B0
:100040000C94E90E0C9460040C94590F0C94330F2B
:100050000C9460040C9460040C9460040C94600490
:100060000C94CA0D0C946004AEB08180A1A6A83F88
:10007000AD8B32C8D300D580D91FDA12DB40AF0078
:100080000000002300260029005375636365737325
:1000900066756C001C620A0C206002020508070DE0
:1000A00008020404050702040206070607070707FB
:1000B000070707070202070707050A0707070806D9
:1000C00006080804060707090809070908070808B9
:1000D000070C0708060406040809030606060606B8
:1000E000050606020407020A0606060605050506B9
:1000F000060A0606050602060809000000007E7EC4
:10010000303007070007070000000000C0D8F8DE05
:10011000D8F8DE180030000030000000387C64FFA2
:1001200064E4C8102020F02030103C7E427E3CC0A9
:100130002018E6F010F0E000000000300000001091
:1001400030203010DCFE227EDC8060201030202049
:100150002010302007070000F8FE07011070E08033
:100160000107FEF880E07010120C3F0C1200000036
:100170000000202020FC20202000000010000000B3
:100180000000F0702020202000000000000030302F
:100190000080E07C1F03C0F030000000FCFE020283
:1001A00002FEFC103020202030100404FEFE00006F
:1001B000202030302020040682C2623E1C203030D5
:1001C000202020200406222222FEDC1030202020C5
:1001D0003010C0A09884FEFE800000000030300087
:1001E000001E1E1212F2E210302020203010F8FC07
:1001F000161212F2E010302020203010020282E2AB
:100200007A1E0600203010000000DCFE222222FEB2
:10021000DC103020202030103C7E424242FEFC00A8
:10022000202020301000181830301818F07060604E
:10023000909008080400000000101020909090900A
:10024000909090000000000000000408089090606A
:1002500060201010000000000462721E0C0030309C
:100260000000F00CF4FA0AFAFA040CF00030205006
:1002700050505010100080F8FE86FEF8803030009C
:1002800000003030FEFE22223EFCC0303020202014
:100290003010F8FC0602020204001030202020106A
:1002A000FEFE02020206FCF8303020202030100052
:1002B000FEFE22222222303020202020FEFE22229A
:1002C0002222303000000000F8FC06024242C2C484
:1002D0000010302020203030FEFE20202020FEFEA6
:1002E000303000000000303002FEFE0220303020AE
:1002F00000020202FEFE202020203010FEFE70D8F8
:100300008C060230300000103020FEFE000000009D
:100310000030302020202020FE0E3CF0C0300CFEAB
:10032000FE300000000000003030FE061C38E0C047
:1003300000FE3000000000103030F8FC060202021F
:1003400006FCF8001030202020301000FEFE424253
:10035000427E3C30300000000000F8FC0602020241
:1003600006FCF80010302060E0B09080FEFE2262B3
:10037000E2BE1C0030300000001030201C3E322253
:1003800062E2C410202020203010020202FEFE0291
:1003900002020000003030000000FEFE00000000FD
:1003A000FEFE10302020202030100E7EF080F07EE7
:1003B0000E000030303000000E7EF080E03E3EE067
:1003C00080F07E0E00003030000000003030000071
:1003D000068EF870F88E0630300000003030060EC1
:1003E00018F0F0180E06000000303000000002C2C5
:1003F000F23E0E02303020202020FFFF0101F0F0FD
:100400008080031F7CE0800000000030F0C001010C
:10041000FFFF8080F0F010180C06060C181000008A
:10042000000000000000000000000000000000804C
:100430008080808080808080010302000000C0E80E
:100440002828F8F0103020203030FFFF0808F8F09E
:10045000303020203010F0F808080810103020202C
:100460002010F0F80808FFFF103020203030F0F89E
:100470004848787010302020201008FEFF0909003D
:1004800030300000F0F80808F8F810B0A0A0F070C4
:10049000FFFF0808F8F0303000003030FBFB303050
:1004A0000008FBFB8080F070FFFF60F098080030D0
:1004B000300000103020FFFF3030F8F81008F8F05E
:1004C0001008F8F030300000303000003030F8F81C
:1004D0000808F8F0303000003030F0F80808F8F084
:1004E000103020203010F8F80808F8F0F0F0202044
:1004F0003010F0F80808F8F810302020F0F0F8F884
:100500001018183030000000307848C888202020AB
:10051000301008FEFE08080010302020F8F8000017
:10052000F8F810302020303038F8C0C0F83800100B
:100530003030100078F880C03838C080F87800304B
:10054000300000000030300018B8E0E0B81830305B
:100550000000303038F8C0C0F8380090F07010005B
:1005600008C8E8781830302020202020FEDF010164
:10057000000070F08080FFFFF0F00101DFFE20201E
:100580008080F0700000E01010204080807000003B
:10059000000000000000FE02020202020202FE3021
:1005A00020202020202020306800178040020A0AE6
:1005B0004F4C454420696E6974206F6E204164641D
:1005C000726573733A203078002B2D2D2D2D2D2D33
:1005D0002D2D2D2D2D2D2D2D2D2D2D2D2D2D2B007A
:1005E0007C20202020456C656374726F736361709A
:1005F00065202020207C002B2D2D2D2D2D2D2D2D07
:100600002D2D2D2D2D2D2D2D2D2D2D2D2B000000A3
:100610000000240027002A000000050720600000D9
:1006200000000000005F00000007000700147F14B6
:100630007F14242A7F2A1223130864623649562025
:10064000500008070300001C2241000041221C004A
:100650002A1C7F1C2A08083E080800807030000809
:1006600008080808000060600020100804023E51DD
:1006700049453E00427F400072494949462141496F
:100680004D331814127F1027454545393C4A4949D6
:100690003141211109073649494936464949291E40
:1006A000000014000000403400000008142241142F
:1006B00014141414004122140802015909063E4181
:1006C0005D594E7C1211127C7F494949363E4141A9
:1006D00041227F4141413E7F494949417F09090902
:1006E000013E414151737F0808087F00417F41006E
:1006F0002040413F017F081422417F404040407F1D
:10070000021C027F7F0408107F3E4141413E7F0969
:100710000909063E4151215E7F09192946264949AA
:10072000493203017F01033F4040403F1F204020EA
:100730001F3F4038403F63140814630304780403E8
:100740006159494D43007F41414102040810200096
:100750004141417F04020102044040404040000307
:1007600007080020545478407F28444438384444D3
:100770004428384444287F385454541800087E09CB
:100780000218A4A49C787F0804047800447D4000EB
:100790002040403D007F1028440000417F40007C05
:1007A000047804787C080404783844444438FC18FD
:1007B00024241818242418FC7C08040408485454E1
:1007C000542404043F44243C4040207C1C2040200E
:1007D0001C3C4030403C44281028444C9090907C75
:1007E0004464544C44000836410000007700000087
:1007F0004136080002010204023C2623263C0A720C
:10080000656C617920696E697420737563636573C3
:100810007366756C0000000000250028002B0004A2
:100820000404040404040402020202020203030397
:100830000303030102040810204080010204081091
:10084000200102040810200000000800020100003E
:10085000030407000000000000000000030C0F303C
:10086000333C3FC0C3CCCFF0F3FCFF00FA0F351789
:1008700011241FBECFEFD8E0DEBFCDBF26E0A6E13A
:10088000B3E001C01D92AC30B207E1F713E0A0E085
:10089000B1E0E6EDF9E302C005900D92A631B10793
:1008A000D9F714E0C7E3D4E004C02197FE010E9409
:1008B0000718C633D107C9F70E942C110C94DE1C0F
:1008C0000C940000CF93DF93EC019C818E819817EC
:1008D00058F4E881F9810084F185E02D42E0CE01F1
:1008E00009958C818F5F8C83DF91CF910895DC0116
:1008F000ED91FC910084F185E02D40E009940F9387
:100900001F93CF938C01FC016483C085C60F6C2FAD
:100910006F700E9477046C2F62956F706061C801E0
:10092000CF911F910F910C947704FC01278126959C
:1009300026952695621720F46583606B0C947704E6
:1009400008951F93CF93DF93EC01142F8E816817C6
:1009500018F4CE010E947F04612FCE01DF91CF9168
:100960001F910C949504CF92DF92EF92FF920F9318
:100970001F93CF93DF93EC01162FC42ED22E8F81BD
:10098000869586958695081710F00FEF080FFD2CB9
:100990000F15B0F08E81181720F4612FCE010E9440
:1009A0007F046F2DCE010E949504E12ECE1430F00D
:1009B00060E0CE010E946204E394F8CFF394E8CFA4
:1009C0004D2D612FCE01DF91CF911F910F91FF909F
:1009D000EF90DF90CF900C94A1040F9300917005DD
:1009E000069506950695015040916F05415020E00F
:1009F00060E089E695E00E94B30481E09091730580
:100A0000911101C080E08093730560E489E695E070
:100A10000F910C9477042F923F924F925F926F92B6
:100A20007F928F929F92AF92BF92CF92DF92EF927E
:100A3000FF920F931F93CF93DF9300D000D01F92AC
:100A4000CDB7DEB7DC011B960D911C910115110588
:100A500009F468C19D838C83F801449131965491C7
:100A60003196649031962491E22EF12CF7E0EF0E4E
:100A7000F11C73E0F594E7947A95E1F7E982F801C7
:100A8000349634913196E491631748F08E2F90E0BC
:100A9000FC01E30FF11D6E171F060CF487C06D30CB
:100AA00031F5AC81BD8116968C9181111AC081E01F
:100AB00090E00F900F900F900F900F90DF91CF91DB
:100AC0001F910F91FF90EF90DF90CF90BF90AF906C
:100AD0009F908F907F906F905F904F903F902F905E
:100AE000089560E08C819D810E947F04E0CF6A3090
:100AF00009F018C1EC81FD818185D5808E9DD00CD7
:100B000011248781869586958695D81630F0828542
:100B1000882319F082E08287D12C4D2D60E08C81F2
:100B20009D810E94A104AC81BD811A968C911A9777
:100B3000823008F4BCCF15962C9115971B96ED9139
:100B4000FC911C9700E0309739F03396E4911996A8
:100B50000C91E09F002D112410E0095F1F4F33E03E
:100B6000159507953A95E1F78FEF820F080FEC8105
:100B7000FD81468141506481CF010E94B304AC8164
:100B8000BD8119968C9119976D2D8E9D600D112444
:100B9000660F660F660F17968C91861708F460E053
:100BA00060648C819D810E94770481CF4527542702
:100BB00045270A5F1F4F631BEC81FD812184423072
:100BC000510508F06DC0452B09F0212C6E9CC00129
:100BD0006F9C900D1124689FF001699FF00D112406
:100BE0000E0F1F1F512CAC81BD811496BC91BA838E
:100BF000EC81FD81F581FB83862C912CAA24A394A2
:100C0000B12C312C8981381608F086C0412CAC817A
:100C1000BD8119968C91481608F077C0311002C03A
:100C2000442041F0EC81FD8145814F5F6A81CF0115
:100C30000E94A104D12CC12CC61408F05AC0F8019E
:100C4000EC0DFD1D7490552061F0EA14FB0449F48D
:100C5000E72DF0E0052C02C0F595E7950A94E2F740
:100C60007E2EAC81BD8119968C91823081F4442016
:100C700009F43BC072948FE07822E72DF0E0E55A4A
:100C8000F74F7490672D8C819D810E946204672DBF
:100C90008C819D810E946204EFEFCE1ADE0ACCCFD8
:100CA000277038E0532E521A211101C0512C50E008
:100CB00040E030E020E0F801461740F4E40FF51F73
:100CC000E4912E0F311D4F5F5F4FF5CFE60FF11D01
:100CD0006490E29EF001E39EF00DF29EF00D11246F
:100CE0008E0F9F1F080F191F7ECFB72DBF707B2E51
:100CF000C4CFD12C2D1439F060E08C819D810E94ED
:100D00006204D394F7CF439482CF3394080D191D16
:100D1000FFEFAF1ABF0A76CF6B818C819D810E9455
:100D20009504C5CE90E080E0C4CE20919903260FB3
:100D30003327331F21323105ECF42091E403FC0109
:100D400090E080E0243069F082E00895A09199035A
:100D50002191AC0149585C4FA40FB52FB11D2C93C4
:100D60000196861798F380919903680F6093990311
:100D700080E0089581E00895089508950895E09130
:100D8000750380917403E81730F4F0E0EC5AFC4FDF
:100D9000808190E008958FEF9FEF08959091750303
:100DA000809174032FEF3FEF981748F4E92FF0E09C
:100DB000EC5AFC4F208130E09F5F90937503C9018E
:100DC00008958091740390917503891B990B089580
:100DD000CF92DF92EF92FF920F931F93CF93DF9307
:100DE0007C01CB018A012091EA03222389F0EB01E7
:100DF0006B01C40ED51ECC15DD0569F06991D701D4
:100E0000ED91FC910190F081E02DC7010995F3CFA0
:100E1000642F0E949506C801DF91CF911F910F9119
:100E2000FF90EF90DF90CF900895CF93DF931F92C4
:100E3000CDB7DEB769832091EA032223F9F0209130
:100E40000D04203258F021E030E0FC01338322838E
:100E500090E080E00F90DF91CF9108958091EB03B7
:100E6000E82FF0E0E451FC4F998190838F5F8093ED
:100E7000EB0380930D0481E090E0ECCF61E0CE01C4
:100E800001960E949506F7CF90E0FC01E95BF74FD1
:100E90002491FC01ED5CF74F3491FC01E15EF74FCA
:100EA000E491EE23C9F0222339F0233001F1A8F4B4
:100EB000213019F1223029F1F0E0EE0FFF1FEB5E37
:100EC000F74FA591B4918FB7F894EC91611126C0BA
:100ED00030953E233C938FBF08952730A9F02830EA
:100EE000C9F0243049F7809180008F7D03C0809144
:100EF00080008F7780938000DFCF84B58F7784BDAB
:100F0000DBCF84B58F7DFBCF8091B0008F7780934E
:100F1000B000D2CF8091B0008F7DF9CF3E2BDACFD9
:100F20001092E40381E08093E3031092BE0361E03A
:100F300082E10E94440761E083E10E944407E9EBFB
:100F4000F0E080818E7F808380818D7F808388E444
:100F50008093B80085E48093BC000895CF93DF931D
:100F600091E0909376038823B9F0C091B800D091B6
:100F7000BA008091BC008A7B8093BC0060E082E173
:100F80000E94440760E083E10E9444070E949007AA
:100F9000D093BA00C093B800DF91CF9108953FB7C6
:100FA000F8948091500390915103A0915203B09115
:100FB000530326B5A89B05C02F3F19F00196A11D2C
:100FC000B11D3FBFBA2FA92F982F8827BC01CD0193
:100FD000620F711D811D911D42E0660F771F881FF2
:100FE000991F4A95D1F708958F929F92AF92BF9221
:100FF000CF92DF92EF92FF920F931F93CF93DF93E5
:10100000D0910D04D13208F0D7C0182FC0910C0434
:101010000E94CF076B017C018091E40381116BC0BA
:1010200082E08093E4031093E3038FEF8093E20365
:101030001092E103D093E003ACEEB3E0E0ECF3E018
:1010400080E0D81391C01092BF038091BF03CC0FF2
:10105000C82BC093BF038091BE03813009F088C0C4
:101060001092BE030E94CF076B017C018091BF03E9
:101070008093BB008091E6039091E703A091E80381
:10108000B091E903892B8A2B8B2BA1F00E94CF070B
:101090000091E6031091E7032091E8033091E90302
:1010A0006C197D098E099F0906171707280739074C
:1010B00008F442C08091BC0083FDD8CF85EC8093BA
:1010C000BC000E94CF076B017C018091E403823059
:1010D00009F450C08091E2038F3F09F46FC0809102
:1010E000E203803209F46CC08091E203803309F49A
:1010F00069C084E026C08091E6039091E703A09147
:10110000E803B091E903892B8A2B8B2B09F484CF58
:101110000E94CF078090E6039090E703A090E80339
:10112000B090E9036C197D098E099F098616970610
:10113000A806B90608F070CF8091E5030E94AE07BB
:1011400085E01092EB0310920D041092EA03DF91F8
:10115000CF911F910F91FF90EF90DF90CF90BF90B4
:10116000AF909F908F9008959D9191938F5F69CFDD
:1011700085EEA5CF8091E6039091E703A091E80367
:10118000B091E903892B8A2B8B2B09F49ECF0E9407
:10119000CF070091E6031091E7032091E803309117
:1011A000E9036C197D098E099F090617170728079F
:1011B000390708F08ACFC0CF81E0C3CF80E0C1CF2C
:1011C00082E0BFCF83E0BDCF8F929F92AF92BF925C
:1011D000CF92DF92EF92FF924B015C010E94CF070A
:1011E0006B017C010E94CF076C197D098E099F0954
:1011F000683E734081059105A8F321E0821A9108A9
:10120000A108B10888EEC80E83E0D81EE11CF11CCD
:1012100081149104A104B10429F7FF90EF90DF90AD
:10122000CF90BF90AF909F908F9008952FB7F89474
:1012300060914C0370914D0380914E0390914F0348
:101240002FBF08950895DB0114964D915C91159779
:101250006D917C91DC01ED91FC910280F381E02D98
:101260000994AF92BF92CF92DF92EF92FF920F93C9
:101270001F93CF93DF936C017B018B01040F151F2C
:10128000EB015E01AE18BF08C017D10759F0699194
:10129000D601ED91FC910190F081E02DC6010995F8
:1012A000892B79F7C501DF91CF911F910F91FF90A5
:1012B000EF90DF90CF90BF90AF900895FC01538DD9
:1012C000448D252F30E0842F90E0821B930B541720
:1012D00010F0CF96089501970895FC01918D828DAD
:1012E000981761F0A28DAE0FBF2FB11D5D968C9146
:1012F000928D9F5F9F73928F90E008958FEF9FEF85
:101300000895FC01918D828D981731F0828DE80F40
:10131000F11D858D90E008958FEF9FEF0895FC01FA
:10132000918D228D892F90E0805C9F4F821B9109C7
:101330008F73992708958AE194E00E948F0921E034
:10134000892B09F420E0822F089580E090E0892B1A
:1013500029F00E949B0981110C9400000895FC0162
:10136000A48DA80FB92FB11DA35ABF4F2C91848D06
:1013700090E001968F739927848FA689B7892C9363
:10138000A089B1898C91837080648C93938D848DB6
:10139000981306C00288F389E02D80818F7D8083B9
:1013A0000895EF92FF920F931F93CF93DF93EC0179
:1013B00081E0888F9B8D8C8D98131AC0E889F989FC
:1013C000808185FF15C09FB7F894EE89FF896083FF
:1013D000E889F98980818370806480839FBF81E080
:1013E00090E0DF91CF911F910F91FF90EF900895C2
:1013F000F62E0B8D10E00F5F1F4F0F731127E02E9D
:101400008C8D8E110CC00FB607FCFACFE889F989D4
:10141000808185FFF5CFCE010E94AF09F1CFEB8D22
:10142000EC0FFD2FF11DE35AFF4FF0829FB7F894A8
:101430000B8FEA89FB8980818062CFCFEF92FF9288
:101440000F931F93CF93DF938C017B01D0E0C0E01B
:10145000F701EC0FFD1F6491662339F0C8010E946B
:10146000D109892B11F02196F3CFCE01DF91CF91D5
:101470001F910F91FF90EF900895CF93DF93EC01B0
:10148000888D8823B9F0AA89BB89E889F9898C916C
:1014900085FD03C0808186FD0DC00FB607FCF7CF28
:1014A0008C9185FFF2CF808185FFEDCFCE010E9428
:1014B000AF09E9CFDF91CF910895CF93DF93EC018E
:1014C000BC0189E695E00E942309BE018AE194E00F
:1014D0000E9423098AE194E0DF91CF910C943D0AA8
:1014E0000F931F93CF93DF93EC01062F142F8E855C
:1014F000813120F4882331F0411104C081E00E9441
:10150000F4071E868E85811112C08D8591E090931F
:10151000EA0380930C041092EB0310920D0460E434
:10152000111101C060E08EE094E00E941507602F69
:101530008EE094E00E941507123041F48E858F5F93
:101540008E87DF91CF911F910F91089581E00E94C6
:10155000F4071E86F6CF90E080E00895FC019181AB
:1015600062818081238131E03093EA0320930C046F
:101570001092EB0310920D0460956923682B8EE0A6
:1015800094E00E94150781E00C94F40790E0FC01C0
:10159000EE0FFF1FED57FF4FA591B4912C91FC0169
:1015A000EA5BFC4F30812083880F991FFC01E05BD0
:1015B000FE4F0190F081E02D808108958F929F92DF
:1015C000AF92BF92CF92DF92EF92FF920F931F9351
:1015D000CF93DF93E9EEF4E080E4DF011D928A957A
:1015E000E9F70E9416096B017C01D0E0C0E010E031
:1015F00000E00E9416096C197D098E099F098090F0
:10160000E5049090E604A090E704B090E804681523
:1016100079058A059B05E0F500341105C9F18AE1D9
:1016200094E00E948F09892B21F38AE194E00E94C3
:101630006D09F801E554FB4F86A7DE01A554BB4FA9
:1016400090969C9189131FC02196C430D105E9F46E
:1016500083E191E087A767EA71E089EE94E00E9458
:1016600050179093E7058093E60581E0DF91CF91D5
:101670001F910F91FF90EF90DF90CF90BF90AF90B0
:101680009F908F900895D0E0C0E00F5F1F4FB1CFC3
:1016900080E0ECCFFB0101900020E9F73197AF012A
:1016A000461B570BDC01ED91FC910280F381E02D8C
:1016B000099466EA71E00C944A0BCF93DF93EC0136
:1016C000BC0189E695E00E94230989E695E00E9425
:1016D000590BBE018AE194E00E9423098AE194E05B
:1016E0000E94590B8AE194E0DF91CF910C943D0A5E
:1016F0000F931F93CF93DF938C01D0E0C0E061156F
:10170000710519F00E944A0BEC01C8010E94590BA7
:101710008C0F9D1FDF91CF911F910F91089561E074
:101720008EE00E94440769E275E08AE194E00E943D
:101730004A0B6BED74E08AE194E00E94780B8AE139
:1017400094E00E943D0A60E08EE00E944407E9E2D6
:10175000F5E080E4DF011D928A95E9F708950F9383
:101760001F93CF93DF93EC010E941E0A8C01CE01E0
:101770000E94590B800F911FDF91CF911F910F9104
:1017800008950F931F93CF93DF93EC018B018AE1B0
:1017900094E00E943D0A61E08EE00E9444078AE1E5
:1017A00094E00E94590B69EA71E08AE194E00E949A
:1017B0004A0BB8018AE194E00E9423096CEA71E0C7
:1017C0008AE194E00E944A0BBE018AE194E00E9403
:1017D00023096EEA71E08AE194E00E94780B8AE1C5
:1017E00094E00E943D0A60E08EE0DF91CF911F916E
:1017F0000F910C94440729E235E0F9010190002093
:10180000E9F79F01FC0144815581240F351F2852BF
:1018100035402134310570F46081718189E295E0B1
:101820000E94141A67EA71E089E295E00E94141A96
:1018300081E0089580E0089585ED8093BC0080915B
:10184000E6039091E703A091E803B091E9030796BE
:10185000A11DB11D23E0B695A795979587952A956B
:10186000D1F72091BC0024FD03C01092E403089539
:101870004091E6035091E7036091E8037091E9031A
:10188000452B462B472B69F30097A105B10541F085
:1018900025E32A95F1F700000197A109B109E1CFED
:1018A0008091E5030C94AE07CF93DF93EC01888120
:1018B0009981009711F00E94BD18198218821D822B
:1018C0001C821B821A82DF91CF910895FC018081D6
:1018D0009181009711F00C94BD180895CF93DF9378
:1018E000FC01C081D181209761F08991882349F062
:1018F000082E000C990B0E94031AFE013197808379
:10190000F4CFDF91CF9108950F931F93CF93DF937F
:10191000EC0188819981009759F02A813B81261733
:10192000370730F081E0DF91CF911F910F9108953B
:101930008B016F5F7F4F0E944619009759F0998382
:1019400088831B830A832C813D81232B59F7FC015B
:101950001082E8CF80E0E7CFEF92FF920F931F93C2
:10196000CF93DF93EC017B018A01BA010E94840CC2
:1019700081110BC0CE010E94540CCE01DF91CF919A
:101980001F910F91FF90EF9008951D830C83B70175
:10199000888199810E94281AF0CFFC01118210825F
:1019A00013821282158214826115710551F0FB01B8
:1019B00001900020E9F73197AF01461B570B0C94BB
:1019C000AC0C0895AF92BF92DF92EF92FF920F930B
:1019D0001F93CF93DF93CDB7DEB7A6970FB6F894DA
:1019E000DEBF0FBECDBF8C011A821982FE01339675
:1019F0008EE1DF011D928A95E9F764E671E0CE0180
:101A000001960E94281A780110E000E082E3D82EA7
:101A100094E6A92EB12CF701219131917F01D29E3C
:101A2000C001D39E900D1124B5010E94F317CB0184
:101A30004AE0BE016F5D7F4F0E948717BE016F5D58
:101A40007F4FCE0101960E94141A0230110531F029
:101A500065EB71E0CE0101960E94141A0F5F1F4FD3
:101A600003301105C1F6BE016F5F7F4FCE01819635
:101A70000E94CD0CCE0181960E94FB0BCE01819677
:101A80000E94660C0E948F0B0E94DE0A67EA71E0DA
:101A900090E080E00E9450179093E7058093E60560
:101AA000009749F1BC01CE0181960E94CD0CCE0178
:101AB00081960E945D0BCE0181960E94660C60911A
:101AC000E6057091E70544E050E087E995E00E9463
:101AD0002F1A892BD9F6A6960FB6F894DEBF0FBE43
:101AE000CDBFDF91CF911F910F91FF90EF90DF90CD
:101AF000BF90AF900895A895B6CF67EB71E08AE1EB
:101B000094E00E94780BE8E7F5E0808181608083B3
:101B1000CF010E94AE0A8AE491E00E94E20C10928A
:101B200000010895EF92FF920F931F93CF93DF93DD
:101B3000CDB7DEB762970FB6F894DEBF0FBECDBF4C
:101B40008C01CB01F801118210821382128215825E
:101B5000148250E09E012F5F3F4F7901B9010E942E
:101B60007C17F70101900020E9F73197AF014E197A
:101B70005F09B701C8010E94AC0C62960FB6F894D9
:101B8000DEBF0FBECDBFDF91CF911F910F91FF90B0
:101B9000EF9008951F920F920FB60F9211242F937A
:101BA0003F934F935F936F937F938F939F93AF93E5
:101BB000BF93EF93FF938091B900887F803609F43B
:101BC0004AC0F0F5883209F4A7C018F5803109F44D
:101BD0009BC0B8F4882309F4F9C0883009F494C094
:101BE000FF91EF91BF91AF919F918F917F916F91F5
:101BF0005F914F913F912F910F900FBE0F901F90CB
:101C00001895883109F488C0803251F78093E20337
:101C100014C0803409F49DC040F48033B9F3883394
:101C2000F9F68093E20385ECB0C0803509F485C0F5
:101C3000883509F496C0883499F60E941C0CD0CFE0
:101C4000883909F48CC038F5883729F050F4883683
:101C500011F0803729F683E08093E4031092BD03EE
:101C600057C0883809F47BC0803919F0803809F0F2
:101C7000B7CF8091BD03803208F071C0E091BD0301
:101C800081E08E0F8093BD038091BB00F0E0E356AE
:101C9000FC4F80833DC0803B39F0E0F4803A09F48A
:101CA00079C0883A09F09CCF84E08093E4031092D5
:101CB0009A0310929903E0919703F0919803099584
:101CC0008091990381110FC081E080939903109254
:101CD000770309C0803C09F4A6CF883C09F4A3CF60
:101CE000883B09F07DCFE0919A0381E08E0F8093CD
:101CF0009A03F0E0E958FC4F80818093BB009091FB
:101D00009A038091990329C08091BF038093BB00FF
:101D100085EC8093BC0064CF9091E1038091E00357
:101D2000981758F5E091E10381E08E0F8093E1036D
:101D3000F0E0E054FC4F8081E9CFE091E10381E0E5
:101D40008E0F8093E1038091BB00F0E0E054FC4FE4
:101D500080839091E1038091E0039817C8F285E8B1
:101D6000D8CFE091E10381E08E0F8093E103809171
:101D7000BB00F0E0E054FC4F80838091E3038111CD
:101D80005CCF81E08093BE0384EA8093BC00109214
:101D9000E40326CF85EC8093BC001092E40380918D
:101DA000BD03803230F4E091BD03F0E0E356FC4F18
:101DB00010826091BD0370E0E0919B03F0919C0361
:101DC0008DE993E009951092BD030ACF1092E203CA
:101DD00034CF1F920F920FB60F9211242F933F937F
:101DE0008F939F93AF93BF9380914C0390914D033A
:101DF000A0914E03B0914F0330914B0323E0230F8A
:101E00002D3758F50196A11DB11D20934B038093EA
:101E10004C0390934D03A0934E03B0934F038091D6
:101E2000500390915103A0915203B0915303019636
:101E3000A11DB11D8093500390935103A0935203B1
:101E4000B0935303BF91AF919F918F913F912F9189
:101E50000F900FBE0F901F90189526E8230F029643
:101E6000A11DB11DD2CF1F920F920FB60F92112458
:101E70002F933F934F935F936F937F938F939F9392
:101E8000AF93BF93EF93FF938AE194E00E94AF0971
:101E9000FF91EF91BF91AF919F918F917F916F9142
:101EA0005F914F913F912F910F900FBE0F901F9018
:101EB00018951F920F920FB60F9211242F938F93A4
:101EC0009F93EF93FF93E0912A04F0912B0480817C
:101ED000E0913004F091310482FD1BC0908180912B
:101EE00033048F5F8F7320913404821741F0E091A7
:101EF0003304F0E0E65EFB4F958F80933304FF914F
:101F0000EF919F918F912F910F900FBE0F901F9087
:101F100018958081F4CF1F920F920FB60F92112463
:101F20002F933F934F935F936F937F938F939F93E1
:101F3000AF93BF93EF93FF9382E00E94C60AFF9195
:101F4000EF91BF91AF919F918F917F916F915F9131
:101F50004F913F912F910F900FBE0F901F901895AA
:101F60001F920F920FB60F9211242F933F934F930E
:101F70005F936F937F938F939F93AF93BF93EF93F1
:101F8000FF9381E00E94C60AFF91EF91BF91AF914C
:101F90009F918F917F916F915F914F913F912F9181
:101FA0000F900FBE0F901F9018951F920F920FB6B3
:101FB0000F9211242F933F934F935F936F937F93CF
:101FC0008F939F93AF93BF93EF93FF9380E00E9413
:101FD000C60AFF91EF91BF91AF919F918F917F9131
:101FE0006F915F914F913F912F910F900FBE0F9086
:101FF0001F901895CF93DF93EEE0F4E013821282E6
:1020000088EE93E0A0E0B0E084839583A683B78355
:1020100028E731E031832083EAE1F4E01382128281
:1020200084839583A683B7838AE891E09183808334
:1020300085EC90E09587848784EC90E0978786878D
:1020400080EC90E0918B808B81EC90E0938B828B85
:1020500082EC90E0958B848B86EC90E0978B868B5E
:10206000118E128E138E148E63EC71E080E096E078
:102070000E94CD0C69ED71E08AEF95E00E94CD0CD5
:1020800064EE71E084EF95E00E94CD0C62EF71E0A8
:102090008EEE95E00E94CD0C69EF71E088EE95E040
:1020A0000E94CD0CCBEBD4E088E090E0998388834C
:1020B0008AE090E0A0E0B0E08A839B83AC83BD839C
:1020C0001E8218861F828FEF9FEF9A87898786E08E
:1020D000EDEFF1E0A6ECB4E001900D928A95E1F706
:1020E0008FE590E09A8B898B87E0E3E0F2E0AEEC3D
:1020F000B4E001900D928A95E1F786E0EAE0F2E023
:10210000A5EDB4E001900D928A95E1F786E0E5E156
:10211000F1E0ABEDB4E001900D928A95E1F78CE22D
:1021200091E0A0E0B0E08EA39FA3A8A7B9A78AA7DB
:102130009BA7ACA7BDA71092EA041092E9048EE316
:10214000EBEEF4E0DF01982F1D929A95E9F71092DB
:102150002A0510922905EBE2F5E0DF01982F1D9288
:102160009A95E9F710926C0510926B0591E09093A7
:10217000720510927505109274052CE931E03093C8
:102180006A052093690510927805109279051092DE
:102190007A0510927B0510927C0510927D051092B5
:1021A0007E0510927F051092800510928105109295
:1021B0008205109283051092840510928505109275
:1021C0008605109288051092870510928A05109254
:1021D000890510928C0510928B0510928E05109235
:1021E0008D051092900510928F0510929205109215
:1021F00091051092940510929305109296051092F5
:10220000950596E0EBE1F1E0A7E9B5E001900D92CC
:102210009A95E1F710929D0598E0E2E2F1E0AEE9CF
:10222000B5E001900D929A95E1F71092A7051092F2
:10223000A605E8EAF5E0DF011D928A95E9F70E941C
:1022400016096093B7047093B8048093B90490930F
:10225000BA04DF91CF910895CF93DF93CDB7DEB766
:10226000C454D1090FB6F894DEBF0FBECDBF789429
:1022700084B5826084BD84B5816084BD85B582608B
:1022800085BD85B5816085BD80916E00816080933C
:102290006E001092810080918100826080938100A5
:1022A00080918100816080938100809180008160B5
:1022B000809380008091B10084608093B100809110
:1022C000B00081608093B00080917A008460809338
:1022D0007A0080917A00826080937A0080917A00FF
:1022E000816080937A0080917A00806880937A0080
:1022F0001092C10010927503109274031092EB03B8
:1023000010920D040E9490078CEB96E09093980336
:10231000809397038DEB96E090939C0380939B03AF
:1023200088E48093B800E0912A04F0912B0482E0C5
:102330008083E0912604F09127041082E091280424
:10234000F091290480E1808310923204E0912E0400
:10235000F0912F0486E08083E0912C04F0912D040D
:10236000808180618083E0912C04F0912D04808134
:1023700088608083E0912C04F0912D048081806836
:102380008083E0912C04F0912D0480818F7D8083E7
:102390008091BD049091BE04A091BF04B091C0048F
:1023A00080931E0490931F04A0932004B0932104F3
:1023B00064E670E080E090E00E94E408E1E4F8E088
:1023C0002491EDE2F8E08491882399F090E0880F61
:1023D000991FFC01E25FF94FA591B491FC01EB5EFE
:1023E000F74F859194918FB7F894EC91E22BEC9391
:1023F0008FBF60E08EE00E94440767EF75E08AE1DE
:1024000094E00E94AF0B60EE75E08AE194E00E94D8
:10241000AF0B69EC75E08AE194E00E94AF0B8AE1B2
:1024200094E00E943D0A60E172E08E010F5F1F4F51
:10243000C8010E94CD0C64E172E0CE0182960E9438
:10244000CD0CB801CE0182960E94C10BCE018296BE
:102450000E94660CC8010E94660C60E172E0C8012F
:102460000E94CD0C62E272E0CE0182960E94CD0CF9
:10247000B801CE0182960E94C10BCE0182960E94C5
:10248000660CC8010E94660C60E172E0C8010E94FF
:10249000CD0C6EE272E0CE0182960E94CD0CB801A6
:1024A000CE0182960E94C10BCE0182960E94660CDC
:1024B000C8010E94660C6EEA75E08AE194E00E9411
:1024C0001E0A19A283E488A383E38F8FBE01615E95
:1024D0007F4F8AE194E00E944A0B8AE194E00E94D7
:1024E000590B6AE070E080E090E00E94E4081092EE
:1024F00077058CE38093760510926D0510926E053A
:10250000E8EAF5E0A590B490EAEAF5E0D490EBEAC9
:10251000F5E0E491E0936F05ECEAF5E0E491E093F7
:102520007005EDEAF5E0E491E0937105F12CE12C02
:10253000ED1460F4F501EE0DFF1D649189E695E060
:102540000E9477048FEFE81AF80AF2CF1092730511
:102550000E94ED0480917005803429F40E94ED04FE
:1025600081E08093730584E990E0909375058093F2
:1025700074050E94ED0469E870E08AE194E00E942D
:10258000AF0B6AE070E080E090E00E94E40888E130
:1025900096E0909375058093740581E08093C10463
:1025A00080E1EAE2F1E0DE01929601900D928A95D7
:1025B000E1F780E1EAE3F1E0D80101900D928A951C
:1025C000E1F740E16FE370E0CE01CE960E94920DFC
:1025D000CE01CE960E946E0C7E0192E3E90EF11CB4
:1025E0006BE372E0C7010E94CD0C2496CEACDFAC49
:1025F0002497AEACBFACA114B10409F4C0C0C1149F
:10260000D104B1F08EA99FA9C80ED91EB601C70189
:102610000E94840C882309F4B2C02AA93BA98EA980
:102620009FA9B501820F931F0E94281ADFAACEAA84
:1026300019AE18AE1BAE1AAE1DAE1CAE6AA97BA9B0
:102640006115710531F04EA95FA9CE01C8960E94AF
:10265000AC0CCE01C8960E945D0BCE01C8960E94BC
:10266000660CC7010E94660C8FE380937B05109275
:102670007503109274031092EB0310920D040E94E4
:1026800090078CEB96E090939803809397038DEBE3
:1026900096E090939C0380939B03809179058093AF
:1026A0007C05D0907B050E94CF074B015C01809197
:1026B000E403811168C081E08093E4038093E30325
:1026C0009FEF9093E2031092E1031092E003809356
:1026D000BF038091BF03DD0CD82AD092BF03809145
:1026E000BE03813009F07CC01092BE030E94CF0768
:1026F0004B015C018091BF038093BB008091E60396
:102700009091E703A091E803B091E903892B8A2B0C
:102710008B2BA1F00E94CF074090E6035090E70377
:102720006090E8037090E903681979098A099B09A8
:10273000461657066806790608F446C08091BC0024
:1027400083FDD8CF85EC8093BC000E94CF074B015E
:102750005C018091E403813009F444C08091E1037D
:10276000811162C08091E103A0ECB3E0E4E5F3E005
:1027700090E0981771F12D9121939F5FFACFC701D7
:102780000E94540C55CF8091E6039091E703A091ED
:10279000E803B091E903892B8A2B8B2B09F487CFAF
:1027A0000E94CF074090E6035090E7036090E80353
:1027B0007090E903681979098A099B09461657063A
:1027C0006806790608F073CF8091E5030E94AE0792
:1027D00080E01092750380937403811127C0FFCFAE
:1027E00085EEB1CF8091E6039091E703A091E803D5
:1027F000B091E903892B8A2B8B2B09F4AACF0E9475
:10280000CF074090E6035090E7036090E803709094
:10281000E903681979098A099B094616570668066B
:10282000790608F096CFD0CF81E09ECF8EE094E07D
:102830000E94CE0680937905FE01B2965F01680181
:1028400044244394512CF501819091905F01809133
:102850007A053201082C01C0660C0A94EAF7862931
:1028600080937A0580917805262C2094822180938C
:10287000780588E795E00E94AE0AF6013080F18184
:102880002596FFAF259782E0C80ED11C8091780570
:10289000332009F414C1682A6092780588E795E02E
:1028A0000E94AE0A69E472E0C7010E94CD0CC70124
:1028B0000E945D0AC7010E94660C4AE0B401C7018C
:1028C0000E94920DC7010E945D0AC7010E94660C1A
:1028D00061E572E0C7010E94CD0CC7010E945D0A4C
:1028E000C7010E94660C4AE0632D25967FAD2597AF
:1028F000C7010E94920DC7010E945D0BC7010E9493
:10290000660CAE14BF0409F09ECF1BAA1AAA1DAA1A
:102910001CAA1FAA1EAA66E170E0C7010E94840CCF
:102920008111D1C0C7010E94540CC7010E945D0BE8
:10293000C7010E94660CCE01CE960E94660C81E013
:1029400090E09093BC048093BB046BE572E08AE155
:1029500094E00E94780B88E199E20FB6F894A8956C
:10296000809360000FBE909360008AE194E00E9423
:10297000590B68E672E0C8010E94CD0CC8010E94A4
:102980005D0BC8010E94660C68EA71E0C7010E94F5
:10299000CD0C78E0C72ED12CAA24A394BC2CA092F5
:1029A000EA03C0920C041092EB0310920D0481E034
:1029B0000E94F4078111B6C068E772E0C8010E9466
:1029C000CD0CC8010E945D0AC8010E94660C60E837
:1029D00072E0C8010E94CD0CC8010E945D0AC801C6
:1029E0000E94660C1BA21AA21DA21CA21FA21EA25C
:1029F00040E1B801C6010E949217F8010190002041
:102A0000E9F73197AF01401B510BB801CE01829617
:102A10000E94AC0C8AA99BA9009709F461C06AA125
:102A20007BA16115710509F459C04CA95DA92EA1BE
:102A30003FA14217530708F451C00E94281A8EA1E3
:102A40009FA19FAB8EAB1FA21EA2CE0182960E94B9
:102A5000660CC7010E946E0C1A8219821C821B82AE
:102A60001E821D826AA97BA96115710529F04EA9F4
:102A70005FA9C8010E94AC0CC8010E945D0AC80190
:102A80000E94660C65E872E0C8010E94CD0CC80186
:102A90000E945D0BC8010E94660CE8ECEB0DE8306B
:102AA00008F091C1F0E0E95AFA4E0C94071881152C
:102AB000D716D716D716DA16DD16E316E0168221DA
:102AC00080937805EBCE86E190E09FAB8EAB6EEF06
:102AD00077E08AA99BA90E94491727CF0E94BD18B9
:102AE0008AA19BA19BAB8AAB8CA19DA19DAB8CAB1A
:102AF0008EA19FA19FAB8EAB1BA21AA21DA21CA2EE
:102B0000A2CF69E872E0C8010E94CD0CC8010E9402
:102B10005D0BC8010E94660C61E070E080E090E00F
:102B20000E94E4089FEFC91AD90AE8E7CE16D1043B
:102B300009F034CF61EC72E0C8010E94CD0CC801ED
:102B40000E945D0BC8010E94660CC7010E94660CC2
:102B5000A89560E172E0CE0182960E94CD0C63EDF3
:102B600072E0C8010E94CD0CBE016E5D7F4FC801AE
:102B70000E94C10BC8010E94660CCE0182960E9481
:102B8000660C8AE194E00E94590B8AE194E00E946D
:102B90003D0A6EED72E0C8010E94CD0CC8010E9492
:102BA0005D0BC8010E94660C6CEE72E0C8010E94C9
:102BB000CD0CC8010E945D0BC8010E94660C80917B
:102BC000000181110E947D0D33EF632E32E0732EE0
:102BD00040E0C42E40E0D42E55245394AA24AA9455
:102BE000BA2C88248394912C8091C4049091C504BC
:102BF00001969093C5048093C4042091BB04309146
:102C0000BC048217930724F01092C5041092C404E8
:102C1000F090C404E090C50466EC74E089E295E0AD
:102C20000E94281AEF92FF927F926F921F930F9348
:102C30000E943D1AB80189E295E00E94141A67EAE1
:102C400071E089E295E00E94141A0E948F0B0E94A5
:102C5000DE0A0F900F900F900F900F900F908091C1
:102C6000E904882359F069EE74E0C8010E94CD0C94
:102C7000C8010E945D0BC8010E94660C67EA71E002
:102C800090E080E00E9450179093E7058093E6055E
:102C9000009709F49BC02091490330914A03A90190
:102CA0004F5F5F4F50934A034093490325303105EE
:102CB0000CF08CC065EB71E00E945017BC0186EFF0
:102CC00092E00E941F1A892BC9F665EB71E090E033
:102CD00080E00E9450177C01892B09F4A7C06CEF9B
:102CE00072E0C8010E94CD0CC8010E945D0BC801B2
:102CF0000E94660CB701C8010E94CD0CC8010E9459
:102D00005D0BC8010E94660C42E050E0B70183E011
:102D100091E00E942F1A892B09F069C0809101016E
:102D200090910201892B71F00E9416096093B704FB
:102D30007093B8048093B9049093BA04109202017E
:102D400010920101E0900101F0900201F7FC96CF92
:102D50000E9416092091B7043091B8044091B9043B
:102D60005091BA04621B730B840B950BF701EE0FA5
:102D7000FF1FEE0FFF1FE45AFE4F20813181428179
:102D80005381261737074807590708F077CFE11412
:102D9000F10409F450C0EA94EF2809F06FCF809154
:102DA0000001882309F46ACF0E947D0D67CF6AE98C
:102DB00072E0A9CE64EA72E0A6CE64EB72E0A3CE24
:102DC00064E072E0A0CE69EB72E09DCE10924A03FF
:102DD00010924903A895C114D10409F405CF0E94AB
:102DE0009B09882309F400CF0E940000FDCE43E038
:102DF00050E0B70188E091E00E942F1A892BB1F4CE
:102E00008091010190910201019709F49BCF0E94EA
:102E100016096093B7047093B8048093B904909333
:102E2000BA0490920201809201018CCFB09202010B
:102E3000A092010187CF8091000181111FCF6CE02A
:102E400073E08AE194E00E94780B809178058E7F90
:102E50008093780588E795E00E94AE0A86E591E0C8
:102E60000E94E20C5092000109CF88EE95E00E948A
:102E7000660C8EEE95E00E94660C84EF95E00E9451
:102E8000660C8AEF95E00E94660C80E096E00C9458
:102E9000660CFB01DC0105900D920020E1F708951E
:102EA00046E056E00E9455170895FA01A191B081BD
:102EB000009719F41097E1F0CD01DC01CD010D90E0
:102EC000002011F4C00113C0FB012191222319F04D
:102ED0002015D9F7F3CFFB012191201519F41E928B
:102EE000119606C02223C1F70D900020A1F7D00152
:102EF000FA01A193B08308954532510520F4423080
:102F000010F00C948717FB011082CB010895BB27AA
:102F10004A3031F4992322F4BDE2909581959F4F78
:102F20000C949317BB27FB015527AA27880F991FDD
:102F3000AA1FA41710F0A41B83955051B9F7A05DE8
:102F4000AA3308F0A95DA193009779F7B111B19365
:102F50001192CB010C94AC17DC01FC01672F71912D
:102F60007723E1F7329704C07C916D93708362916F
:102F7000AE17BF07C8F308952F923F924F925F920A
:102F80006F927F928F929F92AF92BF92CF92DF9279
:102F9000EF92FF920F931F93CF93DF93CDB7DEB7DE
:102FA000CA1BDB0B0FB6F894DEBF0FBECDBF099472
:102FB0002A88398848885F846E847D848C849B84C9
:102FC000AA84B984C884DF80EE80FD800C811B81D7
:102FD000AA81B981CE0FD11D0FB6F894DEBF0FBE06
:102FE000CDBFED01089597FB072E16F4009407D08E
:102FF00077FD09D00E940D1807FC05D03EF490958E
:1030000081959F4F0895709561957F4F0895EE0FBC
:10301000FF1F0590F491E02D0994AA1BBB1B51E101
:1030200007C0AA1FBB1FA617B70710F0A61BB70B38
:10303000881F991F5A95A9F780959095BC01CD01DD
:1030400008950F931F93CF93DF938230910510F46F
:1030500082E090E0E0910A06F0910B0630E020E07B
:10306000B0E0A0E0309799F42115310509F44AC089
:10307000281B390B24303105D8F58A819B816115D5
:10308000710589F1FB0193838283FE0111C04081A8
:1030900051810281138148175907E0F048175907F9
:1030A00099F4109761F012960C93129713961C9353
:1030B0003296CF01DF91CF911F910F910895009328
:1030C0000A0610930B06F4CF2115310551F0421773
:1030D000530738F0A901DB019A01BD01DF01F801B6
:1030E000C1CFEF01F9CF90930B0680930A06CDCFA5
:1030F000FE01E20FF31F819391932250310939832E
:103100002883D7CF2091080630910906232B41F45C
:1031100020910F0130911001309309062093080689
:1031200020910D0130910E012115310541F42DB78B
:103130003EB74091110150911201241B350BE091D3
:103140000806F0910906E217F307A0F42E1B3F0BC7
:103150002817390778F0AC014E5F5F4F2417350709
:1031600048F04E0F5F1F5093090640930806819365
:1031700091939FCFF0E0E0E09CCFCF93DF93009757
:10318000E9F0FC01329713821282A0910A06B091F5
:103190000B06ED0130E020E01097A1F42081318191
:1031A000820F931F209108063091090628173907CE
:1031B00009F061C0F0930906E0930806DF91CF9112
:1031C0000895EA01CE17DF07E8F54A815B819E0189
:1031D00041155105B1F7E901FB83EA834991599102
:1031E000C40FD51FEC17FD0761F480819181029611
:1031F000840F951FE90199838883828193819B8342
:103200008A83F0E0E0E012968D919C9113970097ED
:10321000B9F52D913C911197CD010296820F931F24
:1032200020910806309109062817390739F630979A
:1032300051F510920B0610920A06B0930906A0935E
:103240000806BCCFD383C28340815181840F951F70
:10325000C817D90761F44E5F5F4F88819981480F85
:10326000591F518340838A819B81938382832115D7
:10327000310509F0B0CFF0930B06E0930A069ECF1C
:10328000FD01DC01C0CF13821282D7CFB0E0A0E0F5
:10329000ECE4F9E10C94BE178C01009751F4CB01DA
:1032A0000E9421188C01C801CDB7DEB7E0E10C9473
:1032B000DA17FC01E60FF71F9C0122503109E217D3
:1032C000F30708F49DC0D901CD91DC911197C61781
:1032D000D70798F0C530D10530F3CE010497861793
:1032E000970708F3C61BD70B2297C193D1936D9311
:1032F0007C93CF010E94BD18D6CF5B01AC1ABD0AEA
:103300004C018C0E9D1EA0910A06B0910B06512C0B
:10331000412CF12CE12C109731F580910806909109
:1033200009068815990509F05CC04616570608F08D
:1033300058C080910D0190910E01009741F48DB716
:103340009EB74091110150911201841B950BE81713
:10335000F90708F055C0F0930906E0930806F90153
:1033600071836083A0CF8D919C91119712966C9080
:10337000129713967C901397A815B90559F56C010F
:1033800042E0C40ED11CCA14DB0420F1AC014A197E
:103390005B09DA011296159780F06282738251837D
:1033A0004083D9016D937C93E114F10471F0D7014E
:1033B0001396FC93EE93129776CF22968C0F9D1F57
:1033C000F90191838083F301EFCFF0930B06E09333
:1033D0000A0669CF4816590608F42C017D01D3016D
:1033E0009ACFCB010E9421187C01009749F0AE01D1
:1033F000B8010E940B1AC8010E94BD18870153CF63
:1034000010E000E050CF9111089581568A5108F4E0
:10341000805285580895FB01DC0102C001900D9295
:1034200041505040D8F70895FB01DC010D90002079
:10343000E9F7119701900D920020E1F70895FB0143
:10344000DC018D91019080190110D9F3990B089539
:10345000FB01DC0101900D920020E1F70895FB01D2
:10346000DC014150504030F08D910190801919F4E9
:103470000020B9F7881B990B0895AEE0B0E0E3E4B3
:10348000FAE10C94CA170D891E8986E08C831A8391
:1034900009838FEF9FE79E838D83AE01475E5F4F69
:1034A0006F89788DCE0101960E94601A2F81388530
:1034B000020F131FF80110822E96E4E00C94E61719
:1034C000ABE0B0E0E6E6FAE10C94BC177C013B010E
:1034D0008A01FC0117821682838181FFC8C1CE0157
:1034E00001965C01F7019381F30193FD859193FFB0
:1034F00081913F01882309F453C1853239F493FD4A
:10350000859193FF81913F01853229F4B70190E0C5
:103510000E94501CE7CF912C212C312CFFE1F31598
:1035200038F08B3211F190F4803209F1833229F1B5
:1035300037FC3CC020ED280F2A3050F536FE20C065
:103540008AE0989E200D1124922E06C08D3291F0B3
:10355000803371F7689430F8F30193FD859193FF00
:1035600081913F018111DACF21C0689431F86894CC
:1035700032F8F2CF689433F8EFCF689434F8ECCF98
:10358000EAE02E9E200D1124222E689435F8E4CF17
:103590008E3229F436FC04C1689436F8DDCF8C36BF
:1035A00019F4689437F8D8CF8836B1F2982F9F7DF8
:1035B00095549330E0F08336A1F18337C1F1833520
:1035C00009F063C02801F2E04F0E511CF801C080E1
:1035D000D180692D70E036FC02C06FEF7FEFC6012D
:1035E0000E943A1C4C01689437F882010AC00C5FB3
:1035F0001F4FFFE3F98388248394912C6501E8949D
:1036000037F833FE2DC0522C8114910471F55520EA
:1036100009F468CFB70180E290E00E94501C5A94F0
:10362000F6CFF801808189830E5F1F4FE4CF280118
:10363000F2E04F0E511CF801C080D180692D70E07E
:1036400036FC02C06FEF7FEFC6010E94451C4C01A3
:103650008201D5CFB70180E290E00E94501C2A94ED
:103660002814190409F0B0F7CECFF60137FC859184
:1036700037FE81916F01B70190E00E94501C5110FC
:103680005A94F1E08F1A9108BFCF843619F0893629
:1036900009F077C0F80137FE6BC0608171818281CB
:1036A00093810C5F1F4FF32DFF763F2E97FF09C0CC
:1036B00090958095709561957F4F8F4F9F4F68943F
:1036C00037F82AE030E0A5010E94801CC82ECA18F5
:1036D0008C2C432C36FE0CC0E89440F8C91440F4FE
:1036E00034FE05C032FC03C0F32DFE7E4F2E892C24
:1036F00044FE95C0FE01EC0DF11D8081803309F080
:1037000087C0242D297E422E842D8870582E43FC9C
:1037100095C040FE8FC09C2C821418F42C0C922C67
:10372000981844FE91C0B70180E390E00E94501CBD
:1037300042FE09C088E790E041FE02C088E590E0C3
:10374000B7010E94501CC91408F48AC0CA94D12C35
:103750009FEFC91AD90ACA0CDB1CF60182916F01CE
:10376000B70190E00E94501CAC14BD04B1F74FCFDC
:1037700060817181072E000C880B990B0E5F1F4F23
:1037800092CFD32CE894D4F82AE030E0853739F191
:10379000232D297FD22E8F3601F148F48835A9F0E8
:1037A000F701868197812B96E2E10C94D817803738
:1037B00049F08837A9F7D4FE02C06894D2F820E116
:1037C00030E00DC06894D4F8F6CF34FE03C0822FE9
:1037D0008660D82E20E132E002C028E030E0F80117
:1037E000D7FE0FC060817181828193810C5F1F4F72
:1037F000A5010E94801CC82ECA183D2CE89437F8F9
:1038000067CF6081718190E080E00E5F1F4FF0CF45
:1038100042FC02C0839478CF8394839475CF842D27
:10382000867809F471CFF6CFB70180E290E00E946C
:10383000501C83948214C0F3512C73CF522C58180F
:10384000821408F46ECFF8CF842D867809F47BCFEC
:103850008BE241FE80E247FC8DE2B70190E071CF40
:10386000B70180E390E00E94501C9A946CCF8FEFD8
:103870009FEF99CFFC010590615070400110D8F77F
:10388000809590958E0F9F1F0895FC0161507040A8
:1038900001900110D8F7809590958E0F9F1F089585
:1038A0000F931F93CF93DF93182F092FEB018B8179
:1038B00081FD09C01FEF0FEF812F902FDF91CF9176
:1038C0001F910F91089582FF14C02E813F818C813A
:1038D0009D81281739073CF4E881F981CF010196D1
:1038E0009983888310838E819F8101969F838E8325
:1038F000E3CFE885F985812F0995892BA1F3DACFEC
:10390000FA01AA27283051F1203181F1E8946F9310
:103910006E7F6E5F7F4F8F4F9F4FAF4FB1E03ED0B6
:10392000B4E03CD0670F781F891F9A1FA11D680F54
:10393000791F8A1F911DA11D6A0F711D811D911D87
:10394000A11D20D009F468943F912AE0269F1124FC
:103950003019305D3193DEF6CF010895462F477060
:10396000405D4193B3E00FD0C9F7F6CF462F4F70BB
:10397000405D4A3318F0495D31FD4052419302D019
:10398000A9F7EACFB4E0A6959795879577956795BF
:10399000BA95C9F700976105710508959B01AC01BF
:1039A0000A2E06945795479537952795BA95C9F7E6
:1039B000620F731F841F951FA01D089514E0C7E3B5
:1039C000D4E004C0FE010E9407182196C833D10735
:0639D000C9F7F894FFCFD7
:1039D60001FFFF4148000000524553000000000C63
:1039E600068000000021454F4600002141434B0060
:1039F600000021506F6C6C390000000001000200CD
:103A06000300040005000600070001000100010094
:103A160001000100010001000100FF00000000009C
:103A26006B006C006D000000FF000000F401000058
:103A3600B80B000021506F6C6C300A214C45445F76
:103A460000000000000000001507E806AB0ABE06ED
:103A5600E106CE06BF0600000000D10931095E0965
:103A66003D0A8F096D098109000000000B05310927
:103A7600AB0A2209700A0D0A002142722C002C445E
:103A86006F6E652E005F00535441525447414D45B9
:103A96002121005374757474676172742047616CD8
:103AA6006C65727920412F420030322E30322E3230
:103AB6003032310076657273696F6E20312E305365
:103AC60054004272524649440055564C0021506FEC
:103AD6006C6C002152656C617900214E41434B00AC
:103AE60053595300216865616465725F6265676951
:103AF6006E00216865616465725F656E640021739E
:103B0600657475705F626567696E0072656C617970
:103B1600696E6974206F6E200052656C6179205B56
:103B2600005D2073657420746F200057445420652F
:103B36006E6461626C656400202020493243205324
:103B460063616E6E65723A00466F756E643A200068
:103B56002028307800292020004B65797061642088
:103B66002864656661756C7429004B6579706164BB
:103B76002F494F004F6C6564202028646566617587
:103B86006C7429004F6C656400556E6B6E6F776EB2
:103B960000493243207363616E20636F6D706C65FC
:103BA6007465002173657475705F656E64000A3D07
:103BB6003D3D53544152543D3D3D0A004D4F7468BE
:103BC60065720025690021524649440063617264AA
:103BD6002064657465637465643A2000454E444705
:063BE600414D45212100C4
:00000001FF
