:100000000C9438040C9460040C9460040C9441101B
:100010000C941C100C94F70F0C9460040C94600466
:100020000C9460040C9460040C9460040C946004C0
:100030000C9460040C9460040C9460040C946004B0
:100040000C94550F0C9460040C94C50F0C949F0FE6
:100050000C9460040C9460040C9460040C94600490
:100060000C94360E0C946004AEB08180A1A6A83F1B
:10007000AD8B32C8D300D580D91FDA12DB40AF0078
:100080000000002300260029005375636365737325
:1000900066756C001C620A0C206002020508070DE0
:1000A00008020404050702040206070607070707FB
:1000B000070707070202070707050A0707070806D9
:1000C00006080804060707090809070908070808B9
:1000D000070C0708060406040809030606060606B8
:1000E000050606020407020A0606060605050506B9
:1000F000060A0606050602060809000000007E7EC4
:10010000303007070007070000000000C0D8F8DE05
:10011000D8F8DE180030000030000000387C64FFA2
:1001200064E4C8102020F02030103C7E427E3CC0A9
:100130002018E6F010F0E000000000300000001091
:1001400030203010DCFE227EDC8060201030202049
:100150002010302007070000F8FE07011070E08033
:100160000107FEF880E07010120C3F0C1200000036
:100170000000202020FC20202000000010000000B3
:100180000000F0702020202000000000000030302F
:100190000080E07C1F03C0F030000000FCFE020283
:1001A00002FEFC103020202030100404FEFE00006F
:1001B000202030302020040682C2623E1C203030D5
:1001C000202020200406222222FEDC1030202020C5
:1001D0003010C0A09884FEFE800000000030300087
:1001E000001E1E1212F2E210302020203010F8FC07
:1001F000161212F2E010302020203010020282E2AB
:100200007A1E0600203010000000DCFE222222FEB2
:10021000DC103020202030103C7E424242FEFC00A8
:10022000202020301000181830301818F07060604E
:10023000909008080400000000101020909090900A
:10024000909090000000000000000408089090606A
:1002500060201010000000000462721E0C0030309C
:100260000000F00CF4FA0AFAFA040CF00030205006
:1002700050505010100080F8FE86FEF8803030009C
:1002800000003030FEFE22223EFCC0303020202014
:100290003010F8FC0602020204001030202020106A
:1002A000FEFE02020206FCF8303020202030100052
:1002B000FEFE22222222303020202020FEFE22229A
:1002C0002222303000000000F8FC06024242C2C484
:1002D0000010302020203030FEFE20202020FEFEA6
:1002E000303000000000303002FEFE0220303020AE
:1002F00000020202FEFE202020203010FEFE70D8F8
:100300008C060230300000103020FEFE000000009D
:100310000030302020202020FE0E3CF0C0300CFEAB
:10032000FE300000000000003030FE061C38E0C047
:1003300000FE3000000000103030F8FC060202021F
:1003400006FCF8001030202020301000FEFE424253
:10035000427E3C30300000000000F8FC0602020241
:1003600006FCF80010302060E0B09080FEFE2262B3
:10037000E2BE1C0030300000001030201C3E322253
:1003800062E2C410202020203010020202FEFE0291
:1003900002020000003030000000FEFE00000000FD
:1003A000FEFE10302020202030100E7EF080F07EE7
:1003B0000E000030303000000E7EF080E03E3EE067
:1003C00080F07E0E00003030000000003030000071
:1003D000068EF870F88E0630300000003030060EC1
:1003E00018F0F0180E06000000303000000002C2C5
:1003F000F23E0E02303020202020FFFF0101F0F0FD
:100400008080031F7CE0800000000030F0C001010C
:10041000FFFF8080F0F010180C06060C181000008A
:10042000000000000000000000000000000000804C
:100430008080808080808080010302000000C0E80E
:100440002828F8F0103020203030FFFF0808F8F09E
:10045000303020203010F0F808080810103020202C
:100460002010F0F80808FFFF103020203030F0F89E
:100470004848787010302020201008FEFF0909003D
:1004800030300000F0F80808F8F810B0A0A0F070C4
:10049000FFFF0808F8F0303000003030FBFB303050
:1004A0000008FBFB8080F070FFFF60F098080030D0
:1004B000300000103020FFFF3030F8F81008F8F05E
:1004C0001008F8F030300000303000003030F8F81C
:1004D0000808F8F0303000003030F0F80808F8F084
:1004E000103020203010F8F80808F8F0F0F0202044
:1004F0003010F0F80808F8F810302020F0F0F8F884
:100500001018183030000000307848C888202020AB
:10051000301008FEFE08080010302020F8F8000017
:10052000F8F810302020303038F8C0C0F83800100B
:100530003030100078F880C03838C080F87800304B
:10054000300000000030300018B8E0E0B81830305B
:100550000000303038F8C0C0F8380090F07010005B
:1005600008C8E8781830302020202020FEDF010164
:10057000000070F08080FFFFF0F00101DFFE20201E
:100580008080F0700000E01010204080807000003B
:10059000000000000000FE02020202020202FE3021
:1005A00020202020202020306800178040020A0AE6
:1005B0004F4C454420696E6974206F6E204164641D
:1005C000726573733A203078002B2D2D2D2D2D2D33
:1005D0002D2D2D2D2D2D2D2D2D2D2D2D2D2D2B007A
:1005E0007C20202020456C656374726F736361709A
:1005F00065202020207C002B2D2D2D2D2D2D2D2D07
:100600002D2D2D2D2D2D2D2D2D2D2D2D2B000000A3
:100610000000240027002A000000050720600000D9
:1006200000000000005F00000007000700147F14B6
:100630007F14242A7F2A1223130864623649562025
:10064000500008070300001C2241000041221C004A
:100650002A1C7F1C2A08083E080800807030000809
:1006600008080808000060600020100804023E51DD
:1006700049453E00427F400072494949462141496F
:100680004D331814127F1027454545393C4A4949D6
:100690003141211109073649494936464949291E40
:1006A000000014000000403400000008142241142F
:1006B00014141414004122140802015909063E4181
:1006C0005D594E7C1211127C7F494949363E4141A9
:1006D00041227F4141413E7F494949417F09090902
:1006E000013E414151737F0808087F00417F41006E
:1006F0002040413F017F081422417F404040407F1D
:10070000021C027F7F0408107F3E4141413E7F0969
:100710000909063E4151215E7F09192946264949AA
:10072000493203017F01033F4040403F1F204020EA
:100730001F3F4038403F63140814630304780403E8
:100740006159494D43007F41414102040810200096
:100750004141417F04020102044040404040000307
:1007600007080020545478407F28444438384444D3
:100770004428384444287F385454541800087E09CB
:100780000218A4A49C787F0804047800447D4000EB
:100790002040403D007F1028440000417F40007C05
:1007A000047804787C080404783844444438FC18FD
:1007B00024241818242418FC7C08040408485454E1
:1007C000542404043F44243C4040207C1C2040200E
:1007D0001C3C4030403C44281028444C9090907C75
:1007E0004464544C44000836410000007700000087
:1007F0004136080002010204023C2623263C0A720C
:10080000656C617920696E697420737563636573C3
:100810007366756C0000000000250028002B0004A2
:100820000404040404040402020202020203030397
:100830000303030102040810204080010204081091
:10084000200102040810200000000800020100003E
:10085000030407000000000000000000030C0F303C
:10086000333C3FC0C3CCCFF0F3FCFF0081103917FD
:1008700011241FBECFEFD8E0DEBFCDBF25E0ACEC2A
:10088000B2E001C01D92AF33B207E1F712E0A0E081
:10089000B1E0ECEBF4E302C005900D92AC3CB10783
:1008A000D9F714E0C7E3D4E004C02197FE010E9409
:1008B0004318C633D107C9F70E9438110C94511A56
:1008C0000C94000008950895CF93DF93EC019C8170
:1008D0008E81981758F4E881F9810084F185E02D24
:1008E00042E0CE0109958C818F5F8C83DF91CF919F
:1008F0000895DC01ED91FC910084F185E02D40E04C
:1009000009940F931F93CF938C01FC016483C085DE
:10091000C60F6C2F6F700E9479046C2F62956F70F8
:100920006061C801CF911F910F910C947904FC0173
:100930002781269526952695621720F46583606B9E
:100940000C94790408951F93CF93DF93EC01142F37
:100950008E81681718F4CE010E948104612FCE01A8
:10096000DF91CF911F910C949704CF92DF92EF9279
:10097000FF920F931F93CF93DF93EC01162FC42E9A
:10098000D22E8F81869586958695081710F00FEFE9
:10099000080FFD2C0F15B0F08E81181720F4612F71
:1009A000CE010E9481046F2DCE010E949704E12E9A
:1009B000CE1430F060E0CE010E946404E394F8CFDE
:1009C000F394E8CF4D2D612FCE01DF91CF911F9190
:1009D0000F91FF90EF90DF90CF900C94A3040F93B2
:1009E0000091F40406950695069501504091F30494
:1009F000415020E060E08DEE94E00E94B50481E07B
:100A00009091F704911101C080E08093F70460E4B5
:100A10008DEE94E00F910C9479042F923F924F92B7
:100A20005F926F927F928F929F92AF92BF92CF927E
:100A3000DF92EF92FF920F931F93CF93DF9300D03B
:100A400000D01F92CDB7DEB7DC011B960D911C9133
:100A50000115110509F468C19D838C83F801449147
:100A6000319654913196649031962491E22EF12C76
:100A7000F7E0EF0EF11C73E0F594E7947A95E1F757
:100A8000E982F801349634913196E491631748F085
:100A90008E2F90E0FC01E30FF11D6E171F060CF482
:100AA00087C06D3031F5AC81BD8116968C91811176
:100AB0001AC081E090E00F900F900F900F900F9070
:100AC000DF91CF911F910F91FF90EF90DF90CF902A
:100AD000BF90AF909F908F907F906F905F904F905E
:100AE0003F902F90089560E08C819D810E94810449
:100AF000E0CF6A3009F018C1EC81FD818185D58095
:100B00008E9DD00C11248781869586958695D81662
:100B100030F08285882319F082E08287D12C4D2D18
:100B200060E08C819D810E94A304AC81BD811A96F6
:100B30008C911A97823008F4BCCF15962C9115979A
:100B40001B96ED91FC911C9700E0309739F033969D
:100B5000E49119960C91E09F002D112410E0095F9B
:100B60001F4F33E0159507953A95E1F78FEF820F08
:100B7000080FEC81FD81468141506481CF010E94C4
:100B8000B504AC81BD8119968C9119976D2D8E9D00
:100B9000600D1124660F660F660F17968C918617ED
:100BA00008F460E060648C819D810E94790481CFAB
:100BB0004527542745270A5F1F4F631BEC81FD81A2
:100BC00021844230510508F06DC0452B09F0212CDD
:100BD0006E9CC0016F9C900D1124689FF001699F6D
:100BE000F00D11240E0F1F1F512CAC81BD811496E6
:100BF000BC91BA83EC81FD81F581FB83862C912C1D
:100C0000AA24A394B12C312C8981381608F086C00F
:100C1000412CAC81BD8119968C91481608F077C0A3
:100C2000311002C0442041F0EC81FD8145814F5FCD
:100C30006A81CF010E94A304D12CC12CC61408F0F4
:100C40005AC0F801EC0DFD1D7490552061F0EA14B6
:100C5000FB0449F4E72DF0E0052C02C0F595E7957B
:100C60000A94E2F77E2EAC81BD8119968C91823078
:100C700081F4442009F43BC072948FE07822E72D80
:100C8000F0E0E55AF74F7490672D8C819D810E94AA
:100C90006404672D8C819D810E946404EFEFCE1A5D
:100CA000DE0ACCCF277038E0532E521A211101C032
:100CB000512C50E040E030E020E0F801461740F4CD
:100CC000E40FF51FE4912E0F311D4F5F5F4FF5CFFD
:100CD000E60FF11D6490E29EF001E39EF00DF29E9E
:100CE000F00D11248E0F9F1F080F191F7ECFB72DF7
:100CF000BF707B2EC4CFD12C2D1439F060E08C81D5
:100D00009D810E946404D394F7CF439482CF33949F
:100D1000080D191DFFEFAF1ABF0A76CF6B818C81CA
:100D20009D810E949704C5CE90E080E0C4CE2091C2
:100D30004903260F3327331F21323105ECF420916C
:100D40009803FC0190E080E0243069F082E008958F
:100D5000A09149032191AC01475D5C4FA40FB52FD1
:100D6000B11D2C930196861798F380914903680F63
:100D70006093490380E0089581E008950895E0912B
:100D8000710380917003E81730F4F0E0E85FFC4FE6
:100D9000808190E008958FEF9FEF08959091710307
:100DA000809170032FEF3FEF981748F4E92FF0E0A0
:100DB000E85FFC4F208130E09F5F90937103C90191
:100DC00008958091700390917103891B990B089588
:100DD000CF92DF92EF92FF920F931F93CF93DF9307
:100DE0007C01CB018A0120919E03222389F0EB0133
:100DF0006B01C40ED51ECC15DD0569F06991D701D4
:100E0000ED91FC910190F081E02DC7010995F3CFA0
:100E1000642F0E949706C801DF91CF911F910F9117
:100E2000FF90EF90DF90CF900895CF93DF931F92C4
:100E3000CDB7DEB7698320919E032223F9F020917C
:100E4000C103203258F021E030E0FC0133832283DB
:100E500090E080E00F90DF91CF91089580919F0303
:100E6000E82FF0E0E056FC4F998190838F5F8093EC
:100E70009F038093C10381E090E0ECCF61E0CE015D
:100E800001960E949706F7CF90E0FC01E95BF74FCF
:100E90002491FC01ED5CF74F3491FC01E15EF74FCA
:100EA000E491EE23C9F0222339F0233001F1A8F4B4
:100EB000213019F1223029F1F0E0EE0FFF1FEB5E37
:100EC000F74FA591B4918FB7F894EC91611126C0BA
:100ED00030953E233C938FBF08952730A9F02830EA
:100EE000C9F0243049F7809180008F7D03C0809144
:100EF00080008F7780938000DFCF84B58F7784BDAB
:100F0000DBCF84B58F7DFBCF8091B0008F7780934E
:100F1000B000D2CF8091B0008F7DF9CF3E2BDACFD9
:100F20001092980381E0809397031092720361E01E
:100F300082E10E94440761E083E10E944407E9EBFB
:100F4000F0E080818E7F808380818D7F808388E444
:100F50008093B80085E48093BC00089510927103DB
:100F60001092700310929F031092C1030E94900789
:100F700082E694E090936F0380936E0383E694E09F
:100F800090936D0380936C030895CF93DF9391E06A
:100F9000909328038823B9F0C091B800D091BA008B
:100FA0008091BC008A7B8093BC0060E082E10E945B
:100FB000440760E083E10E9444070E949007D093B9
:100FC000BA00C093B800DF91CF9108953FB7F8946D
:100FD0008091040390910503A0910603B09107034B
:100FE00026B5A89B05C02F3F19F00196A11DB11D84
:100FF0003FBFBA2FA92F982F8827BC01CD01620FC0
:10100000711D811D911D42E0660F771F881F991F7A
:101010004A95D1F708958F929F92AF92BF92CF9247
:10102000DF92EF92FF920F931F93CF93DF93D091B4
:10103000C103D13208F0D7C0182FC091C0030E945D
:10104000E6076B017C018091980381116BC082E0FF
:1010500080939803109397038FEF809396031092D9
:101060009503D0939403A0EAB3E0E4E7F3E080E0D3
:10107000D81391C01092730380917303CC0FC82BC7
:10108000C093730380917203813009F088C010927D
:1010900072030E94E6076B017C01809173038093C9
:1010A000BB0080919A0390919B03A0919C03B09107
:1010B0009D03892B8A2B8B2BA1F00E94E6070091C0
:1010C0009A0310919B0320919C0330919D036C190E
:1010D0007D098E099F09061717072807390708F4A5
:1010E00042C08091BC0083FDD8CF85EC8093BC00CA
:1010F0000E94E6076B017C0180919803823009F41D
:1011000050C0809196038F3F09F46FC08091960381
:10111000803209F46CC080919603803309F469C071
:1011200084E026C080919A0390919B03A0919C0338
:10113000B0919D03892B8A2B8B2B09F484CF0E94BD
:10114000E60780909A0390909B03A0909C03B09038
:101150009D036C197D098E099F0986169706A806BE
:10116000B90608F070CF809199030E94C50785E009
:1011700010929F031092C10310929E03DF91CF91B2
:101180001F910F91FF90EF90DF90CF90BF90AF90A5
:101190009F908F9008959D9191938F5F69CF85EE79
:1011A000A5CF80919A0390919B03A0919C03B0914D
:1011B0009D03892B8A2B8B2B09F49ECF0E94E60777
:1011C00000919A0310919B0320919C0330919D0301
:1011D0006C197D098E099F0906171707280739071B
:1011E00008F08ACFC0CF81E0C3CF80E0C1CF82E0DA
:1011F000BFCF83E0BDCF8F929F92AF92BF92CF922D
:10120000DF92EF92FF924B015C010E94E6076B01B7
:101210007C010E94E6076C197D098E099F09683ED2
:10122000734081059105A8F321E0821A9108A10875
:10123000B10888EEC80E83E0D81EE11CF11C8114B1
:101240009104A104B10429F7FF90EF90DF90CF90B3
:10125000BF90AF909F908F9008950895DB011496F2
:101260004D915C9115976D917C91DC01ED91FC9114
:101270000280F381E02D0994AF92BF92CF92DF926A
:10128000EF92FF920F931F93CF93DF936C017B013B
:101290008B01040F151FEB015E01AE18BF08C017CC
:1012A000D10759F06991D601ED91FC910190F0813F
:1012B000E02DC6010995892B79F7C501DF91CF9102
:1012C0001F910F91FF90EF90DF90CF90BF90AF9064
:1012D0000895FC01538D448D252F30E0842F90E03C
:1012E000821B930B541710F0CF9608950197089521
:1012F000FC01918D828D981761F0A28DAE0FBF2FEA
:10130000B11D5D968C91928D9F5F9F73928F90E03F
:1013100008958FEF9FEF0895FC01918D828D9817AE
:1013200031F0828DE80FF11D858D90E008958FEFEB
:101330009FEF0895FC01918D228D892F90E0805CB4
:101340009F4F821B91098F73992708958EEC93E02C
:101350000E949A0921E0892B09F420E0822F089548
:1013600080E090E0892B29F00E94A60981110C945D
:1013700000000895FC01A48DA80FB92FB11DA35A38
:10138000BF4F2C91848D90E001968F739927848FA5
:10139000A689B7892C93A089B1898C9183708064C8
:1013A0008C93938D848D981306C00288F389E02D69
:1013B00080818F7D80830895EF92FF920F931F931A
:1013C000CF93DF93EC0181E0888F9B8D8C8D9813F8
:1013D0001AC0E889F989808185FF15C09FB7F89404
:1013E000EE89FF896083E889F98980818370806450
:1013F00080839FBF81E090E0DF91CF911F910F919B
:10140000FF90EF900895F62E0B8D10E00F5F1F4FA9
:101410000F731127E02E8C8D8E110CC00FB607FCB8
:10142000FACFE889F989808185FFF5CFCE010E9446
:10143000BA09F1CFEB8DEC0FFD2FF11DE35AFF4FF1
:10144000F0829FB7F8940B8FEA89FB8980818062D4
:10145000CFCFEF92FF920F931F93CF93DF938C0127
:101460007B01D0E0C0E0F701EC0FFD1F6491662323
:1014700039F0C8010E94DC09892B11F02196F3CFC5
:10148000CE01DF91CF911F910F91FF90EF900895C2
:10149000CF93DF93EC01888D8823B9F0AA89BB89AB
:1014A000E889F9898C9185FD03C0808186FD0DC096
:1014B0000FB607FCF7CF8C9185FFF2CF808185FFB7
:1014C000EDCFCE010E94BA09E9CFDF91CF91089507
:1014D000CF93DF93EC01BC018DEE94E00E942E09C6
:1014E000BE018EEC93E00E942E098EEC93E0DF911A
:1014F000CF910C94480A0F931F93CF93DF93EC0185
:10150000062F142F8E85813120F4882331F041116C
:1015100004C081E00E940B081E868E85811112C0D6
:101520008D8591E090939E038093C00310929F035A
:101530001092C10360E4111101C060E082EC93E0FD
:101540000E941507602F82EC93E00E94150712306D
:1015500041F48E858F5F8E87DF91CF911F910F9120
:10156000089581E00E940B081E86F6CF90E080E08F
:101570000895FC01918162818081238131E0309363
:101580009E032093C00310929F031092C1036095A5
:101590006923682B82EC93E00E94150781E00C948C
:1015A0000B0890E0FC01EE0FFF1FED57FF4FA591D8
:1015B000B4912C91FC01E450FD4F30812083880FC1
:1015C000991FFC01EA5DFE4F0190F081E02D8081C2
:1015D00008958F929F92AF92BF92CF92DF92EF9237
:1015E000FF920F931F93CF938C01FC018181848321
:1015F000C3810E94E6076B017C01809198038111F1
:1016000064C081E080939803809397039FEF909349
:101610009603109295031092940380937303809124
:101620007303CC0FC82BC093730380917203813076
:1016300009F078C0109272030E94E6076B017C01EA
:10164000809173038093BB0080919A0390919B03D8
:10165000A0919C03B0919D03892B8A2B8B2BA1F029
:101660000E94E60780909A0390909B03A0909C03B1
:10167000B0909D036C197D098E099F098616970607
:10168000A806B90608F442C08091BC0083FDD8CFFB
:1016900085EC8093BC000E94E6076B017C01809181
:1016A0009803813009F440C08091950381115EC098
:1016B00080919503A4E7B3E0E8E0F3E090E09817A9
:1016C00051F12D9121939F5FFACF80919A039091D0
:1016D0009B03A0919C03B0919D03892B8A2B8B2B9C
:1016E00009F48BCF0E94E60780909A0390909B03A9
:1016F000A0909C03B0909D036C197D098E099F09F1
:1017000086169706A806B90608F077CF8091990348
:101710000E94C50780E010927103809370038111CD
:1017200027C0FFCF85EEB5CF80919A0390919B03A0
:10173000A0919C03B0919D03892B8A2B8B2B09F4DC
:10174000AECF0E94E60780909A0390909B03A090F2
:101750009C03B0909D036C197D098E099F09861624
:101760009706A806B90608F09ACFD0CF81E0A2CF9D
:1017700082EC93E00E94CE06F8018183CF911F9105
:101780000F91FF90EF90DF90CF90BF90AF909F9020
:101790008F90089585ED8093BC0080919A0390917D
:1017A0009B03A0919C03B0919D030796A11DB11DC1
:1017B00023E0B695A795979587952A95D1F720911F
:1017C000BC0024FD03C010929803089540919A0331
:1017D00050919B0360919C0370919D03452B462B78
:1017E000472B69F30097A105B10541F025E32A9540
:1017F000F1F700000197A109B109E1CF80919903A8
:101800000C94C507FB0101900020E9F73197AF0167
:10181000461B570BDC01ED91FC910280F381E02D1A
:1018200009948F929F92AF92BF92EF92FF920F9383
:101830001F93CF93DF93CDB7DEB7A1970FB6F89480
:10184000DEBF0FBECDBF7C01FA01CB0119A2223051
:1018500008F42AE08E010F5D1F4F822E912CB12CCF
:10186000A12CBF01A50194010E942118F901CA0110
:101870006A300CF5605DD8016E938D01232B242B0B
:10188000252B79F790E080E0109721F0BD01C7018A
:101890000E94020CA1960FB6F894DEBF0FBECDBF1A
:1018A000DF91CF911F910F91FF90EF90BF90AF907C
:1018B0009F908F900895695CDECFCF92DF92EF9278
:1018C000FF920F931F93CF93DF93EC016A017B018B
:1018D000E881F9810190F081E02D6DE209958C019C
:1018E00044275527BA014C195D096E097F092AE082
:1018F000CE010E94110C800F911FDF91CF911F919B
:101900000F91FF90EF90DF90CF9008956EE571E01A
:101910000C94020C0F931F93CF93DF93EC019A0169
:10192000AB01770F660B770B2A30310581F42AE083
:1019300077FF0DC00E945D0C8C01CE010E94860CC9
:10194000800F911FDF91CF911F910F910895CE01CC
:101950000E94110CF1CF0F931F93CF93DF938C0153
:10196000D0E0C0E06115710519F00E94020CEC0195
:10197000C8010E94860C8C0F9D1FDF91CF911F9193
:101980000F9108950F931F93CF93DF93EC010E9463
:101990002E098C01CE010E94860C800F911FDF91D1
:1019A000CF911F910F910895CF93DF93EC01BC016C
:1019B0008DEE94E00E94C20CBE018EEC93E00E947A
:1019C000C20C8EEC93E0DF91CF910C94480A0F93F8
:1019D0001F93CF93DF93EC010E94290A8C01CE0163
:1019E0000E94860C800F911FDF91CF911F910F9164
:1019F00008950F931F93CF93DF93EC018B018EEC2F
:101A000093E00E94480A61E08EE00E9444078EEC59
:101A100093E00E94860C61E671E08EEC93E00E94F8
:101A2000020CB8018EEC93E00E942E0964E671E08E
:101A30008EEC93E00E94020CBE018EEC93E00E94BB
:101A40002E0966E671E08EEC93E00E94AB0C8EEC02
:101A500093E00E94480A60E08EE0DF91CF911F91F1
:101A60000F910C944407CF93DF93EC018881998107
:101A7000009711F00E94E518198218821D821C82BD
:101A80001B821A82DF91CF910895FC0180819181A0
:101A9000009711F00C94E5180895CF93DF93FC01A3
:101AA000C081D181209761F08991882349F0082E67
:101AB000000C990B0E942B1AFE0131978083F4CF02
:101AC000DF91CF9108950F931F93CF93DF93EC0194
:101AD00088819981009759F02A813B812617370721
:101AE00030F081E0DF91CF911F910F9108958B012C
:101AF0006F5F7F4F0E946E19009759F0998388831A
:101B00001B830A832C813D81232B59F7FC01108212
:101B1000E8CF80E0E7CFEF92FF920F931F93CF9330
:101B2000DF936115710541F480E0DF91CF911F9142
:101B30000F91FF90EF90089541155105B1F07B0191
:101B4000EC010C811D81040F151FB8010E94630D6B
:101B5000882351F3288139818C819D81B701820FBF
:101B6000931F0E943C1A1D830C8381E0DECFEF920D
:101B7000FF920F931F93CF93DF93EC017B018A01B8
:101B8000BA010E94630D81110BC0CE010E94330D7A
:101B9000CE01DF91CF911F910F91FF90EF900895AB
:101BA0001D830C83B701888199810E943C1AF0CF74
:101BB000CF93DF93EC01FB018617970749F0608113
:101BC00071816115710541F0448155810E94B70D05
:101BD000CE01DF91CF9108950E94330DF9CFFB0123
:101BE00001900020E9F73197AF01461B570B0C9489
:101BF000B70DFC01118210821382128215821482A9
:101C0000FB0101900020E9F73197AF01461B570B0C
:101C10000C94B70D0F931F93CF93DF93CDB7DEB71F
:101C200062970FB6F894DEBF0FBECDBF8C01CB011B
:101C3000F80111821082138212821582148250E000
:101C4000BE016F5F7F4F0E94A217BE016F5F7F4F83
:101C5000C8010E94EF0D62960FB6F894DEBF0FBE6A
:101C6000CDBFDF91CF911F910F9108951F920F92D9
:101C70000FB60F9211242F933F934F935F936F935F
:101C80007F938F939F93AF93BF93EF93FF93809135
:101C9000B900887F803609F44AC0F0F5883209F42B
:101CA000A7C018F5803109F49BC0B8F4882309F463
:101CB000F9C0883009F494C0FF91EF91BF91AF91C2
:101CC0009F918F917F916F915F914F913F912F9154
:101CD0000F900FBE0F901F901895883109F488C09F
:101CE000803251F78093960314C0803409F49DC06C
:101CF00040F48033B9F38833F9F68093960385EC8A
:101D0000B0C0803509F485C0883509F496C08834A0
:101D100099F60E94CA0BD0CF883909F48CC038F5E7
:101D2000883729F050F4883611F0803729F683E09F
:101D30008093980310926B0357C0883809F47BC0D6
:101D4000803919F0803809F0B7CF80916B03803269
:101D500008F071C0E0916B0381E08E0F80936B03FC
:101D60008091BB00F0E0E55BFC4F80833DC0803B91
:101D700039F0E0F4803A09F479C0883A09F09CCF50
:101D800084E08093980310924A0310924903E091F3
:101D90006E03F0916F0309958091490381110FC083
:101DA00081E0809349031092290309C0803C09F423
:101DB000A6CF883C09F4A3CF883B09F07DCFE09102
:101DC0004A0381E08E0F80934A03F0E0E75DFC4F09
:101DD00080818093BB0090914A038091490329C080
:101DE000809173038093BB0085EC8093BC0064CF2B
:101DF0009091950380919403981758F5E09195037D
:101E000081E08E0F80939503F0E0EC58FC4F8081C9
:101E1000E9CFE091950381E08E0F80939503809147
:101E2000BB00F0E0EC58FC4F8083909195038091CB
:101E300094039817C8F285E8D8CFE091950381E024
:101E40008E0F809395038091BB00F0E0EC58FC4F1F
:101E500080838091970381115CCF81E0809372032E
:101E600084EA8093BC001092980326CF85EC80937F
:101E7000BC001092980380916B03803230F4E091A3
:101E80006B03F0E0E55BFC4F108260916B0370E048
:101E9000E0916C03F0916D038BE493E0099510924F
:101EA0006B030ACF1092960334CF1F920F920FB696
:101EB0000F9211242F933F938F939F93AF93BF93D0
:101EC0008091000390910103A0910203B09103035C
:101ED0003091FF0223E0230F2D3758F50196A11D05
:101EE000B11D2093FF028093000390930103A09300
:101EF0000203B09303038091040390910503A09122
:101F00000603B09107030196A11DB11D8093040340
:101F100090930503A0930603B0930703BF91AF917D
:101F20009F918F913F912F910F900FBE0F901F9017
:101F3000189526E8230F0296A11DB11DD2CF1F923E
:101F40000F920FB60F9211242F933F934F935F93ED
:101F50006F937F938F939F93AF93BF93EF93FF9371
:101F60008EEC93E00E94BA09FF91EF91BF91AF917F
:101F70009F918F917F916F915F914F913F912F91A1
:101F80000F900FBE0F901F9018951F920F920FB6D3
:101F90000F9211242F938F939F93EF93FF93E091D0
:101FA000DE03F091DF038081E091E403F091E5032B
:101FB00082FD1BC090818091E7038F5F8F7320911A
:101FC000E803821741F0E091E703F0E0E253FC4FB1
:101FD000958F8093E703FF91EF919F918F912F91C0
:101FE0000F900FBE0F901F9018958081F4CF1F9215
:101FF0000F920FB60F9211242F933F934F935F933D
:102000006F937F938F939F93AF93BF93EF93FF93C0
:1020100082E00E94D10AFF91EF91BF91AF919F9111
:102020008F917F916F915F914F913F912F910F9081
:102030000FBE0F901F9018951F920F920FB60F9220
:1020400011242F933F934F935F936F937F938F93BD
:102050009F93AF93BF93EF93FF9381E00E94D10AC8
:10206000FF91EF91BF91AF919F918F917F916F9170
:102070005F914F913F912F910F900FBE0F901F9046
:1020800018951F920F920FB60F9211242F933F9322
:102090004F935F936F937F938F939F93AF93BF9370
:1020A000EF93FF9380E00E94D10AFF91EF91BF91DF
:1020B000AF919F918F917F916F915F914F913F91E0
:1020C0002F910F900FBE0F901F901895CF93DF9315
:1020D000FC011082118212821382148215821682F0
:1020E000EC012796DC011F961992AC17BD07E1F7AA
:1020F0007F961D921D92EA17FB07D9F7DF91CF91CA
:102100000895CF93DF93E2ECF3E01382128288EE1E
:1021100093E0A0E0B0E084839583A683B78320E3B7
:1021200031E031832083EEECF3E01382128284836A
:102130009583A683B78382E491E09183808385ECC5
:1021400090E09587848784EC90E09787868780EC81
:1021500090E0918B808B81EC90E0938B828B82EC72
:1021600090E0958B848B86EC90E0978B868B118E1C
:10217000128E138E148E6DE671E083E395E00E945B
:10218000F90D63E871E08DE295E00E94F90D6EE8CB
:1021900071E087E295E00E94F90D6CE971E081E25F
:1021A00095E00E94F90D63EA71E08BE195E00E94F1
:1021B000F90DCAE8D4E08AE090E0A0E0B0E08883BE
:1021C0009983AA83BB831C821E821D8267EA71E009
:1021D00081E994E00E94F90D85E0EEEAF1E0A7E9DB
:1021E000B4E001900D928A95E1F78FE590E09B8B2A
:1021F0008A8B87E0E3EBF1E0AEE9B4E001900D9269
:102200008A95E1F78CE291E0A0E0B0E08B8F9C8FA3
:10221000AD8FBE8F84E190E0A0E0B0E08F8F98A3F7
:10222000A9A3BAA31092AE041092AD048EE3EFEA14
:10223000F4E0DF011D928A95E9F71092F004109204
:10224000EF0481E08093F6041092F9041092F804F0
:1022500084E591E09093EE048093ED048CEF94E09C
:102260000E9466108BE694E0DF91CF910C9466108B
:10227000CF93DF93CDB7DEB7C256D1090FB6F8942E
:10228000DEBF0FBECDBF789484B5826084BD84B5B7
:10229000816084BD85B5826085BD85B5816085BD61
:1022A00080916E00816080936E0010928100809119
:1022B00081008260809381008091810081608093A1
:1022C0008100809180008160809380008091B100C6
:1022D00084608093B1008091B00081608093B000F1
:1022E00080917A00846080937A0080917A00826085
:1022F00080937A0080917A00816080937A00809147
:102300007A00806880937A001092C1000E94AE0724
:1023100088E48093B800E091DE03F091DF0382E06F
:102320008083E091DA03F091DB031082E091DC031B
:10233000F091DD0380E180831092E603E091E203F7
:10234000F091E30386E08083E091E003F091E10304
:10235000808180618083E091E003F091E1038081DE
:1023600088608083E091E003F091E10380818068E0
:102370008083E091E003F091E10380818F7D808391
:1023800080918A0490918B04A0918C04B0918D046B
:102390008093D2039093D303A093D403B093D50337
:1023A00064E670E080E090E00E94FB08E1E4F8E081
:1023B0002491EDE2F8E08491882399F090E0880F71
:1023C000991FFC01E25FF94FA591B491FC01EB5E0E
:1023D000F74F859194918FB7F894EC91E22BEC93A1
:1023E0008FBF60E08EE00E94440767EF75E08EECDF
:1023F00093E00E94E70C60EE75E08EEC93E00E94A3
:10240000E70C69EC75E08EEC93E00E94E70C64E168
:1024100070E080E090E00E94FB086AEB71E08E01C2
:102420000F5F1F4FC8010E94F90D7E0121E4E20EEB
:10243000F11C6EEB71E0C7010E94F90DB801C701F4
:102440000E94F90CC7010E94450DC8010E94450D6C
:102450006AEB71E0C8010E94F90D6CEC71E0C701F4
:102460000E94F90DB801C7010E94F90CC7010E9432
:10247000450DC8010E94450D6AEB71E0C8010E943C
:10248000F90D68ED71E0C7010E94F90DB801C701AF
:102490000E94F90CC7010E94450DC8010E94450D1C
:1024A0006EEA75E08EEC93E00E94290A40E150E06C
:1024B0006CE370E08EEC93E00E948A0C6AE070E0BE
:1024C00080E090E00E94FB081092FB048CE3809374
:1024D000FA041092F1041092F204E8EAF5E0A590F3
:1024E000B490EAEAF5E09490EBEAF5E0E491E09349
:1024F000F304ECEAF5E0E491E093F404EDEAF5E0AE
:10250000E491E093F504D12CC12CC91460F4F501D9
:10251000EC0DFD1D64918DEE94E00E9479048FEF27
:10252000C81AD80AF2CF1092F7040E94EF048091E3
:10253000F404803429F40E94EF0481E08093F704CE
:1025400084E990E09093F9048093F8040E94EF04EA
:1025500069E870E08EEC93E00E94E70C6AE070E0BE
:1025600080E090E00E94FB0888E196E09093F904F7
:102570008093F80481E080938E0480E1E6E0F1E04E
:10258000DE01AF5BBF4F01900D928A95E1F780E1CC
:10259000E6E1F1E0D80101900D928A95E1F740E182
:1025A0006FE370E0CE01835A9F4F0E940A0ECE0166
:1025B000835A9F4F0E944D0D65EE71E0CE018F5AF8
:1025C0009F4F0E94F90DA3964EAD5FADA3976F96F6
:1025D0006EAD7FAD6F97CE018F5A9F4F0E948B0DCE
:1025E000811105C0CE018F5A9F4F0E94330D69960D
:1025F0001FAE1EAE69976B961FAE1EAE6B976D96A3
:102600001FAE1EAE6D97BE016F5A7F4FCE01895A25
:102610009F4F0E94D80DCE01895A9F4F0E94D40C23
:10262000CE01895A9F4F0E94450DCE018F5A9F4F70
:102630000E94450D8FE38093FF040E94AE078CEF4C
:1026400094E00E94E90A570168013E0191E1690E98
:10265000711C88248394912C2091FE04C401F501FF
:10266000008002C0880F991F0A94E2F7922F982BDE
:102670009093FE049091FC04809589238093FC0440
:102680008CEF94E00E94B90AF6012081F2E0CF0EAF
:10269000D11CC401F501008002C0880F991F0A9463
:1026A000E2F79091FC04222309F445C1892B809321
:1026B000FC048CEF94E00E94B90A63EF71E0CE0154
:1026C0008F5A9F4F0E94F90DCE018F5A9F4F0E9443
:1026D000680ACE018F5A9F4F0E94450DF501619106
:1026E00071915F014AE0CE018F5A9F4F0E940A0EFE
:1026F000CE018F5A9F4F0E94680ACE018F5A9F4F7A
:102700000E94450D6BEF71E0CE018F5A9F4F0E94E2
:10271000F90DCE018F5A9F4F0E94680ACE018F5A41
:102720009F4F0E94450DF6013297608171814AE00A
:10273000CE018F5A9F4F0E940A0ECE018F5A9F4F93
:102740000E94D40CCE018F5A9F4F0E94450D6C14ED
:102750007D0409F081CF63961FAE1EAE6397659628
:102760001FAE1EAE659767961FAE1EAE679766E1F9
:1027700070E0CE018F5A9F4F0E94630D8111DEC021
:10278000CE018F5A9F4F0E94330DCE018F5A9F4F1B
:102790000E94D40CCE018F5A9F4F0E94450DCE014E
:1027A000835A9F4F0E94450D65E072E08EEC93E0E6
:1027B0000E94AB0C88E199E20FB6F894A89580933B
:1027C00060000FBE909360008EEC93E00E94860C38
:1027D00062E172E0C8010E94F90DC8010E94D40CA8
:1027E000C8010E94450D6AE070E080E090E00E9420
:1027F000FB0860E671E0CE018F5A9F4F0E94F90DF1
:1028000098E0C92ED12CAA24A394BC2CA0929E039C
:10281000C092C00310929F031092C10381E00E94F6
:102820000B088111C5C062E272E0C8010E94F90D77
:10283000C8010E94680AC8010E94450D6AE272E060
:10284000C8010E94F90DC8010E94680AC8010E94CF
:10285000450DF701118210821382128215821482B3
:1028600040E1B801C6010E94C017B801C7010E942B
:10287000EF0D63968EAD9FAD6397009709F46FC01F
:10288000F701608171816115710509F466C0659673
:102890004EAD5FAD6597248135814217530708F42B
:1028A0005CC00E943C1AF7018481958167969FAFB6
:1028B0008EAF679715821482C7010E94450DCE0125
:1028C0008F5A9F4F0E944D0D1A8219821C821B82C3
:1028D0001E821D8263966EAD7FAD63976115710593
:1028E00039F067964EAD5FAD6797C8010E94B70D8E
:1028F000C8010E94680AC8010E94450D6FE272E09B
:10290000C8010E94F90DC8010E94D40CC8010E94A0
:10291000450DE8ECEB0DE83008F0D9C1F0E0ED56DC
:10292000FB4E0C944318C7145B165B165B165E16C1
:1029300061166716641680958923B9CE86E190E00A
:1029400067969FAF8EAF67976EEF77E063968EAD19
:102950009FAD63970E946F1718CF0E94E518F7018B
:102960008081918163969FAF8EAF639782819381BF
:1029700065969FAF8EAF65978481958167969FAF6F
:102980008EAF6797118210821382128293CF63E316
:1029900072E0C8010E94F90DC8010E94D40CC80160
:1029A0000E94450D61E070E080E090E00E94FB082D
:1029B000FFEFCF1ADF0A28E7C216D10409F025CFAE
:1029C0006BE672E0C8010E94F90DC8010E94D40CA8
:1029D000C8010E94450D6AE070E080E090E00E942E
:1029E000FB08CE018F5A9F4F0E94450D8DE38093C7
:1029F0006E040E94AE078BE694E00E94E90AB12CB7
:102A0000A12CCC24C394D12C20916D04C6010A2C96
:102A100001C0880F0A94EAF7922F982B90936D04C7
:102A200090916B048095892380936B048BE694E0EE
:102A30000E94B90A8FEFA81AB80A98E0A916B10443
:102A400019F7A8956AEB71E0C7010E94F90D6DE7CF
:102A500072E0C8010E94F90DB701C8010E94F90C8B
:102A6000C8010E94450DC7010E94450D8EEC93E000
:102A70000E94860C8EEC93E00E94480A68E872E09F
:102A8000C8010E94F90DC8010E94D40CC8010E941F
:102A9000450D66E972E0C8010E94F90DC8010E9467
:102AA000D40CC8010E94450D60E671E0CE01835A46
:102AB0009F4F0E94F90D912C812CF80120E4119276
:102AC0002A95E9F76DE972E0CE01835A9F4F0E9483
:102AD000EF0D4AE0B701C4010E94AD17F701019064
:102AE0000020E9F73197EE19FF09F9F0A396CEAC73
:102AF000DFACA397CE0EDF1EB601CE01835A9F4FE7
:102B00000E94630D882389F06F962EAD3FAD6F97BD
:102B1000A3968EAD9FADA397B701820F931F0E941E
:102B20003C1AA396DFAECEAEA3978FB7F894409031
:102B300000035090010360900203709003038FBF65
:102B400069961FAE1EAE69976B961FAE1EAE6B9751
:102B50006D961FAE1EAE6D976F966EAD7FAD6F9783
:102B60006115710549F0A3964EAD5FADA397CE01F7
:102B7000895A9F4F0E94B70D61E08EE00E94440782
:102B8000BE01695A7F4F8EEC93E00E94C20C809187
:102B90008E04811106C067E974E08EEC93E00E9418
:102BA000AB0C8EEC93E00E94480A60E08EE00E943D
:102BB000440780918E04811133C063EA72E0CE0134
:102BC0008F5A9F4F0E94F90D6D964EAD5FAD6D9778
:102BD00069966EAD7FAD6997CE018F5A9F4F0E9467
:102BE0008B0D811105C0CE018F5A9F4F0E94330D6E
:102BF000F701118210821382128215821482BE01A3
:102C00006F5A7F4FC7010E94D80DC7010E94D40C94
:102C1000C7010E94450DCE018F5A9F4F0E94450D5E
:102C2000CE01895A9F4F0E94450D1801D12CC12C0D
:102C3000B12CA12C2FB7F89480910003909101033F
:102C4000A0910203B09103032FBF84199509A6092F
:102C5000B7094091A9045091AA046091AB04709106
:102C6000AC0484179507A607B70708F0FEC0F0E488
:102C7000AF16B10491F5F80120E411922A95E9F715
:102C80002FEF821A920A88E08816910409F015CF76
:102C9000CE01835A9F4F0E94450DA895E0E0F0E0D9
:102CA000EF2B09F401CF0E94A609882309F4FCCE7A
:102CB0000E940000F9CE64E472E06BCE6EE472E034
:102CC00068CE6EE572E065CE64EB71E062CE63E6DD
:102CD00072E05FCED12CC12CADCF8EEC93E00E9480
:102CE0009A09892B09F4A6CF8EEC93E00E9478090B
:102CF000F10181931F01FFEFAF1ABF0AF601E657FA
:102D0000FB4F95858913E6CF2FEFC21AD20A84E0D4
:102D1000C816D10409F08ECF60EB72E08DEE94E01E
:102D20000E94020C4AE050E0B4018DEE94E00E9453
:102D30008A0CB8018DEE94E00E94AB0C6FE571E057
:102D4000C8010E947617512C412C892B51F09FEF1E
:102D5000491A590A6FE571E090E080E00E94761709
:102D6000F4CF712C612C58014614570409F483CF19
:102D7000F50101900020E9F731976F01CA18DB08CF
:102D800046E050E06EE974E0C5010E94431AEFEF9F
:102D9000CE1ADE0A15012C0C3D1C892B29F0FFEF01
:102DA0006F1A7F0A5101E0CF6CE974E0C5010E94FF
:102DB00076176CE974E090E080E00E947617009747
:102DC00071F30E9451176C016CE974E090E080E0AF
:102DD0000E947617009719F30E945117B82EA92E5A
:102DE0006CE974E090E080E00E9476176FEB72E08F
:102DF0008DEE94E00E94020CA601DD0C660B770BB1
:102E000077FF2AC08DEE94E00E945D0C60E372E0D3
:102E10008DEE94E00E94020C4AE050E06B2D7A2D7A
:102E20008DEE94E00E948A0C81E090E001C0880F52
:102E3000CA94EAF79091FC04BB20A1F0892B8093FF
:102E4000FC048CEF94E00E94B90A68EE73E080E025
:102E500090E00E94FB08A3CF2AE08DEE94E00E9450
:102E6000110CD4CF80958923EACFAB2809F408CF81
:102E700002CF81E994E00E94450D8BE195E00E942C
:102E8000450D81E295E00E94450D87E295E00E94A4
:102E9000450D8DE295E00E94450D83E395E00C948D
:102EA000450DFC0188279927E89421912032E9F308
:102EB000293010F02E30C8F32B3241F02D3239F486
:102EC000689404C00E94B817820F911D219120536D
:102ED0002A30C0F31EF4909581959F4F0895FB0111
:102EE000DC0105900D920020E1F7089549E355E0DB
:102EF0000E947B170895FA01A191B081009719F4FF
:102F00001097E1F0CD01DC01CD010D90002011F40E
:102F1000C00113C0FB012191222319F02015D9F71C
:102F2000F3CFFB012191201519F41E92119606C0D2
:102F30002223C1F70D900020A1F7D001FA01A1933F
:102F4000B08308954532510520F4423010F00C94BE
:102F5000AD17FB011082CB010895BB274A3031F435
:102F6000992322F4BDE2909581959F4F0C94C1174F
:102F70007AE0979F902D879F802D910D11240895C1
:102F8000BB27FB015527AA27880F991FAA1FA41743
:102F900010F0A41B83955051B9F7A05DAA3308F037
:102FA000A95DA193009779F7B111B1931192CB016B
:102FB0000C94DA17DC01FC01672F71917723E1F79C
:102FC000329704C07C916D9370836291AE17BF07F6
:102FD000C8F308952F923F924F925F926F927F9223
:102FE0008F929F92AF92BF92CF92DF92EF92FF9219
:102FF0000F931F93CF93DF93CDB7DEB7CA1BDB0BC5
:103000000FB6F894DEBF0FBECDBF09942A88398869
:1030100048885F846E847D848C849B84AA84B98470
:10302000C884DF80EE80FD800C811B81AA81B9817C
:10303000CE0FD11D0FB6F894DEBF0FBECDBFED0190
:103040000895A1E21A2EAA1BBB1BFD010DC0AA1FE9
:10305000BB1FEE1FFF1FA217B307E407F50720F001
:10306000A21BB30BE40BF50B661F771F881F991F7C
:103070001A9469F760957095809590959B01AC01C5
:10308000BD01CF010895EE0FFF1F0590F491E02DD3
:1030900009940F931F93CF93DF938230910510F41F
:1030A00082E090E0E0913D05F0913E0530E020E0C7
:1030B000B0E0A0E0309799F42115310509F44AC039
:1030C000281B390B24303105D8F58A819B81611585
:1030D000710589F1FB0193838283FE0111C0408158
:1030E00051810281138148175907E0F048175907A9
:1030F00099F4109761F012960C93129713961C9303
:103100003296CF01DF91CF911F910F9108950093D7
:103110003D0510933E05F4CF2115310551F04217BE
:10312000530738F0A901DB019A01BD01DF01F80165
:10313000C1CFEF01F9CF90933E0580933D05CDCFF0
:10314000FE01E20FF31F81939193225031093983DD
:103150002883D7CF20913B0530913C05232B41F4A8
:10316000209102013091030130933C0520933B05EF
:1031700020910001309101012115310541F42DB755
:103180003EB74091040150910501241B350BE0919D
:103190003B05F0913C05E217F307A0F42E1B3F0B13
:1031A0002817390778F0AC014E5F5F4F24173507B9
:1031B00048F04E0F5F1F50933C0540933B058193B1
:1031C00091939FCFF0E0E0E09CCFCF93DF93009707
:1031D000E9F0FC01329713821282A0913D05B09173
:1031E0003E05ED0130E020E01097A1F4208131810F
:1031F000820F931F20913B0530913C05281739071A
:1032000009F061C0F0933C05E0933B05DF91CF915D
:103210000895EA01CE17DF07E8F54A815B819E0138
:1032200041155105B1F7E901FB83EA8349915991B1
:10323000C40FD51FEC17FD0761F4808191810296C0
:10324000840F951FE90199838883828193819B83F1
:103250008A83F0E0E0E012968D919C91139700979D
:10326000B9F52D913C911197CD010296820F931FD4
:1032700020913B0530913C052817390739F63097E6
:1032800051F510923E0510923D05B0933C05A09378
:103290003B05BCCFD383C28340815181840F951FEE
:1032A000C817D90761F44E5F5F4F88819981480F35
:1032B000591F518340838A819B8193838283211587
:1032C000310509F0B0CFF0933E05E0933D059ECF68
:1032D000FD01DC01C0CF13821282D7CFB0E0A0E0A5
:1032E000E4E7F9E10C94EC178C01009751F4CB0161
:1032F0000E9449188C01C801CDB7DEB7E0E10C94FB
:103300000818FC01E60FF71F9C0122503109E21753
:10331000F30708F49DC0D901CD91DC911197C61730
:10332000D70798F0C530D10530F3CE010497861742
:10333000970708F3C61BD70B2297C193D1936D93C0
:103340007C93CF010E94E518D6CF5B01AC1ABD0A71
:103350004C018C0E9D1EA0913D05B0913E05512C57
:10336000412CF12CE12C109731F580913B05909187
:103370003C058815990509F05CC04616570608F00B
:1033800058C08091000190910101009741F48DB7E0
:103390009EB74091040150910501841B950BE817DD
:1033A000F90708F055C0F0933C05E0933B05F9019F
:1033B00071836083A0CF8D919C91119712966C9030
:1033C000129713967C901397A815B90559F56C01BF
:1033D00042E0C40ED11CCA14DB0420F1AC014A192E
:1033E0005B09DA011296159780F06282738251832D
:1033F0004083D9016D937C93E114F10471F0D701FE
:103400001396FC93EE93129776CF22968C0F9D1F06
:10341000F90191838083F301EFCFF0933E05E093B0
:103420003D0569CF4816590608F42C017D01D301EA
:103430009ACFCB010E9449187C01009749F0AE0158
:10344000B8010E94331AC8010E94E518870153CFC2
:1034500010E000E050CF9111089581568A5108F490
:10346000805285580895FB01DC0102C001900D9245
:1034700041505040D8F70895FB01DC0101900D92B6
:103480000020E1F70895FB01DC014150504030F08D
:103490008D910190801919F40020B9F7881B990BC0
:1034A000089514E0C7E3D4E004C0FE010E9443186D
:0C34B0002196C833D107C9F7F894FFCF6C
:1034BC0000003F0580000000010002000300040032
:1034CC0005000600070001000100010001000100D9
:1034DC000100010001006B006C006D000000000099
:1034EC001507E806B60ABE06E106CE06BF060000C2
:1034FC000000DC093C096909480A9A0978098C0919
:10350C00000000000D053C09B60A2D097B0A0D0AC6
:10351C00002142722C002C446F6E652E0053747582
:10352C007474676172742047616C6C6572792041A8
:10353C002F420030322E30322E323032310076654E
:10354C007273696F6E20312E3053540042725246A2
:10355C0049440055564C004D4153544552002145A9
:10356C004F46002152656C61790053595300216814
:10357C0065616465725F626567696E00216865618B
:10358C006465725F656E64002173657475705F624B
:10359C006567696E0072656C6179696E6974206F1C
:1035AC006E200052656C6179205B005D2073657440
:1035BC0020746F200057445420656E6461626C6502
:1035CC006400202020493243205363616E6E657283
:1035DC003A00466F756E643A200020283078002936
:1035EC002020004B657970616420286465666175E4
:1035FC006C7429004B65797061642F494F004F6CD6
:10360C00656420202864656661756C7429004F6CB4
:10361C00656400556E6B6E6F776E00493243207394
:10362C0063616E20636F6D706C65746500217365EA
:10363C007475705F656E64000A3D3D3D5354415294
:10364C00543D3D3D0A004D4F746865720021506F2A
:10365C006C6C005253343835206F75743A200A0064
:10366C007263766420636D642066726F6D200076E1
:0C367C00616C756573206172653A200076
:00000001FF
